{
	"@openzeppelin/contracts/token/ERC1155/ERC1155.sol": {
		"ERC1155": {
			"abi": [
				{
					"inputs": [
						{
							"internalType": "string",
							"name": "uri_",
							"type": "string"
						}
					],
					"stateMutability": "nonpayable",
					"type": "constructor"
				},
				{
					"anonymous": false,
					"inputs": [
						{
							"indexed": true,
							"internalType": "address",
							"name": "account",
							"type": "address"
						},
						{
							"indexed": true,
							"internalType": "address",
							"name": "operator",
							"type": "address"
						},
						{
							"indexed": false,
							"internalType": "bool",
							"name": "approved",
							"type": "bool"
						}
					],
					"name": "ApprovalForAll",
					"type": "event"
				},
				{
					"anonymous": false,
					"inputs": [
						{
							"indexed": true,
							"internalType": "address",
							"name": "operator",
							"type": "address"
						},
						{
							"indexed": true,
							"internalType": "address",
							"name": "from",
							"type": "address"
						},
						{
							"indexed": true,
							"internalType": "address",
							"name": "to",
							"type": "address"
						},
						{
							"indexed": false,
							"internalType": "uint256[]",
							"name": "ids",
							"type": "uint256[]"
						},
						{
							"indexed": false,
							"internalType": "uint256[]",
							"name": "values",
							"type": "uint256[]"
						}
					],
					"name": "TransferBatch",
					"type": "event"
				},
				{
					"anonymous": false,
					"inputs": [
						{
							"indexed": true,
							"internalType": "address",
							"name": "operator",
							"type": "address"
						},
						{
							"indexed": true,
							"internalType": "address",
							"name": "from",
							"type": "address"
						},
						{
							"indexed": true,
							"internalType": "address",
							"name": "to",
							"type": "address"
						},
						{
							"indexed": false,
							"internalType": "uint256",
							"name": "id",
							"type": "uint256"
						},
						{
							"indexed": false,
							"internalType": "uint256",
							"name": "value",
							"type": "uint256"
						}
					],
					"name": "TransferSingle",
					"type": "event"
				},
				{
					"anonymous": false,
					"inputs": [
						{
							"indexed": false,
							"internalType": "string",
							"name": "value",
							"type": "string"
						},
						{
							"indexed": true,
							"internalType": "uint256",
							"name": "id",
							"type": "uint256"
						}
					],
					"name": "URI",
					"type": "event"
				},
				{
					"inputs": [
						{
							"internalType": "address",
							"name": "account",
							"type": "address"
						},
						{
							"internalType": "uint256",
							"name": "id",
							"type": "uint256"
						}
					],
					"name": "balanceOf",
					"outputs": [
						{
							"internalType": "uint256",
							"name": "",
							"type": "uint256"
						}
					],
					"stateMutability": "view",
					"type": "function"
				},
				{
					"inputs": [
						{
							"internalType": "address[]",
							"name": "accounts",
							"type": "address[]"
						},
						{
							"internalType": "uint256[]",
							"name": "ids",
							"type": "uint256[]"
						}
					],
					"name": "balanceOfBatch",
					"outputs": [
						{
							"internalType": "uint256[]",
							"name": "",
							"type": "uint256[]"
						}
					],
					"stateMutability": "view",
					"type": "function"
				},
				{
					"inputs": [
						{
							"internalType": "address",
							"name": "account",
							"type": "address"
						},
						{
							"internalType": "address",
							"name": "operator",
							"type": "address"
						}
					],
					"name": "isApprovedForAll",
					"outputs": [
						{
							"internalType": "bool",
							"name": "",
							"type": "bool"
						}
					],
					"stateMutability": "view",
					"type": "function"
				},
				{
					"inputs": [
						{
							"internalType": "address",
							"name": "from",
							"type": "address"
						},
						{
							"internalType": "address",
							"name": "to",
							"type": "address"
						},
						{
							"internalType": "uint256[]",
							"name": "ids",
							"type": "uint256[]"
						},
						{
							"internalType": "uint256[]",
							"name": "amounts",
							"type": "uint256[]"
						},
						{
							"internalType": "bytes",
							"name": "data",
							"type": "bytes"
						}
					],
					"name": "safeBatchTransferFrom",
					"outputs": [],
					"stateMutability": "nonpayable",
					"type": "function"
				},
				{
					"inputs": [
						{
							"internalType": "address",
							"name": "from",
							"type": "address"
						},
						{
							"internalType": "address",
							"name": "to",
							"type": "address"
						},
						{
							"internalType": "uint256",
							"name": "id",
							"type": "uint256"
						},
						{
							"internalType": "uint256",
							"name": "amount",
							"type": "uint256"
						},
						{
							"internalType": "bytes",
							"name": "data",
							"type": "bytes"
						}
					],
					"name": "safeTransferFrom",
					"outputs": [],
					"stateMutability": "nonpayable",
					"type": "function"
				},
				{
					"inputs": [
						{
							"internalType": "address",
							"name": "operator",
							"type": "address"
						},
						{
							"internalType": "bool",
							"name": "approved",
							"type": "bool"
						}
					],
					"name": "setApprovalForAll",
					"outputs": [],
					"stateMutability": "nonpayable",
					"type": "function"
				},
				{
					"inputs": [
						{
							"internalType": "bytes4",
							"name": "interfaceId",
							"type": "bytes4"
						}
					],
					"name": "supportsInterface",
					"outputs": [
						{
							"internalType": "bool",
							"name": "",
							"type": "bool"
						}
					],
					"stateMutability": "view",
					"type": "function"
				},
				{
					"inputs": [
						{
							"internalType": "uint256",
							"name": "",
							"type": "uint256"
						}
					],
					"name": "uri",
					"outputs": [
						{
							"internalType": "string",
							"name": "",
							"type": "string"
						}
					],
					"stateMutability": "view",
					"type": "function"
				}
			],
			"devdoc": {
				"details": "Implementation of the basic standard multi-token. See https://eips.ethereum.org/EIPS/eip-1155 Originally based on code by Enjin: https://github.com/enjin/erc-1155 _Available since v3.1._",
				"kind": "dev",
				"methods": {
					"balanceOf(address,uint256)": {
						"details": "See {IERC1155-balanceOf}. Requirements: - `account` cannot be the zero address."
					},
					"balanceOfBatch(address[],uint256[])": {
						"details": "See {IERC1155-balanceOfBatch}. Requirements: - `accounts` and `ids` must have the same length."
					},
					"constructor": {
						"details": "See {_setURI}."
					},
					"isApprovedForAll(address,address)": {
						"details": "See {IERC1155-isApprovedForAll}."
					},
					"safeBatchTransferFrom(address,address,uint256[],uint256[],bytes)": {
						"details": "See {IERC1155-safeBatchTransferFrom}."
					},
					"safeTransferFrom(address,address,uint256,uint256,bytes)": {
						"details": "See {IERC1155-safeTransferFrom}."
					},
					"setApprovalForAll(address,bool)": {
						"details": "See {IERC1155-setApprovalForAll}."
					},
					"supportsInterface(bytes4)": {
						"details": "See {IERC165-supportsInterface}."
					},
					"uri(uint256)": {
						"details": "See {IERC1155MetadataURI-uri}. This implementation returns the same URI for *all* token types. It relies on the token type ID substitution mechanism https://eips.ethereum.org/EIPS/eip-1155#metadata[defined in the EIP]. Clients calling this function must replace the `\\{id\\}` substring with the actual token type ID."
					}
				},
				"version": 1
			},
			"evm": {
				"assembly": "    /* \"@openzeppelin/contracts/token/ERC1155/ERC1155.sol\":570:17120  contract ERC1155 is Context, ERC165, IERC1155, IERC1155MetadataURI {... */\n  mstore(0x40, 0x80)\n    /* \"@openzeppelin/contracts/token/ERC1155/ERC1155.sol\":1107:1169  constructor(string memory uri_) {... */\n  callvalue\n  dup1\n  iszero\n  tag_1\n  jumpi\n  0x00\n  dup1\n  revert\ntag_1:\n  pop\n  mload(0x40)\n  sub(codesize, bytecodeSize)\n  dup1\n  bytecodeSize\n  dup4\n  codecopy\n  dup2\n  add\n  0x40\n  dup2\n  swap1\n  mstore\n  tag_2\n  swap2\n  tag_3\n  jump\t// in\ntag_2:\n    /* \"@openzeppelin/contracts/token/ERC1155/ERC1155.sol\":1149:1162  _setURI(uri_) */\n  tag_6\n    /* \"@openzeppelin/contracts/token/ERC1155/ERC1155.sol\":1157:1161  uri_ */\n  dup2\n    /* \"@openzeppelin/contracts/token/ERC1155/ERC1155.sol\":1149:1156  _setURI */\n  tag_7\n    /* \"@openzeppelin/contracts/token/ERC1155/ERC1155.sol\":1149:1162  _setURI(uri_) */\n  jump\t// in\ntag_6:\n    /* \"@openzeppelin/contracts/token/ERC1155/ERC1155.sol\":1107:1169  constructor(string memory uri_) {... */\n  pop\n    /* \"@openzeppelin/contracts/token/ERC1155/ERC1155.sol\":570:17120  contract ERC1155 is Context, ERC165, IERC1155, IERC1155MetadataURI {... */\n  jump(tag_24)\n    /* \"@openzeppelin/contracts/token/ERC1155/ERC1155.sol\":8171:8257  function _setURI(string memory newuri) internal virtual {... */\ntag_7:\n    /* \"@openzeppelin/contracts/token/ERC1155/ERC1155.sol\":8237:8250  _uri = newuri */\n  dup1\n  mload\n  tag_10\n  swap1\n    /* \"@openzeppelin/contracts/token/ERC1155/ERC1155.sol\":8237:8241  _uri */\n  0x02\n  swap1\n    /* \"@openzeppelin/contracts/token/ERC1155/ERC1155.sol\":8237:8250  _uri = newuri */\n  0x20\n  dup5\n  add\n  swap1\n  tag_11\n  jump\t// in\ntag_10:\n  pop\n    /* \"@openzeppelin/contracts/token/ERC1155/ERC1155.sol\":8171:8257  function _setURI(string memory newuri) internal virtual {... */\n  pop\n  jump\t// out\n    /* \"@openzeppelin/contracts/token/ERC1155/ERC1155.sol\":570:17120  contract ERC1155 is Context, ERC165, IERC1155, IERC1155MetadataURI {... */\ntag_11:\n  dup3\n  dup1\n  sload\n  tag_12\n  swap1\n  tag_13\n  jump\t// in\ntag_12:\n  swap1\n  0x00\n  mstore\n  keccak256(0x00, 0x20)\n  swap1\n  0x1f\n  add\n  0x20\n  swap1\n  div\n  dup2\n  add\n  swap3\n  dup3\n  tag_15\n  jumpi\n  0x00\n  dup6\n  sstore\n  jump(tag_18)\ntag_15:\n  dup3\n  0x1f\n  lt\n  tag_16\n  jumpi\n  dup1\n  mload\n  not(0xff)\n  and\n  dup4\n  dup1\n  add\n  or\n  dup6\n  sstore\n  jump(tag_18)\ntag_16:\n  dup3\n  dup1\n  add\n  0x01\n  add\n  dup6\n  sstore\n  dup3\n  iszero\n  tag_18\n  jumpi\n  swap2\n  dup3\n  add\ntag_17:\n  dup3\n  dup2\n  gt\n  iszero\n  tag_18\n  jumpi\n  dup3\n  mload\n  dup3\n  sstore\n  swap2\n  0x20\n  add\n  swap2\n  swap1\n  0x01\n  add\n  swap1\n  jump(tag_17)\ntag_18:\n  pop\n  tag_19\n  swap3\n  swap2\n  pop\n  tag_20\n  jump\t// in\ntag_19:\n  pop\n  swap1\n  jump\t// out\ntag_20:\ntag_21:\n  dup1\n  dup3\n  gt\n  iszero\n  tag_19\n  jumpi\n  0x00\n  dup2\n  sstore\n  0x01\n  add\n  jump(tag_21)\n    /* \"#utility.yul\":14:141   */\ntag_23:\n    /* \"#utility.yul\":75:85   */\n  0x4e487b71\n    /* \"#utility.yul\":70:73   */\n  0xe0\n    /* \"#utility.yul\":66:86   */\n  shl\n    /* \"#utility.yul\":63:64   */\n  0x00\n    /* \"#utility.yul\":56:87   */\n  mstore\n    /* \"#utility.yul\":106:110   */\n  0x41\n    /* \"#utility.yul\":103:104   */\n  0x04\n    /* \"#utility.yul\":96:111   */\n  mstore\n    /* \"#utility.yul\":130:134   */\n  0x24\n    /* \"#utility.yul\":127:128   */\n  0x00\n    /* \"#utility.yul\":120:135   */\n  revert\n    /* \"#utility.yul\":146:1233   */\ntag_3:\n    /* \"#utility.yul\":226:232   */\n  0x00\n    /* \"#utility.yul\":257:259   */\n  0x20\n    /* \"#utility.yul\":300:302   */\n  dup1\n    /* \"#utility.yul\":288:297   */\n  dup4\n    /* \"#utility.yul\":279:286   */\n  dup6\n    /* \"#utility.yul\":275:298   */\n  sub\n    /* \"#utility.yul\":271:303   */\n  slt\n    /* \"#utility.yul\":268:320   */\n  iszero\n  tag_27\n  jumpi\n    /* \"#utility.yul\":316:317   */\n  0x00\n    /* \"#utility.yul\":313:314   */\n  dup1\n    /* \"#utility.yul\":306:318   */\n  revert\n    /* \"#utility.yul\":268:320   */\ntag_27:\n    /* \"#utility.yul\":343:359   */\n  dup3\n  mload\n  sub(shl(0x40, 0x01), 0x01)\n    /* \"#utility.yul\":408:422   */\n  dup1\n  dup3\n  gt\n    /* \"#utility.yul\":405:439   */\n  iszero\n  tag_28\n  jumpi\n    /* \"#utility.yul\":435:436   */\n  0x00\n    /* \"#utility.yul\":432:433   */\n  dup1\n    /* \"#utility.yul\":425:437   */\n  revert\n    /* \"#utility.yul\":405:439   */\ntag_28:\n    /* \"#utility.yul\":473:479   */\n  dup2\n    /* \"#utility.yul\":462:471   */\n  dup6\n    /* \"#utility.yul\":458:480   */\n  add\n    /* \"#utility.yul\":448:480   */\n  swap2\n  pop\n    /* \"#utility.yul\":518:525   */\n  dup6\n    /* \"#utility.yul\":511:515   */\n  0x1f\n    /* \"#utility.yul\":507:509   */\n  dup4\n    /* \"#utility.yul\":503:516   */\n  add\n    /* \"#utility.yul\":499:526   */\n  slt\n    /* \"#utility.yul\":489:544   */\n  tag_29\n  jumpi\n    /* \"#utility.yul\":540:541   */\n  0x00\n    /* \"#utility.yul\":537:538   */\n  dup1\n    /* \"#utility.yul\":530:542   */\n  revert\n    /* \"#utility.yul\":489:544   */\ntag_29:\n    /* \"#utility.yul\":569:571   */\n  dup2\n    /* \"#utility.yul\":563:572   */\n  mload\n    /* \"#utility.yul\":591:593   */\n  dup2\n    /* \"#utility.yul\":587:589   */\n  dup2\n    /* \"#utility.yul\":584:594   */\n  gt\n    /* \"#utility.yul\":581:617   */\n  iszero\n  tag_31\n  jumpi\n    /* \"#utility.yul\":597:615   */\n  tag_31\n  tag_23\n  jump\t// in\ntag_31:\n    /* \"#utility.yul\":672:674   */\n  0x40\n    /* \"#utility.yul\":666:675   */\n  mload\n    /* \"#utility.yul\":640:642   */\n  0x1f\n    /* \"#utility.yul\":726:739   */\n  dup3\n  add\n  not(0x1f)\n    /* \"#utility.yul\":722:744   */\n  swap1\n  dup2\n  and\n    /* \"#utility.yul\":746:748   */\n  0x3f\n    /* \"#utility.yul\":718:749   */\n  add\n    /* \"#utility.yul\":714:754   */\n  and\n    /* \"#utility.yul\":702:755   */\n  dup2\n  add\n  swap1\n    /* \"#utility.yul\":770:788   */\n  dup4\n  dup3\n  gt\n    /* \"#utility.yul\":790:812   */\n  dup2\n  dup4\n  lt\n    /* \"#utility.yul\":767:813   */\n  or\n    /* \"#utility.yul\":764:836   */\n  iszero\n  tag_33\n  jumpi\n    /* \"#utility.yul\":816:834   */\n  tag_33\n  tag_23\n  jump\t// in\ntag_33:\n    /* \"#utility.yul\":856:866   */\n  dup2\n    /* \"#utility.yul\":852:854   */\n  0x40\n    /* \"#utility.yul\":845:867   */\n  mstore\n    /* \"#utility.yul\":891:893   */\n  dup3\n    /* \"#utility.yul\":883:889   */\n  dup2\n    /* \"#utility.yul\":876:894   */\n  mstore\n    /* \"#utility.yul\":931:938   */\n  dup9\n    /* \"#utility.yul\":926:928   */\n  dup7\n    /* \"#utility.yul\":921:923   */\n  dup5\n    /* \"#utility.yul\":917:919   */\n  dup8\n    /* \"#utility.yul\":913:924   */\n  add\n    /* \"#utility.yul\":909:929   */\n  add\n    /* \"#utility.yul\":906:939   */\n  gt\n    /* \"#utility.yul\":903:956   */\n  iszero\n  tag_34\n  jumpi\n    /* \"#utility.yul\":952:953   */\n  0x00\n    /* \"#utility.yul\":949:950   */\n  dup1\n    /* \"#utility.yul\":942:954   */\n  revert\n    /* \"#utility.yul\":903:956   */\ntag_34:\n    /* \"#utility.yul\":974:975   */\n  0x00\n    /* \"#utility.yul\":965:975   */\n  swap4\n  pop\n    /* \"#utility.yul\":984:1113   */\ntag_35:\n    /* \"#utility.yul\":998:1000   */\n  dup3\n    /* \"#utility.yul\":995:996   */\n  dup5\n    /* \"#utility.yul\":992:1001   */\n  lt\n    /* \"#utility.yul\":984:1113   */\n  iszero\n  tag_37\n  jumpi\n    /* \"#utility.yul\":1086:1096   */\n  dup5\n  dup5\n  add\n    /* \"#utility.yul\":1082:1101   */\n  dup7\n  add\n    /* \"#utility.yul\":1076:1102   */\n  mload\n    /* \"#utility.yul\":1055:1069   */\n  dup2\n  dup6\n  add\n    /* \"#utility.yul\":1051:1074   */\n  dup8\n  add\n    /* \"#utility.yul\":1044:1103   */\n  mstore\n    /* \"#utility.yul\":1009:1019   */\n  swap3\n  dup6\n  add\n  swap3\n    /* \"#utility.yul\":984:1113   */\n  jump(tag_35)\ntag_37:\n    /* \"#utility.yul\":1131:1133   */\n  dup3\n    /* \"#utility.yul\":1128:1129   */\n  dup5\n    /* \"#utility.yul\":1125:1134   */\n  gt\n    /* \"#utility.yul\":1122:1202   */\n  iszero\n  tag_38\n  jumpi\n    /* \"#utility.yul\":1190:1191   */\n  0x00\n    /* \"#utility.yul\":1185:1187   */\n  dup7\n    /* \"#utility.yul\":1180:1182   */\n  dup5\n    /* \"#utility.yul\":1172:1178   */\n  dup4\n    /* \"#utility.yul\":1168:1183   */\n  add\n    /* \"#utility.yul\":1164:1188   */\n  add\n    /* \"#utility.yul\":1157:1192   */\n  mstore\n    /* \"#utility.yul\":1122:1202   */\ntag_38:\n    /* \"#utility.yul\":1221:1227   */\n  swap9\n    /* \"#utility.yul\":146:1233   */\n  swap8\n  pop\n  pop\n  pop\n  pop\n  pop\n  pop\n  pop\n  pop\n  jump\t// out\n    /* \"#utility.yul\":1238:1618   */\ntag_13:\n    /* \"#utility.yul\":1317:1318   */\n  0x01\n    /* \"#utility.yul\":1313:1325   */\n  dup2\n  dup2\n  shr\n  swap1\n    /* \"#utility.yul\":1360:1372   */\n  dup3\n  and\n  dup1\n    /* \"#utility.yul\":1381:1442   */\n  tag_40\n  jumpi\n    /* \"#utility.yul\":1435:1439   */\n  0x7f\n    /* \"#utility.yul\":1427:1433   */\n  dup3\n    /* \"#utility.yul\":1423:1440   */\n  and\n    /* \"#utility.yul\":1413:1440   */\n  swap2\n  pop\n    /* \"#utility.yul\":1381:1442   */\ntag_40:\n    /* \"#utility.yul\":1488:1490   */\n  0x20\n    /* \"#utility.yul\":1480:1486   */\n  dup3\n    /* \"#utility.yul\":1477:1491   */\n  lt\n    /* \"#utility.yul\":1457:1475   */\n  dup2\n    /* \"#utility.yul\":1454:1492   */\n  sub\n    /* \"#utility.yul\":1451:1612   */\n  tag_41\n  jumpi\n    /* \"#utility.yul\":1534:1544   */\n  0x4e487b71\n    /* \"#utility.yul\":1529:1532   */\n  0xe0\n    /* \"#utility.yul\":1525:1545   */\n  shl\n    /* \"#utility.yul\":1522:1523   */\n  0x00\n    /* \"#utility.yul\":1515:1546   */\n  mstore\n    /* \"#utility.yul\":1569:1573   */\n  0x22\n    /* \"#utility.yul\":1566:1567   */\n  0x04\n    /* \"#utility.yul\":1559:1574   */\n  mstore\n    /* \"#utility.yul\":1597:1601   */\n  0x24\n    /* \"#utility.yul\":1594:1595   */\n  0x00\n    /* \"#utility.yul\":1587:1602   */\n  revert\n    /* \"#utility.yul\":1451:1612   */\ntag_41:\n  pop\n    /* \"#utility.yul\":1238:1618   */\n  swap2\n  swap1\n  pop\n  jump\t// out\ntag_24:\n    /* \"@openzeppelin/contracts/token/ERC1155/ERC1155.sol\":570:17120  contract ERC1155 is Context, ERC165, IERC1155, IERC1155MetadataURI {... */\n  dataSize(sub_0)\n  dup1\n  dataOffset(sub_0)\n  0x00\n  codecopy\n  0x00\n  return\nstop\n\nsub_0: assembly {\n        /* \"@openzeppelin/contracts/token/ERC1155/ERC1155.sol\":570:17120  contract ERC1155 is Context, ERC165, IERC1155, IERC1155MetadataURI {... */\n      mstore(0x40, 0x80)\n      callvalue\n      dup1\n      iszero\n      tag_1\n      jumpi\n      0x00\n      dup1\n      revert\n    tag_1:\n      pop\n      jumpi(tag_2, lt(calldatasize, 0x04))\n      shr(0xe0, calldataload(0x00))\n      dup1\n      0x4e1273f4\n      gt\n      tag_11\n      jumpi\n      dup1\n      0x4e1273f4\n      eq\n      tag_7\n      jumpi\n      dup1\n      0xa22cb465\n      eq\n      tag_8\n      jumpi\n      dup1\n      0xe985e9c5\n      eq\n      tag_9\n      jumpi\n      dup1\n      0xf242432a\n      eq\n      tag_10\n      jumpi\n      0x00\n      dup1\n      revert\n    tag_11:\n      dup1\n      0xfdd58e\n      eq\n      tag_3\n      jumpi\n      dup1\n      0x01ffc9a7\n      eq\n      tag_4\n      jumpi\n      dup1\n      0x0e89341c\n      eq\n      tag_5\n      jumpi\n      dup1\n      0x2eb2c2d6\n      eq\n      tag_6\n      jumpi\n    tag_2:\n      0x00\n      dup1\n      revert\n        /* \"@openzeppelin/contracts/token/ERC1155/ERC1155.sol\":2185:2413  function balanceOf(address account, uint256 id) public view virtual override returns (uint256) {... */\n    tag_3:\n      tag_12\n      tag_13\n      calldatasize\n      0x04\n      tag_14\n      jump\t// in\n    tag_13:\n      tag_15\n      jump\t// in\n    tag_12:\n      mload(0x40)\n        /* \"#utility.yul\":597:622   */\n      swap1\n      dup2\n      mstore\n        /* \"#utility.yul\":585:587   */\n      0x20\n        /* \"#utility.yul\":570:588   */\n      add\n        /* \"@openzeppelin/contracts/token/ERC1155/ERC1155.sol\":2185:2413  function balanceOf(address account, uint256 id) public view virtual override returns (uint256) {... */\n    tag_16:\n      mload(0x40)\n      dup1\n      swap2\n      sub\n      swap1\n      return\n        /* \"@openzeppelin/contracts/token/ERC1155/ERC1155.sol\":1236:1541  function supportsInterface(bytes4 interfaceId) public view virtual override(ERC165, IERC165) returns (bool) {... */\n    tag_4:\n      tag_18\n      tag_19\n      calldatasize\n      0x04\n      tag_20\n      jump\t// in\n    tag_19:\n      tag_21\n      jump\t// in\n    tag_18:\n      mload(0x40)\n        /* \"#utility.yul\":1184:1198   */\n      swap1\n      iszero\n        /* \"#utility.yul\":1177:1199   */\n      iszero\n        /* \"#utility.yul\":1159:1200   */\n      dup2\n      mstore\n        /* \"#utility.yul\":1147:1149   */\n      0x20\n        /* \"#utility.yul\":1132:1150   */\n      add\n        /* \"@openzeppelin/contracts/token/ERC1155/ERC1155.sol\":1236:1541  function supportsInterface(bytes4 interfaceId) public view virtual override(ERC165, IERC165) returns (bool) {... */\n      tag_16\n        /* \"#utility.yul\":1019:1206   */\n      jump\n        /* \"@openzeppelin/contracts/token/ERC1155/ERC1155.sol\":1940:2043  function uri(uint256) public view virtual override returns (string memory) {... */\n    tag_5:\n      tag_24\n      tag_25\n      calldatasize\n      0x04\n      tag_26\n      jump\t// in\n    tag_25:\n      tag_27\n      jump\t// in\n    tag_24:\n      mload(0x40)\n      tag_16\n      swap2\n      swap1\n      tag_29\n      jump\t// in\n        /* \"@openzeppelin/contracts/token/ERC1155/ERC1155.sol\":4060:4490  function safeBatchTransferFrom(... */\n    tag_6:\n      tag_30\n      tag_31\n      calldatasize\n      0x04\n      tag_32\n      jump\t// in\n    tag_31:\n      tag_33\n      jump\t// in\n    tag_30:\n      stop\n        /* \"@openzeppelin/contracts/token/ERC1155/ERC1155.sol\":2570:3078  function balanceOfBatch(address[] memory accounts, uint256[] memory ids)... */\n    tag_7:\n      tag_34\n      tag_35\n      calldatasize\n      0x04\n      tag_36\n      jump\t// in\n    tag_35:\n      tag_37\n      jump\t// in\n    tag_34:\n      mload(0x40)\n      tag_16\n      swap2\n      swap1\n      tag_39\n      jump\t// in\n        /* \"@openzeppelin/contracts/token/ERC1155/ERC1155.sol\":3146:3299  function setApprovalForAll(address operator, bool approved) public virtual override {... */\n    tag_8:\n      tag_30\n      tag_41\n      calldatasize\n      0x04\n      tag_42\n      jump\t// in\n    tag_41:\n      tag_43\n      jump\t// in\n        /* \"@openzeppelin/contracts/token/ERC1155/ERC1155.sol\":3366:3532  function isApprovedForAll(address account, address operator) public view virtual override returns (bool) {... */\n    tag_9:\n      tag_18\n      tag_45\n      calldatasize\n      0x04\n      tag_46\n      jump\t// in\n    tag_45:\n      sub(shl(0xa0, 0x01), 0x01)\n        /* \"@openzeppelin/contracts/token/ERC1155/ERC1155.sol\":3488:3515  _operatorApprovals[account] */\n      swap2\n      dup3\n      and\n        /* \"@openzeppelin/contracts/token/ERC1155/ERC1155.sol\":3465:3469  bool */\n      0x00\n        /* \"@openzeppelin/contracts/token/ERC1155/ERC1155.sol\":3488:3515  _operatorApprovals[account] */\n      swap1\n      dup2\n      mstore\n        /* \"@openzeppelin/contracts/token/ERC1155/ERC1155.sol\":3488:3506  _operatorApprovals */\n      0x01\n        /* \"@openzeppelin/contracts/token/ERC1155/ERC1155.sol\":3488:3515  _operatorApprovals[account] */\n      0x20\n      swap1\n      dup2\n      mstore\n      0x40\n      dup1\n      dup4\n      keccak256\n        /* \"@openzeppelin/contracts/token/ERC1155/ERC1155.sol\":3488:3525  _operatorApprovals[account][operator] */\n      swap4\n      swap1\n      swap5\n      and\n      dup3\n      mstore\n      swap2\n      swap1\n      swap2\n      mstore\n      keccak256\n      sload\n      0xff\n      and\n      swap1\n        /* \"@openzeppelin/contracts/token/ERC1155/ERC1155.sol\":3366:3532  function isApprovedForAll(address account, address operator) public view virtual override returns (bool) {... */\n      jump\n        /* \"@openzeppelin/contracts/token/ERC1155/ERC1155.sol\":3599:3988  function safeTransferFrom(... */\n    tag_10:\n      tag_30\n      tag_50\n      calldatasize\n      0x04\n      tag_51\n      jump\t// in\n    tag_50:\n      tag_52\n      jump\t// in\n        /* \"@openzeppelin/contracts/token/ERC1155/ERC1155.sol\":2185:2413  function balanceOf(address account, uint256 id) public view virtual override returns (uint256) {... */\n    tag_15:\n        /* \"@openzeppelin/contracts/token/ERC1155/ERC1155.sol\":2271:2278  uint256 */\n      0x00\n      sub(shl(0xa0, 0x01), 0x01)\n        /* \"@openzeppelin/contracts/token/ERC1155/ERC1155.sol\":2298:2319  account != address(0) */\n      dup4\n      and\n        /* \"@openzeppelin/contracts/token/ERC1155/ERC1155.sol\":2290:2367  require(account != address(0), \"ERC1155: balance query for the zero address\") */\n      tag_54\n      jumpi\n      mload(0x40)\n      shl(0xe5, 0x461bcd)\n      dup2\n      mstore\n        /* \"#utility.yul\":8258:8260   */\n      0x20\n        /* \"@openzeppelin/contracts/token/ERC1155/ERC1155.sol\":2290:2367  require(account != address(0), \"ERC1155: balance query for the zero address\") */\n      0x04\n      dup3\n      add\n        /* \"#utility.yul\":8240:8261   */\n      mstore\n        /* \"#utility.yul\":8297:8299   */\n      0x2b\n        /* \"#utility.yul\":8277:8295   */\n      0x24\n      dup3\n      add\n        /* \"#utility.yul\":8270:8300   */\n      mstore\n        /* \"#utility.yul\":8336:8370   */\n      0x455243313135353a2062616c616e636520717565727920666f7220746865207a\n        /* \"#utility.yul\":8316:8334   */\n      0x44\n      dup3\n      add\n        /* \"#utility.yul\":8309:8371   */\n      mstore\n      shl(0xa8, 0x65726f2061646472657373)\n        /* \"#utility.yul\":8387:8405   */\n      0x64\n      dup3\n      add\n        /* \"#utility.yul\":8380:8421   */\n      mstore\n        /* \"#utility.yul\":8438:8457   */\n      0x84\n      add\n        /* \"@openzeppelin/contracts/token/ERC1155/ERC1155.sol\":2290:2367  require(account != address(0), \"ERC1155: balance query for the zero address\") */\n    tag_55:\n      mload(0x40)\n      dup1\n      swap2\n      sub\n      swap1\n      revert\n    tag_54:\n      pop\n        /* \"@openzeppelin/contracts/token/ERC1155/ERC1155.sol\":2384:2393  _balances */\n      0x00\n        /* \"@openzeppelin/contracts/token/ERC1155/ERC1155.sol\":2384:2397  _balances[id] */\n      swap1\n      dup2\n      mstore\n      0x20\n      dup2\n      dup2\n      mstore\n      0x40\n      dup1\n      dup4\n      keccak256\n      sub(shl(0xa0, 0x01), 0x01)\n        /* \"@openzeppelin/contracts/token/ERC1155/ERC1155.sol\":2384:2406  _balances[id][account] */\n      swap5\n      swap1\n      swap5\n      and\n      dup4\n      mstore\n      swap3\n      swap1\n      mstore\n      keccak256\n      sload\n      swap1\n        /* \"@openzeppelin/contracts/token/ERC1155/ERC1155.sol\":2185:2413  function balanceOf(address account, uint256 id) public view virtual override returns (uint256) {... */\n      jump\t// out\n        /* \"@openzeppelin/contracts/token/ERC1155/ERC1155.sol\":1236:1541  function supportsInterface(bytes4 interfaceId) public view virtual override(ERC165, IERC165) returns (bool) {... */\n    tag_21:\n        /* \"@openzeppelin/contracts/token/ERC1155/ERC1155.sol\":1338:1342  bool */\n      0x00\n      not(sub(shl(0xe0, 0x01), 0x01))\n        /* \"@openzeppelin/contracts/token/ERC1155/ERC1155.sol\":1373:1414  interfaceId == type(IERC1155).interfaceId */\n      dup3\n      and\n      shl(0xe1, 0x6cdb3d13)\n      eq\n      dup1\n        /* \"@openzeppelin/contracts/token/ERC1155/ERC1155.sol\":1373:1482  interfaceId == type(IERC1155).interfaceId ||... */\n      tag_58\n      jumpi\n      pop\n      not(sub(shl(0xe0, 0x01), 0x01))\n        /* \"@openzeppelin/contracts/token/ERC1155/ERC1155.sol\":1430:1482  interfaceId == type(IERC1155MetadataURI).interfaceId */\n      dup3\n      and\n      shl(0xe2, 0x03a24d07)\n      eq\n        /* \"@openzeppelin/contracts/token/ERC1155/ERC1155.sol\":1373:1482  interfaceId == type(IERC1155).interfaceId ||... */\n    tag_58:\n        /* \"@openzeppelin/contracts/token/ERC1155/ERC1155.sol\":1373:1534  interfaceId == type(IERC1155).interfaceId ||... */\n      dup1\n      tag_60\n      jumpi\n      pop\n      shl(0xe0, 0x01ffc9a7)\n      not(sub(shl(0xe0, 0x01), 0x01))\n        /* \"@openzeppelin/contracts/utils/introspection/ERC165.sol\":937:977  interfaceId == type(IERC165).interfaceId */\n      dup4\n      and\n      eq\n        /* \"@openzeppelin/contracts/token/ERC1155/ERC1155.sol\":1498:1534  super.supportsInterface(interfaceId) */\n    tag_60:\n        /* \"@openzeppelin/contracts/token/ERC1155/ERC1155.sol\":1354:1534  return... */\n      swap3\n        /* \"@openzeppelin/contracts/token/ERC1155/ERC1155.sol\":1236:1541  function supportsInterface(bytes4 interfaceId) public view virtual override(ERC165, IERC165) returns (bool) {... */\n      swap2\n      pop\n      pop\n      jump\t// out\n        /* \"@openzeppelin/contracts/token/ERC1155/ERC1155.sol\":1940:2043  function uri(uint256) public view virtual override returns (string memory) {... */\n    tag_27:\n        /* \"@openzeppelin/contracts/token/ERC1155/ERC1155.sol\":2000:2013  string memory */\n      0x60\n        /* \"@openzeppelin/contracts/token/ERC1155/ERC1155.sol\":2032:2036  _uri */\n      0x02\n        /* \"@openzeppelin/contracts/token/ERC1155/ERC1155.sol\":2025:2036  return _uri */\n      dup1\n      sload\n      tag_63\n      swap1\n      tag_64\n      jump\t// in\n    tag_63:\n      dup1\n      0x1f\n      add\n      0x20\n      dup1\n      swap2\n      div\n      mul\n      0x20\n      add\n      mload(0x40)\n      swap1\n      dup2\n      add\n      0x40\n      mstore\n      dup1\n      swap3\n      swap2\n      swap1\n      dup2\n      dup2\n      mstore\n      0x20\n      add\n      dup3\n      dup1\n      sload\n      tag_65\n      swap1\n      tag_64\n      jump\t// in\n    tag_65:\n      dup1\n      iszero\n      tag_66\n      jumpi\n      dup1\n      0x1f\n      lt\n      tag_67\n      jumpi\n      0x0100\n      dup1\n      dup4\n      sload\n      div\n      mul\n      dup4\n      mstore\n      swap2\n      0x20\n      add\n      swap2\n      jump(tag_66)\n    tag_67:\n      dup3\n      add\n      swap2\n      swap1\n      0x00\n      mstore\n      keccak256(0x00, 0x20)\n      swap1\n    tag_68:\n      dup2\n      sload\n      dup2\n      mstore\n      swap1\n      0x01\n      add\n      swap1\n      0x20\n      add\n      dup1\n      dup4\n      gt\n      tag_68\n      jumpi\n      dup3\n      swap1\n      sub\n      0x1f\n      and\n      dup3\n      add\n      swap2\n    tag_66:\n      pop\n      pop\n      pop\n      pop\n      pop\n      swap1\n      pop\n        /* \"@openzeppelin/contracts/token/ERC1155/ERC1155.sol\":1940:2043  function uri(uint256) public view virtual override returns (string memory) {... */\n      swap2\n      swap1\n      pop\n      jump\t// out\n        /* \"@openzeppelin/contracts/token/ERC1155/ERC1155.sol\":4060:4490  function safeBatchTransferFrom(... */\n    tag_33:\n      sub(shl(0xa0, 0x01), 0x01)\n        /* \"@openzeppelin/contracts/token/ERC1155/ERC1155.sol\":4285:4305  from == _msgSender() */\n      dup6\n      and\n        /* \"@openzeppelin/contracts/utils/Context.sol\":719:729  msg.sender */\n      caller\n        /* \"@openzeppelin/contracts/token/ERC1155/ERC1155.sol\":4285:4305  from == _msgSender() */\n      eq\n      dup1\n        /* \"@openzeppelin/contracts/token/ERC1155/ERC1155.sol\":4285:4345  from == _msgSender() || isApprovedForAll(from, _msgSender()) */\n      tag_73\n      jumpi\n      pop\n        /* \"@openzeppelin/contracts/token/ERC1155/ERC1155.sol\":4309:4345  isApprovedForAll(from, _msgSender()) */\n      tag_73\n        /* \"@openzeppelin/contracts/token/ERC1155/ERC1155.sol\":4326:4330  from */\n      dup6\n        /* \"@openzeppelin/contracts/utils/Context.sol\":719:729  msg.sender */\n      caller\n        /* \"@openzeppelin/contracts/token/ERC1155/ERC1155.sol\":3366:3532  function isApprovedForAll(address account, address operator) public view virtual override returns (bool) {... */\n      tag_45\n      jump\t// in\n        /* \"@openzeppelin/contracts/token/ERC1155/ERC1155.sol\":4309:4345  isApprovedForAll(from, _msgSender()) */\n    tag_73:\n        /* \"@openzeppelin/contracts/token/ERC1155/ERC1155.sol\":4264:4421  require(... */\n      tag_75\n      jumpi\n      mload(0x40)\n      shl(0xe5, 0x461bcd)\n      dup2\n      mstore\n        /* \"#utility.yul\":9055:9057   */\n      0x20\n        /* \"@openzeppelin/contracts/token/ERC1155/ERC1155.sol\":4264:4421  require(... */\n      0x04\n      dup3\n      add\n        /* \"#utility.yul\":9037:9058   */\n      mstore\n        /* \"#utility.yul\":9094:9096   */\n      0x32\n        /* \"#utility.yul\":9074:9092   */\n      0x24\n      dup3\n      add\n        /* \"#utility.yul\":9067:9097   */\n      mstore\n        /* \"#utility.yul\":9133:9167   */\n      0x455243313135353a207472616e736665722063616c6c6572206973206e6f7420\n        /* \"#utility.yul\":9113:9131   */\n      0x44\n      dup3\n      add\n        /* \"#utility.yul\":9106:9168   */\n      mstore\n      shl(0x72, 0x1bdddb995c881b9bdc88185c1c1c9bdd9959)\n        /* \"#utility.yul\":9184:9202   */\n      0x64\n      dup3\n      add\n        /* \"#utility.yul\":9177:9225   */\n      mstore\n        /* \"#utility.yul\":9242:9261   */\n      0x84\n      add\n        /* \"@openzeppelin/contracts/token/ERC1155/ERC1155.sol\":4264:4421  require(... */\n      tag_55\n        /* \"#utility.yul\":8853:9267   */\n      jump\n        /* \"@openzeppelin/contracts/token/ERC1155/ERC1155.sol\":4264:4421  require(... */\n    tag_75:\n        /* \"@openzeppelin/contracts/token/ERC1155/ERC1155.sol\":4431:4483  _safeBatchTransferFrom(from, to, ids, amounts, data) */\n      tag_78\n        /* \"@openzeppelin/contracts/token/ERC1155/ERC1155.sol\":4454:4458  from */\n      dup6\n        /* \"@openzeppelin/contracts/token/ERC1155/ERC1155.sol\":4460:4462  to */\n      dup6\n        /* \"@openzeppelin/contracts/token/ERC1155/ERC1155.sol\":4464:4467  ids */\n      dup6\n        /* \"@openzeppelin/contracts/token/ERC1155/ERC1155.sol\":4469:4476  amounts */\n      dup6\n        /* \"@openzeppelin/contracts/token/ERC1155/ERC1155.sol\":4478:4482  data */\n      dup6\n        /* \"@openzeppelin/contracts/token/ERC1155/ERC1155.sol\":4431:4453  _safeBatchTransferFrom */\n      tag_79\n        /* \"@openzeppelin/contracts/token/ERC1155/ERC1155.sol\":4431:4483  _safeBatchTransferFrom(from, to, ids, amounts, data) */\n      jump\t// in\n    tag_78:\n        /* \"@openzeppelin/contracts/token/ERC1155/ERC1155.sol\":4060:4490  function safeBatchTransferFrom(... */\n      pop\n      pop\n      pop\n      pop\n      pop\n      jump\t// out\n        /* \"@openzeppelin/contracts/token/ERC1155/ERC1155.sol\":2570:3078  function balanceOfBatch(address[] memory accounts, uint256[] memory ids)... */\n    tag_37:\n        /* \"@openzeppelin/contracts/token/ERC1155/ERC1155.sol\":2721:2737  uint256[] memory */\n      0x60\n        /* \"@openzeppelin/contracts/token/ERC1155/ERC1155.sol\":2780:2783  ids */\n      dup2\n        /* \"@openzeppelin/contracts/token/ERC1155/ERC1155.sol\":2780:2790  ids.length */\n      mload\n        /* \"@openzeppelin/contracts/token/ERC1155/ERC1155.sol\":2761:2769  accounts */\n      dup4\n        /* \"@openzeppelin/contracts/token/ERC1155/ERC1155.sol\":2761:2776  accounts.length */\n      mload\n        /* \"@openzeppelin/contracts/token/ERC1155/ERC1155.sol\":2761:2790  accounts.length == ids.length */\n      eq\n        /* \"@openzeppelin/contracts/token/ERC1155/ERC1155.sol\":2753:2836  require(accounts.length == ids.length, \"ERC1155: accounts and ids length mismatch\") */\n      tag_81\n      jumpi\n      mload(0x40)\n      shl(0xe5, 0x461bcd)\n      dup2\n      mstore\n        /* \"#utility.yul\":9474:9476   */\n      0x20\n        /* \"@openzeppelin/contracts/token/ERC1155/ERC1155.sol\":2753:2836  require(accounts.length == ids.length, \"ERC1155: accounts and ids length mismatch\") */\n      0x04\n      dup3\n      add\n        /* \"#utility.yul\":9456:9477   */\n      mstore\n        /* \"#utility.yul\":9513:9515   */\n      0x29\n        /* \"#utility.yul\":9493:9511   */\n      0x24\n      dup3\n      add\n        /* \"#utility.yul\":9486:9516   */\n      mstore\n        /* \"#utility.yul\":9552:9586   */\n      0x455243313135353a206163636f756e747320616e6420696473206c656e677468\n        /* \"#utility.yul\":9532:9550   */\n      0x44\n      dup3\n      add\n        /* \"#utility.yul\":9525:9587   */\n      mstore\n      shl(0xbb, 0x040dad2e6dac2e8c6d)\n        /* \"#utility.yul\":9603:9621   */\n      0x64\n      dup3\n      add\n        /* \"#utility.yul\":9596:9635   */\n      mstore\n        /* \"#utility.yul\":9652:9671   */\n      0x84\n      add\n        /* \"@openzeppelin/contracts/token/ERC1155/ERC1155.sol\":2753:2836  require(accounts.length == ids.length, \"ERC1155: accounts and ids length mismatch\") */\n      tag_55\n        /* \"#utility.yul\":9272:9677   */\n      jump\n        /* \"@openzeppelin/contracts/token/ERC1155/ERC1155.sol\":2753:2836  require(accounts.length == ids.length, \"ERC1155: accounts and ids length mismatch\") */\n    tag_81:\n        /* \"@openzeppelin/contracts/token/ERC1155/ERC1155.sol\":2847:2877  uint256[] memory batchBalances */\n      0x00\n        /* \"@openzeppelin/contracts/token/ERC1155/ERC1155.sol\":2894:2902  accounts */\n      dup4\n        /* \"@openzeppelin/contracts/token/ERC1155/ERC1155.sol\":2894:2909  accounts.length */\n      mload\n        /* \"@openzeppelin/contracts/token/ERC1155/ERC1155.sol\":2880:2910  new uint256[](accounts.length) */\n      0xffffffffffffffff\n      dup2\n      gt\n      iszero\n      tag_85\n      jumpi\n      tag_85\n      tag_86\n      jump\t// in\n    tag_85:\n      mload(0x40)\n      swap1\n      dup1\n      dup3\n      mstore\n      dup1\n      0x20\n      mul\n      0x20\n      add\n      dup3\n      add\n      0x40\n      mstore\n      dup1\n      iszero\n      tag_87\n      jumpi\n      dup2\n      0x20\n      add\n      0x20\n      dup3\n      mul\n      dup1\n      calldatasize\n      dup4\n      calldatacopy\n      add\n      swap1\n      pop\n    tag_87:\n      pop\n        /* \"@openzeppelin/contracts/token/ERC1155/ERC1155.sol\":2847:2910  uint256[] memory batchBalances = new uint256[](accounts.length) */\n      swap1\n      pop\n        /* \"@openzeppelin/contracts/token/ERC1155/ERC1155.sol\":2926:2935  uint256 i */\n      0x00\n        /* \"@openzeppelin/contracts/token/ERC1155/ERC1155.sol\":2921:3041  for (uint256 i = 0; i < accounts.length; ++i) {... */\n    tag_88:\n        /* \"@openzeppelin/contracts/token/ERC1155/ERC1155.sol\":2945:2953  accounts */\n      dup5\n        /* \"@openzeppelin/contracts/token/ERC1155/ERC1155.sol\":2945:2960  accounts.length */\n      mload\n        /* \"@openzeppelin/contracts/token/ERC1155/ERC1155.sol\":2941:2942  i */\n      dup2\n        /* \"@openzeppelin/contracts/token/ERC1155/ERC1155.sol\":2941:2960  i < accounts.length */\n      lt\n        /* \"@openzeppelin/contracts/token/ERC1155/ERC1155.sol\":2921:3041  for (uint256 i = 0; i < accounts.length; ++i) {... */\n      iszero\n      tag_89\n      jumpi\n        /* \"@openzeppelin/contracts/token/ERC1155/ERC1155.sol\":3000:3030  balanceOf(accounts[i], ids[i]) */\n      tag_91\n        /* \"@openzeppelin/contracts/token/ERC1155/ERC1155.sol\":3010:3018  accounts */\n      dup6\n        /* \"@openzeppelin/contracts/token/ERC1155/ERC1155.sol\":3019:3020  i */\n      dup3\n        /* \"@openzeppelin/contracts/token/ERC1155/ERC1155.sol\":3010:3021  accounts[i] */\n      dup2\n      mload\n      dup2\n      lt\n      tag_93\n      jumpi\n      tag_93\n      tag_94\n      jump\t// in\n    tag_93:\n      0x20\n      mul\n      0x20\n      add\n      add\n      mload\n        /* \"@openzeppelin/contracts/token/ERC1155/ERC1155.sol\":3023:3026  ids */\n      dup6\n        /* \"@openzeppelin/contracts/token/ERC1155/ERC1155.sol\":3027:3028  i */\n      dup4\n        /* \"@openzeppelin/contracts/token/ERC1155/ERC1155.sol\":3023:3029  ids[i] */\n      dup2\n      mload\n      dup2\n      lt\n      tag_96\n      jumpi\n      tag_96\n      tag_94\n      jump\t// in\n    tag_96:\n      0x20\n      mul\n      0x20\n      add\n      add\n      mload\n        /* \"@openzeppelin/contracts/token/ERC1155/ERC1155.sol\":3000:3009  balanceOf */\n      tag_15\n        /* \"@openzeppelin/contracts/token/ERC1155/ERC1155.sol\":3000:3030  balanceOf(accounts[i], ids[i]) */\n      jump\t// in\n    tag_91:\n        /* \"@openzeppelin/contracts/token/ERC1155/ERC1155.sol\":2981:2994  batchBalances */\n      dup3\n        /* \"@openzeppelin/contracts/token/ERC1155/ERC1155.sol\":2995:2996  i */\n      dup3\n        /* \"@openzeppelin/contracts/token/ERC1155/ERC1155.sol\":2981:2997  batchBalances[i] */\n      dup2\n      mload\n      dup2\n      lt\n      tag_98\n      jumpi\n      tag_98\n      tag_94\n      jump\t// in\n    tag_98:\n      0x20\n      swap1\n      dup2\n      mul\n      swap2\n      swap1\n      swap2\n      add\n      add\n        /* \"@openzeppelin/contracts/token/ERC1155/ERC1155.sol\":2981:3030  batchBalances[i] = balanceOf(accounts[i], ids[i]) */\n      mstore\n        /* \"@openzeppelin/contracts/token/ERC1155/ERC1155.sol\":2962:2965  ++i */\n      tag_99\n      dup2\n      tag_100\n      jump\t// in\n    tag_99:\n      swap1\n      pop\n        /* \"@openzeppelin/contracts/token/ERC1155/ERC1155.sol\":2921:3041  for (uint256 i = 0; i < accounts.length; ++i) {... */\n      jump(tag_88)\n    tag_89:\n      pop\n        /* \"@openzeppelin/contracts/token/ERC1155/ERC1155.sol\":3058:3071  batchBalances */\n      swap4\n        /* \"@openzeppelin/contracts/token/ERC1155/ERC1155.sol\":2570:3078  function balanceOfBatch(address[] memory accounts, uint256[] memory ids)... */\n      swap3\n      pop\n      pop\n      pop\n      jump\t// out\n        /* \"@openzeppelin/contracts/token/ERC1155/ERC1155.sol\":3146:3299  function setApprovalForAll(address operator, bool approved) public virtual override {... */\n    tag_43:\n        /* \"@openzeppelin/contracts/token/ERC1155/ERC1155.sol\":3240:3292  _setApprovalForAll(_msgSender(), operator, approved) */\n      tag_102\n        /* \"@openzeppelin/contracts/utils/Context.sol\":719:729  msg.sender */\n      caller\n        /* \"@openzeppelin/contracts/token/ERC1155/ERC1155.sol\":3273:3281  operator */\n      dup4\n        /* \"@openzeppelin/contracts/token/ERC1155/ERC1155.sol\":3283:3291  approved */\n      dup4\n        /* \"@openzeppelin/contracts/token/ERC1155/ERC1155.sol\":3240:3258  _setApprovalForAll */\n      tag_104\n        /* \"@openzeppelin/contracts/token/ERC1155/ERC1155.sol\":3240:3292  _setApprovalForAll(_msgSender(), operator, approved) */\n      jump\t// in\n    tag_102:\n        /* \"@openzeppelin/contracts/token/ERC1155/ERC1155.sol\":3146:3299  function setApprovalForAll(address operator, bool approved) public virtual override {... */\n      pop\n      pop\n      jump\t// out\n        /* \"@openzeppelin/contracts/token/ERC1155/ERC1155.sol\":3599:3988  function safeTransferFrom(... */\n    tag_52:\n      sub(shl(0xa0, 0x01), 0x01)\n        /* \"@openzeppelin/contracts/token/ERC1155/ERC1155.sol\":3799:3819  from == _msgSender() */\n      dup6\n      and\n        /* \"@openzeppelin/contracts/utils/Context.sol\":719:729  msg.sender */\n      caller\n        /* \"@openzeppelin/contracts/token/ERC1155/ERC1155.sol\":3799:3819  from == _msgSender() */\n      eq\n      dup1\n        /* \"@openzeppelin/contracts/token/ERC1155/ERC1155.sol\":3799:3859  from == _msgSender() || isApprovedForAll(from, _msgSender()) */\n      tag_109\n      jumpi\n      pop\n        /* \"@openzeppelin/contracts/token/ERC1155/ERC1155.sol\":3823:3859  isApprovedForAll(from, _msgSender()) */\n      tag_109\n        /* \"@openzeppelin/contracts/token/ERC1155/ERC1155.sol\":3840:3844  from */\n      dup6\n        /* \"@openzeppelin/contracts/utils/Context.sol\":719:729  msg.sender */\n      caller\n        /* \"@openzeppelin/contracts/token/ERC1155/ERC1155.sol\":3366:3532  function isApprovedForAll(address account, address operator) public view virtual override returns (bool) {... */\n      tag_45\n      jump\t// in\n        /* \"@openzeppelin/contracts/token/ERC1155/ERC1155.sol\":3823:3859  isApprovedForAll(from, _msgSender()) */\n    tag_109:\n        /* \"@openzeppelin/contracts/token/ERC1155/ERC1155.sol\":3778:3926  require(... */\n      tag_111\n      jumpi\n      mload(0x40)\n      shl(0xe5, 0x461bcd)\n      dup2\n      mstore\n        /* \"#utility.yul\":10288:10290   */\n      0x20\n        /* \"@openzeppelin/contracts/token/ERC1155/ERC1155.sol\":3778:3926  require(... */\n      0x04\n      dup3\n      add\n        /* \"#utility.yul\":10270:10291   */\n      mstore\n        /* \"#utility.yul\":10327:10329   */\n      0x29\n        /* \"#utility.yul\":10307:10325   */\n      0x24\n      dup3\n      add\n        /* \"#utility.yul\":10300:10330   */\n      mstore\n        /* \"#utility.yul\":10366:10400   */\n      0x455243313135353a2063616c6c6572206973206e6f74206f776e6572206e6f72\n        /* \"#utility.yul\":10346:10364   */\n      0x44\n      dup3\n      add\n        /* \"#utility.yul\":10339:10401   */\n      mstore\n      shl(0xba, 0x08185c1c1c9bdd9959)\n        /* \"#utility.yul\":10417:10435   */\n      0x64\n      dup3\n      add\n        /* \"#utility.yul\":10410:10449   */\n      mstore\n        /* \"#utility.yul\":10466:10485   */\n      0x84\n      add\n        /* \"@openzeppelin/contracts/token/ERC1155/ERC1155.sol\":3778:3926  require(... */\n      tag_55\n        /* \"#utility.yul\":10086:10491   */\n      jump\n        /* \"@openzeppelin/contracts/token/ERC1155/ERC1155.sol\":3778:3926  require(... */\n    tag_111:\n        /* \"@openzeppelin/contracts/token/ERC1155/ERC1155.sol\":3936:3981  _safeTransferFrom(from, to, id, amount, data) */\n      tag_78\n        /* \"@openzeppelin/contracts/token/ERC1155/ERC1155.sol\":3954:3958  from */\n      dup6\n        /* \"@openzeppelin/contracts/token/ERC1155/ERC1155.sol\":3960:3962  to */\n      dup6\n        /* \"@openzeppelin/contracts/token/ERC1155/ERC1155.sol\":3964:3966  id */\n      dup6\n        /* \"@openzeppelin/contracts/token/ERC1155/ERC1155.sol\":3968:3974  amount */\n      dup6\n        /* \"@openzeppelin/contracts/token/ERC1155/ERC1155.sol\":3976:3980  data */\n      dup6\n        /* \"@openzeppelin/contracts/token/ERC1155/ERC1155.sol\":3936:3953  _safeTransferFrom */\n      tag_115\n        /* \"@openzeppelin/contracts/token/ERC1155/ERC1155.sol\":3936:3981  _safeTransferFrom(from, to, id, amount, data) */\n      jump\t// in\n        /* \"@openzeppelin/contracts/token/ERC1155/ERC1155.sol\":6233:7348  function _safeBatchTransferFrom(... */\n    tag_79:\n        /* \"@openzeppelin/contracts/token/ERC1155/ERC1155.sol\":6453:6460  amounts */\n      dup2\n        /* \"@openzeppelin/contracts/token/ERC1155/ERC1155.sol\":6453:6467  amounts.length */\n      mload\n        /* \"@openzeppelin/contracts/token/ERC1155/ERC1155.sol\":6439:6442  ids */\n      dup4\n        /* \"@openzeppelin/contracts/token/ERC1155/ERC1155.sol\":6439:6449  ids.length */\n      mload\n        /* \"@openzeppelin/contracts/token/ERC1155/ERC1155.sol\":6439:6467  ids.length == amounts.length */\n      eq\n        /* \"@openzeppelin/contracts/token/ERC1155/ERC1155.sol\":6431:6512  require(ids.length == amounts.length, \"ERC1155: ids and amounts length mismatch\") */\n      tag_119\n      jumpi\n      mload(0x40)\n      shl(0xe5, 0x461bcd)\n      dup2\n      mstore\n        /* \"#utility.yul\":10698:10700   */\n      0x20\n        /* \"@openzeppelin/contracts/token/ERC1155/ERC1155.sol\":6431:6512  require(ids.length == amounts.length, \"ERC1155: ids and amounts length mismatch\") */\n      0x04\n      dup3\n      add\n        /* \"#utility.yul\":10680:10701   */\n      mstore\n        /* \"#utility.yul\":10737:10739   */\n      0x28\n        /* \"#utility.yul\":10717:10735   */\n      0x24\n      dup3\n      add\n        /* \"#utility.yul\":10710:10740   */\n      mstore\n        /* \"#utility.yul\":10776:10810   */\n      0x455243313135353a2069647320616e6420616d6f756e7473206c656e67746820\n        /* \"#utility.yul\":10756:10774   */\n      0x44\n      dup3\n      add\n        /* \"#utility.yul\":10749:10811   */\n      mstore\n      shl(0xc3, 0x0dad2e6dac2e8c6d)\n        /* \"#utility.yul\":10827:10845   */\n      0x64\n      dup3\n      add\n        /* \"#utility.yul\":10820:10858   */\n      mstore\n        /* \"#utility.yul\":10875:10894   */\n      0x84\n      add\n        /* \"@openzeppelin/contracts/token/ERC1155/ERC1155.sol\":6431:6512  require(ids.length == amounts.length, \"ERC1155: ids and amounts length mismatch\") */\n      tag_55\n        /* \"#utility.yul\":10496:10900   */\n      jump\n        /* \"@openzeppelin/contracts/token/ERC1155/ERC1155.sol\":6431:6512  require(ids.length == amounts.length, \"ERC1155: ids and amounts length mismatch\") */\n    tag_119:\n      sub(shl(0xa0, 0x01), 0x01)\n        /* \"@openzeppelin/contracts/token/ERC1155/ERC1155.sol\":6530:6546  to != address(0) */\n      dup5\n      and\n        /* \"@openzeppelin/contracts/token/ERC1155/ERC1155.sol\":6522:6588  require(to != address(0), \"ERC1155: transfer to the zero address\") */\n      tag_122\n      jumpi\n      mload(0x40)\n      shl(0xe5, 0x461bcd)\n      dup2\n      mstore\n      0x04\n      add\n      tag_55\n      swap1\n      tag_124\n      jump\t// in\n    tag_122:\n        /* \"@openzeppelin/contracts/utils/Context.sol\":719:729  msg.sender */\n      caller\n        /* \"@openzeppelin/contracts/token/ERC1155/ERC1155.sol\":6599:6615  address operator */\n      0x00\n        /* \"@openzeppelin/contracts/token/ERC1155/ERC1155.sol\":6712:7123  for (uint256 i = 0; i < ids.length; ++i) {... */\n    tag_128:\n        /* \"@openzeppelin/contracts/token/ERC1155/ERC1155.sol\":6736:6739  ids */\n      dup5\n        /* \"@openzeppelin/contracts/token/ERC1155/ERC1155.sol\":6736:6746  ids.length */\n      mload\n        /* \"@openzeppelin/contracts/token/ERC1155/ERC1155.sol\":6732:6733  i */\n      dup2\n        /* \"@openzeppelin/contracts/token/ERC1155/ERC1155.sol\":6732:6746  i < ids.length */\n      lt\n        /* \"@openzeppelin/contracts/token/ERC1155/ERC1155.sol\":6712:7123  for (uint256 i = 0; i < ids.length; ++i) {... */\n      iszero\n      tag_129\n      jumpi\n        /* \"@openzeppelin/contracts/token/ERC1155/ERC1155.sol\":6767:6777  uint256 id */\n      0x00\n        /* \"@openzeppelin/contracts/token/ERC1155/ERC1155.sol\":6780:6783  ids */\n      dup6\n        /* \"@openzeppelin/contracts/token/ERC1155/ERC1155.sol\":6784:6785  i */\n      dup3\n        /* \"@openzeppelin/contracts/token/ERC1155/ERC1155.sol\":6780:6786  ids[i] */\n      dup2\n      mload\n      dup2\n      lt\n      tag_132\n      jumpi\n      tag_132\n      tag_94\n      jump\t// in\n    tag_132:\n      0x20\n      mul\n      0x20\n      add\n      add\n      mload\n        /* \"@openzeppelin/contracts/token/ERC1155/ERC1155.sol\":6767:6786  uint256 id = ids[i] */\n      swap1\n      pop\n        /* \"@openzeppelin/contracts/token/ERC1155/ERC1155.sol\":6800:6814  uint256 amount */\n      0x00\n        /* \"@openzeppelin/contracts/token/ERC1155/ERC1155.sol\":6817:6824  amounts */\n      dup6\n        /* \"@openzeppelin/contracts/token/ERC1155/ERC1155.sol\":6825:6826  i */\n      dup4\n        /* \"@openzeppelin/contracts/token/ERC1155/ERC1155.sol\":6817:6827  amounts[i] */\n      dup2\n      mload\n      dup2\n      lt\n      tag_134\n      jumpi\n      tag_134\n      tag_94\n      jump\t// in\n    tag_134:\n      0x20\n      swap1\n      dup2\n      mul\n      swap2\n      swap1\n      swap2\n      add\n      dup2\n      add\n      mload\n        /* \"@openzeppelin/contracts/token/ERC1155/ERC1155.sol\":6842:6861  uint256 fromBalance */\n      0x00\n        /* \"@openzeppelin/contracts/token/ERC1155/ERC1155.sol\":6864:6877  _balances[id] */\n      dup5\n      dup2\n      mstore\n      dup1\n      dup4\n      mstore\n      0x40\n      dup1\n      dup3\n      keccak256\n      sub(shl(0xa0, 0x01), 0x01)\n        /* \"@openzeppelin/contracts/token/ERC1155/ERC1155.sol\":6864:6883  _balances[id][from] */\n      dup15\n      and\n      dup4\n      mstore\n      swap1\n      swap4\n      mstore\n      swap2\n      swap1\n      swap2\n      keccak256\n      sload\n        /* \"@openzeppelin/contracts/token/ERC1155/ERC1155.sol\":6817:6827  amounts[i] */\n      swap1\n      swap2\n      pop\n        /* \"@openzeppelin/contracts/token/ERC1155/ERC1155.sol\":6905:6926  fromBalance >= amount */\n      dup2\n      dup2\n      lt\n      iszero\n        /* \"@openzeppelin/contracts/token/ERC1155/ERC1155.sol\":6897:6973  require(fromBalance >= amount, \"ERC1155: insufficient balance for transfer\") */\n      tag_135\n      jumpi\n      mload(0x40)\n      shl(0xe5, 0x461bcd)\n      dup2\n      mstore\n      0x04\n      add\n      tag_55\n      swap1\n      tag_137\n      jump\t// in\n    tag_135:\n        /* \"@openzeppelin/contracts/token/ERC1155/ERC1155.sol\":7015:7024  _balances */\n      0x00\n        /* \"@openzeppelin/contracts/token/ERC1155/ERC1155.sol\":7015:7028  _balances[id] */\n      dup4\n      dup2\n      mstore\n      0x20\n      dup2\n      dup2\n      mstore\n      0x40\n      dup1\n      dup4\n      keccak256\n      sub(shl(0xa0, 0x01), 0x01)\n        /* \"@openzeppelin/contracts/token/ERC1155/ERC1155.sol\":7015:7034  _balances[id][from] */\n      dup15\n      dup2\n      and\n      dup6\n      mstore\n      swap3\n      mstore\n      dup1\n      dup4\n      keccak256\n        /* \"@openzeppelin/contracts/token/ERC1155/ERC1155.sol\":7037:7057  fromBalance - amount */\n      dup6\n      dup6\n      sub\n        /* \"@openzeppelin/contracts/token/ERC1155/ERC1155.sol\":7015:7057  _balances[id][from] = fromBalance - amount */\n      swap1\n      sstore\n        /* \"@openzeppelin/contracts/token/ERC1155/ERC1155.sol\":7085:7102  _balances[id][to] */\n      swap1\n      dup12\n      and\n      dup3\n      mstore\n      dup2\n      keccak256\n        /* \"@openzeppelin/contracts/token/ERC1155/ERC1155.sol\":7085:7112  _balances[id][to] += amount */\n      dup1\n      sload\n        /* \"@openzeppelin/contracts/token/ERC1155/ERC1155.sol\":7037:7057  fromBalance - amount */\n      dup5\n      swap3\n        /* \"@openzeppelin/contracts/token/ERC1155/ERC1155.sol\":7015:7024  _balances */\n      swap1\n        /* \"@openzeppelin/contracts/token/ERC1155/ERC1155.sol\":7085:7112  _balances[id][to] += amount */\n      tag_138\n      swap1\n        /* \"@openzeppelin/contracts/token/ERC1155/ERC1155.sol\":7037:7057  fromBalance - amount */\n      dup5\n      swap1\n        /* \"@openzeppelin/contracts/token/ERC1155/ERC1155.sol\":7085:7112  _balances[id][to] += amount */\n      tag_139\n      jump\t// in\n    tag_138:\n      swap3\n      pop\n      pop\n      dup2\n      swap1\n      sstore\n      pop\n        /* \"@openzeppelin/contracts/token/ERC1155/ERC1155.sol\":6753:7123  {... */\n      pop\n      pop\n      pop\n        /* \"@openzeppelin/contracts/token/ERC1155/ERC1155.sol\":6748:6751  ++i */\n      dup1\n      tag_140\n      swap1\n      tag_100\n      jump\t// in\n    tag_140:\n      swap1\n      pop\n        /* \"@openzeppelin/contracts/token/ERC1155/ERC1155.sol\":6712:7123  for (uint256 i = 0; i < ids.length; ++i) {... */\n      jump(tag_128)\n    tag_129:\n      pop\n        /* \"@openzeppelin/contracts/token/ERC1155/ERC1155.sol\":7168:7170  to */\n      dup5\n      sub(shl(0xa0, 0x01), 0x01)\n        /* \"@openzeppelin/contracts/token/ERC1155/ERC1155.sol\":7138:7185  TransferBatch(operator, from, to, ids, amounts) */\n      and\n        /* \"@openzeppelin/contracts/token/ERC1155/ERC1155.sol\":7162:7166  from */\n      dup7\n      sub(shl(0xa0, 0x01), 0x01)\n        /* \"@openzeppelin/contracts/token/ERC1155/ERC1155.sol\":7138:7185  TransferBatch(operator, from, to, ids, amounts) */\n      and\n        /* \"@openzeppelin/contracts/token/ERC1155/ERC1155.sol\":7152:7160  operator */\n      dup3\n      sub(shl(0xa0, 0x01), 0x01)\n        /* \"@openzeppelin/contracts/token/ERC1155/ERC1155.sol\":7138:7185  TransferBatch(operator, from, to, ids, amounts) */\n      and\n      0x4a39dc06d4c0dbc64b70af90fd698a233a518aa5d07e595d983b8c0526c8f7fb\n        /* \"@openzeppelin/contracts/token/ERC1155/ERC1155.sol\":7172:7175  ids */\n      dup8\n        /* \"@openzeppelin/contracts/token/ERC1155/ERC1155.sol\":7177:7184  amounts */\n      dup8\n        /* \"@openzeppelin/contracts/token/ERC1155/ERC1155.sol\":7138:7185  TransferBatch(operator, from, to, ids, amounts) */\n      mload(0x40)\n      tag_141\n      swap3\n      swap2\n      swap1\n      tag_142\n      jump\t// in\n    tag_141:\n      mload(0x40)\n      dup1\n      swap2\n      sub\n      swap1\n      log4\n        /* \"@openzeppelin/contracts/token/ERC1155/ERC1155.sol\":7266:7341  _doSafeBatchTransferAcceptanceCheck(operator, from, to, ids, amounts, data) */\n      tag_145\n        /* \"@openzeppelin/contracts/token/ERC1155/ERC1155.sol\":7302:7310  operator */\n      dup2\n        /* \"@openzeppelin/contracts/token/ERC1155/ERC1155.sol\":7312:7316  from */\n      dup8\n        /* \"@openzeppelin/contracts/token/ERC1155/ERC1155.sol\":7318:7320  to */\n      dup8\n        /* \"@openzeppelin/contracts/token/ERC1155/ERC1155.sol\":7322:7325  ids */\n      dup8\n        /* \"@openzeppelin/contracts/token/ERC1155/ERC1155.sol\":7327:7334  amounts */\n      dup8\n        /* \"@openzeppelin/contracts/token/ERC1155/ERC1155.sol\":7336:7340  data */\n      dup8\n        /* \"@openzeppelin/contracts/token/ERC1155/ERC1155.sol\":7266:7301  _doSafeBatchTransferAcceptanceCheck */\n      tag_146\n        /* \"@openzeppelin/contracts/token/ERC1155/ERC1155.sol\":7266:7341  _doSafeBatchTransferAcceptanceCheck(operator, from, to, ids, amounts, data) */\n      jump\t// in\n    tag_145:\n        /* \"@openzeppelin/contracts/token/ERC1155/ERC1155.sol\":6421:7348  {... */\n      pop\n        /* \"@openzeppelin/contracts/token/ERC1155/ERC1155.sol\":6233:7348  function _safeBatchTransferFrom(... */\n      pop\n      pop\n      pop\n      pop\n      pop\n      jump\t// out\n        /* \"@openzeppelin/contracts/token/ERC1155/ERC1155.sol\":12773:13096  function _setApprovalForAll(... */\n    tag_104:\n        /* \"@openzeppelin/contracts/token/ERC1155/ERC1155.sol\":12923:12931  operator */\n      dup2\n      sub(shl(0xa0, 0x01), 0x01)\n        /* \"@openzeppelin/contracts/token/ERC1155/ERC1155.sol\":12914:12931  owner != operator */\n      and\n        /* \"@openzeppelin/contracts/token/ERC1155/ERC1155.sol\":12914:12919  owner */\n      dup4\n      sub(shl(0xa0, 0x01), 0x01)\n        /* \"@openzeppelin/contracts/token/ERC1155/ERC1155.sol\":12914:12931  owner != operator */\n      and\n      sub\n        /* \"@openzeppelin/contracts/token/ERC1155/ERC1155.sol\":12906:12977  require(owner != operator, \"ERC1155: setting approval status for self\") */\n      tag_148\n      jumpi\n      mload(0x40)\n      shl(0xe5, 0x461bcd)\n      dup2\n      mstore\n        /* \"#utility.yul\":12527:12529   */\n      0x20\n        /* \"@openzeppelin/contracts/token/ERC1155/ERC1155.sol\":12906:12977  require(owner != operator, \"ERC1155: setting approval status for self\") */\n      0x04\n      dup3\n      add\n        /* \"#utility.yul\":12509:12530   */\n      mstore\n        /* \"#utility.yul\":12566:12568   */\n      0x29\n        /* \"#utility.yul\":12546:12564   */\n      0x24\n      dup3\n      add\n        /* \"#utility.yul\":12539:12569   */\n      mstore\n        /* \"#utility.yul\":12605:12639   */\n      0x455243313135353a2073657474696e6720617070726f76616c20737461747573\n        /* \"#utility.yul\":12585:12603   */\n      0x44\n      dup3\n      add\n        /* \"#utility.yul\":12578:12640   */\n      mstore\n      shl(0xb9, 0x103337b91039b2b633)\n        /* \"#utility.yul\":12656:12674   */\n      0x64\n      dup3\n      add\n        /* \"#utility.yul\":12649:12688   */\n      mstore\n        /* \"#utility.yul\":12705:12724   */\n      0x84\n      add\n        /* \"@openzeppelin/contracts/token/ERC1155/ERC1155.sol\":12906:12977  require(owner != operator, \"ERC1155: setting approval status for self\") */\n      tag_55\n        /* \"#utility.yul\":12325:12730   */\n      jump\n        /* \"@openzeppelin/contracts/token/ERC1155/ERC1155.sol\":12906:12977  require(owner != operator, \"ERC1155: setting approval status for self\") */\n    tag_148:\n      sub(shl(0xa0, 0x01), 0x01)\n        /* \"@openzeppelin/contracts/token/ERC1155/ERC1155.sol\":12987:13012  _operatorApprovals[owner] */\n      dup4\n      dup2\n      and\n      0x00\n      dup2\n      dup2\n      mstore\n        /* \"@openzeppelin/contracts/token/ERC1155/ERC1155.sol\":12987:13005  _operatorApprovals */\n      0x01\n        /* \"@openzeppelin/contracts/token/ERC1155/ERC1155.sol\":12987:13012  _operatorApprovals[owner] */\n      0x20\n      swap1\n      dup2\n      mstore\n      0x40\n      dup1\n      dup4\n      keccak256\n        /* \"@openzeppelin/contracts/token/ERC1155/ERC1155.sol\":12987:13022  _operatorApprovals[owner][operator] */\n      swap5\n      dup8\n      and\n      dup1\n      dup5\n      mstore\n      swap5\n      dup3\n      mstore\n      swap2\n      dup3\n      swap1\n      keccak256\n        /* \"@openzeppelin/contracts/token/ERC1155/ERC1155.sol\":12987:13033  _operatorApprovals[owner][operator] = approved */\n      dup1\n      sload\n      not(0xff)\n      and\n      dup7\n      iszero\n      iszero\n      swap1\n      dup2\n      or\n      swap1\n      swap2\n      sstore\n        /* \"@openzeppelin/contracts/token/ERC1155/ERC1155.sol\":13048:13089  ApprovalForAll(owner, operator, approved) */\n      swap2\n      mload\n        /* \"#utility.yul\":1159:1200   */\n      swap2\n      dup3\n      mstore\n        /* \"@openzeppelin/contracts/token/ERC1155/ERC1155.sol\":13048:13089  ApprovalForAll(owner, operator, approved) */\n      0x17307eab39ab6107e8899845ad3d59bd9653f200f220920489ca2b5937696c31\n      swap2\n        /* \"#utility.yul\":1132:1150   */\n      add\n        /* \"@openzeppelin/contracts/token/ERC1155/ERC1155.sol\":13048:13089  ApprovalForAll(owner, operator, approved) */\n      mload(0x40)\n      dup1\n      swap2\n      sub\n      swap1\n      log3\n        /* \"@openzeppelin/contracts/token/ERC1155/ERC1155.sol\":12773:13096  function _setApprovalForAll(... */\n      pop\n      pop\n      pop\n      jump\t// out\n        /* \"@openzeppelin/contracts/token/ERC1155/ERC1155.sol\":4940:5887  function _safeTransferFrom(... */\n    tag_115:\n      sub(shl(0xa0, 0x01), 0x01)\n        /* \"@openzeppelin/contracts/token/ERC1155/ERC1155.sol\":5121:5137  to != address(0) */\n      dup5\n      and\n        /* \"@openzeppelin/contracts/token/ERC1155/ERC1155.sol\":5113:5179  require(to != address(0), \"ERC1155: transfer to the zero address\") */\n      tag_153\n      jumpi\n      mload(0x40)\n      shl(0xe5, 0x461bcd)\n      dup2\n      mstore\n      0x04\n      add\n      tag_55\n      swap1\n      tag_124\n      jump\t// in\n    tag_153:\n        /* \"@openzeppelin/contracts/utils/Context.sol\":719:729  msg.sender */\n      caller\n        /* \"@openzeppelin/contracts/token/ERC1155/ERC1155.sol\":5190:5206  address operator */\n      0x00\n        /* \"@openzeppelin/contracts/token/ERC1155/ERC1155.sol\":5254:5275  _asSingletonArray(id) */\n      tag_156\n        /* \"@openzeppelin/contracts/token/ERC1155/ERC1155.sol\":5272:5274  id */\n      dup6\n        /* \"@openzeppelin/contracts/token/ERC1155/ERC1155.sol\":5254:5271  _asSingletonArray */\n      tag_157\n        /* \"@openzeppelin/contracts/token/ERC1155/ERC1155.sol\":5254:5275  _asSingletonArray(id) */\n      jump\t// in\n    tag_156:\n        /* \"@openzeppelin/contracts/token/ERC1155/ERC1155.sol\":5231:5275  uint256[] memory ids = _asSingletonArray(id) */\n      swap1\n      pop\n        /* \"@openzeppelin/contracts/token/ERC1155/ERC1155.sol\":5285:5309  uint256[] memory amounts */\n      0x00\n        /* \"@openzeppelin/contracts/token/ERC1155/ERC1155.sol\":5312:5337  _asSingletonArray(amount) */\n      tag_158\n        /* \"@openzeppelin/contracts/token/ERC1155/ERC1155.sol\":5330:5336  amount */\n      dup6\n        /* \"@openzeppelin/contracts/token/ERC1155/ERC1155.sol\":5312:5329  _asSingletonArray */\n      tag_157\n        /* \"@openzeppelin/contracts/token/ERC1155/ERC1155.sol\":5312:5337  _asSingletonArray(amount) */\n      jump\t// in\n    tag_158:\n        /* \"@openzeppelin/contracts/token/ERC1155/ERC1155.sol\":5285:5337  uint256[] memory amounts = _asSingletonArray(amount) */\n      swap1\n      pop\n        /* \"@openzeppelin/contracts/token/ERC1155/ERC1155.sol\":5419:5438  uint256 fromBalance */\n      0x00\n        /* \"@openzeppelin/contracts/token/ERC1155/ERC1155.sol\":5441:5454  _balances[id] */\n      dup7\n      dup2\n      mstore\n      0x20\n      dup2\n      dup2\n      mstore\n      0x40\n      dup1\n      dup4\n      keccak256\n      sub(shl(0xa0, 0x01), 0x01)\n        /* \"@openzeppelin/contracts/token/ERC1155/ERC1155.sol\":5441:5460  _balances[id][from] */\n      dup13\n      and\n      dup5\n      mstore\n      swap1\n      swap2\n      mstore\n      swap1\n      keccak256\n      sload\n        /* \"@openzeppelin/contracts/token/ERC1155/ERC1155.sol\":5478:5499  fromBalance >= amount */\n      dup6\n      dup2\n      lt\n      iszero\n        /* \"@openzeppelin/contracts/token/ERC1155/ERC1155.sol\":5470:5546  require(fromBalance >= amount, \"ERC1155: insufficient balance for transfer\") */\n      tag_160\n      jumpi\n      mload(0x40)\n      shl(0xe5, 0x461bcd)\n      dup2\n      mstore\n      0x04\n      add\n      tag_55\n      swap1\n      tag_137\n      jump\t// in\n    tag_160:\n        /* \"@openzeppelin/contracts/token/ERC1155/ERC1155.sol\":5580:5589  _balances */\n      0x00\n        /* \"@openzeppelin/contracts/token/ERC1155/ERC1155.sol\":5580:5593  _balances[id] */\n      dup8\n      dup2\n      mstore\n      0x20\n      dup2\n      dup2\n      mstore\n      0x40\n      dup1\n      dup4\n      keccak256\n      sub(shl(0xa0, 0x01), 0x01)\n        /* \"@openzeppelin/contracts/token/ERC1155/ERC1155.sol\":5580:5599  _balances[id][from] */\n      dup14\n      dup2\n      and\n      dup6\n      mstore\n      swap3\n      mstore\n      dup1\n      dup4\n      keccak256\n        /* \"@openzeppelin/contracts/token/ERC1155/ERC1155.sol\":5602:5622  fromBalance - amount */\n      dup10\n      dup6\n      sub\n        /* \"@openzeppelin/contracts/token/ERC1155/ERC1155.sol\":5580:5622  _balances[id][from] = fromBalance - amount */\n      swap1\n      sstore\n        /* \"@openzeppelin/contracts/token/ERC1155/ERC1155.sol\":5642:5659  _balances[id][to] */\n      swap1\n      dup11\n      and\n      dup3\n      mstore\n      dup2\n      keccak256\n        /* \"@openzeppelin/contracts/token/ERC1155/ERC1155.sol\":5642:5669  _balances[id][to] += amount */\n      dup1\n      sload\n        /* \"@openzeppelin/contracts/token/ERC1155/ERC1155.sol\":5602:5622  fromBalance - amount */\n      dup9\n      swap3\n        /* \"@openzeppelin/contracts/token/ERC1155/ERC1155.sol\":5580:5589  _balances */\n      swap1\n        /* \"@openzeppelin/contracts/token/ERC1155/ERC1155.sol\":5642:5669  _balances[id][to] += amount */\n      tag_162\n      swap1\n        /* \"@openzeppelin/contracts/token/ERC1155/ERC1155.sol\":5602:5622  fromBalance - amount */\n      dup5\n      swap1\n        /* \"@openzeppelin/contracts/token/ERC1155/ERC1155.sol\":5642:5669  _balances[id][to] += amount */\n      tag_139\n      jump\t// in\n    tag_162:\n      swap1\n      swap2\n      sstore\n      pop\n      pop\n        /* \"@openzeppelin/contracts/token/ERC1155/ERC1155.sol\":5685:5731  TransferSingle(operator, from, to, id, amount) */\n      0x40\n      dup1\n      mload\n        /* \"#utility.yul\":12909:12934   */\n      dup9\n      dup2\n      mstore\n        /* \"#utility.yul\":12965:12967   */\n      0x20\n        /* \"#utility.yul\":12950:12968   */\n      dup2\n      add\n        /* \"#utility.yul\":12943:12977   */\n      dup9\n      swap1\n      mstore\n      sub(shl(0xa0, 0x01), 0x01)\n        /* \"@openzeppelin/contracts/token/ERC1155/ERC1155.sol\":5685:5731  TransferSingle(operator, from, to, id, amount) */\n      dup1\n      dup12\n      and\n      swap3\n      dup13\n      dup3\n      and\n      swap3\n      swap2\n      dup9\n      and\n      swap2\n      0xc3d58168c5ae7397731d063d5bbf3d657854427343f4c083240f7aacaa2d0f62\n      swap2\n        /* \"#utility.yul\":12882:12900   */\n      add\n        /* \"@openzeppelin/contracts/token/ERC1155/ERC1155.sol\":5685:5731  TransferSingle(operator, from, to, id, amount) */\n      mload(0x40)\n      dup1\n      swap2\n      sub\n      swap1\n      log4\n        /* \"@openzeppelin/contracts/token/ERC1155/ERC1155.sol\":5812:5880  _doSafeTransferAcceptanceCheck(operator, from, to, id, amount, data) */\n      tag_166\n        /* \"@openzeppelin/contracts/token/ERC1155/ERC1155.sol\":5843:5851  operator */\n      dup5\n        /* \"@openzeppelin/contracts/token/ERC1155/ERC1155.sol\":5853:5857  from */\n      dup11\n        /* \"@openzeppelin/contracts/token/ERC1155/ERC1155.sol\":5859:5861  to */\n      dup11\n        /* \"@openzeppelin/contracts/token/ERC1155/ERC1155.sol\":5863:5865  id */\n      dup11\n        /* \"@openzeppelin/contracts/token/ERC1155/ERC1155.sol\":5867:5873  amount */\n      dup11\n        /* \"@openzeppelin/contracts/token/ERC1155/ERC1155.sol\":5875:5879  data */\n      dup11\n        /* \"@openzeppelin/contracts/token/ERC1155/ERC1155.sol\":5812:5842  _doSafeTransferAcceptanceCheck */\n      tag_167\n        /* \"@openzeppelin/contracts/token/ERC1155/ERC1155.sol\":5812:5880  _doSafeTransferAcceptanceCheck(operator, from, to, id, amount, data) */\n      jump\t// in\n    tag_166:\n        /* \"@openzeppelin/contracts/token/ERC1155/ERC1155.sol\":5103:5887  {... */\n      pop\n      pop\n      pop\n      pop\n        /* \"@openzeppelin/contracts/token/ERC1155/ERC1155.sol\":4940:5887  function _safeTransferFrom(... */\n      pop\n      pop\n      pop\n      pop\n      pop\n      jump\t// out\n        /* \"@openzeppelin/contracts/token/ERC1155/ERC1155.sol\":16127:16919  function _doSafeBatchTransferAcceptanceCheck(... */\n    tag_146:\n      sub(shl(0xa0, 0x01), 0x01)\n        /* \"@openzeppelin/contracts/token/ERC1155/ERC1155.sol\":16359:16372  to.isContract */\n      dup5\n      and\n        /* \"@openzeppelin/contracts/utils/Address.sol\":1465:1484  account.code.length */\n      extcodesize\n        /* \"@openzeppelin/contracts/utils/Address.sol\":1465:1488  account.code.length > 0 */\n      iszero\n        /* \"@openzeppelin/contracts/token/ERC1155/ERC1155.sol\":16355:16913  if (to.isContract()) {... */\n      tag_145\n      jumpi\n        /* \"@openzeppelin/contracts/token/ERC1155/ERC1155.sol\":16394:16473  IERC1155Receiver(to).onERC1155BatchReceived(operator, from, ids, amounts, data) */\n      mload(0x40)\n      shl(0xe0, 0xbc197c81)\n      dup2\n      mstore\n      sub(shl(0xa0, 0x01), 0x01)\n        /* \"@openzeppelin/contracts/token/ERC1155/ERC1155.sol\":16394:16437  IERC1155Receiver(to).onERC1155BatchReceived */\n      dup6\n      and\n      swap1\n      0xbc197c81\n      swap1\n        /* \"@openzeppelin/contracts/token/ERC1155/ERC1155.sol\":16394:16473  IERC1155Receiver(to).onERC1155BatchReceived(operator, from, ids, amounts, data) */\n      tag_174\n      swap1\n        /* \"@openzeppelin/contracts/token/ERC1155/ERC1155.sol\":16438:16446  operator */\n      dup10\n      swap1\n        /* \"@openzeppelin/contracts/token/ERC1155/ERC1155.sol\":16448:16452  from */\n      dup10\n      swap1\n        /* \"@openzeppelin/contracts/token/ERC1155/ERC1155.sol\":16454:16457  ids */\n      dup9\n      swap1\n        /* \"@openzeppelin/contracts/token/ERC1155/ERC1155.sol\":16459:16466  amounts */\n      dup9\n      swap1\n        /* \"@openzeppelin/contracts/token/ERC1155/ERC1155.sol\":16468:16472  data */\n      dup9\n      swap1\n        /* \"@openzeppelin/contracts/token/ERC1155/ERC1155.sol\":16394:16473  IERC1155Receiver(to).onERC1155BatchReceived(operator, from, ids, amounts, data) */\n      0x04\n      add\n      tag_175\n      jump\t// in\n    tag_174:\n      0x20\n      mload(0x40)\n      dup1\n      dup4\n      sub\n      dup2\n      0x00\n      dup8\n      gas\n      call\n      swap3\n      pop\n      pop\n      pop\n      dup1\n      iszero\n      tag_176\n      jumpi\n      pop\n      0x40\n      dup1\n      mload\n      0x1f\n      returndatasize\n      swap1\n      dup2\n      add\n      not(0x1f)\n      and\n      dup3\n      add\n      swap1\n      swap3\n      mstore\n      tag_177\n      swap2\n      dup2\n      add\n      swap1\n      tag_178\n      jump\t// in\n    tag_177:\n      0x01\n    tag_176:\n        /* \"@openzeppelin/contracts/token/ERC1155/ERC1155.sol\":16390:16903  try IERC1155Receiver(to).onERC1155BatchReceived(operator, from, ids, amounts, data) returns (... */\n      tag_179\n      jumpi\n      tag_183\n      tag_184\n      jump\t// in\n    tag_183:\n      dup1\n      0x08c379a0\n      sub\n      tag_182\n      jumpi\n      pop\n      tag_185\n      tag_186\n      jump\t// in\n    tag_185:\n      dup1\n      tag_187\n      jumpi\n      pop\n      jump(tag_181)\n    tag_187:\n        /* \"@openzeppelin/contracts/token/ERC1155/ERC1155.sol\":16779:16785  reason */\n      dup1\n        /* \"@openzeppelin/contracts/token/ERC1155/ERC1155.sol\":16772:16786  revert(reason) */\n      mload(0x40)\n      shl(0xe5, 0x461bcd)\n      dup2\n      mstore\n      0x04\n      add\n      tag_55\n      swap2\n      swap1\n      tag_29\n      jump\t// in\n        /* \"@openzeppelin/contracts/token/ERC1155/ERC1155.sol\":16390:16903  try IERC1155Receiver(to).onERC1155BatchReceived(operator, from, ids, amounts, data) returns (... */\n    tag_182:\n      pop\n    tag_181:\n        /* \"@openzeppelin/contracts/token/ERC1155/ERC1155.sol\":16826:16888  revert(\"ERC1155: transfer to non ERC1155Receiver implementer\") */\n      mload(0x40)\n      shl(0xe5, 0x461bcd)\n      dup2\n      mstore\n        /* \"#utility.yul\":15136:15138   */\n      0x20\n        /* \"@openzeppelin/contracts/token/ERC1155/ERC1155.sol\":16826:16888  revert(\"ERC1155: transfer to non ERC1155Receiver implementer\") */\n      0x04\n      dup3\n      add\n        /* \"#utility.yul\":15118:15139   */\n      mstore\n        /* \"#utility.yul\":15175:15177   */\n      0x34\n        /* \"#utility.yul\":15155:15173   */\n      0x24\n      dup3\n      add\n        /* \"#utility.yul\":15148:15178   */\n      mstore\n        /* \"#utility.yul\":15214:15248   */\n      0x455243313135353a207472616e7366657220746f206e6f6e2045524331313535\n        /* \"#utility.yul\":15194:15212   */\n      0x44\n      dup3\n      add\n        /* \"#utility.yul\":15187:15249   */\n      mstore\n      shl(0x61, 0x2932b1b2b4bb32b91034b6b83632b6b2b73a32b9)\n        /* \"#utility.yul\":15265:15283   */\n      0x64\n      dup3\n      add\n        /* \"#utility.yul\":15258:15308   */\n      mstore\n        /* \"#utility.yul\":15325:15344   */\n      0x84\n      add\n        /* \"@openzeppelin/contracts/token/ERC1155/ERC1155.sol\":16826:16888  revert(\"ERC1155: transfer to non ERC1155Receiver implementer\") */\n      tag_55\n        /* \"#utility.yul\":14934:15350   */\n      jump\n        /* \"@openzeppelin/contracts/token/ERC1155/ERC1155.sol\":16390:16903  try IERC1155Receiver(to).onERC1155BatchReceived(operator, from, ids, amounts, data) returns (... */\n    tag_179:\n      not(sub(shl(0xe0, 0x01), 0x01))\n        /* \"@openzeppelin/contracts/token/ERC1155/ERC1155.sol\":16552:16612  response != IERC1155Receiver.onERC1155BatchReceived.selector */\n      dup2\n      and\n      shl(0xe0, 0xbc197c81)\n      eq\n        /* \"@openzeppelin/contracts/token/ERC1155/ERC1155.sol\":16548:16705  if (response != IERC1155Receiver.onERC1155BatchReceived.selector) {... */\n      tag_192\n      jumpi\n        /* \"@openzeppelin/contracts/token/ERC1155/ERC1155.sol\":16636:16686  revert(\"ERC1155: ERC1155Receiver rejected tokens\") */\n      mload(0x40)\n      shl(0xe5, 0x461bcd)\n      dup2\n      mstore\n      0x04\n      add\n      tag_55\n      swap1\n      tag_194\n      jump\t// in\n        /* \"@openzeppelin/contracts/token/ERC1155/ERC1155.sol\":16548:16705  if (response != IERC1155Receiver.onERC1155BatchReceived.selector) {... */\n    tag_192:\n        /* \"@openzeppelin/contracts/token/ERC1155/ERC1155.sol\":16474:16719  returns (... */\n      pop\n        /* \"@openzeppelin/contracts/token/ERC1155/ERC1155.sol\":16127:16919  function _doSafeBatchTransferAcceptanceCheck(... */\n      pop\n      pop\n      pop\n      pop\n      pop\n      pop\n      jump\t// out\n        /* \"@openzeppelin/contracts/token/ERC1155/ERC1155.sol\":16925:17118  function _asSingletonArray(uint256 element) private pure returns (uint256[] memory) {... */\n    tag_157:\n        /* \"@openzeppelin/contracts/token/ERC1155/ERC1155.sol\":17044:17060  new uint256[](1) */\n      0x40\n      dup1\n      mload\n        /* \"@openzeppelin/contracts/token/ERC1155/ERC1155.sol\":17058:17059  1 */\n      0x01\n        /* \"@openzeppelin/contracts/token/ERC1155/ERC1155.sol\":17044:17060  new uint256[](1) */\n      dup1\n      dup3\n      mstore\n      dup2\n      dup4\n      add\n      swap1\n      swap3\n      mstore\n        /* \"@openzeppelin/contracts/token/ERC1155/ERC1155.sol\":16991:17007  uint256[] memory */\n      0x60\n      swap2\n        /* \"@openzeppelin/contracts/token/ERC1155/ERC1155.sol\":17019:17041  uint256[] memory array */\n      0x00\n      swap2\n        /* \"@openzeppelin/contracts/token/ERC1155/ERC1155.sol\":17044:17060  new uint256[](1) */\n      swap1\n      0x20\n      dup1\n      dup4\n      add\n      swap1\n      dup1\n      calldatasize\n      dup4\n      calldatacopy\n      add\n      swap1\n      pop\n      pop\n        /* \"@openzeppelin/contracts/token/ERC1155/ERC1155.sol\":17019:17060  uint256[] memory array = new uint256[](1) */\n      swap1\n      pop\n        /* \"@openzeppelin/contracts/token/ERC1155/ERC1155.sol\":17081:17088  element */\n      dup3\n        /* \"@openzeppelin/contracts/token/ERC1155/ERC1155.sol\":17070:17075  array */\n      dup2\n        /* \"@openzeppelin/contracts/token/ERC1155/ERC1155.sol\":17076:17077  0 */\n      0x00\n        /* \"@openzeppelin/contracts/token/ERC1155/ERC1155.sol\":17070:17078  array[0] */\n      dup2\n      mload\n      dup2\n      lt\n      tag_200\n      jumpi\n      tag_200\n      tag_94\n      jump\t// in\n    tag_200:\n      0x20\n      swap1\n      dup2\n      mul\n      swap2\n      swap1\n      swap2\n      add\n      add\n        /* \"@openzeppelin/contracts/token/ERC1155/ERC1155.sol\":17070:17088  array[0] = element */\n      mstore\n        /* \"@openzeppelin/contracts/token/ERC1155/ERC1155.sol\":17106:17111  array */\n      swap3\n        /* \"@openzeppelin/contracts/token/ERC1155/ERC1155.sol\":16925:17118  function _asSingletonArray(uint256 element) private pure returns (uint256[] memory) {... */\n      swap2\n      pop\n      pop\n      jump\t// out\n        /* \"@openzeppelin/contracts/token/ERC1155/ERC1155.sol\":15396:16121  function _doSafeTransferAcceptanceCheck(... */\n    tag_167:\n      sub(shl(0xa0, 0x01), 0x01)\n        /* \"@openzeppelin/contracts/token/ERC1155/ERC1155.sol\":15603:15616  to.isContract */\n      dup5\n      and\n        /* \"@openzeppelin/contracts/utils/Address.sol\":1465:1484  account.code.length */\n      extcodesize\n        /* \"@openzeppelin/contracts/utils/Address.sol\":1465:1488  account.code.length > 0 */\n      iszero\n        /* \"@openzeppelin/contracts/token/ERC1155/ERC1155.sol\":15599:16115  if (to.isContract()) {... */\n      tag_145\n      jumpi\n        /* \"@openzeppelin/contracts/token/ERC1155/ERC1155.sol\":15638:15710  IERC1155Receiver(to).onERC1155Received(operator, from, id, amount, data) */\n      mload(0x40)\n      shl(0xe0, 0xf23a6e61)\n      dup2\n      mstore\n      sub(shl(0xa0, 0x01), 0x01)\n        /* \"@openzeppelin/contracts/token/ERC1155/ERC1155.sol\":15638:15676  IERC1155Receiver(to).onERC1155Received */\n      dup6\n      and\n      swap1\n      0xf23a6e61\n      swap1\n        /* \"@openzeppelin/contracts/token/ERC1155/ERC1155.sol\":15638:15710  IERC1155Receiver(to).onERC1155Received(operator, from, id, amount, data) */\n      tag_204\n      swap1\n        /* \"@openzeppelin/contracts/token/ERC1155/ERC1155.sol\":15677:15685  operator */\n      dup10\n      swap1\n        /* \"@openzeppelin/contracts/token/ERC1155/ERC1155.sol\":15687:15691  from */\n      dup10\n      swap1\n        /* \"@openzeppelin/contracts/token/ERC1155/ERC1155.sol\":15693:15695  id */\n      dup9\n      swap1\n        /* \"@openzeppelin/contracts/token/ERC1155/ERC1155.sol\":15697:15703  amount */\n      dup9\n      swap1\n        /* \"@openzeppelin/contracts/token/ERC1155/ERC1155.sol\":15705:15709  data */\n      dup9\n      swap1\n        /* \"@openzeppelin/contracts/token/ERC1155/ERC1155.sol\":15638:15710  IERC1155Receiver(to).onERC1155Received(operator, from, id, amount, data) */\n      0x04\n      add\n      tag_205\n      jump\t// in\n    tag_204:\n      0x20\n      mload(0x40)\n      dup1\n      dup4\n      sub\n      dup2\n      0x00\n      dup8\n      gas\n      call\n      swap3\n      pop\n      pop\n      pop\n      dup1\n      iszero\n      tag_206\n      jumpi\n      pop\n      0x40\n      dup1\n      mload\n      0x1f\n      returndatasize\n      swap1\n      dup2\n      add\n      not(0x1f)\n      and\n      dup3\n      add\n      swap1\n      swap3\n      mstore\n      tag_207\n      swap2\n      dup2\n      add\n      swap1\n      tag_178\n      jump\t// in\n    tag_207:\n      0x01\n    tag_206:\n        /* \"@openzeppelin/contracts/token/ERC1155/ERC1155.sol\":15634:16105  try IERC1155Receiver(to).onERC1155Received(operator, from, id, amount, data) returns (bytes4 response) {... */\n      tag_208\n      jumpi\n      tag_183\n      tag_184\n      jump\t// in\n    tag_208:\n      not(sub(shl(0xe0, 0x01), 0x01))\n        /* \"@openzeppelin/contracts/token/ERC1155/ERC1155.sol\":15759:15814  response != IERC1155Receiver.onERC1155Received.selector */\n      dup2\n      and\n      shl(0xe0, 0xf23a6e61)\n      eq\n        /* \"@openzeppelin/contracts/token/ERC1155/ERC1155.sol\":15755:15907  if (response != IERC1155Receiver.onERC1155Received.selector) {... */\n      tag_192\n      jumpi\n        /* \"@openzeppelin/contracts/token/ERC1155/ERC1155.sol\":15838:15888  revert(\"ERC1155: ERC1155Receiver rejected tokens\") */\n      mload(0x40)\n      shl(0xe5, 0x461bcd)\n      dup2\n      mstore\n      0x04\n      add\n      tag_55\n      swap1\n      tag_194\n      jump\t// in\n        /* \"#utility.yul\":14:187   */\n    tag_221:\n        /* \"#utility.yul\":82:102   */\n      dup1\n      calldataload\n      sub(shl(0xa0, 0x01), 0x01)\n        /* \"#utility.yul\":131:162   */\n      dup2\n      and\n        /* \"#utility.yul\":121:163   */\n      dup2\n      eq\n        /* \"#utility.yul\":111:181   */\n      tag_232\n      jumpi\n        /* \"#utility.yul\":177:178   */\n      0x00\n        /* \"#utility.yul\":174:175   */\n      dup1\n        /* \"#utility.yul\":167:179   */\n      revert\n        /* \"#utility.yul\":111:181   */\n    tag_232:\n        /* \"#utility.yul\":14:187   */\n      swap2\n      swap1\n      pop\n      jump\t// out\n        /* \"#utility.yul\":192:446   */\n    tag_14:\n        /* \"#utility.yul\":260:266   */\n      0x00\n        /* \"#utility.yul\":268:274   */\n      dup1\n        /* \"#utility.yul\":321:323   */\n      0x40\n        /* \"#utility.yul\":309:318   */\n      dup4\n        /* \"#utility.yul\":300:307   */\n      dup6\n        /* \"#utility.yul\":296:319   */\n      sub\n        /* \"#utility.yul\":292:324   */\n      slt\n        /* \"#utility.yul\":289:341   */\n      iszero\n      tag_234\n      jumpi\n        /* \"#utility.yul\":337:338   */\n      0x00\n        /* \"#utility.yul\":334:335   */\n      dup1\n        /* \"#utility.yul\":327:339   */\n      revert\n        /* \"#utility.yul\":289:341   */\n    tag_234:\n        /* \"#utility.yul\":360:389   */\n      tag_235\n        /* \"#utility.yul\":379:388   */\n      dup4\n        /* \"#utility.yul\":360:389   */\n      tag_221\n      jump\t// in\n    tag_235:\n        /* \"#utility.yul\":350:389   */\n      swap5\n        /* \"#utility.yul\":436:438   */\n      0x20\n        /* \"#utility.yul\":421:439   */\n      swap4\n      swap1\n      swap4\n      add\n        /* \"#utility.yul\":408:440   */\n      calldataload\n      swap4\n      pop\n      pop\n      pop\n        /* \"#utility.yul\":192:446   */\n      jump\t// out\n        /* \"#utility.yul\":633:764   */\n    tag_222:\n      not(sub(shl(0xe0, 0x01), 0x01))\n        /* \"#utility.yul\":707:739   */\n      dup2\n      and\n        /* \"#utility.yul\":697:740   */\n      dup2\n      eq\n        /* \"#utility.yul\":687:758   */\n      tag_238\n      jumpi\n        /* \"#utility.yul\":754:755   */\n      0x00\n        /* \"#utility.yul\":751:752   */\n      dup1\n        /* \"#utility.yul\":744:756   */\n      revert\n        /* \"#utility.yul\":687:758   */\n    tag_238:\n        /* \"#utility.yul\":633:764   */\n      pop\n      jump\t// out\n        /* \"#utility.yul\":769:1014   */\n    tag_20:\n        /* \"#utility.yul\":827:833   */\n      0x00\n        /* \"#utility.yul\":880:882   */\n      0x20\n        /* \"#utility.yul\":868:877   */\n      dup3\n        /* \"#utility.yul\":859:866   */\n      dup5\n        /* \"#utility.yul\":855:878   */\n      sub\n        /* \"#utility.yul\":851:883   */\n      slt\n        /* \"#utility.yul\":848:900   */\n      iszero\n      tag_240\n      jumpi\n        /* \"#utility.yul\":896:897   */\n      0x00\n        /* \"#utility.yul\":893:894   */\n      dup1\n        /* \"#utility.yul\":886:898   */\n      revert\n        /* \"#utility.yul\":848:900   */\n    tag_240:\n        /* \"#utility.yul\":935:944   */\n      dup2\n        /* \"#utility.yul\":922:945   */\n      calldataload\n        /* \"#utility.yul\":954:984   */\n      tag_241\n        /* \"#utility.yul\":978:983   */\n      dup2\n        /* \"#utility.yul\":954:984   */\n      tag_222\n      jump\t// in\n    tag_241:\n        /* \"#utility.yul\":1003:1008   */\n      swap4\n        /* \"#utility.yul\":769:1014   */\n      swap3\n      pop\n      pop\n      pop\n      jump\t// out\n        /* \"#utility.yul\":1211:1391   */\n    tag_26:\n        /* \"#utility.yul\":1270:1276   */\n      0x00\n        /* \"#utility.yul\":1323:1325   */\n      0x20\n        /* \"#utility.yul\":1311:1320   */\n      dup3\n        /* \"#utility.yul\":1302:1309   */\n      dup5\n        /* \"#utility.yul\":1298:1321   */\n      sub\n        /* \"#utility.yul\":1294:1326   */\n      slt\n        /* \"#utility.yul\":1291:1343   */\n      iszero\n      tag_244\n      jumpi\n        /* \"#utility.yul\":1339:1340   */\n      0x00\n        /* \"#utility.yul\":1336:1337   */\n      dup1\n        /* \"#utility.yul\":1329:1341   */\n      revert\n        /* \"#utility.yul\":1291:1343   */\n    tag_244:\n      pop\n        /* \"#utility.yul\":1362:1385   */\n      calldataload\n      swap2\n        /* \"#utility.yul\":1211:1391   */\n      swap1\n      pop\n      jump\t// out\n        /* \"#utility.yul\":1396:1868   */\n    tag_223:\n        /* \"#utility.yul\":1438:1441   */\n      0x00\n        /* \"#utility.yul\":1476:1481   */\n      dup2\n        /* \"#utility.yul\":1470:1482   */\n      mload\n        /* \"#utility.yul\":1503:1509   */\n      dup1\n        /* \"#utility.yul\":1498:1501   */\n      dup5\n        /* \"#utility.yul\":1491:1510   */\n      mstore\n        /* \"#utility.yul\":1528:1529   */\n      0x00\n        /* \"#utility.yul\":1538:1700   */\n    tag_246:\n        /* \"#utility.yul\":1552:1558   */\n      dup2\n        /* \"#utility.yul\":1549:1550   */\n      dup2\n        /* \"#utility.yul\":1546:1559   */\n      lt\n        /* \"#utility.yul\":1538:1700   */\n      iszero\n      tag_248\n      jumpi\n        /* \"#utility.yul\":1614:1618   */\n      0x20\n        /* \"#utility.yul\":1670:1683   */\n      dup2\n      dup6\n      add\n        /* \"#utility.yul\":1666:1688   */\n      dup2\n      add\n        /* \"#utility.yul\":1660:1689   */\n      mload\n        /* \"#utility.yul\":1642:1653   */\n      dup7\n      dup4\n      add\n        /* \"#utility.yul\":1638:1658   */\n      dup3\n      add\n        /* \"#utility.yul\":1631:1690   */\n      mstore\n        /* \"#utility.yul\":1567:1579   */\n      add\n        /* \"#utility.yul\":1538:1700   */\n      jump(tag_246)\n    tag_248:\n        /* \"#utility.yul\":1718:1724   */\n      dup2\n        /* \"#utility.yul\":1715:1716   */\n      dup2\n        /* \"#utility.yul\":1712:1725   */\n      gt\n        /* \"#utility.yul\":1709:1796   */\n      iszero\n      tag_249\n      jumpi\n        /* \"#utility.yul\":1784:1785   */\n      0x00\n        /* \"#utility.yul\":1777:1781   */\n      0x20\n        /* \"#utility.yul\":1768:1774   */\n      dup4\n        /* \"#utility.yul\":1763:1766   */\n      dup8\n        /* \"#utility.yul\":1759:1775   */\n      add\n        /* \"#utility.yul\":1755:1782   */\n      add\n        /* \"#utility.yul\":1748:1786   */\n      mstore\n        /* \"#utility.yul\":1709:1796   */\n    tag_249:\n      pop\n        /* \"#utility.yul\":1850:1852   */\n      0x1f\n        /* \"#utility.yul\":1829:1844   */\n      add\n      not(0x1f)\n        /* \"#utility.yul\":1825:1854   */\n      and\n        /* \"#utility.yul\":1816:1855   */\n      swap3\n      swap1\n      swap3\n      add\n        /* \"#utility.yul\":1857:1861   */\n      0x20\n        /* \"#utility.yul\":1812:1862   */\n      add\n      swap3\n        /* \"#utility.yul\":1396:1868   */\n      swap2\n      pop\n      pop\n      jump\t// out\n        /* \"#utility.yul\":1873:2093   */\n    tag_29:\n        /* \"#utility.yul\":2022:2024   */\n      0x20\n        /* \"#utility.yul\":2011:2020   */\n      dup2\n        /* \"#utility.yul\":2004:2025   */\n      mstore\n        /* \"#utility.yul\":1985:1989   */\n      0x00\n        /* \"#utility.yul\":2042:2087   */\n      tag_241\n        /* \"#utility.yul\":2083:2085   */\n      0x20\n        /* \"#utility.yul\":2072:2081   */\n      dup4\n        /* \"#utility.yul\":2068:2086   */\n      add\n        /* \"#utility.yul\":2060:2066   */\n      dup5\n        /* \"#utility.yul\":2042:2087   */\n      tag_223\n      jump\t// in\n        /* \"#utility.yul\":2098:2225   */\n    tag_86:\n        /* \"#utility.yul\":2159:2169   */\n      0x4e487b71\n        /* \"#utility.yul\":2154:2157   */\n      0xe0\n        /* \"#utility.yul\":2150:2170   */\n      shl\n        /* \"#utility.yul\":2147:2148   */\n      0x00\n        /* \"#utility.yul\":2140:2171   */\n      mstore\n        /* \"#utility.yul\":2190:2194   */\n      0x41\n        /* \"#utility.yul\":2187:2188   */\n      0x04\n        /* \"#utility.yul\":2180:2195   */\n      mstore\n        /* \"#utility.yul\":2214:2218   */\n      0x24\n        /* \"#utility.yul\":2211:2212   */\n      0x00\n        /* \"#utility.yul\":2204:2219   */\n      revert\n        /* \"#utility.yul\":2230:2479   */\n    tag_224:\n        /* \"#utility.yul\":2340:2342   */\n      0x1f\n        /* \"#utility.yul\":2321:2334   */\n      dup3\n      add\n      not(0x1f)\n        /* \"#utility.yul\":2317:2344   */\n      and\n        /* \"#utility.yul\":2305:2345   */\n      dup2\n      add\n        /* \"#utility.yul\":2375:2393   */\n      0xffffffffffffffff\n        /* \"#utility.yul\":2360:2394   */\n      dup2\n      gt\n        /* \"#utility.yul\":2396:2418   */\n      dup3\n      dup3\n      lt\n        /* \"#utility.yul\":2357:2419   */\n      or\n        /* \"#utility.yul\":2354:2442   */\n      iszero\n      tag_255\n      jumpi\n        /* \"#utility.yul\":2422:2440   */\n      tag_255\n      tag_86\n      jump\t// in\n    tag_255:\n        /* \"#utility.yul\":2458:2460   */\n      0x40\n        /* \"#utility.yul\":2451:2473   */\n      mstore\n      pop\n      pop\n        /* \"#utility.yul\":2230:2479   */\n      jump\t// out\n        /* \"#utility.yul\":2484:2667   */\n    tag_225:\n        /* \"#utility.yul\":2544:2548   */\n      0x00\n        /* \"#utility.yul\":2577:2595   */\n      0xffffffffffffffff\n        /* \"#utility.yul\":2569:2575   */\n      dup3\n        /* \"#utility.yul\":2566:2596   */\n      gt\n        /* \"#utility.yul\":2563:2619   */\n      iszero\n      tag_258\n      jumpi\n        /* \"#utility.yul\":2599:2617   */\n      tag_258\n      tag_86\n      jump\t// in\n    tag_258:\n      pop\n        /* \"#utility.yul\":2644:2645   */\n      0x05\n        /* \"#utility.yul\":2640:2654   */\n      shl\n        /* \"#utility.yul\":2656:2660   */\n      0x20\n        /* \"#utility.yul\":2636:2661   */\n      add\n      swap1\n        /* \"#utility.yul\":2484:2667   */\n      jump\t// out\n        /* \"#utility.yul\":2672:3396   */\n    tag_226:\n        /* \"#utility.yul\":2726:2731   */\n      0x00\n        /* \"#utility.yul\":2779:2782   */\n      dup3\n        /* \"#utility.yul\":2772:2776   */\n      0x1f\n        /* \"#utility.yul\":2764:2770   */\n      dup4\n        /* \"#utility.yul\":2760:2777   */\n      add\n        /* \"#utility.yul\":2756:2783   */\n      slt\n        /* \"#utility.yul\":2746:2801   */\n      tag_260\n      jumpi\n        /* \"#utility.yul\":2797:2798   */\n      0x00\n        /* \"#utility.yul\":2794:2795   */\n      dup1\n        /* \"#utility.yul\":2787:2799   */\n      revert\n        /* \"#utility.yul\":2746:2801   */\n    tag_260:\n        /* \"#utility.yul\":2833:2839   */\n      dup2\n        /* \"#utility.yul\":2820:2840   */\n      calldataload\n        /* \"#utility.yul\":2859:2863   */\n      0x20\n        /* \"#utility.yul\":2882:2925   */\n      tag_261\n        /* \"#utility.yul\":2922:2924   */\n      dup3\n        /* \"#utility.yul\":2882:2925   */\n      tag_225\n      jump\t// in\n    tag_261:\n        /* \"#utility.yul\":2954:2956   */\n      0x40\n        /* \"#utility.yul\":2948:2957   */\n      mload\n        /* \"#utility.yul\":2966:2997   */\n      tag_262\n        /* \"#utility.yul\":2994:2996   */\n      dup3\n        /* \"#utility.yul\":2986:2992   */\n      dup3\n        /* \"#utility.yul\":2966:2997   */\n      tag_224\n      jump\t// in\n    tag_262:\n        /* \"#utility.yul\":3032:3050   */\n      dup4\n      dup2\n      mstore\n        /* \"#utility.yul\":3124:3125   */\n      0x05\n        /* \"#utility.yul\":3120:3130   */\n      swap4\n      swap1\n      swap4\n      shl\n        /* \"#utility.yul\":3108:3131   */\n      dup6\n      add\n        /* \"#utility.yul\":3104:3136   */\n      dup3\n      add\n      swap3\n        /* \"#utility.yul\":3066:3081   */\n      dup3\n      dup2\n      add\n      swap2\n      pop\n        /* \"#utility.yul\":3148:3163   */\n      dup7\n      dup5\n      gt\n        /* \"#utility.yul\":3145:3180   */\n      iszero\n      tag_263\n      jumpi\n        /* \"#utility.yul\":3176:3177   */\n      0x00\n        /* \"#utility.yul\":3173:3174   */\n      dup1\n        /* \"#utility.yul\":3166:3178   */\n      revert\n        /* \"#utility.yul\":3145:3180   */\n    tag_263:\n        /* \"#utility.yul\":3212:3214   */\n      dup3\n        /* \"#utility.yul\":3204:3210   */\n      dup7\n        /* \"#utility.yul\":3200:3215   */\n      add\n        /* \"#utility.yul\":3224:3366   */\n    tag_264:\n        /* \"#utility.yul\":3240:3246   */\n      dup5\n        /* \"#utility.yul\":3235:3238   */\n      dup2\n        /* \"#utility.yul\":3232:3247   */\n      lt\n        /* \"#utility.yul\":3224:3366   */\n      iszero\n      tag_266\n      jumpi\n        /* \"#utility.yul\":3306:3323   */\n      dup1\n      calldataload\n        /* \"#utility.yul\":3294:3324   */\n      dup4\n      mstore\n        /* \"#utility.yul\":3344:3356   */\n      swap2\n      dup4\n      add\n      swap2\n        /* \"#utility.yul\":3257:3269   */\n      dup4\n      add\n        /* \"#utility.yul\":3224:3366   */\n      jump(tag_264)\n    tag_266:\n      pop\n        /* \"#utility.yul\":3384:3390   */\n      swap7\n        /* \"#utility.yul\":2672:3396   */\n      swap6\n      pop\n      pop\n      pop\n      pop\n      pop\n      pop\n      jump\t// out\n        /* \"#utility.yul\":3401:3956   */\n    tag_227:\n        /* \"#utility.yul\":3443:3448   */\n      0x00\n        /* \"#utility.yul\":3496:3499   */\n      dup3\n        /* \"#utility.yul\":3489:3493   */\n      0x1f\n        /* \"#utility.yul\":3481:3487   */\n      dup4\n        /* \"#utility.yul\":3477:3494   */\n      add\n        /* \"#utility.yul\":3473:3500   */\n      slt\n        /* \"#utility.yul\":3463:3518   */\n      tag_268\n      jumpi\n        /* \"#utility.yul\":3514:3515   */\n      0x00\n        /* \"#utility.yul\":3511:3512   */\n      dup1\n        /* \"#utility.yul\":3504:3516   */\n      revert\n        /* \"#utility.yul\":3463:3518   */\n    tag_268:\n        /* \"#utility.yul\":3550:3556   */\n      dup2\n        /* \"#utility.yul\":3537:3557   */\n      calldataload\n        /* \"#utility.yul\":3576:3594   */\n      0xffffffffffffffff\n        /* \"#utility.yul\":3572:3574   */\n      dup2\n        /* \"#utility.yul\":3569:3595   */\n      gt\n        /* \"#utility.yul\":3566:3618   */\n      iszero\n      tag_270\n      jumpi\n        /* \"#utility.yul\":3598:3616   */\n      tag_270\n      tag_86\n      jump\t// in\n    tag_270:\n        /* \"#utility.yul\":3647:3649   */\n      0x40\n        /* \"#utility.yul\":3641:3650   */\n      mload\n        /* \"#utility.yul\":3659:3726   */\n      tag_271\n        /* \"#utility.yul\":3714:3716   */\n      0x1f\n        /* \"#utility.yul\":3695:3708   */\n      dup4\n      add\n      not(0x1f)\n        /* \"#utility.yul\":3691:3718   */\n      and\n        /* \"#utility.yul\":3720:3724   */\n      0x20\n        /* \"#utility.yul\":3687:3725   */\n      add\n        /* \"#utility.yul\":3641:3650   */\n      dup3\n        /* \"#utility.yul\":3659:3726   */\n      tag_224\n      jump\t// in\n    tag_271:\n        /* \"#utility.yul\":3750:3752   */\n      dup2\n        /* \"#utility.yul\":3742:3748   */\n      dup2\n        /* \"#utility.yul\":3735:3753   */\n      mstore\n        /* \"#utility.yul\":3796:3799   */\n      dup5\n        /* \"#utility.yul\":3789:3793   */\n      0x20\n        /* \"#utility.yul\":3784:3786   */\n      dup4\n        /* \"#utility.yul\":3776:3782   */\n      dup7\n        /* \"#utility.yul\":3772:3787   */\n      add\n        /* \"#utility.yul\":3768:3794   */\n      add\n        /* \"#utility.yul\":3765:3800   */\n      gt\n        /* \"#utility.yul\":3762:3817   */\n      iszero\n      tag_272\n      jumpi\n        /* \"#utility.yul\":3813:3814   */\n      0x00\n        /* \"#utility.yul\":3810:3811   */\n      dup1\n        /* \"#utility.yul\":3803:3815   */\n      revert\n        /* \"#utility.yul\":3762:3817   */\n    tag_272:\n        /* \"#utility.yul\":3877:3879   */\n      dup2\n        /* \"#utility.yul\":3870:3874   */\n      0x20\n        /* \"#utility.yul\":3862:3868   */\n      dup6\n        /* \"#utility.yul\":3858:3875   */\n      add\n        /* \"#utility.yul\":3851:3855   */\n      0x20\n        /* \"#utility.yul\":3843:3849   */\n      dup4\n        /* \"#utility.yul\":3839:3856   */\n      add\n        /* \"#utility.yul\":3826:3880   */\n      calldatacopy\n        /* \"#utility.yul\":3924:3925   */\n      0x00\n        /* \"#utility.yul\":3900:3915   */\n      swap2\n      dup2\n      add\n        /* \"#utility.yul\":3917:3921   */\n      0x20\n        /* \"#utility.yul\":3896:3922   */\n      add\n        /* \"#utility.yul\":3889:3926   */\n      swap2\n      swap1\n      swap2\n      mstore\n        /* \"#utility.yul\":3904:3910   */\n      swap4\n        /* \"#utility.yul\":3401:3956   */\n      swap3\n      pop\n      pop\n      pop\n      jump\t// out\n        /* \"#utility.yul\":3961:4904   */\n    tag_32:\n        /* \"#utility.yul\":4115:4121   */\n      0x00\n        /* \"#utility.yul\":4123:4129   */\n      dup1\n        /* \"#utility.yul\":4131:4137   */\n      0x00\n        /* \"#utility.yul\":4139:4145   */\n      dup1\n        /* \"#utility.yul\":4147:4153   */\n      0x00\n        /* \"#utility.yul\":4200:4203   */\n      0xa0\n        /* \"#utility.yul\":4188:4197   */\n      dup7\n        /* \"#utility.yul\":4179:4186   */\n      dup9\n        /* \"#utility.yul\":4175:4198   */\n      sub\n        /* \"#utility.yul\":4171:4204   */\n      slt\n        /* \"#utility.yul\":4168:4221   */\n      iszero\n      tag_274\n      jumpi\n        /* \"#utility.yul\":4217:4218   */\n      0x00\n        /* \"#utility.yul\":4214:4215   */\n      dup1\n        /* \"#utility.yul\":4207:4219   */\n      revert\n        /* \"#utility.yul\":4168:4221   */\n    tag_274:\n        /* \"#utility.yul\":4240:4269   */\n      tag_275\n        /* \"#utility.yul\":4259:4268   */\n      dup7\n        /* \"#utility.yul\":4240:4269   */\n      tag_221\n      jump\t// in\n    tag_275:\n        /* \"#utility.yul\":4230:4269   */\n      swap5\n      pop\n        /* \"#utility.yul\":4288:4326   */\n      tag_276\n        /* \"#utility.yul\":4322:4324   */\n      0x20\n        /* \"#utility.yul\":4311:4320   */\n      dup8\n        /* \"#utility.yul\":4307:4325   */\n      add\n        /* \"#utility.yul\":4288:4326   */\n      tag_221\n      jump\t// in\n    tag_276:\n        /* \"#utility.yul\":4278:4326   */\n      swap4\n      pop\n        /* \"#utility.yul\":4377:4379   */\n      0x40\n        /* \"#utility.yul\":4366:4375   */\n      dup7\n        /* \"#utility.yul\":4362:4380   */\n      add\n        /* \"#utility.yul\":4349:4381   */\n      calldataload\n        /* \"#utility.yul\":4400:4418   */\n      0xffffffffffffffff\n        /* \"#utility.yul\":4441:4443   */\n      dup1\n        /* \"#utility.yul\":4433:4439   */\n      dup3\n        /* \"#utility.yul\":4430:4444   */\n      gt\n        /* \"#utility.yul\":4427:4461   */\n      iszero\n      tag_277\n      jumpi\n        /* \"#utility.yul\":4457:4458   */\n      0x00\n        /* \"#utility.yul\":4454:4455   */\n      dup1\n        /* \"#utility.yul\":4447:4459   */\n      revert\n        /* \"#utility.yul\":4427:4461   */\n    tag_277:\n        /* \"#utility.yul\":4480:4541   */\n      tag_278\n        /* \"#utility.yul\":4533:4540   */\n      dup10\n        /* \"#utility.yul\":4524:4530   */\n      dup4\n        /* \"#utility.yul\":4513:4522   */\n      dup11\n        /* \"#utility.yul\":4509:4531   */\n      add\n        /* \"#utility.yul\":4480:4541   */\n      tag_226\n      jump\t// in\n    tag_278:\n        /* \"#utility.yul\":4470:4541   */\n      swap5\n      pop\n        /* \"#utility.yul\":4594:4596   */\n      0x60\n        /* \"#utility.yul\":4583:4592   */\n      dup9\n        /* \"#utility.yul\":4579:4597   */\n      add\n        /* \"#utility.yul\":4566:4598   */\n      calldataload\n        /* \"#utility.yul\":4550:4598   */\n      swap2\n      pop\n        /* \"#utility.yul\":4623:4625   */\n      dup1\n        /* \"#utility.yul\":4613:4621   */\n      dup3\n        /* \"#utility.yul\":4610:4626   */\n      gt\n        /* \"#utility.yul\":4607:4643   */\n      iszero\n      tag_279\n      jumpi\n        /* \"#utility.yul\":4639:4640   */\n      0x00\n        /* \"#utility.yul\":4636:4637   */\n      dup1\n        /* \"#utility.yul\":4629:4641   */\n      revert\n        /* \"#utility.yul\":4607:4643   */\n    tag_279:\n        /* \"#utility.yul\":4662:4725   */\n      tag_280\n        /* \"#utility.yul\":4717:4724   */\n      dup10\n        /* \"#utility.yul\":4706:4714   */\n      dup4\n        /* \"#utility.yul\":4695:4704   */\n      dup11\n        /* \"#utility.yul\":4691:4715   */\n      add\n        /* \"#utility.yul\":4662:4725   */\n      tag_226\n      jump\t// in\n    tag_280:\n        /* \"#utility.yul\":4652:4725   */\n      swap4\n      pop\n        /* \"#utility.yul\":4778:4781   */\n      0x80\n        /* \"#utility.yul\":4767:4776   */\n      dup9\n        /* \"#utility.yul\":4763:4782   */\n      add\n        /* \"#utility.yul\":4750:4783   */\n      calldataload\n        /* \"#utility.yul\":4734:4783   */\n      swap2\n      pop\n        /* \"#utility.yul\":4808:4810   */\n      dup1\n        /* \"#utility.yul\":4798:4806   */\n      dup3\n        /* \"#utility.yul\":4795:4811   */\n      gt\n        /* \"#utility.yul\":4792:4828   */\n      iszero\n      tag_281\n      jumpi\n        /* \"#utility.yul\":4824:4825   */\n      0x00\n        /* \"#utility.yul\":4821:4822   */\n      dup1\n        /* \"#utility.yul\":4814:4826   */\n      revert\n        /* \"#utility.yul\":4792:4828   */\n    tag_281:\n      pop\n        /* \"#utility.yul\":4847:4898   */\n      tag_282\n        /* \"#utility.yul\":4890:4897   */\n      dup9\n        /* \"#utility.yul\":4879:4887   */\n      dup3\n        /* \"#utility.yul\":4868:4877   */\n      dup10\n        /* \"#utility.yul\":4864:4888   */\n      add\n        /* \"#utility.yul\":4847:4898   */\n      tag_227\n      jump\t// in\n    tag_282:\n        /* \"#utility.yul\":4837:4898   */\n      swap2\n      pop\n      pop\n        /* \"#utility.yul\":3961:4904   */\n      swap3\n      swap6\n      pop\n      swap3\n      swap6\n      swap1\n      swap4\n      pop\n      jump\t// out\n        /* \"#utility.yul\":4909:6117   */\n    tag_36:\n        /* \"#utility.yul\":5027:5033   */\n      0x00\n        /* \"#utility.yul\":5035:5041   */\n      dup1\n        /* \"#utility.yul\":5088:5090   */\n      0x40\n        /* \"#utility.yul\":5076:5085   */\n      dup4\n        /* \"#utility.yul\":5067:5074   */\n      dup6\n        /* \"#utility.yul\":5063:5086   */\n      sub\n        /* \"#utility.yul\":5059:5091   */\n      slt\n        /* \"#utility.yul\":5056:5108   */\n      iszero\n      tag_284\n      jumpi\n        /* \"#utility.yul\":5104:5105   */\n      0x00\n        /* \"#utility.yul\":5101:5102   */\n      dup1\n        /* \"#utility.yul\":5094:5106   */\n      revert\n        /* \"#utility.yul\":5056:5108   */\n    tag_284:\n        /* \"#utility.yul\":5144:5153   */\n      dup3\n        /* \"#utility.yul\":5131:5154   */\n      calldataload\n        /* \"#utility.yul\":5173:5191   */\n      0xffffffffffffffff\n        /* \"#utility.yul\":5214:5216   */\n      dup1\n        /* \"#utility.yul\":5206:5212   */\n      dup3\n        /* \"#utility.yul\":5203:5217   */\n      gt\n        /* \"#utility.yul\":5200:5234   */\n      iszero\n      tag_285\n      jumpi\n        /* \"#utility.yul\":5230:5231   */\n      0x00\n        /* \"#utility.yul\":5227:5228   */\n      dup1\n        /* \"#utility.yul\":5220:5232   */\n      revert\n        /* \"#utility.yul\":5200:5234   */\n    tag_285:\n        /* \"#utility.yul\":5268:5274   */\n      dup2\n        /* \"#utility.yul\":5257:5266   */\n      dup6\n        /* \"#utility.yul\":5253:5275   */\n      add\n        /* \"#utility.yul\":5243:5275   */\n      swap2\n      pop\n        /* \"#utility.yul\":5313:5320   */\n      dup6\n        /* \"#utility.yul\":5306:5310   */\n      0x1f\n        /* \"#utility.yul\":5302:5304   */\n      dup4\n        /* \"#utility.yul\":5298:5311   */\n      add\n        /* \"#utility.yul\":5294:5321   */\n      slt\n        /* \"#utility.yul\":5284:5339   */\n      tag_286\n      jumpi\n        /* \"#utility.yul\":5335:5336   */\n      0x00\n        /* \"#utility.yul\":5332:5333   */\n      dup1\n        /* \"#utility.yul\":5325:5337   */\n      revert\n        /* \"#utility.yul\":5284:5339   */\n    tag_286:\n        /* \"#utility.yul\":5371:5373   */\n      dup2\n        /* \"#utility.yul\":5358:5374   */\n      calldataload\n        /* \"#utility.yul\":5393:5397   */\n      0x20\n        /* \"#utility.yul\":5416:5459   */\n      tag_287\n        /* \"#utility.yul\":5456:5458   */\n      dup3\n        /* \"#utility.yul\":5416:5459   */\n      tag_225\n      jump\t// in\n    tag_287:\n        /* \"#utility.yul\":5488:5490   */\n      0x40\n        /* \"#utility.yul\":5482:5491   */\n      mload\n        /* \"#utility.yul\":5500:5531   */\n      tag_288\n        /* \"#utility.yul\":5528:5530   */\n      dup3\n        /* \"#utility.yul\":5520:5526   */\n      dup3\n        /* \"#utility.yul\":5500:5531   */\n      tag_224\n      jump\t// in\n    tag_288:\n        /* \"#utility.yul\":5566:5584   */\n      dup4\n      dup2\n      mstore\n        /* \"#utility.yul\":5654:5655   */\n      0x05\n        /* \"#utility.yul\":5650:5660   */\n      swap4\n      swap1\n      swap4\n      shl\n        /* \"#utility.yul\":5642:5661   */\n      dup6\n      add\n        /* \"#utility.yul\":5638:5666   */\n      dup3\n      add\n      swap3\n        /* \"#utility.yul\":5600:5615   */\n      dup3\n      dup2\n      add\n      swap2\n      pop\n        /* \"#utility.yul\":5678:5697   */\n      dup10\n      dup5\n      gt\n        /* \"#utility.yul\":5675:5714   */\n      iszero\n      tag_289\n      jumpi\n        /* \"#utility.yul\":5710:5711   */\n      0x00\n        /* \"#utility.yul\":5707:5708   */\n      dup1\n        /* \"#utility.yul\":5700:5712   */\n      revert\n        /* \"#utility.yul\":5675:5714   */\n    tag_289:\n        /* \"#utility.yul\":5734:5745   */\n      swap5\n      dup3\n      add\n      swap5\n        /* \"#utility.yul\":5754:5902   */\n    tag_290:\n        /* \"#utility.yul\":5770:5776   */\n      dup4\n        /* \"#utility.yul\":5765:5768   */\n      dup7\n        /* \"#utility.yul\":5762:5777   */\n      lt\n        /* \"#utility.yul\":5754:5902   */\n      iszero\n      tag_292\n      jumpi\n        /* \"#utility.yul\":5836:5859   */\n      tag_293\n        /* \"#utility.yul\":5855:5858   */\n      dup7\n        /* \"#utility.yul\":5836:5859   */\n      tag_221\n      jump\t// in\n    tag_293:\n        /* \"#utility.yul\":5824:5860   */\n      dup3\n      mstore\n        /* \"#utility.yul\":5787:5799   */\n      swap5\n      dup3\n      add\n      swap5\n        /* \"#utility.yul\":5880:5892   */\n      swap1\n      dup3\n      add\n      swap1\n        /* \"#utility.yul\":5754:5902   */\n      jump(tag_290)\n    tag_292:\n        /* \"#utility.yul\":5921:5927   */\n      swap7\n      pop\n      pop\n        /* \"#utility.yul\":5965:5983   */\n      dup7\n      add\n        /* \"#utility.yul\":5952:5984   */\n      calldataload\n      swap3\n      pop\n      pop\n        /* \"#utility.yul\":5996:6012   */\n      dup1\n      dup3\n      gt\n        /* \"#utility.yul\":5993:6029   */\n      iszero\n      tag_294\n      jumpi\n        /* \"#utility.yul\":6025:6026   */\n      0x00\n        /* \"#utility.yul\":6022:6023   */\n      dup1\n        /* \"#utility.yul\":6015:6027   */\n      revert\n        /* \"#utility.yul\":5993:6029   */\n    tag_294:\n      pop\n        /* \"#utility.yul\":6048:6111   */\n      tag_295\n        /* \"#utility.yul\":6103:6110   */\n      dup6\n        /* \"#utility.yul\":6092:6100   */\n      dup3\n        /* \"#utility.yul\":6081:6090   */\n      dup7\n        /* \"#utility.yul\":6077:6101   */\n      add\n        /* \"#utility.yul\":6048:6111   */\n      tag_226\n      jump\t// in\n    tag_295:\n        /* \"#utility.yul\":6038:6111   */\n      swap2\n      pop\n      pop\n        /* \"#utility.yul\":4909:6117   */\n      swap3\n      pop\n      swap3\n      swap1\n      pop\n      jump\t// out\n        /* \"#utility.yul\":6122:6557   */\n    tag_228:\n        /* \"#utility.yul\":6175:6178   */\n      0x00\n        /* \"#utility.yul\":6213:6218   */\n      dup2\n        /* \"#utility.yul\":6207:6219   */\n      mload\n        /* \"#utility.yul\":6240:6246   */\n      dup1\n        /* \"#utility.yul\":6235:6238   */\n      dup5\n        /* \"#utility.yul\":6228:6247   */\n      mstore\n        /* \"#utility.yul\":6266:6270   */\n      0x20\n        /* \"#utility.yul\":6295:6297   */\n      dup1\n        /* \"#utility.yul\":6290:6293   */\n      dup6\n        /* \"#utility.yul\":6286:6298   */\n      add\n        /* \"#utility.yul\":6279:6298   */\n      swap5\n      pop\n        /* \"#utility.yul\":6332:6334   */\n      dup1\n        /* \"#utility.yul\":6325:6330   */\n      dup5\n        /* \"#utility.yul\":6321:6335   */\n      add\n        /* \"#utility.yul\":6353:6354   */\n      0x00\n        /* \"#utility.yul\":6363:6532   */\n    tag_297:\n        /* \"#utility.yul\":6377:6383   */\n      dup4\n        /* \"#utility.yul\":6374:6375   */\n      dup2\n        /* \"#utility.yul\":6371:6384   */\n      lt\n        /* \"#utility.yul\":6363:6532   */\n      iszero\n      tag_299\n      jumpi\n        /* \"#utility.yul\":6438:6451   */\n      dup2\n      mload\n        /* \"#utility.yul\":6426:6452   */\n      dup8\n      mstore\n        /* \"#utility.yul\":6472:6484   */\n      swap6\n      dup3\n      add\n      swap6\n        /* \"#utility.yul\":6507:6522   */\n      swap1\n      dup3\n      add\n      swap1\n        /* \"#utility.yul\":6399:6400   */\n      0x01\n        /* \"#utility.yul\":6392:6401   */\n      add\n        /* \"#utility.yul\":6363:6532   */\n      jump(tag_297)\n    tag_299:\n      pop\n        /* \"#utility.yul\":6548:6551   */\n      swap5\n      swap6\n        /* \"#utility.yul\":6122:6557   */\n      swap5\n      pop\n      pop\n      pop\n      pop\n      pop\n      jump\t// out\n        /* \"#utility.yul\":6562:6823   */\n    tag_39:\n        /* \"#utility.yul\":6741:6743   */\n      0x20\n        /* \"#utility.yul\":6730:6739   */\n      dup2\n        /* \"#utility.yul\":6723:6744   */\n      mstore\n        /* \"#utility.yul\":6704:6708   */\n      0x00\n        /* \"#utility.yul\":6761:6817   */\n      tag_241\n        /* \"#utility.yul\":6813:6815   */\n      0x20\n        /* \"#utility.yul\":6802:6811   */\n      dup4\n        /* \"#utility.yul\":6798:6816   */\n      add\n        /* \"#utility.yul\":6790:6796   */\n      dup5\n        /* \"#utility.yul\":6761:6817   */\n      tag_228\n      jump\t// in\n        /* \"#utility.yul\":6828:7175   */\n    tag_42:\n        /* \"#utility.yul\":6893:6899   */\n      0x00\n        /* \"#utility.yul\":6901:6907   */\n      dup1\n        /* \"#utility.yul\":6954:6956   */\n      0x40\n        /* \"#utility.yul\":6942:6951   */\n      dup4\n        /* \"#utility.yul\":6933:6940   */\n      dup6\n        /* \"#utility.yul\":6929:6952   */\n      sub\n        /* \"#utility.yul\":6925:6957   */\n      slt\n        /* \"#utility.yul\":6922:6974   */\n      iszero\n      tag_303\n      jumpi\n        /* \"#utility.yul\":6970:6971   */\n      0x00\n        /* \"#utility.yul\":6967:6968   */\n      dup1\n        /* \"#utility.yul\":6960:6972   */\n      revert\n        /* \"#utility.yul\":6922:6974   */\n    tag_303:\n        /* \"#utility.yul\":6993:7022   */\n      tag_304\n        /* \"#utility.yul\":7012:7021   */\n      dup4\n        /* \"#utility.yul\":6993:7022   */\n      tag_221\n      jump\t// in\n    tag_304:\n        /* \"#utility.yul\":6983:7022   */\n      swap2\n      pop\n        /* \"#utility.yul\":7072:7074   */\n      0x20\n        /* \"#utility.yul\":7061:7070   */\n      dup4\n        /* \"#utility.yul\":7057:7075   */\n      add\n        /* \"#utility.yul\":7044:7076   */\n      calldataload\n        /* \"#utility.yul\":7119:7124   */\n      dup1\n        /* \"#utility.yul\":7112:7125   */\n      iszero\n        /* \"#utility.yul\":7105:7126   */\n      iszero\n        /* \"#utility.yul\":7098:7103   */\n      dup2\n        /* \"#utility.yul\":7095:7127   */\n      eq\n        /* \"#utility.yul\":7085:7145   */\n      tag_305\n      jumpi\n        /* \"#utility.yul\":7141:7142   */\n      0x00\n        /* \"#utility.yul\":7138:7139   */\n      dup1\n        /* \"#utility.yul\":7131:7143   */\n      revert\n        /* \"#utility.yul\":7085:7145   */\n    tag_305:\n        /* \"#utility.yul\":7164:7169   */\n      dup1\n        /* \"#utility.yul\":7154:7169   */\n      swap2\n      pop\n      pop\n        /* \"#utility.yul\":6828:7175   */\n      swap3\n      pop\n      swap3\n      swap1\n      pop\n      jump\t// out\n        /* \"#utility.yul\":7180:7440   */\n    tag_46:\n        /* \"#utility.yul\":7248:7254   */\n      0x00\n        /* \"#utility.yul\":7256:7262   */\n      dup1\n        /* \"#utility.yul\":7309:7311   */\n      0x40\n        /* \"#utility.yul\":7297:7306   */\n      dup4\n        /* \"#utility.yul\":7288:7295   */\n      dup6\n        /* \"#utility.yul\":7284:7307   */\n      sub\n        /* \"#utility.yul\":7280:7312   */\n      slt\n        /* \"#utility.yul\":7277:7329   */\n      iszero\n      tag_307\n      jumpi\n        /* \"#utility.yul\":7325:7326   */\n      0x00\n        /* \"#utility.yul\":7322:7323   */\n      dup1\n        /* \"#utility.yul\":7315:7327   */\n      revert\n        /* \"#utility.yul\":7277:7329   */\n    tag_307:\n        /* \"#utility.yul\":7348:7377   */\n      tag_308\n        /* \"#utility.yul\":7367:7376   */\n      dup4\n        /* \"#utility.yul\":7348:7377   */\n      tag_221\n      jump\t// in\n    tag_308:\n        /* \"#utility.yul\":7338:7377   */\n      swap2\n      pop\n        /* \"#utility.yul\":7396:7434   */\n      tag_309\n        /* \"#utility.yul\":7430:7432   */\n      0x20\n        /* \"#utility.yul\":7419:7428   */\n      dup5\n        /* \"#utility.yul\":7415:7433   */\n      add\n        /* \"#utility.yul\":7396:7434   */\n      tag_221\n      jump\t// in\n    tag_309:\n        /* \"#utility.yul\":7386:7434   */\n      swap1\n      pop\n        /* \"#utility.yul\":7180:7440   */\n      swap3\n      pop\n      swap3\n      swap1\n      pop\n      jump\t// out\n        /* \"#utility.yul\":7445:8051   */\n    tag_51:\n        /* \"#utility.yul\":7549:7555   */\n      0x00\n        /* \"#utility.yul\":7557:7563   */\n      dup1\n        /* \"#utility.yul\":7565:7571   */\n      0x00\n        /* \"#utility.yul\":7573:7579   */\n      dup1\n        /* \"#utility.yul\":7581:7587   */\n      0x00\n        /* \"#utility.yul\":7634:7637   */\n      0xa0\n        /* \"#utility.yul\":7622:7631   */\n      dup7\n        /* \"#utility.yul\":7613:7620   */\n      dup9\n        /* \"#utility.yul\":7609:7632   */\n      sub\n        /* \"#utility.yul\":7605:7638   */\n      slt\n        /* \"#utility.yul\":7602:7655   */\n      iszero\n      tag_311\n      jumpi\n        /* \"#utility.yul\":7651:7652   */\n      0x00\n        /* \"#utility.yul\":7648:7649   */\n      dup1\n        /* \"#utility.yul\":7641:7653   */\n      revert\n        /* \"#utility.yul\":7602:7655   */\n    tag_311:\n        /* \"#utility.yul\":7674:7703   */\n      tag_312\n        /* \"#utility.yul\":7693:7702   */\n      dup7\n        /* \"#utility.yul\":7674:7703   */\n      tag_221\n      jump\t// in\n    tag_312:\n        /* \"#utility.yul\":7664:7703   */\n      swap5\n      pop\n        /* \"#utility.yul\":7722:7760   */\n      tag_313\n        /* \"#utility.yul\":7756:7758   */\n      0x20\n        /* \"#utility.yul\":7745:7754   */\n      dup8\n        /* \"#utility.yul\":7741:7759   */\n      add\n        /* \"#utility.yul\":7722:7760   */\n      tag_221\n      jump\t// in\n    tag_313:\n        /* \"#utility.yul\":7712:7760   */\n      swap4\n      pop\n        /* \"#utility.yul\":7807:7809   */\n      0x40\n        /* \"#utility.yul\":7796:7805   */\n      dup7\n        /* \"#utility.yul\":7792:7810   */\n      add\n        /* \"#utility.yul\":7779:7811   */\n      calldataload\n        /* \"#utility.yul\":7769:7811   */\n      swap3\n      pop\n        /* \"#utility.yul\":7858:7860   */\n      0x60\n        /* \"#utility.yul\":7847:7856   */\n      dup7\n        /* \"#utility.yul\":7843:7861   */\n      add\n        /* \"#utility.yul\":7830:7862   */\n      calldataload\n        /* \"#utility.yul\":7820:7862   */\n      swap2\n      pop\n        /* \"#utility.yul\":7913:7916   */\n      0x80\n        /* \"#utility.yul\":7902:7911   */\n      dup7\n        /* \"#utility.yul\":7898:7917   */\n      add\n        /* \"#utility.yul\":7885:7918   */\n      calldataload\n        /* \"#utility.yul\":7941:7959   */\n      0xffffffffffffffff\n        /* \"#utility.yul\":7933:7939   */\n      dup2\n        /* \"#utility.yul\":7930:7960   */\n      gt\n        /* \"#utility.yul\":7927:7977   */\n      iszero\n      tag_314\n      jumpi\n        /* \"#utility.yul\":7973:7974   */\n      0x00\n        /* \"#utility.yul\":7970:7971   */\n      dup1\n        /* \"#utility.yul\":7963:7975   */\n      revert\n        /* \"#utility.yul\":7927:7977   */\n    tag_314:\n        /* \"#utility.yul\":7996:8045   */\n      tag_282\n        /* \"#utility.yul\":8037:8044   */\n      dup9\n        /* \"#utility.yul\":8028:8034   */\n      dup3\n        /* \"#utility.yul\":8017:8026   */\n      dup10\n        /* \"#utility.yul\":8013:8035   */\n      add\n        /* \"#utility.yul\":7996:8045   */\n      tag_227\n      jump\t// in\n        /* \"#utility.yul\":8468:8848   */\n    tag_64:\n        /* \"#utility.yul\":8547:8548   */\n      0x01\n        /* \"#utility.yul\":8543:8555   */\n      dup2\n      dup2\n      shr\n      swap1\n        /* \"#utility.yul\":8590:8602   */\n      dup3\n      and\n      dup1\n        /* \"#utility.yul\":8611:8672   */\n      tag_318\n      jumpi\n        /* \"#utility.yul\":8665:8669   */\n      0x7f\n        /* \"#utility.yul\":8657:8663   */\n      dup3\n        /* \"#utility.yul\":8653:8670   */\n      and\n        /* \"#utility.yul\":8643:8670   */\n      swap2\n      pop\n        /* \"#utility.yul\":8611:8672   */\n    tag_318:\n        /* \"#utility.yul\":8718:8720   */\n      0x20\n        /* \"#utility.yul\":8710:8716   */\n      dup3\n        /* \"#utility.yul\":8707:8721   */\n      lt\n        /* \"#utility.yul\":8687:8705   */\n      dup2\n        /* \"#utility.yul\":8684:8722   */\n      sub\n        /* \"#utility.yul\":8681:8842   */\n      tag_319\n      jumpi\n        /* \"#utility.yul\":8764:8774   */\n      0x4e487b71\n        /* \"#utility.yul\":8759:8762   */\n      0xe0\n        /* \"#utility.yul\":8755:8775   */\n      shl\n        /* \"#utility.yul\":8752:8753   */\n      0x00\n        /* \"#utility.yul\":8745:8776   */\n      mstore\n        /* \"#utility.yul\":8799:8803   */\n      0x22\n        /* \"#utility.yul\":8796:8797   */\n      0x04\n        /* \"#utility.yul\":8789:8804   */\n      mstore\n        /* \"#utility.yul\":8827:8831   */\n      0x24\n        /* \"#utility.yul\":8824:8825   */\n      0x00\n        /* \"#utility.yul\":8817:8832   */\n      revert\n        /* \"#utility.yul\":8681:8842   */\n    tag_319:\n      pop\n        /* \"#utility.yul\":8468:8848   */\n      swap2\n      swap1\n      pop\n      jump\t// out\n        /* \"#utility.yul\":9682:9809   */\n    tag_94:\n        /* \"#utility.yul\":9743:9753   */\n      0x4e487b71\n        /* \"#utility.yul\":9738:9741   */\n      0xe0\n        /* \"#utility.yul\":9734:9754   */\n      shl\n        /* \"#utility.yul\":9731:9732   */\n      0x00\n        /* \"#utility.yul\":9724:9755   */\n      mstore\n        /* \"#utility.yul\":9774:9778   */\n      0x32\n        /* \"#utility.yul\":9771:9772   */\n      0x04\n        /* \"#utility.yul\":9764:9779   */\n      mstore\n        /* \"#utility.yul\":9798:9802   */\n      0x24\n        /* \"#utility.yul\":9795:9796   */\n      0x00\n        /* \"#utility.yul\":9788:9803   */\n      revert\n        /* \"#utility.yul\":9814:9941   */\n    tag_229:\n        /* \"#utility.yul\":9875:9885   */\n      0x4e487b71\n        /* \"#utility.yul\":9870:9873   */\n      0xe0\n        /* \"#utility.yul\":9866:9886   */\n      shl\n        /* \"#utility.yul\":9863:9864   */\n      0x00\n        /* \"#utility.yul\":9856:9887   */\n      mstore\n        /* \"#utility.yul\":9906:9910   */\n      0x11\n        /* \"#utility.yul\":9903:9904   */\n      0x04\n        /* \"#utility.yul\":9896:9911   */\n      mstore\n        /* \"#utility.yul\":9930:9934   */\n      0x24\n        /* \"#utility.yul\":9927:9928   */\n      0x00\n        /* \"#utility.yul\":9920:9935   */\n      revert\n        /* \"#utility.yul\":9946:10081   */\n    tag_100:\n        /* \"#utility.yul\":9985:9988   */\n      0x00\n        /* \"#utility.yul\":10006:10023   */\n      0x01\n      dup3\n      add\n        /* \"#utility.yul\":10003:10046   */\n      tag_326\n      jumpi\n        /* \"#utility.yul\":10026:10044   */\n      tag_326\n      tag_229\n      jump\t// in\n    tag_326:\n      pop\n        /* \"#utility.yul\":10073:10074   */\n      0x01\n        /* \"#utility.yul\":10062:10075   */\n      add\n      swap1\n        /* \"#utility.yul\":9946:10081   */\n      jump\t// out\n        /* \"#utility.yul\":10905:11306   */\n    tag_124:\n        /* \"#utility.yul\":11107:11109   */\n      0x20\n        /* \"#utility.yul\":11089:11110   */\n      dup1\n      dup3\n      mstore\n        /* \"#utility.yul\":11146:11148   */\n      0x25\n        /* \"#utility.yul\":11126:11144   */\n      swap1\n      dup3\n      add\n        /* \"#utility.yul\":11119:11149   */\n      mstore\n        /* \"#utility.yul\":11185:11219   */\n      0x455243313135353a207472616e7366657220746f20746865207a65726f206164\n        /* \"#utility.yul\":11180:11182   */\n      0x40\n        /* \"#utility.yul\":11165:11183   */\n      dup3\n      add\n        /* \"#utility.yul\":11158:11220   */\n      mstore\n      shl(0xd8, 0x6472657373)\n        /* \"#utility.yul\":11251:11253   */\n      0x60\n        /* \"#utility.yul\":11236:11254   */\n      dup3\n      add\n        /* \"#utility.yul\":11229:11264   */\n      mstore\n        /* \"#utility.yul\":11296:11299   */\n      0x80\n        /* \"#utility.yul\":11281:11300   */\n      add\n      swap1\n        /* \"#utility.yul\":10905:11306   */\n      jump\t// out\n        /* \"#utility.yul\":11311:11717   */\n    tag_137:\n        /* \"#utility.yul\":11513:11515   */\n      0x20\n        /* \"#utility.yul\":11495:11516   */\n      dup1\n      dup3\n      mstore\n        /* \"#utility.yul\":11552:11554   */\n      0x2a\n        /* \"#utility.yul\":11532:11550   */\n      swap1\n      dup3\n      add\n        /* \"#utility.yul\":11525:11555   */\n      mstore\n        /* \"#utility.yul\":11591:11625   */\n      0x455243313135353a20696e73756666696369656e742062616c616e636520666f\n        /* \"#utility.yul\":11586:11588   */\n      0x40\n        /* \"#utility.yul\":11571:11589   */\n      dup3\n      add\n        /* \"#utility.yul\":11564:11626   */\n      mstore\n      shl(0xb1, 0x39103a3930b739b332b9)\n        /* \"#utility.yul\":11657:11659   */\n      0x60\n        /* \"#utility.yul\":11642:11660   */\n      dup3\n      add\n        /* \"#utility.yul\":11635:11675   */\n      mstore\n        /* \"#utility.yul\":11707:11710   */\n      0x80\n        /* \"#utility.yul\":11692:11711   */\n      add\n      swap1\n        /* \"#utility.yul\":11311:11717   */\n      jump\t// out\n        /* \"#utility.yul\":11722:11850   */\n    tag_139:\n        /* \"#utility.yul\":11762:11765   */\n      0x00\n        /* \"#utility.yul\":11793:11794   */\n      dup3\n        /* \"#utility.yul\":11789:11795   */\n      not\n        /* \"#utility.yul\":11786:11787   */\n      dup3\n        /* \"#utility.yul\":11783:11796   */\n      gt\n        /* \"#utility.yul\":11780:11819   */\n      iszero\n      tag_333\n      jumpi\n        /* \"#utility.yul\":11799:11817   */\n      tag_333\n      tag_229\n      jump\t// in\n    tag_333:\n      pop\n        /* \"#utility.yul\":11835:11844   */\n      add\n      swap1\n        /* \"#utility.yul\":11722:11850   */\n      jump\t// out\n        /* \"#utility.yul\":11855:12320   */\n    tag_142:\n        /* \"#utility.yul\":12112:12114   */\n      0x40\n        /* \"#utility.yul\":12101:12110   */\n      dup2\n        /* \"#utility.yul\":12094:12115   */\n      mstore\n        /* \"#utility.yul\":12075:12079   */\n      0x00\n        /* \"#utility.yul\":12138:12194   */\n      tag_335\n        /* \"#utility.yul\":12190:12192   */\n      0x40\n        /* \"#utility.yul\":12179:12188   */\n      dup4\n        /* \"#utility.yul\":12175:12193   */\n      add\n        /* \"#utility.yul\":12167:12173   */\n      dup6\n        /* \"#utility.yul\":12138:12194   */\n      tag_228\n      jump\t// in\n    tag_335:\n        /* \"#utility.yul\":12242:12251   */\n      dup3\n        /* \"#utility.yul\":12234:12240   */\n      dup2\n        /* \"#utility.yul\":12230:12252   */\n      sub\n        /* \"#utility.yul\":12225:12227   */\n      0x20\n        /* \"#utility.yul\":12214:12223   */\n      dup5\n        /* \"#utility.yul\":12210:12228   */\n      add\n        /* \"#utility.yul\":12203:12253   */\n      mstore\n        /* \"#utility.yul\":12270:12314   */\n      tag_336\n        /* \"#utility.yul\":12307:12313   */\n      dup2\n        /* \"#utility.yul\":12299:12305   */\n      dup6\n        /* \"#utility.yul\":12270:12314   */\n      tag_228\n      jump\t// in\n    tag_336:\n        /* \"#utility.yul\":12262:12314   */\n      swap6\n        /* \"#utility.yul\":11855:12320   */\n      swap5\n      pop\n      pop\n      pop\n      pop\n      pop\n      jump\t// out\n        /* \"#utility.yul\":12988:13815   */\n    tag_175:\n      sub(shl(0xa0, 0x01), 0x01)\n        /* \"#utility.yul\":13385:13400   */\n      dup7\n      dup2\n      and\n        /* \"#utility.yul\":13367:13401   */\n      dup3\n      mstore\n        /* \"#utility.yul\":13437:13452   */\n      dup6\n      and\n        /* \"#utility.yul\":13432:13434   */\n      0x20\n        /* \"#utility.yul\":13417:13435   */\n      dup3\n      add\n        /* \"#utility.yul\":13410:13453   */\n      mstore\n        /* \"#utility.yul\":13347:13350   */\n      0xa0\n        /* \"#utility.yul\":13484:13486   */\n      0x40\n        /* \"#utility.yul\":13469:13487   */\n      dup3\n      add\n        /* \"#utility.yul\":13462:13493   */\n      dup2\n      swap1\n      mstore\n        /* \"#utility.yul\":13310:13314   */\n      0x00\n      swap1\n        /* \"#utility.yul\":13516:13573   */\n      tag_340\n      swap1\n        /* \"#utility.yul\":13553:13572   */\n      dup4\n      add\n        /* \"#utility.yul\":13545:13551   */\n      dup7\n        /* \"#utility.yul\":13516:13573   */\n      tag_228\n      jump\t// in\n    tag_340:\n        /* \"#utility.yul\":13621:13630   */\n      dup3\n        /* \"#utility.yul\":13613:13619   */\n      dup2\n        /* \"#utility.yul\":13609:13631   */\n      sub\n        /* \"#utility.yul\":13604:13606   */\n      0x60\n        /* \"#utility.yul\":13593:13602   */\n      dup5\n        /* \"#utility.yul\":13589:13607   */\n      add\n        /* \"#utility.yul\":13582:13632   */\n      mstore\n        /* \"#utility.yul\":13655:13699   */\n      tag_341\n        /* \"#utility.yul\":13692:13698   */\n      dup2\n        /* \"#utility.yul\":13684:13690   */\n      dup7\n        /* \"#utility.yul\":13655:13699   */\n      tag_228\n      jump\t// in\n    tag_341:\n        /* \"#utility.yul\":13641:13699   */\n      swap1\n      pop\n        /* \"#utility.yul\":13748:13757   */\n      dup3\n        /* \"#utility.yul\":13740:13746   */\n      dup2\n        /* \"#utility.yul\":13736:13758   */\n      sub\n        /* \"#utility.yul\":13730:13733   */\n      0x80\n        /* \"#utility.yul\":13719:13728   */\n      dup5\n        /* \"#utility.yul\":13715:13734   */\n      add\n        /* \"#utility.yul\":13708:13759   */\n      mstore\n        /* \"#utility.yul\":13776:13809   */\n      tag_342\n        /* \"#utility.yul\":13802:13808   */\n      dup2\n        /* \"#utility.yul\":13794:13800   */\n      dup6\n        /* \"#utility.yul\":13776:13809   */\n      tag_223\n      jump\t// in\n    tag_342:\n        /* \"#utility.yul\":13768:13809   */\n      swap9\n        /* \"#utility.yul\":12988:13815   */\n      swap8\n      pop\n      pop\n      pop\n      pop\n      pop\n      pop\n      pop\n      pop\n      jump\t// out\n        /* \"#utility.yul\":13820:14069   */\n    tag_178:\n        /* \"#utility.yul\":13889:13895   */\n      0x00\n        /* \"#utility.yul\":13942:13944   */\n      0x20\n        /* \"#utility.yul\":13930:13939   */\n      dup3\n        /* \"#utility.yul\":13921:13928   */\n      dup5\n        /* \"#utility.yul\":13917:13940   */\n      sub\n        /* \"#utility.yul\":13913:13945   */\n      slt\n        /* \"#utility.yul\":13910:13962   */\n      iszero\n      tag_344\n      jumpi\n        /* \"#utility.yul\":13958:13959   */\n      0x00\n        /* \"#utility.yul\":13955:13956   */\n      dup1\n        /* \"#utility.yul\":13948:13960   */\n      revert\n        /* \"#utility.yul\":13910:13962   */\n    tag_344:\n        /* \"#utility.yul\":13990:13999   */\n      dup2\n        /* \"#utility.yul\":13984:14000   */\n      mload\n        /* \"#utility.yul\":14009:14039   */\n      tag_241\n        /* \"#utility.yul\":14033:14038   */\n      dup2\n        /* \"#utility.yul\":14009:14039   */\n      tag_222\n      jump\t// in\n        /* \"#utility.yul\":14074:14253   */\n    tag_184:\n        /* \"#utility.yul\":14109:14112   */\n      0x00\n        /* \"#utility.yul\":14151:14152   */\n      0x03\n        /* \"#utility.yul\":14133:14149   */\n      returndatasize\n        /* \"#utility.yul\":14130:14153   */\n      gt\n        /* \"#utility.yul\":14127:14247   */\n      iszero\n      tag_347\n      jumpi\n        /* \"#utility.yul\":14197:14198   */\n      0x04\n        /* \"#utility.yul\":14194:14195   */\n      0x00\n        /* \"#utility.yul\":14191:14192   */\n      dup1\n        /* \"#utility.yul\":14176:14199   */\n      returndatacopy\n      pop\n        /* \"#utility.yul\":14234:14235   */\n      0x00\n        /* \"#utility.yul\":14228:14236   */\n      mload\n        /* \"#utility.yul\":14223:14226   */\n      0xe0\n        /* \"#utility.yul\":14219:14237   */\n      shr\n        /* \"#utility.yul\":14127:14247   */\n    tag_347:\n        /* \"#utility.yul\":14074:14253   */\n      swap1\n      jump\t// out\n        /* \"#utility.yul\":14258:14929   */\n    tag_186:\n        /* \"#utility.yul\":14297:14300   */\n      0x00\n        /* \"#utility.yul\":14339:14343   */\n      0x44\n        /* \"#utility.yul\":14321:14337   */\n      returndatasize\n        /* \"#utility.yul\":14318:14344   */\n      lt\n        /* \"#utility.yul\":14315:14354   */\n      iszero\n      tag_349\n      jumpi\n        /* \"#utility.yul\":14258:14929   */\n      swap1\n      jump\t// out\n        /* \"#utility.yul\":14315:14354   */\n    tag_349:\n        /* \"#utility.yul\":14381:14383   */\n      0x40\n        /* \"#utility.yul\":14375:14384   */\n      mload\n      not(0x03)\n        /* \"#utility.yul\":14446:14462   */\n      returndatasize\n        /* \"#utility.yul\":14442:14467   */\n      dup2\n      add\n        /* \"#utility.yul\":14439:14440   */\n      0x04\n        /* \"#utility.yul\":14375:14384   */\n      dup4\n        /* \"#utility.yul\":14418:14468   */\n      returndatacopy\n        /* \"#utility.yul\":14497:14501   */\n      dup2\n        /* \"#utility.yul\":14491:14502   */\n      mload\n        /* \"#utility.yul\":14521:14537   */\n      returndatasize\n        /* \"#utility.yul\":14556:14574   */\n      0xffffffffffffffff\n        /* \"#utility.yul\":14627:14629   */\n      dup2\n        /* \"#utility.yul\":14620:14624   */\n      0x24\n        /* \"#utility.yul\":14612:14618   */\n      dup5\n        /* \"#utility.yul\":14608:14625   */\n      add\n        /* \"#utility.yul\":14605:14630   */\n      gt\n        /* \"#utility.yul\":14600:14602   */\n      dup2\n        /* \"#utility.yul\":14592:14598   */\n      dup5\n        /* \"#utility.yul\":14589:14603   */\n      gt\n        /* \"#utility.yul\":14586:14631   */\n      or\n        /* \"#utility.yul\":14583:14641   */\n      iszero\n      tag_350\n      jumpi\n        /* \"#utility.yul\":14634:14639   */\n      pop\n      pop\n      pop\n      pop\n      pop\n        /* \"#utility.yul\":14258:14929   */\n      swap1\n      jump\t// out\n        /* \"#utility.yul\":14583:14641   */\n    tag_350:\n        /* \"#utility.yul\":14671:14677   */\n      dup3\n        /* \"#utility.yul\":14665:14669   */\n      dup6\n        /* \"#utility.yul\":14661:14678   */\n      add\n        /* \"#utility.yul\":14650:14678   */\n      swap2\n      pop\n        /* \"#utility.yul\":14707:14710   */\n      dup2\n        /* \"#utility.yul\":14701:14711   */\n      mload\n        /* \"#utility.yul\":14734:14736   */\n      dup2\n        /* \"#utility.yul\":14726:14732   */\n      dup2\n        /* \"#utility.yul\":14723:14737   */\n      gt\n        /* \"#utility.yul\":14720:14747   */\n      iszero\n      tag_351\n      jumpi\n        /* \"#utility.yul\":14740:14745   */\n      pop\n      pop\n      pop\n      pop\n      pop\n      pop\n        /* \"#utility.yul\":14258:14929   */\n      swap1\n      jump\t// out\n        /* \"#utility.yul\":14720:14747   */\n    tag_351:\n        /* \"#utility.yul\":14824:14826   */\n      dup5\n        /* \"#utility.yul\":14805:14821   */\n      returndatasize\n        /* \"#utility.yul\":14799:14803   */\n      dup8\n        /* \"#utility.yul\":14795:14822   */\n      add\n        /* \"#utility.yul\":14791:14827   */\n      add\n        /* \"#utility.yul\":14784:14788   */\n      0x20\n        /* \"#utility.yul\":14775:14781   */\n      dup3\n        /* \"#utility.yul\":14770:14773   */\n      dup6\n        /* \"#utility.yul\":14766:14782   */\n      add\n        /* \"#utility.yul\":14762:14789   */\n      add\n        /* \"#utility.yul\":14759:14828   */\n      gt\n        /* \"#utility.yul\":14756:14838   */\n      iszero\n      tag_352\n      jumpi\n        /* \"#utility.yul\":14831:14836   */\n      pop\n      pop\n      pop\n      pop\n      pop\n      pop\n        /* \"#utility.yul\":14258:14929   */\n      swap1\n      jump\t// out\n        /* \"#utility.yul\":14756:14838   */\n    tag_352:\n        /* \"#utility.yul\":14847:14904   */\n      tag_353\n        /* \"#utility.yul\":14898:14902   */\n      0x20\n        /* \"#utility.yul\":14889:14895   */\n      dup3\n        /* \"#utility.yul\":14881:14887   */\n      dup7\n        /* \"#utility.yul\":14877:14896   */\n      add\n        /* \"#utility.yul\":14873:14903   */\n      add\n        /* \"#utility.yul\":14867:14871   */\n      dup8\n        /* \"#utility.yul\":14847:14904   */\n      tag_224\n      jump\t// in\n    tag_353:\n      pop\n        /* \"#utility.yul\":14920:14923   */\n      swap1\n      swap6\n        /* \"#utility.yul\":14258:14929   */\n      swap5\n      pop\n      pop\n      pop\n      pop\n      pop\n      jump\t// out\n        /* \"#utility.yul\":15355:15759   */\n    tag_194:\n        /* \"#utility.yul\":15557:15559   */\n      0x20\n        /* \"#utility.yul\":15539:15560   */\n      dup1\n      dup3\n      mstore\n        /* \"#utility.yul\":15596:15598   */\n      0x28\n        /* \"#utility.yul\":15576:15594   */\n      swap1\n      dup3\n      add\n        /* \"#utility.yul\":15569:15599   */\n      mstore\n        /* \"#utility.yul\":15635:15669   */\n      0x455243313135353a204552433131353552656365697665722072656a65637465\n        /* \"#utility.yul\":15630:15632   */\n      0x40\n        /* \"#utility.yul\":15615:15633   */\n      dup3\n      add\n        /* \"#utility.yul\":15608:15670   */\n      mstore\n      shl(0xc0, 0x6420746f6b656e73)\n        /* \"#utility.yul\":15701:15703   */\n      0x60\n        /* \"#utility.yul\":15686:15704   */\n      dup3\n      add\n        /* \"#utility.yul\":15679:15717   */\n      mstore\n        /* \"#utility.yul\":15749:15752   */\n      0x80\n        /* \"#utility.yul\":15734:15753   */\n      add\n      swap1\n        /* \"#utility.yul\":15355:15759   */\n      jump\t// out\n        /* \"#utility.yul\":15764:16325   */\n    tag_205:\n      sub(shl(0xa0, 0x01), 0x01)\n        /* \"#utility.yul\":16061:16076   */\n      dup7\n      dup2\n      and\n        /* \"#utility.yul\":16043:16077   */\n      dup3\n      mstore\n        /* \"#utility.yul\":16113:16128   */\n      dup6\n      and\n        /* \"#utility.yul\":16108:16110   */\n      0x20\n        /* \"#utility.yul\":16093:16111   */\n      dup3\n      add\n        /* \"#utility.yul\":16086:16129   */\n      mstore\n        /* \"#utility.yul\":16160:16162   */\n      0x40\n        /* \"#utility.yul\":16145:16163   */\n      dup2\n      add\n        /* \"#utility.yul\":16138:16172   */\n      dup5\n      swap1\n      mstore\n        /* \"#utility.yul\":16203:16205   */\n      0x60\n        /* \"#utility.yul\":16188:16206   */\n      dup2\n      add\n        /* \"#utility.yul\":16181:16215   */\n      dup4\n      swap1\n      mstore\n        /* \"#utility.yul\":16023:16026   */\n      0xa0\n        /* \"#utility.yul\":16246:16249   */\n      0x80\n        /* \"#utility.yul\":16231:16250   */\n      dup3\n      add\n        /* \"#utility.yul\":16224:16256   */\n      dup2\n      swap1\n      mstore\n        /* \"#utility.yul\":15986:15990   */\n      0x00\n      swap1\n        /* \"#utility.yul\":16273:16319   */\n      tag_357\n      swap1\n        /* \"#utility.yul\":16299:16318   */\n      dup4\n      add\n        /* \"#utility.yul\":16291:16297   */\n      dup5\n        /* \"#utility.yul\":16273:16319   */\n      tag_223\n      jump\t// in\n    tag_357:\n        /* \"#utility.yul\":16265:16319   */\n      swap8\n        /* \"#utility.yul\":15764:16325   */\n      swap7\n      pop\n      pop\n      pop\n      pop\n      pop\n      pop\n      pop\n      jump\t// out\n\n    auxdata: 0xa264697066735822122015c17f8c735ee47ac181c159583274b3f4818ff013ff72a0f9128d7e14fb9aea64736f6c634300080d0033\n}\n",
				"bytecode": {
					"linkReferences": {},
					"object": "60806040523480156200001157600080fd5b506040516200160b3803806200160b83398101604081905262000034916200011b565b6200003f8162000046565b5062000233565b80516200005b9060029060208401906200005f565b5050565b8280546200006d90620001f7565b90600052602060002090601f016020900481019282620000915760008555620000dc565b82601f10620000ac57805160ff1916838001178555620000dc565b82800160010185558215620000dc579182015b82811115620000dc578251825591602001919060010190620000bf565b50620000ea929150620000ee565b5090565b5b80821115620000ea5760008155600101620000ef565b634e487b7160e01b600052604160045260246000fd5b600060208083850312156200012f57600080fd5b82516001600160401b03808211156200014757600080fd5b818501915085601f8301126200015c57600080fd5b81518181111562000171576200017162000105565b604051601f8201601f19908116603f011681019083821181831017156200019c576200019c62000105565b816040528281528886848701011115620001b557600080fd5b600093505b82841015620001d95784840186015181850187015292850192620001ba565b82841115620001eb5760008684830101525b98975050505050505050565b600181811c908216806200020c57607f821691505b6020821081036200022d57634e487b7160e01b600052602260045260246000fd5b50919050565b6113c880620002436000396000f3fe608060405234801561001057600080fd5b50600436106100875760003560e01c80634e1273f41161005b5780634e1273f41461010a578063a22cb4651461012a578063e985e9c51461013d578063f242432a1461017957600080fd5b8062fdd58e1461008c57806301ffc9a7146100b25780630e89341c146100d55780632eb2c2d6146100f5575b600080fd5b61009f61009a366004610bcd565b61018c565b6040519081526020015b60405180910390f35b6100c56100c0366004610c10565b610223565b60405190151581526020016100a9565b6100e86100e3366004610c34565b610275565b6040516100a99190610c9a565b610108610103366004610df9565b610309565b005b61011d610118366004610ea3565b6103a0565b6040516100a99190610fa9565b610108610138366004610fbc565b6104ca565b6100c561014b366004610ff8565b6001600160a01b03918216600090815260016020908152604080832093909416825291909152205460ff1690565b61010861018736600461102b565b6104d9565b60006001600160a01b0383166101fd5760405162461bcd60e51b815260206004820152602b60248201527f455243313135353a2062616c616e636520717565727920666f7220746865207a60448201526a65726f206164647265737360a81b60648201526084015b60405180910390fd5b506000908152602081815260408083206001600160a01b03949094168352929052205490565b60006001600160e01b03198216636cdb3d1360e11b148061025457506001600160e01b031982166303a24d0760e21b145b8061026f57506301ffc9a760e01b6001600160e01b03198316145b92915050565b60606002805461028490611090565b80601f01602080910402602001604051908101604052809291908181526020018280546102b090611090565b80156102fd5780601f106102d2576101008083540402835291602001916102fd565b820191906000526020600020905b8154815290600101906020018083116102e057829003601f168201915b50505050509050919050565b6001600160a01b0385163314806103255750610325853361014b565b61038c5760405162461bcd60e51b815260206004820152603260248201527f455243313135353a207472616e736665722063616c6c6572206973206e6f74206044820152711bdddb995c881b9bdc88185c1c1c9bdd995960721b60648201526084016101f4565b6103998585858585610560565b5050505050565b606081518351146104055760405162461bcd60e51b815260206004820152602960248201527f455243313135353a206163636f756e747320616e6420696473206c656e677468604482015268040dad2e6dac2e8c6d60bb1b60648201526084016101f4565b6000835167ffffffffffffffff81111561042157610421610cad565b60405190808252806020026020018201604052801561044a578160200160208202803683370190505b50905060005b84518110156104c25761049585828151811061046e5761046e6110ca565b6020026020010151858381518110610488576104886110ca565b602002602001015161018c565b8282815181106104a7576104a76110ca565b60209081029190910101526104bb816110f6565b9050610450565b509392505050565b6104d533838361073d565b5050565b6001600160a01b0385163314806104f557506104f5853361014b565b6105535760405162461bcd60e51b815260206004820152602960248201527f455243313135353a2063616c6c6572206973206e6f74206f776e6572206e6f7260448201526808185c1c1c9bdd995960ba1b60648201526084016101f4565b610399858585858561081d565b81518351146105c25760405162461bcd60e51b815260206004820152602860248201527f455243313135353a2069647320616e6420616d6f756e7473206c656e677468206044820152670dad2e6dac2e8c6d60c31b60648201526084016101f4565b6001600160a01b0384166105e85760405162461bcd60e51b81526004016101f49061110f565b3360005b84518110156106cf576000858281518110610609576106096110ca565b602002602001015190506000858381518110610627576106276110ca565b602090810291909101810151600084815280835260408082206001600160a01b038e1683529093529190912054909150818110156106775760405162461bcd60e51b81526004016101f490611154565b6000838152602081815260408083206001600160a01b038e8116855292528083208585039055908b168252812080548492906106b490849061119e565b92505081905550505050806106c8906110f6565b90506105ec565b50846001600160a01b0316866001600160a01b0316826001600160a01b03167f4a39dc06d4c0dbc64b70af90fd698a233a518aa5d07e595d983b8c0526c8f7fb878760405161071f9291906111b6565b60405180910390a4610735818787878787610947565b505050505050565b816001600160a01b0316836001600160a01b0316036107b05760405162461bcd60e51b815260206004820152602960248201527f455243313135353a2073657474696e6720617070726f76616c20737461747573604482015268103337b91039b2b63360b91b60648201526084016101f4565b6001600160a01b03838116600081815260016020908152604080832094871680845294825291829020805460ff191686151590811790915591519182527f17307eab39ab6107e8899845ad3d59bd9653f200f220920489ca2b5937696c31910160405180910390a3505050565b6001600160a01b0384166108435760405162461bcd60e51b81526004016101f49061110f565b33600061084f85610aab565b9050600061085c85610aab565b90506000868152602081815260408083206001600160a01b038c1684529091529020548581101561089f5760405162461bcd60e51b81526004016101f490611154565b6000878152602081815260408083206001600160a01b038d8116855292528083208985039055908a168252812080548892906108dc90849061119e565b909155505060408051888152602081018890526001600160a01b03808b16928c821692918816917fc3d58168c5ae7397731d063d5bbf3d657854427343f4c083240f7aacaa2d0f62910160405180910390a461093c848a8a8a8a8a610af6565b505050505050505050565b6001600160a01b0384163b156107355760405163bc197c8160e01b81526001600160a01b0385169063bc197c819061098b90899089908890889088906004016111e4565b6020604051808303816000875af19250505080156109c6575060408051601f3d908101601f191682019092526109c391810190611242565b60015b610a72576109d261125f565b806308c379a003610a0b57506109e661127b565b806109f15750610a0d565b8060405162461bcd60e51b81526004016101f49190610c9a565b505b60405162461bcd60e51b815260206004820152603460248201527f455243313135353a207472616e7366657220746f206e6f6e20455243313135356044820152732932b1b2b4bb32b91034b6b83632b6b2b73a32b960611b60648201526084016101f4565b6001600160e01b0319811663bc197c8160e01b14610aa25760405162461bcd60e51b81526004016101f490611305565b50505050505050565b60408051600180825281830190925260609160009190602080830190803683370190505090508281600081518110610ae557610ae56110ca565b602090810291909101015292915050565b6001600160a01b0384163b156107355760405163f23a6e6160e01b81526001600160a01b0385169063f23a6e6190610b3a908990899088908890889060040161134d565b6020604051808303816000875af1925050508015610b75575060408051601f3d908101601f19168201909252610b7291810190611242565b60015b610b81576109d261125f565b6001600160e01b0319811663f23a6e6160e01b14610aa25760405162461bcd60e51b81526004016101f490611305565b80356001600160a01b0381168114610bc857600080fd5b919050565b60008060408385031215610be057600080fd5b610be983610bb1565b946020939093013593505050565b6001600160e01b031981168114610c0d57600080fd5b50565b600060208284031215610c2257600080fd5b8135610c2d81610bf7565b9392505050565b600060208284031215610c4657600080fd5b5035919050565b6000815180845260005b81811015610c7357602081850181015186830182015201610c57565b81811115610c85576000602083870101525b50601f01601f19169290920160200192915050565b602081526000610c2d6020830184610c4d565b634e487b7160e01b600052604160045260246000fd5b601f8201601f1916810167ffffffffffffffff81118282101715610ce957610ce9610cad565b6040525050565b600067ffffffffffffffff821115610d0a57610d0a610cad565b5060051b60200190565b600082601f830112610d2557600080fd5b81356020610d3282610cf0565b604051610d3f8282610cc3565b83815260059390931b8501820192828101915086841115610d5f57600080fd5b8286015b84811015610d7a5780358352918301918301610d63565b509695505050505050565b600082601f830112610d9657600080fd5b813567ffffffffffffffff811115610db057610db0610cad565b604051610dc7601f8301601f191660200182610cc3565b818152846020838601011115610ddc57600080fd5b816020850160208301376000918101602001919091529392505050565b600080600080600060a08688031215610e1157600080fd5b610e1a86610bb1565b9450610e2860208701610bb1565b9350604086013567ffffffffffffffff80821115610e4557600080fd5b610e5189838a01610d14565b94506060880135915080821115610e6757600080fd5b610e7389838a01610d14565b93506080880135915080821115610e8957600080fd5b50610e9688828901610d85565b9150509295509295909350565b60008060408385031215610eb657600080fd5b823567ffffffffffffffff80821115610ece57600080fd5b818501915085601f830112610ee257600080fd5b81356020610eef82610cf0565b604051610efc8282610cc3565b83815260059390931b8501820192828101915089841115610f1c57600080fd5b948201945b83861015610f4157610f3286610bb1565b82529482019490820190610f21565b96505086013592505080821115610f5757600080fd5b50610f6485828601610d14565b9150509250929050565b600081518084526020808501945080840160005b83811015610f9e57815187529582019590820190600101610f82565b509495945050505050565b602081526000610c2d6020830184610f6e565b60008060408385031215610fcf57600080fd5b610fd883610bb1565b915060208301358015158114610fed57600080fd5b809150509250929050565b6000806040838503121561100b57600080fd5b61101483610bb1565b915061102260208401610bb1565b90509250929050565b600080600080600060a0868803121561104357600080fd5b61104c86610bb1565b945061105a60208701610bb1565b93506040860135925060608601359150608086013567ffffffffffffffff81111561108457600080fd5b610e9688828901610d85565b600181811c908216806110a457607f821691505b6020821081036110c457634e487b7160e01b600052602260045260246000fd5b50919050565b634e487b7160e01b600052603260045260246000fd5b634e487b7160e01b600052601160045260246000fd5b600060018201611108576111086110e0565b5060010190565b60208082526025908201527f455243313135353a207472616e7366657220746f20746865207a65726f206164604082015264647265737360d81b606082015260800190565b6020808252602a908201527f455243313135353a20696e73756666696369656e742062616c616e636520666f60408201526939103a3930b739b332b960b11b606082015260800190565b600082198211156111b1576111b16110e0565b500190565b6040815260006111c96040830185610f6e565b82810360208401526111db8185610f6e565b95945050505050565b6001600160a01b0386811682528516602082015260a06040820181905260009061121090830186610f6e565b82810360608401526112228186610f6e565b905082810360808401526112368185610c4d565b98975050505050505050565b60006020828403121561125457600080fd5b8151610c2d81610bf7565b600060033d11156112785760046000803e5060005160e01c5b90565b600060443d10156112895790565b6040516003193d81016004833e81513d67ffffffffffffffff81602484011181841117156112b957505050505090565b82850191508151818111156112d15750505050505090565b843d87010160208285010111156112eb5750505050505090565b6112fa60208286010187610cc3565b509095945050505050565b60208082526028908201527f455243313135353a204552433131353552656365697665722072656a656374656040820152676420746f6b656e7360c01b606082015260800190565b6001600160a01b03868116825285166020820152604081018490526060810183905260a06080820181905260009061138790830184610c4d565b97965050505050505056fea264697066735822122015c17f8c735ee47ac181c159583274b3f4818ff013ff72a0f9128d7e14fb9aea64736f6c634300080d0033",
					"opcodes": "PUSH1 0x80 PUSH1 0x40 MSTORE CALLVALUE DUP1 ISZERO PUSH3 0x11 JUMPI PUSH1 0x0 DUP1 REVERT JUMPDEST POP PUSH1 0x40 MLOAD PUSH3 0x160B CODESIZE SUB DUP1 PUSH3 0x160B DUP4 CODECOPY DUP2 ADD PUSH1 0x40 DUP2 SWAP1 MSTORE PUSH3 0x34 SWAP2 PUSH3 0x11B JUMP JUMPDEST PUSH3 0x3F DUP2 PUSH3 0x46 JUMP JUMPDEST POP PUSH3 0x233 JUMP JUMPDEST DUP1 MLOAD PUSH3 0x5B SWAP1 PUSH1 0x2 SWAP1 PUSH1 0x20 DUP5 ADD SWAP1 PUSH3 0x5F JUMP JUMPDEST POP POP JUMP JUMPDEST DUP3 DUP1 SLOAD PUSH3 0x6D SWAP1 PUSH3 0x1F7 JUMP JUMPDEST SWAP1 PUSH1 0x0 MSTORE PUSH1 0x20 PUSH1 0x0 KECCAK256 SWAP1 PUSH1 0x1F ADD PUSH1 0x20 SWAP1 DIV DUP2 ADD SWAP3 DUP3 PUSH3 0x91 JUMPI PUSH1 0x0 DUP6 SSTORE PUSH3 0xDC JUMP JUMPDEST DUP3 PUSH1 0x1F LT PUSH3 0xAC JUMPI DUP1 MLOAD PUSH1 0xFF NOT AND DUP4 DUP1 ADD OR DUP6 SSTORE PUSH3 0xDC JUMP JUMPDEST DUP3 DUP1 ADD PUSH1 0x1 ADD DUP6 SSTORE DUP3 ISZERO PUSH3 0xDC JUMPI SWAP2 DUP3 ADD JUMPDEST DUP3 DUP2 GT ISZERO PUSH3 0xDC JUMPI DUP3 MLOAD DUP3 SSTORE SWAP2 PUSH1 0x20 ADD SWAP2 SWAP1 PUSH1 0x1 ADD SWAP1 PUSH3 0xBF JUMP JUMPDEST POP PUSH3 0xEA SWAP3 SWAP2 POP PUSH3 0xEE JUMP JUMPDEST POP SWAP1 JUMP JUMPDEST JUMPDEST DUP1 DUP3 GT ISZERO PUSH3 0xEA JUMPI PUSH1 0x0 DUP2 SSTORE PUSH1 0x1 ADD PUSH3 0xEF JUMP JUMPDEST PUSH4 0x4E487B71 PUSH1 0xE0 SHL PUSH1 0x0 MSTORE PUSH1 0x41 PUSH1 0x4 MSTORE PUSH1 0x24 PUSH1 0x0 REVERT JUMPDEST PUSH1 0x0 PUSH1 0x20 DUP1 DUP4 DUP6 SUB SLT ISZERO PUSH3 0x12F JUMPI PUSH1 0x0 DUP1 REVERT JUMPDEST DUP3 MLOAD PUSH1 0x1 PUSH1 0x1 PUSH1 0x40 SHL SUB DUP1 DUP3 GT ISZERO PUSH3 0x147 JUMPI PUSH1 0x0 DUP1 REVERT JUMPDEST DUP2 DUP6 ADD SWAP2 POP DUP6 PUSH1 0x1F DUP4 ADD SLT PUSH3 0x15C JUMPI PUSH1 0x0 DUP1 REVERT JUMPDEST DUP2 MLOAD DUP2 DUP2 GT ISZERO PUSH3 0x171 JUMPI PUSH3 0x171 PUSH3 0x105 JUMP JUMPDEST PUSH1 0x40 MLOAD PUSH1 0x1F DUP3 ADD PUSH1 0x1F NOT SWAP1 DUP2 AND PUSH1 0x3F ADD AND DUP2 ADD SWAP1 DUP4 DUP3 GT DUP2 DUP4 LT OR ISZERO PUSH3 0x19C JUMPI PUSH3 0x19C PUSH3 0x105 JUMP JUMPDEST DUP2 PUSH1 0x40 MSTORE DUP3 DUP2 MSTORE DUP9 DUP7 DUP5 DUP8 ADD ADD GT ISZERO PUSH3 0x1B5 JUMPI PUSH1 0x0 DUP1 REVERT JUMPDEST PUSH1 0x0 SWAP4 POP JUMPDEST DUP3 DUP5 LT ISZERO PUSH3 0x1D9 JUMPI DUP5 DUP5 ADD DUP7 ADD MLOAD DUP2 DUP6 ADD DUP8 ADD MSTORE SWAP3 DUP6 ADD SWAP3 PUSH3 0x1BA JUMP JUMPDEST DUP3 DUP5 GT ISZERO PUSH3 0x1EB JUMPI PUSH1 0x0 DUP7 DUP5 DUP4 ADD ADD MSTORE JUMPDEST SWAP9 SWAP8 POP POP POP POP POP POP POP POP JUMP JUMPDEST PUSH1 0x1 DUP2 DUP2 SHR SWAP1 DUP3 AND DUP1 PUSH3 0x20C JUMPI PUSH1 0x7F DUP3 AND SWAP2 POP JUMPDEST PUSH1 0x20 DUP3 LT DUP2 SUB PUSH3 0x22D JUMPI PUSH4 0x4E487B71 PUSH1 0xE0 SHL PUSH1 0x0 MSTORE PUSH1 0x22 PUSH1 0x4 MSTORE PUSH1 0x24 PUSH1 0x0 REVERT JUMPDEST POP SWAP2 SWAP1 POP JUMP JUMPDEST PUSH2 0x13C8 DUP1 PUSH3 0x243 PUSH1 0x0 CODECOPY PUSH1 0x0 RETURN INVALID PUSH1 0x80 PUSH1 0x40 MSTORE CALLVALUE DUP1 ISZERO PUSH2 0x10 JUMPI PUSH1 0x0 DUP1 REVERT JUMPDEST POP PUSH1 0x4 CALLDATASIZE LT PUSH2 0x87 JUMPI PUSH1 0x0 CALLDATALOAD PUSH1 0xE0 SHR DUP1 PUSH4 0x4E1273F4 GT PUSH2 0x5B JUMPI DUP1 PUSH4 0x4E1273F4 EQ PUSH2 0x10A JUMPI DUP1 PUSH4 0xA22CB465 EQ PUSH2 0x12A JUMPI DUP1 PUSH4 0xE985E9C5 EQ PUSH2 0x13D JUMPI DUP1 PUSH4 0xF242432A EQ PUSH2 0x179 JUMPI PUSH1 0x0 DUP1 REVERT JUMPDEST DUP1 PUSH3 0xFDD58E EQ PUSH2 0x8C JUMPI DUP1 PUSH4 0x1FFC9A7 EQ PUSH2 0xB2 JUMPI DUP1 PUSH4 0xE89341C EQ PUSH2 0xD5 JUMPI DUP1 PUSH4 0x2EB2C2D6 EQ PUSH2 0xF5 JUMPI JUMPDEST PUSH1 0x0 DUP1 REVERT JUMPDEST PUSH2 0x9F PUSH2 0x9A CALLDATASIZE PUSH1 0x4 PUSH2 0xBCD JUMP JUMPDEST PUSH2 0x18C JUMP JUMPDEST PUSH1 0x40 MLOAD SWAP1 DUP2 MSTORE PUSH1 0x20 ADD JUMPDEST PUSH1 0x40 MLOAD DUP1 SWAP2 SUB SWAP1 RETURN JUMPDEST PUSH2 0xC5 PUSH2 0xC0 CALLDATASIZE PUSH1 0x4 PUSH2 0xC10 JUMP JUMPDEST PUSH2 0x223 JUMP JUMPDEST PUSH1 0x40 MLOAD SWAP1 ISZERO ISZERO DUP2 MSTORE PUSH1 0x20 ADD PUSH2 0xA9 JUMP JUMPDEST PUSH2 0xE8 PUSH2 0xE3 CALLDATASIZE PUSH1 0x4 PUSH2 0xC34 JUMP JUMPDEST PUSH2 0x275 JUMP JUMPDEST PUSH1 0x40 MLOAD PUSH2 0xA9 SWAP2 SWAP1 PUSH2 0xC9A JUMP JUMPDEST PUSH2 0x108 PUSH2 0x103 CALLDATASIZE PUSH1 0x4 PUSH2 0xDF9 JUMP JUMPDEST PUSH2 0x309 JUMP JUMPDEST STOP JUMPDEST PUSH2 0x11D PUSH2 0x118 CALLDATASIZE PUSH1 0x4 PUSH2 0xEA3 JUMP JUMPDEST PUSH2 0x3A0 JUMP JUMPDEST PUSH1 0x40 MLOAD PUSH2 0xA9 SWAP2 SWAP1 PUSH2 0xFA9 JUMP JUMPDEST PUSH2 0x108 PUSH2 0x138 CALLDATASIZE PUSH1 0x4 PUSH2 0xFBC JUMP JUMPDEST PUSH2 0x4CA JUMP JUMPDEST PUSH2 0xC5 PUSH2 0x14B CALLDATASIZE PUSH1 0x4 PUSH2 0xFF8 JUMP JUMPDEST PUSH1 0x1 PUSH1 0x1 PUSH1 0xA0 SHL SUB SWAP2 DUP3 AND PUSH1 0x0 SWAP1 DUP2 MSTORE PUSH1 0x1 PUSH1 0x20 SWAP1 DUP2 MSTORE PUSH1 0x40 DUP1 DUP4 KECCAK256 SWAP4 SWAP1 SWAP5 AND DUP3 MSTORE SWAP2 SWAP1 SWAP2 MSTORE KECCAK256 SLOAD PUSH1 0xFF AND SWAP1 JUMP JUMPDEST PUSH2 0x108 PUSH2 0x187 CALLDATASIZE PUSH1 0x4 PUSH2 0x102B JUMP JUMPDEST PUSH2 0x4D9 JUMP JUMPDEST PUSH1 0x0 PUSH1 0x1 PUSH1 0x1 PUSH1 0xA0 SHL SUB DUP4 AND PUSH2 0x1FD JUMPI PUSH1 0x40 MLOAD PUSH3 0x461BCD PUSH1 0xE5 SHL DUP2 MSTORE PUSH1 0x20 PUSH1 0x4 DUP3 ADD MSTORE PUSH1 0x2B PUSH1 0x24 DUP3 ADD MSTORE PUSH32 0x455243313135353A2062616C616E636520717565727920666F7220746865207A PUSH1 0x44 DUP3 ADD MSTORE PUSH11 0x65726F2061646472657373 PUSH1 0xA8 SHL PUSH1 0x64 DUP3 ADD MSTORE PUSH1 0x84 ADD JUMPDEST PUSH1 0x40 MLOAD DUP1 SWAP2 SUB SWAP1 REVERT JUMPDEST POP PUSH1 0x0 SWAP1 DUP2 MSTORE PUSH1 0x20 DUP2 DUP2 MSTORE PUSH1 0x40 DUP1 DUP4 KECCAK256 PUSH1 0x1 PUSH1 0x1 PUSH1 0xA0 SHL SUB SWAP5 SWAP1 SWAP5 AND DUP4 MSTORE SWAP3 SWAP1 MSTORE KECCAK256 SLOAD SWAP1 JUMP JUMPDEST PUSH1 0x0 PUSH1 0x1 PUSH1 0x1 PUSH1 0xE0 SHL SUB NOT DUP3 AND PUSH4 0x6CDB3D13 PUSH1 0xE1 SHL EQ DUP1 PUSH2 0x254 JUMPI POP PUSH1 0x1 PUSH1 0x1 PUSH1 0xE0 SHL SUB NOT DUP3 AND PUSH4 0x3A24D07 PUSH1 0xE2 SHL EQ JUMPDEST DUP1 PUSH2 0x26F JUMPI POP PUSH4 0x1FFC9A7 PUSH1 0xE0 SHL PUSH1 0x1 PUSH1 0x1 PUSH1 0xE0 SHL SUB NOT DUP4 AND EQ JUMPDEST SWAP3 SWAP2 POP POP JUMP JUMPDEST PUSH1 0x60 PUSH1 0x2 DUP1 SLOAD PUSH2 0x284 SWAP1 PUSH2 0x1090 JUMP JUMPDEST DUP1 PUSH1 0x1F ADD PUSH1 0x20 DUP1 SWAP2 DIV MUL PUSH1 0x20 ADD PUSH1 0x40 MLOAD SWAP1 DUP2 ADD PUSH1 0x40 MSTORE DUP1 SWAP3 SWAP2 SWAP1 DUP2 DUP2 MSTORE PUSH1 0x20 ADD DUP3 DUP1 SLOAD PUSH2 0x2B0 SWAP1 PUSH2 0x1090 JUMP JUMPDEST DUP1 ISZERO PUSH2 0x2FD JUMPI DUP1 PUSH1 0x1F LT PUSH2 0x2D2 JUMPI PUSH2 0x100 DUP1 DUP4 SLOAD DIV MUL DUP4 MSTORE SWAP2 PUSH1 0x20 ADD SWAP2 PUSH2 0x2FD JUMP JUMPDEST DUP3 ADD SWAP2 SWAP1 PUSH1 0x0 MSTORE PUSH1 0x20 PUSH1 0x0 KECCAK256 SWAP1 JUMPDEST DUP2 SLOAD DUP2 MSTORE SWAP1 PUSH1 0x1 ADD SWAP1 PUSH1 0x20 ADD DUP1 DUP4 GT PUSH2 0x2E0 JUMPI DUP3 SWAP1 SUB PUSH1 0x1F AND DUP3 ADD SWAP2 JUMPDEST POP POP POP POP POP SWAP1 POP SWAP2 SWAP1 POP JUMP JUMPDEST PUSH1 0x1 PUSH1 0x1 PUSH1 0xA0 SHL SUB DUP6 AND CALLER EQ DUP1 PUSH2 0x325 JUMPI POP PUSH2 0x325 DUP6 CALLER PUSH2 0x14B JUMP JUMPDEST PUSH2 0x38C JUMPI PUSH1 0x40 MLOAD PUSH3 0x461BCD PUSH1 0xE5 SHL DUP2 MSTORE PUSH1 0x20 PUSH1 0x4 DUP3 ADD MSTORE PUSH1 0x32 PUSH1 0x24 DUP3 ADD MSTORE PUSH32 0x455243313135353A207472616E736665722063616C6C6572206973206E6F7420 PUSH1 0x44 DUP3 ADD MSTORE PUSH18 0x1BDDDB995C881B9BDC88185C1C1C9BDD9959 PUSH1 0x72 SHL PUSH1 0x64 DUP3 ADD MSTORE PUSH1 0x84 ADD PUSH2 0x1F4 JUMP JUMPDEST PUSH2 0x399 DUP6 DUP6 DUP6 DUP6 DUP6 PUSH2 0x560 JUMP JUMPDEST POP POP POP POP POP JUMP JUMPDEST PUSH1 0x60 DUP2 MLOAD DUP4 MLOAD EQ PUSH2 0x405 JUMPI PUSH1 0x40 MLOAD PUSH3 0x461BCD PUSH1 0xE5 SHL DUP2 MSTORE PUSH1 0x20 PUSH1 0x4 DUP3 ADD MSTORE PUSH1 0x29 PUSH1 0x24 DUP3 ADD MSTORE PUSH32 0x455243313135353A206163636F756E747320616E6420696473206C656E677468 PUSH1 0x44 DUP3 ADD MSTORE PUSH9 0x40DAD2E6DAC2E8C6D PUSH1 0xBB SHL PUSH1 0x64 DUP3 ADD MSTORE PUSH1 0x84 ADD PUSH2 0x1F4 JUMP JUMPDEST PUSH1 0x0 DUP4 MLOAD PUSH8 0xFFFFFFFFFFFFFFFF DUP2 GT ISZERO PUSH2 0x421 JUMPI PUSH2 0x421 PUSH2 0xCAD JUMP JUMPDEST PUSH1 0x40 MLOAD SWAP1 DUP1 DUP3 MSTORE DUP1 PUSH1 0x20 MUL PUSH1 0x20 ADD DUP3 ADD PUSH1 0x40 MSTORE DUP1 ISZERO PUSH2 0x44A JUMPI DUP2 PUSH1 0x20 ADD PUSH1 0x20 DUP3 MUL DUP1 CALLDATASIZE DUP4 CALLDATACOPY ADD SWAP1 POP JUMPDEST POP SWAP1 POP PUSH1 0x0 JUMPDEST DUP5 MLOAD DUP2 LT ISZERO PUSH2 0x4C2 JUMPI PUSH2 0x495 DUP6 DUP3 DUP2 MLOAD DUP2 LT PUSH2 0x46E JUMPI PUSH2 0x46E PUSH2 0x10CA JUMP JUMPDEST PUSH1 0x20 MUL PUSH1 0x20 ADD ADD MLOAD DUP6 DUP4 DUP2 MLOAD DUP2 LT PUSH2 0x488 JUMPI PUSH2 0x488 PUSH2 0x10CA JUMP JUMPDEST PUSH1 0x20 MUL PUSH1 0x20 ADD ADD MLOAD PUSH2 0x18C JUMP JUMPDEST DUP3 DUP3 DUP2 MLOAD DUP2 LT PUSH2 0x4A7 JUMPI PUSH2 0x4A7 PUSH2 0x10CA JUMP JUMPDEST PUSH1 0x20 SWAP1 DUP2 MUL SWAP2 SWAP1 SWAP2 ADD ADD MSTORE PUSH2 0x4BB DUP2 PUSH2 0x10F6 JUMP JUMPDEST SWAP1 POP PUSH2 0x450 JUMP JUMPDEST POP SWAP4 SWAP3 POP POP POP JUMP JUMPDEST PUSH2 0x4D5 CALLER DUP4 DUP4 PUSH2 0x73D JUMP JUMPDEST POP POP JUMP JUMPDEST PUSH1 0x1 PUSH1 0x1 PUSH1 0xA0 SHL SUB DUP6 AND CALLER EQ DUP1 PUSH2 0x4F5 JUMPI POP PUSH2 0x4F5 DUP6 CALLER PUSH2 0x14B JUMP JUMPDEST PUSH2 0x553 JUMPI PUSH1 0x40 MLOAD PUSH3 0x461BCD PUSH1 0xE5 SHL DUP2 MSTORE PUSH1 0x20 PUSH1 0x4 DUP3 ADD MSTORE PUSH1 0x29 PUSH1 0x24 DUP3 ADD MSTORE PUSH32 0x455243313135353A2063616C6C6572206973206E6F74206F776E6572206E6F72 PUSH1 0x44 DUP3 ADD MSTORE PUSH9 0x8185C1C1C9BDD9959 PUSH1 0xBA SHL PUSH1 0x64 DUP3 ADD MSTORE PUSH1 0x84 ADD PUSH2 0x1F4 JUMP JUMPDEST PUSH2 0x399 DUP6 DUP6 DUP6 DUP6 DUP6 PUSH2 0x81D JUMP JUMPDEST DUP2 MLOAD DUP4 MLOAD EQ PUSH2 0x5C2 JUMPI PUSH1 0x40 MLOAD PUSH3 0x461BCD PUSH1 0xE5 SHL DUP2 MSTORE PUSH1 0x20 PUSH1 0x4 DUP3 ADD MSTORE PUSH1 0x28 PUSH1 0x24 DUP3 ADD MSTORE PUSH32 0x455243313135353A2069647320616E6420616D6F756E7473206C656E67746820 PUSH1 0x44 DUP3 ADD MSTORE PUSH8 0xDAD2E6DAC2E8C6D PUSH1 0xC3 SHL PUSH1 0x64 DUP3 ADD MSTORE PUSH1 0x84 ADD PUSH2 0x1F4 JUMP JUMPDEST PUSH1 0x1 PUSH1 0x1 PUSH1 0xA0 SHL SUB DUP5 AND PUSH2 0x5E8 JUMPI PUSH1 0x40 MLOAD PUSH3 0x461BCD PUSH1 0xE5 SHL DUP2 MSTORE PUSH1 0x4 ADD PUSH2 0x1F4 SWAP1 PUSH2 0x110F JUMP JUMPDEST CALLER PUSH1 0x0 JUMPDEST DUP5 MLOAD DUP2 LT ISZERO PUSH2 0x6CF JUMPI PUSH1 0x0 DUP6 DUP3 DUP2 MLOAD DUP2 LT PUSH2 0x609 JUMPI PUSH2 0x609 PUSH2 0x10CA JUMP JUMPDEST PUSH1 0x20 MUL PUSH1 0x20 ADD ADD MLOAD SWAP1 POP PUSH1 0x0 DUP6 DUP4 DUP2 MLOAD DUP2 LT PUSH2 0x627 JUMPI PUSH2 0x627 PUSH2 0x10CA JUMP JUMPDEST PUSH1 0x20 SWAP1 DUP2 MUL SWAP2 SWAP1 SWAP2 ADD DUP2 ADD MLOAD PUSH1 0x0 DUP5 DUP2 MSTORE DUP1 DUP4 MSTORE PUSH1 0x40 DUP1 DUP3 KECCAK256 PUSH1 0x1 PUSH1 0x1 PUSH1 0xA0 SHL SUB DUP15 AND DUP4 MSTORE SWAP1 SWAP4 MSTORE SWAP2 SWAP1 SWAP2 KECCAK256 SLOAD SWAP1 SWAP2 POP DUP2 DUP2 LT ISZERO PUSH2 0x677 JUMPI PUSH1 0x40 MLOAD PUSH3 0x461BCD PUSH1 0xE5 SHL DUP2 MSTORE PUSH1 0x4 ADD PUSH2 0x1F4 SWAP1 PUSH2 0x1154 JUMP JUMPDEST PUSH1 0x0 DUP4 DUP2 MSTORE PUSH1 0x20 DUP2 DUP2 MSTORE PUSH1 0x40 DUP1 DUP4 KECCAK256 PUSH1 0x1 PUSH1 0x1 PUSH1 0xA0 SHL SUB DUP15 DUP2 AND DUP6 MSTORE SWAP3 MSTORE DUP1 DUP4 KECCAK256 DUP6 DUP6 SUB SWAP1 SSTORE SWAP1 DUP12 AND DUP3 MSTORE DUP2 KECCAK256 DUP1 SLOAD DUP5 SWAP3 SWAP1 PUSH2 0x6B4 SWAP1 DUP5 SWAP1 PUSH2 0x119E JUMP JUMPDEST SWAP3 POP POP DUP2 SWAP1 SSTORE POP POP POP POP DUP1 PUSH2 0x6C8 SWAP1 PUSH2 0x10F6 JUMP JUMPDEST SWAP1 POP PUSH2 0x5EC JUMP JUMPDEST POP DUP5 PUSH1 0x1 PUSH1 0x1 PUSH1 0xA0 SHL SUB AND DUP7 PUSH1 0x1 PUSH1 0x1 PUSH1 0xA0 SHL SUB AND DUP3 PUSH1 0x1 PUSH1 0x1 PUSH1 0xA0 SHL SUB AND PUSH32 0x4A39DC06D4C0DBC64B70AF90FD698A233A518AA5D07E595D983B8C0526C8F7FB DUP8 DUP8 PUSH1 0x40 MLOAD PUSH2 0x71F SWAP3 SWAP2 SWAP1 PUSH2 0x11B6 JUMP JUMPDEST PUSH1 0x40 MLOAD DUP1 SWAP2 SUB SWAP1 LOG4 PUSH2 0x735 DUP2 DUP8 DUP8 DUP8 DUP8 DUP8 PUSH2 0x947 JUMP JUMPDEST POP POP POP POP POP POP JUMP JUMPDEST DUP2 PUSH1 0x1 PUSH1 0x1 PUSH1 0xA0 SHL SUB AND DUP4 PUSH1 0x1 PUSH1 0x1 PUSH1 0xA0 SHL SUB AND SUB PUSH2 0x7B0 JUMPI PUSH1 0x40 MLOAD PUSH3 0x461BCD PUSH1 0xE5 SHL DUP2 MSTORE PUSH1 0x20 PUSH1 0x4 DUP3 ADD MSTORE PUSH1 0x29 PUSH1 0x24 DUP3 ADD MSTORE PUSH32 0x455243313135353A2073657474696E6720617070726F76616C20737461747573 PUSH1 0x44 DUP3 ADD MSTORE PUSH9 0x103337B91039B2B633 PUSH1 0xB9 SHL PUSH1 0x64 DUP3 ADD MSTORE PUSH1 0x84 ADD PUSH2 0x1F4 JUMP JUMPDEST PUSH1 0x1 PUSH1 0x1 PUSH1 0xA0 SHL SUB DUP4 DUP2 AND PUSH1 0x0 DUP2 DUP2 MSTORE PUSH1 0x1 PUSH1 0x20 SWAP1 DUP2 MSTORE PUSH1 0x40 DUP1 DUP4 KECCAK256 SWAP5 DUP8 AND DUP1 DUP5 MSTORE SWAP5 DUP3 MSTORE SWAP2 DUP3 SWAP1 KECCAK256 DUP1 SLOAD PUSH1 0xFF NOT AND DUP7 ISZERO ISZERO SWAP1 DUP2 OR SWAP1 SWAP2 SSTORE SWAP2 MLOAD SWAP2 DUP3 MSTORE PUSH32 0x17307EAB39AB6107E8899845AD3D59BD9653F200F220920489CA2B5937696C31 SWAP2 ADD PUSH1 0x40 MLOAD DUP1 SWAP2 SUB SWAP1 LOG3 POP POP POP JUMP JUMPDEST PUSH1 0x1 PUSH1 0x1 PUSH1 0xA0 SHL SUB DUP5 AND PUSH2 0x843 JUMPI PUSH1 0x40 MLOAD PUSH3 0x461BCD PUSH1 0xE5 SHL DUP2 MSTORE PUSH1 0x4 ADD PUSH2 0x1F4 SWAP1 PUSH2 0x110F JUMP JUMPDEST CALLER PUSH1 0x0 PUSH2 0x84F DUP6 PUSH2 0xAAB JUMP JUMPDEST SWAP1 POP PUSH1 0x0 PUSH2 0x85C DUP6 PUSH2 0xAAB JUMP JUMPDEST SWAP1 POP PUSH1 0x0 DUP7 DUP2 MSTORE PUSH1 0x20 DUP2 DUP2 MSTORE PUSH1 0x40 DUP1 DUP4 KECCAK256 PUSH1 0x1 PUSH1 0x1 PUSH1 0xA0 SHL SUB DUP13 AND DUP5 MSTORE SWAP1 SWAP2 MSTORE SWAP1 KECCAK256 SLOAD DUP6 DUP2 LT ISZERO PUSH2 0x89F JUMPI PUSH1 0x40 MLOAD PUSH3 0x461BCD PUSH1 0xE5 SHL DUP2 MSTORE PUSH1 0x4 ADD PUSH2 0x1F4 SWAP1 PUSH2 0x1154 JUMP JUMPDEST PUSH1 0x0 DUP8 DUP2 MSTORE PUSH1 0x20 DUP2 DUP2 MSTORE PUSH1 0x40 DUP1 DUP4 KECCAK256 PUSH1 0x1 PUSH1 0x1 PUSH1 0xA0 SHL SUB DUP14 DUP2 AND DUP6 MSTORE SWAP3 MSTORE DUP1 DUP4 KECCAK256 DUP10 DUP6 SUB SWAP1 SSTORE SWAP1 DUP11 AND DUP3 MSTORE DUP2 KECCAK256 DUP1 SLOAD DUP9 SWAP3 SWAP1 PUSH2 0x8DC SWAP1 DUP5 SWAP1 PUSH2 0x119E JUMP JUMPDEST SWAP1 SWAP2 SSTORE POP POP PUSH1 0x40 DUP1 MLOAD DUP9 DUP2 MSTORE PUSH1 0x20 DUP2 ADD DUP9 SWAP1 MSTORE PUSH1 0x1 PUSH1 0x1 PUSH1 0xA0 SHL SUB DUP1 DUP12 AND SWAP3 DUP13 DUP3 AND SWAP3 SWAP2 DUP9 AND SWAP2 PUSH32 0xC3D58168C5AE7397731D063D5BBF3D657854427343F4C083240F7AACAA2D0F62 SWAP2 ADD PUSH1 0x40 MLOAD DUP1 SWAP2 SUB SWAP1 LOG4 PUSH2 0x93C DUP5 DUP11 DUP11 DUP11 DUP11 DUP11 PUSH2 0xAF6 JUMP JUMPDEST POP POP POP POP POP POP POP POP POP JUMP JUMPDEST PUSH1 0x1 PUSH1 0x1 PUSH1 0xA0 SHL SUB DUP5 AND EXTCODESIZE ISZERO PUSH2 0x735 JUMPI PUSH1 0x40 MLOAD PUSH4 0xBC197C81 PUSH1 0xE0 SHL DUP2 MSTORE PUSH1 0x1 PUSH1 0x1 PUSH1 0xA0 SHL SUB DUP6 AND SWAP1 PUSH4 0xBC197C81 SWAP1 PUSH2 0x98B SWAP1 DUP10 SWAP1 DUP10 SWAP1 DUP9 SWAP1 DUP9 SWAP1 DUP9 SWAP1 PUSH1 0x4 ADD PUSH2 0x11E4 JUMP JUMPDEST PUSH1 0x20 PUSH1 0x40 MLOAD DUP1 DUP4 SUB DUP2 PUSH1 0x0 DUP8 GAS CALL SWAP3 POP POP POP DUP1 ISZERO PUSH2 0x9C6 JUMPI POP PUSH1 0x40 DUP1 MLOAD PUSH1 0x1F RETURNDATASIZE SWAP1 DUP2 ADD PUSH1 0x1F NOT AND DUP3 ADD SWAP1 SWAP3 MSTORE PUSH2 0x9C3 SWAP2 DUP2 ADD SWAP1 PUSH2 0x1242 JUMP JUMPDEST PUSH1 0x1 JUMPDEST PUSH2 0xA72 JUMPI PUSH2 0x9D2 PUSH2 0x125F JUMP JUMPDEST DUP1 PUSH4 0x8C379A0 SUB PUSH2 0xA0B JUMPI POP PUSH2 0x9E6 PUSH2 0x127B JUMP JUMPDEST DUP1 PUSH2 0x9F1 JUMPI POP PUSH2 0xA0D JUMP JUMPDEST DUP1 PUSH1 0x40 MLOAD PUSH3 0x461BCD PUSH1 0xE5 SHL DUP2 MSTORE PUSH1 0x4 ADD PUSH2 0x1F4 SWAP2 SWAP1 PUSH2 0xC9A JUMP JUMPDEST POP JUMPDEST PUSH1 0x40 MLOAD PUSH3 0x461BCD PUSH1 0xE5 SHL DUP2 MSTORE PUSH1 0x20 PUSH1 0x4 DUP3 ADD MSTORE PUSH1 0x34 PUSH1 0x24 DUP3 ADD MSTORE PUSH32 0x455243313135353A207472616E7366657220746F206E6F6E2045524331313535 PUSH1 0x44 DUP3 ADD MSTORE PUSH20 0x2932B1B2B4BB32B91034B6B83632B6B2B73A32B9 PUSH1 0x61 SHL PUSH1 0x64 DUP3 ADD MSTORE PUSH1 0x84 ADD PUSH2 0x1F4 JUMP JUMPDEST PUSH1 0x1 PUSH1 0x1 PUSH1 0xE0 SHL SUB NOT DUP2 AND PUSH4 0xBC197C81 PUSH1 0xE0 SHL EQ PUSH2 0xAA2 JUMPI PUSH1 0x40 MLOAD PUSH3 0x461BCD PUSH1 0xE5 SHL DUP2 MSTORE PUSH1 0x4 ADD PUSH2 0x1F4 SWAP1 PUSH2 0x1305 JUMP JUMPDEST POP POP POP POP POP POP POP JUMP JUMPDEST PUSH1 0x40 DUP1 MLOAD PUSH1 0x1 DUP1 DUP3 MSTORE DUP2 DUP4 ADD SWAP1 SWAP3 MSTORE PUSH1 0x60 SWAP2 PUSH1 0x0 SWAP2 SWAP1 PUSH1 0x20 DUP1 DUP4 ADD SWAP1 DUP1 CALLDATASIZE DUP4 CALLDATACOPY ADD SWAP1 POP POP SWAP1 POP DUP3 DUP2 PUSH1 0x0 DUP2 MLOAD DUP2 LT PUSH2 0xAE5 JUMPI PUSH2 0xAE5 PUSH2 0x10CA JUMP JUMPDEST PUSH1 0x20 SWAP1 DUP2 MUL SWAP2 SWAP1 SWAP2 ADD ADD MSTORE SWAP3 SWAP2 POP POP JUMP JUMPDEST PUSH1 0x1 PUSH1 0x1 PUSH1 0xA0 SHL SUB DUP5 AND EXTCODESIZE ISZERO PUSH2 0x735 JUMPI PUSH1 0x40 MLOAD PUSH4 0xF23A6E61 PUSH1 0xE0 SHL DUP2 MSTORE PUSH1 0x1 PUSH1 0x1 PUSH1 0xA0 SHL SUB DUP6 AND SWAP1 PUSH4 0xF23A6E61 SWAP1 PUSH2 0xB3A SWAP1 DUP10 SWAP1 DUP10 SWAP1 DUP9 SWAP1 DUP9 SWAP1 DUP9 SWAP1 PUSH1 0x4 ADD PUSH2 0x134D JUMP JUMPDEST PUSH1 0x20 PUSH1 0x40 MLOAD DUP1 DUP4 SUB DUP2 PUSH1 0x0 DUP8 GAS CALL SWAP3 POP POP POP DUP1 ISZERO PUSH2 0xB75 JUMPI POP PUSH1 0x40 DUP1 MLOAD PUSH1 0x1F RETURNDATASIZE SWAP1 DUP2 ADD PUSH1 0x1F NOT AND DUP3 ADD SWAP1 SWAP3 MSTORE PUSH2 0xB72 SWAP2 DUP2 ADD SWAP1 PUSH2 0x1242 JUMP JUMPDEST PUSH1 0x1 JUMPDEST PUSH2 0xB81 JUMPI PUSH2 0x9D2 PUSH2 0x125F JUMP JUMPDEST PUSH1 0x1 PUSH1 0x1 PUSH1 0xE0 SHL SUB NOT DUP2 AND PUSH4 0xF23A6E61 PUSH1 0xE0 SHL EQ PUSH2 0xAA2 JUMPI PUSH1 0x40 MLOAD PUSH3 0x461BCD PUSH1 0xE5 SHL DUP2 MSTORE PUSH1 0x4 ADD PUSH2 0x1F4 SWAP1 PUSH2 0x1305 JUMP JUMPDEST DUP1 CALLDATALOAD PUSH1 0x1 PUSH1 0x1 PUSH1 0xA0 SHL SUB DUP2 AND DUP2 EQ PUSH2 0xBC8 JUMPI PUSH1 0x0 DUP1 REVERT JUMPDEST SWAP2 SWAP1 POP JUMP JUMPDEST PUSH1 0x0 DUP1 PUSH1 0x40 DUP4 DUP6 SUB SLT ISZERO PUSH2 0xBE0 JUMPI PUSH1 0x0 DUP1 REVERT JUMPDEST PUSH2 0xBE9 DUP4 PUSH2 0xBB1 JUMP JUMPDEST SWAP5 PUSH1 0x20 SWAP4 SWAP1 SWAP4 ADD CALLDATALOAD SWAP4 POP POP POP JUMP JUMPDEST PUSH1 0x1 PUSH1 0x1 PUSH1 0xE0 SHL SUB NOT DUP2 AND DUP2 EQ PUSH2 0xC0D JUMPI PUSH1 0x0 DUP1 REVERT JUMPDEST POP JUMP JUMPDEST PUSH1 0x0 PUSH1 0x20 DUP3 DUP5 SUB SLT ISZERO PUSH2 0xC22 JUMPI PUSH1 0x0 DUP1 REVERT JUMPDEST DUP2 CALLDATALOAD PUSH2 0xC2D DUP2 PUSH2 0xBF7 JUMP JUMPDEST SWAP4 SWAP3 POP POP POP JUMP JUMPDEST PUSH1 0x0 PUSH1 0x20 DUP3 DUP5 SUB SLT ISZERO PUSH2 0xC46 JUMPI PUSH1 0x0 DUP1 REVERT JUMPDEST POP CALLDATALOAD SWAP2 SWAP1 POP JUMP JUMPDEST PUSH1 0x0 DUP2 MLOAD DUP1 DUP5 MSTORE PUSH1 0x0 JUMPDEST DUP2 DUP2 LT ISZERO PUSH2 0xC73 JUMPI PUSH1 0x20 DUP2 DUP6 ADD DUP2 ADD MLOAD DUP7 DUP4 ADD DUP3 ADD MSTORE ADD PUSH2 0xC57 JUMP JUMPDEST DUP2 DUP2 GT ISZERO PUSH2 0xC85 JUMPI PUSH1 0x0 PUSH1 0x20 DUP4 DUP8 ADD ADD MSTORE JUMPDEST POP PUSH1 0x1F ADD PUSH1 0x1F NOT AND SWAP3 SWAP1 SWAP3 ADD PUSH1 0x20 ADD SWAP3 SWAP2 POP POP JUMP JUMPDEST PUSH1 0x20 DUP2 MSTORE PUSH1 0x0 PUSH2 0xC2D PUSH1 0x20 DUP4 ADD DUP5 PUSH2 0xC4D JUMP JUMPDEST PUSH4 0x4E487B71 PUSH1 0xE0 SHL PUSH1 0x0 MSTORE PUSH1 0x41 PUSH1 0x4 MSTORE PUSH1 0x24 PUSH1 0x0 REVERT JUMPDEST PUSH1 0x1F DUP3 ADD PUSH1 0x1F NOT AND DUP2 ADD PUSH8 0xFFFFFFFFFFFFFFFF DUP2 GT DUP3 DUP3 LT OR ISZERO PUSH2 0xCE9 JUMPI PUSH2 0xCE9 PUSH2 0xCAD JUMP JUMPDEST PUSH1 0x40 MSTORE POP POP JUMP JUMPDEST PUSH1 0x0 PUSH8 0xFFFFFFFFFFFFFFFF DUP3 GT ISZERO PUSH2 0xD0A JUMPI PUSH2 0xD0A PUSH2 0xCAD JUMP JUMPDEST POP PUSH1 0x5 SHL PUSH1 0x20 ADD SWAP1 JUMP JUMPDEST PUSH1 0x0 DUP3 PUSH1 0x1F DUP4 ADD SLT PUSH2 0xD25 JUMPI PUSH1 0x0 DUP1 REVERT JUMPDEST DUP2 CALLDATALOAD PUSH1 0x20 PUSH2 0xD32 DUP3 PUSH2 0xCF0 JUMP JUMPDEST PUSH1 0x40 MLOAD PUSH2 0xD3F DUP3 DUP3 PUSH2 0xCC3 JUMP JUMPDEST DUP4 DUP2 MSTORE PUSH1 0x5 SWAP4 SWAP1 SWAP4 SHL DUP6 ADD DUP3 ADD SWAP3 DUP3 DUP2 ADD SWAP2 POP DUP7 DUP5 GT ISZERO PUSH2 0xD5F JUMPI PUSH1 0x0 DUP1 REVERT JUMPDEST DUP3 DUP7 ADD JUMPDEST DUP5 DUP2 LT ISZERO PUSH2 0xD7A JUMPI DUP1 CALLDATALOAD DUP4 MSTORE SWAP2 DUP4 ADD SWAP2 DUP4 ADD PUSH2 0xD63 JUMP JUMPDEST POP SWAP7 SWAP6 POP POP POP POP POP POP JUMP JUMPDEST PUSH1 0x0 DUP3 PUSH1 0x1F DUP4 ADD SLT PUSH2 0xD96 JUMPI PUSH1 0x0 DUP1 REVERT JUMPDEST DUP2 CALLDATALOAD PUSH8 0xFFFFFFFFFFFFFFFF DUP2 GT ISZERO PUSH2 0xDB0 JUMPI PUSH2 0xDB0 PUSH2 0xCAD JUMP JUMPDEST PUSH1 0x40 MLOAD PUSH2 0xDC7 PUSH1 0x1F DUP4 ADD PUSH1 0x1F NOT AND PUSH1 0x20 ADD DUP3 PUSH2 0xCC3 JUMP JUMPDEST DUP2 DUP2 MSTORE DUP5 PUSH1 0x20 DUP4 DUP7 ADD ADD GT ISZERO PUSH2 0xDDC JUMPI PUSH1 0x0 DUP1 REVERT JUMPDEST DUP2 PUSH1 0x20 DUP6 ADD PUSH1 0x20 DUP4 ADD CALLDATACOPY PUSH1 0x0 SWAP2 DUP2 ADD PUSH1 0x20 ADD SWAP2 SWAP1 SWAP2 MSTORE SWAP4 SWAP3 POP POP POP JUMP JUMPDEST PUSH1 0x0 DUP1 PUSH1 0x0 DUP1 PUSH1 0x0 PUSH1 0xA0 DUP7 DUP9 SUB SLT ISZERO PUSH2 0xE11 JUMPI PUSH1 0x0 DUP1 REVERT JUMPDEST PUSH2 0xE1A DUP7 PUSH2 0xBB1 JUMP JUMPDEST SWAP5 POP PUSH2 0xE28 PUSH1 0x20 DUP8 ADD PUSH2 0xBB1 JUMP JUMPDEST SWAP4 POP PUSH1 0x40 DUP7 ADD CALLDATALOAD PUSH8 0xFFFFFFFFFFFFFFFF DUP1 DUP3 GT ISZERO PUSH2 0xE45 JUMPI PUSH1 0x0 DUP1 REVERT JUMPDEST PUSH2 0xE51 DUP10 DUP4 DUP11 ADD PUSH2 0xD14 JUMP JUMPDEST SWAP5 POP PUSH1 0x60 DUP9 ADD CALLDATALOAD SWAP2 POP DUP1 DUP3 GT ISZERO PUSH2 0xE67 JUMPI PUSH1 0x0 DUP1 REVERT JUMPDEST PUSH2 0xE73 DUP10 DUP4 DUP11 ADD PUSH2 0xD14 JUMP JUMPDEST SWAP4 POP PUSH1 0x80 DUP9 ADD CALLDATALOAD SWAP2 POP DUP1 DUP3 GT ISZERO PUSH2 0xE89 JUMPI PUSH1 0x0 DUP1 REVERT JUMPDEST POP PUSH2 0xE96 DUP9 DUP3 DUP10 ADD PUSH2 0xD85 JUMP JUMPDEST SWAP2 POP POP SWAP3 SWAP6 POP SWAP3 SWAP6 SWAP1 SWAP4 POP JUMP JUMPDEST PUSH1 0x0 DUP1 PUSH1 0x40 DUP4 DUP6 SUB SLT ISZERO PUSH2 0xEB6 JUMPI PUSH1 0x0 DUP1 REVERT JUMPDEST DUP3 CALLDATALOAD PUSH8 0xFFFFFFFFFFFFFFFF DUP1 DUP3 GT ISZERO PUSH2 0xECE JUMPI PUSH1 0x0 DUP1 REVERT JUMPDEST DUP2 DUP6 ADD SWAP2 POP DUP6 PUSH1 0x1F DUP4 ADD SLT PUSH2 0xEE2 JUMPI PUSH1 0x0 DUP1 REVERT JUMPDEST DUP2 CALLDATALOAD PUSH1 0x20 PUSH2 0xEEF DUP3 PUSH2 0xCF0 JUMP JUMPDEST PUSH1 0x40 MLOAD PUSH2 0xEFC DUP3 DUP3 PUSH2 0xCC3 JUMP JUMPDEST DUP4 DUP2 MSTORE PUSH1 0x5 SWAP4 SWAP1 SWAP4 SHL DUP6 ADD DUP3 ADD SWAP3 DUP3 DUP2 ADD SWAP2 POP DUP10 DUP5 GT ISZERO PUSH2 0xF1C JUMPI PUSH1 0x0 DUP1 REVERT JUMPDEST SWAP5 DUP3 ADD SWAP5 JUMPDEST DUP4 DUP7 LT ISZERO PUSH2 0xF41 JUMPI PUSH2 0xF32 DUP7 PUSH2 0xBB1 JUMP JUMPDEST DUP3 MSTORE SWAP5 DUP3 ADD SWAP5 SWAP1 DUP3 ADD SWAP1 PUSH2 0xF21 JUMP JUMPDEST SWAP7 POP POP DUP7 ADD CALLDATALOAD SWAP3 POP POP DUP1 DUP3 GT ISZERO PUSH2 0xF57 JUMPI PUSH1 0x0 DUP1 REVERT JUMPDEST POP PUSH2 0xF64 DUP6 DUP3 DUP7 ADD PUSH2 0xD14 JUMP JUMPDEST SWAP2 POP POP SWAP3 POP SWAP3 SWAP1 POP JUMP JUMPDEST PUSH1 0x0 DUP2 MLOAD DUP1 DUP5 MSTORE PUSH1 0x20 DUP1 DUP6 ADD SWAP5 POP DUP1 DUP5 ADD PUSH1 0x0 JUMPDEST DUP4 DUP2 LT ISZERO PUSH2 0xF9E JUMPI DUP2 MLOAD DUP8 MSTORE SWAP6 DUP3 ADD SWAP6 SWAP1 DUP3 ADD SWAP1 PUSH1 0x1 ADD PUSH2 0xF82 JUMP JUMPDEST POP SWAP5 SWAP6 SWAP5 POP POP POP POP POP JUMP JUMPDEST PUSH1 0x20 DUP2 MSTORE PUSH1 0x0 PUSH2 0xC2D PUSH1 0x20 DUP4 ADD DUP5 PUSH2 0xF6E JUMP JUMPDEST PUSH1 0x0 DUP1 PUSH1 0x40 DUP4 DUP6 SUB SLT ISZERO PUSH2 0xFCF JUMPI PUSH1 0x0 DUP1 REVERT JUMPDEST PUSH2 0xFD8 DUP4 PUSH2 0xBB1 JUMP JUMPDEST SWAP2 POP PUSH1 0x20 DUP4 ADD CALLDATALOAD DUP1 ISZERO ISZERO DUP2 EQ PUSH2 0xFED JUMPI PUSH1 0x0 DUP1 REVERT JUMPDEST DUP1 SWAP2 POP POP SWAP3 POP SWAP3 SWAP1 POP JUMP JUMPDEST PUSH1 0x0 DUP1 PUSH1 0x40 DUP4 DUP6 SUB SLT ISZERO PUSH2 0x100B JUMPI PUSH1 0x0 DUP1 REVERT JUMPDEST PUSH2 0x1014 DUP4 PUSH2 0xBB1 JUMP JUMPDEST SWAP2 POP PUSH2 0x1022 PUSH1 0x20 DUP5 ADD PUSH2 0xBB1 JUMP JUMPDEST SWAP1 POP SWAP3 POP SWAP3 SWAP1 POP JUMP JUMPDEST PUSH1 0x0 DUP1 PUSH1 0x0 DUP1 PUSH1 0x0 PUSH1 0xA0 DUP7 DUP9 SUB SLT ISZERO PUSH2 0x1043 JUMPI PUSH1 0x0 DUP1 REVERT JUMPDEST PUSH2 0x104C DUP7 PUSH2 0xBB1 JUMP JUMPDEST SWAP5 POP PUSH2 0x105A PUSH1 0x20 DUP8 ADD PUSH2 0xBB1 JUMP JUMPDEST SWAP4 POP PUSH1 0x40 DUP7 ADD CALLDATALOAD SWAP3 POP PUSH1 0x60 DUP7 ADD CALLDATALOAD SWAP2 POP PUSH1 0x80 DUP7 ADD CALLDATALOAD PUSH8 0xFFFFFFFFFFFFFFFF DUP2 GT ISZERO PUSH2 0x1084 JUMPI PUSH1 0x0 DUP1 REVERT JUMPDEST PUSH2 0xE96 DUP9 DUP3 DUP10 ADD PUSH2 0xD85 JUMP JUMPDEST PUSH1 0x1 DUP2 DUP2 SHR SWAP1 DUP3 AND DUP1 PUSH2 0x10A4 JUMPI PUSH1 0x7F DUP3 AND SWAP2 POP JUMPDEST PUSH1 0x20 DUP3 LT DUP2 SUB PUSH2 0x10C4 JUMPI PUSH4 0x4E487B71 PUSH1 0xE0 SHL PUSH1 0x0 MSTORE PUSH1 0x22 PUSH1 0x4 MSTORE PUSH1 0x24 PUSH1 0x0 REVERT JUMPDEST POP SWAP2 SWAP1 POP JUMP JUMPDEST PUSH4 0x4E487B71 PUSH1 0xE0 SHL PUSH1 0x0 MSTORE PUSH1 0x32 PUSH1 0x4 MSTORE PUSH1 0x24 PUSH1 0x0 REVERT JUMPDEST PUSH4 0x4E487B71 PUSH1 0xE0 SHL PUSH1 0x0 MSTORE PUSH1 0x11 PUSH1 0x4 MSTORE PUSH1 0x24 PUSH1 0x0 REVERT JUMPDEST PUSH1 0x0 PUSH1 0x1 DUP3 ADD PUSH2 0x1108 JUMPI PUSH2 0x1108 PUSH2 0x10E0 JUMP JUMPDEST POP PUSH1 0x1 ADD SWAP1 JUMP JUMPDEST PUSH1 0x20 DUP1 DUP3 MSTORE PUSH1 0x25 SWAP1 DUP3 ADD MSTORE PUSH32 0x455243313135353A207472616E7366657220746F20746865207A65726F206164 PUSH1 0x40 DUP3 ADD MSTORE PUSH5 0x6472657373 PUSH1 0xD8 SHL PUSH1 0x60 DUP3 ADD MSTORE PUSH1 0x80 ADD SWAP1 JUMP JUMPDEST PUSH1 0x20 DUP1 DUP3 MSTORE PUSH1 0x2A SWAP1 DUP3 ADD MSTORE PUSH32 0x455243313135353A20696E73756666696369656E742062616C616E636520666F PUSH1 0x40 DUP3 ADD MSTORE PUSH10 0x39103A3930B739B332B9 PUSH1 0xB1 SHL PUSH1 0x60 DUP3 ADD MSTORE PUSH1 0x80 ADD SWAP1 JUMP JUMPDEST PUSH1 0x0 DUP3 NOT DUP3 GT ISZERO PUSH2 0x11B1 JUMPI PUSH2 0x11B1 PUSH2 0x10E0 JUMP JUMPDEST POP ADD SWAP1 JUMP JUMPDEST PUSH1 0x40 DUP2 MSTORE PUSH1 0x0 PUSH2 0x11C9 PUSH1 0x40 DUP4 ADD DUP6 PUSH2 0xF6E JUMP JUMPDEST DUP3 DUP2 SUB PUSH1 0x20 DUP5 ADD MSTORE PUSH2 0x11DB DUP2 DUP6 PUSH2 0xF6E JUMP JUMPDEST SWAP6 SWAP5 POP POP POP POP POP JUMP JUMPDEST PUSH1 0x1 PUSH1 0x1 PUSH1 0xA0 SHL SUB DUP7 DUP2 AND DUP3 MSTORE DUP6 AND PUSH1 0x20 DUP3 ADD MSTORE PUSH1 0xA0 PUSH1 0x40 DUP3 ADD DUP2 SWAP1 MSTORE PUSH1 0x0 SWAP1 PUSH2 0x1210 SWAP1 DUP4 ADD DUP7 PUSH2 0xF6E JUMP JUMPDEST DUP3 DUP2 SUB PUSH1 0x60 DUP5 ADD MSTORE PUSH2 0x1222 DUP2 DUP7 PUSH2 0xF6E JUMP JUMPDEST SWAP1 POP DUP3 DUP2 SUB PUSH1 0x80 DUP5 ADD MSTORE PUSH2 0x1236 DUP2 DUP6 PUSH2 0xC4D JUMP JUMPDEST SWAP9 SWAP8 POP POP POP POP POP POP POP POP JUMP JUMPDEST PUSH1 0x0 PUSH1 0x20 DUP3 DUP5 SUB SLT ISZERO PUSH2 0x1254 JUMPI PUSH1 0x0 DUP1 REVERT JUMPDEST DUP2 MLOAD PUSH2 0xC2D DUP2 PUSH2 0xBF7 JUMP JUMPDEST PUSH1 0x0 PUSH1 0x3 RETURNDATASIZE GT ISZERO PUSH2 0x1278 JUMPI PUSH1 0x4 PUSH1 0x0 DUP1 RETURNDATACOPY POP PUSH1 0x0 MLOAD PUSH1 0xE0 SHR JUMPDEST SWAP1 JUMP JUMPDEST PUSH1 0x0 PUSH1 0x44 RETURNDATASIZE LT ISZERO PUSH2 0x1289 JUMPI SWAP1 JUMP JUMPDEST PUSH1 0x40 MLOAD PUSH1 0x3 NOT RETURNDATASIZE DUP2 ADD PUSH1 0x4 DUP4 RETURNDATACOPY DUP2 MLOAD RETURNDATASIZE PUSH8 0xFFFFFFFFFFFFFFFF DUP2 PUSH1 0x24 DUP5 ADD GT DUP2 DUP5 GT OR ISZERO PUSH2 0x12B9 JUMPI POP POP POP POP POP SWAP1 JUMP JUMPDEST DUP3 DUP6 ADD SWAP2 POP DUP2 MLOAD DUP2 DUP2 GT ISZERO PUSH2 0x12D1 JUMPI POP POP POP POP POP POP SWAP1 JUMP JUMPDEST DUP5 RETURNDATASIZE DUP8 ADD ADD PUSH1 0x20 DUP3 DUP6 ADD ADD GT ISZERO PUSH2 0x12EB JUMPI POP POP POP POP POP POP SWAP1 JUMP JUMPDEST PUSH2 0x12FA PUSH1 0x20 DUP3 DUP7 ADD ADD DUP8 PUSH2 0xCC3 JUMP JUMPDEST POP SWAP1 SWAP6 SWAP5 POP POP POP POP POP JUMP JUMPDEST PUSH1 0x20 DUP1 DUP3 MSTORE PUSH1 0x28 SWAP1 DUP3 ADD MSTORE PUSH32 0x455243313135353A204552433131353552656365697665722072656A65637465 PUSH1 0x40 DUP3 ADD MSTORE PUSH8 0x6420746F6B656E73 PUSH1 0xC0 SHL PUSH1 0x60 DUP3 ADD MSTORE PUSH1 0x80 ADD SWAP1 JUMP JUMPDEST PUSH1 0x1 PUSH1 0x1 PUSH1 0xA0 SHL SUB DUP7 DUP2 AND DUP3 MSTORE DUP6 AND PUSH1 0x20 DUP3 ADD MSTORE PUSH1 0x40 DUP2 ADD DUP5 SWAP1 MSTORE PUSH1 0x60 DUP2 ADD DUP4 SWAP1 MSTORE PUSH1 0xA0 PUSH1 0x80 DUP3 ADD DUP2 SWAP1 MSTORE PUSH1 0x0 SWAP1 PUSH2 0x1387 SWAP1 DUP4 ADD DUP5 PUSH2 0xC4D JUMP JUMPDEST SWAP8 SWAP7 POP POP POP POP POP POP POP JUMP INVALID LOG2 PUSH5 0x6970667358 0x22 SLT KECCAK256 ISZERO 0xC1 PUSH32 0x8C735EE47AC181C159583274B3F4818FF013FF72A0F9128D7E14FB9AEA64736F PUSH13 0x634300080D0033000000000000 "
				},
				"gasEstimates": {
					"creation": {
						"codeDepositCost": "1012800",
						"executionCost": "infinite",
						"totalCost": "infinite"
					},
					"external": {
						"balanceOf(address,uint256)": "2672",
						"balanceOfBatch(address[],uint256[])": "infinite",
						"isApprovedForAll(address,address)": "infinite",
						"safeBatchTransferFrom(address,address,uint256[],uint256[],bytes)": "infinite",
						"safeTransferFrom(address,address,uint256,uint256,bytes)": "infinite",
						"setApprovalForAll(address,bool)": "26705",
						"supportsInterface(bytes4)": "544",
						"uri(uint256)": "infinite"
					},
					"internal": {
						"_afterTokenTransfer(address,address,address,uint256[] memory,uint256[] memory,bytes memory)": "infinite",
						"_asSingletonArray(uint256)": "infinite",
						"_beforeTokenTransfer(address,address,address,uint256[] memory,uint256[] memory,bytes memory)": "infinite",
						"_burn(address,uint256,uint256)": "infinite",
						"_burnBatch(address,uint256[] memory,uint256[] memory)": "infinite",
						"_doSafeBatchTransferAcceptanceCheck(address,address,address,uint256[] memory,uint256[] memory,bytes memory)": "infinite",
						"_doSafeTransferAcceptanceCheck(address,address,address,uint256,uint256,bytes memory)": "infinite",
						"_mint(address,uint256,uint256,bytes memory)": "infinite",
						"_mintBatch(address,uint256[] memory,uint256[] memory,bytes memory)": "infinite",
						"_safeBatchTransferFrom(address,address,uint256[] memory,uint256[] memory,bytes memory)": "infinite",
						"_safeTransferFrom(address,address,uint256,uint256,bytes memory)": "infinite",
						"_setApprovalForAll(address,address,bool)": "infinite",
						"_setURI(string memory)": "infinite"
					}
				},
				"methodIdentifiers": {
					"balanceOf(address,uint256)": "00fdd58e",
					"balanceOfBatch(address[],uint256[])": "4e1273f4",
					"isApprovedForAll(address,address)": "e985e9c5",
					"safeBatchTransferFrom(address,address,uint256[],uint256[],bytes)": "2eb2c2d6",
					"safeTransferFrom(address,address,uint256,uint256,bytes)": "f242432a",
					"setApprovalForAll(address,bool)": "a22cb465",
					"supportsInterface(bytes4)": "01ffc9a7",
					"uri(uint256)": "0e89341c"
				}
			},
			"storageLayout": {
				"storage": [
					{
						"astId": 25,
						"contract": "@openzeppelin/contracts/token/ERC1155/ERC1155.sol:ERC1155",
						"label": "_balances",
						"offset": 0,
						"slot": "0",
						"type": "t_mapping(t_uint256,t_mapping(t_address,t_uint256))"
					},
					{
						"astId": 31,
						"contract": "@openzeppelin/contracts/token/ERC1155/ERC1155.sol:ERC1155",
						"label": "_operatorApprovals",
						"offset": 0,
						"slot": "1",
						"type": "t_mapping(t_address,t_mapping(t_address,t_bool))"
					},
					{
						"astId": 33,
						"contract": "@openzeppelin/contracts/token/ERC1155/ERC1155.sol:ERC1155",
						"label": "_uri",
						"offset": 0,
						"slot": "2",
						"type": "t_string_storage"
					}
				],
				"types": {
					"t_address": {
						"encoding": "inplace",
						"label": "address",
						"numberOfBytes": "20"
					},
					"t_bool": {
						"encoding": "inplace",
						"label": "bool",
						"numberOfBytes": "1"
					},
					"t_mapping(t_address,t_bool)": {
						"encoding": "mapping",
						"key": "t_address",
						"label": "mapping(address => bool)",
						"numberOfBytes": "32",
						"value": "t_bool"
					},
					"t_mapping(t_address,t_mapping(t_address,t_bool))": {
						"encoding": "mapping",
						"key": "t_address",
						"label": "mapping(address => mapping(address => bool))",
						"numberOfBytes": "32",
						"value": "t_mapping(t_address,t_bool)"
					},
					"t_mapping(t_address,t_uint256)": {
						"encoding": "mapping",
						"key": "t_address",
						"label": "mapping(address => uint256)",
						"numberOfBytes": "32",
						"value": "t_uint256"
					},
					"t_mapping(t_uint256,t_mapping(t_address,t_uint256))": {
						"encoding": "mapping",
						"key": "t_uint256",
						"label": "mapping(uint256 => mapping(address => uint256))",
						"numberOfBytes": "32",
						"value": "t_mapping(t_address,t_uint256)"
					},
					"t_string_storage": {
						"encoding": "bytes",
						"label": "string",
						"numberOfBytes": "32"
					},
					"t_uint256": {
						"encoding": "inplace",
						"label": "uint256",
						"numberOfBytes": "32"
					}
				}
			},
			"userdoc": {
				"kind": "user",
				"methods": {},
				"version": 1
			}
		}
	}
}