{
	"contracts/GU-NFT/GUCollections.sol": {
		"GUCollections": {
			"abi": [
				{
					"inputs": [
						{
							"internalType": "string",
							"name": "uri_",
							"type": "string"
						},
						{
							"internalType": "address",
							"name": "safe",
							"type": "address"
						}
					],
					"stateMutability": "nonpayable",
					"type": "constructor"
				},
				{
					"anonymous": false,
					"inputs": [
						{
							"indexed": true,
							"internalType": "address",
							"name": "safeAddress",
							"type": "address"
						}
					],
					"name": "AdminSafeChanged",
					"type": "event"
				},
				{
					"anonymous": false,
					"inputs": [
						{
							"indexed": true,
							"internalType": "address",
							"name": "account",
							"type": "address"
						},
						{
							"indexed": true,
							"internalType": "address",
							"name": "operator",
							"type": "address"
						},
						{
							"indexed": false,
							"internalType": "bool",
							"name": "approved",
							"type": "bool"
						}
					],
					"name": "ApprovalForAll",
					"type": "event"
				},
				{
					"anonymous": false,
					"inputs": [
						{
							"indexed": true,
							"internalType": "address",
							"name": "traderAddress",
							"type": "address"
						}
					],
					"name": "TraderAuthorized",
					"type": "event"
				},
				{
					"anonymous": false,
					"inputs": [
						{
							"indexed": true,
							"internalType": "address",
							"name": "traderAddress",
							"type": "address"
						}
					],
					"name": "TraderDisauthorized",
					"type": "event"
				},
				{
					"anonymous": false,
					"inputs": [
						{
							"indexed": true,
							"internalType": "address",
							"name": "operator",
							"type": "address"
						},
						{
							"indexed": true,
							"internalType": "address",
							"name": "from",
							"type": "address"
						},
						{
							"indexed": true,
							"internalType": "address",
							"name": "to",
							"type": "address"
						},
						{
							"indexed": false,
							"internalType": "uint256[]",
							"name": "ids",
							"type": "uint256[]"
						},
						{
							"indexed": false,
							"internalType": "uint256[]",
							"name": "values",
							"type": "uint256[]"
						}
					],
					"name": "TransferBatch",
					"type": "event"
				},
				{
					"anonymous": false,
					"inputs": [
						{
							"indexed": true,
							"internalType": "address",
							"name": "operator",
							"type": "address"
						},
						{
							"indexed": true,
							"internalType": "address",
							"name": "from",
							"type": "address"
						},
						{
							"indexed": true,
							"internalType": "address",
							"name": "to",
							"type": "address"
						},
						{
							"indexed": false,
							"internalType": "uint256",
							"name": "id",
							"type": "uint256"
						},
						{
							"indexed": false,
							"internalType": "uint256",
							"name": "value",
							"type": "uint256"
						}
					],
					"name": "TransferSingle",
					"type": "event"
				},
				{
					"anonymous": false,
					"inputs": [
						{
							"indexed": false,
							"internalType": "string",
							"name": "value",
							"type": "string"
						},
						{
							"indexed": true,
							"internalType": "uint256",
							"name": "id",
							"type": "uint256"
						}
					],
					"name": "URI",
					"type": "event"
				},
				{
					"inputs": [],
					"name": "adminSafe",
					"outputs": [
						{
							"internalType": "address",
							"name": "",
							"type": "address"
						}
					],
					"stateMutability": "view",
					"type": "function"
				},
				{
					"inputs": [
						{
							"internalType": "address",
							"name": "account",
							"type": "address"
						},
						{
							"internalType": "uint256",
							"name": "id",
							"type": "uint256"
						}
					],
					"name": "balanceOf",
					"outputs": [
						{
							"internalType": "uint256",
							"name": "",
							"type": "uint256"
						}
					],
					"stateMutability": "view",
					"type": "function"
				},
				{
					"inputs": [
						{
							"internalType": "address[]",
							"name": "accounts",
							"type": "address[]"
						},
						{
							"internalType": "uint256[]",
							"name": "ids",
							"type": "uint256[]"
						}
					],
					"name": "balanceOfBatch",
					"outputs": [
						{
							"internalType": "uint256[]",
							"name": "",
							"type": "uint256[]"
						}
					],
					"stateMutability": "view",
					"type": "function"
				},
				{
					"inputs": [],
					"name": "baseURI",
					"outputs": [
						{
							"internalType": "string",
							"name": "",
							"type": "string"
						}
					],
					"stateMutability": "view",
					"type": "function"
				},
				{
					"inputs": [
						{
							"internalType": "address",
							"name": "safe",
							"type": "address"
						}
					],
					"name": "changeAdminSafe",
					"outputs": [],
					"stateMutability": "nonpayable",
					"type": "function"
				},
				{
					"inputs": [
						{
							"internalType": "uint256",
							"name": "id",
							"type": "uint256"
						}
					],
					"name": "exists",
					"outputs": [
						{
							"internalType": "bool",
							"name": "",
							"type": "bool"
						}
					],
					"stateMutability": "view",
					"type": "function"
				},
				{
					"inputs": [
						{
							"internalType": "address",
							"name": "account",
							"type": "address"
						},
						{
							"internalType": "address",
							"name": "operator",
							"type": "address"
						}
					],
					"name": "isApprovedForAll",
					"outputs": [
						{
							"internalType": "bool",
							"name": "",
							"type": "bool"
						}
					],
					"stateMutability": "view",
					"type": "function"
				},
				{
					"inputs": [
						{
							"internalType": "address",
							"name": "to",
							"type": "address"
						},
						{
							"internalType": "uint256",
							"name": "id",
							"type": "uint256"
						},
						{
							"internalType": "uint256",
							"name": "amount",
							"type": "uint256"
						},
						{
							"internalType": "string",
							"name": "cid",
							"type": "string"
						}
					],
					"name": "mint",
					"outputs": [],
					"stateMutability": "nonpayable",
					"type": "function"
				},
				{
					"inputs": [
						{
							"internalType": "address",
							"name": "from",
							"type": "address"
						},
						{
							"internalType": "address",
							"name": "to",
							"type": "address"
						},
						{
							"internalType": "uint256[]",
							"name": "ids",
							"type": "uint256[]"
						},
						{
							"internalType": "uint256[]",
							"name": "amounts",
							"type": "uint256[]"
						},
						{
							"internalType": "bytes",
							"name": "data",
							"type": "bytes"
						}
					],
					"name": "safeBatchTransferFrom",
					"outputs": [],
					"stateMutability": "nonpayable",
					"type": "function"
				},
				{
					"inputs": [
						{
							"internalType": "address",
							"name": "from",
							"type": "address"
						},
						{
							"internalType": "address",
							"name": "to",
							"type": "address"
						},
						{
							"internalType": "uint256",
							"name": "id",
							"type": "uint256"
						},
						{
							"internalType": "uint256",
							"name": "amount",
							"type": "uint256"
						},
						{
							"internalType": "bytes",
							"name": "data",
							"type": "bytes"
						}
					],
					"name": "safeTransferFrom",
					"outputs": [],
					"stateMutability": "nonpayable",
					"type": "function"
				},
				{
					"inputs": [
						{
							"internalType": "address",
							"name": "operator",
							"type": "address"
						},
						{
							"internalType": "bool",
							"name": "approved",
							"type": "bool"
						}
					],
					"name": "setApprovalForAll",
					"outputs": [],
					"stateMutability": "nonpayable",
					"type": "function"
				},
				{
					"inputs": [
						{
							"internalType": "string",
							"name": "baseURI",
							"type": "string"
						}
					],
					"name": "setBaseURI",
					"outputs": [],
					"stateMutability": "nonpayable",
					"type": "function"
				},
				{
					"inputs": [
						{
							"internalType": "address",
							"name": "trader",
							"type": "address"
						},
						{
							"internalType": "bool",
							"name": "permitted",
							"type": "bool"
						}
					],
					"name": "setTraderPermission",
					"outputs": [],
					"stateMutability": "nonpayable",
					"type": "function"
				},
				{
					"inputs": [
						{
							"internalType": "bytes4",
							"name": "interfaceId",
							"type": "bytes4"
						}
					],
					"name": "supportsInterface",
					"outputs": [
						{
							"internalType": "bool",
							"name": "",
							"type": "bool"
						}
					],
					"stateMutability": "view",
					"type": "function"
				},
				{
					"inputs": [
						{
							"internalType": "uint256",
							"name": "id",
							"type": "uint256"
						}
					],
					"name": "tokenURIs",
					"outputs": [
						{
							"internalType": "string",
							"name": "",
							"type": "string"
						}
					],
					"stateMutability": "view",
					"type": "function"
				},
				{
					"inputs": [
						{
							"internalType": "uint256",
							"name": "id",
							"type": "uint256"
						}
					],
					"name": "totalSupply",
					"outputs": [
						{
							"internalType": "uint256",
							"name": "",
							"type": "uint256"
						}
					],
					"stateMutability": "view",
					"type": "function"
				},
				{
					"inputs": [
						{
							"internalType": "uint256",
							"name": "tokenId",
							"type": "uint256"
						}
					],
					"name": "uri",
					"outputs": [
						{
							"internalType": "string",
							"name": "",
							"type": "string"
						}
					],
					"stateMutability": "view",
					"type": "function"
				}
			],
			"devdoc": {
				"kind": "dev",
				"methods": {
					"balanceOf(address,uint256)": {
						"details": "See {IERC1155-balanceOf}. Requirements: - `account` cannot be the zero address."
					},
					"balanceOfBatch(address[],uint256[])": {
						"details": "See {IERC1155-balanceOfBatch}. Requirements: - `accounts` and `ids` must have the same length."
					},
					"exists(uint256)": {
						"details": "Indicates whether any token exist with a given id, or not."
					},
					"isApprovedForAll(address,address)": {
						"details": "See {IERC1155-isApprovedForAll}."
					},
					"safeBatchTransferFrom(address,address,uint256[],uint256[],bytes)": {
						"details": "See {IERC1155-safeBatchTransferFrom}."
					},
					"safeTransferFrom(address,address,uint256,uint256,bytes)": {
						"details": "See {IERC1155-safeTransferFrom}."
					},
					"setApprovalForAll(address,bool)": {
						"details": "See {IERC1155-setApprovalForAll}."
					},
					"supportsInterface(bytes4)": {
						"details": "See {IERC165-supportsInterface}."
					},
					"totalSupply(uint256)": {
						"details": "Total amount of tokens in with a given id."
					}
				},
				"version": 1
			},
			"evm": {
				"assembly": "    /* \"contracts/GU-NFT/ERC1155URIStorage.sol\":543:571  string private _baseURI = \"\" */\n  0xa0\n    /* \"contracts/GU-NFT/GUCollections.sol\":323:2299  contract GUCollections is ERC1155Supply, ERC1155URIStorage {... */\n  0x40\n    /* \"contracts/GU-NFT/ERC1155URIStorage.sol\":543:571  string private _baseURI = \"\" */\n  dup2\n  swap1\n  mstore\n  0x00\n    /* \"contracts/GU-NFT/GUCollections.sol\":323:2299  contract GUCollections is ERC1155Supply, ERC1155URIStorage {... */\n  0x80\n    /* \"contracts/GU-NFT/ERC1155URIStorage.sol\":543:571  string private _baseURI = \"\" */\n  dup2\n  swap1\n  mstore\n  tag_1\n  swap2\n  0x04\n  swap2\n  tag_2\n  jump\t// in\ntag_1:\n  pop\n    /* \"contracts/GU-NFT/GUCollections.sol\":881:976  constructor(string memory uri_, address safe) ERC1155(uri_) {... */\n  callvalue\n  dup1\n  iszero\n  tag_3\n  jumpi\n  0x00\n  dup1\n  revert\ntag_3:\n  pop\n  mload(0x40)\n  sub(codesize, bytecodeSize)\n  dup1\n  bytecodeSize\n  dup4\n  codecopy\n  dup2\n  add\n  0x40\n  dup2\n  swap1\n  mstore\n  tag_4\n  swap2\n  tag_5\n  jump\t// in\ntag_4:\n    /* \"contracts/GU-NFT/GUCollections.sol\":935:939  uri_ */\n  dup2\n    /* \"@openzeppelin/contracts/token/ERC1155/ERC1155.sol\":1149:1162  _setURI(uri_) */\n  tag_9\n    /* \"contracts/GU-NFT/GUCollections.sol\":935:939  uri_ */\n  dup2\n    /* \"@openzeppelin/contracts/token/ERC1155/ERC1155.sol\":1149:1156  _setURI */\n  tag_10\n    /* \"@openzeppelin/contracts/token/ERC1155/ERC1155.sol\":1149:1162  _setURI(uri_) */\n  jump\t// in\ntag_9:\n  pop\n    /* \"contracts/GU-NFT/GUCollections.sol\":952:961  adminSafe */\n  0x07\n    /* \"contracts/GU-NFT/GUCollections.sol\":952:968  adminSafe = safe */\n  dup1\n  sload\n  not(sub(shl(0xa0, 0x01), 0x01))\n  and\n  sub(shl(0xa0, 0x01), 0x01)\n  swap3\n  swap1\n  swap3\n  and\n  swap2\n  swap1\n  swap2\n  or\n  swap1\n  sstore\n  pop\n    /* \"contracts/GU-NFT/GUCollections.sol\":323:2299  contract GUCollections is ERC1155Supply, ERC1155URIStorage {... */\n  jump(tag_28)\n    /* \"@openzeppelin/contracts/token/ERC1155/ERC1155.sol\":8171:8257  function _setURI(string memory newuri) internal virtual {... */\ntag_10:\n    /* \"@openzeppelin/contracts/token/ERC1155/ERC1155.sol\":8237:8250  _uri = newuri */\n  dup1\n  mload\n  tag_14\n  swap1\n    /* \"@openzeppelin/contracts/token/ERC1155/ERC1155.sol\":8237:8241  _uri */\n  0x02\n  swap1\n    /* \"@openzeppelin/contracts/token/ERC1155/ERC1155.sol\":8237:8250  _uri = newuri */\n  0x20\n  dup5\n  add\n  swap1\n  tag_2\n  jump\t// in\ntag_14:\n  pop\n    /* \"@openzeppelin/contracts/token/ERC1155/ERC1155.sol\":8171:8257  function _setURI(string memory newuri) internal virtual {... */\n  pop\n  jump\t// out\n    /* \"contracts/GU-NFT/GUCollections.sol\":323:2299  contract GUCollections is ERC1155Supply, ERC1155URIStorage {... */\ntag_2:\n  dup3\n  dup1\n  sload\n  tag_15\n  swap1\n  tag_16\n  jump\t// in\ntag_15:\n  swap1\n  0x00\n  mstore\n  keccak256(0x00, 0x20)\n  swap1\n  0x1f\n  add\n  0x20\n  swap1\n  div\n  dup2\n  add\n  swap3\n  dup3\n  tag_18\n  jumpi\n  0x00\n  dup6\n  sstore\n  jump(tag_21)\ntag_18:\n  dup3\n  0x1f\n  lt\n  tag_19\n  jumpi\n  dup1\n  mload\n  not(0xff)\n  and\n  dup4\n  dup1\n  add\n  or\n  dup6\n  sstore\n  jump(tag_21)\ntag_19:\n  dup3\n  dup1\n  add\n  0x01\n  add\n  dup6\n  sstore\n  dup3\n  iszero\n  tag_21\n  jumpi\n  swap2\n  dup3\n  add\ntag_20:\n  dup3\n  dup2\n  gt\n  iszero\n  tag_21\n  jumpi\n  dup3\n  mload\n  dup3\n  sstore\n  swap2\n  0x20\n  add\n  swap2\n  swap1\n  0x01\n  add\n  swap1\n  jump(tag_20)\ntag_21:\n  pop\n  tag_22\n  swap3\n  swap2\n  pop\n  tag_23\n  jump\t// in\ntag_22:\n  pop\n  swap1\n  jump\t// out\ntag_23:\ntag_24:\n  dup1\n  dup3\n  gt\n  iszero\n  tag_22\n  jumpi\n  0x00\n  dup2\n  sstore\n  0x01\n  add\n  jump(tag_24)\n    /* \"#utility.yul\":14:141   */\ntag_26:\n    /* \"#utility.yul\":75:85   */\n  0x4e487b71\n    /* \"#utility.yul\":70:73   */\n  0xe0\n    /* \"#utility.yul\":66:86   */\n  shl\n    /* \"#utility.yul\":63:64   */\n  0x00\n    /* \"#utility.yul\":56:87   */\n  mstore\n    /* \"#utility.yul\":106:110   */\n  0x41\n    /* \"#utility.yul\":103:104   */\n  0x04\n    /* \"#utility.yul\":96:111   */\n  mstore\n    /* \"#utility.yul\":130:134   */\n  0x24\n    /* \"#utility.yul\":127:128   */\n  0x00\n    /* \"#utility.yul\":120:135   */\n  revert\n    /* \"#utility.yul\":146:323   */\ntag_27:\n    /* \"#utility.yul\":225:238   */\n  dup1\n  mload\n  sub(shl(0xa0, 0x01), 0x01)\n    /* \"#utility.yul\":267:298   */\n  dup2\n  and\n    /* \"#utility.yul\":257:299   */\n  dup2\n  eq\n    /* \"#utility.yul\":247:317   */\n  tag_31\n  jumpi\n    /* \"#utility.yul\":313:314   */\n  0x00\n    /* \"#utility.yul\":310:311   */\n  dup1\n    /* \"#utility.yul\":303:315   */\n  revert\n    /* \"#utility.yul\":247:317   */\ntag_31:\n    /* \"#utility.yul\":146:323   */\n  swap2\n  swap1\n  pop\n  jump\t// out\n    /* \"#utility.yul\":328:1502   */\ntag_5:\n    /* \"#utility.yul\":417:423   */\n  0x00\n    /* \"#utility.yul\":425:431   */\n  dup1\n    /* \"#utility.yul\":478:480   */\n  0x40\n    /* \"#utility.yul\":466:475   */\n  dup4\n    /* \"#utility.yul\":457:464   */\n  dup6\n    /* \"#utility.yul\":453:476   */\n  sub\n    /* \"#utility.yul\":449:481   */\n  slt\n    /* \"#utility.yul\":446:498   */\n  iszero\n  tag_33\n  jumpi\n    /* \"#utility.yul\":494:495   */\n  0x00\n    /* \"#utility.yul\":491:492   */\n  dup1\n    /* \"#utility.yul\":484:496   */\n  revert\n    /* \"#utility.yul\":446:498   */\ntag_33:\n    /* \"#utility.yul\":521:537   */\n  dup3\n  mload\n  sub(shl(0x40, 0x01), 0x01)\n    /* \"#utility.yul\":586:600   */\n  dup1\n  dup3\n  gt\n    /* \"#utility.yul\":583:617   */\n  iszero\n  tag_34\n  jumpi\n    /* \"#utility.yul\":613:614   */\n  0x00\n    /* \"#utility.yul\":610:611   */\n  dup1\n    /* \"#utility.yul\":603:615   */\n  revert\n    /* \"#utility.yul\":583:617   */\ntag_34:\n    /* \"#utility.yul\":651:657   */\n  dup2\n    /* \"#utility.yul\":640:649   */\n  dup6\n    /* \"#utility.yul\":636:658   */\n  add\n    /* \"#utility.yul\":626:658   */\n  swap2\n  pop\n    /* \"#utility.yul\":696:703   */\n  dup6\n    /* \"#utility.yul\":689:693   */\n  0x1f\n    /* \"#utility.yul\":685:687   */\n  dup4\n    /* \"#utility.yul\":681:694   */\n  add\n    /* \"#utility.yul\":677:704   */\n  slt\n    /* \"#utility.yul\":667:722   */\n  tag_35\n  jumpi\n    /* \"#utility.yul\":718:719   */\n  0x00\n    /* \"#utility.yul\":715:716   */\n  dup1\n    /* \"#utility.yul\":708:720   */\n  revert\n    /* \"#utility.yul\":667:722   */\ntag_35:\n    /* \"#utility.yul\":747:749   */\n  dup2\n    /* \"#utility.yul\":741:750   */\n  mload\n    /* \"#utility.yul\":769:771   */\n  dup2\n    /* \"#utility.yul\":765:767   */\n  dup2\n    /* \"#utility.yul\":762:772   */\n  gt\n    /* \"#utility.yul\":759:795   */\n  iszero\n  tag_37\n  jumpi\n    /* \"#utility.yul\":775:793   */\n  tag_37\n  tag_26\n  jump\t// in\ntag_37:\n    /* \"#utility.yul\":850:852   */\n  0x40\n    /* \"#utility.yul\":844:853   */\n  mload\n    /* \"#utility.yul\":818:820   */\n  0x1f\n    /* \"#utility.yul\":904:917   */\n  dup3\n  add\n  not(0x1f)\n    /* \"#utility.yul\":900:922   */\n  swap1\n  dup2\n  and\n    /* \"#utility.yul\":924:926   */\n  0x3f\n    /* \"#utility.yul\":896:927   */\n  add\n    /* \"#utility.yul\":892:932   */\n  and\n    /* \"#utility.yul\":880:933   */\n  dup2\n  add\n  swap1\n    /* \"#utility.yul\":948:966   */\n  dup4\n  dup3\n  gt\n    /* \"#utility.yul\":968:990   */\n  dup2\n  dup4\n  lt\n    /* \"#utility.yul\":945:991   */\n  or\n    /* \"#utility.yul\":942:1014   */\n  iszero\n  tag_39\n  jumpi\n    /* \"#utility.yul\":994:1012   */\n  tag_39\n  tag_26\n  jump\t// in\ntag_39:\n    /* \"#utility.yul\":1034:1044   */\n  dup2\n    /* \"#utility.yul\":1030:1032   */\n  0x40\n    /* \"#utility.yul\":1023:1045   */\n  mstore\n    /* \"#utility.yul\":1069:1071   */\n  dup3\n    /* \"#utility.yul\":1061:1067   */\n  dup2\n    /* \"#utility.yul\":1054:1072   */\n  mstore\n    /* \"#utility.yul\":1091:1095   */\n  0x20\n    /* \"#utility.yul\":1081:1095   */\n  swap4\n  pop\n    /* \"#utility.yul\":1132:1139   */\n  dup9\n    /* \"#utility.yul\":1127:1129   */\n  dup5\n    /* \"#utility.yul\":1122:1124   */\n  dup5\n    /* \"#utility.yul\":1118:1120   */\n  dup8\n    /* \"#utility.yul\":1114:1125   */\n  add\n    /* \"#utility.yul\":1110:1130   */\n  add\n    /* \"#utility.yul\":1107:1140   */\n  gt\n    /* \"#utility.yul\":1104:1157   */\n  iszero\n  tag_40\n  jumpi\n    /* \"#utility.yul\":1153:1154   */\n  0x00\n    /* \"#utility.yul\":1150:1151   */\n  dup1\n    /* \"#utility.yul\":1143:1155   */\n  revert\n    /* \"#utility.yul\":1104:1157   */\ntag_40:\n    /* \"#utility.yul\":1175:1176   */\n  0x00\n    /* \"#utility.yul\":1166:1176   */\n  swap2\n  pop\n    /* \"#utility.yul\":1185:1314   */\ntag_41:\n    /* \"#utility.yul\":1199:1201   */\n  dup3\n    /* \"#utility.yul\":1196:1197   */\n  dup3\n    /* \"#utility.yul\":1193:1202   */\n  lt\n    /* \"#utility.yul\":1185:1314   */\n  iszero\n  tag_43\n  jumpi\n    /* \"#utility.yul\":1287:1297   */\n  dup5\n  dup3\n  add\n    /* \"#utility.yul\":1283:1302   */\n  dup5\n  add\n    /* \"#utility.yul\":1277:1303   */\n  mload\n    /* \"#utility.yul\":1256:1270   */\n  dup2\n  dup4\n  add\n    /* \"#utility.yul\":1252:1275   */\n  dup6\n  add\n    /* \"#utility.yul\":1245:1304   */\n  mstore\n    /* \"#utility.yul\":1210:1220   */\n  swap1\n  dup4\n  add\n  swap1\n    /* \"#utility.yul\":1185:1314   */\n  jump(tag_41)\ntag_43:\n    /* \"#utility.yul\":1332:1334   */\n  dup3\n    /* \"#utility.yul\":1329:1330   */\n  dup3\n    /* \"#utility.yul\":1326:1335   */\n  gt\n    /* \"#utility.yul\":1323:1403   */\n  iszero\n  tag_44\n  jumpi\n    /* \"#utility.yul\":1391:1392   */\n  0x00\n    /* \"#utility.yul\":1386:1388   */\n  dup5\n    /* \"#utility.yul\":1381:1383   */\n  dup5\n    /* \"#utility.yul\":1373:1379   */\n  dup4\n    /* \"#utility.yul\":1369:1384   */\n  add\n    /* \"#utility.yul\":1365:1389   */\n  add\n    /* \"#utility.yul\":1358:1393   */\n  mstore\n    /* \"#utility.yul\":1323:1403   */\ntag_44:\n    /* \"#utility.yul\":1422:1428   */\n  swap6\n  pop\n    /* \"#utility.yul\":1447:1496   */\n  tag_45\n  swap2\n  pop\n  pop\n    /* \"#utility.yul\":1477:1495   */\n  dup6\n  dup3\n  add\n    /* \"#utility.yul\":1447:1496   */\n  tag_27\n  jump\t// in\ntag_45:\n    /* \"#utility.yul\":1437:1496   */\n  swap3\n  pop\n  pop\n  pop\n    /* \"#utility.yul\":328:1502   */\n  swap3\n  pop\n  swap3\n  swap1\n  pop\n  jump\t// out\n    /* \"#utility.yul\":1507:1887   */\ntag_16:\n    /* \"#utility.yul\":1586:1587   */\n  0x01\n    /* \"#utility.yul\":1582:1594   */\n  dup2\n  dup2\n  shr\n  swap1\n    /* \"#utility.yul\":1629:1641   */\n  dup3\n  and\n  dup1\n    /* \"#utility.yul\":1650:1711   */\n  tag_47\n  jumpi\n    /* \"#utility.yul\":1704:1708   */\n  0x7f\n    /* \"#utility.yul\":1696:1702   */\n  dup3\n    /* \"#utility.yul\":1692:1709   */\n  and\n    /* \"#utility.yul\":1682:1709   */\n  swap2\n  pop\n    /* \"#utility.yul\":1650:1711   */\ntag_47:\n    /* \"#utility.yul\":1757:1759   */\n  0x20\n    /* \"#utility.yul\":1749:1755   */\n  dup3\n    /* \"#utility.yul\":1746:1760   */\n  lt\n    /* \"#utility.yul\":1726:1744   */\n  dup2\n    /* \"#utility.yul\":1723:1761   */\n  sub\n    /* \"#utility.yul\":1720:1881   */\n  tag_48\n  jumpi\n    /* \"#utility.yul\":1803:1813   */\n  0x4e487b71\n    /* \"#utility.yul\":1798:1801   */\n  0xe0\n    /* \"#utility.yul\":1794:1814   */\n  shl\n    /* \"#utility.yul\":1791:1792   */\n  0x00\n    /* \"#utility.yul\":1784:1815   */\n  mstore\n    /* \"#utility.yul\":1838:1842   */\n  0x22\n    /* \"#utility.yul\":1835:1836   */\n  0x04\n    /* \"#utility.yul\":1828:1843   */\n  mstore\n    /* \"#utility.yul\":1866:1870   */\n  0x24\n    /* \"#utility.yul\":1863:1864   */\n  0x00\n    /* \"#utility.yul\":1856:1871   */\n  revert\n    /* \"#utility.yul\":1720:1881   */\ntag_48:\n  pop\n    /* \"#utility.yul\":1507:1887   */\n  swap2\n  swap1\n  pop\n  jump\t// out\ntag_28:\n    /* \"contracts/GU-NFT/GUCollections.sol\":323:2299  contract GUCollections is ERC1155Supply, ERC1155URIStorage {... */\n  dataSize(sub_0)\n  dup1\n  dataOffset(sub_0)\n  0x00\n  codecopy\n  0x00\n  return\nstop\n\nsub_0: assembly {\n        /* \"contracts/GU-NFT/GUCollections.sol\":323:2299  contract GUCollections is ERC1155Supply, ERC1155URIStorage {... */\n      mstore(0x40, 0x80)\n      callvalue\n      dup1\n      iszero\n      tag_1\n      jumpi\n      0x00\n      dup1\n      revert\n    tag_1:\n      pop\n      jumpi(tag_2, lt(calldatasize, 0x04))\n      shr(0xe0, calldataload(0x00))\n      dup1\n      0x6c0360eb\n      gt\n      tag_20\n      jumpi\n      dup1\n      0xbd85b039\n      gt\n      tag_21\n      jumpi\n      dup1\n      0xd14186c6\n      gt\n      tag_22\n      jumpi\n      dup1\n      0xd14186c6\n      eq\n      tag_17\n      jumpi\n      dup1\n      0xe985e9c5\n      eq\n      tag_18\n      jumpi\n      dup1\n      0xf242432a\n      eq\n      tag_19\n      jumpi\n      0x00\n      dup1\n      revert\n    tag_22:\n      dup1\n      0xbd85b039\n      eq\n      tag_15\n      jumpi\n      dup1\n      0xcb450772\n      eq\n      tag_16\n      jumpi\n      0x00\n      dup1\n      revert\n    tag_21:\n      dup1\n      0x6c0360eb\n      eq\n      tag_11\n      jumpi\n      dup1\n      0x6c8b703f\n      eq\n      tag_12\n      jumpi\n      dup1\n      0xa22cb465\n      eq\n      tag_13\n      jumpi\n      dup1\n      0xbb7fde71\n      eq\n      tag_14\n      jumpi\n      0x00\n      dup1\n      revert\n    tag_20:\n      dup1\n      0x4b8c9c2d\n      gt\n      tag_23\n      jumpi\n      dup1\n      0x4b8c9c2d\n      eq\n      tag_7\n      jumpi\n      dup1\n      0x4e1273f4\n      eq\n      tag_8\n      jumpi\n      dup1\n      0x4f558e79\n      eq\n      tag_9\n      jumpi\n      dup1\n      0x55f804b3\n      eq\n      tag_10\n      jumpi\n      0x00\n      dup1\n      revert\n    tag_23:\n      dup1\n      0xfdd58e\n      eq\n      tag_3\n      jumpi\n      dup1\n      0x01ffc9a7\n      eq\n      tag_4\n      jumpi\n      dup1\n      0x0e89341c\n      eq\n      tag_5\n      jumpi\n      dup1\n      0x2eb2c2d6\n      eq\n      tag_6\n      jumpi\n    tag_2:\n      0x00\n      dup1\n      revert\n        /* \"@openzeppelin/contracts/token/ERC1155/ERC1155.sol\":2185:2413  function balanceOf(address account, uint256 id) public view virtual override returns (uint256) {... */\n    tag_3:\n      tag_24\n      tag_25\n      calldatasize\n      0x04\n      tag_26\n      jump\t// in\n    tag_25:\n      tag_27\n      jump\t// in\n    tag_24:\n      mload(0x40)\n        /* \"#utility.yul\":620:645   */\n      swap1\n      dup2\n      mstore\n        /* \"#utility.yul\":608:610   */\n      0x20\n        /* \"#utility.yul\":593:611   */\n      add\n        /* \"@openzeppelin/contracts/token/ERC1155/ERC1155.sol\":2185:2413  function balanceOf(address account, uint256 id) public view virtual override returns (uint256) {... */\n    tag_28:\n      mload(0x40)\n      dup1\n      swap2\n      sub\n      swap1\n      return\n        /* \"@openzeppelin/contracts/token/ERC1155/ERC1155.sol\":1236:1541  function supportsInterface(bytes4 interfaceId) public view virtual override(ERC165, IERC165) returns (bool) {... */\n    tag_4:\n      tag_30\n      tag_31\n      calldatasize\n      0x04\n      tag_32\n      jump\t// in\n    tag_31:\n      tag_33\n      jump\t// in\n    tag_30:\n      mload(0x40)\n        /* \"#utility.yul\":1253:1267   */\n      swap1\n      iszero\n        /* \"#utility.yul\":1246:1268   */\n      iszero\n        /* \"#utility.yul\":1228:1269   */\n      dup2\n      mstore\n        /* \"#utility.yul\":1216:1218   */\n      0x20\n        /* \"#utility.yul\":1201:1219   */\n      add\n        /* \"@openzeppelin/contracts/token/ERC1155/ERC1155.sol\":1236:1541  function supportsInterface(bytes4 interfaceId) public view virtual override(ERC165, IERC165) returns (bool) {... */\n      tag_28\n        /* \"#utility.yul\":1088:1275   */\n      jump\n        /* \"contracts/GU-NFT/GUCollections.sol\":1450:1748  function uri(uint256 tokenId) public view override(ERC1155URIStorage, ERC1155) returns (string memory) {... */\n    tag_5:\n      tag_36\n      tag_37\n      calldatasize\n      0x04\n      tag_38\n      jump\t// in\n    tag_37:\n      tag_39\n      jump\t// in\n    tag_36:\n      mload(0x40)\n      tag_28\n      swap2\n      swap1\n      tag_41\n      jump\t// in\n        /* \"@openzeppelin/contracts/token/ERC1155/ERC1155.sol\":4060:4490  function safeBatchTransferFrom(... */\n    tag_6:\n      tag_42\n      tag_43\n      calldatasize\n      0x04\n      tag_44\n      jump\t// in\n    tag_43:\n      tag_45\n      jump\t// in\n    tag_42:\n      stop\n        /* \"contracts/GU-NFT/GUCollections.sol\":429:453  address public adminSafe */\n    tag_7:\n      sload(0x07)\n      tag_46\n      swap1\n      0xffffffffffffffffffffffffffffffffffffffff\n      and\n      dup2\n      jump\n    tag_46:\n      mload(0x40)\n        /* \"#utility.yul\":5459:5501   */\n      0xffffffffffffffffffffffffffffffffffffffff\n        /* \"#utility.yul\":5447:5502   */\n      swap1\n      swap2\n      and\n        /* \"#utility.yul\":5429:5503   */\n      dup2\n      mstore\n        /* \"#utility.yul\":5417:5419   */\n      0x20\n        /* \"#utility.yul\":5402:5420   */\n      add\n        /* \"contracts/GU-NFT/GUCollections.sol\":429:453  address public adminSafe */\n      tag_28\n        /* \"#utility.yul\":5283:5509   */\n      jump\n        /* \"@openzeppelin/contracts/token/ERC1155/ERC1155.sol\":2570:3078  function balanceOfBatch(address[] memory accounts, uint256[] memory ids)... */\n    tag_8:\n      tag_50\n      tag_51\n      calldatasize\n      0x04\n      tag_52\n      jump\t// in\n    tag_51:\n      tag_53\n      jump\t// in\n    tag_50:\n      mload(0x40)\n      tag_28\n      swap2\n      swap1\n      tag_55\n      jump\t// in\n        /* \"@openzeppelin/contracts/token/ERC1155/extensions/ERC1155Supply.sol\":901:1021  function exists(uint256 id) public view virtual returns (bool) {... */\n    tag_9:\n      tag_30\n      tag_57\n      calldatasize\n      0x04\n      tag_38\n      jump\t// in\n    tag_57:\n        /* \"@openzeppelin/contracts/token/ERC1155/extensions/ERC1155Supply.sol\":958:962  bool */\n      0x00\n        /* \"@openzeppelin/contracts/token/ERC1155/extensions/ERC1155Supply.sol\":785:801  _totalSupply[id] */\n      swap1\n      dup2\n      mstore\n        /* \"@openzeppelin/contracts/token/ERC1155/extensions/ERC1155Supply.sol\":785:797  _totalSupply */\n      0x03\n        /* \"@openzeppelin/contracts/token/ERC1155/extensions/ERC1155Supply.sol\":785:801  _totalSupply[id] */\n      0x20\n      mstore\n      0x40\n      swap1\n      keccak256\n      sload\n      iszero\n      iszero\n      swap1\n        /* \"@openzeppelin/contracts/token/ERC1155/extensions/ERC1155Supply.sol\":901:1021  function exists(uint256 id) public view virtual returns (bool) {... */\n      jump\n        /* \"contracts/GU-NFT/GUCollections.sol\":1756:1863  function setBaseURI(string calldata baseURI) external onlyAdminSafe {... */\n    tag_10:\n      tag_42\n      tag_61\n      calldatasize\n      0x04\n      tag_62\n      jump\t// in\n    tag_61:\n      tag_63\n      jump\t// in\n        /* \"contracts/GU-NFT/ERC1155URIStorage.sol\":794:888  function baseURI() public view returns (string memory)... */\n    tag_11:\n      tag_36\n      tag_65\n      jump\t// in\n        /* \"contracts/GU-NFT/ERC1155URIStorage.sol\":674:786  function tokenURIs(uint256 id) public view returns (string memory)... */\n    tag_12:\n      tag_36\n      tag_68\n      calldatasize\n      0x04\n      tag_38\n      jump\t// in\n    tag_68:\n      tag_69\n      jump\t// in\n        /* \"@openzeppelin/contracts/token/ERC1155/ERC1155.sol\":3146:3299  function setApprovalForAll(address operator, bool approved) public virtual override {... */\n    tag_13:\n      tag_42\n      tag_72\n      calldatasize\n      0x04\n      tag_73\n      jump\t// in\n    tag_72:\n      tag_74\n      jump\t// in\n        /* \"contracts/GU-NFT/GUCollections.sol\":2066:2294  function mint(address to, uint256 id, uint256 amount, string calldata cid) external onlyTraders {... */\n    tag_14:\n      tag_42\n      tag_76\n      calldatasize\n      0x04\n      tag_77\n      jump\t// in\n    tag_76:\n      tag_78\n      jump\t// in\n        /* \"@openzeppelin/contracts/token/ERC1155/extensions/ERC1155Supply.sol\":697:808  function totalSupply(uint256 id) public view virtual returns (uint256) {... */\n    tag_15:\n      tag_24\n      tag_80\n      calldatasize\n      0x04\n      tag_38\n      jump\t// in\n    tag_80:\n        /* \"@openzeppelin/contracts/token/ERC1155/extensions/ERC1155Supply.sol\":759:766  uint256 */\n      0x00\n        /* \"@openzeppelin/contracts/token/ERC1155/extensions/ERC1155Supply.sol\":785:801  _totalSupply[id] */\n      swap1\n      dup2\n      mstore\n        /* \"@openzeppelin/contracts/token/ERC1155/extensions/ERC1155Supply.sol\":785:797  _totalSupply */\n      0x03\n        /* \"@openzeppelin/contracts/token/ERC1155/extensions/ERC1155Supply.sol\":785:801  _totalSupply[id] */\n      0x20\n      mstore\n      0x40\n      swap1\n      keccak256\n      sload\n      swap1\n        /* \"@openzeppelin/contracts/token/ERC1155/extensions/ERC1155Supply.sol\":697:808  function totalSupply(uint256 id) public view virtual returns (uint256) {... */\n      jump\n        /* \"contracts/GU-NFT/GUCollections.sol\":984:1198  function changeAdminSafe(address safe) public onlyAdminSafe... */\n    tag_16:\n      tag_42\n      tag_84\n      calldatasize\n      0x04\n      tag_85\n      jump\t// in\n    tag_84:\n      tag_86\n      jump\t// in\n        /* \"contracts/GU-NFT/GUCollections.sol\":1206:1442  function setTraderPermission(address trader, bool permitted) external onlyAdminSafe... */\n    tag_17:\n      tag_42\n      tag_88\n      calldatasize\n      0x04\n      tag_73\n      jump\t// in\n    tag_88:\n      tag_89\n      jump\t// in\n        /* \"@openzeppelin/contracts/token/ERC1155/ERC1155.sol\":3366:3532  function isApprovedForAll(address account, address operator) public view virtual override returns (bool) {... */\n    tag_18:\n      tag_30\n      tag_91\n      calldatasize\n      0x04\n      tag_92\n      jump\t// in\n    tag_91:\n        /* \"@openzeppelin/contracts/token/ERC1155/ERC1155.sol\":3488:3515  _operatorApprovals[account] */\n      0xffffffffffffffffffffffffffffffffffffffff\n      swap2\n      dup3\n      and\n        /* \"@openzeppelin/contracts/token/ERC1155/ERC1155.sol\":3465:3469  bool */\n      0x00\n        /* \"@openzeppelin/contracts/token/ERC1155/ERC1155.sol\":3488:3515  _operatorApprovals[account] */\n      swap1\n      dup2\n      mstore\n        /* \"@openzeppelin/contracts/token/ERC1155/ERC1155.sol\":3488:3506  _operatorApprovals */\n      0x01\n        /* \"@openzeppelin/contracts/token/ERC1155/ERC1155.sol\":3488:3515  _operatorApprovals[account] */\n      0x20\n      swap1\n      dup2\n      mstore\n      0x40\n      dup1\n      dup4\n      keccak256\n        /* \"@openzeppelin/contracts/token/ERC1155/ERC1155.sol\":3488:3525  _operatorApprovals[account][operator] */\n      swap4\n      swap1\n      swap5\n      and\n      dup3\n      mstore\n      swap2\n      swap1\n      swap2\n      mstore\n      keccak256\n      sload\n      0xff\n      and\n      swap1\n        /* \"@openzeppelin/contracts/token/ERC1155/ERC1155.sol\":3366:3532  function isApprovedForAll(address account, address operator) public view virtual override returns (bool) {... */\n      jump\n        /* \"@openzeppelin/contracts/token/ERC1155/ERC1155.sol\":3599:3988  function safeTransferFrom(... */\n    tag_19:\n      tag_42\n      tag_96\n      calldatasize\n      0x04\n      tag_97\n      jump\t// in\n    tag_96:\n      tag_98\n      jump\t// in\n        /* \"@openzeppelin/contracts/token/ERC1155/ERC1155.sol\":2185:2413  function balanceOf(address account, uint256 id) public view virtual override returns (uint256) {... */\n    tag_27:\n        /* \"@openzeppelin/contracts/token/ERC1155/ERC1155.sol\":2271:2278  uint256 */\n      0x00\n        /* \"@openzeppelin/contracts/token/ERC1155/ERC1155.sol\":2298:2319  account != address(0) */\n      0xffffffffffffffffffffffffffffffffffffffff\n      dup4\n      and\n        /* \"@openzeppelin/contracts/token/ERC1155/ERC1155.sol\":2290:2367  require(account != address(0), \"ERC1155: balance query for the zero address\") */\n      tag_100\n      jumpi\n      mload(0x40)\n      0x08c379a000000000000000000000000000000000000000000000000000000000\n      dup2\n      mstore\n        /* \"#utility.yul\":10450:10452   */\n      0x20\n        /* \"@openzeppelin/contracts/token/ERC1155/ERC1155.sol\":2290:2367  require(account != address(0), \"ERC1155: balance query for the zero address\") */\n      0x04\n      dup3\n      add\n        /* \"#utility.yul\":10432:10453   */\n      mstore\n        /* \"#utility.yul\":10489:10491   */\n      0x2b\n        /* \"#utility.yul\":10469:10487   */\n      0x24\n      dup3\n      add\n        /* \"#utility.yul\":10462:10492   */\n      mstore\n        /* \"#utility.yul\":10528:10562   */\n      0x455243313135353a2062616c616e636520717565727920666f7220746865207a\n        /* \"#utility.yul\":10508:10526   */\n      0x44\n      dup3\n      add\n        /* \"#utility.yul\":10501:10563   */\n      mstore\n        /* \"#utility.yul\":10599:10612   */\n      0x65726f2061646472657373000000000000000000000000000000000000000000\n        /* \"#utility.yul\":10579:10597   */\n      0x64\n      dup3\n      add\n        /* \"#utility.yul\":10572:10613   */\n      mstore\n        /* \"#utility.yul\":10630:10649   */\n      0x84\n      add\n        /* \"@openzeppelin/contracts/token/ERC1155/ERC1155.sol\":2290:2367  require(account != address(0), \"ERC1155: balance query for the zero address\") */\n    tag_101:\n      mload(0x40)\n      dup1\n      swap2\n      sub\n      swap1\n      revert\n    tag_100:\n      pop\n        /* \"@openzeppelin/contracts/token/ERC1155/ERC1155.sol\":2384:2393  _balances */\n      0x00\n        /* \"@openzeppelin/contracts/token/ERC1155/ERC1155.sol\":2384:2397  _balances[id] */\n      swap1\n      dup2\n      mstore\n      0x20\n      dup2\n      dup2\n      mstore\n      0x40\n      dup1\n      dup4\n      keccak256\n        /* \"@openzeppelin/contracts/token/ERC1155/ERC1155.sol\":2384:2406  _balances[id][account] */\n      0xffffffffffffffffffffffffffffffffffffffff\n      swap5\n      swap1\n      swap5\n      and\n      dup4\n      mstore\n      swap3\n      swap1\n      mstore\n      keccak256\n      sload\n      swap1\n        /* \"@openzeppelin/contracts/token/ERC1155/ERC1155.sol\":2185:2413  function balanceOf(address account, uint256 id) public view virtual override returns (uint256) {... */\n      jump\t// out\n        /* \"@openzeppelin/contracts/token/ERC1155/ERC1155.sol\":1236:1541  function supportsInterface(bytes4 interfaceId) public view virtual override(ERC165, IERC165) returns (bool) {... */\n    tag_33:\n        /* \"@openzeppelin/contracts/token/ERC1155/ERC1155.sol\":1338:1342  bool */\n      0x00\n        /* \"@openzeppelin/contracts/token/ERC1155/ERC1155.sol\":1373:1414  interfaceId == type(IERC1155).interfaceId */\n      0xffffffff00000000000000000000000000000000000000000000000000000000\n      dup3\n      and\n        /* \"@openzeppelin/contracts/token/ERC1155/ERC1155.sol\":1388:1414  type(IERC1155).interfaceId */\n      0xd9b67a2600000000000000000000000000000000000000000000000000000000\n        /* \"@openzeppelin/contracts/token/ERC1155/ERC1155.sol\":1373:1414  interfaceId == type(IERC1155).interfaceId */\n      eq\n      dup1\n        /* \"@openzeppelin/contracts/token/ERC1155/ERC1155.sol\":1373:1482  interfaceId == type(IERC1155).interfaceId ||... */\n      tag_104\n      jumpi\n      pop\n        /* \"@openzeppelin/contracts/token/ERC1155/ERC1155.sol\":1430:1482  interfaceId == type(IERC1155MetadataURI).interfaceId */\n      0xffffffff00000000000000000000000000000000000000000000000000000000\n      dup3\n      and\n        /* \"@openzeppelin/contracts/token/ERC1155/ERC1155.sol\":1445:1482  type(IERC1155MetadataURI).interfaceId */\n      0x0e89341c00000000000000000000000000000000000000000000000000000000\n        /* \"@openzeppelin/contracts/token/ERC1155/ERC1155.sol\":1430:1482  interfaceId == type(IERC1155MetadataURI).interfaceId */\n      eq\n        /* \"@openzeppelin/contracts/token/ERC1155/ERC1155.sol\":1373:1482  interfaceId == type(IERC1155).interfaceId ||... */\n    tag_104:\n        /* \"@openzeppelin/contracts/token/ERC1155/ERC1155.sol\":1373:1534  interfaceId == type(IERC1155).interfaceId ||... */\n      dup1\n      tag_106\n      jumpi\n      pop\n        /* \"@openzeppelin/contracts/utils/introspection/ERC165.sol\":952:977  type(IERC165).interfaceId */\n      0x01ffc9a700000000000000000000000000000000000000000000000000000000\n        /* \"@openzeppelin/contracts/utils/introspection/ERC165.sol\":937:977  interfaceId == type(IERC165).interfaceId */\n      0xffffffff00000000000000000000000000000000000000000000000000000000\n      dup4\n      and\n      eq\n        /* \"@openzeppelin/contracts/token/ERC1155/ERC1155.sol\":1498:1534  super.supportsInterface(interfaceId) */\n    tag_106:\n        /* \"@openzeppelin/contracts/token/ERC1155/ERC1155.sol\":1354:1534  return... */\n      swap3\n        /* \"@openzeppelin/contracts/token/ERC1155/ERC1155.sol\":1236:1541  function supportsInterface(bytes4 interfaceId) public view virtual override(ERC165, IERC165) returns (bool) {... */\n      swap2\n      pop\n      pop\n      jump\t// out\n        /* \"contracts/GU-NFT/GUCollections.sol\":1450:1748  function uri(uint256 tokenId) public view override(ERC1155URIStorage, ERC1155) returns (string memory) {... */\n    tag_39:\n        /* \"contracts/GU-NFT/GUCollections.sol\":1538:1551  string memory */\n      0x60\n        /* \"contracts/GU-NFT/GUCollections.sol\":1564:1586  string memory tokenURI */\n      0x00\n        /* \"contracts/GU-NFT/GUCollections.sol\":1589:1607  tokenURIs(tokenId) */\n      tag_109\n        /* \"contracts/GU-NFT/GUCollections.sol\":1599:1606  tokenId */\n      dup4\n        /* \"contracts/GU-NFT/GUCollections.sol\":1589:1598  tokenURIs */\n      tag_69\n        /* \"contracts/GU-NFT/GUCollections.sol\":1589:1607  tokenURIs(tokenId) */\n      jump\t// in\n    tag_109:\n        /* \"contracts/GU-NFT/GUCollections.sol\":1564:1607  string memory tokenURI = tokenURIs(tokenId) */\n      swap1\n      pop\n        /* \"contracts/GU-NFT/GUCollections.sol\":1652:1653  0 */\n      0x00\n        /* \"contracts/GU-NFT/GUCollections.sol\":1633:1641  tokenURI */\n      dup2\n        /* \"contracts/GU-NFT/GUCollections.sol\":1627:1649  bytes(tokenURI).length */\n      mload\n        /* \"contracts/GU-NFT/GUCollections.sol\":1627:1653  bytes(tokenURI).length > 0 */\n      gt\n        /* \"contracts/GU-NFT/GUCollections.sol\":1627:1740  bytes(tokenURI).length > 0 ? string(abi.encodePacked(baseURI(), tokenURI, \"/metadata.json\")) : super.uri(tokenId) */\n      tag_110\n      jumpi\n        /* \"contracts/GU-NFT/GUCollections.sol\":1722:1740  super.uri(tokenId) */\n      tag_111\n        /* \"contracts/GU-NFT/GUCollections.sol\":1732:1739  tokenId */\n      dup4\n        /* \"contracts/GU-NFT/GUCollections.sol\":1722:1731  super.uri */\n      tag_112\n        /* \"contracts/GU-NFT/GUCollections.sol\":1722:1740  super.uri(tokenId) */\n      jump\t// in\n    tag_111:\n        /* \"contracts/GU-NFT/GUCollections.sol\":1627:1740  bytes(tokenURI).length > 0 ? string(abi.encodePacked(baseURI(), tokenURI, \"/metadata.json\")) : super.uri(tokenId) */\n      jump(tag_113)\n    tag_110:\n        /* \"contracts/GU-NFT/GUCollections.sol\":1680:1689  baseURI() */\n      tag_114\n        /* \"contracts/GU-NFT/GUCollections.sol\":1680:1687  baseURI */\n      tag_65\n        /* \"contracts/GU-NFT/GUCollections.sol\":1680:1689  baseURI() */\n      jump\t// in\n    tag_114:\n        /* \"contracts/GU-NFT/GUCollections.sol\":1691:1699  tokenURI */\n      dup2\n        /* \"contracts/GU-NFT/GUCollections.sol\":1663:1718  abi.encodePacked(baseURI(), tokenURI, \"/metadata.json\") */\n      add(0x20, mload(0x40))\n      tag_115\n      swap3\n      swap2\n      swap1\n      tag_116\n      jump\t// in\n    tag_115:\n      mload(0x40)\n      0x20\n      dup2\n      dup4\n      sub\n      sub\n      dup2\n      mstore\n      swap1\n      0x40\n      mstore\n        /* \"contracts/GU-NFT/GUCollections.sol\":1627:1740  bytes(tokenURI).length > 0 ? string(abi.encodePacked(baseURI(), tokenURI, \"/metadata.json\")) : super.uri(tokenId) */\n    tag_113:\n        /* \"contracts/GU-NFT/GUCollections.sol\":1620:1740  return bytes(tokenURI).length > 0 ? string(abi.encodePacked(baseURI(), tokenURI, \"/metadata.json\")) : super.uri(tokenId) */\n      swap4\n        /* \"contracts/GU-NFT/GUCollections.sol\":1450:1748  function uri(uint256 tokenId) public view override(ERC1155URIStorage, ERC1155) returns (string memory) {... */\n      swap3\n      pop\n      pop\n      pop\n      jump\t// out\n        /* \"@openzeppelin/contracts/token/ERC1155/ERC1155.sol\":4060:4490  function safeBatchTransferFrom(... */\n    tag_45:\n        /* \"@openzeppelin/contracts/token/ERC1155/ERC1155.sol\":4285:4305  from == _msgSender() */\n      0xffffffffffffffffffffffffffffffffffffffff\n      dup6\n      and\n        /* \"@openzeppelin/contracts/utils/Context.sol\":719:729  msg.sender */\n      caller\n        /* \"@openzeppelin/contracts/token/ERC1155/ERC1155.sol\":4285:4305  from == _msgSender() */\n      eq\n      dup1\n        /* \"@openzeppelin/contracts/token/ERC1155/ERC1155.sol\":4285:4345  from == _msgSender() || isApprovedForAll(from, _msgSender()) */\n      tag_121\n      jumpi\n      pop\n        /* \"@openzeppelin/contracts/token/ERC1155/ERC1155.sol\":4309:4345  isApprovedForAll(from, _msgSender()) */\n      tag_121\n        /* \"@openzeppelin/contracts/token/ERC1155/ERC1155.sol\":4326:4330  from */\n      dup6\n        /* \"@openzeppelin/contracts/utils/Context.sol\":719:729  msg.sender */\n      caller\n        /* \"@openzeppelin/contracts/token/ERC1155/ERC1155.sol\":3366:3532  function isApprovedForAll(address account, address operator) public view virtual override returns (bool) {... */\n      tag_91\n      jump\t// in\n        /* \"@openzeppelin/contracts/token/ERC1155/ERC1155.sol\":4309:4345  isApprovedForAll(from, _msgSender()) */\n    tag_121:\n        /* \"@openzeppelin/contracts/token/ERC1155/ERC1155.sol\":4264:4421  require(... */\n      tag_123\n      jumpi\n      mload(0x40)\n      0x08c379a000000000000000000000000000000000000000000000000000000000\n      dup2\n      mstore\n        /* \"#utility.yul\":11704:11706   */\n      0x20\n        /* \"@openzeppelin/contracts/token/ERC1155/ERC1155.sol\":4264:4421  require(... */\n      0x04\n      dup3\n      add\n        /* \"#utility.yul\":11686:11707   */\n      mstore\n        /* \"#utility.yul\":11743:11745   */\n      0x32\n        /* \"#utility.yul\":11723:11741   */\n      0x24\n      dup3\n      add\n        /* \"#utility.yul\":11716:11746   */\n      mstore\n        /* \"#utility.yul\":11782:11816   */\n      0x455243313135353a207472616e736665722063616c6c6572206973206e6f7420\n        /* \"#utility.yul\":11762:11780   */\n      0x44\n      dup3\n      add\n        /* \"#utility.yul\":11755:11817   */\n      mstore\n        /* \"#utility.yul\":11853:11873   */\n      0x6f776e6572206e6f7220617070726f7665640000000000000000000000000000\n        /* \"#utility.yul\":11833:11851   */\n      0x64\n      dup3\n      add\n        /* \"#utility.yul\":11826:11874   */\n      mstore\n        /* \"#utility.yul\":11891:11910   */\n      0x84\n      add\n        /* \"@openzeppelin/contracts/token/ERC1155/ERC1155.sol\":4264:4421  require(... */\n      tag_101\n        /* \"#utility.yul\":11502:11916   */\n      jump\n        /* \"@openzeppelin/contracts/token/ERC1155/ERC1155.sol\":4264:4421  require(... */\n    tag_123:\n        /* \"@openzeppelin/contracts/token/ERC1155/ERC1155.sol\":4431:4483  _safeBatchTransferFrom(from, to, ids, amounts, data) */\n      tag_126\n        /* \"@openzeppelin/contracts/token/ERC1155/ERC1155.sol\":4454:4458  from */\n      dup6\n        /* \"@openzeppelin/contracts/token/ERC1155/ERC1155.sol\":4460:4462  to */\n      dup6\n        /* \"@openzeppelin/contracts/token/ERC1155/ERC1155.sol\":4464:4467  ids */\n      dup6\n        /* \"@openzeppelin/contracts/token/ERC1155/ERC1155.sol\":4469:4476  amounts */\n      dup6\n        /* \"@openzeppelin/contracts/token/ERC1155/ERC1155.sol\":4478:4482  data */\n      dup6\n        /* \"@openzeppelin/contracts/token/ERC1155/ERC1155.sol\":4431:4453  _safeBatchTransferFrom */\n      tag_127\n        /* \"@openzeppelin/contracts/token/ERC1155/ERC1155.sol\":4431:4483  _safeBatchTransferFrom(from, to, ids, amounts, data) */\n      jump\t// in\n    tag_126:\n        /* \"@openzeppelin/contracts/token/ERC1155/ERC1155.sol\":4060:4490  function safeBatchTransferFrom(... */\n      pop\n      pop\n      pop\n      pop\n      pop\n      jump\t// out\n        /* \"@openzeppelin/contracts/token/ERC1155/ERC1155.sol\":2570:3078  function balanceOfBatch(address[] memory accounts, uint256[] memory ids)... */\n    tag_53:\n        /* \"@openzeppelin/contracts/token/ERC1155/ERC1155.sol\":2721:2737  uint256[] memory */\n      0x60\n        /* \"@openzeppelin/contracts/token/ERC1155/ERC1155.sol\":2780:2783  ids */\n      dup2\n        /* \"@openzeppelin/contracts/token/ERC1155/ERC1155.sol\":2780:2790  ids.length */\n      mload\n        /* \"@openzeppelin/contracts/token/ERC1155/ERC1155.sol\":2761:2769  accounts */\n      dup4\n        /* \"@openzeppelin/contracts/token/ERC1155/ERC1155.sol\":2761:2776  accounts.length */\n      mload\n        /* \"@openzeppelin/contracts/token/ERC1155/ERC1155.sol\":2761:2790  accounts.length == ids.length */\n      eq\n        /* \"@openzeppelin/contracts/token/ERC1155/ERC1155.sol\":2753:2836  require(accounts.length == ids.length, \"ERC1155: accounts and ids length mismatch\") */\n      tag_129\n      jumpi\n      mload(0x40)\n      0x08c379a000000000000000000000000000000000000000000000000000000000\n      dup2\n      mstore\n        /* \"#utility.yul\":12123:12125   */\n      0x20\n        /* \"@openzeppelin/contracts/token/ERC1155/ERC1155.sol\":2753:2836  require(accounts.length == ids.length, \"ERC1155: accounts and ids length mismatch\") */\n      0x04\n      dup3\n      add\n        /* \"#utility.yul\":12105:12126   */\n      mstore\n        /* \"#utility.yul\":12162:12164   */\n      0x29\n        /* \"#utility.yul\":12142:12160   */\n      0x24\n      dup3\n      add\n        /* \"#utility.yul\":12135:12165   */\n      mstore\n        /* \"#utility.yul\":12201:12235   */\n      0x455243313135353a206163636f756e747320616e6420696473206c656e677468\n        /* \"#utility.yul\":12181:12199   */\n      0x44\n      dup3\n      add\n        /* \"#utility.yul\":12174:12236   */\n      mstore\n        /* \"#utility.yul\":12272:12283   */\n      0x206d69736d617463680000000000000000000000000000000000000000000000\n        /* \"#utility.yul\":12252:12270   */\n      0x64\n      dup3\n      add\n        /* \"#utility.yul\":12245:12284   */\n      mstore\n        /* \"#utility.yul\":12301:12320   */\n      0x84\n      add\n        /* \"@openzeppelin/contracts/token/ERC1155/ERC1155.sol\":2753:2836  require(accounts.length == ids.length, \"ERC1155: accounts and ids length mismatch\") */\n      tag_101\n        /* \"#utility.yul\":11921:12326   */\n      jump\n        /* \"@openzeppelin/contracts/token/ERC1155/ERC1155.sol\":2753:2836  require(accounts.length == ids.length, \"ERC1155: accounts and ids length mismatch\") */\n    tag_129:\n        /* \"@openzeppelin/contracts/token/ERC1155/ERC1155.sol\":2847:2877  uint256[] memory batchBalances */\n      0x00\n        /* \"@openzeppelin/contracts/token/ERC1155/ERC1155.sol\":2894:2902  accounts */\n      dup4\n        /* \"@openzeppelin/contracts/token/ERC1155/ERC1155.sol\":2894:2909  accounts.length */\n      mload\n        /* \"@openzeppelin/contracts/token/ERC1155/ERC1155.sol\":2880:2910  new uint256[](accounts.length) */\n      0xffffffffffffffff\n      dup2\n      gt\n      iszero\n      tag_133\n      jumpi\n      tag_133\n      tag_134\n      jump\t// in\n    tag_133:\n      mload(0x40)\n      swap1\n      dup1\n      dup3\n      mstore\n      dup1\n      0x20\n      mul\n      0x20\n      add\n      dup3\n      add\n      0x40\n      mstore\n      dup1\n      iszero\n      tag_135\n      jumpi\n      dup2\n      0x20\n      add\n      0x20\n      dup3\n      mul\n      dup1\n      calldatasize\n      dup4\n      calldatacopy\n      add\n      swap1\n      pop\n    tag_135:\n      pop\n        /* \"@openzeppelin/contracts/token/ERC1155/ERC1155.sol\":2847:2910  uint256[] memory batchBalances = new uint256[](accounts.length) */\n      swap1\n      pop\n        /* \"@openzeppelin/contracts/token/ERC1155/ERC1155.sol\":2926:2935  uint256 i */\n      0x00\n        /* \"@openzeppelin/contracts/token/ERC1155/ERC1155.sol\":2921:3041  for (uint256 i = 0; i < accounts.length; ++i) {... */\n    tag_136:\n        /* \"@openzeppelin/contracts/token/ERC1155/ERC1155.sol\":2945:2953  accounts */\n      dup5\n        /* \"@openzeppelin/contracts/token/ERC1155/ERC1155.sol\":2945:2960  accounts.length */\n      mload\n        /* \"@openzeppelin/contracts/token/ERC1155/ERC1155.sol\":2941:2942  i */\n      dup2\n        /* \"@openzeppelin/contracts/token/ERC1155/ERC1155.sol\":2941:2960  i < accounts.length */\n      lt\n        /* \"@openzeppelin/contracts/token/ERC1155/ERC1155.sol\":2921:3041  for (uint256 i = 0; i < accounts.length; ++i) {... */\n      iszero\n      tag_137\n      jumpi\n        /* \"@openzeppelin/contracts/token/ERC1155/ERC1155.sol\":3000:3030  balanceOf(accounts[i], ids[i]) */\n      tag_139\n        /* \"@openzeppelin/contracts/token/ERC1155/ERC1155.sol\":3010:3018  accounts */\n      dup6\n        /* \"@openzeppelin/contracts/token/ERC1155/ERC1155.sol\":3019:3020  i */\n      dup3\n        /* \"@openzeppelin/contracts/token/ERC1155/ERC1155.sol\":3010:3021  accounts[i] */\n      dup2\n      mload\n      dup2\n      lt\n      tag_141\n      jumpi\n      tag_141\n      tag_142\n      jump\t// in\n    tag_141:\n      0x20\n      mul\n      0x20\n      add\n      add\n      mload\n        /* \"@openzeppelin/contracts/token/ERC1155/ERC1155.sol\":3023:3026  ids */\n      dup6\n        /* \"@openzeppelin/contracts/token/ERC1155/ERC1155.sol\":3027:3028  i */\n      dup4\n        /* \"@openzeppelin/contracts/token/ERC1155/ERC1155.sol\":3023:3029  ids[i] */\n      dup2\n      mload\n      dup2\n      lt\n      tag_144\n      jumpi\n      tag_144\n      tag_142\n      jump\t// in\n    tag_144:\n      0x20\n      mul\n      0x20\n      add\n      add\n      mload\n        /* \"@openzeppelin/contracts/token/ERC1155/ERC1155.sol\":3000:3009  balanceOf */\n      tag_27\n        /* \"@openzeppelin/contracts/token/ERC1155/ERC1155.sol\":3000:3030  balanceOf(accounts[i], ids[i]) */\n      jump\t// in\n    tag_139:\n        /* \"@openzeppelin/contracts/token/ERC1155/ERC1155.sol\":2981:2994  batchBalances */\n      dup3\n        /* \"@openzeppelin/contracts/token/ERC1155/ERC1155.sol\":2995:2996  i */\n      dup3\n        /* \"@openzeppelin/contracts/token/ERC1155/ERC1155.sol\":2981:2997  batchBalances[i] */\n      dup2\n      mload\n      dup2\n      lt\n      tag_146\n      jumpi\n      tag_146\n      tag_142\n      jump\t// in\n    tag_146:\n      0x20\n      swap1\n      dup2\n      mul\n      swap2\n      swap1\n      swap2\n      add\n      add\n        /* \"@openzeppelin/contracts/token/ERC1155/ERC1155.sol\":2981:3030  batchBalances[i] = balanceOf(accounts[i], ids[i]) */\n      mstore\n        /* \"@openzeppelin/contracts/token/ERC1155/ERC1155.sol\":2962:2965  ++i */\n      tag_147\n      dup2\n      tag_148\n      jump\t// in\n    tag_147:\n      swap1\n      pop\n        /* \"@openzeppelin/contracts/token/ERC1155/ERC1155.sol\":2921:3041  for (uint256 i = 0; i < accounts.length; ++i) {... */\n      jump(tag_136)\n    tag_137:\n      pop\n        /* \"@openzeppelin/contracts/token/ERC1155/ERC1155.sol\":3058:3071  batchBalances */\n      swap4\n        /* \"@openzeppelin/contracts/token/ERC1155/ERC1155.sol\":2570:3078  function balanceOfBatch(address[] memory accounts, uint256[] memory ids)... */\n      swap3\n      pop\n      pop\n      pop\n      jump\t// out\n        /* \"contracts/GU-NFT/GUCollections.sol\":1756:1863  function setBaseURI(string calldata baseURI) external onlyAdminSafe {... */\n    tag_63:\n        /* \"contracts/GU-NFT/GUCollections.sol\":815:824  adminSafe */\n      and(0xffffffffffffffffffffffffffffffffffffffff, sload(0x07))\n        /* \"contracts/GU-NFT/GUCollections.sol\":803:813  msg.sender */\n      caller\n        /* \"contracts/GU-NFT/GUCollections.sol\":803:824  msg.sender==adminSafe */\n      eq\n        /* \"contracts/GU-NFT/GUCollections.sol\":795:853  require(msg.sender==adminSafe, 'You are not whitelisted.') */\n      tag_152\n      jumpi\n      mload(0x40)\n      0x08c379a000000000000000000000000000000000000000000000000000000000\n      dup2\n      mstore\n        /* \"#utility.yul\":13111:13113   */\n      0x20\n        /* \"contracts/GU-NFT/GUCollections.sol\":795:853  require(msg.sender==adminSafe, 'You are not whitelisted.') */\n      0x04\n      dup3\n      add\n        /* \"#utility.yul\":13093:13114   */\n      mstore\n        /* \"#utility.yul\":13150:13152   */\n      0x18\n        /* \"#utility.yul\":13130:13148   */\n      0x24\n      dup3\n      add\n        /* \"#utility.yul\":13123:13153   */\n      mstore\n        /* \"#utility.yul\":13189:13215   */\n      0x596f7520617265206e6f742077686974656c69737465642e0000000000000000\n        /* \"#utility.yul\":13169:13187   */\n      0x44\n      dup3\n      add\n        /* \"#utility.yul\":13162:13216   */\n      mstore\n        /* \"#utility.yul\":13233:13251   */\n      0x64\n      add\n        /* \"contracts/GU-NFT/GUCollections.sol\":795:853  require(msg.sender==adminSafe, 'You are not whitelisted.') */\n      tag_101\n        /* \"#utility.yul\":12909:13257   */\n      jump\n        /* \"contracts/GU-NFT/GUCollections.sol\":795:853  require(msg.sender==adminSafe, 'You are not whitelisted.') */\n    tag_152:\n        /* \"contracts/GU-NFT/GUCollections.sol\":1835:1855  _setBaseURI(baseURI) */\n      tag_156\n        /* \"contracts/GU-NFT/GUCollections.sol\":1847:1854  baseURI */\n      dup3\n      dup3\n        /* \"contracts/GU-NFT/GUCollections.sol\":1835:1855  _setBaseURI(baseURI) */\n      dup1\n      dup1\n      0x1f\n      add\n      0x20\n      dup1\n      swap2\n      div\n      mul\n      0x20\n      add\n      mload(0x40)\n      swap1\n      dup2\n      add\n      0x40\n      mstore\n      dup1\n      swap4\n      swap3\n      swap2\n      swap1\n      dup2\n      dup2\n      mstore\n      0x20\n      add\n      dup4\n      dup4\n      dup1\n      dup3\n      dup5\n      calldatacopy\n      0x00\n      swap3\n      add\n      swap2\n      swap1\n      swap2\n      mstore\n      pop\n        /* \"contracts/GU-NFT/GUCollections.sol\":1835:1846  _setBaseURI */\n      tag_157\n      swap3\n      pop\n      pop\n      pop\n        /* \"contracts/GU-NFT/GUCollections.sol\":1835:1855  _setBaseURI(baseURI) */\n      jump\t// in\n    tag_156:\n        /* \"contracts/GU-NFT/GUCollections.sol\":1756:1863  function setBaseURI(string calldata baseURI) external onlyAdminSafe {... */\n      pop\n      pop\n      jump\t// out\n        /* \"contracts/GU-NFT/ERC1155URIStorage.sol\":794:888  function baseURI() public view returns (string memory)... */\n    tag_65:\n        /* \"contracts/GU-NFT/ERC1155URIStorage.sol\":834:847  string memory */\n      0x60\n        /* \"contracts/GU-NFT/ERC1155URIStorage.sol\":872:880  _baseURI */\n      0x04\n        /* \"contracts/GU-NFT/ERC1155URIStorage.sol\":865:880  return _baseURI */\n      dup1\n      sload\n      tag_159\n      swap1\n      tag_160\n      jump\t// in\n    tag_159:\n      dup1\n      0x1f\n      add\n      0x20\n      dup1\n      swap2\n      div\n      mul\n      0x20\n      add\n      mload(0x40)\n      swap1\n      dup2\n      add\n      0x40\n      mstore\n      dup1\n      swap3\n      swap2\n      swap1\n      dup2\n      dup2\n      mstore\n      0x20\n      add\n      dup3\n      dup1\n      sload\n      tag_161\n      swap1\n      tag_160\n      jump\t// in\n    tag_161:\n      dup1\n      iszero\n      tag_162\n      jumpi\n      dup1\n      0x1f\n      lt\n      tag_163\n      jumpi\n      0x0100\n      dup1\n      dup4\n      sload\n      div\n      mul\n      dup4\n      mstore\n      swap2\n      0x20\n      add\n      swap2\n      jump(tag_162)\n    tag_163:\n      dup3\n      add\n      swap2\n      swap1\n      0x00\n      mstore\n      keccak256(0x00, 0x20)\n      swap1\n    tag_164:\n      dup2\n      sload\n      dup2\n      mstore\n      swap1\n      0x01\n      add\n      swap1\n      0x20\n      add\n      dup1\n      dup4\n      gt\n      tag_164\n      jumpi\n      dup3\n      swap1\n      sub\n      0x1f\n      and\n      dup3\n      add\n      swap2\n    tag_162:\n      pop\n      pop\n      pop\n      pop\n      pop\n      swap1\n      pop\n        /* \"contracts/GU-NFT/ERC1155URIStorage.sol\":794:888  function baseURI() public view returns (string memory)... */\n      swap1\n      jump\t// out\n        /* \"contracts/GU-NFT/ERC1155URIStorage.sol\":674:786  function tokenURIs(uint256 id) public view returns (string memory)... */\n    tag_69:\n        /* \"contracts/GU-NFT/ERC1155URIStorage.sol\":764:778  _tokenURIs[id] */\n      0x00\n      dup2\n      dup2\n      mstore\n        /* \"contracts/GU-NFT/ERC1155URIStorage.sol\":764:774  _tokenURIs */\n      0x05\n        /* \"contracts/GU-NFT/ERC1155URIStorage.sol\":764:778  _tokenURIs[id] */\n      0x20\n      mstore\n      0x40\n      swap1\n      keccak256\n        /* \"contracts/GU-NFT/ERC1155URIStorage.sol\":757:778  return _tokenURIs[id] */\n      dup1\n      sload\n        /* \"contracts/GU-NFT/ERC1155URIStorage.sol\":726:739  string memory */\n      0x60\n      swap2\n        /* \"contracts/GU-NFT/ERC1155URIStorage.sol\":764:778  _tokenURIs[id] */\n      swap1\n        /* \"contracts/GU-NFT/ERC1155URIStorage.sol\":757:778  return _tokenURIs[id] */\n      tag_166\n      swap1\n      tag_160\n      jump\t// in\n    tag_166:\n      dup1\n      0x1f\n      add\n      0x20\n      dup1\n      swap2\n      div\n      mul\n      0x20\n      add\n      mload(0x40)\n      swap1\n      dup2\n      add\n      0x40\n      mstore\n      dup1\n      swap3\n      swap2\n      swap1\n      dup2\n      dup2\n      mstore\n      0x20\n      add\n      dup3\n      dup1\n      sload\n      tag_167\n      swap1\n      tag_160\n      jump\t// in\n    tag_167:\n      dup1\n      iszero\n      tag_168\n      jumpi\n      dup1\n      0x1f\n      lt\n      tag_169\n      jumpi\n      0x0100\n      dup1\n      dup4\n      sload\n      div\n      mul\n      dup4\n      mstore\n      swap2\n      0x20\n      add\n      swap2\n      jump(tag_168)\n    tag_169:\n      dup3\n      add\n      swap2\n      swap1\n      0x00\n      mstore\n      keccak256(0x00, 0x20)\n      swap1\n    tag_170:\n      dup2\n      sload\n      dup2\n      mstore\n      swap1\n      0x01\n      add\n      swap1\n      0x20\n      add\n      dup1\n      dup4\n      gt\n      tag_170\n      jumpi\n      dup3\n      swap1\n      sub\n      0x1f\n      and\n      dup3\n      add\n      swap2\n    tag_168:\n      pop\n      pop\n      pop\n      pop\n      pop\n      swap1\n      pop\n        /* \"contracts/GU-NFT/ERC1155URIStorage.sol\":674:786  function tokenURIs(uint256 id) public view returns (string memory)... */\n      swap2\n      swap1\n      pop\n      jump\t// out\n        /* \"@openzeppelin/contracts/token/ERC1155/ERC1155.sol\":3146:3299  function setApprovalForAll(address operator, bool approved) public virtual override {... */\n    tag_74:\n        /* \"@openzeppelin/contracts/token/ERC1155/ERC1155.sol\":3240:3292  _setApprovalForAll(_msgSender(), operator, approved) */\n      tag_156\n        /* \"@openzeppelin/contracts/utils/Context.sol\":719:729  msg.sender */\n      caller\n        /* \"@openzeppelin/contracts/token/ERC1155/ERC1155.sol\":3273:3281  operator */\n      dup4\n        /* \"@openzeppelin/contracts/token/ERC1155/ERC1155.sol\":3283:3291  approved */\n      dup4\n        /* \"@openzeppelin/contracts/token/ERC1155/ERC1155.sol\":3240:3258  _setApprovalForAll */\n      tag_174\n        /* \"@openzeppelin/contracts/token/ERC1155/ERC1155.sol\":3240:3292  _setApprovalForAll(_msgSender(), operator, approved) */\n      jump\t// in\n        /* \"contracts/GU-NFT/GUCollections.sol\":2066:2294  function mint(address to, uint256 id, uint256 amount, string calldata cid) external onlyTraders {... */\n    tag_78:\n        /* \"contracts/GU-NFT/GUCollections.sol\":693:703  msg.sender */\n      caller\n        /* \"contracts/GU-NFT/GUCollections.sol\":685:704  traders[msg.sender] */\n      0x00\n      swap1\n      dup2\n      mstore\n        /* \"contracts/GU-NFT/GUCollections.sol\":685:692  traders */\n      0x06\n        /* \"contracts/GU-NFT/GUCollections.sol\":685:704  traders[msg.sender] */\n      0x20\n      mstore\n      0x40\n      swap1\n      keccak256\n      sload\n      0xff\n      and\n        /* \"contracts/GU-NFT/GUCollections.sol\":677:733  require(traders[msg.sender], 'You are not whitelisted.') */\n      tag_176\n      jumpi\n      mload(0x40)\n      0x08c379a000000000000000000000000000000000000000000000000000000000\n      dup2\n      mstore\n        /* \"#utility.yul\":13111:13113   */\n      0x20\n        /* \"contracts/GU-NFT/GUCollections.sol\":677:733  require(traders[msg.sender], 'You are not whitelisted.') */\n      0x04\n      dup3\n      add\n        /* \"#utility.yul\":13093:13114   */\n      mstore\n        /* \"#utility.yul\":13150:13152   */\n      0x18\n        /* \"#utility.yul\":13130:13148   */\n      0x24\n      dup3\n      add\n        /* \"#utility.yul\":13123:13153   */\n      mstore\n        /* \"#utility.yul\":13189:13215   */\n      0x596f7520617265206e6f742077686974656c69737465642e0000000000000000\n        /* \"#utility.yul\":13169:13187   */\n      0x44\n      dup3\n      add\n        /* \"#utility.yul\":13162:13216   */\n      mstore\n        /* \"#utility.yul\":13233:13251   */\n      0x64\n      add\n        /* \"contracts/GU-NFT/GUCollections.sol\":677:733  require(traders[msg.sender], 'You are not whitelisted.') */\n      tag_101\n        /* \"#utility.yul\":12909:13257   */\n      jump\n        /* \"contracts/GU-NFT/GUCollections.sol\":677:733  require(traders[msg.sender], 'You are not whitelisted.') */\n    tag_176:\n        /* \"@openzeppelin/contracts/token/ERC1155/extensions/ERC1155Supply.sol\":759:766  uint256 */\n      0x00\n        /* \"@openzeppelin/contracts/token/ERC1155/extensions/ERC1155Supply.sol\":785:801  _totalSupply[id] */\n      dup5\n      dup2\n      mstore\n        /* \"@openzeppelin/contracts/token/ERC1155/extensions/ERC1155Supply.sol\":785:797  _totalSupply */\n      0x03\n        /* \"@openzeppelin/contracts/token/ERC1155/extensions/ERC1155Supply.sol\":785:801  _totalSupply[id] */\n      0x20\n      mstore\n      0x40\n      swap1\n      keccak256\n      sload\n        /* \"contracts/GU-NFT/GUCollections.sol\":2196:2197  0 */\n      0x00\n        /* \"contracts/GU-NFT/GUCollections.sol\":2177:2197  totalSupply(id) == 0 */\n      sub\n        /* \"contracts/GU-NFT/GUCollections.sol\":2173:2251  if (totalSupply(id) == 0)... */\n      tag_181\n      jumpi\n        /* \"contracts/GU-NFT/GUCollections.sol\":2223:2239  _setURI(id, cid) */\n      tag_181\n        /* \"contracts/GU-NFT/GUCollections.sol\":2231:2233  id */\n      dup5\n        /* \"contracts/GU-NFT/GUCollections.sol\":2235:2238  cid */\n      dup4\n      dup4\n        /* \"contracts/GU-NFT/GUCollections.sol\":2223:2239  _setURI(id, cid) */\n      dup1\n      dup1\n      0x1f\n      add\n      0x20\n      dup1\n      swap2\n      div\n      mul\n      0x20\n      add\n      mload(0x40)\n      swap1\n      dup2\n      add\n      0x40\n      mstore\n      dup1\n      swap4\n      swap3\n      swap2\n      swap1\n      dup2\n      dup2\n      mstore\n      0x20\n      add\n      dup4\n      dup4\n      dup1\n      dup3\n      dup5\n      calldatacopy\n      0x00\n      swap3\n      add\n      swap2\n      swap1\n      swap2\n      mstore\n      pop\n        /* \"contracts/GU-NFT/GUCollections.sol\":2223:2230  _setURI */\n      tag_182\n      swap3\n      pop\n      pop\n      pop\n        /* \"contracts/GU-NFT/GUCollections.sol\":2223:2239  _setURI(id, cid) */\n      jump\t// in\n    tag_181:\n        /* \"contracts/GU-NFT/GUCollections.sol\":2261:2286  _mint(to, id, amount, \"\") */\n      tag_126\n        /* \"contracts/GU-NFT/GUCollections.sol\":2267:2269  to */\n      dup6\n        /* \"contracts/GU-NFT/GUCollections.sol\":2271:2273  id */\n      dup6\n        /* \"contracts/GU-NFT/GUCollections.sol\":2275:2281  amount */\n      dup6\n        /* \"contracts/GU-NFT/GUCollections.sol\":2261:2286  _mint(to, id, amount, \"\") */\n      mload(0x40)\n      dup1\n      0x20\n      add\n      0x40\n      mstore\n      dup1\n      0x00\n      dup2\n      mstore\n      pop\n        /* \"contracts/GU-NFT/GUCollections.sol\":2261:2266  _mint */\n      tag_184\n        /* \"contracts/GU-NFT/GUCollections.sol\":2261:2286  _mint(to, id, amount, \"\") */\n      jump\t// in\n        /* \"contracts/GU-NFT/GUCollections.sol\":984:1198  function changeAdminSafe(address safe) public onlyAdminSafe... */\n    tag_86:\n        /* \"contracts/GU-NFT/GUCollections.sol\":815:824  adminSafe */\n      and(0xffffffffffffffffffffffffffffffffffffffff, sload(0x07))\n        /* \"contracts/GU-NFT/GUCollections.sol\":803:813  msg.sender */\n      caller\n        /* \"contracts/GU-NFT/GUCollections.sol\":803:824  msg.sender==adminSafe */\n      eq\n        /* \"contracts/GU-NFT/GUCollections.sol\":795:853  require(msg.sender==adminSafe, 'You are not whitelisted.') */\n      tag_187\n      jumpi\n      mload(0x40)\n      0x08c379a000000000000000000000000000000000000000000000000000000000\n      dup2\n      mstore\n        /* \"#utility.yul\":13111:13113   */\n      0x20\n        /* \"contracts/GU-NFT/GUCollections.sol\":795:853  require(msg.sender==adminSafe, 'You are not whitelisted.') */\n      0x04\n      dup3\n      add\n        /* \"#utility.yul\":13093:13114   */\n      mstore\n        /* \"#utility.yul\":13150:13152   */\n      0x18\n        /* \"#utility.yul\":13130:13148   */\n      0x24\n      dup3\n      add\n        /* \"#utility.yul\":13123:13153   */\n      mstore\n        /* \"#utility.yul\":13189:13215   */\n      0x596f7520617265206e6f742077686974656c69737465642e0000000000000000\n        /* \"#utility.yul\":13169:13187   */\n      0x44\n      dup3\n      add\n        /* \"#utility.yul\":13162:13216   */\n      mstore\n        /* \"#utility.yul\":13233:13251   */\n      0x64\n      add\n        /* \"contracts/GU-NFT/GUCollections.sol\":795:853  require(msg.sender==adminSafe, 'You are not whitelisted.') */\n      tag_101\n        /* \"#utility.yul\":12909:13257   */\n      jump\n        /* \"contracts/GU-NFT/GUCollections.sol\":795:853  require(msg.sender==adminSafe, 'You are not whitelisted.') */\n    tag_187:\n        /* \"contracts/GU-NFT/GUCollections.sol\":1068:1077  adminSafe */\n      sload(0x07)\n        /* \"contracts/GU-NFT/GUCollections.sol\":1068:1083  adminSafe!=safe */\n      0xffffffffffffffffffffffffffffffffffffffff\n      dup1\n      dup4\n      and\n        /* \"contracts/GU-NFT/GUCollections.sol\":1068:1077  adminSafe */\n      swap2\n      and\n        /* \"contracts/GU-NFT/GUCollections.sol\":1068:1083  adminSafe!=safe */\n      sub\n        /* \"contracts/GU-NFT/GUCollections.sol\":1060:1125  require(adminSafe!=safe, \"Provided address already safe address\") */\n      tag_190\n      jumpi\n      mload(0x40)\n      0x08c379a000000000000000000000000000000000000000000000000000000000\n      dup2\n      mstore\n        /* \"#utility.yul\":13906:13908   */\n      0x20\n        /* \"contracts/GU-NFT/GUCollections.sol\":1060:1125  require(adminSafe!=safe, \"Provided address already safe address\") */\n      0x04\n      dup3\n      add\n        /* \"#utility.yul\":13888:13909   */\n      mstore\n        /* \"#utility.yul\":13945:13947   */\n      0x25\n        /* \"#utility.yul\":13925:13943   */\n      0x24\n      dup3\n      add\n        /* \"#utility.yul\":13918:13948   */\n      mstore\n        /* \"#utility.yul\":13984:14018   */\n      0x50726f7669646564206164647265737320616c72656164792073616665206164\n        /* \"#utility.yul\":13964:13982   */\n      0x44\n      dup3\n      add\n        /* \"#utility.yul\":13957:14019   */\n      mstore\n        /* \"#utility.yul\":14055:14062   */\n      0x6472657373000000000000000000000000000000000000000000000000000000\n        /* \"#utility.yul\":14035:14053   */\n      0x64\n      dup3\n      add\n        /* \"#utility.yul\":14028:14063   */\n      mstore\n        /* \"#utility.yul\":14080:14099   */\n      0x84\n      add\n        /* \"contracts/GU-NFT/GUCollections.sol\":1060:1125  require(adminSafe!=safe, \"Provided address already safe address\") */\n      tag_101\n        /* \"#utility.yul\":13704:14105   */\n      jump\n        /* \"contracts/GU-NFT/GUCollections.sol\":1060:1125  require(adminSafe!=safe, \"Provided address already safe address\") */\n    tag_190:\n        /* \"contracts/GU-NFT/GUCollections.sol\":1136:1145  adminSafe */\n      0x07\n        /* \"contracts/GU-NFT/GUCollections.sol\":1136:1152  adminSafe = safe */\n      dup1\n      sload\n      0xffffffffffffffffffffffff0000000000000000000000000000000000000000\n      and\n      0xffffffffffffffffffffffffffffffffffffffff\n      dup4\n      and\n      swap1\n      dup2\n      or\n      swap1\n      swap2\n      sstore\n        /* \"contracts/GU-NFT/GUCollections.sol\":1168:1190  AdminSafeChanged(safe) */\n      mload(0x40)\n      0xd4c1af98b758421a8d47b0bc04ecfa30233d5506955e8cde282417aa0d31d3b6\n      swap1\n      0x00\n      swap1\n      log2\n        /* \"contracts/GU-NFT/GUCollections.sol\":984:1198  function changeAdminSafe(address safe) public onlyAdminSafe... */\n      pop\n      jump\t// out\n        /* \"contracts/GU-NFT/GUCollections.sol\":1206:1442  function setTraderPermission(address trader, bool permitted) external onlyAdminSafe... */\n    tag_89:\n        /* \"contracts/GU-NFT/GUCollections.sol\":815:824  adminSafe */\n      and(0xffffffffffffffffffffffffffffffffffffffff, sload(0x07))\n        /* \"contracts/GU-NFT/GUCollections.sol\":803:813  msg.sender */\n      caller\n        /* \"contracts/GU-NFT/GUCollections.sol\":803:824  msg.sender==adminSafe */\n      eq\n        /* \"contracts/GU-NFT/GUCollections.sol\":795:853  require(msg.sender==adminSafe, 'You are not whitelisted.') */\n      tag_194\n      jumpi\n      mload(0x40)\n      0x08c379a000000000000000000000000000000000000000000000000000000000\n      dup2\n      mstore\n        /* \"#utility.yul\":13111:13113   */\n      0x20\n        /* \"contracts/GU-NFT/GUCollections.sol\":795:853  require(msg.sender==adminSafe, 'You are not whitelisted.') */\n      0x04\n      dup3\n      add\n        /* \"#utility.yul\":13093:13114   */\n      mstore\n        /* \"#utility.yul\":13150:13152   */\n      0x18\n        /* \"#utility.yul\":13130:13148   */\n      0x24\n      dup3\n      add\n        /* \"#utility.yul\":13123:13153   */\n      mstore\n        /* \"#utility.yul\":13189:13215   */\n      0x596f7520617265206e6f742077686974656c69737465642e0000000000000000\n        /* \"#utility.yul\":13169:13187   */\n      0x44\n      dup3\n      add\n        /* \"#utility.yul\":13162:13216   */\n      mstore\n        /* \"#utility.yul\":13233:13251   */\n      0x64\n      add\n        /* \"contracts/GU-NFT/GUCollections.sol\":795:853  require(msg.sender==adminSafe, 'You are not whitelisted.') */\n      tag_101\n        /* \"#utility.yul\":12909:13257   */\n      jump\n        /* \"contracts/GU-NFT/GUCollections.sol\":795:853  require(msg.sender==adminSafe, 'You are not whitelisted.') */\n    tag_194:\n        /* \"contracts/GU-NFT/GUCollections.sol\":1306:1321  traders[trader] */\n      0xffffffffffffffffffffffffffffffffffffffff\n      dup3\n      and\n      0x00\n      swap1\n      dup2\n      mstore\n        /* \"contracts/GU-NFT/GUCollections.sol\":1306:1313  traders */\n      0x06\n        /* \"contracts/GU-NFT/GUCollections.sol\":1306:1321  traders[trader] */\n      0x20\n      mstore\n      0x40\n      swap1\n      keccak256\n        /* \"contracts/GU-NFT/GUCollections.sol\":1306:1331  traders[trader]=permitted */\n      dup1\n      sload\n      0xffffffffffffffffffffffffffffffffffffffffffffffffffffffffffffff00\n      and\n      dup3\n      iszero\n      dup1\n      iszero\n      swap2\n      swap1\n      swap2\n      or\n      swap1\n      swap2\n      sstore\n        /* \"contracts/GU-NFT/GUCollections.sol\":1342:1434  if (permitted) emit TraderAuthorized(trader);... */\n      tag_197\n      jumpi\n        /* \"contracts/GU-NFT/GUCollections.sol\":1362:1386  TraderAuthorized(trader) */\n      mload(0x40)\n      0xffffffffffffffffffffffffffffffffffffffff\n      dup4\n      and\n      swap1\n      0x526af00f9bc92d53f2d0b4c603a1305395a04f7fb6a0a7962867d8d230467547\n      swap1\n      0x00\n      swap1\n      log2\n        /* \"contracts/GU-NFT/GUCollections.sol\":1756:1863  function setBaseURI(string calldata baseURI) external onlyAdminSafe {... */\n      pop\n      pop\n      jump\t// out\n        /* \"contracts/GU-NFT/GUCollections.sol\":1342:1434  if (permitted) emit TraderAuthorized(trader);... */\n    tag_197:\n        /* \"contracts/GU-NFT/GUCollections.sol\":1407:1434  TraderDisauthorized(trader) */\n      mload(0x40)\n      0xffffffffffffffffffffffffffffffffffffffff\n      dup4\n      and\n      swap1\n      0xe8185c1a3f6241a6224d99ff39e932ac24fc0d2c51b17e56c5d6f52aff1b5da1\n      swap1\n      0x00\n      swap1\n      log2\n        /* \"contracts/GU-NFT/GUCollections.sol\":1206:1442  function setTraderPermission(address trader, bool permitted) external onlyAdminSafe... */\n      pop\n      pop\n      jump\t// out\n        /* \"@openzeppelin/contracts/token/ERC1155/ERC1155.sol\":3599:3988  function safeTransferFrom(... */\n    tag_98:\n        /* \"@openzeppelin/contracts/token/ERC1155/ERC1155.sol\":3799:3819  from == _msgSender() */\n      0xffffffffffffffffffffffffffffffffffffffff\n      dup6\n      and\n        /* \"@openzeppelin/contracts/utils/Context.sol\":719:729  msg.sender */\n      caller\n        /* \"@openzeppelin/contracts/token/ERC1155/ERC1155.sol\":3799:3819  from == _msgSender() */\n      eq\n      dup1\n        /* \"@openzeppelin/contracts/token/ERC1155/ERC1155.sol\":3799:3859  from == _msgSender() || isApprovedForAll(from, _msgSender()) */\n      tag_203\n      jumpi\n      pop\n        /* \"@openzeppelin/contracts/token/ERC1155/ERC1155.sol\":3823:3859  isApprovedForAll(from, _msgSender()) */\n      tag_203\n        /* \"@openzeppelin/contracts/token/ERC1155/ERC1155.sol\":3840:3844  from */\n      dup6\n        /* \"@openzeppelin/contracts/utils/Context.sol\":719:729  msg.sender */\n      caller\n        /* \"@openzeppelin/contracts/token/ERC1155/ERC1155.sol\":3366:3532  function isApprovedForAll(address account, address operator) public view virtual override returns (bool) {... */\n      tag_91\n      jump\t// in\n        /* \"@openzeppelin/contracts/token/ERC1155/ERC1155.sol\":3823:3859  isApprovedForAll(from, _msgSender()) */\n    tag_203:\n        /* \"@openzeppelin/contracts/token/ERC1155/ERC1155.sol\":3778:3926  require(... */\n      tag_205\n      jumpi\n      mload(0x40)\n      0x08c379a000000000000000000000000000000000000000000000000000000000\n      dup2\n      mstore\n        /* \"#utility.yul\":14312:14314   */\n      0x20\n        /* \"@openzeppelin/contracts/token/ERC1155/ERC1155.sol\":3778:3926  require(... */\n      0x04\n      dup3\n      add\n        /* \"#utility.yul\":14294:14315   */\n      mstore\n        /* \"#utility.yul\":14351:14353   */\n      0x29\n        /* \"#utility.yul\":14331:14349   */\n      0x24\n      dup3\n      add\n        /* \"#utility.yul\":14324:14354   */\n      mstore\n        /* \"#utility.yul\":14390:14424   */\n      0x455243313135353a2063616c6c6572206973206e6f74206f776e6572206e6f72\n        /* \"#utility.yul\":14370:14388   */\n      0x44\n      dup3\n      add\n        /* \"#utility.yul\":14363:14425   */\n      mstore\n        /* \"#utility.yul\":14461:14472   */\n      0x20617070726f7665640000000000000000000000000000000000000000000000\n        /* \"#utility.yul\":14441:14459   */\n      0x64\n      dup3\n      add\n        /* \"#utility.yul\":14434:14473   */\n      mstore\n        /* \"#utility.yul\":14490:14509   */\n      0x84\n      add\n        /* \"@openzeppelin/contracts/token/ERC1155/ERC1155.sol\":3778:3926  require(... */\n      tag_101\n        /* \"#utility.yul\":14110:14515   */\n      jump\n        /* \"@openzeppelin/contracts/token/ERC1155/ERC1155.sol\":3778:3926  require(... */\n    tag_205:\n        /* \"@openzeppelin/contracts/token/ERC1155/ERC1155.sol\":3936:3981  _safeTransferFrom(from, to, id, amount, data) */\n      tag_126\n        /* \"@openzeppelin/contracts/token/ERC1155/ERC1155.sol\":3954:3958  from */\n      dup6\n        /* \"@openzeppelin/contracts/token/ERC1155/ERC1155.sol\":3960:3962  to */\n      dup6\n        /* \"@openzeppelin/contracts/token/ERC1155/ERC1155.sol\":3964:3966  id */\n      dup6\n        /* \"@openzeppelin/contracts/token/ERC1155/ERC1155.sol\":3968:3974  amount */\n      dup6\n        /* \"@openzeppelin/contracts/token/ERC1155/ERC1155.sol\":3976:3980  data */\n      dup6\n        /* \"@openzeppelin/contracts/token/ERC1155/ERC1155.sol\":3936:3953  _safeTransferFrom */\n      tag_209\n        /* \"@openzeppelin/contracts/token/ERC1155/ERC1155.sol\":3936:3981  _safeTransferFrom(from, to, id, amount, data) */\n      jump\t// in\n        /* \"contracts/GU-NFT/ERC1155URIStorage.sol\":1633:1984  function uri(uint256 tokenId) public view virtual override returns (string memory) {... */\n    tag_112:\n        /* \"contracts/GU-NFT/ERC1155URIStorage.sol\":1727:1749  string memory tokenURI */\n      0x00\n        /* \"contracts/GU-NFT/ERC1155URIStorage.sol\":1752:1771  _tokenURIs[tokenId] */\n      dup2\n      dup2\n      mstore\n        /* \"contracts/GU-NFT/ERC1155URIStorage.sol\":1752:1762  _tokenURIs */\n      0x05\n        /* \"contracts/GU-NFT/ERC1155URIStorage.sol\":1752:1771  _tokenURIs[tokenId] */\n      0x20\n      mstore\n      0x40\n      dup2\n      keccak256\n        /* \"contracts/GU-NFT/ERC1155URIStorage.sol\":1727:1771  string memory tokenURI = _tokenURIs[tokenId] */\n      dup1\n      sload\n        /* \"contracts/GU-NFT/ERC1155URIStorage.sol\":1701:1714  string memory */\n      0x60\n      swap3\n        /* \"contracts/GU-NFT/ERC1155URIStorage.sol\":1727:1749  string memory tokenURI */\n      swap2\n        /* \"contracts/GU-NFT/ERC1155URIStorage.sol\":1752:1771  _tokenURIs[tokenId] */\n      swap1\n        /* \"contracts/GU-NFT/ERC1155URIStorage.sol\":1727:1771  string memory tokenURI = _tokenURIs[tokenId] */\n      tag_212\n      swap1\n      tag_160\n      jump\t// in\n    tag_212:\n      dup1\n      0x1f\n      add\n      0x20\n      dup1\n      swap2\n      div\n      mul\n      0x20\n      add\n      mload(0x40)\n      swap1\n      dup2\n      add\n      0x40\n      mstore\n      dup1\n      swap3\n      swap2\n      swap1\n      dup2\n      dup2\n      mstore\n      0x20\n      add\n      dup3\n      dup1\n      sload\n      tag_213\n      swap1\n      tag_160\n      jump\t// in\n    tag_213:\n      dup1\n      iszero\n      tag_214\n      jumpi\n      dup1\n      0x1f\n      lt\n      tag_215\n      jumpi\n      0x0100\n      dup1\n      dup4\n      sload\n      div\n      mul\n      dup4\n      mstore\n      swap2\n      0x20\n      add\n      swap2\n      jump(tag_214)\n    tag_215:\n      dup3\n      add\n      swap2\n      swap1\n      0x00\n      mstore\n      keccak256(0x00, 0x20)\n      swap1\n    tag_216:\n      dup2\n      sload\n      dup2\n      mstore\n      swap1\n      0x01\n      add\n      swap1\n      0x20\n      add\n      dup1\n      dup4\n      gt\n      tag_216\n      jumpi\n      dup3\n      swap1\n      sub\n      0x1f\n      and\n      dup3\n      add\n      swap2\n    tag_214:\n      pop\n      pop\n      pop\n      pop\n      pop\n      swap1\n      pop\n        /* \"contracts/GU-NFT/ERC1155URIStorage.sol\":1907:1908  0 */\n      0x00\n        /* \"contracts/GU-NFT/ERC1155URIStorage.sol\":1888:1896  tokenURI */\n      dup2\n        /* \"contracts/GU-NFT/ERC1155URIStorage.sol\":1882:1904  bytes(tokenURI).length */\n      mload\n        /* \"contracts/GU-NFT/ERC1155URIStorage.sol\":1882:1908  bytes(tokenURI).length > 0 */\n      gt\n        /* \"contracts/GU-NFT/ERC1155URIStorage.sol\":1882:1976  bytes(tokenURI).length > 0 ? string(abi.encodePacked(_baseURI, tokenURI)) : super.uri(tokenId) */\n      tag_217\n      jumpi\n        /* \"contracts/GU-NFT/ERC1155URIStorage.sol\":1958:1976  super.uri(tokenId) */\n      tag_111\n        /* \"contracts/GU-NFT/ERC1155URIStorage.sol\":1968:1975  tokenId */\n      dup4\n        /* \"contracts/GU-NFT/ERC1155URIStorage.sol\":1958:1967  super.uri */\n      tag_219\n        /* \"contracts/GU-NFT/ERC1155URIStorage.sol\":1958:1976  super.uri(tokenId) */\n      jump\t// in\n        /* \"contracts/GU-NFT/ERC1155URIStorage.sol\":1882:1976  bytes(tokenURI).length > 0 ? string(abi.encodePacked(_baseURI, tokenURI)) : super.uri(tokenId) */\n    tag_217:\n        /* \"contracts/GU-NFT/ERC1155URIStorage.sol\":1935:1943  _baseURI */\n      0x04\n        /* \"contracts/GU-NFT/ERC1155URIStorage.sol\":1945:1953  tokenURI */\n      dup2\n        /* \"contracts/GU-NFT/ERC1155URIStorage.sol\":1918:1954  abi.encodePacked(_baseURI, tokenURI) */\n      add(0x20, mload(0x40))\n      tag_115\n      swap3\n      swap2\n      swap1\n      tag_222\n      jump\t// in\n        /* \"@openzeppelin/contracts/token/ERC1155/ERC1155.sol\":6233:7348  function _safeBatchTransferFrom(... */\n    tag_127:\n        /* \"@openzeppelin/contracts/token/ERC1155/ERC1155.sol\":6453:6460  amounts */\n      dup2\n        /* \"@openzeppelin/contracts/token/ERC1155/ERC1155.sol\":6453:6467  amounts.length */\n      mload\n        /* \"@openzeppelin/contracts/token/ERC1155/ERC1155.sol\":6439:6442  ids */\n      dup4\n        /* \"@openzeppelin/contracts/token/ERC1155/ERC1155.sol\":6439:6449  ids.length */\n      mload\n        /* \"@openzeppelin/contracts/token/ERC1155/ERC1155.sol\":6439:6467  ids.length == amounts.length */\n      eq\n        /* \"@openzeppelin/contracts/token/ERC1155/ERC1155.sol\":6431:6512  require(ids.length == amounts.length, \"ERC1155: ids and amounts length mismatch\") */\n      tag_225\n      jumpi\n      mload(0x40)\n      0x08c379a000000000000000000000000000000000000000000000000000000000\n      dup2\n      mstore\n        /* \"#utility.yul\":16142:16144   */\n      0x20\n        /* \"@openzeppelin/contracts/token/ERC1155/ERC1155.sol\":6431:6512  require(ids.length == amounts.length, \"ERC1155: ids and amounts length mismatch\") */\n      0x04\n      dup3\n      add\n        /* \"#utility.yul\":16124:16145   */\n      mstore\n        /* \"#utility.yul\":16181:16183   */\n      0x28\n        /* \"#utility.yul\":16161:16179   */\n      0x24\n      dup3\n      add\n        /* \"#utility.yul\":16154:16184   */\n      mstore\n        /* \"#utility.yul\":16220:16254   */\n      0x455243313135353a2069647320616e6420616d6f756e7473206c656e67746820\n        /* \"#utility.yul\":16200:16218   */\n      0x44\n      dup3\n      add\n        /* \"#utility.yul\":16193:16255   */\n      mstore\n        /* \"#utility.yul\":16291:16301   */\n      0x6d69736d61746368000000000000000000000000000000000000000000000000\n        /* \"#utility.yul\":16271:16289   */\n      0x64\n      dup3\n      add\n        /* \"#utility.yul\":16264:16302   */\n      mstore\n        /* \"#utility.yul\":16319:16338   */\n      0x84\n      add\n        /* \"@openzeppelin/contracts/token/ERC1155/ERC1155.sol\":6431:6512  require(ids.length == amounts.length, \"ERC1155: ids and amounts length mismatch\") */\n      tag_101\n        /* \"#utility.yul\":15940:16344   */\n      jump\n        /* \"@openzeppelin/contracts/token/ERC1155/ERC1155.sol\":6431:6512  require(ids.length == amounts.length, \"ERC1155: ids and amounts length mismatch\") */\n    tag_225:\n        /* \"@openzeppelin/contracts/token/ERC1155/ERC1155.sol\":6530:6546  to != address(0) */\n      0xffffffffffffffffffffffffffffffffffffffff\n      dup5\n      and\n        /* \"@openzeppelin/contracts/token/ERC1155/ERC1155.sol\":6522:6588  require(to != address(0), \"ERC1155: transfer to the zero address\") */\n      tag_228\n      jumpi\n      mload(0x40)\n      0x08c379a000000000000000000000000000000000000000000000000000000000\n      dup2\n      mstore\n        /* \"#utility.yul\":16551:16553   */\n      0x20\n        /* \"@openzeppelin/contracts/token/ERC1155/ERC1155.sol\":6522:6588  require(to != address(0), \"ERC1155: transfer to the zero address\") */\n      0x04\n      dup3\n      add\n        /* \"#utility.yul\":16533:16554   */\n      mstore\n        /* \"#utility.yul\":16590:16592   */\n      0x25\n        /* \"#utility.yul\":16570:16588   */\n      0x24\n      dup3\n      add\n        /* \"#utility.yul\":16563:16593   */\n      mstore\n        /* \"#utility.yul\":16629:16663   */\n      0x455243313135353a207472616e7366657220746f20746865207a65726f206164\n        /* \"#utility.yul\":16609:16627   */\n      0x44\n      dup3\n      add\n        /* \"#utility.yul\":16602:16664   */\n      mstore\n        /* \"#utility.yul\":16700:16707   */\n      0x6472657373000000000000000000000000000000000000000000000000000000\n        /* \"#utility.yul\":16680:16698   */\n      0x64\n      dup3\n      add\n        /* \"#utility.yul\":16673:16708   */\n      mstore\n        /* \"#utility.yul\":16725:16744   */\n      0x84\n      add\n        /* \"@openzeppelin/contracts/token/ERC1155/ERC1155.sol\":6522:6588  require(to != address(0), \"ERC1155: transfer to the zero address\") */\n      tag_101\n        /* \"#utility.yul\":16349:16750   */\n      jump\n        /* \"@openzeppelin/contracts/token/ERC1155/ERC1155.sol\":6522:6588  require(to != address(0), \"ERC1155: transfer to the zero address\") */\n    tag_228:\n        /* \"@openzeppelin/contracts/utils/Context.sol\":719:729  msg.sender */\n      caller\n        /* \"@openzeppelin/contracts/token/ERC1155/ERC1155.sol\":6599:6615  address operator */\n      0x00\n        /* \"@openzeppelin/contracts/token/ERC1155/ERC1155.sol\":6712:7123  for (uint256 i = 0; i < ids.length; ++i) {... */\n    tag_234:\n        /* \"@openzeppelin/contracts/token/ERC1155/ERC1155.sol\":6736:6739  ids */\n      dup5\n        /* \"@openzeppelin/contracts/token/ERC1155/ERC1155.sol\":6736:6746  ids.length */\n      mload\n        /* \"@openzeppelin/contracts/token/ERC1155/ERC1155.sol\":6732:6733  i */\n      dup2\n        /* \"@openzeppelin/contracts/token/ERC1155/ERC1155.sol\":6732:6746  i < ids.length */\n      lt\n        /* \"@openzeppelin/contracts/token/ERC1155/ERC1155.sol\":6712:7123  for (uint256 i = 0; i < ids.length; ++i) {... */\n      iszero\n      tag_235\n      jumpi\n        /* \"@openzeppelin/contracts/token/ERC1155/ERC1155.sol\":6767:6777  uint256 id */\n      0x00\n        /* \"@openzeppelin/contracts/token/ERC1155/ERC1155.sol\":6780:6783  ids */\n      dup6\n        /* \"@openzeppelin/contracts/token/ERC1155/ERC1155.sol\":6784:6785  i */\n      dup3\n        /* \"@openzeppelin/contracts/token/ERC1155/ERC1155.sol\":6780:6786  ids[i] */\n      dup2\n      mload\n      dup2\n      lt\n      tag_238\n      jumpi\n      tag_238\n      tag_142\n      jump\t// in\n    tag_238:\n      0x20\n      mul\n      0x20\n      add\n      add\n      mload\n        /* \"@openzeppelin/contracts/token/ERC1155/ERC1155.sol\":6767:6786  uint256 id = ids[i] */\n      swap1\n      pop\n        /* \"@openzeppelin/contracts/token/ERC1155/ERC1155.sol\":6800:6814  uint256 amount */\n      0x00\n        /* \"@openzeppelin/contracts/token/ERC1155/ERC1155.sol\":6817:6824  amounts */\n      dup6\n        /* \"@openzeppelin/contracts/token/ERC1155/ERC1155.sol\":6825:6826  i */\n      dup4\n        /* \"@openzeppelin/contracts/token/ERC1155/ERC1155.sol\":6817:6827  amounts[i] */\n      dup2\n      mload\n      dup2\n      lt\n      tag_240\n      jumpi\n      tag_240\n      tag_142\n      jump\t// in\n    tag_240:\n      0x20\n      swap1\n      dup2\n      mul\n      swap2\n      swap1\n      swap2\n      add\n      dup2\n      add\n      mload\n        /* \"@openzeppelin/contracts/token/ERC1155/ERC1155.sol\":6842:6861  uint256 fromBalance */\n      0x00\n        /* \"@openzeppelin/contracts/token/ERC1155/ERC1155.sol\":6864:6877  _balances[id] */\n      dup5\n      dup2\n      mstore\n      dup1\n      dup4\n      mstore\n      0x40\n      dup1\n      dup3\n      keccak256\n        /* \"@openzeppelin/contracts/token/ERC1155/ERC1155.sol\":6864:6883  _balances[id][from] */\n      0xffffffffffffffffffffffffffffffffffffffff\n      dup15\n      and\n      dup4\n      mstore\n      swap1\n      swap4\n      mstore\n      swap2\n      swap1\n      swap2\n      keccak256\n      sload\n        /* \"@openzeppelin/contracts/token/ERC1155/ERC1155.sol\":6817:6827  amounts[i] */\n      swap1\n      swap2\n      pop\n        /* \"@openzeppelin/contracts/token/ERC1155/ERC1155.sol\":6905:6926  fromBalance >= amount */\n      dup2\n      dup2\n      lt\n      iszero\n        /* \"@openzeppelin/contracts/token/ERC1155/ERC1155.sol\":6897:6973  require(fromBalance >= amount, \"ERC1155: insufficient balance for transfer\") */\n      tag_241\n      jumpi\n      mload(0x40)\n      0x08c379a000000000000000000000000000000000000000000000000000000000\n      dup2\n      mstore\n        /* \"#utility.yul\":16957:16959   */\n      0x20\n        /* \"@openzeppelin/contracts/token/ERC1155/ERC1155.sol\":6897:6973  require(fromBalance >= amount, \"ERC1155: insufficient balance for transfer\") */\n      0x04\n      dup3\n      add\n        /* \"#utility.yul\":16939:16960   */\n      mstore\n        /* \"#utility.yul\":16996:16998   */\n      0x2a\n        /* \"#utility.yul\":16976:16994   */\n      0x24\n      dup3\n      add\n        /* \"#utility.yul\":16969:16999   */\n      mstore\n        /* \"#utility.yul\":17035:17069   */\n      0x455243313135353a20696e73756666696369656e742062616c616e636520666f\n        /* \"#utility.yul\":17015:17033   */\n      0x44\n      dup3\n      add\n        /* \"#utility.yul\":17008:17070   */\n      mstore\n        /* \"#utility.yul\":17106:17118   */\n      0x72207472616e7366657200000000000000000000000000000000000000000000\n        /* \"#utility.yul\":17086:17104   */\n      0x64\n      dup3\n      add\n        /* \"#utility.yul\":17079:17119   */\n      mstore\n        /* \"#utility.yul\":17136:17155   */\n      0x84\n      add\n        /* \"@openzeppelin/contracts/token/ERC1155/ERC1155.sol\":6897:6973  require(fromBalance >= amount, \"ERC1155: insufficient balance for transfer\") */\n      tag_101\n        /* \"#utility.yul\":16755:17161   */\n      jump\n        /* \"@openzeppelin/contracts/token/ERC1155/ERC1155.sol\":6897:6973  require(fromBalance >= amount, \"ERC1155: insufficient balance for transfer\") */\n    tag_241:\n        /* \"@openzeppelin/contracts/token/ERC1155/ERC1155.sol\":7015:7024  _balances */\n      0x00\n        /* \"@openzeppelin/contracts/token/ERC1155/ERC1155.sol\":7015:7028  _balances[id] */\n      dup4\n      dup2\n      mstore\n      0x20\n      dup2\n      dup2\n      mstore\n      0x40\n      dup1\n      dup4\n      keccak256\n        /* \"@openzeppelin/contracts/token/ERC1155/ERC1155.sol\":7015:7034  _balances[id][from] */\n      0xffffffffffffffffffffffffffffffffffffffff\n      dup15\n      dup2\n      and\n      dup6\n      mstore\n      swap3\n      mstore\n      dup1\n      dup4\n      keccak256\n        /* \"@openzeppelin/contracts/token/ERC1155/ERC1155.sol\":7037:7057  fromBalance - amount */\n      dup6\n      dup6\n      sub\n        /* \"@openzeppelin/contracts/token/ERC1155/ERC1155.sol\":7015:7057  _balances[id][from] = fromBalance - amount */\n      swap1\n      sstore\n        /* \"@openzeppelin/contracts/token/ERC1155/ERC1155.sol\":7085:7102  _balances[id][to] */\n      swap1\n      dup12\n      and\n      dup3\n      mstore\n      dup2\n      keccak256\n        /* \"@openzeppelin/contracts/token/ERC1155/ERC1155.sol\":7085:7112  _balances[id][to] += amount */\n      dup1\n      sload\n        /* \"@openzeppelin/contracts/token/ERC1155/ERC1155.sol\":7037:7057  fromBalance - amount */\n      dup5\n      swap3\n        /* \"@openzeppelin/contracts/token/ERC1155/ERC1155.sol\":7015:7024  _balances */\n      swap1\n        /* \"@openzeppelin/contracts/token/ERC1155/ERC1155.sol\":7085:7112  _balances[id][to] += amount */\n      tag_244\n      swap1\n        /* \"@openzeppelin/contracts/token/ERC1155/ERC1155.sol\":7037:7057  fromBalance - amount */\n      dup5\n      swap1\n        /* \"@openzeppelin/contracts/token/ERC1155/ERC1155.sol\":7085:7112  _balances[id][to] += amount */\n      tag_245\n      jump\t// in\n    tag_244:\n      swap3\n      pop\n      pop\n      dup2\n      swap1\n      sstore\n      pop\n        /* \"@openzeppelin/contracts/token/ERC1155/ERC1155.sol\":6753:7123  {... */\n      pop\n      pop\n      pop\n        /* \"@openzeppelin/contracts/token/ERC1155/ERC1155.sol\":6748:6751  ++i */\n      dup1\n      tag_246\n      swap1\n      tag_148\n      jump\t// in\n    tag_246:\n      swap1\n      pop\n        /* \"@openzeppelin/contracts/token/ERC1155/ERC1155.sol\":6712:7123  for (uint256 i = 0; i < ids.length; ++i) {... */\n      jump(tag_234)\n    tag_235:\n      pop\n        /* \"@openzeppelin/contracts/token/ERC1155/ERC1155.sol\":7168:7170  to */\n      dup5\n        /* \"@openzeppelin/contracts/token/ERC1155/ERC1155.sol\":7138:7185  TransferBatch(operator, from, to, ids, amounts) */\n      0xffffffffffffffffffffffffffffffffffffffff\n      and\n        /* \"@openzeppelin/contracts/token/ERC1155/ERC1155.sol\":7162:7166  from */\n      dup7\n        /* \"@openzeppelin/contracts/token/ERC1155/ERC1155.sol\":7138:7185  TransferBatch(operator, from, to, ids, amounts) */\n      0xffffffffffffffffffffffffffffffffffffffff\n      and\n        /* \"@openzeppelin/contracts/token/ERC1155/ERC1155.sol\":7152:7160  operator */\n      dup3\n        /* \"@openzeppelin/contracts/token/ERC1155/ERC1155.sol\":7138:7185  TransferBatch(operator, from, to, ids, amounts) */\n      0xffffffffffffffffffffffffffffffffffffffff\n      and\n      0x4a39dc06d4c0dbc64b70af90fd698a233a518aa5d07e595d983b8c0526c8f7fb\n        /* \"@openzeppelin/contracts/token/ERC1155/ERC1155.sol\":7172:7175  ids */\n      dup8\n        /* \"@openzeppelin/contracts/token/ERC1155/ERC1155.sol\":7177:7184  amounts */\n      dup8\n        /* \"@openzeppelin/contracts/token/ERC1155/ERC1155.sol\":7138:7185  TransferBatch(operator, from, to, ids, amounts) */\n      mload(0x40)\n      tag_247\n      swap3\n      swap2\n      swap1\n      tag_248\n      jump\t// in\n    tag_247:\n      mload(0x40)\n      dup1\n      swap2\n      sub\n      swap1\n      log4\n        /* \"@openzeppelin/contracts/token/ERC1155/ERC1155.sol\":7266:7341  _doSafeBatchTransferAcceptanceCheck(operator, from, to, ids, amounts, data) */\n      tag_251\n        /* \"@openzeppelin/contracts/token/ERC1155/ERC1155.sol\":7302:7310  operator */\n      dup2\n        /* \"@openzeppelin/contracts/token/ERC1155/ERC1155.sol\":7312:7316  from */\n      dup8\n        /* \"@openzeppelin/contracts/token/ERC1155/ERC1155.sol\":7318:7320  to */\n      dup8\n        /* \"@openzeppelin/contracts/token/ERC1155/ERC1155.sol\":7322:7325  ids */\n      dup8\n        /* \"@openzeppelin/contracts/token/ERC1155/ERC1155.sol\":7327:7334  amounts */\n      dup8\n        /* \"@openzeppelin/contracts/token/ERC1155/ERC1155.sol\":7336:7340  data */\n      dup8\n        /* \"@openzeppelin/contracts/token/ERC1155/ERC1155.sol\":7266:7301  _doSafeBatchTransferAcceptanceCheck */\n      tag_252\n        /* \"@openzeppelin/contracts/token/ERC1155/ERC1155.sol\":7266:7341  _doSafeBatchTransferAcceptanceCheck(operator, from, to, ids, amounts, data) */\n      jump\t// in\n    tag_251:\n        /* \"@openzeppelin/contracts/token/ERC1155/ERC1155.sol\":6421:7348  {... */\n      pop\n        /* \"@openzeppelin/contracts/token/ERC1155/ERC1155.sol\":6233:7348  function _safeBatchTransferFrom(... */\n      pop\n      pop\n      pop\n      pop\n      pop\n      jump\t// out\n        /* \"contracts/GU-NFT/ERC1155URIStorage.sol\":2324:2426  function _setBaseURI(string memory __baseURI) internal virtual {... */\n    tag_157:\n        /* \"contracts/GU-NFT/ERC1155URIStorage.sol\":2398:2418  _baseURI = __baseURI */\n      dup1\n      mload\n      tag_156\n      swap1\n        /* \"contracts/GU-NFT/ERC1155URIStorage.sol\":2398:2406  _baseURI */\n      0x04\n      swap1\n        /* \"contracts/GU-NFT/ERC1155URIStorage.sol\":2398:2418  _baseURI = __baseURI */\n      0x20\n      dup5\n      add\n      swap1\n      tag_255\n      jump\t// in\n        /* \"@openzeppelin/contracts/token/ERC1155/ERC1155.sol\":12773:13096  function _setApprovalForAll(... */\n    tag_174:\n        /* \"@openzeppelin/contracts/token/ERC1155/ERC1155.sol\":12923:12931  operator */\n      dup2\n        /* \"@openzeppelin/contracts/token/ERC1155/ERC1155.sol\":12914:12931  owner != operator */\n      0xffffffffffffffffffffffffffffffffffffffff\n      and\n        /* \"@openzeppelin/contracts/token/ERC1155/ERC1155.sol\":12914:12919  owner */\n      dup4\n        /* \"@openzeppelin/contracts/token/ERC1155/ERC1155.sol\":12914:12931  owner != operator */\n      0xffffffffffffffffffffffffffffffffffffffff\n      and\n      sub\n        /* \"@openzeppelin/contracts/token/ERC1155/ERC1155.sol\":12906:12977  require(owner != operator, \"ERC1155: setting approval status for self\") */\n      tag_257\n      jumpi\n      mload(0x40)\n      0x08c379a000000000000000000000000000000000000000000000000000000000\n      dup2\n      mstore\n        /* \"#utility.yul\":17971:17973   */\n      0x20\n        /* \"@openzeppelin/contracts/token/ERC1155/ERC1155.sol\":12906:12977  require(owner != operator, \"ERC1155: setting approval status for self\") */\n      0x04\n      dup3\n      add\n        /* \"#utility.yul\":17953:17974   */\n      mstore\n        /* \"#utility.yul\":18010:18012   */\n      0x29\n        /* \"#utility.yul\":17990:18008   */\n      0x24\n      dup3\n      add\n        /* \"#utility.yul\":17983:18013   */\n      mstore\n        /* \"#utility.yul\":18049:18083   */\n      0x455243313135353a2073657474696e6720617070726f76616c20737461747573\n        /* \"#utility.yul\":18029:18047   */\n      0x44\n      dup3\n      add\n        /* \"#utility.yul\":18022:18084   */\n      mstore\n        /* \"#utility.yul\":18120:18131   */\n      0x20666f722073656c660000000000000000000000000000000000000000000000\n        /* \"#utility.yul\":18100:18118   */\n      0x64\n      dup3\n      add\n        /* \"#utility.yul\":18093:18132   */\n      mstore\n        /* \"#utility.yul\":18149:18168   */\n      0x84\n      add\n        /* \"@openzeppelin/contracts/token/ERC1155/ERC1155.sol\":12906:12977  require(owner != operator, \"ERC1155: setting approval status for self\") */\n      tag_101\n        /* \"#utility.yul\":17769:18174   */\n      jump\n        /* \"@openzeppelin/contracts/token/ERC1155/ERC1155.sol\":12906:12977  require(owner != operator, \"ERC1155: setting approval status for self\") */\n    tag_257:\n        /* \"@openzeppelin/contracts/token/ERC1155/ERC1155.sol\":12987:13012  _operatorApprovals[owner] */\n      0xffffffffffffffffffffffffffffffffffffffff\n      dup4\n      dup2\n      and\n      0x00\n      dup2\n      dup2\n      mstore\n        /* \"@openzeppelin/contracts/token/ERC1155/ERC1155.sol\":12987:13005  _operatorApprovals */\n      0x01\n        /* \"@openzeppelin/contracts/token/ERC1155/ERC1155.sol\":12987:13012  _operatorApprovals[owner] */\n      0x20\n      swap1\n      dup2\n      mstore\n      0x40\n      dup1\n      dup4\n      keccak256\n        /* \"@openzeppelin/contracts/token/ERC1155/ERC1155.sol\":12987:13022  _operatorApprovals[owner][operator] */\n      swap5\n      dup8\n      and\n      dup1\n      dup5\n      mstore\n      swap5\n      dup3\n      mstore\n      swap2\n      dup3\n      swap1\n      keccak256\n        /* \"@openzeppelin/contracts/token/ERC1155/ERC1155.sol\":12987:13033  _operatorApprovals[owner][operator] = approved */\n      dup1\n      sload\n      0xffffffffffffffffffffffffffffffffffffffffffffffffffffffffffffff00\n      and\n      dup7\n      iszero\n      iszero\n      swap1\n      dup2\n      or\n      swap1\n      swap2\n      sstore\n        /* \"@openzeppelin/contracts/token/ERC1155/ERC1155.sol\":13048:13089  ApprovalForAll(owner, operator, approved) */\n      swap2\n      mload\n        /* \"#utility.yul\":1228:1269   */\n      swap2\n      dup3\n      mstore\n        /* \"@openzeppelin/contracts/token/ERC1155/ERC1155.sol\":13048:13089  ApprovalForAll(owner, operator, approved) */\n      0x17307eab39ab6107e8899845ad3d59bd9653f200f220920489ca2b5937696c31\n      swap2\n        /* \"#utility.yul\":1201:1219   */\n      add\n        /* \"@openzeppelin/contracts/token/ERC1155/ERC1155.sol\":13048:13089  ApprovalForAll(owner, operator, approved) */\n      mload(0x40)\n      dup1\n      swap2\n      sub\n      swap1\n      log3\n        /* \"@openzeppelin/contracts/token/ERC1155/ERC1155.sol\":12773:13096  function _setApprovalForAll(... */\n      pop\n      pop\n      pop\n      jump\t// out\n        /* \"contracts/GU-NFT/ERC1155URIStorage.sol\":2069:2237  function _setURI(uint256 tokenId, string memory tokenURI) internal virtual {... */\n    tag_182:\n        /* \"contracts/GU-NFT/ERC1155URIStorage.sol\":2155:2174  _tokenURIs[tokenId] */\n      0x00\n      dup3\n      dup2\n      mstore\n        /* \"contracts/GU-NFT/ERC1155URIStorage.sol\":2155:2165  _tokenURIs */\n      0x05\n        /* \"contracts/GU-NFT/ERC1155URIStorage.sol\":2155:2174  _tokenURIs[tokenId] */\n      0x20\n      swap1\n      dup2\n      mstore\n      0x40\n      swap1\n      swap2\n      keccak256\n        /* \"contracts/GU-NFT/ERC1155URIStorage.sol\":2155:2185  _tokenURIs[tokenId] = tokenURI */\n      dup3\n      mload\n      tag_262\n      swap3\n      dup5\n      add\n      swap1\n      tag_255\n      jump\t// in\n    tag_262:\n      pop\n        /* \"contracts/GU-NFT/ERC1155URIStorage.sol\":2069:2237  function _setURI(uint256 tokenId, string memory tokenURI) internal virtual {... */\n      pop\n      pop\n      jump\t// out\n        /* \"@openzeppelin/contracts/token/ERC1155/ERC1155.sol\":8630:9339  function _mint(... */\n    tag_184:\n        /* \"@openzeppelin/contracts/token/ERC1155/ERC1155.sol\":8777:8793  to != address(0) */\n      0xffffffffffffffffffffffffffffffffffffffff\n      dup5\n      and\n        /* \"@openzeppelin/contracts/token/ERC1155/ERC1155.sol\":8769:8831  require(to != address(0), \"ERC1155: mint to the zero address\") */\n      tag_264\n      jumpi\n      mload(0x40)\n      0x08c379a000000000000000000000000000000000000000000000000000000000\n      dup2\n      mstore\n        /* \"#utility.yul\":18381:18383   */\n      0x20\n        /* \"@openzeppelin/contracts/token/ERC1155/ERC1155.sol\":8769:8831  require(to != address(0), \"ERC1155: mint to the zero address\") */\n      0x04\n      dup3\n      add\n        /* \"#utility.yul\":18363:18384   */\n      mstore\n        /* \"#utility.yul\":18420:18422   */\n      0x21\n        /* \"#utility.yul\":18400:18418   */\n      0x24\n      dup3\n      add\n        /* \"#utility.yul\":18393:18423   */\n      mstore\n        /* \"#utility.yul\":18459:18493   */\n      0x455243313135353a206d696e7420746f20746865207a65726f20616464726573\n        /* \"#utility.yul\":18439:18457   */\n      0x44\n      dup3\n      add\n        /* \"#utility.yul\":18432:18494   */\n      mstore\n        /* \"#utility.yul\":18530:18533   */\n      0x7300000000000000000000000000000000000000000000000000000000000000\n        /* \"#utility.yul\":18510:18528   */\n      0x64\n      dup3\n      add\n        /* \"#utility.yul\":18503:18534   */\n      mstore\n        /* \"#utility.yul\":18551:18570   */\n      0x84\n      add\n        /* \"@openzeppelin/contracts/token/ERC1155/ERC1155.sol\":8769:8831  require(to != address(0), \"ERC1155: mint to the zero address\") */\n      tag_101\n        /* \"#utility.yul\":18179:18576   */\n      jump\n        /* \"@openzeppelin/contracts/token/ERC1155/ERC1155.sol\":8769:8831  require(to != address(0), \"ERC1155: mint to the zero address\") */\n    tag_264:\n        /* \"@openzeppelin/contracts/utils/Context.sol\":719:729  msg.sender */\n      caller\n        /* \"@openzeppelin/contracts/token/ERC1155/ERC1155.sol\":8842:8858  address operator */\n      0x00\n        /* \"@openzeppelin/contracts/token/ERC1155/ERC1155.sol\":8906:8927  _asSingletonArray(id) */\n      tag_268\n        /* \"@openzeppelin/contracts/token/ERC1155/ERC1155.sol\":8924:8926  id */\n      dup6\n        /* \"@openzeppelin/contracts/token/ERC1155/ERC1155.sol\":8906:8923  _asSingletonArray */\n      tag_269\n        /* \"@openzeppelin/contracts/token/ERC1155/ERC1155.sol\":8906:8927  _asSingletonArray(id) */\n      jump\t// in\n    tag_268:\n        /* \"@openzeppelin/contracts/token/ERC1155/ERC1155.sol\":8883:8927  uint256[] memory ids = _asSingletonArray(id) */\n      swap1\n      pop\n        /* \"@openzeppelin/contracts/token/ERC1155/ERC1155.sol\":8937:8961  uint256[] memory amounts */\n      0x00\n        /* \"@openzeppelin/contracts/token/ERC1155/ERC1155.sol\":8964:8989  _asSingletonArray(amount) */\n      tag_270\n        /* \"@openzeppelin/contracts/token/ERC1155/ERC1155.sol\":8982:8988  amount */\n      dup6\n        /* \"@openzeppelin/contracts/token/ERC1155/ERC1155.sol\":8964:8981  _asSingletonArray */\n      tag_269\n        /* \"@openzeppelin/contracts/token/ERC1155/ERC1155.sol\":8964:8989  _asSingletonArray(amount) */\n      jump\t// in\n    tag_270:\n        /* \"@openzeppelin/contracts/token/ERC1155/ERC1155.sol\":8937:8989  uint256[] memory amounts = _asSingletonArray(amount) */\n      swap1\n      pop\n        /* \"@openzeppelin/contracts/token/ERC1155/ERC1155.sol\":9077:9086  _balances */\n      0x00\n        /* \"@openzeppelin/contracts/token/ERC1155/ERC1155.sol\":9077:9090  _balances[id] */\n      dup7\n      dup2\n      mstore\n      0x20\n      dup2\n      dup2\n      mstore\n      0x40\n      dup1\n      dup4\n      keccak256\n        /* \"@openzeppelin/contracts/token/ERC1155/ERC1155.sol\":9077:9094  _balances[id][to] */\n      0xffffffffffffffffffffffffffffffffffffffff\n      dup12\n      and\n      dup5\n      mstore\n      swap1\n      swap2\n      mstore\n      dup2\n      keccak256\n        /* \"@openzeppelin/contracts/token/ERC1155/ERC1155.sol\":9077:9104  _balances[id][to] += amount */\n      dup1\n      sload\n        /* \"@openzeppelin/contracts/token/ERC1155/ERC1155.sol\":9098:9104  amount */\n      dup8\n      swap3\n        /* \"@openzeppelin/contracts/token/ERC1155/ERC1155.sol\":9077:9086  _balances */\n      swap1\n        /* \"@openzeppelin/contracts/token/ERC1155/ERC1155.sol\":9077:9104  _balances[id][to] += amount */\n      tag_272\n      swap1\n        /* \"@openzeppelin/contracts/token/ERC1155/ERC1155.sol\":9098:9104  amount */\n      dup5\n      swap1\n        /* \"@openzeppelin/contracts/token/ERC1155/ERC1155.sol\":9077:9104  _balances[id][to] += amount */\n      tag_245\n      jump\t// in\n    tag_272:\n      swap1\n      swap2\n      sstore\n      pop\n      pop\n        /* \"@openzeppelin/contracts/token/ERC1155/ERC1155.sol\":9119:9171  TransferSingle(operator, address(0), to, id, amount) */\n      0x40\n      dup1\n      mload\n        /* \"#utility.yul\":18755:18780   */\n      dup8\n      dup2\n      mstore\n        /* \"#utility.yul\":18811:18813   */\n      0x20\n        /* \"#utility.yul\":18796:18814   */\n      dup2\n      add\n        /* \"#utility.yul\":18789:18823   */\n      dup8\n      swap1\n      mstore\n        /* \"@openzeppelin/contracts/token/ERC1155/ERC1155.sol\":9119:9171  TransferSingle(operator, address(0), to, id, amount) */\n      0xffffffffffffffffffffffffffffffffffffffff\n      dup1\n      dup11\n      and\n      swap3\n        /* \"@openzeppelin/contracts/token/ERC1155/ERC1155.sol\":9152:9153  0 */\n      0x00\n      swap3\n        /* \"@openzeppelin/contracts/token/ERC1155/ERC1155.sol\":9119:9171  TransferSingle(operator, address(0), to, id, amount) */\n      swap2\n      dup8\n      and\n      swap2\n      0xc3d58168c5ae7397731d063d5bbf3d657854427343f4c083240f7aacaa2d0f62\n      swap2\n        /* \"#utility.yul\":18728:18746   */\n      add\n        /* \"@openzeppelin/contracts/token/ERC1155/ERC1155.sol\":9119:9171  TransferSingle(operator, address(0), to, id, amount) */\n      mload(0x40)\n      dup1\n      swap2\n      sub\n      swap1\n      log4\n        /* \"@openzeppelin/contracts/token/ERC1155/ERC1155.sol\":9258:9332  _doSafeTransferAcceptanceCheck(operator, address(0), to, id, amount, data) */\n      tag_276\n        /* \"@openzeppelin/contracts/token/ERC1155/ERC1155.sol\":9289:9297  operator */\n      dup4\n        /* \"@openzeppelin/contracts/token/ERC1155/ERC1155.sol\":9307:9308  0 */\n      0x00\n        /* \"@openzeppelin/contracts/token/ERC1155/ERC1155.sol\":9311:9313  to */\n      dup10\n        /* \"@openzeppelin/contracts/token/ERC1155/ERC1155.sol\":9315:9317  id */\n      dup10\n        /* \"@openzeppelin/contracts/token/ERC1155/ERC1155.sol\":9319:9325  amount */\n      dup10\n        /* \"@openzeppelin/contracts/token/ERC1155/ERC1155.sol\":9327:9331  data */\n      dup10\n        /* \"@openzeppelin/contracts/token/ERC1155/ERC1155.sol\":9258:9288  _doSafeTransferAcceptanceCheck */\n      tag_277\n        /* \"@openzeppelin/contracts/token/ERC1155/ERC1155.sol\":9258:9332  _doSafeTransferAcceptanceCheck(operator, address(0), to, id, amount, data) */\n      jump\t// in\n    tag_276:\n        /* \"@openzeppelin/contracts/token/ERC1155/ERC1155.sol\":8759:9339  {... */\n      pop\n      pop\n      pop\n        /* \"@openzeppelin/contracts/token/ERC1155/ERC1155.sol\":8630:9339  function _mint(... */\n      pop\n      pop\n      pop\n      pop\n      jump\t// out\n        /* \"@openzeppelin/contracts/token/ERC1155/ERC1155.sol\":4940:5887  function _safeTransferFrom(... */\n    tag_209:\n        /* \"@openzeppelin/contracts/token/ERC1155/ERC1155.sol\":5121:5137  to != address(0) */\n      0xffffffffffffffffffffffffffffffffffffffff\n      dup5\n      and\n        /* \"@openzeppelin/contracts/token/ERC1155/ERC1155.sol\":5113:5179  require(to != address(0), \"ERC1155: transfer to the zero address\") */\n      tag_279\n      jumpi\n      mload(0x40)\n      0x08c379a000000000000000000000000000000000000000000000000000000000\n      dup2\n      mstore\n        /* \"#utility.yul\":16551:16553   */\n      0x20\n        /* \"@openzeppelin/contracts/token/ERC1155/ERC1155.sol\":5113:5179  require(to != address(0), \"ERC1155: transfer to the zero address\") */\n      0x04\n      dup3\n      add\n        /* \"#utility.yul\":16533:16554   */\n      mstore\n        /* \"#utility.yul\":16590:16592   */\n      0x25\n        /* \"#utility.yul\":16570:16588   */\n      0x24\n      dup3\n      add\n        /* \"#utility.yul\":16563:16593   */\n      mstore\n        /* \"#utility.yul\":16629:16663   */\n      0x455243313135353a207472616e7366657220746f20746865207a65726f206164\n        /* \"#utility.yul\":16609:16627   */\n      0x44\n      dup3\n      add\n        /* \"#utility.yul\":16602:16664   */\n      mstore\n        /* \"#utility.yul\":16700:16707   */\n      0x6472657373000000000000000000000000000000000000000000000000000000\n        /* \"#utility.yul\":16680:16698   */\n      0x64\n      dup3\n      add\n        /* \"#utility.yul\":16673:16708   */\n      mstore\n        /* \"#utility.yul\":16725:16744   */\n      0x84\n      add\n        /* \"@openzeppelin/contracts/token/ERC1155/ERC1155.sol\":5113:5179  require(to != address(0), \"ERC1155: transfer to the zero address\") */\n      tag_101\n        /* \"#utility.yul\":16349:16750   */\n      jump\n        /* \"@openzeppelin/contracts/token/ERC1155/ERC1155.sol\":5113:5179  require(to != address(0), \"ERC1155: transfer to the zero address\") */\n    tag_279:\n        /* \"@openzeppelin/contracts/utils/Context.sol\":719:729  msg.sender */\n      caller\n        /* \"@openzeppelin/contracts/token/ERC1155/ERC1155.sol\":5190:5206  address operator */\n      0x00\n        /* \"@openzeppelin/contracts/token/ERC1155/ERC1155.sol\":5254:5275  _asSingletonArray(id) */\n      tag_282\n        /* \"@openzeppelin/contracts/token/ERC1155/ERC1155.sol\":5272:5274  id */\n      dup6\n        /* \"@openzeppelin/contracts/token/ERC1155/ERC1155.sol\":5254:5271  _asSingletonArray */\n      tag_269\n        /* \"@openzeppelin/contracts/token/ERC1155/ERC1155.sol\":5254:5275  _asSingletonArray(id) */\n      jump\t// in\n    tag_282:\n        /* \"@openzeppelin/contracts/token/ERC1155/ERC1155.sol\":5231:5275  uint256[] memory ids = _asSingletonArray(id) */\n      swap1\n      pop\n        /* \"@openzeppelin/contracts/token/ERC1155/ERC1155.sol\":5285:5309  uint256[] memory amounts */\n      0x00\n        /* \"@openzeppelin/contracts/token/ERC1155/ERC1155.sol\":5312:5337  _asSingletonArray(amount) */\n      tag_283\n        /* \"@openzeppelin/contracts/token/ERC1155/ERC1155.sol\":5330:5336  amount */\n      dup6\n        /* \"@openzeppelin/contracts/token/ERC1155/ERC1155.sol\":5312:5329  _asSingletonArray */\n      tag_269\n        /* \"@openzeppelin/contracts/token/ERC1155/ERC1155.sol\":5312:5337  _asSingletonArray(amount) */\n      jump\t// in\n    tag_283:\n        /* \"@openzeppelin/contracts/token/ERC1155/ERC1155.sol\":5285:5337  uint256[] memory amounts = _asSingletonArray(amount) */\n      swap1\n      pop\n        /* \"@openzeppelin/contracts/token/ERC1155/ERC1155.sol\":5419:5438  uint256 fromBalance */\n      0x00\n        /* \"@openzeppelin/contracts/token/ERC1155/ERC1155.sol\":5441:5454  _balances[id] */\n      dup7\n      dup2\n      mstore\n      0x20\n      dup2\n      dup2\n      mstore\n      0x40\n      dup1\n      dup4\n      keccak256\n        /* \"@openzeppelin/contracts/token/ERC1155/ERC1155.sol\":5441:5460  _balances[id][from] */\n      0xffffffffffffffffffffffffffffffffffffffff\n      dup13\n      and\n      dup5\n      mstore\n      swap1\n      swap2\n      mstore\n      swap1\n      keccak256\n      sload\n        /* \"@openzeppelin/contracts/token/ERC1155/ERC1155.sol\":5478:5499  fromBalance >= amount */\n      dup6\n      dup2\n      lt\n      iszero\n        /* \"@openzeppelin/contracts/token/ERC1155/ERC1155.sol\":5470:5546  require(fromBalance >= amount, \"ERC1155: insufficient balance for transfer\") */\n      tag_285\n      jumpi\n      mload(0x40)\n      0x08c379a000000000000000000000000000000000000000000000000000000000\n      dup2\n      mstore\n        /* \"#utility.yul\":16957:16959   */\n      0x20\n        /* \"@openzeppelin/contracts/token/ERC1155/ERC1155.sol\":5470:5546  require(fromBalance >= amount, \"ERC1155: insufficient balance for transfer\") */\n      0x04\n      dup3\n      add\n        /* \"#utility.yul\":16939:16960   */\n      mstore\n        /* \"#utility.yul\":16996:16998   */\n      0x2a\n        /* \"#utility.yul\":16976:16994   */\n      0x24\n      dup3\n      add\n        /* \"#utility.yul\":16969:16999   */\n      mstore\n        /* \"#utility.yul\":17035:17069   */\n      0x455243313135353a20696e73756666696369656e742062616c616e636520666f\n        /* \"#utility.yul\":17015:17033   */\n      0x44\n      dup3\n      add\n        /* \"#utility.yul\":17008:17070   */\n      mstore\n        /* \"#utility.yul\":17106:17118   */\n      0x72207472616e7366657200000000000000000000000000000000000000000000\n        /* \"#utility.yul\":17086:17104   */\n      0x64\n      dup3\n      add\n        /* \"#utility.yul\":17079:17119   */\n      mstore\n        /* \"#utility.yul\":17136:17155   */\n      0x84\n      add\n        /* \"@openzeppelin/contracts/token/ERC1155/ERC1155.sol\":5470:5546  require(fromBalance >= amount, \"ERC1155: insufficient balance for transfer\") */\n      tag_101\n        /* \"#utility.yul\":16755:17161   */\n      jump\n        /* \"@openzeppelin/contracts/token/ERC1155/ERC1155.sol\":5470:5546  require(fromBalance >= amount, \"ERC1155: insufficient balance for transfer\") */\n    tag_285:\n        /* \"@openzeppelin/contracts/token/ERC1155/ERC1155.sol\":5580:5589  _balances */\n      0x00\n        /* \"@openzeppelin/contracts/token/ERC1155/ERC1155.sol\":5580:5593  _balances[id] */\n      dup8\n      dup2\n      mstore\n      0x20\n      dup2\n      dup2\n      mstore\n      0x40\n      dup1\n      dup4\n      keccak256\n        /* \"@openzeppelin/contracts/token/ERC1155/ERC1155.sol\":5580:5599  _balances[id][from] */\n      0xffffffffffffffffffffffffffffffffffffffff\n      dup14\n      dup2\n      and\n      dup6\n      mstore\n      swap3\n      mstore\n      dup1\n      dup4\n      keccak256\n        /* \"@openzeppelin/contracts/token/ERC1155/ERC1155.sol\":5602:5622  fromBalance - amount */\n      dup10\n      dup6\n      sub\n        /* \"@openzeppelin/contracts/token/ERC1155/ERC1155.sol\":5580:5622  _balances[id][from] = fromBalance - amount */\n      swap1\n      sstore\n        /* \"@openzeppelin/contracts/token/ERC1155/ERC1155.sol\":5642:5659  _balances[id][to] */\n      swap1\n      dup11\n      and\n      dup3\n      mstore\n      dup2\n      keccak256\n        /* \"@openzeppelin/contracts/token/ERC1155/ERC1155.sol\":5642:5669  _balances[id][to] += amount */\n      dup1\n      sload\n        /* \"@openzeppelin/contracts/token/ERC1155/ERC1155.sol\":5602:5622  fromBalance - amount */\n      dup9\n      swap3\n        /* \"@openzeppelin/contracts/token/ERC1155/ERC1155.sol\":5580:5589  _balances */\n      swap1\n        /* \"@openzeppelin/contracts/token/ERC1155/ERC1155.sol\":5642:5669  _balances[id][to] += amount */\n      tag_287\n      swap1\n        /* \"@openzeppelin/contracts/token/ERC1155/ERC1155.sol\":5602:5622  fromBalance - amount */\n      dup5\n      swap1\n        /* \"@openzeppelin/contracts/token/ERC1155/ERC1155.sol\":5642:5669  _balances[id][to] += amount */\n      tag_245\n      jump\t// in\n    tag_287:\n      swap1\n      swap2\n      sstore\n      pop\n      pop\n        /* \"@openzeppelin/contracts/token/ERC1155/ERC1155.sol\":5685:5731  TransferSingle(operator, from, to, id, amount) */\n      0x40\n      dup1\n      mload\n        /* \"#utility.yul\":18755:18780   */\n      dup9\n      dup2\n      mstore\n        /* \"#utility.yul\":18811:18813   */\n      0x20\n        /* \"#utility.yul\":18796:18814   */\n      dup2\n      add\n        /* \"#utility.yul\":18789:18823   */\n      dup9\n      swap1\n      mstore\n        /* \"@openzeppelin/contracts/token/ERC1155/ERC1155.sol\":5685:5731  TransferSingle(operator, from, to, id, amount) */\n      0xffffffffffffffffffffffffffffffffffffffff\n      dup1\n      dup12\n      and\n      swap3\n      dup13\n      dup3\n      and\n      swap3\n      swap2\n      dup9\n      and\n      swap2\n      0xc3d58168c5ae7397731d063d5bbf3d657854427343f4c083240f7aacaa2d0f62\n      swap2\n        /* \"#utility.yul\":18728:18746   */\n      add\n        /* \"@openzeppelin/contracts/token/ERC1155/ERC1155.sol\":5685:5731  TransferSingle(operator, from, to, id, amount) */\n      mload(0x40)\n      dup1\n      swap2\n      sub\n      swap1\n      log4\n        /* \"@openzeppelin/contracts/token/ERC1155/ERC1155.sol\":5812:5880  _doSafeTransferAcceptanceCheck(operator, from, to, id, amount, data) */\n      tag_290\n        /* \"@openzeppelin/contracts/token/ERC1155/ERC1155.sol\":5843:5851  operator */\n      dup5\n        /* \"@openzeppelin/contracts/token/ERC1155/ERC1155.sol\":5853:5857  from */\n      dup11\n        /* \"@openzeppelin/contracts/token/ERC1155/ERC1155.sol\":5859:5861  to */\n      dup11\n        /* \"@openzeppelin/contracts/token/ERC1155/ERC1155.sol\":5863:5865  id */\n      dup11\n        /* \"@openzeppelin/contracts/token/ERC1155/ERC1155.sol\":5867:5873  amount */\n      dup11\n        /* \"@openzeppelin/contracts/token/ERC1155/ERC1155.sol\":5875:5879  data */\n      dup11\n        /* \"@openzeppelin/contracts/token/ERC1155/ERC1155.sol\":5812:5842  _doSafeTransferAcceptanceCheck */\n      tag_277\n        /* \"@openzeppelin/contracts/token/ERC1155/ERC1155.sol\":5812:5880  _doSafeTransferAcceptanceCheck(operator, from, to, id, amount, data) */\n      jump\t// in\n    tag_290:\n        /* \"@openzeppelin/contracts/token/ERC1155/ERC1155.sol\":5103:5887  {... */\n      pop\n      pop\n      pop\n      pop\n        /* \"@openzeppelin/contracts/token/ERC1155/ERC1155.sol\":4940:5887  function _safeTransferFrom(... */\n      pop\n      pop\n      pop\n      pop\n      pop\n      jump\t// out\n        /* \"@openzeppelin/contracts/token/ERC1155/ERC1155.sol\":1940:2043  function uri(uint256) public view virtual override returns (string memory) {... */\n    tag_219:\n        /* \"@openzeppelin/contracts/token/ERC1155/ERC1155.sol\":2000:2013  string memory */\n      0x60\n        /* \"@openzeppelin/contracts/token/ERC1155/ERC1155.sol\":2032:2036  _uri */\n      0x02\n        /* \"@openzeppelin/contracts/token/ERC1155/ERC1155.sol\":2025:2036  return _uri */\n      dup1\n      sload\n      tag_166\n      swap1\n      tag_160\n      jump\t// in\n        /* \"@openzeppelin/contracts/token/ERC1155/ERC1155.sol\":16127:16919  function _doSafeBatchTransferAcceptanceCheck(... */\n    tag_252:\n        /* \"@openzeppelin/contracts/token/ERC1155/ERC1155.sol\":16359:16372  to.isContract */\n      0xffffffffffffffffffffffffffffffffffffffff\n      dup5\n      and\n        /* \"@openzeppelin/contracts/utils/Address.sol\":1465:1484  account.code.length */\n      extcodesize\n        /* \"@openzeppelin/contracts/utils/Address.sol\":1465:1488  account.code.length > 0 */\n      iszero\n        /* \"@openzeppelin/contracts/token/ERC1155/ERC1155.sol\":16355:16913  if (to.isContract()) {... */\n      tag_251\n      jumpi\n        /* \"@openzeppelin/contracts/token/ERC1155/ERC1155.sol\":16394:16473  IERC1155Receiver(to).onERC1155BatchReceived(operator, from, ids, amounts, data) */\n      mload(0x40)\n      0xbc197c8100000000000000000000000000000000000000000000000000000000\n      dup2\n      mstore\n        /* \"@openzeppelin/contracts/token/ERC1155/ERC1155.sol\":16394:16437  IERC1155Receiver(to).onERC1155BatchReceived */\n      0xffffffffffffffffffffffffffffffffffffffff\n      dup6\n      and\n      swap1\n      0xbc197c81\n      swap1\n        /* \"@openzeppelin/contracts/token/ERC1155/ERC1155.sol\":16394:16473  IERC1155Receiver(to).onERC1155BatchReceived(operator, from, ids, amounts, data) */\n      tag_303\n      swap1\n        /* \"@openzeppelin/contracts/token/ERC1155/ERC1155.sol\":16438:16446  operator */\n      dup10\n      swap1\n        /* \"@openzeppelin/contracts/token/ERC1155/ERC1155.sol\":16448:16452  from */\n      dup10\n      swap1\n        /* \"@openzeppelin/contracts/token/ERC1155/ERC1155.sol\":16454:16457  ids */\n      dup9\n      swap1\n        /* \"@openzeppelin/contracts/token/ERC1155/ERC1155.sol\":16459:16466  amounts */\n      dup9\n      swap1\n        /* \"@openzeppelin/contracts/token/ERC1155/ERC1155.sol\":16468:16472  data */\n      dup9\n      swap1\n        /* \"@openzeppelin/contracts/token/ERC1155/ERC1155.sol\":16394:16473  IERC1155Receiver(to).onERC1155BatchReceived(operator, from, ids, amounts, data) */\n      0x04\n      add\n      tag_304\n      jump\t// in\n    tag_303:\n      0x20\n      mload(0x40)\n      dup1\n      dup4\n      sub\n      dup2\n      0x00\n      dup8\n      gas\n      call\n      swap3\n      pop\n      pop\n      pop\n      dup1\n      iszero\n      tag_305\n      jumpi\n      pop\n      0x40\n      dup1\n      mload\n      0x1f\n      returndatasize\n      swap1\n      dup2\n      add\n      0xffffffffffffffffffffffffffffffffffffffffffffffffffffffffffffffe0\n      and\n      dup3\n      add\n      swap1\n      swap3\n      mstore\n      tag_306\n      swap2\n      dup2\n      add\n      swap1\n      tag_307\n      jump\t// in\n    tag_306:\n      0x01\n    tag_305:\n        /* \"@openzeppelin/contracts/token/ERC1155/ERC1155.sol\":16390:16903  try IERC1155Receiver(to).onERC1155BatchReceived(operator, from, ids, amounts, data) returns (... */\n      tag_308\n      jumpi\n      tag_312\n      tag_313\n      jump\t// in\n    tag_312:\n      dup1\n      0x08c379a0\n      sub\n      tag_311\n      jumpi\n      pop\n      tag_314\n      tag_315\n      jump\t// in\n    tag_314:\n      dup1\n      tag_316\n      jumpi\n      pop\n      jump(tag_310)\n    tag_316:\n        /* \"@openzeppelin/contracts/token/ERC1155/ERC1155.sol\":16779:16785  reason */\n      dup1\n        /* \"@openzeppelin/contracts/token/ERC1155/ERC1155.sol\":16772:16786  revert(reason) */\n      mload(0x40)\n      0x08c379a000000000000000000000000000000000000000000000000000000000\n      dup2\n      mstore\n      0x04\n      add\n      tag_101\n      swap2\n      swap1\n      tag_41\n      jump\t// in\n        /* \"@openzeppelin/contracts/token/ERC1155/ERC1155.sol\":16390:16903  try IERC1155Receiver(to).onERC1155BatchReceived(operator, from, ids, amounts, data) returns (... */\n    tag_311:\n      pop\n    tag_310:\n        /* \"@openzeppelin/contracts/token/ERC1155/ERC1155.sol\":16826:16888  revert(\"ERC1155: transfer to non ERC1155Receiver implementer\") */\n      mload(0x40)\n      0x08c379a000000000000000000000000000000000000000000000000000000000\n      dup2\n      mstore\n        /* \"#utility.yul\":21076:21078   */\n      0x20\n        /* \"@openzeppelin/contracts/token/ERC1155/ERC1155.sol\":16826:16888  revert(\"ERC1155: transfer to non ERC1155Receiver implementer\") */\n      0x04\n      dup3\n      add\n        /* \"#utility.yul\":21058:21079   */\n      mstore\n        /* \"#utility.yul\":21115:21117   */\n      0x34\n        /* \"#utility.yul\":21095:21113   */\n      0x24\n      dup3\n      add\n        /* \"#utility.yul\":21088:21118   */\n      mstore\n        /* \"#utility.yul\":21154:21188   */\n      0x455243313135353a207472616e7366657220746f206e6f6e2045524331313535\n        /* \"#utility.yul\":21134:21152   */\n      0x44\n      dup3\n      add\n        /* \"#utility.yul\":21127:21189   */\n      mstore\n        /* \"#utility.yul\":21225:21247   */\n      0x526563656976657220696d706c656d656e746572000000000000000000000000\n        /* \"#utility.yul\":21205:21223   */\n      0x64\n      dup3\n      add\n        /* \"#utility.yul\":21198:21248   */\n      mstore\n        /* \"#utility.yul\":21265:21284   */\n      0x84\n      add\n        /* \"@openzeppelin/contracts/token/ERC1155/ERC1155.sol\":16826:16888  revert(\"ERC1155: transfer to non ERC1155Receiver implementer\") */\n      tag_101\n        /* \"#utility.yul\":20874:21290   */\n      jump\n        /* \"@openzeppelin/contracts/token/ERC1155/ERC1155.sol\":16390:16903  try IERC1155Receiver(to).onERC1155BatchReceived(operator, from, ids, amounts, data) returns (... */\n    tag_308:\n        /* \"@openzeppelin/contracts/token/ERC1155/ERC1155.sol\":16552:16612  response != IERC1155Receiver.onERC1155BatchReceived.selector */\n      0xffffffff00000000000000000000000000000000000000000000000000000000\n      dup2\n      and\n        /* \"@openzeppelin/contracts/token/ERC1155/ERC1155.sol\":16564:16612  IERC1155Receiver.onERC1155BatchReceived.selector */\n      0xbc197c8100000000000000000000000000000000000000000000000000000000\n        /* \"@openzeppelin/contracts/token/ERC1155/ERC1155.sol\":16552:16612  response != IERC1155Receiver.onERC1155BatchReceived.selector */\n      eq\n        /* \"@openzeppelin/contracts/token/ERC1155/ERC1155.sol\":16548:16705  if (response != IERC1155Receiver.onERC1155BatchReceived.selector) {... */\n      tag_276\n      jumpi\n        /* \"@openzeppelin/contracts/token/ERC1155/ERC1155.sol\":16636:16686  revert(\"ERC1155: ERC1155Receiver rejected tokens\") */\n      mload(0x40)\n      0x08c379a000000000000000000000000000000000000000000000000000000000\n      dup2\n      mstore\n        /* \"#utility.yul\":21497:21499   */\n      0x20\n        /* \"@openzeppelin/contracts/token/ERC1155/ERC1155.sol\":16636:16686  revert(\"ERC1155: ERC1155Receiver rejected tokens\") */\n      0x04\n      dup3\n      add\n        /* \"#utility.yul\":21479:21500   */\n      mstore\n        /* \"#utility.yul\":21536:21538   */\n      0x28\n        /* \"#utility.yul\":21516:21534   */\n      0x24\n      dup3\n      add\n        /* \"#utility.yul\":21509:21539   */\n      mstore\n        /* \"#utility.yul\":21575:21609   */\n      0x455243313135353a204552433131353552656365697665722072656a65637465\n        /* \"#utility.yul\":21555:21573   */\n      0x44\n      dup3\n      add\n        /* \"#utility.yul\":21548:21610   */\n      mstore\n        /* \"#utility.yul\":21646:21656   */\n      0x6420746f6b656e73000000000000000000000000000000000000000000000000\n        /* \"#utility.yul\":21626:21644   */\n      0x64\n      dup3\n      add\n        /* \"#utility.yul\":21619:21657   */\n      mstore\n        /* \"#utility.yul\":21674:21693   */\n      0x84\n      add\n        /* \"@openzeppelin/contracts/token/ERC1155/ERC1155.sol\":16636:16686  revert(\"ERC1155: ERC1155Receiver rejected tokens\") */\n      tag_101\n        /* \"#utility.yul\":21295:21699   */\n      jump\n        /* \"@openzeppelin/contracts/token/ERC1155/ERC1155.sol\":16925:17118  function _asSingletonArray(uint256 element) private pure returns (uint256[] memory) {... */\n    tag_269:\n        /* \"@openzeppelin/contracts/token/ERC1155/ERC1155.sol\":17044:17060  new uint256[](1) */\n      0x40\n      dup1\n      mload\n        /* \"@openzeppelin/contracts/token/ERC1155/ERC1155.sol\":17058:17059  1 */\n      0x01\n        /* \"@openzeppelin/contracts/token/ERC1155/ERC1155.sol\":17044:17060  new uint256[](1) */\n      dup1\n      dup3\n      mstore\n      dup2\n      dup4\n      add\n      swap1\n      swap3\n      mstore\n        /* \"@openzeppelin/contracts/token/ERC1155/ERC1155.sol\":16991:17007  uint256[] memory */\n      0x60\n      swap2\n        /* \"@openzeppelin/contracts/token/ERC1155/ERC1155.sol\":17019:17041  uint256[] memory array */\n      0x00\n      swap2\n        /* \"@openzeppelin/contracts/token/ERC1155/ERC1155.sol\":17044:17060  new uint256[](1) */\n      swap1\n      0x20\n      dup1\n      dup4\n      add\n      swap1\n      dup1\n      calldatasize\n      dup4\n      calldatacopy\n      add\n      swap1\n      pop\n      pop\n        /* \"@openzeppelin/contracts/token/ERC1155/ERC1155.sol\":17019:17060  uint256[] memory array = new uint256[](1) */\n      swap1\n      pop\n        /* \"@openzeppelin/contracts/token/ERC1155/ERC1155.sol\":17081:17088  element */\n      dup3\n        /* \"@openzeppelin/contracts/token/ERC1155/ERC1155.sol\":17070:17075  array */\n      dup2\n        /* \"@openzeppelin/contracts/token/ERC1155/ERC1155.sol\":17076:17077  0 */\n      0x00\n        /* \"@openzeppelin/contracts/token/ERC1155/ERC1155.sol\":17070:17078  array[0] */\n      dup2\n      mload\n      dup2\n      lt\n      tag_329\n      jumpi\n      tag_329\n      tag_142\n      jump\t// in\n    tag_329:\n      0x20\n      swap1\n      dup2\n      mul\n      swap2\n      swap1\n      swap2\n      add\n      add\n        /* \"@openzeppelin/contracts/token/ERC1155/ERC1155.sol\":17070:17088  array[0] = element */\n      mstore\n        /* \"@openzeppelin/contracts/token/ERC1155/ERC1155.sol\":17106:17111  array */\n      swap3\n        /* \"@openzeppelin/contracts/token/ERC1155/ERC1155.sol\":16925:17118  function _asSingletonArray(uint256 element) private pure returns (uint256[] memory) {... */\n      swap2\n      pop\n      pop\n      jump\t// out\n        /* \"@openzeppelin/contracts/token/ERC1155/ERC1155.sol\":15396:16121  function _doSafeTransferAcceptanceCheck(... */\n    tag_277:\n        /* \"@openzeppelin/contracts/token/ERC1155/ERC1155.sol\":15603:15616  to.isContract */\n      0xffffffffffffffffffffffffffffffffffffffff\n      dup5\n      and\n        /* \"@openzeppelin/contracts/utils/Address.sol\":1465:1484  account.code.length */\n      extcodesize\n        /* \"@openzeppelin/contracts/utils/Address.sol\":1465:1488  account.code.length > 0 */\n      iszero\n        /* \"@openzeppelin/contracts/token/ERC1155/ERC1155.sol\":15599:16115  if (to.isContract()) {... */\n      tag_251\n      jumpi\n        /* \"@openzeppelin/contracts/token/ERC1155/ERC1155.sol\":15638:15710  IERC1155Receiver(to).onERC1155Received(operator, from, id, amount, data) */\n      mload(0x40)\n      0xf23a6e6100000000000000000000000000000000000000000000000000000000\n      dup2\n      mstore\n        /* \"@openzeppelin/contracts/token/ERC1155/ERC1155.sol\":15638:15676  IERC1155Receiver(to).onERC1155Received */\n      0xffffffffffffffffffffffffffffffffffffffff\n      dup6\n      and\n      swap1\n      0xf23a6e61\n      swap1\n        /* \"@openzeppelin/contracts/token/ERC1155/ERC1155.sol\":15638:15710  IERC1155Receiver(to).onERC1155Received(operator, from, id, amount, data) */\n      tag_333\n      swap1\n        /* \"@openzeppelin/contracts/token/ERC1155/ERC1155.sol\":15677:15685  operator */\n      dup10\n      swap1\n        /* \"@openzeppelin/contracts/token/ERC1155/ERC1155.sol\":15687:15691  from */\n      dup10\n      swap1\n        /* \"@openzeppelin/contracts/token/ERC1155/ERC1155.sol\":15693:15695  id */\n      dup9\n      swap1\n        /* \"@openzeppelin/contracts/token/ERC1155/ERC1155.sol\":15697:15703  amount */\n      dup9\n      swap1\n        /* \"@openzeppelin/contracts/token/ERC1155/ERC1155.sol\":15705:15709  data */\n      dup9\n      swap1\n        /* \"@openzeppelin/contracts/token/ERC1155/ERC1155.sol\":15638:15710  IERC1155Receiver(to).onERC1155Received(operator, from, id, amount, data) */\n      0x04\n      add\n      tag_334\n      jump\t// in\n    tag_333:\n      0x20\n      mload(0x40)\n      dup1\n      dup4\n      sub\n      dup2\n      0x00\n      dup8\n      gas\n      call\n      swap3\n      pop\n      pop\n      pop\n      dup1\n      iszero\n      tag_335\n      jumpi\n      pop\n      0x40\n      dup1\n      mload\n      0x1f\n      returndatasize\n      swap1\n      dup2\n      add\n      0xffffffffffffffffffffffffffffffffffffffffffffffffffffffffffffffe0\n      and\n      dup3\n      add\n      swap1\n      swap3\n      mstore\n      tag_336\n      swap2\n      dup2\n      add\n      swap1\n      tag_307\n      jump\t// in\n    tag_336:\n      0x01\n    tag_335:\n        /* \"@openzeppelin/contracts/token/ERC1155/ERC1155.sol\":15634:16105  try IERC1155Receiver(to).onERC1155Received(operator, from, id, amount, data) returns (bytes4 response) {... */\n      tag_337\n      jumpi\n      tag_312\n      tag_313\n      jump\t// in\n    tag_337:\n        /* \"@openzeppelin/contracts/token/ERC1155/ERC1155.sol\":15759:15814  response != IERC1155Receiver.onERC1155Received.selector */\n      0xffffffff00000000000000000000000000000000000000000000000000000000\n      dup2\n      and\n        /* \"@openzeppelin/contracts/token/ERC1155/ERC1155.sol\":15771:15814  IERC1155Receiver.onERC1155Received.selector */\n      0xf23a6e6100000000000000000000000000000000000000000000000000000000\n        /* \"@openzeppelin/contracts/token/ERC1155/ERC1155.sol\":15759:15814  response != IERC1155Receiver.onERC1155Received.selector */\n      eq\n        /* \"@openzeppelin/contracts/token/ERC1155/ERC1155.sol\":15755:15907  if (response != IERC1155Receiver.onERC1155Received.selector) {... */\n      tag_276\n      jumpi\n        /* \"@openzeppelin/contracts/token/ERC1155/ERC1155.sol\":15838:15888  revert(\"ERC1155: ERC1155Receiver rejected tokens\") */\n      mload(0x40)\n      0x08c379a000000000000000000000000000000000000000000000000000000000\n      dup2\n      mstore\n        /* \"#utility.yul\":21497:21499   */\n      0x20\n        /* \"@openzeppelin/contracts/token/ERC1155/ERC1155.sol\":15838:15888  revert(\"ERC1155: ERC1155Receiver rejected tokens\") */\n      0x04\n      dup3\n      add\n        /* \"#utility.yul\":21479:21500   */\n      mstore\n        /* \"#utility.yul\":21536:21538   */\n      0x28\n        /* \"#utility.yul\":21516:21534   */\n      0x24\n      dup3\n      add\n        /* \"#utility.yul\":21509:21539   */\n      mstore\n        /* \"#utility.yul\":21575:21609   */\n      0x455243313135353a204552433131353552656365697665722072656a65637465\n        /* \"#utility.yul\":21555:21573   */\n      0x44\n      dup3\n      add\n        /* \"#utility.yul\":21548:21610   */\n      mstore\n        /* \"#utility.yul\":21646:21656   */\n      0x6420746f6b656e73000000000000000000000000000000000000000000000000\n        /* \"#utility.yul\":21626:21644   */\n      0x64\n      dup3\n      add\n        /* \"#utility.yul\":21619:21657   */\n      mstore\n        /* \"#utility.yul\":21674:21693   */\n      0x84\n      add\n        /* \"@openzeppelin/contracts/token/ERC1155/ERC1155.sol\":15838:15888  revert(\"ERC1155: ERC1155Receiver rejected tokens\") */\n      tag_101\n        /* \"#utility.yul\":21295:21699   */\n      jump\n    tag_255:\n      dup3\n      dup1\n      sload\n      tag_350\n      swap1\n      tag_160\n      jump\t// in\n    tag_350:\n      swap1\n      0x00\n      mstore\n      keccak256(0x00, 0x20)\n      swap1\n      0x1f\n      add\n      0x20\n      swap1\n      div\n      dup2\n      add\n      swap3\n      dup3\n      tag_352\n      jumpi\n      0x00\n      dup6\n      sstore\n      jump(tag_355)\n    tag_352:\n      dup3\n      0x1f\n      lt\n      tag_353\n      jumpi\n      dup1\n      mload\n      not(0xff)\n      and\n      dup4\n      dup1\n      add\n      or\n      dup6\n      sstore\n      jump(tag_355)\n    tag_353:\n      dup3\n      dup1\n      add\n      0x01\n      add\n      dup6\n      sstore\n      dup3\n      iszero\n      tag_355\n      jumpi\n      swap2\n      dup3\n      add\n    tag_354:\n      dup3\n      dup2\n      gt\n      iszero\n      tag_355\n      jumpi\n      dup3\n      mload\n      dup3\n      sstore\n      swap2\n      0x20\n      add\n      swap2\n      swap1\n      0x01\n      add\n      swap1\n      jump(tag_354)\n    tag_355:\n      pop\n      tag_356\n      swap3\n      swap2\n      pop\n      tag_357\n      jump\t// in\n    tag_356:\n      pop\n      swap1\n      jump\t// out\n    tag_357:\n    tag_358:\n      dup1\n      dup3\n      gt\n      iszero\n      tag_356\n      jumpi\n      0x00\n      dup2\n      sstore\n      0x01\n      add\n      jump(tag_358)\n        /* \"#utility.yul\":14:210   */\n    tag_360:\n        /* \"#utility.yul\":82:102   */\n      dup1\n      calldataload\n        /* \"#utility.yul\":142:184   */\n      0xffffffffffffffffffffffffffffffffffffffff\n        /* \"#utility.yul\":131:185   */\n      dup2\n      and\n        /* \"#utility.yul\":121:186   */\n      dup2\n      eq\n        /* \"#utility.yul\":111:204   */\n      tag_375\n      jumpi\n        /* \"#utility.yul\":200:201   */\n      0x00\n        /* \"#utility.yul\":197:198   */\n      dup1\n        /* \"#utility.yul\":190:202   */\n      revert\n        /* \"#utility.yul\":111:204   */\n    tag_375:\n        /* \"#utility.yul\":14:210   */\n      swap2\n      swap1\n      pop\n      jump\t// out\n        /* \"#utility.yul\":215:469   */\n    tag_26:\n        /* \"#utility.yul\":283:289   */\n      0x00\n        /* \"#utility.yul\":291:297   */\n      dup1\n        /* \"#utility.yul\":344:346   */\n      0x40\n        /* \"#utility.yul\":332:341   */\n      dup4\n        /* \"#utility.yul\":323:330   */\n      dup6\n        /* \"#utility.yul\":319:342   */\n      sub\n        /* \"#utility.yul\":315:347   */\n      slt\n        /* \"#utility.yul\":312:364   */\n      iszero\n      tag_377\n      jumpi\n        /* \"#utility.yul\":360:361   */\n      0x00\n        /* \"#utility.yul\":357:358   */\n      dup1\n        /* \"#utility.yul\":350:362   */\n      revert\n        /* \"#utility.yul\":312:364   */\n    tag_377:\n        /* \"#utility.yul\":383:412   */\n      tag_378\n        /* \"#utility.yul\":402:411   */\n      dup4\n        /* \"#utility.yul\":383:412   */\n      tag_360\n      jump\t// in\n    tag_378:\n        /* \"#utility.yul\":373:412   */\n      swap5\n        /* \"#utility.yul\":459:461   */\n      0x20\n        /* \"#utility.yul\":444:462   */\n      swap4\n      swap1\n      swap4\n      add\n        /* \"#utility.yul\":431:463   */\n      calldataload\n      swap4\n      pop\n      pop\n      pop\n        /* \"#utility.yul\":215:469   */\n      jump\t// out\n        /* \"#utility.yul\":656:833   */\n    tag_361:\n        /* \"#utility.yul\":741:807   */\n      0xffffffff00000000000000000000000000000000000000000000000000000000\n        /* \"#utility.yul\":734:739   */\n      dup2\n        /* \"#utility.yul\":730:808   */\n      and\n        /* \"#utility.yul\":723:728   */\n      dup2\n        /* \"#utility.yul\":720:809   */\n      eq\n        /* \"#utility.yul\":710:827   */\n      tag_381\n      jumpi\n        /* \"#utility.yul\":823:824   */\n      0x00\n        /* \"#utility.yul\":820:821   */\n      dup1\n        /* \"#utility.yul\":813:825   */\n      revert\n        /* \"#utility.yul\":710:827   */\n    tag_381:\n        /* \"#utility.yul\":656:833   */\n      pop\n      jump\t// out\n        /* \"#utility.yul\":838:1083   */\n    tag_32:\n        /* \"#utility.yul\":896:902   */\n      0x00\n        /* \"#utility.yul\":949:951   */\n      0x20\n        /* \"#utility.yul\":937:946   */\n      dup3\n        /* \"#utility.yul\":928:935   */\n      dup5\n        /* \"#utility.yul\":924:947   */\n      sub\n        /* \"#utility.yul\":920:952   */\n      slt\n        /* \"#utility.yul\":917:969   */\n      iszero\n      tag_383\n      jumpi\n        /* \"#utility.yul\":965:966   */\n      0x00\n        /* \"#utility.yul\":962:963   */\n      dup1\n        /* \"#utility.yul\":955:967   */\n      revert\n        /* \"#utility.yul\":917:969   */\n    tag_383:\n        /* \"#utility.yul\":1004:1013   */\n      dup2\n        /* \"#utility.yul\":991:1014   */\n      calldataload\n        /* \"#utility.yul\":1023:1053   */\n      tag_113\n        /* \"#utility.yul\":1047:1052   */\n      dup2\n        /* \"#utility.yul\":1023:1053   */\n      tag_361\n      jump\t// in\n        /* \"#utility.yul\":1280:1460   */\n    tag_38:\n        /* \"#utility.yul\":1339:1345   */\n      0x00\n        /* \"#utility.yul\":1392:1394   */\n      0x20\n        /* \"#utility.yul\":1380:1389   */\n      dup3\n        /* \"#utility.yul\":1371:1378   */\n      dup5\n        /* \"#utility.yul\":1367:1390   */\n      sub\n        /* \"#utility.yul\":1363:1395   */\n      slt\n        /* \"#utility.yul\":1360:1412   */\n      iszero\n      tag_387\n      jumpi\n        /* \"#utility.yul\":1408:1409   */\n      0x00\n        /* \"#utility.yul\":1405:1406   */\n      dup1\n        /* \"#utility.yul\":1398:1410   */\n      revert\n        /* \"#utility.yul\":1360:1412   */\n    tag_387:\n      pop\n        /* \"#utility.yul\":1431:1454   */\n      calldataload\n      swap2\n        /* \"#utility.yul\":1280:1460   */\n      swap1\n      pop\n      jump\t// out\n        /* \"#utility.yul\":1465:1723   */\n    tag_362:\n        /* \"#utility.yul\":1537:1538   */\n      0x00\n        /* \"#utility.yul\":1547:1660   */\n    tag_389:\n        /* \"#utility.yul\":1561:1567   */\n      dup4\n        /* \"#utility.yul\":1558:1559   */\n      dup2\n        /* \"#utility.yul\":1555:1568   */\n      lt\n        /* \"#utility.yul\":1547:1660   */\n      iszero\n      tag_391\n      jumpi\n        /* \"#utility.yul\":1637:1648   */\n      dup2\n      dup2\n      add\n        /* \"#utility.yul\":1631:1649   */\n      mload\n        /* \"#utility.yul\":1618:1629   */\n      dup4\n      dup3\n      add\n        /* \"#utility.yul\":1611:1650   */\n      mstore\n        /* \"#utility.yul\":1583:1585   */\n      0x20\n        /* \"#utility.yul\":1576:1586   */\n      add\n        /* \"#utility.yul\":1547:1660   */\n      jump(tag_389)\n    tag_391:\n        /* \"#utility.yul\":1678:1684   */\n      dup4\n        /* \"#utility.yul\":1675:1676   */\n      dup2\n        /* \"#utility.yul\":1672:1685   */\n      gt\n        /* \"#utility.yul\":1669:1717   */\n      iszero\n      tag_392\n      jumpi\n        /* \"#utility.yul\":1713:1714   */\n      0x00\n        /* \"#utility.yul\":1704:1710   */\n      dup5\n        /* \"#utility.yul\":1699:1702   */\n      dup5\n        /* \"#utility.yul\":1695:1711   */\n      add\n        /* \"#utility.yul\":1688:1715   */\n      mstore\n        /* \"#utility.yul\":1669:1717   */\n    tag_392:\n      pop\n        /* \"#utility.yul\":1465:1723   */\n      pop\n      pop\n      pop\n      jump\t// out\n        /* \"#utility.yul\":1728:2056   */\n    tag_363:\n        /* \"#utility.yul\":1781:1784   */\n      0x00\n        /* \"#utility.yul\":1819:1824   */\n      dup2\n        /* \"#utility.yul\":1813:1825   */\n      mload\n        /* \"#utility.yul\":1846:1852   */\n      dup1\n        /* \"#utility.yul\":1841:1844   */\n      dup5\n        /* \"#utility.yul\":1834:1853   */\n      mstore\n        /* \"#utility.yul\":1862:1925   */\n      tag_394\n        /* \"#utility.yul\":1918:1924   */\n      dup2\n        /* \"#utility.yul\":1911:1915   */\n      0x20\n        /* \"#utility.yul\":1906:1909   */\n      dup7\n        /* \"#utility.yul\":1902:1916   */\n      add\n        /* \"#utility.yul\":1895:1899   */\n      0x20\n        /* \"#utility.yul\":1888:1893   */\n      dup7\n        /* \"#utility.yul\":1884:1900   */\n      add\n        /* \"#utility.yul\":1862:1925   */\n      tag_362\n      jump\t// in\n    tag_394:\n        /* \"#utility.yul\":1970:1972   */\n      0x1f\n        /* \"#utility.yul\":1958:1973   */\n      add\n        /* \"#utility.yul\":1975:2041   */\n      0xffffffffffffffffffffffffffffffffffffffffffffffffffffffffffffffe0\n        /* \"#utility.yul\":1954:2042   */\n      and\n        /* \"#utility.yul\":1945:2043   */\n      swap3\n      swap1\n      swap3\n      add\n        /* \"#utility.yul\":2045:2049   */\n      0x20\n        /* \"#utility.yul\":1941:2050   */\n      add\n      swap3\n        /* \"#utility.yul\":1728:2056   */\n      swap2\n      pop\n      pop\n      jump\t// out\n        /* \"#utility.yul\":2061:2292   */\n    tag_41:\n        /* \"#utility.yul\":2210:2212   */\n      0x20\n        /* \"#utility.yul\":2199:2208   */\n      dup2\n        /* \"#utility.yul\":2192:2213   */\n      mstore\n        /* \"#utility.yul\":2173:2177   */\n      0x00\n        /* \"#utility.yul\":2230:2286   */\n      tag_113\n        /* \"#utility.yul\":2282:2284   */\n      0x20\n        /* \"#utility.yul\":2271:2280   */\n      dup4\n        /* \"#utility.yul\":2267:2285   */\n      add\n        /* \"#utility.yul\":2259:2265   */\n      dup5\n        /* \"#utility.yul\":2230:2286   */\n      tag_363\n      jump\t// in\n        /* \"#utility.yul\":2297:2481   */\n    tag_134:\n        /* \"#utility.yul\":2349:2426   */\n      0x4e487b7100000000000000000000000000000000000000000000000000000000\n        /* \"#utility.yul\":2346:2347   */\n      0x00\n        /* \"#utility.yul\":2339:2427   */\n      mstore\n        /* \"#utility.yul\":2446:2450   */\n      0x41\n        /* \"#utility.yul\":2443:2444   */\n      0x04\n        /* \"#utility.yul\":2436:2451   */\n      mstore\n        /* \"#utility.yul\":2470:2474   */\n      0x24\n        /* \"#utility.yul\":2467:2468   */\n      0x00\n        /* \"#utility.yul\":2460:2475   */\n      revert\n        /* \"#utility.yul\":2486:2794   */\n    tag_364:\n        /* \"#utility.yul\":2592:2658   */\n      0xffffffffffffffffffffffffffffffffffffffffffffffffffffffffffffffe0\n        /* \"#utility.yul\":2587:2589   */\n      0x1f\n        /* \"#utility.yul\":2581:2585   */\n      dup4\n        /* \"#utility.yul\":2577:2590   */\n      add\n        /* \"#utility.yul\":2573:2659   */\n      and\n        /* \"#utility.yul\":2565:2571   */\n      dup2\n        /* \"#utility.yul\":2561:2660   */\n      add\n        /* \"#utility.yul\":2726:2732   */\n      dup2\n        /* \"#utility.yul\":2714:2724   */\n      dup2\n        /* \"#utility.yul\":2711:2733   */\n      lt\n        /* \"#utility.yul\":2690:2708   */\n      0xffffffffffffffff\n        /* \"#utility.yul\":2678:2688   */\n      dup3\n        /* \"#utility.yul\":2675:2709   */\n      gt\n        /* \"#utility.yul\":2672:2734   */\n      or\n        /* \"#utility.yul\":2669:2757   */\n      iszero\n      tag_400\n      jumpi\n        /* \"#utility.yul\":2737:2755   */\n      tag_400\n      tag_134\n      jump\t// in\n    tag_400:\n        /* \"#utility.yul\":2773:2775   */\n      0x40\n        /* \"#utility.yul\":2766:2788   */\n      mstore\n      pop\n      pop\n        /* \"#utility.yul\":2486:2794   */\n      jump\t// out\n        /* \"#utility.yul\":2799:2982   */\n    tag_365:\n        /* \"#utility.yul\":2859:2863   */\n      0x00\n        /* \"#utility.yul\":2892:2910   */\n      0xffffffffffffffff\n        /* \"#utility.yul\":2884:2890   */\n      dup3\n        /* \"#utility.yul\":2881:2911   */\n      gt\n        /* \"#utility.yul\":2878:2934   */\n      iszero\n      tag_403\n      jumpi\n        /* \"#utility.yul\":2914:2932   */\n      tag_403\n      tag_134\n      jump\t// in\n    tag_403:\n      pop\n        /* \"#utility.yul\":2959:2960   */\n      0x05\n        /* \"#utility.yul\":2955:2969   */\n      shl\n        /* \"#utility.yul\":2971:2975   */\n      0x20\n        /* \"#utility.yul\":2951:2976   */\n      add\n      swap1\n        /* \"#utility.yul\":2799:2982   */\n      jump\t// out\n        /* \"#utility.yul\":2987:3711   */\n    tag_366:\n        /* \"#utility.yul\":3041:3046   */\n      0x00\n        /* \"#utility.yul\":3094:3097   */\n      dup3\n        /* \"#utility.yul\":3087:3091   */\n      0x1f\n        /* \"#utility.yul\":3079:3085   */\n      dup4\n        /* \"#utility.yul\":3075:3092   */\n      add\n        /* \"#utility.yul\":3071:3098   */\n      slt\n        /* \"#utility.yul\":3061:3116   */\n      tag_405\n      jumpi\n        /* \"#utility.yul\":3112:3113   */\n      0x00\n        /* \"#utility.yul\":3109:3110   */\n      dup1\n        /* \"#utility.yul\":3102:3114   */\n      revert\n        /* \"#utility.yul\":3061:3116   */\n    tag_405:\n        /* \"#utility.yul\":3148:3154   */\n      dup2\n        /* \"#utility.yul\":3135:3155   */\n      calldataload\n        /* \"#utility.yul\":3174:3178   */\n      0x20\n        /* \"#utility.yul\":3197:3240   */\n      tag_406\n        /* \"#utility.yul\":3237:3239   */\n      dup3\n        /* \"#utility.yul\":3197:3240   */\n      tag_365\n      jump\t// in\n    tag_406:\n        /* \"#utility.yul\":3269:3271   */\n      0x40\n        /* \"#utility.yul\":3263:3272   */\n      mload\n        /* \"#utility.yul\":3281:3312   */\n      tag_407\n        /* \"#utility.yul\":3309:3311   */\n      dup3\n        /* \"#utility.yul\":3301:3307   */\n      dup3\n        /* \"#utility.yul\":3281:3312   */\n      tag_364\n      jump\t// in\n    tag_407:\n        /* \"#utility.yul\":3347:3365   */\n      dup4\n      dup2\n      mstore\n        /* \"#utility.yul\":3439:3440   */\n      0x05\n        /* \"#utility.yul\":3435:3445   */\n      swap4\n      swap1\n      swap4\n      shl\n        /* \"#utility.yul\":3423:3446   */\n      dup6\n      add\n        /* \"#utility.yul\":3419:3451   */\n      dup3\n      add\n      swap3\n        /* \"#utility.yul\":3381:3396   */\n      dup3\n      dup2\n      add\n      swap2\n      pop\n        /* \"#utility.yul\":3463:3478   */\n      dup7\n      dup5\n      gt\n        /* \"#utility.yul\":3460:3495   */\n      iszero\n      tag_408\n      jumpi\n        /* \"#utility.yul\":3491:3492   */\n      0x00\n        /* \"#utility.yul\":3488:3489   */\n      dup1\n        /* \"#utility.yul\":3481:3493   */\n      revert\n        /* \"#utility.yul\":3460:3495   */\n    tag_408:\n        /* \"#utility.yul\":3527:3529   */\n      dup3\n        /* \"#utility.yul\":3519:3525   */\n      dup7\n        /* \"#utility.yul\":3515:3530   */\n      add\n        /* \"#utility.yul\":3539:3681   */\n    tag_409:\n        /* \"#utility.yul\":3555:3561   */\n      dup5\n        /* \"#utility.yul\":3550:3553   */\n      dup2\n        /* \"#utility.yul\":3547:3562   */\n      lt\n        /* \"#utility.yul\":3539:3681   */\n      iszero\n      tag_411\n      jumpi\n        /* \"#utility.yul\":3621:3638   */\n      dup1\n      calldataload\n        /* \"#utility.yul\":3609:3639   */\n      dup4\n      mstore\n        /* \"#utility.yul\":3659:3671   */\n      swap2\n      dup4\n      add\n      swap2\n        /* \"#utility.yul\":3572:3584   */\n      dup4\n      add\n        /* \"#utility.yul\":3539:3681   */\n      jump(tag_409)\n    tag_411:\n      pop\n        /* \"#utility.yul\":3699:3705   */\n      swap7\n        /* \"#utility.yul\":2987:3711   */\n      swap6\n      pop\n      pop\n      pop\n      pop\n      pop\n      pop\n      jump\t// out\n        /* \"#utility.yul\":3716:4330   */\n    tag_367:\n        /* \"#utility.yul\":3758:3763   */\n      0x00\n        /* \"#utility.yul\":3811:3814   */\n      dup3\n        /* \"#utility.yul\":3804:3808   */\n      0x1f\n        /* \"#utility.yul\":3796:3802   */\n      dup4\n        /* \"#utility.yul\":3792:3809   */\n      add\n        /* \"#utility.yul\":3788:3815   */\n      slt\n        /* \"#utility.yul\":3778:3833   */\n      tag_413\n      jumpi\n        /* \"#utility.yul\":3829:3830   */\n      0x00\n        /* \"#utility.yul\":3826:3827   */\n      dup1\n        /* \"#utility.yul\":3819:3831   */\n      revert\n        /* \"#utility.yul\":3778:3833   */\n    tag_413:\n        /* \"#utility.yul\":3865:3871   */\n      dup2\n        /* \"#utility.yul\":3852:3872   */\n      calldataload\n        /* \"#utility.yul\":3891:3909   */\n      0xffffffffffffffff\n        /* \"#utility.yul\":3887:3889   */\n      dup2\n        /* \"#utility.yul\":3884:3910   */\n      gt\n        /* \"#utility.yul\":3881:3933   */\n      iszero\n      tag_415\n      jumpi\n        /* \"#utility.yul\":3913:3931   */\n      tag_415\n      tag_134\n      jump\t// in\n    tag_415:\n        /* \"#utility.yul\":3962:3964   */\n      0x40\n        /* \"#utility.yul\":3956:3965   */\n      mload\n        /* \"#utility.yul\":3974:4100   */\n      tag_416\n        /* \"#utility.yul\":4094:4098   */\n      0x20\n        /* \"#utility.yul\":4025:4091   */\n      0xffffffffffffffffffffffffffffffffffffffffffffffffffffffffffffffe0\n        /* \"#utility.yul\":4018:4022   */\n      0x1f\n        /* \"#utility.yul\":4014:4016   */\n      dup6\n        /* \"#utility.yul\":4010:4023   */\n      add\n        /* \"#utility.yul\":4006:4092   */\n      and\n        /* \"#utility.yul\":4002:4099   */\n      add\n        /* \"#utility.yul\":3994:4000   */\n      dup3\n        /* \"#utility.yul\":3974:4100   */\n      tag_364\n      jump\t// in\n    tag_416:\n        /* \"#utility.yul\":4124:4126   */\n      dup2\n        /* \"#utility.yul\":4116:4122   */\n      dup2\n        /* \"#utility.yul\":4109:4127   */\n      mstore\n        /* \"#utility.yul\":4170:4173   */\n      dup5\n        /* \"#utility.yul\":4163:4167   */\n      0x20\n        /* \"#utility.yul\":4158:4160   */\n      dup4\n        /* \"#utility.yul\":4150:4156   */\n      dup7\n        /* \"#utility.yul\":4146:4161   */\n      add\n        /* \"#utility.yul\":4142:4168   */\n      add\n        /* \"#utility.yul\":4139:4174   */\n      gt\n        /* \"#utility.yul\":4136:4191   */\n      iszero\n      tag_417\n      jumpi\n        /* \"#utility.yul\":4187:4188   */\n      0x00\n        /* \"#utility.yul\":4184:4185   */\n      dup1\n        /* \"#utility.yul\":4177:4189   */\n      revert\n        /* \"#utility.yul\":4136:4191   */\n    tag_417:\n        /* \"#utility.yul\":4251:4253   */\n      dup2\n        /* \"#utility.yul\":4244:4248   */\n      0x20\n        /* \"#utility.yul\":4236:4242   */\n      dup6\n        /* \"#utility.yul\":4232:4249   */\n      add\n        /* \"#utility.yul\":4225:4229   */\n      0x20\n        /* \"#utility.yul\":4217:4223   */\n      dup4\n        /* \"#utility.yul\":4213:4230   */\n      add\n        /* \"#utility.yul\":4200:4254   */\n      calldatacopy\n        /* \"#utility.yul\":4298:4299   */\n      0x00\n        /* \"#utility.yul\":4274:4289   */\n      swap2\n      dup2\n      add\n        /* \"#utility.yul\":4291:4295   */\n      0x20\n        /* \"#utility.yul\":4270:4296   */\n      add\n        /* \"#utility.yul\":4263:4300   */\n      swap2\n      swap1\n      swap2\n      mstore\n        /* \"#utility.yul\":4278:4284   */\n      swap4\n        /* \"#utility.yul\":3716:4330   */\n      swap3\n      pop\n      pop\n      pop\n      jump\t// out\n        /* \"#utility.yul\":4335:5278   */\n    tag_44:\n        /* \"#utility.yul\":4489:4495   */\n      0x00\n        /* \"#utility.yul\":4497:4503   */\n      dup1\n        /* \"#utility.yul\":4505:4511   */\n      0x00\n        /* \"#utility.yul\":4513:4519   */\n      dup1\n        /* \"#utility.yul\":4521:4527   */\n      0x00\n        /* \"#utility.yul\":4574:4577   */\n      0xa0\n        /* \"#utility.yul\":4562:4571   */\n      dup7\n        /* \"#utility.yul\":4553:4560   */\n      dup9\n        /* \"#utility.yul\":4549:4572   */\n      sub\n        /* \"#utility.yul\":4545:4578   */\n      slt\n        /* \"#utility.yul\":4542:4595   */\n      iszero\n      tag_419\n      jumpi\n        /* \"#utility.yul\":4591:4592   */\n      0x00\n        /* \"#utility.yul\":4588:4589   */\n      dup1\n        /* \"#utility.yul\":4581:4593   */\n      revert\n        /* \"#utility.yul\":4542:4595   */\n    tag_419:\n        /* \"#utility.yul\":4614:4643   */\n      tag_420\n        /* \"#utility.yul\":4633:4642   */\n      dup7\n        /* \"#utility.yul\":4614:4643   */\n      tag_360\n      jump\t// in\n    tag_420:\n        /* \"#utility.yul\":4604:4643   */\n      swap5\n      pop\n        /* \"#utility.yul\":4662:4700   */\n      tag_421\n        /* \"#utility.yul\":4696:4698   */\n      0x20\n        /* \"#utility.yul\":4685:4694   */\n      dup8\n        /* \"#utility.yul\":4681:4699   */\n      add\n        /* \"#utility.yul\":4662:4700   */\n      tag_360\n      jump\t// in\n    tag_421:\n        /* \"#utility.yul\":4652:4700   */\n      swap4\n      pop\n        /* \"#utility.yul\":4751:4753   */\n      0x40\n        /* \"#utility.yul\":4740:4749   */\n      dup7\n        /* \"#utility.yul\":4736:4754   */\n      add\n        /* \"#utility.yul\":4723:4755   */\n      calldataload\n        /* \"#utility.yul\":4774:4792   */\n      0xffffffffffffffff\n        /* \"#utility.yul\":4815:4817   */\n      dup1\n        /* \"#utility.yul\":4807:4813   */\n      dup3\n        /* \"#utility.yul\":4804:4818   */\n      gt\n        /* \"#utility.yul\":4801:4835   */\n      iszero\n      tag_422\n      jumpi\n        /* \"#utility.yul\":4831:4832   */\n      0x00\n        /* \"#utility.yul\":4828:4829   */\n      dup1\n        /* \"#utility.yul\":4821:4833   */\n      revert\n        /* \"#utility.yul\":4801:4835   */\n    tag_422:\n        /* \"#utility.yul\":4854:4915   */\n      tag_423\n        /* \"#utility.yul\":4907:4914   */\n      dup10\n        /* \"#utility.yul\":4898:4904   */\n      dup4\n        /* \"#utility.yul\":4887:4896   */\n      dup11\n        /* \"#utility.yul\":4883:4905   */\n      add\n        /* \"#utility.yul\":4854:4915   */\n      tag_366\n      jump\t// in\n    tag_423:\n        /* \"#utility.yul\":4844:4915   */\n      swap5\n      pop\n        /* \"#utility.yul\":4968:4970   */\n      0x60\n        /* \"#utility.yul\":4957:4966   */\n      dup9\n        /* \"#utility.yul\":4953:4971   */\n      add\n        /* \"#utility.yul\":4940:4972   */\n      calldataload\n        /* \"#utility.yul\":4924:4972   */\n      swap2\n      pop\n        /* \"#utility.yul\":4997:4999   */\n      dup1\n        /* \"#utility.yul\":4987:4995   */\n      dup3\n        /* \"#utility.yul\":4984:5000   */\n      gt\n        /* \"#utility.yul\":4981:5017   */\n      iszero\n      tag_424\n      jumpi\n        /* \"#utility.yul\":5013:5014   */\n      0x00\n        /* \"#utility.yul\":5010:5011   */\n      dup1\n        /* \"#utility.yul\":5003:5015   */\n      revert\n        /* \"#utility.yul\":4981:5017   */\n    tag_424:\n        /* \"#utility.yul\":5036:5099   */\n      tag_425\n        /* \"#utility.yul\":5091:5098   */\n      dup10\n        /* \"#utility.yul\":5080:5088   */\n      dup4\n        /* \"#utility.yul\":5069:5078   */\n      dup11\n        /* \"#utility.yul\":5065:5089   */\n      add\n        /* \"#utility.yul\":5036:5099   */\n      tag_366\n      jump\t// in\n    tag_425:\n        /* \"#utility.yul\":5026:5099   */\n      swap4\n      pop\n        /* \"#utility.yul\":5152:5155   */\n      0x80\n        /* \"#utility.yul\":5141:5150   */\n      dup9\n        /* \"#utility.yul\":5137:5156   */\n      add\n        /* \"#utility.yul\":5124:5157   */\n      calldataload\n        /* \"#utility.yul\":5108:5157   */\n      swap2\n      pop\n        /* \"#utility.yul\":5182:5184   */\n      dup1\n        /* \"#utility.yul\":5172:5180   */\n      dup3\n        /* \"#utility.yul\":5169:5185   */\n      gt\n        /* \"#utility.yul\":5166:5202   */\n      iszero\n      tag_426\n      jumpi\n        /* \"#utility.yul\":5198:5199   */\n      0x00\n        /* \"#utility.yul\":5195:5196   */\n      dup1\n        /* \"#utility.yul\":5188:5200   */\n      revert\n        /* \"#utility.yul\":5166:5202   */\n    tag_426:\n      pop\n        /* \"#utility.yul\":5221:5272   */\n      tag_427\n        /* \"#utility.yul\":5264:5271   */\n      dup9\n        /* \"#utility.yul\":5253:5261   */\n      dup3\n        /* \"#utility.yul\":5242:5251   */\n      dup10\n        /* \"#utility.yul\":5238:5262   */\n      add\n        /* \"#utility.yul\":5221:5272   */\n      tag_367\n      jump\t// in\n    tag_427:\n        /* \"#utility.yul\":5211:5272   */\n      swap2\n      pop\n      pop\n        /* \"#utility.yul\":4335:5278   */\n      swap3\n      swap6\n      pop\n      swap3\n      swap6\n      swap1\n      swap4\n      pop\n      jump\t// out\n        /* \"#utility.yul\":5514:6722   */\n    tag_52:\n        /* \"#utility.yul\":5632:5638   */\n      0x00\n        /* \"#utility.yul\":5640:5646   */\n      dup1\n        /* \"#utility.yul\":5693:5695   */\n      0x40\n        /* \"#utility.yul\":5681:5690   */\n      dup4\n        /* \"#utility.yul\":5672:5679   */\n      dup6\n        /* \"#utility.yul\":5668:5691   */\n      sub\n        /* \"#utility.yul\":5664:5696   */\n      slt\n        /* \"#utility.yul\":5661:5713   */\n      iszero\n      tag_430\n      jumpi\n        /* \"#utility.yul\":5709:5710   */\n      0x00\n        /* \"#utility.yul\":5706:5707   */\n      dup1\n        /* \"#utility.yul\":5699:5711   */\n      revert\n        /* \"#utility.yul\":5661:5713   */\n    tag_430:\n        /* \"#utility.yul\":5749:5758   */\n      dup3\n        /* \"#utility.yul\":5736:5759   */\n      calldataload\n        /* \"#utility.yul\":5778:5796   */\n      0xffffffffffffffff\n        /* \"#utility.yul\":5819:5821   */\n      dup1\n        /* \"#utility.yul\":5811:5817   */\n      dup3\n        /* \"#utility.yul\":5808:5822   */\n      gt\n        /* \"#utility.yul\":5805:5839   */\n      iszero\n      tag_431\n      jumpi\n        /* \"#utility.yul\":5835:5836   */\n      0x00\n        /* \"#utility.yul\":5832:5833   */\n      dup1\n        /* \"#utility.yul\":5825:5837   */\n      revert\n        /* \"#utility.yul\":5805:5839   */\n    tag_431:\n        /* \"#utility.yul\":5873:5879   */\n      dup2\n        /* \"#utility.yul\":5862:5871   */\n      dup6\n        /* \"#utility.yul\":5858:5880   */\n      add\n        /* \"#utility.yul\":5848:5880   */\n      swap2\n      pop\n        /* \"#utility.yul\":5918:5925   */\n      dup6\n        /* \"#utility.yul\":5911:5915   */\n      0x1f\n        /* \"#utility.yul\":5907:5909   */\n      dup4\n        /* \"#utility.yul\":5903:5916   */\n      add\n        /* \"#utility.yul\":5899:5926   */\n      slt\n        /* \"#utility.yul\":5889:5944   */\n      tag_432\n      jumpi\n        /* \"#utility.yul\":5940:5941   */\n      0x00\n        /* \"#utility.yul\":5937:5938   */\n      dup1\n        /* \"#utility.yul\":5930:5942   */\n      revert\n        /* \"#utility.yul\":5889:5944   */\n    tag_432:\n        /* \"#utility.yul\":5976:5978   */\n      dup2\n        /* \"#utility.yul\":5963:5979   */\n      calldataload\n        /* \"#utility.yul\":5998:6002   */\n      0x20\n        /* \"#utility.yul\":6021:6064   */\n      tag_433\n        /* \"#utility.yul\":6061:6063   */\n      dup3\n        /* \"#utility.yul\":6021:6064   */\n      tag_365\n      jump\t// in\n    tag_433:\n        /* \"#utility.yul\":6093:6095   */\n      0x40\n        /* \"#utility.yul\":6087:6096   */\n      mload\n        /* \"#utility.yul\":6105:6136   */\n      tag_434\n        /* \"#utility.yul\":6133:6135   */\n      dup3\n        /* \"#utility.yul\":6125:6131   */\n      dup3\n        /* \"#utility.yul\":6105:6136   */\n      tag_364\n      jump\t// in\n    tag_434:\n        /* \"#utility.yul\":6171:6189   */\n      dup4\n      dup2\n      mstore\n        /* \"#utility.yul\":6259:6260   */\n      0x05\n        /* \"#utility.yul\":6255:6265   */\n      swap4\n      swap1\n      swap4\n      shl\n        /* \"#utility.yul\":6247:6266   */\n      dup6\n      add\n        /* \"#utility.yul\":6243:6271   */\n      dup3\n      add\n      swap3\n        /* \"#utility.yul\":6205:6220   */\n      dup3\n      dup2\n      add\n      swap2\n      pop\n        /* \"#utility.yul\":6283:6302   */\n      dup10\n      dup5\n      gt\n        /* \"#utility.yul\":6280:6319   */\n      iszero\n      tag_435\n      jumpi\n        /* \"#utility.yul\":6315:6316   */\n      0x00\n        /* \"#utility.yul\":6312:6313   */\n      dup1\n        /* \"#utility.yul\":6305:6317   */\n      revert\n        /* \"#utility.yul\":6280:6319   */\n    tag_435:\n        /* \"#utility.yul\":6339:6350   */\n      swap5\n      dup3\n      add\n      swap5\n        /* \"#utility.yul\":6359:6507   */\n    tag_436:\n        /* \"#utility.yul\":6375:6381   */\n      dup4\n        /* \"#utility.yul\":6370:6373   */\n      dup7\n        /* \"#utility.yul\":6367:6382   */\n      lt\n        /* \"#utility.yul\":6359:6507   */\n      iszero\n      tag_438\n      jumpi\n        /* \"#utility.yul\":6441:6464   */\n      tag_439\n        /* \"#utility.yul\":6460:6463   */\n      dup7\n        /* \"#utility.yul\":6441:6464   */\n      tag_360\n      jump\t// in\n    tag_439:\n        /* \"#utility.yul\":6429:6465   */\n      dup3\n      mstore\n        /* \"#utility.yul\":6392:6404   */\n      swap5\n      dup3\n      add\n      swap5\n        /* \"#utility.yul\":6485:6497   */\n      swap1\n      dup3\n      add\n      swap1\n        /* \"#utility.yul\":6359:6507   */\n      jump(tag_436)\n    tag_438:\n        /* \"#utility.yul\":6526:6532   */\n      swap7\n      pop\n      pop\n        /* \"#utility.yul\":6570:6588   */\n      dup7\n      add\n        /* \"#utility.yul\":6557:6589   */\n      calldataload\n      swap3\n      pop\n      pop\n        /* \"#utility.yul\":6601:6617   */\n      dup1\n      dup3\n      gt\n        /* \"#utility.yul\":6598:6634   */\n      iszero\n      tag_440\n      jumpi\n        /* \"#utility.yul\":6630:6631   */\n      0x00\n        /* \"#utility.yul\":6627:6628   */\n      dup1\n        /* \"#utility.yul\":6620:6632   */\n      revert\n        /* \"#utility.yul\":6598:6634   */\n    tag_440:\n      pop\n        /* \"#utility.yul\":6653:6716   */\n      tag_441\n        /* \"#utility.yul\":6708:6715   */\n      dup6\n        /* \"#utility.yul\":6697:6705   */\n      dup3\n        /* \"#utility.yul\":6686:6695   */\n      dup7\n        /* \"#utility.yul\":6682:6706   */\n      add\n        /* \"#utility.yul\":6653:6716   */\n      tag_366\n      jump\t// in\n    tag_441:\n        /* \"#utility.yul\":6643:6716   */\n      swap2\n      pop\n      pop\n        /* \"#utility.yul\":5514:6722   */\n      swap3\n      pop\n      swap3\n      swap1\n      pop\n      jump\t// out\n        /* \"#utility.yul\":6727:7162   */\n    tag_368:\n        /* \"#utility.yul\":6780:6783   */\n      0x00\n        /* \"#utility.yul\":6818:6823   */\n      dup2\n        /* \"#utility.yul\":6812:6824   */\n      mload\n        /* \"#utility.yul\":6845:6851   */\n      dup1\n        /* \"#utility.yul\":6840:6843   */\n      dup5\n        /* \"#utility.yul\":6833:6852   */\n      mstore\n        /* \"#utility.yul\":6871:6875   */\n      0x20\n        /* \"#utility.yul\":6900:6902   */\n      dup1\n        /* \"#utility.yul\":6895:6898   */\n      dup6\n        /* \"#utility.yul\":6891:6903   */\n      add\n        /* \"#utility.yul\":6884:6903   */\n      swap5\n      pop\n        /* \"#utility.yul\":6937:6939   */\n      dup1\n        /* \"#utility.yul\":6930:6935   */\n      dup5\n        /* \"#utility.yul\":6926:6940   */\n      add\n        /* \"#utility.yul\":6958:6959   */\n      0x00\n        /* \"#utility.yul\":6968:7137   */\n    tag_443:\n        /* \"#utility.yul\":6982:6988   */\n      dup4\n        /* \"#utility.yul\":6979:6980   */\n      dup2\n        /* \"#utility.yul\":6976:6989   */\n      lt\n        /* \"#utility.yul\":6968:7137   */\n      iszero\n      tag_445\n      jumpi\n        /* \"#utility.yul\":7043:7056   */\n      dup2\n      mload\n        /* \"#utility.yul\":7031:7057   */\n      dup8\n      mstore\n        /* \"#utility.yul\":7077:7089   */\n      swap6\n      dup3\n      add\n      swap6\n        /* \"#utility.yul\":7112:7127   */\n      swap1\n      dup3\n      add\n      swap1\n        /* \"#utility.yul\":7004:7005   */\n      0x01\n        /* \"#utility.yul\":6997:7006   */\n      add\n        /* \"#utility.yul\":6968:7137   */\n      jump(tag_443)\n    tag_445:\n      pop\n        /* \"#utility.yul\":7153:7156   */\n      swap5\n      swap6\n        /* \"#utility.yul\":6727:7162   */\n      swap5\n      pop\n      pop\n      pop\n      pop\n      pop\n      jump\t// out\n        /* \"#utility.yul\":7167:7428   */\n    tag_55:\n        /* \"#utility.yul\":7346:7348   */\n      0x20\n        /* \"#utility.yul\":7335:7344   */\n      dup2\n        /* \"#utility.yul\":7328:7349   */\n      mstore\n        /* \"#utility.yul\":7309:7313   */\n      0x00\n        /* \"#utility.yul\":7366:7422   */\n      tag_113\n        /* \"#utility.yul\":7418:7420   */\n      0x20\n        /* \"#utility.yul\":7407:7416   */\n      dup4\n        /* \"#utility.yul\":7403:7421   */\n      add\n        /* \"#utility.yul\":7395:7401   */\n      dup5\n        /* \"#utility.yul\":7366:7422   */\n      tag_368\n      jump\t// in\n        /* \"#utility.yul\":7433:7781   */\n    tag_369:\n        /* \"#utility.yul\":7485:7493   */\n      0x00\n        /* \"#utility.yul\":7495:7501   */\n      dup1\n        /* \"#utility.yul\":7549:7552   */\n      dup4\n        /* \"#utility.yul\":7542:7546   */\n      0x1f\n        /* \"#utility.yul\":7534:7540   */\n      dup5\n        /* \"#utility.yul\":7530:7547   */\n      add\n        /* \"#utility.yul\":7526:7553   */\n      slt\n        /* \"#utility.yul\":7516:7571   */\n      tag_449\n      jumpi\n        /* \"#utility.yul\":7567:7568   */\n      0x00\n        /* \"#utility.yul\":7564:7565   */\n      dup1\n        /* \"#utility.yul\":7557:7569   */\n      revert\n        /* \"#utility.yul\":7516:7571   */\n    tag_449:\n      pop\n        /* \"#utility.yul\":7590:7610   */\n      dup2\n      calldataload\n        /* \"#utility.yul\":7633:7651   */\n      0xffffffffffffffff\n        /* \"#utility.yul\":7622:7652   */\n      dup2\n      gt\n        /* \"#utility.yul\":7619:7669   */\n      iszero\n      tag_450\n      jumpi\n        /* \"#utility.yul\":7665:7666   */\n      0x00\n        /* \"#utility.yul\":7662:7663   */\n      dup1\n        /* \"#utility.yul\":7655:7667   */\n      revert\n        /* \"#utility.yul\":7619:7669   */\n    tag_450:\n        /* \"#utility.yul\":7702:7706   */\n      0x20\n        /* \"#utility.yul\":7694:7700   */\n      dup4\n        /* \"#utility.yul\":7690:7707   */\n      add\n        /* \"#utility.yul\":7678:7707   */\n      swap2\n      pop\n        /* \"#utility.yul\":7754:7757   */\n      dup4\n        /* \"#utility.yul\":7747:7751   */\n      0x20\n        /* \"#utility.yul\":7738:7744   */\n      dup3\n        /* \"#utility.yul\":7730:7736   */\n      dup6\n        /* \"#utility.yul\":7726:7745   */\n      add\n        /* \"#utility.yul\":7722:7752   */\n      add\n        /* \"#utility.yul\":7719:7758   */\n      gt\n        /* \"#utility.yul\":7716:7775   */\n      iszero\n      tag_451\n      jumpi\n        /* \"#utility.yul\":7771:7772   */\n      0x00\n        /* \"#utility.yul\":7768:7769   */\n      dup1\n        /* \"#utility.yul\":7761:7773   */\n      revert\n        /* \"#utility.yul\":7716:7775   */\n    tag_451:\n        /* \"#utility.yul\":7433:7781   */\n      swap3\n      pop\n      swap3\n      swap1\n      pop\n      jump\t// out\n        /* \"#utility.yul\":7786:8197   */\n    tag_62:\n        /* \"#utility.yul\":7857:7863   */\n      0x00\n        /* \"#utility.yul\":7865:7871   */\n      dup1\n        /* \"#utility.yul\":7918:7920   */\n      0x20\n        /* \"#utility.yul\":7906:7915   */\n      dup4\n        /* \"#utility.yul\":7897:7904   */\n      dup6\n        /* \"#utility.yul\":7893:7916   */\n      sub\n        /* \"#utility.yul\":7889:7921   */\n      slt\n        /* \"#utility.yul\":7886:7938   */\n      iszero\n      tag_453\n      jumpi\n        /* \"#utility.yul\":7934:7935   */\n      0x00\n        /* \"#utility.yul\":7931:7932   */\n      dup1\n        /* \"#utility.yul\":7924:7936   */\n      revert\n        /* \"#utility.yul\":7886:7938   */\n    tag_453:\n        /* \"#utility.yul\":7974:7983   */\n      dup3\n        /* \"#utility.yul\":7961:7984   */\n      calldataload\n        /* \"#utility.yul\":8007:8025   */\n      0xffffffffffffffff\n        /* \"#utility.yul\":7999:8005   */\n      dup2\n        /* \"#utility.yul\":7996:8026   */\n      gt\n        /* \"#utility.yul\":7993:8043   */\n      iszero\n      tag_454\n      jumpi\n        /* \"#utility.yul\":8039:8040   */\n      0x00\n        /* \"#utility.yul\":8036:8037   */\n      dup1\n        /* \"#utility.yul\":8029:8041   */\n      revert\n        /* \"#utility.yul\":7993:8043   */\n    tag_454:\n        /* \"#utility.yul\":8078:8137   */\n      tag_455\n        /* \"#utility.yul\":8129:8136   */\n      dup6\n        /* \"#utility.yul\":8120:8126   */\n      dup3\n        /* \"#utility.yul\":8109:8118   */\n      dup7\n        /* \"#utility.yul\":8105:8127   */\n      add\n        /* \"#utility.yul\":8078:8137   */\n      tag_369\n      jump\t// in\n    tag_455:\n        /* \"#utility.yul\":8156:8164   */\n      swap1\n      swap7\n        /* \"#utility.yul\":8052:8137   */\n      swap1\n      swap6\n      pop\n        /* \"#utility.yul\":7786:8197   */\n      swap4\n      pop\n      pop\n      pop\n      pop\n      jump\t// out\n        /* \"#utility.yul\":8202:8549   */\n    tag_73:\n        /* \"#utility.yul\":8267:8273   */\n      0x00\n        /* \"#utility.yul\":8275:8281   */\n      dup1\n        /* \"#utility.yul\":8328:8330   */\n      0x40\n        /* \"#utility.yul\":8316:8325   */\n      dup4\n        /* \"#utility.yul\":8307:8314   */\n      dup6\n        /* \"#utility.yul\":8303:8326   */\n      sub\n        /* \"#utility.yul\":8299:8331   */\n      slt\n        /* \"#utility.yul\":8296:8348   */\n      iszero\n      tag_457\n      jumpi\n        /* \"#utility.yul\":8344:8345   */\n      0x00\n        /* \"#utility.yul\":8341:8342   */\n      dup1\n        /* \"#utility.yul\":8334:8346   */\n      revert\n        /* \"#utility.yul\":8296:8348   */\n    tag_457:\n        /* \"#utility.yul\":8367:8396   */\n      tag_458\n        /* \"#utility.yul\":8386:8395   */\n      dup4\n        /* \"#utility.yul\":8367:8396   */\n      tag_360\n      jump\t// in\n    tag_458:\n        /* \"#utility.yul\":8357:8396   */\n      swap2\n      pop\n        /* \"#utility.yul\":8446:8448   */\n      0x20\n        /* \"#utility.yul\":8435:8444   */\n      dup4\n        /* \"#utility.yul\":8431:8449   */\n      add\n        /* \"#utility.yul\":8418:8450   */\n      calldataload\n        /* \"#utility.yul\":8493:8498   */\n      dup1\n        /* \"#utility.yul\":8486:8499   */\n      iszero\n        /* \"#utility.yul\":8479:8500   */\n      iszero\n        /* \"#utility.yul\":8472:8477   */\n      dup2\n        /* \"#utility.yul\":8469:8501   */\n      eq\n        /* \"#utility.yul\":8459:8519   */\n      tag_459\n      jumpi\n        /* \"#utility.yul\":8515:8516   */\n      0x00\n        /* \"#utility.yul\":8512:8513   */\n      dup1\n        /* \"#utility.yul\":8505:8517   */\n      revert\n        /* \"#utility.yul\":8459:8519   */\n    tag_459:\n        /* \"#utility.yul\":8538:8543   */\n      dup1\n        /* \"#utility.yul\":8528:8543   */\n      swap2\n      pop\n      pop\n        /* \"#utility.yul\":8202:8549   */\n      swap3\n      pop\n      swap3\n      swap1\n      pop\n      jump\t// out\n        /* \"#utility.yul\":8554:9176   */\n    tag_77:\n        /* \"#utility.yul\":8652:8658   */\n      0x00\n        /* \"#utility.yul\":8660:8666   */\n      dup1\n        /* \"#utility.yul\":8668:8674   */\n      0x00\n        /* \"#utility.yul\":8676:8682   */\n      dup1\n        /* \"#utility.yul\":8684:8690   */\n      0x00\n        /* \"#utility.yul\":8737:8740   */\n      0x80\n        /* \"#utility.yul\":8725:8734   */\n      dup7\n        /* \"#utility.yul\":8716:8723   */\n      dup9\n        /* \"#utility.yul\":8712:8735   */\n      sub\n        /* \"#utility.yul\":8708:8741   */\n      slt\n        /* \"#utility.yul\":8705:8758   */\n      iszero\n      tag_461\n      jumpi\n        /* \"#utility.yul\":8754:8755   */\n      0x00\n        /* \"#utility.yul\":8751:8752   */\n      dup1\n        /* \"#utility.yul\":8744:8756   */\n      revert\n        /* \"#utility.yul\":8705:8758   */\n    tag_461:\n        /* \"#utility.yul\":8777:8806   */\n      tag_462\n        /* \"#utility.yul\":8796:8805   */\n      dup7\n        /* \"#utility.yul\":8777:8806   */\n      tag_360\n      jump\t// in\n    tag_462:\n        /* \"#utility.yul\":8767:8806   */\n      swap5\n      pop\n        /* \"#utility.yul\":8853:8855   */\n      0x20\n        /* \"#utility.yul\":8842:8851   */\n      dup7\n        /* \"#utility.yul\":8838:8856   */\n      add\n        /* \"#utility.yul\":8825:8857   */\n      calldataload\n        /* \"#utility.yul\":8815:8857   */\n      swap4\n      pop\n        /* \"#utility.yul\":8904:8906   */\n      0x40\n        /* \"#utility.yul\":8893:8902   */\n      dup7\n        /* \"#utility.yul\":8889:8907   */\n      add\n        /* \"#utility.yul\":8876:8908   */\n      calldataload\n        /* \"#utility.yul\":8866:8908   */\n      swap3\n      pop\n        /* \"#utility.yul\":8959:8961   */\n      0x60\n        /* \"#utility.yul\":8948:8957   */\n      dup7\n        /* \"#utility.yul\":8944:8962   */\n      add\n        /* \"#utility.yul\":8931:8963   */\n      calldataload\n        /* \"#utility.yul\":8986:9004   */\n      0xffffffffffffffff\n        /* \"#utility.yul\":8978:8984   */\n      dup2\n        /* \"#utility.yul\":8975:9005   */\n      gt\n        /* \"#utility.yul\":8972:9022   */\n      iszero\n      tag_463\n      jumpi\n        /* \"#utility.yul\":9018:9019   */\n      0x00\n        /* \"#utility.yul\":9015:9016   */\n      dup1\n        /* \"#utility.yul\":9008:9020   */\n      revert\n        /* \"#utility.yul\":8972:9022   */\n    tag_463:\n        /* \"#utility.yul\":9057:9116   */\n      tag_464\n        /* \"#utility.yul\":9108:9115   */\n      dup9\n        /* \"#utility.yul\":9099:9105   */\n      dup3\n        /* \"#utility.yul\":9088:9097   */\n      dup10\n        /* \"#utility.yul\":9084:9106   */\n      add\n        /* \"#utility.yul\":9057:9116   */\n      tag_369\n      jump\t// in\n    tag_464:\n        /* \"#utility.yul\":8554:9176   */\n      swap7\n      swap10\n      swap6\n      swap9\n      pop\n      swap4\n      swap7\n      pop\n        /* \"#utility.yul\":9135:9143   */\n      swap3\n      swap5\n        /* \"#utility.yul\":9031:9116   */\n      swap4\n        /* \"#utility.yul\":8554:9176   */\n      swap3\n      pop\n      pop\n      pop\n      jump\t// out\n        /* \"#utility.yul\":9181:9367   */\n    tag_85:\n        /* \"#utility.yul\":9240:9246   */\n      0x00\n        /* \"#utility.yul\":9293:9295   */\n      0x20\n        /* \"#utility.yul\":9281:9290   */\n      dup3\n        /* \"#utility.yul\":9272:9279   */\n      dup5\n        /* \"#utility.yul\":9268:9291   */\n      sub\n        /* \"#utility.yul\":9264:9296   */\n      slt\n        /* \"#utility.yul\":9261:9313   */\n      iszero\n      tag_466\n      jumpi\n        /* \"#utility.yul\":9309:9310   */\n      0x00\n        /* \"#utility.yul\":9306:9307   */\n      dup1\n        /* \"#utility.yul\":9299:9311   */\n      revert\n        /* \"#utility.yul\":9261:9313   */\n    tag_466:\n        /* \"#utility.yul\":9332:9361   */\n      tag_113\n        /* \"#utility.yul\":9351:9360   */\n      dup3\n        /* \"#utility.yul\":9332:9361   */\n      tag_360\n      jump\t// in\n        /* \"#utility.yul\":9372:9632   */\n    tag_92:\n        /* \"#utility.yul\":9440:9446   */\n      0x00\n        /* \"#utility.yul\":9448:9454   */\n      dup1\n        /* \"#utility.yul\":9501:9503   */\n      0x40\n        /* \"#utility.yul\":9489:9498   */\n      dup4\n        /* \"#utility.yul\":9480:9487   */\n      dup6\n        /* \"#utility.yul\":9476:9499   */\n      sub\n        /* \"#utility.yul\":9472:9504   */\n      slt\n        /* \"#utility.yul\":9469:9521   */\n      iszero\n      tag_469\n      jumpi\n        /* \"#utility.yul\":9517:9518   */\n      0x00\n        /* \"#utility.yul\":9514:9515   */\n      dup1\n        /* \"#utility.yul\":9507:9519   */\n      revert\n        /* \"#utility.yul\":9469:9521   */\n    tag_469:\n        /* \"#utility.yul\":9540:9569   */\n      tag_470\n        /* \"#utility.yul\":9559:9568   */\n      dup4\n        /* \"#utility.yul\":9540:9569   */\n      tag_360\n      jump\t// in\n    tag_470:\n        /* \"#utility.yul\":9530:9569   */\n      swap2\n      pop\n        /* \"#utility.yul\":9588:9626   */\n      tag_471\n        /* \"#utility.yul\":9622:9624   */\n      0x20\n        /* \"#utility.yul\":9611:9620   */\n      dup5\n        /* \"#utility.yul\":9607:9625   */\n      add\n        /* \"#utility.yul\":9588:9626   */\n      tag_360\n      jump\t// in\n    tag_471:\n        /* \"#utility.yul\":9578:9626   */\n      swap1\n      pop\n        /* \"#utility.yul\":9372:9632   */\n      swap3\n      pop\n      swap3\n      swap1\n      pop\n      jump\t// out\n        /* \"#utility.yul\":9637:10243   */\n    tag_97:\n        /* \"#utility.yul\":9741:9747   */\n      0x00\n        /* \"#utility.yul\":9749:9755   */\n      dup1\n        /* \"#utility.yul\":9757:9763   */\n      0x00\n        /* \"#utility.yul\":9765:9771   */\n      dup1\n        /* \"#utility.yul\":9773:9779   */\n      0x00\n        /* \"#utility.yul\":9826:9829   */\n      0xa0\n        /* \"#utility.yul\":9814:9823   */\n      dup7\n        /* \"#utility.yul\":9805:9812   */\n      dup9\n        /* \"#utility.yul\":9801:9824   */\n      sub\n        /* \"#utility.yul\":9797:9830   */\n      slt\n        /* \"#utility.yul\":9794:9847   */\n      iszero\n      tag_473\n      jumpi\n        /* \"#utility.yul\":9843:9844   */\n      0x00\n        /* \"#utility.yul\":9840:9841   */\n      dup1\n        /* \"#utility.yul\":9833:9845   */\n      revert\n        /* \"#utility.yul\":9794:9847   */\n    tag_473:\n        /* \"#utility.yul\":9866:9895   */\n      tag_474\n        /* \"#utility.yul\":9885:9894   */\n      dup7\n        /* \"#utility.yul\":9866:9895   */\n      tag_360\n      jump\t// in\n    tag_474:\n        /* \"#utility.yul\":9856:9895   */\n      swap5\n      pop\n        /* \"#utility.yul\":9914:9952   */\n      tag_475\n        /* \"#utility.yul\":9948:9950   */\n      0x20\n        /* \"#utility.yul\":9937:9946   */\n      dup8\n        /* \"#utility.yul\":9933:9951   */\n      add\n        /* \"#utility.yul\":9914:9952   */\n      tag_360\n      jump\t// in\n    tag_475:\n        /* \"#utility.yul\":9904:9952   */\n      swap4\n      pop\n        /* \"#utility.yul\":9999:10001   */\n      0x40\n        /* \"#utility.yul\":9988:9997   */\n      dup7\n        /* \"#utility.yul\":9984:10002   */\n      add\n        /* \"#utility.yul\":9971:10003   */\n      calldataload\n        /* \"#utility.yul\":9961:10003   */\n      swap3\n      pop\n        /* \"#utility.yul\":10050:10052   */\n      0x60\n        /* \"#utility.yul\":10039:10048   */\n      dup7\n        /* \"#utility.yul\":10035:10053   */\n      add\n        /* \"#utility.yul\":10022:10054   */\n      calldataload\n        /* \"#utility.yul\":10012:10054   */\n      swap2\n      pop\n        /* \"#utility.yul\":10105:10108   */\n      0x80\n        /* \"#utility.yul\":10094:10103   */\n      dup7\n        /* \"#utility.yul\":10090:10109   */\n      add\n        /* \"#utility.yul\":10077:10110   */\n      calldataload\n        /* \"#utility.yul\":10133:10151   */\n      0xffffffffffffffff\n        /* \"#utility.yul\":10125:10131   */\n      dup2\n        /* \"#utility.yul\":10122:10152   */\n      gt\n        /* \"#utility.yul\":10119:10169   */\n      iszero\n      tag_476\n      jumpi\n        /* \"#utility.yul\":10165:10166   */\n      0x00\n        /* \"#utility.yul\":10162:10163   */\n      dup1\n        /* \"#utility.yul\":10155:10167   */\n      revert\n        /* \"#utility.yul\":10119:10169   */\n    tag_476:\n        /* \"#utility.yul\":10188:10237   */\n      tag_427\n        /* \"#utility.yul\":10229:10236   */\n      dup9\n        /* \"#utility.yul\":10220:10226   */\n      dup3\n        /* \"#utility.yul\":10209:10218   */\n      dup10\n        /* \"#utility.yul\":10205:10227   */\n      add\n        /* \"#utility.yul\":10188:10237   */\n      tag_367\n      jump\t// in\n        /* \"#utility.yul\":10660:10845   */\n    tag_370:\n        /* \"#utility.yul\":10702:10705   */\n      0x00\n        /* \"#utility.yul\":10740:10745   */\n      dup2\n        /* \"#utility.yul\":10734:10746   */\n      mload\n        /* \"#utility.yul\":10755:10807   */\n      tag_480\n        /* \"#utility.yul\":10800:10806   */\n      dup2\n        /* \"#utility.yul\":10795:10798   */\n      dup6\n        /* \"#utility.yul\":10788:10792   */\n      0x20\n        /* \"#utility.yul\":10781:10786   */\n      dup7\n        /* \"#utility.yul\":10777:10793   */\n      add\n        /* \"#utility.yul\":10755:10807   */\n      tag_362\n      jump\t// in\n    tag_480:\n        /* \"#utility.yul\":10823:10839   */\n      swap3\n      swap1\n      swap3\n      add\n      swap3\n        /* \"#utility.yul\":10660:10845   */\n      swap2\n      pop\n      pop\n      jump\t// out\n        /* \"#utility.yul\":10850:11497   */\n    tag_116:\n        /* \"#utility.yul\":11130:11133   */\n      0x00\n        /* \"#utility.yul\":11168:11174   */\n      dup4\n        /* \"#utility.yul\":11162:11175   */\n      mload\n        /* \"#utility.yul\":11184:11237   */\n      tag_482\n        /* \"#utility.yul\":11230:11236   */\n      dup2\n        /* \"#utility.yul\":11225:11228   */\n      dup5\n        /* \"#utility.yul\":11218:11222   */\n      0x20\n        /* \"#utility.yul\":11210:11216   */\n      dup9\n        /* \"#utility.yul\":11206:11223   */\n      add\n        /* \"#utility.yul\":11184:11237   */\n      tag_362\n      jump\t// in\n    tag_482:\n        /* \"#utility.yul\":11300:11313   */\n      dup4\n      mload\n        /* \"#utility.yul\":11259:11275   */\n      swap1\n      dup4\n      add\n      swap1\n        /* \"#utility.yul\":11322:11379   */\n      tag_483\n        /* \"#utility.yul\":11300:11313   */\n      dup2\n        /* \"#utility.yul\":11259:11275   */\n      dup4\n        /* \"#utility.yul\":11356:11360   */\n      0x20\n        /* \"#utility.yul\":11344:11361   */\n      dup9\n      add\n        /* \"#utility.yul\":11322:11379   */\n      tag_362\n      jump\t// in\n    tag_483:\n        /* \"#utility.yul\":11444:11460   */\n      0x2f6d657461646174612e6a736f6e000000000000000000000000000000000000\n        /* \"#utility.yul\":11401:11421   */\n      swap2\n      add\n        /* \"#utility.yul\":11430:11461   */\n      swap1\n      dup2\n      mstore\n        /* \"#utility.yul\":11488:11490   */\n      0x0e\n        /* \"#utility.yul\":11477:11491   */\n      add\n      swap5\n        /* \"#utility.yul\":10850:11497   */\n      swap4\n      pop\n      pop\n      pop\n      pop\n      jump\t// out\n        /* \"#utility.yul\":12331:12515   */\n    tag_142:\n        /* \"#utility.yul\":12383:12460   */\n      0x4e487b7100000000000000000000000000000000000000000000000000000000\n        /* \"#utility.yul\":12380:12381   */\n      0x00\n        /* \"#utility.yul\":12373:12461   */\n      mstore\n        /* \"#utility.yul\":12480:12484   */\n      0x32\n        /* \"#utility.yul\":12477:12478   */\n      0x04\n        /* \"#utility.yul\":12470:12485   */\n      mstore\n        /* \"#utility.yul\":12504:12508   */\n      0x24\n        /* \"#utility.yul\":12501:12502   */\n      0x00\n        /* \"#utility.yul\":12494:12509   */\n      revert\n        /* \"#utility.yul\":12520:12704   */\n    tag_371:\n        /* \"#utility.yul\":12572:12649   */\n      0x4e487b7100000000000000000000000000000000000000000000000000000000\n        /* \"#utility.yul\":12569:12570   */\n      0x00\n        /* \"#utility.yul\":12562:12650   */\n      mstore\n        /* \"#utility.yul\":12669:12673   */\n      0x11\n        /* \"#utility.yul\":12666:12667   */\n      0x04\n        /* \"#utility.yul\":12659:12674   */\n      mstore\n        /* \"#utility.yul\":12693:12697   */\n      0x24\n        /* \"#utility.yul\":12690:12691   */\n      0x00\n        /* \"#utility.yul\":12683:12698   */\n      revert\n        /* \"#utility.yul\":12709:12904   */\n    tag_148:\n        /* \"#utility.yul\":12748:12751   */\n      0x00\n        /* \"#utility.yul\":12779:12845   */\n      0xffffffffffffffffffffffffffffffffffffffffffffffffffffffffffffffff\n        /* \"#utility.yul\":12772:12777   */\n      dup3\n        /* \"#utility.yul\":12769:12846   */\n      sub\n        /* \"#utility.yul\":12766:12869   */\n      tag_490\n      jumpi\n        /* \"#utility.yul\":12849:12867   */\n      tag_490\n      tag_371\n      jump\t// in\n    tag_490:\n      pop\n        /* \"#utility.yul\":12896:12897   */\n      0x01\n        /* \"#utility.yul\":12885:12898   */\n      add\n      swap1\n        /* \"#utility.yul\":12709:12904   */\n      jump\t// out\n        /* \"#utility.yul\":13262:13699   */\n    tag_160:\n        /* \"#utility.yul\":13341:13342   */\n      0x01\n        /* \"#utility.yul\":13337:13349   */\n      dup2\n      dup2\n      shr\n      swap1\n        /* \"#utility.yul\":13384:13396   */\n      dup3\n      and\n      dup1\n        /* \"#utility.yul\":13405:13466   */\n      tag_493\n      jumpi\n        /* \"#utility.yul\":13459:13463   */\n      0x7f\n        /* \"#utility.yul\":13451:13457   */\n      dup3\n        /* \"#utility.yul\":13447:13464   */\n      and\n        /* \"#utility.yul\":13437:13464   */\n      swap2\n      pop\n        /* \"#utility.yul\":13405:13466   */\n    tag_493:\n        /* \"#utility.yul\":13512:13514   */\n      0x20\n        /* \"#utility.yul\":13504:13510   */\n      dup3\n        /* \"#utility.yul\":13501:13515   */\n      lt\n        /* \"#utility.yul\":13481:13499   */\n      dup2\n        /* \"#utility.yul\":13478:13516   */\n      sub\n        /* \"#utility.yul\":13475:13693   */\n      tag_494\n      jumpi\n        /* \"#utility.yul\":13549:13626   */\n      0x4e487b7100000000000000000000000000000000000000000000000000000000\n        /* \"#utility.yul\":13546:13547   */\n      0x00\n        /* \"#utility.yul\":13539:13627   */\n      mstore\n        /* \"#utility.yul\":13650:13654   */\n      0x22\n        /* \"#utility.yul\":13647:13648   */\n      0x04\n        /* \"#utility.yul\":13640:13655   */\n      mstore\n        /* \"#utility.yul\":13678:13682   */\n      0x24\n        /* \"#utility.yul\":13675:13676   */\n      0x00\n        /* \"#utility.yul\":13668:13683   */\n      revert\n        /* \"#utility.yul\":13475:13693   */\n    tag_494:\n      pop\n        /* \"#utility.yul\":13262:13699   */\n      swap2\n      swap1\n      pop\n      jump\t// out\n        /* \"#utility.yul\":14646:15935   */\n    tag_222:\n        /* \"#utility.yul\":14822:14825   */\n      0x00\n        /* \"#utility.yul\":14851:14852   */\n      dup1\n        /* \"#utility.yul\":14884:14890   */\n      dup5\n        /* \"#utility.yul\":14878:14891   */\n      sload\n        /* \"#utility.yul\":14914:14917   */\n      dup2\n        /* \"#utility.yul\":14936:14937   */\n      0x01\n        /* \"#utility.yul\":14964:14973   */\n      dup3\n        /* \"#utility.yul\":14960:14962   */\n      dup2\n        /* \"#utility.yul\":14956:14974   */\n      shr\n        /* \"#utility.yul\":14946:14974   */\n      swap2\n      pop\n        /* \"#utility.yul\":15024:15026   */\n      dup1\n        /* \"#utility.yul\":15013:15022   */\n      dup4\n        /* \"#utility.yul\":15009:15027   */\n      and\n        /* \"#utility.yul\":15046:15064   */\n      dup1\n        /* \"#utility.yul\":15036:15097   */\n      tag_499\n      jumpi\n        /* \"#utility.yul\":15090:15094   */\n      0x7f\n        /* \"#utility.yul\":15082:15088   */\n      dup4\n        /* \"#utility.yul\":15078:15095   */\n      and\n        /* \"#utility.yul\":15068:15095   */\n      swap3\n      pop\n        /* \"#utility.yul\":15036:15097   */\n    tag_499:\n        /* \"#utility.yul\":15116:15118   */\n      0x20\n        /* \"#utility.yul\":15164:15166   */\n      dup1\n        /* \"#utility.yul\":15156:15162   */\n      dup5\n        /* \"#utility.yul\":15153:15167   */\n      lt\n        /* \"#utility.yul\":15133:15151   */\n      dup3\n        /* \"#utility.yul\":15130:15168   */\n      sub\n        /* \"#utility.yul\":15127:15349   */\n      tag_500\n      jumpi\n        /* \"#utility.yul\":15203:15280   */\n      0x4e487b7100000000000000000000000000000000000000000000000000000000\n        /* \"#utility.yul\":15198:15201   */\n      dup7\n        /* \"#utility.yul\":15191:15281   */\n      mstore\n        /* \"#utility.yul\":15304:15308   */\n      0x22\n        /* \"#utility.yul\":15301:15302   */\n      0x04\n        /* \"#utility.yul\":15294:15309   */\n      mstore\n        /* \"#utility.yul\":15334:15338   */\n      0x24\n        /* \"#utility.yul\":15329:15332   */\n      dup7\n        /* \"#utility.yul\":15322:15339   */\n      revert\n        /* \"#utility.yul\":15127:15349   */\n    tag_500:\n        /* \"#utility.yul\":15365:15383   */\n      dup2\n        /* \"#utility.yul\":15392:15554   */\n      dup1\n      iszero\n      tag_502\n      jumpi\n        /* \"#utility.yul\":15568:15569   */\n      0x01\n        /* \"#utility.yul\":15563:15883   */\n      dup2\n      eq\n      tag_503\n      jumpi\n        /* \"#utility.yul\":15358:15883   */\n      jump(tag_501)\n        /* \"#utility.yul\":15392:15554   */\n    tag_502:\n        /* \"#utility.yul\":15440:15506   */\n      0xffffffffffffffffffffffffffffffffffffffffffffffffffffffffffffff00\n        /* \"#utility.yul\":15429:15438   */\n      dup7\n        /* \"#utility.yul\":15425:15507   */\n      and\n        /* \"#utility.yul\":15420:15423   */\n      dup10\n        /* \"#utility.yul\":15413:15508   */\n      mstore\n        /* \"#utility.yul\":15537:15543   */\n      dup5\n        /* \"#utility.yul\":15532:15535   */\n      dup10\n        /* \"#utility.yul\":15528:15544   */\n      add\n        /* \"#utility.yul\":15521:15544   */\n      swap7\n      pop\n        /* \"#utility.yul\":15392:15554   */\n      jump(tag_501)\n        /* \"#utility.yul\":15563:15883   */\n    tag_503:\n        /* \"#utility.yul\":14593:14594   */\n      0x00\n        /* \"#utility.yul\":14586:14600   */\n      dup12\n      dup2\n      mstore\n        /* \"#utility.yul\":14630:14634   */\n      0x20\n        /* \"#utility.yul\":14617:14635   */\n      swap1\n      keccak256\n        /* \"#utility.yul\":15658:15659   */\n      0x00\n        /* \"#utility.yul\":15672:15837   */\n    tag_505:\n        /* \"#utility.yul\":15686:15692   */\n      dup7\n        /* \"#utility.yul\":15683:15684   */\n      dup2\n        /* \"#utility.yul\":15680:15693   */\n      lt\n        /* \"#utility.yul\":15672:15837   */\n      iszero\n      tag_507\n      jumpi\n        /* \"#utility.yul\":15764:15778   */\n      dup2\n      sload\n        /* \"#utility.yul\":15751:15762   */\n      dup12\n      dup3\n      add\n        /* \"#utility.yul\":15744:15779   */\n      mstore\n        /* \"#utility.yul\":15807:15823   */\n      swap1\n      dup6\n      add\n      swap1\n        /* \"#utility.yul\":15701:15711   */\n      dup4\n      add\n        /* \"#utility.yul\":15672:15837   */\n      jump(tag_505)\n    tag_507:\n        /* \"#utility.yul\":15676:15679   */\n      pop\n      pop\n        /* \"#utility.yul\":15866:15872   */\n      dup5\n        /* \"#utility.yul\":15861:15864   */\n      dup10\n        /* \"#utility.yul\":15857:15873   */\n      add\n        /* \"#utility.yul\":15850:15873   */\n      swap7\n      pop\n        /* \"#utility.yul\":15358:15883   */\n    tag_501:\n      pop\n      pop\n      pop\n      pop\n      pop\n      pop\n        /* \"#utility.yul\":15899:15929   */\n      tag_508\n        /* \"#utility.yul\":15925:15928   */\n      dup2\n        /* \"#utility.yul\":15917:15923   */\n      dup6\n        /* \"#utility.yul\":15899:15929   */\n      tag_370\n      jump\t// in\n    tag_508:\n        /* \"#utility.yul\":15892:15929   */\n      swap6\n        /* \"#utility.yul\":14646:15935   */\n      swap5\n      pop\n      pop\n      pop\n      pop\n      pop\n      jump\t// out\n        /* \"#utility.yul\":17166:17294   */\n    tag_245:\n        /* \"#utility.yul\":17206:17209   */\n      0x00\n        /* \"#utility.yul\":17237:17238   */\n      dup3\n        /* \"#utility.yul\":17233:17239   */\n      not\n        /* \"#utility.yul\":17230:17231   */\n      dup3\n        /* \"#utility.yul\":17227:17240   */\n      gt\n        /* \"#utility.yul\":17224:17263   */\n      iszero\n      tag_514\n      jumpi\n        /* \"#utility.yul\":17243:17261   */\n      tag_514\n      tag_371\n      jump\t// in\n    tag_514:\n      pop\n        /* \"#utility.yul\":17279:17288   */\n      add\n      swap1\n        /* \"#utility.yul\":17166:17294   */\n      jump\t// out\n        /* \"#utility.yul\":17299:17764   */\n    tag_248:\n        /* \"#utility.yul\":17556:17558   */\n      0x40\n        /* \"#utility.yul\":17545:17554   */\n      dup2\n        /* \"#utility.yul\":17538:17559   */\n      mstore\n        /* \"#utility.yul\":17519:17523   */\n      0x00\n        /* \"#utility.yul\":17582:17638   */\n      tag_516\n        /* \"#utility.yul\":17634:17636   */\n      0x40\n        /* \"#utility.yul\":17623:17632   */\n      dup4\n        /* \"#utility.yul\":17619:17637   */\n      add\n        /* \"#utility.yul\":17611:17617   */\n      dup6\n        /* \"#utility.yul\":17582:17638   */\n      tag_368\n      jump\t// in\n    tag_516:\n        /* \"#utility.yul\":17686:17695   */\n      dup3\n        /* \"#utility.yul\":17678:17684   */\n      dup2\n        /* \"#utility.yul\":17674:17696   */\n      sub\n        /* \"#utility.yul\":17669:17671   */\n      0x20\n        /* \"#utility.yul\":17658:17667   */\n      dup5\n        /* \"#utility.yul\":17654:17672   */\n      add\n        /* \"#utility.yul\":17647:17697   */\n      mstore\n        /* \"#utility.yul\":17714:17758   */\n      tag_508\n        /* \"#utility.yul\":17751:17757   */\n      dup2\n        /* \"#utility.yul\":17743:17749   */\n      dup6\n        /* \"#utility.yul\":17714:17758   */\n      tag_368\n      jump\t// in\n        /* \"#utility.yul\":18834:19695   */\n    tag_304:\n        /* \"#utility.yul\":19156:19160   */\n      0x00\n        /* \"#utility.yul\":19185:19227   */\n      0xffffffffffffffffffffffffffffffffffffffff\n        /* \"#utility.yul\":19266:19268   */\n      dup1\n        /* \"#utility.yul\":19258:19264   */\n      dup9\n        /* \"#utility.yul\":19254:19269   */\n      and\n        /* \"#utility.yul\":19243:19252   */\n      dup4\n        /* \"#utility.yul\":19236:19270   */\n      mstore\n        /* \"#utility.yul\":19318:19320   */\n      dup1\n        /* \"#utility.yul\":19310:19316   */\n      dup8\n        /* \"#utility.yul\":19306:19321   */\n      and\n        /* \"#utility.yul\":19301:19303   */\n      0x20\n        /* \"#utility.yul\":19290:19299   */\n      dup5\n        /* \"#utility.yul\":19286:19304   */\n      add\n        /* \"#utility.yul\":19279:19322   */\n      mstore\n      pop\n        /* \"#utility.yul\":19358:19361   */\n      0xa0\n        /* \"#utility.yul\":19353:19355   */\n      0x40\n        /* \"#utility.yul\":19342:19351   */\n      dup4\n        /* \"#utility.yul\":19338:19356   */\n      add\n        /* \"#utility.yul\":19331:19362   */\n      mstore\n        /* \"#utility.yul\":19385:19442   */\n      tag_522\n        /* \"#utility.yul\":19437:19440   */\n      0xa0\n        /* \"#utility.yul\":19426:19435   */\n      dup4\n        /* \"#utility.yul\":19422:19441   */\n      add\n        /* \"#utility.yul\":19414:19420   */\n      dup7\n        /* \"#utility.yul\":19385:19442   */\n      tag_368\n      jump\t// in\n    tag_522:\n        /* \"#utility.yul\":19490:19499   */\n      dup3\n        /* \"#utility.yul\":19482:19488   */\n      dup2\n        /* \"#utility.yul\":19478:19500   */\n      sub\n        /* \"#utility.yul\":19473:19475   */\n      0x60\n        /* \"#utility.yul\":19462:19471   */\n      dup5\n        /* \"#utility.yul\":19458:19476   */\n      add\n        /* \"#utility.yul\":19451:19501   */\n      mstore\n        /* \"#utility.yul\":19524:19568   */\n      tag_523\n        /* \"#utility.yul\":19561:19567   */\n      dup2\n        /* \"#utility.yul\":19553:19559   */\n      dup7\n        /* \"#utility.yul\":19524:19568   */\n      tag_368\n      jump\t// in\n    tag_523:\n        /* \"#utility.yul\":19510:19568   */\n      swap1\n      pop\n        /* \"#utility.yul\":19617:19626   */\n      dup3\n        /* \"#utility.yul\":19609:19615   */\n      dup2\n        /* \"#utility.yul\":19605:19627   */\n      sub\n        /* \"#utility.yul\":19599:19602   */\n      0x80\n        /* \"#utility.yul\":19588:19597   */\n      dup5\n        /* \"#utility.yul\":19584:19603   */\n      add\n        /* \"#utility.yul\":19577:19628   */\n      mstore\n        /* \"#utility.yul\":19645:19689   */\n      tag_524\n        /* \"#utility.yul\":19682:19688   */\n      dup2\n        /* \"#utility.yul\":19674:19680   */\n      dup6\n        /* \"#utility.yul\":19645:19689   */\n      tag_363\n      jump\t// in\n    tag_524:\n        /* \"#utility.yul\":19637:19689   */\n      swap9\n        /* \"#utility.yul\":18834:19695   */\n      swap8\n      pop\n      pop\n      pop\n      pop\n      pop\n      pop\n      pop\n      pop\n      jump\t// out\n        /* \"#utility.yul\":19700:19949   */\n    tag_307:\n        /* \"#utility.yul\":19769:19775   */\n      0x00\n        /* \"#utility.yul\":19822:19824   */\n      0x20\n        /* \"#utility.yul\":19810:19819   */\n      dup3\n        /* \"#utility.yul\":19801:19808   */\n      dup5\n        /* \"#utility.yul\":19797:19820   */\n      sub\n        /* \"#utility.yul\":19793:19825   */\n      slt\n        /* \"#utility.yul\":19790:19842   */\n      iszero\n      tag_526\n      jumpi\n        /* \"#utility.yul\":19838:19839   */\n      0x00\n        /* \"#utility.yul\":19835:19836   */\n      dup1\n        /* \"#utility.yul\":19828:19840   */\n      revert\n        /* \"#utility.yul\":19790:19842   */\n    tag_526:\n        /* \"#utility.yul\":19870:19879   */\n      dup2\n        /* \"#utility.yul\":19864:19880   */\n      mload\n        /* \"#utility.yul\":19889:19919   */\n      tag_113\n        /* \"#utility.yul\":19913:19918   */\n      dup2\n        /* \"#utility.yul\":19889:19919   */\n      tag_361\n      jump\t// in\n        /* \"#utility.yul\":19954:20133   */\n    tag_313:\n        /* \"#utility.yul\":19989:19992   */\n      0x00\n        /* \"#utility.yul\":20031:20032   */\n      0x03\n        /* \"#utility.yul\":20013:20029   */\n      returndatasize\n        /* \"#utility.yul\":20010:20033   */\n      gt\n        /* \"#utility.yul\":20007:20127   */\n      iszero\n      tag_529\n      jumpi\n        /* \"#utility.yul\":20077:20078   */\n      0x04\n        /* \"#utility.yul\":20074:20075   */\n      0x00\n        /* \"#utility.yul\":20071:20072   */\n      dup1\n        /* \"#utility.yul\":20056:20079   */\n      returndatacopy\n      pop\n        /* \"#utility.yul\":20114:20115   */\n      0x00\n        /* \"#utility.yul\":20108:20116   */\n      mload\n        /* \"#utility.yul\":20103:20106   */\n      0xe0\n        /* \"#utility.yul\":20099:20117   */\n      shr\n        /* \"#utility.yul\":20007:20127   */\n    tag_529:\n        /* \"#utility.yul\":19954:20133   */\n      swap1\n      jump\t// out\n        /* \"#utility.yul\":20138:20869   */\n    tag_315:\n        /* \"#utility.yul\":20177:20180   */\n      0x00\n        /* \"#utility.yul\":20219:20223   */\n      0x44\n        /* \"#utility.yul\":20201:20217   */\n      returndatasize\n        /* \"#utility.yul\":20198:20224   */\n      lt\n        /* \"#utility.yul\":20195:20234   */\n      iszero\n      tag_531\n      jumpi\n        /* \"#utility.yul\":20138:20869   */\n      swap1\n      jump\t// out\n        /* \"#utility.yul\":20195:20234   */\n    tag_531:\n        /* \"#utility.yul\":20261:20263   */\n      0x40\n        /* \"#utility.yul\":20255:20264   */\n      mload\n        /* \"#utility.yul\":20283:20349   */\n      0xfffffffffffffffffffffffffffffffffffffffffffffffffffffffffffffffc\n        /* \"#utility.yul\":20404:20406   */\n      dup1\n        /* \"#utility.yul\":20386:20402   */\n      returndatasize\n        /* \"#utility.yul\":20382:20407   */\n      add\n        /* \"#utility.yul\":20379:20380   */\n      0x04\n        /* \"#utility.yul\":20373:20377   */\n      dup4\n        /* \"#utility.yul\":20358:20408   */\n      returndatacopy\n        /* \"#utility.yul\":20437:20441   */\n      dup2\n        /* \"#utility.yul\":20431:20442   */\n      mload\n        /* \"#utility.yul\":20461:20477   */\n      returndatasize\n        /* \"#utility.yul\":20496:20514   */\n      0xffffffffffffffff\n        /* \"#utility.yul\":20567:20569   */\n      dup2\n        /* \"#utility.yul\":20560:20564   */\n      0x24\n        /* \"#utility.yul\":20552:20558   */\n      dup5\n        /* \"#utility.yul\":20548:20565   */\n      add\n        /* \"#utility.yul\":20545:20570   */\n      gt\n        /* \"#utility.yul\":20540:20542   */\n      dup2\n        /* \"#utility.yul\":20532:20538   */\n      dup5\n        /* \"#utility.yul\":20529:20543   */\n      gt\n        /* \"#utility.yul\":20526:20571   */\n      or\n        /* \"#utility.yul\":20523:20581   */\n      iszero\n      tag_532\n      jumpi\n        /* \"#utility.yul\":20574:20579   */\n      pop\n      pop\n      pop\n      pop\n      pop\n        /* \"#utility.yul\":20138:20869   */\n      swap1\n      jump\t// out\n        /* \"#utility.yul\":20523:20581   */\n    tag_532:\n        /* \"#utility.yul\":20611:20617   */\n      dup3\n        /* \"#utility.yul\":20605:20609   */\n      dup6\n        /* \"#utility.yul\":20601:20618   */\n      add\n        /* \"#utility.yul\":20590:20618   */\n      swap2\n      pop\n        /* \"#utility.yul\":20647:20650   */\n      dup2\n        /* \"#utility.yul\":20641:20651   */\n      mload\n        /* \"#utility.yul\":20674:20676   */\n      dup2\n        /* \"#utility.yul\":20666:20672   */\n      dup2\n        /* \"#utility.yul\":20663:20677   */\n      gt\n        /* \"#utility.yul\":20660:20687   */\n      iszero\n      tag_533\n      jumpi\n        /* \"#utility.yul\":20680:20685   */\n      pop\n      pop\n      pop\n      pop\n      pop\n      pop\n        /* \"#utility.yul\":20138:20869   */\n      swap1\n      jump\t// out\n        /* \"#utility.yul\":20660:20687   */\n    tag_533:\n        /* \"#utility.yul\":20764:20766   */\n      dup5\n        /* \"#utility.yul\":20745:20761   */\n      returndatasize\n        /* \"#utility.yul\":20739:20743   */\n      dup8\n        /* \"#utility.yul\":20735:20762   */\n      add\n        /* \"#utility.yul\":20731:20767   */\n      add\n        /* \"#utility.yul\":20724:20728   */\n      0x20\n        /* \"#utility.yul\":20715:20721   */\n      dup3\n        /* \"#utility.yul\":20710:20713   */\n      dup6\n        /* \"#utility.yul\":20706:20722   */\n      add\n        /* \"#utility.yul\":20702:20729   */\n      add\n        /* \"#utility.yul\":20699:20768   */\n      gt\n        /* \"#utility.yul\":20696:20778   */\n      iszero\n      tag_534\n      jumpi\n        /* \"#utility.yul\":20771:20776   */\n      pop\n      pop\n      pop\n      pop\n      pop\n      pop\n        /* \"#utility.yul\":20138:20869   */\n      swap1\n      jump\t// out\n        /* \"#utility.yul\":20696:20778   */\n    tag_534:\n        /* \"#utility.yul\":20787:20844   */\n      tag_535\n        /* \"#utility.yul\":20838:20842   */\n      0x20\n        /* \"#utility.yul\":20829:20835   */\n      dup3\n        /* \"#utility.yul\":20821:20827   */\n      dup7\n        /* \"#utility.yul\":20817:20836   */\n      add\n        /* \"#utility.yul\":20813:20843   */\n      add\n        /* \"#utility.yul\":20807:20811   */\n      dup8\n        /* \"#utility.yul\":20787:20844   */\n      tag_364\n      jump\t// in\n    tag_535:\n      pop\n        /* \"#utility.yul\":20860:20863   */\n      swap1\n      swap6\n        /* \"#utility.yul\":20138:20869   */\n      swap5\n      pop\n      pop\n      pop\n      pop\n      pop\n      jump\t// out\n        /* \"#utility.yul\":21704:22299   */\n    tag_334:\n        /* \"#utility.yul\":21926:21930   */\n      0x00\n        /* \"#utility.yul\":21955:21997   */\n      0xffffffffffffffffffffffffffffffffffffffff\n        /* \"#utility.yul\":22036:22038   */\n      dup1\n        /* \"#utility.yul\":22028:22034   */\n      dup9\n        /* \"#utility.yul\":22024:22039   */\n      and\n        /* \"#utility.yul\":22013:22022   */\n      dup4\n        /* \"#utility.yul\":22006:22040   */\n      mstore\n        /* \"#utility.yul\":22088:22090   */\n      dup1\n        /* \"#utility.yul\":22080:22086   */\n      dup8\n        /* \"#utility.yul\":22076:22091   */\n      and\n        /* \"#utility.yul\":22071:22073   */\n      0x20\n        /* \"#utility.yul\":22060:22069   */\n      dup5\n        /* \"#utility.yul\":22056:22074   */\n      add\n        /* \"#utility.yul\":22049:22092   */\n      mstore\n      pop\n        /* \"#utility.yul\":22128:22134   */\n      dup5\n        /* \"#utility.yul\":22123:22125   */\n      0x40\n        /* \"#utility.yul\":22112:22121   */\n      dup4\n        /* \"#utility.yul\":22108:22126   */\n      add\n        /* \"#utility.yul\":22101:22135   */\n      mstore\n        /* \"#utility.yul\":22171:22177   */\n      dup4\n        /* \"#utility.yul\":22166:22168   */\n      0x60\n        /* \"#utility.yul\":22155:22164   */\n      dup4\n        /* \"#utility.yul\":22151:22169   */\n      add\n        /* \"#utility.yul\":22144:22178   */\n      mstore\n        /* \"#utility.yul\":22215:22218   */\n      0xa0\n        /* \"#utility.yul\":22209:22212   */\n      0x80\n        /* \"#utility.yul\":22198:22207   */\n      dup4\n        /* \"#utility.yul\":22194:22213   */\n      add\n        /* \"#utility.yul\":22187:22219   */\n      mstore\n        /* \"#utility.yul\":22236:22293   */\n      tag_539\n        /* \"#utility.yul\":22288:22291   */\n      0xa0\n        /* \"#utility.yul\":22277:22286   */\n      dup4\n        /* \"#utility.yul\":22273:22292   */\n      add\n        /* \"#utility.yul\":22265:22271   */\n      dup5\n        /* \"#utility.yul\":22236:22293   */\n      tag_363\n      jump\t// in\n    tag_539:\n        /* \"#utility.yul\":22228:22293   */\n      swap8\n        /* \"#utility.yul\":21704:22299   */\n      swap7\n      pop\n      pop\n      pop\n      pop\n      pop\n      pop\n      pop\n      jump\t// out\n\n    auxdata: 0xa2646970667358221220a1b9537867b984f63e09898a2139eebbca3ac6857189b4611d46f1c8a6c2a8c364736f6c634300080e0033\n}\n",
				"bytecode": {
					"linkReferences": {},
					"object": "60a06040819052600060808190526200001b9160049162000099565b503480156200002957600080fd5b50604051620029e5380380620029e58339810160408190526200004c9162000172565b81620000588162000080565b50600780546001600160a01b0319166001600160a01b0392909216919091179055506200029f565b80516200009590600290602084019062000099565b5050565b828054620000a79062000263565b90600052602060002090601f016020900481019282620000cb576000855562000116565b82601f10620000e657805160ff191683800117855562000116565b8280016001018555821562000116579182015b8281111562000116578251825591602001919060010190620000f9565b506200012492915062000128565b5090565b5b8082111562000124576000815560010162000129565b634e487b7160e01b600052604160045260246000fd5b80516001600160a01b03811681146200016d57600080fd5b919050565b600080604083850312156200018657600080fd5b82516001600160401b03808211156200019e57600080fd5b818501915085601f830112620001b357600080fd5b815181811115620001c857620001c86200013f565b604051601f8201601f19908116603f01168101908382118183101715620001f357620001f36200013f565b816040528281526020935088848487010111156200021057600080fd5b600091505b8282101562000234578482018401518183018501529083019062000215565b82821115620002465760008484830101525b95506200025891505085820162000155565b925050509250929050565b600181811c908216806200027857607f821691505b6020821081036200029957634e487b7160e01b600052602260045260246000fd5b50919050565b61273680620002af6000396000f3fe608060405234801561001057600080fd5b506004361061011a5760003560e01c80636c0360eb116100b2578063bd85b03911610081578063d14186c611610066578063d14186c6146102ab578063e985e9c5146102be578063f242432a1461030757600080fd5b8063bd85b03914610278578063cb4507721461029857600080fd5b80636c0360eb146102375780636c8b703f1461023f578063a22cb46514610252578063bb7fde711461026557600080fd5b80634b8c9c2d116100ee5780634b8c9c2d1461019d5780634e1273f4146101e25780634f558e791461020257806355f804b31461022457600080fd5b8062fdd58e1461011f57806301ffc9a7146101455780630e89341c146101685780632eb2c2d614610188575b600080fd5b61013261012d366004611c8a565b61031a565b6040519081526020015b60405180910390f35b610158610153366004611ce5565b6103f7565b604051901515815260200161013c565b61017b610176366004611d02565b6104dc565b60405161013c9190611d95565b61019b610196366004611f49565b610533565b005b6007546101bd9073ffffffffffffffffffffffffffffffffffffffff1681565b60405173ffffffffffffffffffffffffffffffffffffffff909116815260200161013c565b6101f56101f0366004611ff3565b6105fc565b60405161013c91906120f9565b610158610210366004611d02565b600090815260036020526040902054151590565b61019b610232366004612155565b610754565b61017b610818565b61017b61024d366004611d02565b6108aa565b61019b610260366004612197565b61094c565b61019b6102733660046121d3565b610957565b610132610286366004611d02565b60009081526003602052604090205490565b61019b6102a636600461223b565b610a41565b61019b6102b9366004612197565b610bdb565b6101586102cc366004612256565b73ffffffffffffffffffffffffffffffffffffffff918216600090815260016020908152604080832093909416825291909152205460ff1690565b61019b610315366004612289565b610d3e565b600073ffffffffffffffffffffffffffffffffffffffff83166103c4576040517f08c379a000000000000000000000000000000000000000000000000000000000815260206004820152602b60248201527f455243313135353a2062616c616e636520717565727920666f7220746865207a60448201527f65726f206164647265737300000000000000000000000000000000000000000060648201526084015b60405180910390fd5b5060009081526020818152604080832073ffffffffffffffffffffffffffffffffffffffff949094168352929052205490565b60007fffffffff0000000000000000000000000000000000000000000000000000000082167fd9b67a2600000000000000000000000000000000000000000000000000000000148061048a57507fffffffff0000000000000000000000000000000000000000000000000000000082167f0e89341c00000000000000000000000000000000000000000000000000000000145b806104d657507f01ffc9a7000000000000000000000000000000000000000000000000000000007fffffffff000000000000000000000000000000000000000000000000000000008316145b92915050565b606060006104e9836108aa565b90506000815111610502576104fd83610e00565b61052c565b61050a610818565b8160405160200161051c92919061230a565b6040516020818303038152906040525b9392505050565b73ffffffffffffffffffffffffffffffffffffffff851633148061055c575061055c85336102cc565b6105e8576040517f08c379a000000000000000000000000000000000000000000000000000000000815260206004820152603260248201527f455243313135353a207472616e736665722063616c6c6572206973206e6f742060448201527f6f776e6572206e6f7220617070726f766564000000000000000000000000000060648201526084016103bb565b6105f58585858585610ec4565b5050505050565b6060815183511461068f576040517f08c379a000000000000000000000000000000000000000000000000000000000815260206004820152602960248201527f455243313135353a206163636f756e747320616e6420696473206c656e67746860448201527f206d69736d61746368000000000000000000000000000000000000000000000060648201526084016103bb565b6000835167ffffffffffffffff8111156106ab576106ab611da8565b6040519080825280602002602001820160405280156106d4578160200160208202803683370190505b50905060005b845181101561074c5761071f8582815181106106f8576106f8612361565b602002602001015185838151811061071257610712612361565b602002602001015161031a565b82828151811061073157610731612361565b6020908102919091010152610745816123bf565b90506106da565b509392505050565b60075473ffffffffffffffffffffffffffffffffffffffff1633146107d5576040517f08c379a000000000000000000000000000000000000000000000000000000000815260206004820152601860248201527f596f7520617265206e6f742077686974656c69737465642e000000000000000060448201526064016103bb565b61081482828080601f0160208091040260200160405190810160405280939291908181526020018383808284376000920191909152506111fe92505050565b5050565b606060048054610827906123f7565b80601f0160208091040260200160405190810160405280929190818152602001828054610853906123f7565b80156108a05780601f10610875576101008083540402835291602001916108a0565b820191906000526020600020905b81548152906001019060200180831161088357829003601f168201915b5050505050905090565b60008181526005602052604090208054606091906108c7906123f7565b80601f01602080910402602001604051908101604052809291908181526020018280546108f3906123f7565b80156109405780601f1061091557610100808354040283529160200191610940565b820191906000526020600020905b81548152906001019060200180831161092357829003601f168201915b50505050509050919050565b610814338383611211565b3360009081526006602052604090205460ff166109d0576040517f08c379a000000000000000000000000000000000000000000000000000000000815260206004820152601860248201527f596f7520617265206e6f742077686974656c69737465642e000000000000000060448201526064016103bb565b600084815260036020526040902054600003610a2657610a268483838080601f01602080910402602001604051908101604052809392919081815260200183838082843760009201919091525061136492505050565b6105f585858560405180602001604052806000815250611388565b60075473ffffffffffffffffffffffffffffffffffffffff163314610ac2576040517f08c379a000000000000000000000000000000000000000000000000000000000815260206004820152601860248201527f596f7520617265206e6f742077686974656c69737465642e000000000000000060448201526064016103bb565b60075473ffffffffffffffffffffffffffffffffffffffff808316911603610b6c576040517f08c379a000000000000000000000000000000000000000000000000000000000815260206004820152602560248201527f50726f7669646564206164647265737320616c7265616479207361666520616460448201527f647265737300000000000000000000000000000000000000000000000000000060648201526084016103bb565b600780547fffffffffffffffffffffffff00000000000000000000000000000000000000001673ffffffffffffffffffffffffffffffffffffffff83169081179091556040517fd4c1af98b758421a8d47b0bc04ecfa30233d5506955e8cde282417aa0d31d3b690600090a250565b60075473ffffffffffffffffffffffffffffffffffffffff163314610c5c576040517f08c379a000000000000000000000000000000000000000000000000000000000815260206004820152601860248201527f596f7520617265206e6f742077686974656c69737465642e000000000000000060448201526064016103bb565b73ffffffffffffffffffffffffffffffffffffffff8216600090815260066020526040902080547fffffffffffffffffffffffffffffffffffffffffffffffffffffffffffffff00168215801591909117909155610cf95760405173ffffffffffffffffffffffffffffffffffffffff8316907f526af00f9bc92d53f2d0b4c603a1305395a04f7fb6a0a7962867d8d23046754790600090a25050565b60405173ffffffffffffffffffffffffffffffffffffffff8316907fe8185c1a3f6241a6224d99ff39e932ac24fc0d2c51b17e56c5d6f52aff1b5da190600090a25050565b73ffffffffffffffffffffffffffffffffffffffff8516331480610d675750610d6785336102cc565b610df3576040517f08c379a000000000000000000000000000000000000000000000000000000000815260206004820152602960248201527f455243313135353a2063616c6c6572206973206e6f74206f776e6572206e6f7260448201527f20617070726f766564000000000000000000000000000000000000000000000060648201526084016103bb565b6105f585858585856114f9565b600081815260056020526040812080546060929190610e1e906123f7565b80601f0160208091040260200160405190810160405280929190818152602001828054610e4a906123f7565b8015610e975780601f10610e6c57610100808354040283529160200191610e97565b820191906000526020600020905b815481529060010190602001808311610e7a57829003601f168201915b505050505090506000815111610eb0576104fd83611737565b60048160405160200161051c92919061244a565b8151835114610f55576040517f08c379a000000000000000000000000000000000000000000000000000000000815260206004820152602860248201527f455243313135353a2069647320616e6420616d6f756e7473206c656e6774682060448201527f6d69736d6174636800000000000000000000000000000000000000000000000060648201526084016103bb565b73ffffffffffffffffffffffffffffffffffffffff8416610ff8576040517f08c379a000000000000000000000000000000000000000000000000000000000815260206004820152602560248201527f455243313135353a207472616e7366657220746f20746865207a65726f20616460448201527f647265737300000000000000000000000000000000000000000000000000000060648201526084016103bb565b3360005b845181101561116957600085828151811061101957611019612361565b60200260200101519050600085838151811061103757611037612361565b6020908102919091018101516000848152808352604080822073ffffffffffffffffffffffffffffffffffffffff8e168352909352919091205490915081811015611104576040517f08c379a000000000000000000000000000000000000000000000000000000000815260206004820152602a60248201527f455243313135353a20696e73756666696369656e742062616c616e636520666f60448201527f72207472616e736665720000000000000000000000000000000000000000000060648201526084016103bb565b60008381526020818152604080832073ffffffffffffffffffffffffffffffffffffffff8e8116855292528083208585039055908b1682528120805484929061114e908490612527565b9250508190555050505080611162906123bf565b9050610ffc565b508473ffffffffffffffffffffffffffffffffffffffff168673ffffffffffffffffffffffffffffffffffffffff168273ffffffffffffffffffffffffffffffffffffffff167f4a39dc06d4c0dbc64b70af90fd698a233a518aa5d07e595d983b8c0526c8f7fb87876040516111e092919061253f565b60405180910390a46111f6818787878787611746565b505050505050565b8051610814906004906020840190611bc8565b8173ffffffffffffffffffffffffffffffffffffffff168373ffffffffffffffffffffffffffffffffffffffff16036112cc576040517f08c379a000000000000000000000000000000000000000000000000000000000815260206004820152602960248201527f455243313135353a2073657474696e6720617070726f76616c2073746174757360448201527f20666f722073656c66000000000000000000000000000000000000000000000060648201526084016103bb565b73ffffffffffffffffffffffffffffffffffffffff83811660008181526001602090815260408083209487168084529482529182902080547fffffffffffffffffffffffffffffffffffffffffffffffffffffffffffffff001686151590811790915591519182527f17307eab39ab6107e8899845ad3d59bd9653f200f220920489ca2b5937696c31910160405180910390a3505050565b6000828152600560209081526040909120825161138392840190611bc8565b505050565b73ffffffffffffffffffffffffffffffffffffffff841661142b576040517f08c379a000000000000000000000000000000000000000000000000000000000815260206004820152602160248201527f455243313135353a206d696e7420746f20746865207a65726f2061646472657360448201527f730000000000000000000000000000000000000000000000000000000000000060648201526084016103bb565b336000611437856119d0565b90506000611444856119d0565b905060008681526020818152604080832073ffffffffffffffffffffffffffffffffffffffff8b16845290915281208054879290611483908490612527565b9091555050604080518781526020810187905273ffffffffffffffffffffffffffffffffffffffff808a1692600092918716917fc3d58168c5ae7397731d063d5bbf3d657854427343f4c083240f7aacaa2d0f62910160405180910390a46114f083600089898989611a1b565b50505050505050565b73ffffffffffffffffffffffffffffffffffffffff841661159c576040517f08c379a000000000000000000000000000000000000000000000000000000000815260206004820152602560248201527f455243313135353a207472616e7366657220746f20746865207a65726f20616460448201527f647265737300000000000000000000000000000000000000000000000000000060648201526084016103bb565b3360006115a8856119d0565b905060006115b5856119d0565b905060008681526020818152604080832073ffffffffffffffffffffffffffffffffffffffff8c16845290915290205485811015611675576040517f08c379a000000000000000000000000000000000000000000000000000000000815260206004820152602a60248201527f455243313135353a20696e73756666696369656e742062616c616e636520666f60448201527f72207472616e736665720000000000000000000000000000000000000000000060648201526084016103bb565b60008781526020818152604080832073ffffffffffffffffffffffffffffffffffffffff8d8116855292528083208985039055908a168252812080548892906116bf908490612527565b9091555050604080518881526020810188905273ffffffffffffffffffffffffffffffffffffffff808b16928c821692918816917fc3d58168c5ae7397731d063d5bbf3d657854427343f4c083240f7aacaa2d0f62910160405180910390a461172c848a8a8a8a8a611a1b565b505050505050505050565b6060600280546108c7906123f7565b73ffffffffffffffffffffffffffffffffffffffff84163b156111f6576040517fbc197c8100000000000000000000000000000000000000000000000000000000815273ffffffffffffffffffffffffffffffffffffffff85169063bc197c81906117bd9089908990889088908890600401612564565b6020604051808303816000875af1925050508015611816575060408051601f3d9081017fffffffffffffffffffffffffffffffffffffffffffffffffffffffffffffffe0168201909252611813918101906125cf565b60015b6118ff576118226125ec565b806308c379a0036118755750611836612608565b806118415750611877565b806040517f08c379a00000000000000000000000000000000000000000000000000000000081526004016103bb9190611d95565b505b6040517f08c379a000000000000000000000000000000000000000000000000000000000815260206004820152603460248201527f455243313135353a207472616e7366657220746f206e6f6e204552433131353560448201527f526563656976657220696d706c656d656e74657200000000000000000000000060648201526084016103bb565b7fffffffff0000000000000000000000000000000000000000000000000000000081167fbc197c8100000000000000000000000000000000000000000000000000000000146114f0576040517f08c379a000000000000000000000000000000000000000000000000000000000815260206004820152602860248201527f455243313135353a204552433131353552656365697665722072656a6563746560448201527f6420746f6b656e7300000000000000000000000000000000000000000000000060648201526084016103bb565b60408051600180825281830190925260609160009190602080830190803683370190505090508281600081518110611a0a57611a0a612361565b602090810291909101015292915050565b73ffffffffffffffffffffffffffffffffffffffff84163b156111f6576040517ff23a6e6100000000000000000000000000000000000000000000000000000000815273ffffffffffffffffffffffffffffffffffffffff85169063f23a6e6190611a9290899089908890889088906004016126b0565b6020604051808303816000875af1925050508015611aeb575060408051601f3d9081017fffffffffffffffffffffffffffffffffffffffffffffffffffffffffffffffe0168201909252611ae8918101906125cf565b60015b611af7576118226125ec565b7fffffffff0000000000000000000000000000000000000000000000000000000081167ff23a6e6100000000000000000000000000000000000000000000000000000000146114f0576040517f08c379a000000000000000000000000000000000000000000000000000000000815260206004820152602860248201527f455243313135353a204552433131353552656365697665722072656a6563746560448201527f6420746f6b656e7300000000000000000000000000000000000000000000000060648201526084016103bb565b828054611bd4906123f7565b90600052602060002090601f016020900481019282611bf65760008555611c3c565b82601f10611c0f57805160ff1916838001178555611c3c565b82800160010185558215611c3c579182015b82811115611c3c578251825591602001919060010190611c21565b50611c48929150611c4c565b5090565b5b80821115611c485760008155600101611c4d565b803573ffffffffffffffffffffffffffffffffffffffff81168114611c8557600080fd5b919050565b60008060408385031215611c9d57600080fd5b611ca683611c61565b946020939093013593505050565b7fffffffff0000000000000000000000000000000000000000000000000000000081168114611ce257600080fd5b50565b600060208284031215611cf757600080fd5b813561052c81611cb4565b600060208284031215611d1457600080fd5b5035919050565b60005b83811015611d36578181015183820152602001611d1e565b83811115611d45576000848401525b50505050565b60008151808452611d63816020860160208601611d1b565b601f017fffffffffffffffffffffffffffffffffffffffffffffffffffffffffffffffe0169290920160200192915050565b60208152600061052c6020830184611d4b565b7f4e487b7100000000000000000000000000000000000000000000000000000000600052604160045260246000fd5b7fffffffffffffffffffffffffffffffffffffffffffffffffffffffffffffffe0601f830116810181811067ffffffffffffffff82111715611e1b57611e1b611da8565b6040525050565b600067ffffffffffffffff821115611e3c57611e3c611da8565b5060051b60200190565b600082601f830112611e5757600080fd5b81356020611e6482611e22565b604051611e718282611dd7565b83815260059390931b8501820192828101915086841115611e9157600080fd5b8286015b84811015611eac5780358352918301918301611e95565b509695505050505050565b600082601f830112611ec857600080fd5b813567ffffffffffffffff811115611ee257611ee2611da8565b604051611f1760207fffffffffffffffffffffffffffffffffffffffffffffffffffffffffffffffe0601f8501160182611dd7565b818152846020838601011115611f2c57600080fd5b816020850160208301376000918101602001919091529392505050565b600080600080600060a08688031215611f6157600080fd5b611f6a86611c61565b9450611f7860208701611c61565b9350604086013567ffffffffffffffff80821115611f9557600080fd5b611fa189838a01611e46565b94506060880135915080821115611fb757600080fd5b611fc389838a01611e46565b93506080880135915080821115611fd957600080fd5b50611fe688828901611eb7565b9150509295509295909350565b6000806040838503121561200657600080fd5b823567ffffffffffffffff8082111561201e57600080fd5b818501915085601f83011261203257600080fd5b8135602061203f82611e22565b60405161204c8282611dd7565b83815260059390931b850182019282810191508984111561206c57600080fd5b948201945b838610156120915761208286611c61565b82529482019490820190612071565b965050860135925050808211156120a757600080fd5b506120b485828601611e46565b9150509250929050565b600081518084526020808501945080840160005b838110156120ee578151875295820195908201906001016120d2565b509495945050505050565b60208152600061052c60208301846120be565b60008083601f84011261211e57600080fd5b50813567ffffffffffffffff81111561213657600080fd5b60208301915083602082850101111561214e57600080fd5b9250929050565b6000806020838503121561216857600080fd5b823567ffffffffffffffff81111561217f57600080fd5b61218b8582860161210c565b90969095509350505050565b600080604083850312156121aa57600080fd5b6121b383611c61565b9150602083013580151581146121c857600080fd5b809150509250929050565b6000806000806000608086880312156121eb57600080fd5b6121f486611c61565b94506020860135935060408601359250606086013567ffffffffffffffff81111561221e57600080fd5b61222a8882890161210c565b969995985093965092949392505050565b60006020828403121561224d57600080fd5b61052c82611c61565b6000806040838503121561226957600080fd5b61227283611c61565b915061228060208401611c61565b90509250929050565b600080600080600060a086880312156122a157600080fd5b6122aa86611c61565b94506122b860208701611c61565b93506040860135925060608601359150608086013567ffffffffffffffff8111156122e257600080fd5b611fe688828901611eb7565b60008151612300818560208601611d1b565b9290920192915050565b6000835161231c818460208801611d1b565b835190830190612330818360208801611d1b565b7f2f6d657461646174612e6a736f6e0000000000000000000000000000000000009101908152600e01949350505050565b7f4e487b7100000000000000000000000000000000000000000000000000000000600052603260045260246000fd5b7f4e487b7100000000000000000000000000000000000000000000000000000000600052601160045260246000fd5b60007fffffffffffffffffffffffffffffffffffffffffffffffffffffffffffffffff82036123f0576123f0612390565b5060010190565b600181811c9082168061240b57607f821691505b602082108103612444577f4e487b7100000000000000000000000000000000000000000000000000000000600052602260045260246000fd5b50919050565b600080845481600182811c91508083168061246657607f831692505b6020808410820361249e577f4e487b710000000000000000000000000000000000000000000000000000000086526022600452602486fd5b8180156124b257600181146124e15761250e565b7fffffffffffffffffffffffffffffffffffffffffffffffffffffffffffffff0086168952848901965061250e565b60008b81526020902060005b868110156125065781548b8201529085019083016124ed565b505084890196505b50505050505061251e81856122ee565b95945050505050565b6000821982111561253a5761253a612390565b500190565b60408152600061255260408301856120be565b828103602084015261251e81856120be565b600073ffffffffffffffffffffffffffffffffffffffff808816835280871660208401525060a0604083015261259d60a08301866120be565b82810360608401526125af81866120be565b905082810360808401526125c38185611d4b565b98975050505050505050565b6000602082840312156125e157600080fd5b815161052c81611cb4565b600060033d11156126055760046000803e5060005160e01c5b90565b600060443d10156126165790565b6040517ffffffffffffffffffffffffffffffffffffffffffffffffffffffffffffffffc803d016004833e81513d67ffffffffffffffff816024840111818411171561266457505050505090565b828501915081518181111561267c5750505050505090565b843d87010160208285010111156126965750505050505090565b6126a560208286010187611dd7565b509095945050505050565b600073ffffffffffffffffffffffffffffffffffffffff808816835280871660208401525084604083015283606083015260a060808301526126f560a0830184611d4b565b97965050505050505056fea2646970667358221220a1b9537867b984f63e09898a2139eebbca3ac6857189b4611d46f1c8a6c2a8c364736f6c634300080e0033",
					"opcodes": "PUSH1 0xA0 PUSH1 0x40 DUP2 SWAP1 MSTORE PUSH1 0x0 PUSH1 0x80 DUP2 SWAP1 MSTORE PUSH3 0x1B SWAP2 PUSH1 0x4 SWAP2 PUSH3 0x99 JUMP JUMPDEST POP CALLVALUE DUP1 ISZERO PUSH3 0x29 JUMPI PUSH1 0x0 DUP1 REVERT JUMPDEST POP PUSH1 0x40 MLOAD PUSH3 0x29E5 CODESIZE SUB DUP1 PUSH3 0x29E5 DUP4 CODECOPY DUP2 ADD PUSH1 0x40 DUP2 SWAP1 MSTORE PUSH3 0x4C SWAP2 PUSH3 0x172 JUMP JUMPDEST DUP2 PUSH3 0x58 DUP2 PUSH3 0x80 JUMP JUMPDEST POP PUSH1 0x7 DUP1 SLOAD PUSH1 0x1 PUSH1 0x1 PUSH1 0xA0 SHL SUB NOT AND PUSH1 0x1 PUSH1 0x1 PUSH1 0xA0 SHL SUB SWAP3 SWAP1 SWAP3 AND SWAP2 SWAP1 SWAP2 OR SWAP1 SSTORE POP PUSH3 0x29F JUMP JUMPDEST DUP1 MLOAD PUSH3 0x95 SWAP1 PUSH1 0x2 SWAP1 PUSH1 0x20 DUP5 ADD SWAP1 PUSH3 0x99 JUMP JUMPDEST POP POP JUMP JUMPDEST DUP3 DUP1 SLOAD PUSH3 0xA7 SWAP1 PUSH3 0x263 JUMP JUMPDEST SWAP1 PUSH1 0x0 MSTORE PUSH1 0x20 PUSH1 0x0 KECCAK256 SWAP1 PUSH1 0x1F ADD PUSH1 0x20 SWAP1 DIV DUP2 ADD SWAP3 DUP3 PUSH3 0xCB JUMPI PUSH1 0x0 DUP6 SSTORE PUSH3 0x116 JUMP JUMPDEST DUP3 PUSH1 0x1F LT PUSH3 0xE6 JUMPI DUP1 MLOAD PUSH1 0xFF NOT AND DUP4 DUP1 ADD OR DUP6 SSTORE PUSH3 0x116 JUMP JUMPDEST DUP3 DUP1 ADD PUSH1 0x1 ADD DUP6 SSTORE DUP3 ISZERO PUSH3 0x116 JUMPI SWAP2 DUP3 ADD JUMPDEST DUP3 DUP2 GT ISZERO PUSH3 0x116 JUMPI DUP3 MLOAD DUP3 SSTORE SWAP2 PUSH1 0x20 ADD SWAP2 SWAP1 PUSH1 0x1 ADD SWAP1 PUSH3 0xF9 JUMP JUMPDEST POP PUSH3 0x124 SWAP3 SWAP2 POP PUSH3 0x128 JUMP JUMPDEST POP SWAP1 JUMP JUMPDEST JUMPDEST DUP1 DUP3 GT ISZERO PUSH3 0x124 JUMPI PUSH1 0x0 DUP2 SSTORE PUSH1 0x1 ADD PUSH3 0x129 JUMP JUMPDEST PUSH4 0x4E487B71 PUSH1 0xE0 SHL PUSH1 0x0 MSTORE PUSH1 0x41 PUSH1 0x4 MSTORE PUSH1 0x24 PUSH1 0x0 REVERT JUMPDEST DUP1 MLOAD PUSH1 0x1 PUSH1 0x1 PUSH1 0xA0 SHL SUB DUP2 AND DUP2 EQ PUSH3 0x16D JUMPI PUSH1 0x0 DUP1 REVERT JUMPDEST SWAP2 SWAP1 POP JUMP JUMPDEST PUSH1 0x0 DUP1 PUSH1 0x40 DUP4 DUP6 SUB SLT ISZERO PUSH3 0x186 JUMPI PUSH1 0x0 DUP1 REVERT JUMPDEST DUP3 MLOAD PUSH1 0x1 PUSH1 0x1 PUSH1 0x40 SHL SUB DUP1 DUP3 GT ISZERO PUSH3 0x19E JUMPI PUSH1 0x0 DUP1 REVERT JUMPDEST DUP2 DUP6 ADD SWAP2 POP DUP6 PUSH1 0x1F DUP4 ADD SLT PUSH3 0x1B3 JUMPI PUSH1 0x0 DUP1 REVERT JUMPDEST DUP2 MLOAD DUP2 DUP2 GT ISZERO PUSH3 0x1C8 JUMPI PUSH3 0x1C8 PUSH3 0x13F JUMP JUMPDEST PUSH1 0x40 MLOAD PUSH1 0x1F DUP3 ADD PUSH1 0x1F NOT SWAP1 DUP2 AND PUSH1 0x3F ADD AND DUP2 ADD SWAP1 DUP4 DUP3 GT DUP2 DUP4 LT OR ISZERO PUSH3 0x1F3 JUMPI PUSH3 0x1F3 PUSH3 0x13F JUMP JUMPDEST DUP2 PUSH1 0x40 MSTORE DUP3 DUP2 MSTORE PUSH1 0x20 SWAP4 POP DUP9 DUP5 DUP5 DUP8 ADD ADD GT ISZERO PUSH3 0x210 JUMPI PUSH1 0x0 DUP1 REVERT JUMPDEST PUSH1 0x0 SWAP2 POP JUMPDEST DUP3 DUP3 LT ISZERO PUSH3 0x234 JUMPI DUP5 DUP3 ADD DUP5 ADD MLOAD DUP2 DUP4 ADD DUP6 ADD MSTORE SWAP1 DUP4 ADD SWAP1 PUSH3 0x215 JUMP JUMPDEST DUP3 DUP3 GT ISZERO PUSH3 0x246 JUMPI PUSH1 0x0 DUP5 DUP5 DUP4 ADD ADD MSTORE JUMPDEST SWAP6 POP PUSH3 0x258 SWAP2 POP POP DUP6 DUP3 ADD PUSH3 0x155 JUMP JUMPDEST SWAP3 POP POP POP SWAP3 POP SWAP3 SWAP1 POP JUMP JUMPDEST PUSH1 0x1 DUP2 DUP2 SHR SWAP1 DUP3 AND DUP1 PUSH3 0x278 JUMPI PUSH1 0x7F DUP3 AND SWAP2 POP JUMPDEST PUSH1 0x20 DUP3 LT DUP2 SUB PUSH3 0x299 JUMPI PUSH4 0x4E487B71 PUSH1 0xE0 SHL PUSH1 0x0 MSTORE PUSH1 0x22 PUSH1 0x4 MSTORE PUSH1 0x24 PUSH1 0x0 REVERT JUMPDEST POP SWAP2 SWAP1 POP JUMP JUMPDEST PUSH2 0x2736 DUP1 PUSH3 0x2AF PUSH1 0x0 CODECOPY PUSH1 0x0 RETURN INVALID PUSH1 0x80 PUSH1 0x40 MSTORE CALLVALUE DUP1 ISZERO PUSH2 0x10 JUMPI PUSH1 0x0 DUP1 REVERT JUMPDEST POP PUSH1 0x4 CALLDATASIZE LT PUSH2 0x11A JUMPI PUSH1 0x0 CALLDATALOAD PUSH1 0xE0 SHR DUP1 PUSH4 0x6C0360EB GT PUSH2 0xB2 JUMPI DUP1 PUSH4 0xBD85B039 GT PUSH2 0x81 JUMPI DUP1 PUSH4 0xD14186C6 GT PUSH2 0x66 JUMPI DUP1 PUSH4 0xD14186C6 EQ PUSH2 0x2AB JUMPI DUP1 PUSH4 0xE985E9C5 EQ PUSH2 0x2BE JUMPI DUP1 PUSH4 0xF242432A EQ PUSH2 0x307 JUMPI PUSH1 0x0 DUP1 REVERT JUMPDEST DUP1 PUSH4 0xBD85B039 EQ PUSH2 0x278 JUMPI DUP1 PUSH4 0xCB450772 EQ PUSH2 0x298 JUMPI PUSH1 0x0 DUP1 REVERT JUMPDEST DUP1 PUSH4 0x6C0360EB EQ PUSH2 0x237 JUMPI DUP1 PUSH4 0x6C8B703F EQ PUSH2 0x23F JUMPI DUP1 PUSH4 0xA22CB465 EQ PUSH2 0x252 JUMPI DUP1 PUSH4 0xBB7FDE71 EQ PUSH2 0x265 JUMPI PUSH1 0x0 DUP1 REVERT JUMPDEST DUP1 PUSH4 0x4B8C9C2D GT PUSH2 0xEE JUMPI DUP1 PUSH4 0x4B8C9C2D EQ PUSH2 0x19D JUMPI DUP1 PUSH4 0x4E1273F4 EQ PUSH2 0x1E2 JUMPI DUP1 PUSH4 0x4F558E79 EQ PUSH2 0x202 JUMPI DUP1 PUSH4 0x55F804B3 EQ PUSH2 0x224 JUMPI PUSH1 0x0 DUP1 REVERT JUMPDEST DUP1 PUSH3 0xFDD58E EQ PUSH2 0x11F JUMPI DUP1 PUSH4 0x1FFC9A7 EQ PUSH2 0x145 JUMPI DUP1 PUSH4 0xE89341C EQ PUSH2 0x168 JUMPI DUP1 PUSH4 0x2EB2C2D6 EQ PUSH2 0x188 JUMPI JUMPDEST PUSH1 0x0 DUP1 REVERT JUMPDEST PUSH2 0x132 PUSH2 0x12D CALLDATASIZE PUSH1 0x4 PUSH2 0x1C8A JUMP JUMPDEST PUSH2 0x31A JUMP JUMPDEST PUSH1 0x40 MLOAD SWAP1 DUP2 MSTORE PUSH1 0x20 ADD JUMPDEST PUSH1 0x40 MLOAD DUP1 SWAP2 SUB SWAP1 RETURN JUMPDEST PUSH2 0x158 PUSH2 0x153 CALLDATASIZE PUSH1 0x4 PUSH2 0x1CE5 JUMP JUMPDEST PUSH2 0x3F7 JUMP JUMPDEST PUSH1 0x40 MLOAD SWAP1 ISZERO ISZERO DUP2 MSTORE PUSH1 0x20 ADD PUSH2 0x13C JUMP JUMPDEST PUSH2 0x17B PUSH2 0x176 CALLDATASIZE PUSH1 0x4 PUSH2 0x1D02 JUMP JUMPDEST PUSH2 0x4DC JUMP JUMPDEST PUSH1 0x40 MLOAD PUSH2 0x13C SWAP2 SWAP1 PUSH2 0x1D95 JUMP JUMPDEST PUSH2 0x19B PUSH2 0x196 CALLDATASIZE PUSH1 0x4 PUSH2 0x1F49 JUMP JUMPDEST PUSH2 0x533 JUMP JUMPDEST STOP JUMPDEST PUSH1 0x7 SLOAD PUSH2 0x1BD SWAP1 PUSH20 0xFFFFFFFFFFFFFFFFFFFFFFFFFFFFFFFFFFFFFFFF AND DUP2 JUMP JUMPDEST PUSH1 0x40 MLOAD PUSH20 0xFFFFFFFFFFFFFFFFFFFFFFFFFFFFFFFFFFFFFFFF SWAP1 SWAP2 AND DUP2 MSTORE PUSH1 0x20 ADD PUSH2 0x13C JUMP JUMPDEST PUSH2 0x1F5 PUSH2 0x1F0 CALLDATASIZE PUSH1 0x4 PUSH2 0x1FF3 JUMP JUMPDEST PUSH2 0x5FC JUMP JUMPDEST PUSH1 0x40 MLOAD PUSH2 0x13C SWAP2 SWAP1 PUSH2 0x20F9 JUMP JUMPDEST PUSH2 0x158 PUSH2 0x210 CALLDATASIZE PUSH1 0x4 PUSH2 0x1D02 JUMP JUMPDEST PUSH1 0x0 SWAP1 DUP2 MSTORE PUSH1 0x3 PUSH1 0x20 MSTORE PUSH1 0x40 SWAP1 KECCAK256 SLOAD ISZERO ISZERO SWAP1 JUMP JUMPDEST PUSH2 0x19B PUSH2 0x232 CALLDATASIZE PUSH1 0x4 PUSH2 0x2155 JUMP JUMPDEST PUSH2 0x754 JUMP JUMPDEST PUSH2 0x17B PUSH2 0x818 JUMP JUMPDEST PUSH2 0x17B PUSH2 0x24D CALLDATASIZE PUSH1 0x4 PUSH2 0x1D02 JUMP JUMPDEST PUSH2 0x8AA JUMP JUMPDEST PUSH2 0x19B PUSH2 0x260 CALLDATASIZE PUSH1 0x4 PUSH2 0x2197 JUMP JUMPDEST PUSH2 0x94C JUMP JUMPDEST PUSH2 0x19B PUSH2 0x273 CALLDATASIZE PUSH1 0x4 PUSH2 0x21D3 JUMP JUMPDEST PUSH2 0x957 JUMP JUMPDEST PUSH2 0x132 PUSH2 0x286 CALLDATASIZE PUSH1 0x4 PUSH2 0x1D02 JUMP JUMPDEST PUSH1 0x0 SWAP1 DUP2 MSTORE PUSH1 0x3 PUSH1 0x20 MSTORE PUSH1 0x40 SWAP1 KECCAK256 SLOAD SWAP1 JUMP JUMPDEST PUSH2 0x19B PUSH2 0x2A6 CALLDATASIZE PUSH1 0x4 PUSH2 0x223B JUMP JUMPDEST PUSH2 0xA41 JUMP JUMPDEST PUSH2 0x19B PUSH2 0x2B9 CALLDATASIZE PUSH1 0x4 PUSH2 0x2197 JUMP JUMPDEST PUSH2 0xBDB JUMP JUMPDEST PUSH2 0x158 PUSH2 0x2CC CALLDATASIZE PUSH1 0x4 PUSH2 0x2256 JUMP JUMPDEST PUSH20 0xFFFFFFFFFFFFFFFFFFFFFFFFFFFFFFFFFFFFFFFF SWAP2 DUP3 AND PUSH1 0x0 SWAP1 DUP2 MSTORE PUSH1 0x1 PUSH1 0x20 SWAP1 DUP2 MSTORE PUSH1 0x40 DUP1 DUP4 KECCAK256 SWAP4 SWAP1 SWAP5 AND DUP3 MSTORE SWAP2 SWAP1 SWAP2 MSTORE KECCAK256 SLOAD PUSH1 0xFF AND SWAP1 JUMP JUMPDEST PUSH2 0x19B PUSH2 0x315 CALLDATASIZE PUSH1 0x4 PUSH2 0x2289 JUMP JUMPDEST PUSH2 0xD3E JUMP JUMPDEST PUSH1 0x0 PUSH20 0xFFFFFFFFFFFFFFFFFFFFFFFFFFFFFFFFFFFFFFFF DUP4 AND PUSH2 0x3C4 JUMPI PUSH1 0x40 MLOAD PUSH32 0x8C379A000000000000000000000000000000000000000000000000000000000 DUP2 MSTORE PUSH1 0x20 PUSH1 0x4 DUP3 ADD MSTORE PUSH1 0x2B PUSH1 0x24 DUP3 ADD MSTORE PUSH32 0x455243313135353A2062616C616E636520717565727920666F7220746865207A PUSH1 0x44 DUP3 ADD MSTORE PUSH32 0x65726F2061646472657373000000000000000000000000000000000000000000 PUSH1 0x64 DUP3 ADD MSTORE PUSH1 0x84 ADD JUMPDEST PUSH1 0x40 MLOAD DUP1 SWAP2 SUB SWAP1 REVERT JUMPDEST POP PUSH1 0x0 SWAP1 DUP2 MSTORE PUSH1 0x20 DUP2 DUP2 MSTORE PUSH1 0x40 DUP1 DUP4 KECCAK256 PUSH20 0xFFFFFFFFFFFFFFFFFFFFFFFFFFFFFFFFFFFFFFFF SWAP5 SWAP1 SWAP5 AND DUP4 MSTORE SWAP3 SWAP1 MSTORE KECCAK256 SLOAD SWAP1 JUMP JUMPDEST PUSH1 0x0 PUSH32 0xFFFFFFFF00000000000000000000000000000000000000000000000000000000 DUP3 AND PUSH32 0xD9B67A2600000000000000000000000000000000000000000000000000000000 EQ DUP1 PUSH2 0x48A JUMPI POP PUSH32 0xFFFFFFFF00000000000000000000000000000000000000000000000000000000 DUP3 AND PUSH32 0xE89341C00000000000000000000000000000000000000000000000000000000 EQ JUMPDEST DUP1 PUSH2 0x4D6 JUMPI POP PUSH32 0x1FFC9A700000000000000000000000000000000000000000000000000000000 PUSH32 0xFFFFFFFF00000000000000000000000000000000000000000000000000000000 DUP4 AND EQ JUMPDEST SWAP3 SWAP2 POP POP JUMP JUMPDEST PUSH1 0x60 PUSH1 0x0 PUSH2 0x4E9 DUP4 PUSH2 0x8AA JUMP JUMPDEST SWAP1 POP PUSH1 0x0 DUP2 MLOAD GT PUSH2 0x502 JUMPI PUSH2 0x4FD DUP4 PUSH2 0xE00 JUMP JUMPDEST PUSH2 0x52C JUMP JUMPDEST PUSH2 0x50A PUSH2 0x818 JUMP JUMPDEST DUP2 PUSH1 0x40 MLOAD PUSH1 0x20 ADD PUSH2 0x51C SWAP3 SWAP2 SWAP1 PUSH2 0x230A JUMP JUMPDEST PUSH1 0x40 MLOAD PUSH1 0x20 DUP2 DUP4 SUB SUB DUP2 MSTORE SWAP1 PUSH1 0x40 MSTORE JUMPDEST SWAP4 SWAP3 POP POP POP JUMP JUMPDEST PUSH20 0xFFFFFFFFFFFFFFFFFFFFFFFFFFFFFFFFFFFFFFFF DUP6 AND CALLER EQ DUP1 PUSH2 0x55C JUMPI POP PUSH2 0x55C DUP6 CALLER PUSH2 0x2CC JUMP JUMPDEST PUSH2 0x5E8 JUMPI PUSH1 0x40 MLOAD PUSH32 0x8C379A000000000000000000000000000000000000000000000000000000000 DUP2 MSTORE PUSH1 0x20 PUSH1 0x4 DUP3 ADD MSTORE PUSH1 0x32 PUSH1 0x24 DUP3 ADD MSTORE PUSH32 0x455243313135353A207472616E736665722063616C6C6572206973206E6F7420 PUSH1 0x44 DUP3 ADD MSTORE PUSH32 0x6F776E6572206E6F7220617070726F7665640000000000000000000000000000 PUSH1 0x64 DUP3 ADD MSTORE PUSH1 0x84 ADD PUSH2 0x3BB JUMP JUMPDEST PUSH2 0x5F5 DUP6 DUP6 DUP6 DUP6 DUP6 PUSH2 0xEC4 JUMP JUMPDEST POP POP POP POP POP JUMP JUMPDEST PUSH1 0x60 DUP2 MLOAD DUP4 MLOAD EQ PUSH2 0x68F JUMPI PUSH1 0x40 MLOAD PUSH32 0x8C379A000000000000000000000000000000000000000000000000000000000 DUP2 MSTORE PUSH1 0x20 PUSH1 0x4 DUP3 ADD MSTORE PUSH1 0x29 PUSH1 0x24 DUP3 ADD MSTORE PUSH32 0x455243313135353A206163636F756E747320616E6420696473206C656E677468 PUSH1 0x44 DUP3 ADD MSTORE PUSH32 0x206D69736D617463680000000000000000000000000000000000000000000000 PUSH1 0x64 DUP3 ADD MSTORE PUSH1 0x84 ADD PUSH2 0x3BB JUMP JUMPDEST PUSH1 0x0 DUP4 MLOAD PUSH8 0xFFFFFFFFFFFFFFFF DUP2 GT ISZERO PUSH2 0x6AB JUMPI PUSH2 0x6AB PUSH2 0x1DA8 JUMP JUMPDEST PUSH1 0x40 MLOAD SWAP1 DUP1 DUP3 MSTORE DUP1 PUSH1 0x20 MUL PUSH1 0x20 ADD DUP3 ADD PUSH1 0x40 MSTORE DUP1 ISZERO PUSH2 0x6D4 JUMPI DUP2 PUSH1 0x20 ADD PUSH1 0x20 DUP3 MUL DUP1 CALLDATASIZE DUP4 CALLDATACOPY ADD SWAP1 POP JUMPDEST POP SWAP1 POP PUSH1 0x0 JUMPDEST DUP5 MLOAD DUP2 LT ISZERO PUSH2 0x74C JUMPI PUSH2 0x71F DUP6 DUP3 DUP2 MLOAD DUP2 LT PUSH2 0x6F8 JUMPI PUSH2 0x6F8 PUSH2 0x2361 JUMP JUMPDEST PUSH1 0x20 MUL PUSH1 0x20 ADD ADD MLOAD DUP6 DUP4 DUP2 MLOAD DUP2 LT PUSH2 0x712 JUMPI PUSH2 0x712 PUSH2 0x2361 JUMP JUMPDEST PUSH1 0x20 MUL PUSH1 0x20 ADD ADD MLOAD PUSH2 0x31A JUMP JUMPDEST DUP3 DUP3 DUP2 MLOAD DUP2 LT PUSH2 0x731 JUMPI PUSH2 0x731 PUSH2 0x2361 JUMP JUMPDEST PUSH1 0x20 SWAP1 DUP2 MUL SWAP2 SWAP1 SWAP2 ADD ADD MSTORE PUSH2 0x745 DUP2 PUSH2 0x23BF JUMP JUMPDEST SWAP1 POP PUSH2 0x6DA JUMP JUMPDEST POP SWAP4 SWAP3 POP POP POP JUMP JUMPDEST PUSH1 0x7 SLOAD PUSH20 0xFFFFFFFFFFFFFFFFFFFFFFFFFFFFFFFFFFFFFFFF AND CALLER EQ PUSH2 0x7D5 JUMPI PUSH1 0x40 MLOAD PUSH32 0x8C379A000000000000000000000000000000000000000000000000000000000 DUP2 MSTORE PUSH1 0x20 PUSH1 0x4 DUP3 ADD MSTORE PUSH1 0x18 PUSH1 0x24 DUP3 ADD MSTORE PUSH32 0x596F7520617265206E6F742077686974656C69737465642E0000000000000000 PUSH1 0x44 DUP3 ADD MSTORE PUSH1 0x64 ADD PUSH2 0x3BB JUMP JUMPDEST PUSH2 0x814 DUP3 DUP3 DUP1 DUP1 PUSH1 0x1F ADD PUSH1 0x20 DUP1 SWAP2 DIV MUL PUSH1 0x20 ADD PUSH1 0x40 MLOAD SWAP1 DUP2 ADD PUSH1 0x40 MSTORE DUP1 SWAP4 SWAP3 SWAP2 SWAP1 DUP2 DUP2 MSTORE PUSH1 0x20 ADD DUP4 DUP4 DUP1 DUP3 DUP5 CALLDATACOPY PUSH1 0x0 SWAP3 ADD SWAP2 SWAP1 SWAP2 MSTORE POP PUSH2 0x11FE SWAP3 POP POP POP JUMP JUMPDEST POP POP JUMP JUMPDEST PUSH1 0x60 PUSH1 0x4 DUP1 SLOAD PUSH2 0x827 SWAP1 PUSH2 0x23F7 JUMP JUMPDEST DUP1 PUSH1 0x1F ADD PUSH1 0x20 DUP1 SWAP2 DIV MUL PUSH1 0x20 ADD PUSH1 0x40 MLOAD SWAP1 DUP2 ADD PUSH1 0x40 MSTORE DUP1 SWAP3 SWAP2 SWAP1 DUP2 DUP2 MSTORE PUSH1 0x20 ADD DUP3 DUP1 SLOAD PUSH2 0x853 SWAP1 PUSH2 0x23F7 JUMP JUMPDEST DUP1 ISZERO PUSH2 0x8A0 JUMPI DUP1 PUSH1 0x1F LT PUSH2 0x875 JUMPI PUSH2 0x100 DUP1 DUP4 SLOAD DIV MUL DUP4 MSTORE SWAP2 PUSH1 0x20 ADD SWAP2 PUSH2 0x8A0 JUMP JUMPDEST DUP3 ADD SWAP2 SWAP1 PUSH1 0x0 MSTORE PUSH1 0x20 PUSH1 0x0 KECCAK256 SWAP1 JUMPDEST DUP2 SLOAD DUP2 MSTORE SWAP1 PUSH1 0x1 ADD SWAP1 PUSH1 0x20 ADD DUP1 DUP4 GT PUSH2 0x883 JUMPI DUP3 SWAP1 SUB PUSH1 0x1F AND DUP3 ADD SWAP2 JUMPDEST POP POP POP POP POP SWAP1 POP SWAP1 JUMP JUMPDEST PUSH1 0x0 DUP2 DUP2 MSTORE PUSH1 0x5 PUSH1 0x20 MSTORE PUSH1 0x40 SWAP1 KECCAK256 DUP1 SLOAD PUSH1 0x60 SWAP2 SWAP1 PUSH2 0x8C7 SWAP1 PUSH2 0x23F7 JUMP JUMPDEST DUP1 PUSH1 0x1F ADD PUSH1 0x20 DUP1 SWAP2 DIV MUL PUSH1 0x20 ADD PUSH1 0x40 MLOAD SWAP1 DUP2 ADD PUSH1 0x40 MSTORE DUP1 SWAP3 SWAP2 SWAP1 DUP2 DUP2 MSTORE PUSH1 0x20 ADD DUP3 DUP1 SLOAD PUSH2 0x8F3 SWAP1 PUSH2 0x23F7 JUMP JUMPDEST DUP1 ISZERO PUSH2 0x940 JUMPI DUP1 PUSH1 0x1F LT PUSH2 0x915 JUMPI PUSH2 0x100 DUP1 DUP4 SLOAD DIV MUL DUP4 MSTORE SWAP2 PUSH1 0x20 ADD SWAP2 PUSH2 0x940 JUMP JUMPDEST DUP3 ADD SWAP2 SWAP1 PUSH1 0x0 MSTORE PUSH1 0x20 PUSH1 0x0 KECCAK256 SWAP1 JUMPDEST DUP2 SLOAD DUP2 MSTORE SWAP1 PUSH1 0x1 ADD SWAP1 PUSH1 0x20 ADD DUP1 DUP4 GT PUSH2 0x923 JUMPI DUP3 SWAP1 SUB PUSH1 0x1F AND DUP3 ADD SWAP2 JUMPDEST POP POP POP POP POP SWAP1 POP SWAP2 SWAP1 POP JUMP JUMPDEST PUSH2 0x814 CALLER DUP4 DUP4 PUSH2 0x1211 JUMP JUMPDEST CALLER PUSH1 0x0 SWAP1 DUP2 MSTORE PUSH1 0x6 PUSH1 0x20 MSTORE PUSH1 0x40 SWAP1 KECCAK256 SLOAD PUSH1 0xFF AND PUSH2 0x9D0 JUMPI PUSH1 0x40 MLOAD PUSH32 0x8C379A000000000000000000000000000000000000000000000000000000000 DUP2 MSTORE PUSH1 0x20 PUSH1 0x4 DUP3 ADD MSTORE PUSH1 0x18 PUSH1 0x24 DUP3 ADD MSTORE PUSH32 0x596F7520617265206E6F742077686974656C69737465642E0000000000000000 PUSH1 0x44 DUP3 ADD MSTORE PUSH1 0x64 ADD PUSH2 0x3BB JUMP JUMPDEST PUSH1 0x0 DUP5 DUP2 MSTORE PUSH1 0x3 PUSH1 0x20 MSTORE PUSH1 0x40 SWAP1 KECCAK256 SLOAD PUSH1 0x0 SUB PUSH2 0xA26 JUMPI PUSH2 0xA26 DUP5 DUP4 DUP4 DUP1 DUP1 PUSH1 0x1F ADD PUSH1 0x20 DUP1 SWAP2 DIV MUL PUSH1 0x20 ADD PUSH1 0x40 MLOAD SWAP1 DUP2 ADD PUSH1 0x40 MSTORE DUP1 SWAP4 SWAP3 SWAP2 SWAP1 DUP2 DUP2 MSTORE PUSH1 0x20 ADD DUP4 DUP4 DUP1 DUP3 DUP5 CALLDATACOPY PUSH1 0x0 SWAP3 ADD SWAP2 SWAP1 SWAP2 MSTORE POP PUSH2 0x1364 SWAP3 POP POP POP JUMP JUMPDEST PUSH2 0x5F5 DUP6 DUP6 DUP6 PUSH1 0x40 MLOAD DUP1 PUSH1 0x20 ADD PUSH1 0x40 MSTORE DUP1 PUSH1 0x0 DUP2 MSTORE POP PUSH2 0x1388 JUMP JUMPDEST PUSH1 0x7 SLOAD PUSH20 0xFFFFFFFFFFFFFFFFFFFFFFFFFFFFFFFFFFFFFFFF AND CALLER EQ PUSH2 0xAC2 JUMPI PUSH1 0x40 MLOAD PUSH32 0x8C379A000000000000000000000000000000000000000000000000000000000 DUP2 MSTORE PUSH1 0x20 PUSH1 0x4 DUP3 ADD MSTORE PUSH1 0x18 PUSH1 0x24 DUP3 ADD MSTORE PUSH32 0x596F7520617265206E6F742077686974656C69737465642E0000000000000000 PUSH1 0x44 DUP3 ADD MSTORE PUSH1 0x64 ADD PUSH2 0x3BB JUMP JUMPDEST PUSH1 0x7 SLOAD PUSH20 0xFFFFFFFFFFFFFFFFFFFFFFFFFFFFFFFFFFFFFFFF DUP1 DUP4 AND SWAP2 AND SUB PUSH2 0xB6C JUMPI PUSH1 0x40 MLOAD PUSH32 0x8C379A000000000000000000000000000000000000000000000000000000000 DUP2 MSTORE PUSH1 0x20 PUSH1 0x4 DUP3 ADD MSTORE PUSH1 0x25 PUSH1 0x24 DUP3 ADD MSTORE PUSH32 0x50726F7669646564206164647265737320616C72656164792073616665206164 PUSH1 0x44 DUP3 ADD MSTORE PUSH32 0x6472657373000000000000000000000000000000000000000000000000000000 PUSH1 0x64 DUP3 ADD MSTORE PUSH1 0x84 ADD PUSH2 0x3BB JUMP JUMPDEST PUSH1 0x7 DUP1 SLOAD PUSH32 0xFFFFFFFFFFFFFFFFFFFFFFFF0000000000000000000000000000000000000000 AND PUSH20 0xFFFFFFFFFFFFFFFFFFFFFFFFFFFFFFFFFFFFFFFF DUP4 AND SWAP1 DUP2 OR SWAP1 SWAP2 SSTORE PUSH1 0x40 MLOAD PUSH32 0xD4C1AF98B758421A8D47B0BC04ECFA30233D5506955E8CDE282417AA0D31D3B6 SWAP1 PUSH1 0x0 SWAP1 LOG2 POP JUMP JUMPDEST PUSH1 0x7 SLOAD PUSH20 0xFFFFFFFFFFFFFFFFFFFFFFFFFFFFFFFFFFFFFFFF AND CALLER EQ PUSH2 0xC5C JUMPI PUSH1 0x40 MLOAD PUSH32 0x8C379A000000000000000000000000000000000000000000000000000000000 DUP2 MSTORE PUSH1 0x20 PUSH1 0x4 DUP3 ADD MSTORE PUSH1 0x18 PUSH1 0x24 DUP3 ADD MSTORE PUSH32 0x596F7520617265206E6F742077686974656C69737465642E0000000000000000 PUSH1 0x44 DUP3 ADD MSTORE PUSH1 0x64 ADD PUSH2 0x3BB JUMP JUMPDEST PUSH20 0xFFFFFFFFFFFFFFFFFFFFFFFFFFFFFFFFFFFFFFFF DUP3 AND PUSH1 0x0 SWAP1 DUP2 MSTORE PUSH1 0x6 PUSH1 0x20 MSTORE PUSH1 0x40 SWAP1 KECCAK256 DUP1 SLOAD PUSH32 0xFFFFFFFFFFFFFFFFFFFFFFFFFFFFFFFFFFFFFFFFFFFFFFFFFFFFFFFFFFFFFF00 AND DUP3 ISZERO DUP1 ISZERO SWAP2 SWAP1 SWAP2 OR SWAP1 SWAP2 SSTORE PUSH2 0xCF9 JUMPI PUSH1 0x40 MLOAD PUSH20 0xFFFFFFFFFFFFFFFFFFFFFFFFFFFFFFFFFFFFFFFF DUP4 AND SWAP1 PUSH32 0x526AF00F9BC92D53F2D0B4C603A1305395A04F7FB6A0A7962867D8D230467547 SWAP1 PUSH1 0x0 SWAP1 LOG2 POP POP JUMP JUMPDEST PUSH1 0x40 MLOAD PUSH20 0xFFFFFFFFFFFFFFFFFFFFFFFFFFFFFFFFFFFFFFFF DUP4 AND SWAP1 PUSH32 0xE8185C1A3F6241A6224D99FF39E932AC24FC0D2C51B17E56C5D6F52AFF1B5DA1 SWAP1 PUSH1 0x0 SWAP1 LOG2 POP POP JUMP JUMPDEST PUSH20 0xFFFFFFFFFFFFFFFFFFFFFFFFFFFFFFFFFFFFFFFF DUP6 AND CALLER EQ DUP1 PUSH2 0xD67 JUMPI POP PUSH2 0xD67 DUP6 CALLER PUSH2 0x2CC JUMP JUMPDEST PUSH2 0xDF3 JUMPI PUSH1 0x40 MLOAD PUSH32 0x8C379A000000000000000000000000000000000000000000000000000000000 DUP2 MSTORE PUSH1 0x20 PUSH1 0x4 DUP3 ADD MSTORE PUSH1 0x29 PUSH1 0x24 DUP3 ADD MSTORE PUSH32 0x455243313135353A2063616C6C6572206973206E6F74206F776E6572206E6F72 PUSH1 0x44 DUP3 ADD MSTORE PUSH32 0x20617070726F7665640000000000000000000000000000000000000000000000 PUSH1 0x64 DUP3 ADD MSTORE PUSH1 0x84 ADD PUSH2 0x3BB JUMP JUMPDEST PUSH2 0x5F5 DUP6 DUP6 DUP6 DUP6 DUP6 PUSH2 0x14F9 JUMP JUMPDEST PUSH1 0x0 DUP2 DUP2 MSTORE PUSH1 0x5 PUSH1 0x20 MSTORE PUSH1 0x40 DUP2 KECCAK256 DUP1 SLOAD PUSH1 0x60 SWAP3 SWAP2 SWAP1 PUSH2 0xE1E SWAP1 PUSH2 0x23F7 JUMP JUMPDEST DUP1 PUSH1 0x1F ADD PUSH1 0x20 DUP1 SWAP2 DIV MUL PUSH1 0x20 ADD PUSH1 0x40 MLOAD SWAP1 DUP2 ADD PUSH1 0x40 MSTORE DUP1 SWAP3 SWAP2 SWAP1 DUP2 DUP2 MSTORE PUSH1 0x20 ADD DUP3 DUP1 SLOAD PUSH2 0xE4A SWAP1 PUSH2 0x23F7 JUMP JUMPDEST DUP1 ISZERO PUSH2 0xE97 JUMPI DUP1 PUSH1 0x1F LT PUSH2 0xE6C JUMPI PUSH2 0x100 DUP1 DUP4 SLOAD DIV MUL DUP4 MSTORE SWAP2 PUSH1 0x20 ADD SWAP2 PUSH2 0xE97 JUMP JUMPDEST DUP3 ADD SWAP2 SWAP1 PUSH1 0x0 MSTORE PUSH1 0x20 PUSH1 0x0 KECCAK256 SWAP1 JUMPDEST DUP2 SLOAD DUP2 MSTORE SWAP1 PUSH1 0x1 ADD SWAP1 PUSH1 0x20 ADD DUP1 DUP4 GT PUSH2 0xE7A JUMPI DUP3 SWAP1 SUB PUSH1 0x1F AND DUP3 ADD SWAP2 JUMPDEST POP POP POP POP POP SWAP1 POP PUSH1 0x0 DUP2 MLOAD GT PUSH2 0xEB0 JUMPI PUSH2 0x4FD DUP4 PUSH2 0x1737 JUMP JUMPDEST PUSH1 0x4 DUP2 PUSH1 0x40 MLOAD PUSH1 0x20 ADD PUSH2 0x51C SWAP3 SWAP2 SWAP1 PUSH2 0x244A JUMP JUMPDEST DUP2 MLOAD DUP4 MLOAD EQ PUSH2 0xF55 JUMPI PUSH1 0x40 MLOAD PUSH32 0x8C379A000000000000000000000000000000000000000000000000000000000 DUP2 MSTORE PUSH1 0x20 PUSH1 0x4 DUP3 ADD MSTORE PUSH1 0x28 PUSH1 0x24 DUP3 ADD MSTORE PUSH32 0x455243313135353A2069647320616E6420616D6F756E7473206C656E67746820 PUSH1 0x44 DUP3 ADD MSTORE PUSH32 0x6D69736D61746368000000000000000000000000000000000000000000000000 PUSH1 0x64 DUP3 ADD MSTORE PUSH1 0x84 ADD PUSH2 0x3BB JUMP JUMPDEST PUSH20 0xFFFFFFFFFFFFFFFFFFFFFFFFFFFFFFFFFFFFFFFF DUP5 AND PUSH2 0xFF8 JUMPI PUSH1 0x40 MLOAD PUSH32 0x8C379A000000000000000000000000000000000000000000000000000000000 DUP2 MSTORE PUSH1 0x20 PUSH1 0x4 DUP3 ADD MSTORE PUSH1 0x25 PUSH1 0x24 DUP3 ADD MSTORE PUSH32 0x455243313135353A207472616E7366657220746F20746865207A65726F206164 PUSH1 0x44 DUP3 ADD MSTORE PUSH32 0x6472657373000000000000000000000000000000000000000000000000000000 PUSH1 0x64 DUP3 ADD MSTORE PUSH1 0x84 ADD PUSH2 0x3BB JUMP JUMPDEST CALLER PUSH1 0x0 JUMPDEST DUP5 MLOAD DUP2 LT ISZERO PUSH2 0x1169 JUMPI PUSH1 0x0 DUP6 DUP3 DUP2 MLOAD DUP2 LT PUSH2 0x1019 JUMPI PUSH2 0x1019 PUSH2 0x2361 JUMP JUMPDEST PUSH1 0x20 MUL PUSH1 0x20 ADD ADD MLOAD SWAP1 POP PUSH1 0x0 DUP6 DUP4 DUP2 MLOAD DUP2 LT PUSH2 0x1037 JUMPI PUSH2 0x1037 PUSH2 0x2361 JUMP JUMPDEST PUSH1 0x20 SWAP1 DUP2 MUL SWAP2 SWAP1 SWAP2 ADD DUP2 ADD MLOAD PUSH1 0x0 DUP5 DUP2 MSTORE DUP1 DUP4 MSTORE PUSH1 0x40 DUP1 DUP3 KECCAK256 PUSH20 0xFFFFFFFFFFFFFFFFFFFFFFFFFFFFFFFFFFFFFFFF DUP15 AND DUP4 MSTORE SWAP1 SWAP4 MSTORE SWAP2 SWAP1 SWAP2 KECCAK256 SLOAD SWAP1 SWAP2 POP DUP2 DUP2 LT ISZERO PUSH2 0x1104 JUMPI PUSH1 0x40 MLOAD PUSH32 0x8C379A000000000000000000000000000000000000000000000000000000000 DUP2 MSTORE PUSH1 0x20 PUSH1 0x4 DUP3 ADD MSTORE PUSH1 0x2A PUSH1 0x24 DUP3 ADD MSTORE PUSH32 0x455243313135353A20696E73756666696369656E742062616C616E636520666F PUSH1 0x44 DUP3 ADD MSTORE PUSH32 0x72207472616E7366657200000000000000000000000000000000000000000000 PUSH1 0x64 DUP3 ADD MSTORE PUSH1 0x84 ADD PUSH2 0x3BB JUMP JUMPDEST PUSH1 0x0 DUP4 DUP2 MSTORE PUSH1 0x20 DUP2 DUP2 MSTORE PUSH1 0x40 DUP1 DUP4 KECCAK256 PUSH20 0xFFFFFFFFFFFFFFFFFFFFFFFFFFFFFFFFFFFFFFFF DUP15 DUP2 AND DUP6 MSTORE SWAP3 MSTORE DUP1 DUP4 KECCAK256 DUP6 DUP6 SUB SWAP1 SSTORE SWAP1 DUP12 AND DUP3 MSTORE DUP2 KECCAK256 DUP1 SLOAD DUP5 SWAP3 SWAP1 PUSH2 0x114E SWAP1 DUP5 SWAP1 PUSH2 0x2527 JUMP JUMPDEST SWAP3 POP POP DUP2 SWAP1 SSTORE POP POP POP POP DUP1 PUSH2 0x1162 SWAP1 PUSH2 0x23BF JUMP JUMPDEST SWAP1 POP PUSH2 0xFFC JUMP JUMPDEST POP DUP5 PUSH20 0xFFFFFFFFFFFFFFFFFFFFFFFFFFFFFFFFFFFFFFFF AND DUP7 PUSH20 0xFFFFFFFFFFFFFFFFFFFFFFFFFFFFFFFFFFFFFFFF AND DUP3 PUSH20 0xFFFFFFFFFFFFFFFFFFFFFFFFFFFFFFFFFFFFFFFF AND PUSH32 0x4A39DC06D4C0DBC64B70AF90FD698A233A518AA5D07E595D983B8C0526C8F7FB DUP8 DUP8 PUSH1 0x40 MLOAD PUSH2 0x11E0 SWAP3 SWAP2 SWAP1 PUSH2 0x253F JUMP JUMPDEST PUSH1 0x40 MLOAD DUP1 SWAP2 SUB SWAP1 LOG4 PUSH2 0x11F6 DUP2 DUP8 DUP8 DUP8 DUP8 DUP8 PUSH2 0x1746 JUMP JUMPDEST POP POP POP POP POP POP JUMP JUMPDEST DUP1 MLOAD PUSH2 0x814 SWAP1 PUSH1 0x4 SWAP1 PUSH1 0x20 DUP5 ADD SWAP1 PUSH2 0x1BC8 JUMP JUMPDEST DUP2 PUSH20 0xFFFFFFFFFFFFFFFFFFFFFFFFFFFFFFFFFFFFFFFF AND DUP4 PUSH20 0xFFFFFFFFFFFFFFFFFFFFFFFFFFFFFFFFFFFFFFFF AND SUB PUSH2 0x12CC JUMPI PUSH1 0x40 MLOAD PUSH32 0x8C379A000000000000000000000000000000000000000000000000000000000 DUP2 MSTORE PUSH1 0x20 PUSH1 0x4 DUP3 ADD MSTORE PUSH1 0x29 PUSH1 0x24 DUP3 ADD MSTORE PUSH32 0x455243313135353A2073657474696E6720617070726F76616C20737461747573 PUSH1 0x44 DUP3 ADD MSTORE PUSH32 0x20666F722073656C660000000000000000000000000000000000000000000000 PUSH1 0x64 DUP3 ADD MSTORE PUSH1 0x84 ADD PUSH2 0x3BB JUMP JUMPDEST PUSH20 0xFFFFFFFFFFFFFFFFFFFFFFFFFFFFFFFFFFFFFFFF DUP4 DUP2 AND PUSH1 0x0 DUP2 DUP2 MSTORE PUSH1 0x1 PUSH1 0x20 SWAP1 DUP2 MSTORE PUSH1 0x40 DUP1 DUP4 KECCAK256 SWAP5 DUP8 AND DUP1 DUP5 MSTORE SWAP5 DUP3 MSTORE SWAP2 DUP3 SWAP1 KECCAK256 DUP1 SLOAD PUSH32 0xFFFFFFFFFFFFFFFFFFFFFFFFFFFFFFFFFFFFFFFFFFFFFFFFFFFFFFFFFFFFFF00 AND DUP7 ISZERO ISZERO SWAP1 DUP2 OR SWAP1 SWAP2 SSTORE SWAP2 MLOAD SWAP2 DUP3 MSTORE PUSH32 0x17307EAB39AB6107E8899845AD3D59BD9653F200F220920489CA2B5937696C31 SWAP2 ADD PUSH1 0x40 MLOAD DUP1 SWAP2 SUB SWAP1 LOG3 POP POP POP JUMP JUMPDEST PUSH1 0x0 DUP3 DUP2 MSTORE PUSH1 0x5 PUSH1 0x20 SWAP1 DUP2 MSTORE PUSH1 0x40 SWAP1 SWAP2 KECCAK256 DUP3 MLOAD PUSH2 0x1383 SWAP3 DUP5 ADD SWAP1 PUSH2 0x1BC8 JUMP JUMPDEST POP POP POP JUMP JUMPDEST PUSH20 0xFFFFFFFFFFFFFFFFFFFFFFFFFFFFFFFFFFFFFFFF DUP5 AND PUSH2 0x142B JUMPI PUSH1 0x40 MLOAD PUSH32 0x8C379A000000000000000000000000000000000000000000000000000000000 DUP2 MSTORE PUSH1 0x20 PUSH1 0x4 DUP3 ADD MSTORE PUSH1 0x21 PUSH1 0x24 DUP3 ADD MSTORE PUSH32 0x455243313135353A206D696E7420746F20746865207A65726F20616464726573 PUSH1 0x44 DUP3 ADD MSTORE PUSH32 0x7300000000000000000000000000000000000000000000000000000000000000 PUSH1 0x64 DUP3 ADD MSTORE PUSH1 0x84 ADD PUSH2 0x3BB JUMP JUMPDEST CALLER PUSH1 0x0 PUSH2 0x1437 DUP6 PUSH2 0x19D0 JUMP JUMPDEST SWAP1 POP PUSH1 0x0 PUSH2 0x1444 DUP6 PUSH2 0x19D0 JUMP JUMPDEST SWAP1 POP PUSH1 0x0 DUP7 DUP2 MSTORE PUSH1 0x20 DUP2 DUP2 MSTORE PUSH1 0x40 DUP1 DUP4 KECCAK256 PUSH20 0xFFFFFFFFFFFFFFFFFFFFFFFFFFFFFFFFFFFFFFFF DUP12 AND DUP5 MSTORE SWAP1 SWAP2 MSTORE DUP2 KECCAK256 DUP1 SLOAD DUP8 SWAP3 SWAP1 PUSH2 0x1483 SWAP1 DUP5 SWAP1 PUSH2 0x2527 JUMP JUMPDEST SWAP1 SWAP2 SSTORE POP POP PUSH1 0x40 DUP1 MLOAD DUP8 DUP2 MSTORE PUSH1 0x20 DUP2 ADD DUP8 SWAP1 MSTORE PUSH20 0xFFFFFFFFFFFFFFFFFFFFFFFFFFFFFFFFFFFFFFFF DUP1 DUP11 AND SWAP3 PUSH1 0x0 SWAP3 SWAP2 DUP8 AND SWAP2 PUSH32 0xC3D58168C5AE7397731D063D5BBF3D657854427343F4C083240F7AACAA2D0F62 SWAP2 ADD PUSH1 0x40 MLOAD DUP1 SWAP2 SUB SWAP1 LOG4 PUSH2 0x14F0 DUP4 PUSH1 0x0 DUP10 DUP10 DUP10 DUP10 PUSH2 0x1A1B JUMP JUMPDEST POP POP POP POP POP POP POP JUMP JUMPDEST PUSH20 0xFFFFFFFFFFFFFFFFFFFFFFFFFFFFFFFFFFFFFFFF DUP5 AND PUSH2 0x159C JUMPI PUSH1 0x40 MLOAD PUSH32 0x8C379A000000000000000000000000000000000000000000000000000000000 DUP2 MSTORE PUSH1 0x20 PUSH1 0x4 DUP3 ADD MSTORE PUSH1 0x25 PUSH1 0x24 DUP3 ADD MSTORE PUSH32 0x455243313135353A207472616E7366657220746F20746865207A65726F206164 PUSH1 0x44 DUP3 ADD MSTORE PUSH32 0x6472657373000000000000000000000000000000000000000000000000000000 PUSH1 0x64 DUP3 ADD MSTORE PUSH1 0x84 ADD PUSH2 0x3BB JUMP JUMPDEST CALLER PUSH1 0x0 PUSH2 0x15A8 DUP6 PUSH2 0x19D0 JUMP JUMPDEST SWAP1 POP PUSH1 0x0 PUSH2 0x15B5 DUP6 PUSH2 0x19D0 JUMP JUMPDEST SWAP1 POP PUSH1 0x0 DUP7 DUP2 MSTORE PUSH1 0x20 DUP2 DUP2 MSTORE PUSH1 0x40 DUP1 DUP4 KECCAK256 PUSH20 0xFFFFFFFFFFFFFFFFFFFFFFFFFFFFFFFFFFFFFFFF DUP13 AND DUP5 MSTORE SWAP1 SWAP2 MSTORE SWAP1 KECCAK256 SLOAD DUP6 DUP2 LT ISZERO PUSH2 0x1675 JUMPI PUSH1 0x40 MLOAD PUSH32 0x8C379A000000000000000000000000000000000000000000000000000000000 DUP2 MSTORE PUSH1 0x20 PUSH1 0x4 DUP3 ADD MSTORE PUSH1 0x2A PUSH1 0x24 DUP3 ADD MSTORE PUSH32 0x455243313135353A20696E73756666696369656E742062616C616E636520666F PUSH1 0x44 DUP3 ADD MSTORE PUSH32 0x72207472616E7366657200000000000000000000000000000000000000000000 PUSH1 0x64 DUP3 ADD MSTORE PUSH1 0x84 ADD PUSH2 0x3BB JUMP JUMPDEST PUSH1 0x0 DUP8 DUP2 MSTORE PUSH1 0x20 DUP2 DUP2 MSTORE PUSH1 0x40 DUP1 DUP4 KECCAK256 PUSH20 0xFFFFFFFFFFFFFFFFFFFFFFFFFFFFFFFFFFFFFFFF DUP14 DUP2 AND DUP6 MSTORE SWAP3 MSTORE DUP1 DUP4 KECCAK256 DUP10 DUP6 SUB SWAP1 SSTORE SWAP1 DUP11 AND DUP3 MSTORE DUP2 KECCAK256 DUP1 SLOAD DUP9 SWAP3 SWAP1 PUSH2 0x16BF SWAP1 DUP5 SWAP1 PUSH2 0x2527 JUMP JUMPDEST SWAP1 SWAP2 SSTORE POP POP PUSH1 0x40 DUP1 MLOAD DUP9 DUP2 MSTORE PUSH1 0x20 DUP2 ADD DUP9 SWAP1 MSTORE PUSH20 0xFFFFFFFFFFFFFFFFFFFFFFFFFFFFFFFFFFFFFFFF DUP1 DUP12 AND SWAP3 DUP13 DUP3 AND SWAP3 SWAP2 DUP9 AND SWAP2 PUSH32 0xC3D58168C5AE7397731D063D5BBF3D657854427343F4C083240F7AACAA2D0F62 SWAP2 ADD PUSH1 0x40 MLOAD DUP1 SWAP2 SUB SWAP1 LOG4 PUSH2 0x172C DUP5 DUP11 DUP11 DUP11 DUP11 DUP11 PUSH2 0x1A1B JUMP JUMPDEST POP POP POP POP POP POP POP POP POP JUMP JUMPDEST PUSH1 0x60 PUSH1 0x2 DUP1 SLOAD PUSH2 0x8C7 SWAP1 PUSH2 0x23F7 JUMP JUMPDEST PUSH20 0xFFFFFFFFFFFFFFFFFFFFFFFFFFFFFFFFFFFFFFFF DUP5 AND EXTCODESIZE ISZERO PUSH2 0x11F6 JUMPI PUSH1 0x40 MLOAD PUSH32 0xBC197C8100000000000000000000000000000000000000000000000000000000 DUP2 MSTORE PUSH20 0xFFFFFFFFFFFFFFFFFFFFFFFFFFFFFFFFFFFFFFFF DUP6 AND SWAP1 PUSH4 0xBC197C81 SWAP1 PUSH2 0x17BD SWAP1 DUP10 SWAP1 DUP10 SWAP1 DUP9 SWAP1 DUP9 SWAP1 DUP9 SWAP1 PUSH1 0x4 ADD PUSH2 0x2564 JUMP JUMPDEST PUSH1 0x20 PUSH1 0x40 MLOAD DUP1 DUP4 SUB DUP2 PUSH1 0x0 DUP8 GAS CALL SWAP3 POP POP POP DUP1 ISZERO PUSH2 0x1816 JUMPI POP PUSH1 0x40 DUP1 MLOAD PUSH1 0x1F RETURNDATASIZE SWAP1 DUP2 ADD PUSH32 0xFFFFFFFFFFFFFFFFFFFFFFFFFFFFFFFFFFFFFFFFFFFFFFFFFFFFFFFFFFFFFFE0 AND DUP3 ADD SWAP1 SWAP3 MSTORE PUSH2 0x1813 SWAP2 DUP2 ADD SWAP1 PUSH2 0x25CF JUMP JUMPDEST PUSH1 0x1 JUMPDEST PUSH2 0x18FF JUMPI PUSH2 0x1822 PUSH2 0x25EC JUMP JUMPDEST DUP1 PUSH4 0x8C379A0 SUB PUSH2 0x1875 JUMPI POP PUSH2 0x1836 PUSH2 0x2608 JUMP JUMPDEST DUP1 PUSH2 0x1841 JUMPI POP PUSH2 0x1877 JUMP JUMPDEST DUP1 PUSH1 0x40 MLOAD PUSH32 0x8C379A000000000000000000000000000000000000000000000000000000000 DUP2 MSTORE PUSH1 0x4 ADD PUSH2 0x3BB SWAP2 SWAP1 PUSH2 0x1D95 JUMP JUMPDEST POP JUMPDEST PUSH1 0x40 MLOAD PUSH32 0x8C379A000000000000000000000000000000000000000000000000000000000 DUP2 MSTORE PUSH1 0x20 PUSH1 0x4 DUP3 ADD MSTORE PUSH1 0x34 PUSH1 0x24 DUP3 ADD MSTORE PUSH32 0x455243313135353A207472616E7366657220746F206E6F6E2045524331313535 PUSH1 0x44 DUP3 ADD MSTORE PUSH32 0x526563656976657220696D706C656D656E746572000000000000000000000000 PUSH1 0x64 DUP3 ADD MSTORE PUSH1 0x84 ADD PUSH2 0x3BB JUMP JUMPDEST PUSH32 0xFFFFFFFF00000000000000000000000000000000000000000000000000000000 DUP2 AND PUSH32 0xBC197C8100000000000000000000000000000000000000000000000000000000 EQ PUSH2 0x14F0 JUMPI PUSH1 0x40 MLOAD PUSH32 0x8C379A000000000000000000000000000000000000000000000000000000000 DUP2 MSTORE PUSH1 0x20 PUSH1 0x4 DUP3 ADD MSTORE PUSH1 0x28 PUSH1 0x24 DUP3 ADD MSTORE PUSH32 0x455243313135353A204552433131353552656365697665722072656A65637465 PUSH1 0x44 DUP3 ADD MSTORE PUSH32 0x6420746F6B656E73000000000000000000000000000000000000000000000000 PUSH1 0x64 DUP3 ADD MSTORE PUSH1 0x84 ADD PUSH2 0x3BB JUMP JUMPDEST PUSH1 0x40 DUP1 MLOAD PUSH1 0x1 DUP1 DUP3 MSTORE DUP2 DUP4 ADD SWAP1 SWAP3 MSTORE PUSH1 0x60 SWAP2 PUSH1 0x0 SWAP2 SWAP1 PUSH1 0x20 DUP1 DUP4 ADD SWAP1 DUP1 CALLDATASIZE DUP4 CALLDATACOPY ADD SWAP1 POP POP SWAP1 POP DUP3 DUP2 PUSH1 0x0 DUP2 MLOAD DUP2 LT PUSH2 0x1A0A JUMPI PUSH2 0x1A0A PUSH2 0x2361 JUMP JUMPDEST PUSH1 0x20 SWAP1 DUP2 MUL SWAP2 SWAP1 SWAP2 ADD ADD MSTORE SWAP3 SWAP2 POP POP JUMP JUMPDEST PUSH20 0xFFFFFFFFFFFFFFFFFFFFFFFFFFFFFFFFFFFFFFFF DUP5 AND EXTCODESIZE ISZERO PUSH2 0x11F6 JUMPI PUSH1 0x40 MLOAD PUSH32 0xF23A6E6100000000000000000000000000000000000000000000000000000000 DUP2 MSTORE PUSH20 0xFFFFFFFFFFFFFFFFFFFFFFFFFFFFFFFFFFFFFFFF DUP6 AND SWAP1 PUSH4 0xF23A6E61 SWAP1 PUSH2 0x1A92 SWAP1 DUP10 SWAP1 DUP10 SWAP1 DUP9 SWAP1 DUP9 SWAP1 DUP9 SWAP1 PUSH1 0x4 ADD PUSH2 0x26B0 JUMP JUMPDEST PUSH1 0x20 PUSH1 0x40 MLOAD DUP1 DUP4 SUB DUP2 PUSH1 0x0 DUP8 GAS CALL SWAP3 POP POP POP DUP1 ISZERO PUSH2 0x1AEB JUMPI POP PUSH1 0x40 DUP1 MLOAD PUSH1 0x1F RETURNDATASIZE SWAP1 DUP2 ADD PUSH32 0xFFFFFFFFFFFFFFFFFFFFFFFFFFFFFFFFFFFFFFFFFFFFFFFFFFFFFFFFFFFFFFE0 AND DUP3 ADD SWAP1 SWAP3 MSTORE PUSH2 0x1AE8 SWAP2 DUP2 ADD SWAP1 PUSH2 0x25CF JUMP JUMPDEST PUSH1 0x1 JUMPDEST PUSH2 0x1AF7 JUMPI PUSH2 0x1822 PUSH2 0x25EC JUMP JUMPDEST PUSH32 0xFFFFFFFF00000000000000000000000000000000000000000000000000000000 DUP2 AND PUSH32 0xF23A6E6100000000000000000000000000000000000000000000000000000000 EQ PUSH2 0x14F0 JUMPI PUSH1 0x40 MLOAD PUSH32 0x8C379A000000000000000000000000000000000000000000000000000000000 DUP2 MSTORE PUSH1 0x20 PUSH1 0x4 DUP3 ADD MSTORE PUSH1 0x28 PUSH1 0x24 DUP3 ADD MSTORE PUSH32 0x455243313135353A204552433131353552656365697665722072656A65637465 PUSH1 0x44 DUP3 ADD MSTORE PUSH32 0x6420746F6B656E73000000000000000000000000000000000000000000000000 PUSH1 0x64 DUP3 ADD MSTORE PUSH1 0x84 ADD PUSH2 0x3BB JUMP JUMPDEST DUP3 DUP1 SLOAD PUSH2 0x1BD4 SWAP1 PUSH2 0x23F7 JUMP JUMPDEST SWAP1 PUSH1 0x0 MSTORE PUSH1 0x20 PUSH1 0x0 KECCAK256 SWAP1 PUSH1 0x1F ADD PUSH1 0x20 SWAP1 DIV DUP2 ADD SWAP3 DUP3 PUSH2 0x1BF6 JUMPI PUSH1 0x0 DUP6 SSTORE PUSH2 0x1C3C JUMP JUMPDEST DUP3 PUSH1 0x1F LT PUSH2 0x1C0F JUMPI DUP1 MLOAD PUSH1 0xFF NOT AND DUP4 DUP1 ADD OR DUP6 SSTORE PUSH2 0x1C3C JUMP JUMPDEST DUP3 DUP1 ADD PUSH1 0x1 ADD DUP6 SSTORE DUP3 ISZERO PUSH2 0x1C3C JUMPI SWAP2 DUP3 ADD JUMPDEST DUP3 DUP2 GT ISZERO PUSH2 0x1C3C JUMPI DUP3 MLOAD DUP3 SSTORE SWAP2 PUSH1 0x20 ADD SWAP2 SWAP1 PUSH1 0x1 ADD SWAP1 PUSH2 0x1C21 JUMP JUMPDEST POP PUSH2 0x1C48 SWAP3 SWAP2 POP PUSH2 0x1C4C JUMP JUMPDEST POP SWAP1 JUMP JUMPDEST JUMPDEST DUP1 DUP3 GT ISZERO PUSH2 0x1C48 JUMPI PUSH1 0x0 DUP2 SSTORE PUSH1 0x1 ADD PUSH2 0x1C4D JUMP JUMPDEST DUP1 CALLDATALOAD PUSH20 0xFFFFFFFFFFFFFFFFFFFFFFFFFFFFFFFFFFFFFFFF DUP2 AND DUP2 EQ PUSH2 0x1C85 JUMPI PUSH1 0x0 DUP1 REVERT JUMPDEST SWAP2 SWAP1 POP JUMP JUMPDEST PUSH1 0x0 DUP1 PUSH1 0x40 DUP4 DUP6 SUB SLT ISZERO PUSH2 0x1C9D JUMPI PUSH1 0x0 DUP1 REVERT JUMPDEST PUSH2 0x1CA6 DUP4 PUSH2 0x1C61 JUMP JUMPDEST SWAP5 PUSH1 0x20 SWAP4 SWAP1 SWAP4 ADD CALLDATALOAD SWAP4 POP POP POP JUMP JUMPDEST PUSH32 0xFFFFFFFF00000000000000000000000000000000000000000000000000000000 DUP2 AND DUP2 EQ PUSH2 0x1CE2 JUMPI PUSH1 0x0 DUP1 REVERT JUMPDEST POP JUMP JUMPDEST PUSH1 0x0 PUSH1 0x20 DUP3 DUP5 SUB SLT ISZERO PUSH2 0x1CF7 JUMPI PUSH1 0x0 DUP1 REVERT JUMPDEST DUP2 CALLDATALOAD PUSH2 0x52C DUP2 PUSH2 0x1CB4 JUMP JUMPDEST PUSH1 0x0 PUSH1 0x20 DUP3 DUP5 SUB SLT ISZERO PUSH2 0x1D14 JUMPI PUSH1 0x0 DUP1 REVERT JUMPDEST POP CALLDATALOAD SWAP2 SWAP1 POP JUMP JUMPDEST PUSH1 0x0 JUMPDEST DUP4 DUP2 LT ISZERO PUSH2 0x1D36 JUMPI DUP2 DUP2 ADD MLOAD DUP4 DUP3 ADD MSTORE PUSH1 0x20 ADD PUSH2 0x1D1E JUMP JUMPDEST DUP4 DUP2 GT ISZERO PUSH2 0x1D45 JUMPI PUSH1 0x0 DUP5 DUP5 ADD MSTORE JUMPDEST POP POP POP POP JUMP JUMPDEST PUSH1 0x0 DUP2 MLOAD DUP1 DUP5 MSTORE PUSH2 0x1D63 DUP2 PUSH1 0x20 DUP7 ADD PUSH1 0x20 DUP7 ADD PUSH2 0x1D1B JUMP JUMPDEST PUSH1 0x1F ADD PUSH32 0xFFFFFFFFFFFFFFFFFFFFFFFFFFFFFFFFFFFFFFFFFFFFFFFFFFFFFFFFFFFFFFE0 AND SWAP3 SWAP1 SWAP3 ADD PUSH1 0x20 ADD SWAP3 SWAP2 POP POP JUMP JUMPDEST PUSH1 0x20 DUP2 MSTORE PUSH1 0x0 PUSH2 0x52C PUSH1 0x20 DUP4 ADD DUP5 PUSH2 0x1D4B JUMP JUMPDEST PUSH32 0x4E487B7100000000000000000000000000000000000000000000000000000000 PUSH1 0x0 MSTORE PUSH1 0x41 PUSH1 0x4 MSTORE PUSH1 0x24 PUSH1 0x0 REVERT JUMPDEST PUSH32 0xFFFFFFFFFFFFFFFFFFFFFFFFFFFFFFFFFFFFFFFFFFFFFFFFFFFFFFFFFFFFFFE0 PUSH1 0x1F DUP4 ADD AND DUP2 ADD DUP2 DUP2 LT PUSH8 0xFFFFFFFFFFFFFFFF DUP3 GT OR ISZERO PUSH2 0x1E1B JUMPI PUSH2 0x1E1B PUSH2 0x1DA8 JUMP JUMPDEST PUSH1 0x40 MSTORE POP POP JUMP JUMPDEST PUSH1 0x0 PUSH8 0xFFFFFFFFFFFFFFFF DUP3 GT ISZERO PUSH2 0x1E3C JUMPI PUSH2 0x1E3C PUSH2 0x1DA8 JUMP JUMPDEST POP PUSH1 0x5 SHL PUSH1 0x20 ADD SWAP1 JUMP JUMPDEST PUSH1 0x0 DUP3 PUSH1 0x1F DUP4 ADD SLT PUSH2 0x1E57 JUMPI PUSH1 0x0 DUP1 REVERT JUMPDEST DUP2 CALLDATALOAD PUSH1 0x20 PUSH2 0x1E64 DUP3 PUSH2 0x1E22 JUMP JUMPDEST PUSH1 0x40 MLOAD PUSH2 0x1E71 DUP3 DUP3 PUSH2 0x1DD7 JUMP JUMPDEST DUP4 DUP2 MSTORE PUSH1 0x5 SWAP4 SWAP1 SWAP4 SHL DUP6 ADD DUP3 ADD SWAP3 DUP3 DUP2 ADD SWAP2 POP DUP7 DUP5 GT ISZERO PUSH2 0x1E91 JUMPI PUSH1 0x0 DUP1 REVERT JUMPDEST DUP3 DUP7 ADD JUMPDEST DUP5 DUP2 LT ISZERO PUSH2 0x1EAC JUMPI DUP1 CALLDATALOAD DUP4 MSTORE SWAP2 DUP4 ADD SWAP2 DUP4 ADD PUSH2 0x1E95 JUMP JUMPDEST POP SWAP7 SWAP6 POP POP POP POP POP POP JUMP JUMPDEST PUSH1 0x0 DUP3 PUSH1 0x1F DUP4 ADD SLT PUSH2 0x1EC8 JUMPI PUSH1 0x0 DUP1 REVERT JUMPDEST DUP2 CALLDATALOAD PUSH8 0xFFFFFFFFFFFFFFFF DUP2 GT ISZERO PUSH2 0x1EE2 JUMPI PUSH2 0x1EE2 PUSH2 0x1DA8 JUMP JUMPDEST PUSH1 0x40 MLOAD PUSH2 0x1F17 PUSH1 0x20 PUSH32 0xFFFFFFFFFFFFFFFFFFFFFFFFFFFFFFFFFFFFFFFFFFFFFFFFFFFFFFFFFFFFFFE0 PUSH1 0x1F DUP6 ADD AND ADD DUP3 PUSH2 0x1DD7 JUMP JUMPDEST DUP2 DUP2 MSTORE DUP5 PUSH1 0x20 DUP4 DUP7 ADD ADD GT ISZERO PUSH2 0x1F2C JUMPI PUSH1 0x0 DUP1 REVERT JUMPDEST DUP2 PUSH1 0x20 DUP6 ADD PUSH1 0x20 DUP4 ADD CALLDATACOPY PUSH1 0x0 SWAP2 DUP2 ADD PUSH1 0x20 ADD SWAP2 SWAP1 SWAP2 MSTORE SWAP4 SWAP3 POP POP POP JUMP JUMPDEST PUSH1 0x0 DUP1 PUSH1 0x0 DUP1 PUSH1 0x0 PUSH1 0xA0 DUP7 DUP9 SUB SLT ISZERO PUSH2 0x1F61 JUMPI PUSH1 0x0 DUP1 REVERT JUMPDEST PUSH2 0x1F6A DUP7 PUSH2 0x1C61 JUMP JUMPDEST SWAP5 POP PUSH2 0x1F78 PUSH1 0x20 DUP8 ADD PUSH2 0x1C61 JUMP JUMPDEST SWAP4 POP PUSH1 0x40 DUP7 ADD CALLDATALOAD PUSH8 0xFFFFFFFFFFFFFFFF DUP1 DUP3 GT ISZERO PUSH2 0x1F95 JUMPI PUSH1 0x0 DUP1 REVERT JUMPDEST PUSH2 0x1FA1 DUP10 DUP4 DUP11 ADD PUSH2 0x1E46 JUMP JUMPDEST SWAP5 POP PUSH1 0x60 DUP9 ADD CALLDATALOAD SWAP2 POP DUP1 DUP3 GT ISZERO PUSH2 0x1FB7 JUMPI PUSH1 0x0 DUP1 REVERT JUMPDEST PUSH2 0x1FC3 DUP10 DUP4 DUP11 ADD PUSH2 0x1E46 JUMP JUMPDEST SWAP4 POP PUSH1 0x80 DUP9 ADD CALLDATALOAD SWAP2 POP DUP1 DUP3 GT ISZERO PUSH2 0x1FD9 JUMPI PUSH1 0x0 DUP1 REVERT JUMPDEST POP PUSH2 0x1FE6 DUP9 DUP3 DUP10 ADD PUSH2 0x1EB7 JUMP JUMPDEST SWAP2 POP POP SWAP3 SWAP6 POP SWAP3 SWAP6 SWAP1 SWAP4 POP JUMP JUMPDEST PUSH1 0x0 DUP1 PUSH1 0x40 DUP4 DUP6 SUB SLT ISZERO PUSH2 0x2006 JUMPI PUSH1 0x0 DUP1 REVERT JUMPDEST DUP3 CALLDATALOAD PUSH8 0xFFFFFFFFFFFFFFFF DUP1 DUP3 GT ISZERO PUSH2 0x201E JUMPI PUSH1 0x0 DUP1 REVERT JUMPDEST DUP2 DUP6 ADD SWAP2 POP DUP6 PUSH1 0x1F DUP4 ADD SLT PUSH2 0x2032 JUMPI PUSH1 0x0 DUP1 REVERT JUMPDEST DUP2 CALLDATALOAD PUSH1 0x20 PUSH2 0x203F DUP3 PUSH2 0x1E22 JUMP JUMPDEST PUSH1 0x40 MLOAD PUSH2 0x204C DUP3 DUP3 PUSH2 0x1DD7 JUMP JUMPDEST DUP4 DUP2 MSTORE PUSH1 0x5 SWAP4 SWAP1 SWAP4 SHL DUP6 ADD DUP3 ADD SWAP3 DUP3 DUP2 ADD SWAP2 POP DUP10 DUP5 GT ISZERO PUSH2 0x206C JUMPI PUSH1 0x0 DUP1 REVERT JUMPDEST SWAP5 DUP3 ADD SWAP5 JUMPDEST DUP4 DUP7 LT ISZERO PUSH2 0x2091 JUMPI PUSH2 0x2082 DUP7 PUSH2 0x1C61 JUMP JUMPDEST DUP3 MSTORE SWAP5 DUP3 ADD SWAP5 SWAP1 DUP3 ADD SWAP1 PUSH2 0x2071 JUMP JUMPDEST SWAP7 POP POP DUP7 ADD CALLDATALOAD SWAP3 POP POP DUP1 DUP3 GT ISZERO PUSH2 0x20A7 JUMPI PUSH1 0x0 DUP1 REVERT JUMPDEST POP PUSH2 0x20B4 DUP6 DUP3 DUP7 ADD PUSH2 0x1E46 JUMP JUMPDEST SWAP2 POP POP SWAP3 POP SWAP3 SWAP1 POP JUMP JUMPDEST PUSH1 0x0 DUP2 MLOAD DUP1 DUP5 MSTORE PUSH1 0x20 DUP1 DUP6 ADD SWAP5 POP DUP1 DUP5 ADD PUSH1 0x0 JUMPDEST DUP4 DUP2 LT ISZERO PUSH2 0x20EE JUMPI DUP2 MLOAD DUP8 MSTORE SWAP6 DUP3 ADD SWAP6 SWAP1 DUP3 ADD SWAP1 PUSH1 0x1 ADD PUSH2 0x20D2 JUMP JUMPDEST POP SWAP5 SWAP6 SWAP5 POP POP POP POP POP JUMP JUMPDEST PUSH1 0x20 DUP2 MSTORE PUSH1 0x0 PUSH2 0x52C PUSH1 0x20 DUP4 ADD DUP5 PUSH2 0x20BE JUMP JUMPDEST PUSH1 0x0 DUP1 DUP4 PUSH1 0x1F DUP5 ADD SLT PUSH2 0x211E JUMPI PUSH1 0x0 DUP1 REVERT JUMPDEST POP DUP2 CALLDATALOAD PUSH8 0xFFFFFFFFFFFFFFFF DUP2 GT ISZERO PUSH2 0x2136 JUMPI PUSH1 0x0 DUP1 REVERT JUMPDEST PUSH1 0x20 DUP4 ADD SWAP2 POP DUP4 PUSH1 0x20 DUP3 DUP6 ADD ADD GT ISZERO PUSH2 0x214E JUMPI PUSH1 0x0 DUP1 REVERT JUMPDEST SWAP3 POP SWAP3 SWAP1 POP JUMP JUMPDEST PUSH1 0x0 DUP1 PUSH1 0x20 DUP4 DUP6 SUB SLT ISZERO PUSH2 0x2168 JUMPI PUSH1 0x0 DUP1 REVERT JUMPDEST DUP3 CALLDATALOAD PUSH8 0xFFFFFFFFFFFFFFFF DUP2 GT ISZERO PUSH2 0x217F JUMPI PUSH1 0x0 DUP1 REVERT JUMPDEST PUSH2 0x218B DUP6 DUP3 DUP7 ADD PUSH2 0x210C JUMP JUMPDEST SWAP1 SWAP7 SWAP1 SWAP6 POP SWAP4 POP POP POP POP JUMP JUMPDEST PUSH1 0x0 DUP1 PUSH1 0x40 DUP4 DUP6 SUB SLT ISZERO PUSH2 0x21AA JUMPI PUSH1 0x0 DUP1 REVERT JUMPDEST PUSH2 0x21B3 DUP4 PUSH2 0x1C61 JUMP JUMPDEST SWAP2 POP PUSH1 0x20 DUP4 ADD CALLDATALOAD DUP1 ISZERO ISZERO DUP2 EQ PUSH2 0x21C8 JUMPI PUSH1 0x0 DUP1 REVERT JUMPDEST DUP1 SWAP2 POP POP SWAP3 POP SWAP3 SWAP1 POP JUMP JUMPDEST PUSH1 0x0 DUP1 PUSH1 0x0 DUP1 PUSH1 0x0 PUSH1 0x80 DUP7 DUP9 SUB SLT ISZERO PUSH2 0x21EB JUMPI PUSH1 0x0 DUP1 REVERT JUMPDEST PUSH2 0x21F4 DUP7 PUSH2 0x1C61 JUMP JUMPDEST SWAP5 POP PUSH1 0x20 DUP7 ADD CALLDATALOAD SWAP4 POP PUSH1 0x40 DUP7 ADD CALLDATALOAD SWAP3 POP PUSH1 0x60 DUP7 ADD CALLDATALOAD PUSH8 0xFFFFFFFFFFFFFFFF DUP2 GT ISZERO PUSH2 0x221E JUMPI PUSH1 0x0 DUP1 REVERT JUMPDEST PUSH2 0x222A DUP9 DUP3 DUP10 ADD PUSH2 0x210C JUMP JUMPDEST SWAP7 SWAP10 SWAP6 SWAP9 POP SWAP4 SWAP7 POP SWAP3 SWAP5 SWAP4 SWAP3 POP POP POP JUMP JUMPDEST PUSH1 0x0 PUSH1 0x20 DUP3 DUP5 SUB SLT ISZERO PUSH2 0x224D JUMPI PUSH1 0x0 DUP1 REVERT JUMPDEST PUSH2 0x52C DUP3 PUSH2 0x1C61 JUMP JUMPDEST PUSH1 0x0 DUP1 PUSH1 0x40 DUP4 DUP6 SUB SLT ISZERO PUSH2 0x2269 JUMPI PUSH1 0x0 DUP1 REVERT JUMPDEST PUSH2 0x2272 DUP4 PUSH2 0x1C61 JUMP JUMPDEST SWAP2 POP PUSH2 0x2280 PUSH1 0x20 DUP5 ADD PUSH2 0x1C61 JUMP JUMPDEST SWAP1 POP SWAP3 POP SWAP3 SWAP1 POP JUMP JUMPDEST PUSH1 0x0 DUP1 PUSH1 0x0 DUP1 PUSH1 0x0 PUSH1 0xA0 DUP7 DUP9 SUB SLT ISZERO PUSH2 0x22A1 JUMPI PUSH1 0x0 DUP1 REVERT JUMPDEST PUSH2 0x22AA DUP7 PUSH2 0x1C61 JUMP JUMPDEST SWAP5 POP PUSH2 0x22B8 PUSH1 0x20 DUP8 ADD PUSH2 0x1C61 JUMP JUMPDEST SWAP4 POP PUSH1 0x40 DUP7 ADD CALLDATALOAD SWAP3 POP PUSH1 0x60 DUP7 ADD CALLDATALOAD SWAP2 POP PUSH1 0x80 DUP7 ADD CALLDATALOAD PUSH8 0xFFFFFFFFFFFFFFFF DUP2 GT ISZERO PUSH2 0x22E2 JUMPI PUSH1 0x0 DUP1 REVERT JUMPDEST PUSH2 0x1FE6 DUP9 DUP3 DUP10 ADD PUSH2 0x1EB7 JUMP JUMPDEST PUSH1 0x0 DUP2 MLOAD PUSH2 0x2300 DUP2 DUP6 PUSH1 0x20 DUP7 ADD PUSH2 0x1D1B JUMP JUMPDEST SWAP3 SWAP1 SWAP3 ADD SWAP3 SWAP2 POP POP JUMP JUMPDEST PUSH1 0x0 DUP4 MLOAD PUSH2 0x231C DUP2 DUP5 PUSH1 0x20 DUP9 ADD PUSH2 0x1D1B JUMP JUMPDEST DUP4 MLOAD SWAP1 DUP4 ADD SWAP1 PUSH2 0x2330 DUP2 DUP4 PUSH1 0x20 DUP9 ADD PUSH2 0x1D1B JUMP JUMPDEST PUSH32 0x2F6D657461646174612E6A736F6E000000000000000000000000000000000000 SWAP2 ADD SWAP1 DUP2 MSTORE PUSH1 0xE ADD SWAP5 SWAP4 POP POP POP POP JUMP JUMPDEST PUSH32 0x4E487B7100000000000000000000000000000000000000000000000000000000 PUSH1 0x0 MSTORE PUSH1 0x32 PUSH1 0x4 MSTORE PUSH1 0x24 PUSH1 0x0 REVERT JUMPDEST PUSH32 0x4E487B7100000000000000000000000000000000000000000000000000000000 PUSH1 0x0 MSTORE PUSH1 0x11 PUSH1 0x4 MSTORE PUSH1 0x24 PUSH1 0x0 REVERT JUMPDEST PUSH1 0x0 PUSH32 0xFFFFFFFFFFFFFFFFFFFFFFFFFFFFFFFFFFFFFFFFFFFFFFFFFFFFFFFFFFFFFFFF DUP3 SUB PUSH2 0x23F0 JUMPI PUSH2 0x23F0 PUSH2 0x2390 JUMP JUMPDEST POP PUSH1 0x1 ADD SWAP1 JUMP JUMPDEST PUSH1 0x1 DUP2 DUP2 SHR SWAP1 DUP3 AND DUP1 PUSH2 0x240B JUMPI PUSH1 0x7F DUP3 AND SWAP2 POP JUMPDEST PUSH1 0x20 DUP3 LT DUP2 SUB PUSH2 0x2444 JUMPI PUSH32 0x4E487B7100000000000000000000000000000000000000000000000000000000 PUSH1 0x0 MSTORE PUSH1 0x22 PUSH1 0x4 MSTORE PUSH1 0x24 PUSH1 0x0 REVERT JUMPDEST POP SWAP2 SWAP1 POP JUMP JUMPDEST PUSH1 0x0 DUP1 DUP5 SLOAD DUP2 PUSH1 0x1 DUP3 DUP2 SHR SWAP2 POP DUP1 DUP4 AND DUP1 PUSH2 0x2466 JUMPI PUSH1 0x7F DUP4 AND SWAP3 POP JUMPDEST PUSH1 0x20 DUP1 DUP5 LT DUP3 SUB PUSH2 0x249E JUMPI PUSH32 0x4E487B7100000000000000000000000000000000000000000000000000000000 DUP7 MSTORE PUSH1 0x22 PUSH1 0x4 MSTORE PUSH1 0x24 DUP7 REVERT JUMPDEST DUP2 DUP1 ISZERO PUSH2 0x24B2 JUMPI PUSH1 0x1 DUP2 EQ PUSH2 0x24E1 JUMPI PUSH2 0x250E JUMP JUMPDEST PUSH32 0xFFFFFFFFFFFFFFFFFFFFFFFFFFFFFFFFFFFFFFFFFFFFFFFFFFFFFFFFFFFFFF00 DUP7 AND DUP10 MSTORE DUP5 DUP10 ADD SWAP7 POP PUSH2 0x250E JUMP JUMPDEST PUSH1 0x0 DUP12 DUP2 MSTORE PUSH1 0x20 SWAP1 KECCAK256 PUSH1 0x0 JUMPDEST DUP7 DUP2 LT ISZERO PUSH2 0x2506 JUMPI DUP2 SLOAD DUP12 DUP3 ADD MSTORE SWAP1 DUP6 ADD SWAP1 DUP4 ADD PUSH2 0x24ED JUMP JUMPDEST POP POP DUP5 DUP10 ADD SWAP7 POP JUMPDEST POP POP POP POP POP POP PUSH2 0x251E DUP2 DUP6 PUSH2 0x22EE JUMP JUMPDEST SWAP6 SWAP5 POP POP POP POP POP JUMP JUMPDEST PUSH1 0x0 DUP3 NOT DUP3 GT ISZERO PUSH2 0x253A JUMPI PUSH2 0x253A PUSH2 0x2390 JUMP JUMPDEST POP ADD SWAP1 JUMP JUMPDEST PUSH1 0x40 DUP2 MSTORE PUSH1 0x0 PUSH2 0x2552 PUSH1 0x40 DUP4 ADD DUP6 PUSH2 0x20BE JUMP JUMPDEST DUP3 DUP2 SUB PUSH1 0x20 DUP5 ADD MSTORE PUSH2 0x251E DUP2 DUP6 PUSH2 0x20BE JUMP JUMPDEST PUSH1 0x0 PUSH20 0xFFFFFFFFFFFFFFFFFFFFFFFFFFFFFFFFFFFFFFFF DUP1 DUP9 AND DUP4 MSTORE DUP1 DUP8 AND PUSH1 0x20 DUP5 ADD MSTORE POP PUSH1 0xA0 PUSH1 0x40 DUP4 ADD MSTORE PUSH2 0x259D PUSH1 0xA0 DUP4 ADD DUP7 PUSH2 0x20BE JUMP JUMPDEST DUP3 DUP2 SUB PUSH1 0x60 DUP5 ADD MSTORE PUSH2 0x25AF DUP2 DUP7 PUSH2 0x20BE JUMP JUMPDEST SWAP1 POP DUP3 DUP2 SUB PUSH1 0x80 DUP5 ADD MSTORE PUSH2 0x25C3 DUP2 DUP6 PUSH2 0x1D4B JUMP JUMPDEST SWAP9 SWAP8 POP POP POP POP POP POP POP POP JUMP JUMPDEST PUSH1 0x0 PUSH1 0x20 DUP3 DUP5 SUB SLT ISZERO PUSH2 0x25E1 JUMPI PUSH1 0x0 DUP1 REVERT JUMPDEST DUP2 MLOAD PUSH2 0x52C DUP2 PUSH2 0x1CB4 JUMP JUMPDEST PUSH1 0x0 PUSH1 0x3 RETURNDATASIZE GT ISZERO PUSH2 0x2605 JUMPI PUSH1 0x4 PUSH1 0x0 DUP1 RETURNDATACOPY POP PUSH1 0x0 MLOAD PUSH1 0xE0 SHR JUMPDEST SWAP1 JUMP JUMPDEST PUSH1 0x0 PUSH1 0x44 RETURNDATASIZE LT ISZERO PUSH2 0x2616 JUMPI SWAP1 JUMP JUMPDEST PUSH1 0x40 MLOAD PUSH32 0xFFFFFFFFFFFFFFFFFFFFFFFFFFFFFFFFFFFFFFFFFFFFFFFFFFFFFFFFFFFFFFFC DUP1 RETURNDATASIZE ADD PUSH1 0x4 DUP4 RETURNDATACOPY DUP2 MLOAD RETURNDATASIZE PUSH8 0xFFFFFFFFFFFFFFFF DUP2 PUSH1 0x24 DUP5 ADD GT DUP2 DUP5 GT OR ISZERO PUSH2 0x2664 JUMPI POP POP POP POP POP SWAP1 JUMP JUMPDEST DUP3 DUP6 ADD SWAP2 POP DUP2 MLOAD DUP2 DUP2 GT ISZERO PUSH2 0x267C JUMPI POP POP POP POP POP POP SWAP1 JUMP JUMPDEST DUP5 RETURNDATASIZE DUP8 ADD ADD PUSH1 0x20 DUP3 DUP6 ADD ADD GT ISZERO PUSH2 0x2696 JUMPI POP POP POP POP POP POP SWAP1 JUMP JUMPDEST PUSH2 0x26A5 PUSH1 0x20 DUP3 DUP7 ADD ADD DUP8 PUSH2 0x1DD7 JUMP JUMPDEST POP SWAP1 SWAP6 SWAP5 POP POP POP POP POP JUMP JUMPDEST PUSH1 0x0 PUSH20 0xFFFFFFFFFFFFFFFFFFFFFFFFFFFFFFFFFFFFFFFF DUP1 DUP9 AND DUP4 MSTORE DUP1 DUP8 AND PUSH1 0x20 DUP5 ADD MSTORE POP DUP5 PUSH1 0x40 DUP4 ADD MSTORE DUP4 PUSH1 0x60 DUP4 ADD MSTORE PUSH1 0xA0 PUSH1 0x80 DUP4 ADD MSTORE PUSH2 0x26F5 PUSH1 0xA0 DUP4 ADD DUP5 PUSH2 0x1D4B JUMP JUMPDEST SWAP8 SWAP7 POP POP POP POP POP POP POP JUMP INVALID LOG2 PUSH5 0x6970667358 0x22 SLT KECCAK256 LOG1 0xB9 MSTORE8 PUSH25 0x67B984F63E09898A2139EEBBCA3AC6857189B4611D46F1C8A6 0xC2 0xA8 0xC3 PUSH5 0x736F6C6343 STOP ADDMOD 0xE STOP CALLER "
				},
				"gasEstimates": {
					"creation": {
						"codeDepositCost": "2007600",
						"executionCost": "infinite",
						"totalCost": "infinite"
					},
					"external": {
						"adminSafe()": "2336",
						"balanceOf(address,uint256)": "2659",
						"balanceOfBatch(address[],uint256[])": "infinite",
						"baseURI()": "infinite",
						"changeAdminSafe(address)": "30004",
						"exists(uint256)": "2517",
						"isApprovedForAll(address,address)": "infinite",
						"mint(address,uint256,uint256,string)": "infinite",
						"safeBatchTransferFrom(address,address,uint256[],uint256[],bytes)": "infinite",
						"safeTransferFrom(address,address,uint256,uint256,bytes)": "infinite",
						"setApprovalForAll(address,bool)": "26699",
						"setBaseURI(string)": "infinite",
						"setTraderPermission(address,bool)": "28012",
						"supportsInterface(bytes4)": "489",
						"tokenURIs(uint256)": "infinite",
						"totalSupply(uint256)": "2472",
						"uri(uint256)": "infinite"
					},
					"internal": {
						"_beforeTokenTransfer(address,address,address,uint256[] memory,uint256[] memory,bytes memory)": "infinite"
					}
				},
				"methodIdentifiers": {
					"adminSafe()": "4b8c9c2d",
					"balanceOf(address,uint256)": "00fdd58e",
					"balanceOfBatch(address[],uint256[])": "4e1273f4",
					"baseURI()": "6c0360eb",
					"changeAdminSafe(address)": "cb450772",
					"exists(uint256)": "4f558e79",
					"isApprovedForAll(address,address)": "e985e9c5",
					"mint(address,uint256,uint256,string)": "bb7fde71",
					"safeBatchTransferFrom(address,address,uint256[],uint256[],bytes)": "2eb2c2d6",
					"safeTransferFrom(address,address,uint256,uint256,bytes)": "f242432a",
					"setApprovalForAll(address,bool)": "a22cb465",
					"setBaseURI(string)": "55f804b3",
					"setTraderPermission(address,bool)": "d14186c6",
					"supportsInterface(bytes4)": "01ffc9a7",
					"tokenURIs(uint256)": "6c8b703f",
					"totalSupply(uint256)": "bd85b039",
					"uri(uint256)": "0e89341c"
				}
			},
			"storageLayout": {
				"storage": [
					{
						"astId": 25,
						"contract": "contracts/GU-NFT/GUCollections.sol:GUCollections",
						"label": "_balances",
						"offset": 0,
						"slot": "0",
						"type": "t_mapping(t_uint256,t_mapping(t_address,t_uint256))"
					},
					{
						"astId": 31,
						"contract": "contracts/GU-NFT/GUCollections.sol:GUCollections",
						"label": "_operatorApprovals",
						"offset": 0,
						"slot": "1",
						"type": "t_mapping(t_address,t_mapping(t_address,t_bool))"
					},
					{
						"astId": 33,
						"contract": "contracts/GU-NFT/GUCollections.sol:GUCollections",
						"label": "_uri",
						"offset": 0,
						"slot": "2",
						"type": "t_string_storage"
					},
					{
						"astId": 1395,
						"contract": "contracts/GU-NFT/GUCollections.sol:GUCollections",
						"label": "_totalSupply",
						"offset": 0,
						"slot": "3",
						"type": "t_mapping(t_uint256,t_uint256)"
					},
					{
						"astId": 2126,
						"contract": "contracts/GU-NFT/GUCollections.sol:GUCollections",
						"label": "_baseURI",
						"offset": 0,
						"slot": "4",
						"type": "t_string_storage"
					},
					{
						"astId": 2130,
						"contract": "contracts/GU-NFT/GUCollections.sol:GUCollections",
						"label": "_tokenURIs",
						"offset": 0,
						"slot": "5",
						"type": "t_mapping(t_uint256,t_string_storage)"
					},
					{
						"astId": 2227,
						"contract": "contracts/GU-NFT/GUCollections.sol:GUCollections",
						"label": "traders",
						"offset": 0,
						"slot": "6",
						"type": "t_mapping(t_address,t_bool)"
					},
					{
						"astId": 2229,
						"contract": "contracts/GU-NFT/GUCollections.sol:GUCollections",
						"label": "adminSafe",
						"offset": 0,
						"slot": "7",
						"type": "t_address"
					}
				],
				"types": {
					"t_address": {
						"encoding": "inplace",
						"label": "address",
						"numberOfBytes": "20"
					},
					"t_bool": {
						"encoding": "inplace",
						"label": "bool",
						"numberOfBytes": "1"
					},
					"t_mapping(t_address,t_bool)": {
						"encoding": "mapping",
						"key": "t_address",
						"label": "mapping(address => bool)",
						"numberOfBytes": "32",
						"value": "t_bool"
					},
					"t_mapping(t_address,t_mapping(t_address,t_bool))": {
						"encoding": "mapping",
						"key": "t_address",
						"label": "mapping(address => mapping(address => bool))",
						"numberOfBytes": "32",
						"value": "t_mapping(t_address,t_bool)"
					},
					"t_mapping(t_address,t_uint256)": {
						"encoding": "mapping",
						"key": "t_address",
						"label": "mapping(address => uint256)",
						"numberOfBytes": "32",
						"value": "t_uint256"
					},
					"t_mapping(t_uint256,t_mapping(t_address,t_uint256))": {
						"encoding": "mapping",
						"key": "t_uint256",
						"label": "mapping(uint256 => mapping(address => uint256))",
						"numberOfBytes": "32",
						"value": "t_mapping(t_address,t_uint256)"
					},
					"t_mapping(t_uint256,t_string_storage)": {
						"encoding": "mapping",
						"key": "t_uint256",
						"label": "mapping(uint256 => string)",
						"numberOfBytes": "32",
						"value": "t_string_storage"
					},
					"t_mapping(t_uint256,t_uint256)": {
						"encoding": "mapping",
						"key": "t_uint256",
						"label": "mapping(uint256 => uint256)",
						"numberOfBytes": "32",
						"value": "t_uint256"
					},
					"t_string_storage": {
						"encoding": "bytes",
						"label": "string",
						"numberOfBytes": "32"
					},
					"t_uint256": {
						"encoding": "inplace",
						"label": "uint256",
						"numberOfBytes": "32"
					}
				}
			},
			"userdoc": {
				"kind": "user",
				"methods": {},
				"version": 1
			}
		}
	}
}