{
	"contracts/GloballyUnitedCoin.sol": {
		"GloballyUnitedCoin": {
			"abi": [
				{
					"inputs": [],
					"stateMutability": "nonpayable",
					"type": "constructor"
				},
				{
					"anonymous": false,
					"inputs": [
						{
							"indexed": true,
							"internalType": "address",
							"name": "tokenOwner",
							"type": "address"
						},
						{
							"indexed": true,
							"internalType": "address",
							"name": "spender",
							"type": "address"
						},
						{
							"indexed": false,
							"internalType": "uint256",
							"name": "tokens",
							"type": "uint256"
						}
					],
					"name": "Approval",
					"type": "event"
				},
				{
					"anonymous": false,
					"inputs": [
						{
							"indexed": false,
							"internalType": "uint256",
							"name": "nonce",
							"type": "uint256"
						}
					],
					"name": "RegistrationFailed",
					"type": "event"
				},
				{
					"anonymous": false,
					"inputs": [
						{
							"indexed": false,
							"internalType": "uint256",
							"name": "nonce",
							"type": "uint256"
						}
					],
					"name": "RegistrationSuccessful",
					"type": "event"
				},
				{
					"anonymous": false,
					"inputs": [
						{
							"indexed": true,
							"internalType": "address",
							"name": "from",
							"type": "address"
						},
						{
							"indexed": true,
							"internalType": "address",
							"name": "to",
							"type": "address"
						},
						{
							"indexed": false,
							"internalType": "uint256",
							"name": "tokens",
							"type": "uint256"
						}
					],
					"name": "Transfer",
					"type": "event"
				},
				{
					"inputs": [
						{
							"internalType": "string",
							"name": "owner",
							"type": "string"
						},
						{
							"internalType": "string",
							"name": "delegate",
							"type": "string"
						}
					],
					"name": "allowance",
					"outputs": [
						{
							"internalType": "uint256",
							"name": "",
							"type": "uint256"
						}
					],
					"stateMutability": "view",
					"type": "function"
				},
				{
					"inputs": [
						{
							"internalType": "address",
							"name": "owner",
							"type": "address"
						},
						{
							"internalType": "address",
							"name": "delegate",
							"type": "address"
						}
					],
					"name": "allowance",
					"outputs": [
						{
							"internalType": "uint256",
							"name": "",
							"type": "uint256"
						}
					],
					"stateMutability": "view",
					"type": "function"
				},
				{
					"inputs": [
						{
							"internalType": "address",
							"name": "delegate",
							"type": "address"
						},
						{
							"internalType": "uint256",
							"name": "numTokens",
							"type": "uint256"
						}
					],
					"name": "approve",
					"outputs": [
						{
							"internalType": "bool",
							"name": "",
							"type": "bool"
						}
					],
					"stateMutability": "nonpayable",
					"type": "function"
				},
				{
					"inputs": [
						{
							"internalType": "string",
							"name": "delegate",
							"type": "string"
						},
						{
							"internalType": "uint256",
							"name": "numTokens",
							"type": "uint256"
						}
					],
					"name": "approve",
					"outputs": [
						{
							"internalType": "bool",
							"name": "",
							"type": "bool"
						}
					],
					"stateMutability": "nonpayable",
					"type": "function"
				},
				{
					"inputs": [
						{
							"internalType": "string",
							"name": "tokenOwner",
							"type": "string"
						}
					],
					"name": "balanceOf",
					"outputs": [
						{
							"internalType": "uint256",
							"name": "",
							"type": "uint256"
						}
					],
					"stateMutability": "view",
					"type": "function"
				},
				{
					"inputs": [
						{
							"internalType": "address",
							"name": "tokenOwner",
							"type": "address"
						}
					],
					"name": "balanceOf",
					"outputs": [
						{
							"internalType": "uint256",
							"name": "",
							"type": "uint256"
						}
					],
					"stateMutability": "view",
					"type": "function"
				},
				{
					"inputs": [],
					"name": "decimals",
					"outputs": [
						{
							"internalType": "uint8",
							"name": "",
							"type": "uint8"
						}
					],
					"stateMutability": "view",
					"type": "function"
				},
				{
					"inputs": [],
					"name": "name",
					"outputs": [
						{
							"internalType": "string",
							"name": "",
							"type": "string"
						}
					],
					"stateMutability": "view",
					"type": "function"
				},
				{
					"inputs": [
						{
							"internalType": "string",
							"name": "user",
							"type": "string"
						},
						{
							"internalType": "uint256",
							"name": "nonce",
							"type": "uint256"
						}
					],
					"name": "registerUser",
					"outputs": [
						{
							"internalType": "bool",
							"name": "",
							"type": "bool"
						}
					],
					"stateMutability": "nonpayable",
					"type": "function"
				},
				{
					"inputs": [],
					"name": "symbol",
					"outputs": [
						{
							"internalType": "string",
							"name": "",
							"type": "string"
						}
					],
					"stateMutability": "view",
					"type": "function"
				},
				{
					"inputs": [],
					"name": "totalSupply",
					"outputs": [
						{
							"internalType": "uint256",
							"name": "",
							"type": "uint256"
						}
					],
					"stateMutability": "view",
					"type": "function"
				},
				{
					"inputs": [
						{
							"internalType": "string",
							"name": "receiver",
							"type": "string"
						},
						{
							"internalType": "uint256",
							"name": "numTokens",
							"type": "uint256"
						}
					],
					"name": "transfer",
					"outputs": [
						{
							"internalType": "bool",
							"name": "",
							"type": "bool"
						}
					],
					"stateMutability": "nonpayable",
					"type": "function"
				},
				{
					"inputs": [
						{
							"internalType": "address",
							"name": "receiver",
							"type": "address"
						},
						{
							"internalType": "uint256",
							"name": "numTokens",
							"type": "uint256"
						}
					],
					"name": "transfer",
					"outputs": [
						{
							"internalType": "bool",
							"name": "",
							"type": "bool"
						}
					],
					"stateMutability": "nonpayable",
					"type": "function"
				},
				{
					"inputs": [
						{
							"internalType": "address",
							"name": "owner",
							"type": "address"
						},
						{
							"internalType": "address",
							"name": "buyer",
							"type": "address"
						},
						{
							"internalType": "uint256",
							"name": "numTokens",
							"type": "uint256"
						}
					],
					"name": "transferFrom",
					"outputs": [
						{
							"internalType": "bool",
							"name": "",
							"type": "bool"
						}
					],
					"stateMutability": "nonpayable",
					"type": "function"
				},
				{
					"inputs": [
						{
							"internalType": "string",
							"name": "owner",
							"type": "string"
						},
						{
							"internalType": "string",
							"name": "buyer",
							"type": "string"
						},
						{
							"internalType": "uint256",
							"name": "numTokens",
							"type": "uint256"
						}
					],
					"name": "transferFrom",
					"outputs": [
						{
							"internalType": "bool",
							"name": "",
							"type": "bool"
						}
					],
					"stateMutability": "nonpayable",
					"type": "function"
				},
				{
					"inputs": [
						{
							"internalType": "uint256",
							"name": "amount",
							"type": "uint256"
						}
					],
					"name": "withdraw",
					"outputs": [
						{
							"internalType": "uint256",
							"name": "",
							"type": "uint256"
						}
					],
					"stateMutability": "nonpayable",
					"type": "function"
				}
			],
			"devdoc": {
				"kind": "dev",
				"methods": {},
				"version": 1
			},
			"evm": {
				"assembly": "    /* \"contracts/GloballyUnitedCoin.sol\":1117:6241  contract GloballyUnitedCoin is ERC20Interface {\r... */\n  mstore(0x40, 0x80)\n    /* \"contracts/GloballyUnitedCoin.sol\":1351:1393  0xaf5e0Ea82A1a5110eeE147Efc8659c45526E9eB4 */\n  0xaf5e0ea82a1a5110eee147efc8659c45526e9eb4\n    /* \"contracts/GloballyUnitedCoin.sol\":1321:1393  address masterWalletAddress = 0xaf5e0Ea82A1a5110eeE147Efc8659c45526E9eB4 */\n  0x00\n  dup1\n  0x0100\n  exp\n  dup2\n  sload\n  dup2\n  0xffffffffffffffffffffffffffffffffffffffff\n  mul\n  not\n  and\n  swap1\n  dup4\n  0xffffffffffffffffffffffffffffffffffffffff\n  and\n  mul\n  or\n  swap1\n  sstore\n  pop\n    /* \"contracts/GloballyUnitedCoin.sol\":1786:1807  100000000000 * 10**18 */\n  0x01431e0fae6d7217caa0000000\n    /* \"contracts/GloballyUnitedCoin.sol\":1763:1807  uint256 totalSupply_ = 100000000000 * 10**18 */\n  0x03\n  sstore\n    /* \"contracts/GloballyUnitedCoin.sol\":1906:1974  constructor() {\r... */\n  callvalue\n  dup1\n  iszero\n  tag_1\n  jumpi\n  0x00\n  dup1\n  revert\ntag_1:\n  pop\n    /* \"contracts/GloballyUnitedCoin.sol\":1954:1966  totalSupply_ */\n  sload(0x03)\n    /* \"contracts/GloballyUnitedCoin.sol\":1931:1939  balances */\n  0x01\n    /* \"contracts/GloballyUnitedCoin.sol\":1931:1951  balances[msg.sender] */\n  0x00\n    /* \"contracts/GloballyUnitedCoin.sol\":1940:1950  msg.sender */\n  caller\n    /* \"contracts/GloballyUnitedCoin.sol\":1931:1951  balances[msg.sender] */\n  0xffffffffffffffffffffffffffffffffffffffff\n  and\n  0xffffffffffffffffffffffffffffffffffffffff\n  and\n  dup2\n  mstore\n  0x20\n  add\n  swap1\n  dup2\n  mstore\n  0x20\n  add\n  0x00\n  keccak256\n    /* \"contracts/GloballyUnitedCoin.sol\":1931:1966  balances[msg.sender] = totalSupply_ */\n  dup2\n  swap1\n  sstore\n  pop\n    /* \"contracts/GloballyUnitedCoin.sol\":1117:6241  contract GloballyUnitedCoin is ERC20Interface {\r... */\n  dataSize(sub_0)\n  dup1\n  dataOffset(sub_0)\n  0x00\n  codecopy\n  0x00\n  return\nstop\n\nsub_0: assembly {\n        /* \"contracts/GloballyUnitedCoin.sol\":1117:6241  contract GloballyUnitedCoin is ERC20Interface {\r... */\n      mstore(0x40, 0x80)\n      callvalue\n      dup1\n      iszero\n      tag_1\n      jumpi\n      0x00\n      dup1\n      revert\n    tag_1:\n      pop\n      jumpi(tag_2, lt(calldatasize, 0x04))\n      shr(0xe0, calldataload(0x00))\n      dup1\n      0x5d1b1e6d\n      gt\n      tag_19\n      jumpi\n      dup1\n      0xd3951002\n      gt\n      tag_20\n      jumpi\n      dup1\n      0xd3951002\n      eq\n      tag_15\n      jumpi\n      dup1\n      0xd5e1bdb3\n      eq\n      tag_16\n      jumpi\n      dup1\n      0xdd62ed3e\n      eq\n      tag_17\n      jumpi\n      dup1\n      0xff294f45\n      eq\n      tag_18\n      jumpi\n      jump(tag_2)\n    tag_20:\n      dup1\n      0x5d1b1e6d\n      eq\n      tag_11\n      jumpi\n      dup1\n      0x70a08231\n      eq\n      tag_12\n      jumpi\n      dup1\n      0x95d89b41\n      eq\n      tag_13\n      jumpi\n      dup1\n      0xa9059cbb\n      eq\n      tag_14\n      jumpi\n      jump(tag_2)\n    tag_19:\n      dup1\n      0x23b872dd\n      gt\n      tag_21\n      jumpi\n      dup1\n      0x23b872dd\n      eq\n      tag_7\n      jumpi\n      dup1\n      0x2e1a7d4d\n      eq\n      tag_8\n      jumpi\n      dup1\n      0x313ce567\n      eq\n      tag_9\n      jumpi\n      dup1\n      0x35ee5f87\n      eq\n      tag_10\n      jumpi\n      jump(tag_2)\n    tag_21:\n      dup1\n      0x06fdde03\n      eq\n      tag_3\n      jumpi\n      dup1\n      0x095ea7b3\n      eq\n      tag_4\n      jumpi\n      dup1\n      0x12cb70c7\n      eq\n      tag_5\n      jumpi\n      dup1\n      0x18160ddd\n      eq\n      tag_6\n      jumpi\n    tag_2:\n      0x00\n      dup1\n      revert\n        /* \"contracts/GloballyUnitedCoin.sol\":1176:1228  string public constant name = 'Globally United Coin' */\n    tag_3:\n      tag_22\n      tag_23\n      jump\t// in\n    tag_22:\n      mload(0x40)\n      tag_24\n      swap2\n      swap1\n      tag_25\n      jump\t// in\n    tag_24:\n      mload(0x40)\n      dup1\n      swap2\n      sub\n      swap1\n      return\n        /* \"contracts/GloballyUnitedCoin.sol\":3592:3813  function approve(address delegate, uint numTokens) public override returns (bool) {\r... */\n    tag_4:\n      tag_26\n      0x04\n      dup1\n      calldatasize\n      sub\n      dup2\n      add\n      swap1\n      tag_27\n      swap2\n      swap1\n      tag_28\n      jump\t// in\n    tag_27:\n      tag_29\n      jump\t// in\n    tag_26:\n      mload(0x40)\n      tag_30\n      swap2\n      swap1\n      tag_31\n      jump\t// in\n    tag_30:\n      mload(0x40)\n      dup1\n      swap2\n      sub\n      swap1\n      return\n        /* \"contracts/GloballyUnitedCoin.sol\":3120:3580  function transfer(string memory receiver, uint numTokens) public returns (bool) {\r... */\n    tag_5:\n      tag_32\n      0x04\n      dup1\n      calldatasize\n      sub\n      dup2\n      add\n      swap1\n      tag_33\n      swap2\n      swap1\n      tag_34\n      jump\t// in\n    tag_33:\n      tag_35\n      jump\t// in\n    tag_32:\n      mload(0x40)\n      tag_36\n      swap2\n      swap1\n      tag_31\n      jump\t// in\n    tag_36:\n      mload(0x40)\n      dup1\n      swap2\n      sub\n      swap1\n      return\n        /* \"contracts/GloballyUnitedCoin.sol\":2273:2373  function totalSupply() public override view returns (uint256) {\r... */\n    tag_6:\n      tag_37\n      tag_38\n      jump\t// in\n    tag_37:\n      mload(0x40)\n      tag_39\n      swap2\n      swap1\n      tag_40\n      jump\t// in\n    tag_39:\n      mload(0x40)\n      dup1\n      swap2\n      sub\n      swap1\n      return\n        /* \"contracts/GloballyUnitedCoin.sol\":4633:5127  function transferFrom(address owner, address buyer, uint numTokens) public override returns (bool) {\r... */\n    tag_7:\n      tag_41\n      0x04\n      dup1\n      calldatasize\n      sub\n      dup2\n      add\n      swap1\n      tag_42\n      swap2\n      swap1\n      tag_43\n      jump\t// in\n    tag_42:\n      tag_44\n      jump\t// in\n    tag_41:\n      mload(0x40)\n      tag_45\n      swap2\n      swap1\n      tag_31\n      jump\t// in\n    tag_45:\n      mload(0x40)\n      dup1\n      swap2\n      sub\n      swap1\n      return\n        /* \"contracts/GloballyUnitedCoin.sol\":1986:2261  function withdraw(uint256 amount) public onlyWhitelist returns (uint256) {\r... */\n    tag_8:\n      tag_46\n      0x04\n      dup1\n      calldatasize\n      sub\n      dup2\n      add\n      swap1\n      tag_47\n      swap2\n      swap1\n      tag_48\n      jump\t// in\n    tag_47:\n      tag_49\n      jump\t// in\n    tag_46:\n      mload(0x40)\n      tag_50\n      swap2\n      swap1\n      tag_40\n      jump\t// in\n    tag_50:\n      mload(0x40)\n      dup1\n      swap2\n      sub\n      swap1\n      return\n        /* \"contracts/GloballyUnitedCoin.sol\":1279:1314  uint8 public constant decimals = 18 */\n    tag_9:\n      tag_51\n      tag_52\n      jump\t// in\n    tag_51:\n      mload(0x40)\n      tag_53\n      swap2\n      swap1\n      tag_54\n      jump\t// in\n    tag_53:\n      mload(0x40)\n      dup1\n      swap2\n      sub\n      swap1\n      return\n        /* \"contracts/GloballyUnitedCoin.sol\":2518:2716  function balanceOf(string memory tokenOwner) public view returns (uint) {\r... */\n    tag_10:\n      tag_55\n      0x04\n      dup1\n      calldatasize\n      sub\n      dup2\n      add\n      swap1\n      tag_56\n      swap2\n      swap1\n      tag_57\n      jump\t// in\n    tag_56:\n      tag_58\n      jump\t// in\n    tag_55:\n      mload(0x40)\n      tag_59\n      swap2\n      swap1\n      tag_40\n      jump\t// in\n    tag_59:\n      mload(0x40)\n      dup1\n      swap2\n      sub\n      swap1\n      return\n        /* \"contracts/GloballyUnitedCoin.sol\":5139:5868  function transferFrom(string memory owner, string memory buyer, uint numTokens) public returns (bool) {\r... */\n    tag_11:\n      tag_60\n      0x04\n      dup1\n      calldatasize\n      sub\n      dup2\n      add\n      swap1\n      tag_61\n      swap2\n      swap1\n      tag_62\n      jump\t// in\n    tag_61:\n      tag_63\n      jump\t// in\n    tag_60:\n      mload(0x40)\n      tag_64\n      swap2\n      swap1\n      tag_31\n      jump\t// in\n    tag_64:\n      mload(0x40)\n      dup1\n      swap2\n      sub\n      swap1\n      return\n        /* \"contracts/GloballyUnitedCoin.sol\":2385:2506  function balanceOf(address tokenOwner) public override view returns (uint) {\r... */\n    tag_12:\n      tag_65\n      0x04\n      dup1\n      calldatasize\n      sub\n      dup2\n      add\n      swap1\n      tag_66\n      swap2\n      swap1\n      tag_67\n      jump\t// in\n    tag_66:\n      tag_68\n      jump\t// in\n    tag_65:\n      mload(0x40)\n      tag_69\n      swap2\n      swap1\n      tag_40\n      jump\t// in\n    tag_69:\n      mload(0x40)\n      dup1\n      swap2\n      sub\n      swap1\n      return\n        /* \"contracts/GloballyUnitedCoin.sol\":1235:1272  string public constant symbol = 'GUC' */\n    tag_13:\n      tag_70\n      tag_71\n      jump\t// in\n    tag_70:\n      mload(0x40)\n      tag_72\n      swap2\n      swap1\n      tag_25\n      jump\t// in\n    tag_72:\n      mload(0x40)\n      dup1\n      swap2\n      sub\n      swap1\n      return\n        /* \"contracts/GloballyUnitedCoin.sol\":2728:3108  function transfer(address receiver, uint numTokens) public override returns (bool) {\r... */\n    tag_14:\n      tag_73\n      0x04\n      dup1\n      calldatasize\n      sub\n      dup2\n      add\n      swap1\n      tag_74\n      swap2\n      swap1\n      tag_28\n      jump\t// in\n    tag_74:\n      tag_75\n      jump\t// in\n    tag_73:\n      mload(0x40)\n      tag_76\n      swap2\n      swap1\n      tag_31\n      jump\t// in\n    tag_76:\n      mload(0x40)\n      dup1\n      swap2\n      sub\n      swap1\n      return\n        /* \"contracts/GloballyUnitedCoin.sol\":5880:6238  function registerUser(string memory user, uint256 nonce) public returns (bool) {\r... */\n    tag_15:\n      tag_77\n      0x04\n      dup1\n      calldatasize\n      sub\n      dup2\n      add\n      swap1\n      tag_78\n      swap2\n      swap1\n      tag_34\n      jump\t// in\n    tag_78:\n      tag_79\n      jump\t// in\n    tag_77:\n      mload(0x40)\n      tag_80\n      swap2\n      swap1\n      tag_31\n      jump\t// in\n    tag_80:\n      mload(0x40)\n      dup1\n      swap2\n      sub\n      swap1\n      return\n        /* \"contracts/GloballyUnitedCoin.sol\":4304:4620  function allowance(string memory owner, string memory delegate) public view returns (uint) {\r... */\n    tag_16:\n      tag_81\n      0x04\n      dup1\n      calldatasize\n      sub\n      dup2\n      add\n      swap1\n      tag_82\n      swap2\n      swap1\n      tag_83\n      jump\t// in\n    tag_82:\n      tag_84\n      jump\t// in\n    tag_81:\n      mload(0x40)\n      tag_85\n      swap2\n      swap1\n      tag_40\n      jump\t// in\n    tag_85:\n      mload(0x40)\n      dup1\n      swap2\n      sub\n      swap1\n      return\n        /* \"contracts/GloballyUnitedCoin.sol\":4154:4292  function allowance(address owner, address delegate) public override view returns (uint) {\r... */\n    tag_17:\n      tag_86\n      0x04\n      dup1\n      calldatasize\n      sub\n      dup2\n      add\n      swap1\n      tag_87\n      swap2\n      swap1\n      tag_88\n      jump\t// in\n    tag_87:\n      tag_89\n      jump\t// in\n    tag_86:\n      mload(0x40)\n      tag_90\n      swap2\n      swap1\n      tag_40\n      jump\t// in\n    tag_90:\n      mload(0x40)\n      dup1\n      swap2\n      sub\n      swap1\n      return\n        /* \"contracts/GloballyUnitedCoin.sol\":3825:4142  function approve(string memory delegate, uint numTokens) public returns (bool) {\r... */\n    tag_18:\n      tag_91\n      0x04\n      dup1\n      calldatasize\n      sub\n      dup2\n      add\n      swap1\n      tag_92\n      swap2\n      swap1\n      tag_34\n      jump\t// in\n    tag_92:\n      tag_93\n      jump\t// in\n    tag_91:\n      mload(0x40)\n      tag_94\n      swap2\n      swap1\n      tag_31\n      jump\t// in\n    tag_94:\n      mload(0x40)\n      dup1\n      swap2\n      sub\n      swap1\n      return\n        /* \"contracts/GloballyUnitedCoin.sol\":1176:1228  string public constant name = 'Globally United Coin' */\n    tag_23:\n      mload(0x40)\n      dup1\n      0x40\n      add\n      0x40\n      mstore\n      dup1\n      0x14\n      dup2\n      mstore\n      0x20\n      add\n      0x476c6f62616c6c7920556e6974656420436f696e000000000000000000000000\n      dup2\n      mstore\n      pop\n      dup2\n      jump\t// out\n        /* \"contracts/GloballyUnitedCoin.sol\":3592:3813  function approve(address delegate, uint numTokens) public override returns (bool) {\r... */\n    tag_29:\n        /* \"contracts/GloballyUnitedCoin.sol\":3668:3672  bool */\n      0x00\n        /* \"contracts/GloballyUnitedCoin.sol\":3717:3726  numTokens */\n      dup2\n        /* \"contracts/GloballyUnitedCoin.sol\":3685:3692  allowed */\n      0x02\n        /* \"contracts/GloballyUnitedCoin.sol\":3685:3704  allowed[msg.sender] */\n      0x00\n        /* \"contracts/GloballyUnitedCoin.sol\":3693:3703  msg.sender */\n      caller\n        /* \"contracts/GloballyUnitedCoin.sol\":3685:3704  allowed[msg.sender] */\n      0xffffffffffffffffffffffffffffffffffffffff\n      and\n      0xffffffffffffffffffffffffffffffffffffffff\n      and\n      dup2\n      mstore\n      0x20\n      add\n      swap1\n      dup2\n      mstore\n      0x20\n      add\n      0x00\n      keccak256\n        /* \"contracts/GloballyUnitedCoin.sol\":3685:3714  allowed[msg.sender][delegate] */\n      0x00\n        /* \"contracts/GloballyUnitedCoin.sol\":3705:3713  delegate */\n      dup6\n        /* \"contracts/GloballyUnitedCoin.sol\":3685:3714  allowed[msg.sender][delegate] */\n      0xffffffffffffffffffffffffffffffffffffffff\n      and\n      0xffffffffffffffffffffffffffffffffffffffff\n      and\n      dup2\n      mstore\n      0x20\n      add\n      swap1\n      dup2\n      mstore\n      0x20\n      add\n      0x00\n      keccak256\n        /* \"contracts/GloballyUnitedCoin.sol\":3685:3726  allowed[msg.sender][delegate] = numTokens */\n      dup2\n      swap1\n      sstore\n      pop\n        /* \"contracts/GloballyUnitedCoin.sol\":3763:3771  delegate */\n      dup3\n        /* \"contracts/GloballyUnitedCoin.sol\":3742:3783  Approval(msg.sender, delegate, numTokens) */\n      0xffffffffffffffffffffffffffffffffffffffff\n      and\n        /* \"contracts/GloballyUnitedCoin.sol\":3751:3761  msg.sender */\n      caller\n        /* \"contracts/GloballyUnitedCoin.sol\":3742:3783  Approval(msg.sender, delegate, numTokens) */\n      0xffffffffffffffffffffffffffffffffffffffff\n      and\n      0x8c5be1e5ebec7d5bd14f71427d1e84f3dd0314c0f7b2291e5b200ac8c7c3b925\n        /* \"contracts/GloballyUnitedCoin.sol\":3773:3782  numTokens */\n      dup5\n        /* \"contracts/GloballyUnitedCoin.sol\":3742:3783  Approval(msg.sender, delegate, numTokens) */\n      mload(0x40)\n      tag_96\n      swap2\n      swap1\n      tag_40\n      jump\t// in\n    tag_96:\n      mload(0x40)\n      dup1\n      swap2\n      sub\n      swap1\n      log3\n        /* \"contracts/GloballyUnitedCoin.sol\":3801:3805  true */\n      0x01\n        /* \"contracts/GloballyUnitedCoin.sol\":3794:3805  return true */\n      swap1\n      pop\n        /* \"contracts/GloballyUnitedCoin.sol\":3592:3813  function approve(address delegate, uint numTokens) public override returns (bool) {\r... */\n      swap3\n      swap2\n      pop\n      pop\n      jump\t// out\n        /* \"contracts/GloballyUnitedCoin.sol\":3120:3580  function transfer(string memory receiver, uint numTokens) public returns (bool) {\r... */\n    tag_35:\n        /* \"contracts/GloballyUnitedCoin.sol\":3194:3198  bool */\n      0x00\n        /* \"contracts/GloballyUnitedCoin.sol\":3211:3234  address receiverAddress */\n      dup1\n        /* \"contracts/GloballyUnitedCoin.sol\":3263:3275  addressTable */\n      0x04\n        /* \"contracts/GloballyUnitedCoin.sol\":3276:3284  receiver */\n      dup5\n        /* \"contracts/GloballyUnitedCoin.sol\":3263:3285  addressTable[receiver] */\n      mload(0x40)\n      tag_98\n      swap2\n      swap1\n      tag_99\n      jump\t// in\n    tag_98:\n      swap1\n      dup2\n      mstore\n      0x20\n      add\n      mload(0x40)\n      dup1\n      swap2\n      sub\n      swap1\n      keccak256\n      0x00\n      swap1\n      sload\n      swap1\n      0x0100\n      exp\n      swap1\n      div\n      0xffffffffffffffffffffffffffffffffffffffff\n      and\n        /* \"contracts/GloballyUnitedCoin.sol\":3245:3285  receiverAddress = addressTable[receiver] */\n      swap1\n      pop\n        /* \"contracts/GloballyUnitedCoin.sol\":3317:3325  balances */\n      0x01\n        /* \"contracts/GloballyUnitedCoin.sol\":3317:3337  balances[msg.sender] */\n      0x00\n        /* \"contracts/GloballyUnitedCoin.sol\":3326:3336  msg.sender */\n      caller\n        /* \"contracts/GloballyUnitedCoin.sol\":3317:3337  balances[msg.sender] */\n      0xffffffffffffffffffffffffffffffffffffffff\n      and\n      0xffffffffffffffffffffffffffffffffffffffff\n      and\n      dup2\n      mstore\n      0x20\n      add\n      swap1\n      dup2\n      mstore\n      0x20\n      add\n      0x00\n      keccak256\n      sload\n        /* \"contracts/GloballyUnitedCoin.sol\":3304:3313  numTokens */\n      dup4\n        /* \"contracts/GloballyUnitedCoin.sol\":3304:3337  numTokens <= balances[msg.sender] */\n      gt\n      iszero\n        /* \"contracts/GloballyUnitedCoin.sol\":3296:3338  require(numTokens <= balances[msg.sender]) */\n      tag_100\n      jumpi\n      0x00\n      dup1\n      revert\n    tag_100:\n        /* \"contracts/GloballyUnitedCoin.sol\":3372:3407  balances[msg.sender].sub(numTokens) */\n      tag_101\n        /* \"contracts/GloballyUnitedCoin.sol\":3397:3406  numTokens */\n      dup4\n        /* \"contracts/GloballyUnitedCoin.sol\":3372:3380  balances */\n      0x01\n        /* \"contracts/GloballyUnitedCoin.sol\":3372:3392  balances[msg.sender] */\n      0x00\n        /* \"contracts/GloballyUnitedCoin.sol\":3381:3391  msg.sender */\n      caller\n        /* \"contracts/GloballyUnitedCoin.sol\":3372:3392  balances[msg.sender] */\n      0xffffffffffffffffffffffffffffffffffffffff\n      and\n      0xffffffffffffffffffffffffffffffffffffffff\n      and\n      dup2\n      mstore\n      0x20\n      add\n      swap1\n      dup2\n      mstore\n      0x20\n      add\n      0x00\n      keccak256\n      sload\n        /* \"contracts/GloballyUnitedCoin.sol\":3372:3396  balances[msg.sender].sub */\n      tag_102\n      swap1\n        /* \"contracts/GloballyUnitedCoin.sol\":3372:3407  balances[msg.sender].sub(numTokens) */\n      swap2\n      swap1\n      0xffffffff\n      and\n      jump\t// in\n    tag_101:\n        /* \"contracts/GloballyUnitedCoin.sol\":3349:3357  balances */\n      0x01\n        /* \"contracts/GloballyUnitedCoin.sol\":3349:3369  balances[msg.sender] */\n      0x00\n        /* \"contracts/GloballyUnitedCoin.sol\":3358:3368  msg.sender */\n      caller\n        /* \"contracts/GloballyUnitedCoin.sol\":3349:3369  balances[msg.sender] */\n      0xffffffffffffffffffffffffffffffffffffffff\n      and\n      0xffffffffffffffffffffffffffffffffffffffff\n      and\n      dup2\n      mstore\n      0x20\n      add\n      swap1\n      dup2\n      mstore\n      0x20\n      add\n      0x00\n      keccak256\n        /* \"contracts/GloballyUnitedCoin.sol\":3349:3407  balances[msg.sender] = balances[msg.sender].sub(numTokens) */\n      dup2\n      swap1\n      sstore\n      pop\n        /* \"contracts/GloballyUnitedCoin.sol\":3446:3486  balances[receiverAddress].add(numTokens) */\n      tag_103\n        /* \"contracts/GloballyUnitedCoin.sol\":3476:3485  numTokens */\n      dup4\n        /* \"contracts/GloballyUnitedCoin.sol\":3446:3454  balances */\n      0x01\n        /* \"contracts/GloballyUnitedCoin.sol\":3446:3471  balances[receiverAddress] */\n      0x00\n        /* \"contracts/GloballyUnitedCoin.sol\":3455:3470  receiverAddress */\n      dup5\n        /* \"contracts/GloballyUnitedCoin.sol\":3446:3471  balances[receiverAddress] */\n      0xffffffffffffffffffffffffffffffffffffffff\n      and\n      0xffffffffffffffffffffffffffffffffffffffff\n      and\n      dup2\n      mstore\n      0x20\n      add\n      swap1\n      dup2\n      mstore\n      0x20\n      add\n      0x00\n      keccak256\n      sload\n        /* \"contracts/GloballyUnitedCoin.sol\":3446:3475  balances[receiverAddress].add */\n      tag_104\n      swap1\n        /* \"contracts/GloballyUnitedCoin.sol\":3446:3486  balances[receiverAddress].add(numTokens) */\n      swap2\n      swap1\n      0xffffffff\n      and\n      jump\t// in\n    tag_103:\n        /* \"contracts/GloballyUnitedCoin.sol\":3418:3426  balances */\n      0x01\n        /* \"contracts/GloballyUnitedCoin.sol\":3418:3443  balances[receiverAddress] */\n      0x00\n        /* \"contracts/GloballyUnitedCoin.sol\":3427:3442  receiverAddress */\n      dup4\n        /* \"contracts/GloballyUnitedCoin.sol\":3418:3443  balances[receiverAddress] */\n      0xffffffffffffffffffffffffffffffffffffffff\n      and\n      0xffffffffffffffffffffffffffffffffffffffff\n      and\n      dup2\n      mstore\n      0x20\n      add\n      swap1\n      dup2\n      mstore\n      0x20\n      add\n      0x00\n      keccak256\n        /* \"contracts/GloballyUnitedCoin.sol\":3418:3486  balances[receiverAddress] = balances[receiverAddress].add(numTokens) */\n      dup2\n      swap1\n      sstore\n      pop\n        /* \"contracts/GloballyUnitedCoin.sol\":3523:3538  receiverAddress */\n      dup1\n        /* \"contracts/GloballyUnitedCoin.sol\":3502:3550  Transfer(msg.sender, receiverAddress, numTokens) */\n      0xffffffffffffffffffffffffffffffffffffffff\n      and\n        /* \"contracts/GloballyUnitedCoin.sol\":3511:3521  msg.sender */\n      caller\n        /* \"contracts/GloballyUnitedCoin.sol\":3502:3550  Transfer(msg.sender, receiverAddress, numTokens) */\n      0xffffffffffffffffffffffffffffffffffffffff\n      and\n      0xddf252ad1be2c89b69c2b068fc378daa952ba7f163c4a11628f55a4df523b3ef\n        /* \"contracts/GloballyUnitedCoin.sol\":3540:3549  numTokens */\n      dup6\n        /* \"contracts/GloballyUnitedCoin.sol\":3502:3550  Transfer(msg.sender, receiverAddress, numTokens) */\n      mload(0x40)\n      tag_105\n      swap2\n      swap1\n      tag_40\n      jump\t// in\n    tag_105:\n      mload(0x40)\n      dup1\n      swap2\n      sub\n      swap1\n      log3\n        /* \"contracts/GloballyUnitedCoin.sol\":3568:3572  true */\n      0x01\n        /* \"contracts/GloballyUnitedCoin.sol\":3561:3572  return true */\n      swap2\n      pop\n      pop\n        /* \"contracts/GloballyUnitedCoin.sol\":3120:3580  function transfer(string memory receiver, uint numTokens) public returns (bool) {\r... */\n      swap3\n      swap2\n      pop\n      pop\n      jump\t// out\n        /* \"contracts/GloballyUnitedCoin.sol\":2273:2373  function totalSupply() public override view returns (uint256) {\r... */\n    tag_38:\n        /* \"contracts/GloballyUnitedCoin.sol\":2326:2333  uint256 */\n      0x00\n        /* \"contracts/GloballyUnitedCoin.sol\":2353:2365  totalSupply_ */\n      sload(0x03)\n        /* \"contracts/GloballyUnitedCoin.sol\":2346:2365  return totalSupply_ */\n      swap1\n      pop\n        /* \"contracts/GloballyUnitedCoin.sol\":2273:2373  function totalSupply() public override view returns (uint256) {\r... */\n      swap1\n      jump\t// out\n        /* \"contracts/GloballyUnitedCoin.sol\":4633:5127  function transferFrom(address owner, address buyer, uint numTokens) public override returns (bool) {\r... */\n    tag_44:\n        /* \"contracts/GloballyUnitedCoin.sol\":4726:4730  bool */\n      0x00\n        /* \"contracts/GloballyUnitedCoin.sol\":4764:4772  balances */\n      0x01\n        /* \"contracts/GloballyUnitedCoin.sol\":4764:4779  balances[owner] */\n      0x00\n        /* \"contracts/GloballyUnitedCoin.sol\":4773:4778  owner */\n      dup6\n        /* \"contracts/GloballyUnitedCoin.sol\":4764:4779  balances[owner] */\n      0xffffffffffffffffffffffffffffffffffffffff\n      and\n      0xffffffffffffffffffffffffffffffffffffffff\n      and\n      dup2\n      mstore\n      0x20\n      add\n      swap1\n      dup2\n      mstore\n      0x20\n      add\n      0x00\n      keccak256\n      sload\n        /* \"contracts/GloballyUnitedCoin.sol\":4751:4760  numTokens */\n      dup3\n        /* \"contracts/GloballyUnitedCoin.sol\":4751:4779  numTokens <= balances[owner] */\n      gt\n      iszero\n        /* \"contracts/GloballyUnitedCoin.sol\":4743:4780  require(numTokens <= balances[owner]) */\n      tag_108\n      jumpi\n      0x00\n      dup1\n      revert\n    tag_108:\n        /* \"contracts/GloballyUnitedCoin.sol\":4816:4823  allowed */\n      0x02\n        /* \"contracts/GloballyUnitedCoin.sol\":4816:4830  allowed[owner] */\n      0x00\n        /* \"contracts/GloballyUnitedCoin.sol\":4824:4829  owner */\n      dup6\n        /* \"contracts/GloballyUnitedCoin.sol\":4816:4830  allowed[owner] */\n      0xffffffffffffffffffffffffffffffffffffffff\n      and\n      0xffffffffffffffffffffffffffffffffffffffff\n      and\n      dup2\n      mstore\n      0x20\n      add\n      swap1\n      dup2\n      mstore\n      0x20\n      add\n      0x00\n      keccak256\n        /* \"contracts/GloballyUnitedCoin.sol\":4816:4842  allowed[owner][msg.sender] */\n      0x00\n        /* \"contracts/GloballyUnitedCoin.sol\":4831:4841  msg.sender */\n      caller\n        /* \"contracts/GloballyUnitedCoin.sol\":4816:4842  allowed[owner][msg.sender] */\n      0xffffffffffffffffffffffffffffffffffffffff\n      and\n      0xffffffffffffffffffffffffffffffffffffffff\n      and\n      dup2\n      mstore\n      0x20\n      add\n      swap1\n      dup2\n      mstore\n      0x20\n      add\n      0x00\n      keccak256\n      sload\n        /* \"contracts/GloballyUnitedCoin.sol\":4803:4812  numTokens */\n      dup3\n        /* \"contracts/GloballyUnitedCoin.sol\":4803:4842  numTokens <= allowed[owner][msg.sender] */\n      gt\n      iszero\n        /* \"contracts/GloballyUnitedCoin.sol\":4795:4843  require(numTokens <= allowed[owner][msg.sender]) */\n      tag_109\n      jumpi\n      0x00\n      dup1\n      revert\n    tag_109:\n        /* \"contracts/GloballyUnitedCoin.sol\":4878:4908  balances[owner].sub(numTokens) */\n      tag_110\n        /* \"contracts/GloballyUnitedCoin.sol\":4898:4907  numTokens */\n      dup3\n        /* \"contracts/GloballyUnitedCoin.sol\":4878:4886  balances */\n      0x01\n        /* \"contracts/GloballyUnitedCoin.sol\":4878:4893  balances[owner] */\n      0x00\n        /* \"contracts/GloballyUnitedCoin.sol\":4887:4892  owner */\n      dup8\n        /* \"contracts/GloballyUnitedCoin.sol\":4878:4893  balances[owner] */\n      0xffffffffffffffffffffffffffffffffffffffff\n      and\n      0xffffffffffffffffffffffffffffffffffffffff\n      and\n      dup2\n      mstore\n      0x20\n      add\n      swap1\n      dup2\n      mstore\n      0x20\n      add\n      0x00\n      keccak256\n      sload\n        /* \"contracts/GloballyUnitedCoin.sol\":4878:4897  balances[owner].sub */\n      tag_102\n      swap1\n        /* \"contracts/GloballyUnitedCoin.sol\":4878:4908  balances[owner].sub(numTokens) */\n      swap2\n      swap1\n      0xffffffff\n      and\n      jump\t// in\n    tag_110:\n        /* \"contracts/GloballyUnitedCoin.sol\":4860:4868  balances */\n      0x01\n        /* \"contracts/GloballyUnitedCoin.sol\":4860:4875  balances[owner] */\n      0x00\n        /* \"contracts/GloballyUnitedCoin.sol\":4869:4874  owner */\n      dup7\n        /* \"contracts/GloballyUnitedCoin.sol\":4860:4875  balances[owner] */\n      0xffffffffffffffffffffffffffffffffffffffff\n      and\n      0xffffffffffffffffffffffffffffffffffffffff\n      and\n      dup2\n      mstore\n      0x20\n      add\n      swap1\n      dup2\n      mstore\n      0x20\n      add\n      0x00\n      keccak256\n        /* \"contracts/GloballyUnitedCoin.sol\":4860:4908  balances[owner] = balances[owner].sub(numTokens) */\n      dup2\n      swap1\n      sstore\n      pop\n        /* \"contracts/GloballyUnitedCoin.sol\":4948:4989  allowed[owner][msg.sender].sub(numTokens) */\n      tag_111\n        /* \"contracts/GloballyUnitedCoin.sol\":4979:4988  numTokens */\n      dup3\n        /* \"contracts/GloballyUnitedCoin.sol\":4948:4955  allowed */\n      0x02\n        /* \"contracts/GloballyUnitedCoin.sol\":4948:4962  allowed[owner] */\n      0x00\n        /* \"contracts/GloballyUnitedCoin.sol\":4956:4961  owner */\n      dup8\n        /* \"contracts/GloballyUnitedCoin.sol\":4948:4962  allowed[owner] */\n      0xffffffffffffffffffffffffffffffffffffffff\n      and\n      0xffffffffffffffffffffffffffffffffffffffff\n      and\n      dup2\n      mstore\n      0x20\n      add\n      swap1\n      dup2\n      mstore\n      0x20\n      add\n      0x00\n      keccak256\n        /* \"contracts/GloballyUnitedCoin.sol\":4948:4974  allowed[owner][msg.sender] */\n      0x00\n        /* \"contracts/GloballyUnitedCoin.sol\":4963:4973  msg.sender */\n      caller\n        /* \"contracts/GloballyUnitedCoin.sol\":4948:4974  allowed[owner][msg.sender] */\n      0xffffffffffffffffffffffffffffffffffffffff\n      and\n      0xffffffffffffffffffffffffffffffffffffffff\n      and\n      dup2\n      mstore\n      0x20\n      add\n      swap1\n      dup2\n      mstore\n      0x20\n      add\n      0x00\n      keccak256\n      sload\n        /* \"contracts/GloballyUnitedCoin.sol\":4948:4978  allowed[owner][msg.sender].sub */\n      tag_102\n      swap1\n        /* \"contracts/GloballyUnitedCoin.sol\":4948:4989  allowed[owner][msg.sender].sub(numTokens) */\n      swap2\n      swap1\n      0xffffffff\n      and\n      jump\t// in\n    tag_111:\n        /* \"contracts/GloballyUnitedCoin.sol\":4919:4926  allowed */\n      0x02\n        /* \"contracts/GloballyUnitedCoin.sol\":4919:4933  allowed[owner] */\n      0x00\n        /* \"contracts/GloballyUnitedCoin.sol\":4927:4932  owner */\n      dup7\n        /* \"contracts/GloballyUnitedCoin.sol\":4919:4933  allowed[owner] */\n      0xffffffffffffffffffffffffffffffffffffffff\n      and\n      0xffffffffffffffffffffffffffffffffffffffff\n      and\n      dup2\n      mstore\n      0x20\n      add\n      swap1\n      dup2\n      mstore\n      0x20\n      add\n      0x00\n      keccak256\n        /* \"contracts/GloballyUnitedCoin.sol\":4919:4945  allowed[owner][msg.sender] */\n      0x00\n        /* \"contracts/GloballyUnitedCoin.sol\":4934:4944  msg.sender */\n      caller\n        /* \"contracts/GloballyUnitedCoin.sol\":4919:4945  allowed[owner][msg.sender] */\n      0xffffffffffffffffffffffffffffffffffffffff\n      and\n      0xffffffffffffffffffffffffffffffffffffffff\n      and\n      dup2\n      mstore\n      0x20\n      add\n      swap1\n      dup2\n      mstore\n      0x20\n      add\n      0x00\n      keccak256\n        /* \"contracts/GloballyUnitedCoin.sol\":4919:4989  allowed[owner][msg.sender] = allowed[owner][msg.sender].sub(numTokens) */\n      dup2\n      swap1\n      sstore\n      pop\n        /* \"contracts/GloballyUnitedCoin.sol\":5018:5048  balances[buyer].add(numTokens) */\n      tag_112\n        /* \"contracts/GloballyUnitedCoin.sol\":5038:5047  numTokens */\n      dup3\n        /* \"contracts/GloballyUnitedCoin.sol\":5018:5026  balances */\n      0x01\n        /* \"contracts/GloballyUnitedCoin.sol\":5018:5033  balances[buyer] */\n      0x00\n        /* \"contracts/GloballyUnitedCoin.sol\":5027:5032  buyer */\n      dup7\n        /* \"contracts/GloballyUnitedCoin.sol\":5018:5033  balances[buyer] */\n      0xffffffffffffffffffffffffffffffffffffffff\n      and\n      0xffffffffffffffffffffffffffffffffffffffff\n      and\n      dup2\n      mstore\n      0x20\n      add\n      swap1\n      dup2\n      mstore\n      0x20\n      add\n      0x00\n      keccak256\n      sload\n        /* \"contracts/GloballyUnitedCoin.sol\":5018:5037  balances[buyer].add */\n      tag_104\n      swap1\n        /* \"contracts/GloballyUnitedCoin.sol\":5018:5048  balances[buyer].add(numTokens) */\n      swap2\n      swap1\n      0xffffffff\n      and\n      jump\t// in\n    tag_112:\n        /* \"contracts/GloballyUnitedCoin.sol\":5000:5008  balances */\n      0x01\n        /* \"contracts/GloballyUnitedCoin.sol\":5000:5015  balances[buyer] */\n      0x00\n        /* \"contracts/GloballyUnitedCoin.sol\":5009:5014  buyer */\n      dup6\n        /* \"contracts/GloballyUnitedCoin.sol\":5000:5015  balances[buyer] */\n      0xffffffffffffffffffffffffffffffffffffffff\n      and\n      0xffffffffffffffffffffffffffffffffffffffff\n      and\n      dup2\n      mstore\n      0x20\n      add\n      swap1\n      dup2\n      mstore\n      0x20\n      add\n      0x00\n      keccak256\n        /* \"contracts/GloballyUnitedCoin.sol\":5000:5048  balances[buyer] = balances[buyer].add(numTokens) */\n      dup2\n      swap1\n      sstore\n      pop\n        /* \"contracts/GloballyUnitedCoin.sol\":5080:5085  buyer */\n      dup3\n        /* \"contracts/GloballyUnitedCoin.sol\":5064:5097  Transfer(owner, buyer, numTokens) */\n      0xffffffffffffffffffffffffffffffffffffffff\n      and\n        /* \"contracts/GloballyUnitedCoin.sol\":5073:5078  owner */\n      dup5\n        /* \"contracts/GloballyUnitedCoin.sol\":5064:5097  Transfer(owner, buyer, numTokens) */\n      0xffffffffffffffffffffffffffffffffffffffff\n      and\n      0xddf252ad1be2c89b69c2b068fc378daa952ba7f163c4a11628f55a4df523b3ef\n        /* \"contracts/GloballyUnitedCoin.sol\":5087:5096  numTokens */\n      dup5\n        /* \"contracts/GloballyUnitedCoin.sol\":5064:5097  Transfer(owner, buyer, numTokens) */\n      mload(0x40)\n      tag_113\n      swap2\n      swap1\n      tag_40\n      jump\t// in\n    tag_113:\n      mload(0x40)\n      dup1\n      swap2\n      sub\n      swap1\n      log3\n        /* \"contracts/GloballyUnitedCoin.sol\":5115:5119  true */\n      0x01\n        /* \"contracts/GloballyUnitedCoin.sol\":5108:5119  return true */\n      swap1\n      pop\n        /* \"contracts/GloballyUnitedCoin.sol\":4633:5127  function transferFrom(address owner, address buyer, uint numTokens) public override returns (bool) {\r... */\n      swap4\n      swap3\n      pop\n      pop\n      pop\n      jump\t// out\n        /* \"contracts/GloballyUnitedCoin.sol\":1986:2261  function withdraw(uint256 amount) public onlyWhitelist returns (uint256) {\r... */\n    tag_49:\n        /* \"contracts/GloballyUnitedCoin.sol\":2050:2057  uint256 */\n      0x00\n        /* \"contracts/GloballyUnitedCoin.sol\":1469:1488  masterWalletAddress */\n      dup1\n      0x00\n      swap1\n      sload\n      swap1\n      0x0100\n      exp\n      swap1\n      div\n      0xffffffffffffffffffffffffffffffffffffffff\n      and\n        /* \"contracts/GloballyUnitedCoin.sol\":1455:1488  msg.sender == masterWalletAddress */\n      0xffffffffffffffffffffffffffffffffffffffff\n      and\n        /* \"contracts/GloballyUnitedCoin.sol\":1455:1465  msg.sender */\n      caller\n        /* \"contracts/GloballyUnitedCoin.sol\":1455:1488  msg.sender == masterWalletAddress */\n      0xffffffffffffffffffffffffffffffffffffffff\n      and\n      eq\n        /* \"contracts/GloballyUnitedCoin.sol\":1447:1517  require(msg.sender == masterWalletAddress, 'You are not whitelisted.') */\n      tag_115\n      jumpi\n      mload(0x40)\n      0x08c379a000000000000000000000000000000000000000000000000000000000\n      dup2\n      mstore\n      0x04\n      add\n      tag_116\n      swap1\n      tag_117\n      jump\t// in\n    tag_116:\n      mload(0x40)\n      dup1\n      swap2\n      sub\n      swap1\n      revert\n    tag_115:\n        /* \"contracts/GloballyUnitedCoin.sol\":2069:2084  uint256 balance */\n      0x00\n        /* \"contracts/GloballyUnitedCoin.sol\":2087:2111  balanceOf(address(this)) */\n      tag_119\n        /* \"contracts/GloballyUnitedCoin.sol\":2105:2109  this */\n      address\n        /* \"contracts/GloballyUnitedCoin.sol\":2087:2096  balanceOf */\n      tag_68\n        /* \"contracts/GloballyUnitedCoin.sol\":2087:2111  balanceOf(address(this)) */\n      jump\t// in\n    tag_119:\n        /* \"contracts/GloballyUnitedCoin.sol\":2069:2111  uint256 balance = balanceOf(address(this)) */\n      swap1\n      pop\n        /* \"contracts/GloballyUnitedCoin.sol\":2139:2146  balance */\n      dup1\n        /* \"contracts/GloballyUnitedCoin.sol\":2129:2135  amount */\n      dup4\n        /* \"contracts/GloballyUnitedCoin.sol\":2129:2146  amount <= balance */\n      gt\n      iszero\n        /* \"contracts/GloballyUnitedCoin.sol\":2121:2183  require(amount <= balance, 'Not enough tokens in the reserve') */\n      tag_120\n      jumpi\n      mload(0x40)\n      0x08c379a000000000000000000000000000000000000000000000000000000000\n      dup2\n      mstore\n      0x04\n      add\n      tag_121\n      swap1\n      tag_122\n      jump\t// in\n    tag_121:\n      mload(0x40)\n      dup1\n      swap2\n      sub\n      swap1\n      revert\n    tag_120:\n        /* \"contracts/GloballyUnitedCoin.sol\":2193:2230  transfer(masterWalletAddress, amount) */\n      tag_123\n        /* \"contracts/GloballyUnitedCoin.sol\":2202:2221  masterWalletAddress */\n      0x00\n      dup1\n      sload\n      swap1\n      0x0100\n      exp\n      swap1\n      div\n      0xffffffffffffffffffffffffffffffffffffffff\n      and\n        /* \"contracts/GloballyUnitedCoin.sol\":2223:2229  amount */\n      dup5\n        /* \"contracts/GloballyUnitedCoin.sol\":2193:2201  transfer */\n      tag_75\n        /* \"contracts/GloballyUnitedCoin.sol\":2193:2230  transfer(masterWalletAddress, amount) */\n      jump\t// in\n    tag_123:\n      pop\n        /* \"contracts/GloballyUnitedCoin.sol\":2247:2253  amount */\n      dup3\n        /* \"contracts/GloballyUnitedCoin.sol\":2240:2253  return amount */\n      swap2\n      pop\n      pop\n        /* \"contracts/GloballyUnitedCoin.sol\":1986:2261  function withdraw(uint256 amount) public onlyWhitelist returns (uint256) {\r... */\n      swap2\n      swap1\n      pop\n      jump\t// out\n        /* \"contracts/GloballyUnitedCoin.sol\":1279:1314  uint8 public constant decimals = 18 */\n    tag_52:\n        /* \"contracts/GloballyUnitedCoin.sol\":1312:1314  18 */\n      0x12\n        /* \"contracts/GloballyUnitedCoin.sol\":1279:1314  uint8 public constant decimals = 18 */\n      dup2\n      jump\t// out\n        /* \"contracts/GloballyUnitedCoin.sol\":2518:2716  function balanceOf(string memory tokenOwner) public view returns (uint) {\r... */\n    tag_58:\n        /* \"contracts/GloballyUnitedCoin.sol\":2584:2588  uint */\n      0x00\n        /* \"contracts/GloballyUnitedCoin.sol\":2601:2620  address userAddress */\n      dup1\n        /* \"contracts/GloballyUnitedCoin.sol\":2645:2657  addressTable */\n      0x04\n        /* \"contracts/GloballyUnitedCoin.sol\":2658:2668  tokenOwner */\n      dup4\n        /* \"contracts/GloballyUnitedCoin.sol\":2645:2669  addressTable[tokenOwner] */\n      mload(0x40)\n      tag_125\n      swap2\n      swap1\n      tag_99\n      jump\t// in\n    tag_125:\n      swap1\n      dup2\n      mstore\n      0x20\n      add\n      mload(0x40)\n      dup1\n      swap2\n      sub\n      swap1\n      keccak256\n      0x00\n      swap1\n      sload\n      swap1\n      0x0100\n      exp\n      swap1\n      div\n      0xffffffffffffffffffffffffffffffffffffffff\n      and\n        /* \"contracts/GloballyUnitedCoin.sol\":2631:2669  userAddress = addressTable[tokenOwner] */\n      swap1\n      pop\n        /* \"contracts/GloballyUnitedCoin.sol\":2687:2695  balances */\n      0x01\n        /* \"contracts/GloballyUnitedCoin.sol\":2687:2708  balances[userAddress] */\n      0x00\n        /* \"contracts/GloballyUnitedCoin.sol\":2696:2707  userAddress */\n      dup3\n        /* \"contracts/GloballyUnitedCoin.sol\":2687:2708  balances[userAddress] */\n      0xffffffffffffffffffffffffffffffffffffffff\n      and\n      0xffffffffffffffffffffffffffffffffffffffff\n      and\n      dup2\n      mstore\n      0x20\n      add\n      swap1\n      dup2\n      mstore\n      0x20\n      add\n      0x00\n      keccak256\n      sload\n        /* \"contracts/GloballyUnitedCoin.sol\":2680:2708  return balances[userAddress] */\n      swap2\n      pop\n      pop\n        /* \"contracts/GloballyUnitedCoin.sol\":2518:2716  function balanceOf(string memory tokenOwner) public view returns (uint) {\r... */\n      swap2\n      swap1\n      pop\n      jump\t// out\n        /* \"contracts/GloballyUnitedCoin.sol\":5139:5868  function transferFrom(string memory owner, string memory buyer, uint numTokens) public returns (bool) {\r... */\n    tag_63:\n        /* \"contracts/GloballyUnitedCoin.sol\":5235:5239  bool */\n      0x00\n        /* \"contracts/GloballyUnitedCoin.sol\":5252:5272  address ownerAddress */\n      dup1\n        /* \"contracts/GloballyUnitedCoin.sol\":5298:5310  addressTable */\n      0x04\n        /* \"contracts/GloballyUnitedCoin.sol\":5311:5316  owner */\n      dup6\n        /* \"contracts/GloballyUnitedCoin.sol\":5298:5317  addressTable[owner] */\n      mload(0x40)\n      tag_127\n      swap2\n      swap1\n      tag_99\n      jump\t// in\n    tag_127:\n      swap1\n      dup2\n      mstore\n      0x20\n      add\n      mload(0x40)\n      dup1\n      swap2\n      sub\n      swap1\n      keccak256\n      0x00\n      swap1\n      sload\n      swap1\n      0x0100\n      exp\n      swap1\n      div\n      0xffffffffffffffffffffffffffffffffffffffff\n      and\n        /* \"contracts/GloballyUnitedCoin.sol\":5283:5317  ownerAddress = addressTable[owner] */\n      swap1\n      pop\n        /* \"contracts/GloballyUnitedCoin.sol\":5328:5348  address buyerAddress */\n      0x00\n        /* \"contracts/GloballyUnitedCoin.sol\":5374:5386  addressTable */\n      0x04\n        /* \"contracts/GloballyUnitedCoin.sol\":5387:5392  buyer */\n      dup6\n        /* \"contracts/GloballyUnitedCoin.sol\":5374:5393  addressTable[buyer] */\n      mload(0x40)\n      tag_128\n      swap2\n      swap1\n      tag_99\n      jump\t// in\n    tag_128:\n      swap1\n      dup2\n      mstore\n      0x20\n      add\n      mload(0x40)\n      dup1\n      swap2\n      sub\n      swap1\n      keccak256\n      0x00\n      swap1\n      sload\n      swap1\n      0x0100\n      exp\n      swap1\n      div\n      0xffffffffffffffffffffffffffffffffffffffff\n      and\n        /* \"contracts/GloballyUnitedCoin.sol\":5359:5393  buyerAddress = addressTable[buyer] */\n      swap1\n      pop\n        /* \"contracts/GloballyUnitedCoin.sol\":5435:5443  balances */\n      0x01\n        /* \"contracts/GloballyUnitedCoin.sol\":5435:5457  balances[ownerAddress] */\n      0x00\n        /* \"contracts/GloballyUnitedCoin.sol\":5444:5456  ownerAddress */\n      dup4\n        /* \"contracts/GloballyUnitedCoin.sol\":5435:5457  balances[ownerAddress] */\n      0xffffffffffffffffffffffffffffffffffffffff\n      and\n      0xffffffffffffffffffffffffffffffffffffffff\n      and\n      dup2\n      mstore\n      0x20\n      add\n      swap1\n      dup2\n      mstore\n      0x20\n      add\n      0x00\n      keccak256\n      sload\n        /* \"contracts/GloballyUnitedCoin.sol\":5422:5431  numTokens */\n      dup5\n        /* \"contracts/GloballyUnitedCoin.sol\":5422:5457  numTokens <= balances[ownerAddress] */\n      gt\n      iszero\n        /* \"contracts/GloballyUnitedCoin.sol\":5414:5458  require(numTokens <= balances[ownerAddress]) */\n      tag_129\n      jumpi\n      0x00\n      dup1\n      revert\n    tag_129:\n        /* \"contracts/GloballyUnitedCoin.sol\":5494:5501  allowed */\n      0x02\n        /* \"contracts/GloballyUnitedCoin.sol\":5494:5515  allowed[ownerAddress] */\n      0x00\n        /* \"contracts/GloballyUnitedCoin.sol\":5502:5514  ownerAddress */\n      dup4\n        /* \"contracts/GloballyUnitedCoin.sol\":5494:5515  allowed[ownerAddress] */\n      0xffffffffffffffffffffffffffffffffffffffff\n      and\n      0xffffffffffffffffffffffffffffffffffffffff\n      and\n      dup2\n      mstore\n      0x20\n      add\n      swap1\n      dup2\n      mstore\n      0x20\n      add\n      0x00\n      keccak256\n        /* \"contracts/GloballyUnitedCoin.sol\":5494:5527  allowed[ownerAddress][msg.sender] */\n      0x00\n        /* \"contracts/GloballyUnitedCoin.sol\":5516:5526  msg.sender */\n      caller\n        /* \"contracts/GloballyUnitedCoin.sol\":5494:5527  allowed[ownerAddress][msg.sender] */\n      0xffffffffffffffffffffffffffffffffffffffff\n      and\n      0xffffffffffffffffffffffffffffffffffffffff\n      and\n      dup2\n      mstore\n      0x20\n      add\n      swap1\n      dup2\n      mstore\n      0x20\n      add\n      0x00\n      keccak256\n      sload\n        /* \"contracts/GloballyUnitedCoin.sol\":5481:5490  numTokens */\n      dup5\n        /* \"contracts/GloballyUnitedCoin.sol\":5481:5527  numTokens <= allowed[ownerAddress][msg.sender] */\n      gt\n      iszero\n        /* \"contracts/GloballyUnitedCoin.sol\":5473:5528  require(numTokens <= allowed[ownerAddress][msg.sender]) */\n      tag_130\n      jumpi\n      0x00\n      dup1\n      revert\n    tag_130:\n        /* \"contracts/GloballyUnitedCoin.sol\":5570:5607  balances[ownerAddress].sub(numTokens) */\n      tag_131\n        /* \"contracts/GloballyUnitedCoin.sol\":5597:5606  numTokens */\n      dup5\n        /* \"contracts/GloballyUnitedCoin.sol\":5570:5578  balances */\n      0x01\n        /* \"contracts/GloballyUnitedCoin.sol\":5570:5592  balances[ownerAddress] */\n      0x00\n        /* \"contracts/GloballyUnitedCoin.sol\":5579:5591  ownerAddress */\n      dup6\n        /* \"contracts/GloballyUnitedCoin.sol\":5570:5592  balances[ownerAddress] */\n      0xffffffffffffffffffffffffffffffffffffffff\n      and\n      0xffffffffffffffffffffffffffffffffffffffff\n      and\n      dup2\n      mstore\n      0x20\n      add\n      swap1\n      dup2\n      mstore\n      0x20\n      add\n      0x00\n      keccak256\n      sload\n        /* \"contracts/GloballyUnitedCoin.sol\":5570:5596  balances[ownerAddress].sub */\n      tag_102\n      swap1\n        /* \"contracts/GloballyUnitedCoin.sol\":5570:5607  balances[ownerAddress].sub(numTokens) */\n      swap2\n      swap1\n      0xffffffff\n      and\n      jump\t// in\n    tag_131:\n        /* \"contracts/GloballyUnitedCoin.sol\":5545:5553  balances */\n      0x01\n        /* \"contracts/GloballyUnitedCoin.sol\":5545:5567  balances[ownerAddress] */\n      0x00\n        /* \"contracts/GloballyUnitedCoin.sol\":5554:5566  ownerAddress */\n      dup5\n        /* \"contracts/GloballyUnitedCoin.sol\":5545:5567  balances[ownerAddress] */\n      0xffffffffffffffffffffffffffffffffffffffff\n      and\n      0xffffffffffffffffffffffffffffffffffffffff\n      and\n      dup2\n      mstore\n      0x20\n      add\n      swap1\n      dup2\n      mstore\n      0x20\n      add\n      0x00\n      keccak256\n        /* \"contracts/GloballyUnitedCoin.sol\":5545:5607  balances[ownerAddress] = balances[ownerAddress].sub(numTokens) */\n      dup2\n      swap1\n      sstore\n      pop\n        /* \"contracts/GloballyUnitedCoin.sol\":5654:5702  allowed[ownerAddress][msg.sender].sub(numTokens) */\n      tag_132\n        /* \"contracts/GloballyUnitedCoin.sol\":5692:5701  numTokens */\n      dup5\n        /* \"contracts/GloballyUnitedCoin.sol\":5654:5661  allowed */\n      0x02\n        /* \"contracts/GloballyUnitedCoin.sol\":5654:5675  allowed[ownerAddress] */\n      0x00\n        /* \"contracts/GloballyUnitedCoin.sol\":5662:5674  ownerAddress */\n      dup6\n        /* \"contracts/GloballyUnitedCoin.sol\":5654:5675  allowed[ownerAddress] */\n      0xffffffffffffffffffffffffffffffffffffffff\n      and\n      0xffffffffffffffffffffffffffffffffffffffff\n      and\n      dup2\n      mstore\n      0x20\n      add\n      swap1\n      dup2\n      mstore\n      0x20\n      add\n      0x00\n      keccak256\n        /* \"contracts/GloballyUnitedCoin.sol\":5654:5687  allowed[ownerAddress][msg.sender] */\n      0x00\n        /* \"contracts/GloballyUnitedCoin.sol\":5676:5686  msg.sender */\n      caller\n        /* \"contracts/GloballyUnitedCoin.sol\":5654:5687  allowed[ownerAddress][msg.sender] */\n      0xffffffffffffffffffffffffffffffffffffffff\n      and\n      0xffffffffffffffffffffffffffffffffffffffff\n      and\n      dup2\n      mstore\n      0x20\n      add\n      swap1\n      dup2\n      mstore\n      0x20\n      add\n      0x00\n      keccak256\n      sload\n        /* \"contracts/GloballyUnitedCoin.sol\":5654:5691  allowed[ownerAddress][msg.sender].sub */\n      tag_102\n      swap1\n        /* \"contracts/GloballyUnitedCoin.sol\":5654:5702  allowed[ownerAddress][msg.sender].sub(numTokens) */\n      swap2\n      swap1\n      0xffffffff\n      and\n      jump\t// in\n    tag_132:\n        /* \"contracts/GloballyUnitedCoin.sol\":5618:5625  allowed */\n      0x02\n        /* \"contracts/GloballyUnitedCoin.sol\":5618:5639  allowed[ownerAddress] */\n      0x00\n        /* \"contracts/GloballyUnitedCoin.sol\":5626:5638  ownerAddress */\n      dup5\n        /* \"contracts/GloballyUnitedCoin.sol\":5618:5639  allowed[ownerAddress] */\n      0xffffffffffffffffffffffffffffffffffffffff\n      and\n      0xffffffffffffffffffffffffffffffffffffffff\n      and\n      dup2\n      mstore\n      0x20\n      add\n      swap1\n      dup2\n      mstore\n      0x20\n      add\n      0x00\n      keccak256\n        /* \"contracts/GloballyUnitedCoin.sol\":5618:5651  allowed[ownerAddress][msg.sender] */\n      0x00\n        /* \"contracts/GloballyUnitedCoin.sol\":5640:5650  msg.sender */\n      caller\n        /* \"contracts/GloballyUnitedCoin.sol\":5618:5651  allowed[ownerAddress][msg.sender] */\n      0xffffffffffffffffffffffffffffffffffffffff\n      and\n      0xffffffffffffffffffffffffffffffffffffffff\n      and\n      dup2\n      mstore\n      0x20\n      add\n      swap1\n      dup2\n      mstore\n      0x20\n      add\n      0x00\n      keccak256\n        /* \"contracts/GloballyUnitedCoin.sol\":5618:5702  allowed[ownerAddress][msg.sender] = allowed[ownerAddress][msg.sender].sub(numTokens) */\n      dup2\n      swap1\n      sstore\n      pop\n        /* \"contracts/GloballyUnitedCoin.sol\":5738:5775  balances[buyerAddress].add(numTokens) */\n      tag_133\n        /* \"contracts/GloballyUnitedCoin.sol\":5765:5774  numTokens */\n      dup5\n        /* \"contracts/GloballyUnitedCoin.sol\":5738:5746  balances */\n      0x01\n        /* \"contracts/GloballyUnitedCoin.sol\":5738:5760  balances[buyerAddress] */\n      0x00\n        /* \"contracts/GloballyUnitedCoin.sol\":5747:5759  buyerAddress */\n      dup5\n        /* \"contracts/GloballyUnitedCoin.sol\":5738:5760  balances[buyerAddress] */\n      0xffffffffffffffffffffffffffffffffffffffff\n      and\n      0xffffffffffffffffffffffffffffffffffffffff\n      and\n      dup2\n      mstore\n      0x20\n      add\n      swap1\n      dup2\n      mstore\n      0x20\n      add\n      0x00\n      keccak256\n      sload\n        /* \"contracts/GloballyUnitedCoin.sol\":5738:5764  balances[buyerAddress].add */\n      tag_104\n      swap1\n        /* \"contracts/GloballyUnitedCoin.sol\":5738:5775  balances[buyerAddress].add(numTokens) */\n      swap2\n      swap1\n      0xffffffff\n      and\n      jump\t// in\n    tag_133:\n        /* \"contracts/GloballyUnitedCoin.sol\":5713:5721  balances */\n      0x01\n        /* \"contracts/GloballyUnitedCoin.sol\":5713:5735  balances[buyerAddress] */\n      0x00\n        /* \"contracts/GloballyUnitedCoin.sol\":5722:5734  buyerAddress */\n      dup4\n        /* \"contracts/GloballyUnitedCoin.sol\":5713:5735  balances[buyerAddress] */\n      0xffffffffffffffffffffffffffffffffffffffff\n      and\n      0xffffffffffffffffffffffffffffffffffffffff\n      and\n      dup2\n      mstore\n      0x20\n      add\n      swap1\n      dup2\n      mstore\n      0x20\n      add\n      0x00\n      keccak256\n        /* \"contracts/GloballyUnitedCoin.sol\":5713:5775  balances[buyerAddress] = balances[buyerAddress].add(numTokens) */\n      dup2\n      swap1\n      sstore\n      pop\n        /* \"contracts/GloballyUnitedCoin.sol\":5814:5826  buyerAddress */\n      dup1\n        /* \"contracts/GloballyUnitedCoin.sol\":5791:5838  Transfer(ownerAddress, buyerAddress, numTokens) */\n      0xffffffffffffffffffffffffffffffffffffffff\n      and\n        /* \"contracts/GloballyUnitedCoin.sol\":5800:5812  ownerAddress */\n      dup3\n        /* \"contracts/GloballyUnitedCoin.sol\":5791:5838  Transfer(ownerAddress, buyerAddress, numTokens) */\n      0xffffffffffffffffffffffffffffffffffffffff\n      and\n      0xddf252ad1be2c89b69c2b068fc378daa952ba7f163c4a11628f55a4df523b3ef\n        /* \"contracts/GloballyUnitedCoin.sol\":5828:5837  numTokens */\n      dup7\n        /* \"contracts/GloballyUnitedCoin.sol\":5791:5838  Transfer(ownerAddress, buyerAddress, numTokens) */\n      mload(0x40)\n      tag_134\n      swap2\n      swap1\n      tag_40\n      jump\t// in\n    tag_134:\n      mload(0x40)\n      dup1\n      swap2\n      sub\n      swap1\n      log3\n        /* \"contracts/GloballyUnitedCoin.sol\":5856:5860  true */\n      0x01\n        /* \"contracts/GloballyUnitedCoin.sol\":5849:5860  return true */\n      swap3\n      pop\n      pop\n      pop\n        /* \"contracts/GloballyUnitedCoin.sol\":5139:5868  function transferFrom(string memory owner, string memory buyer, uint numTokens) public returns (bool) {\r... */\n      swap4\n      swap3\n      pop\n      pop\n      pop\n      jump\t// out\n        /* \"contracts/GloballyUnitedCoin.sol\":2385:2506  function balanceOf(address tokenOwner) public override view returns (uint) {\r... */\n    tag_68:\n        /* \"contracts/GloballyUnitedCoin.sol\":2454:2458  uint */\n      0x00\n        /* \"contracts/GloballyUnitedCoin.sol\":2478:2486  balances */\n      0x01\n        /* \"contracts/GloballyUnitedCoin.sol\":2478:2498  balances[tokenOwner] */\n      0x00\n        /* \"contracts/GloballyUnitedCoin.sol\":2487:2497  tokenOwner */\n      dup4\n        /* \"contracts/GloballyUnitedCoin.sol\":2478:2498  balances[tokenOwner] */\n      0xffffffffffffffffffffffffffffffffffffffff\n      and\n      0xffffffffffffffffffffffffffffffffffffffff\n      and\n      dup2\n      mstore\n      0x20\n      add\n      swap1\n      dup2\n      mstore\n      0x20\n      add\n      0x00\n      keccak256\n      sload\n        /* \"contracts/GloballyUnitedCoin.sol\":2471:2498  return balances[tokenOwner] */\n      swap1\n      pop\n        /* \"contracts/GloballyUnitedCoin.sol\":2385:2506  function balanceOf(address tokenOwner) public override view returns (uint) {\r... */\n      swap2\n      swap1\n      pop\n      jump\t// out\n        /* \"contracts/GloballyUnitedCoin.sol\":1235:1272  string public constant symbol = 'GUC' */\n    tag_71:\n      mload(0x40)\n      dup1\n      0x40\n      add\n      0x40\n      mstore\n      dup1\n      0x03\n      dup2\n      mstore\n      0x20\n      add\n      0x4755430000000000000000000000000000000000000000000000000000000000\n      dup2\n      mstore\n      pop\n      dup2\n      jump\t// out\n        /* \"contracts/GloballyUnitedCoin.sol\":2728:3108  function transfer(address receiver, uint numTokens) public override returns (bool) {\r... */\n    tag_75:\n        /* \"contracts/GloballyUnitedCoin.sol\":2805:2809  bool */\n      0x00\n        /* \"contracts/GloballyUnitedCoin.sol\":2843:2851  balances */\n      0x01\n        /* \"contracts/GloballyUnitedCoin.sol\":2843:2863  balances[msg.sender] */\n      0x00\n        /* \"contracts/GloballyUnitedCoin.sol\":2852:2862  msg.sender */\n      caller\n        /* \"contracts/GloballyUnitedCoin.sol\":2843:2863  balances[msg.sender] */\n      0xffffffffffffffffffffffffffffffffffffffff\n      and\n      0xffffffffffffffffffffffffffffffffffffffff\n      and\n      dup2\n      mstore\n      0x20\n      add\n      swap1\n      dup2\n      mstore\n      0x20\n      add\n      0x00\n      keccak256\n      sload\n        /* \"contracts/GloballyUnitedCoin.sol\":2830:2839  numTokens */\n      dup3\n        /* \"contracts/GloballyUnitedCoin.sol\":2830:2863  numTokens <= balances[msg.sender] */\n      gt\n      iszero\n        /* \"contracts/GloballyUnitedCoin.sol\":2822:2887  require(numTokens <= balances[msg.sender],'Insufficient balance') */\n      tag_137\n      jumpi\n      mload(0x40)\n      0x08c379a000000000000000000000000000000000000000000000000000000000\n      dup2\n      mstore\n      0x04\n      add\n      tag_138\n      swap1\n      tag_139\n      jump\t// in\n    tag_138:\n      mload(0x40)\n      dup1\n      swap2\n      sub\n      swap1\n      revert\n    tag_137:\n        /* \"contracts/GloballyUnitedCoin.sol\":2921:2956  balances[msg.sender].sub(numTokens) */\n      tag_140\n        /* \"contracts/GloballyUnitedCoin.sol\":2946:2955  numTokens */\n      dup3\n        /* \"contracts/GloballyUnitedCoin.sol\":2921:2929  balances */\n      0x01\n        /* \"contracts/GloballyUnitedCoin.sol\":2921:2941  balances[msg.sender] */\n      0x00\n        /* \"contracts/GloballyUnitedCoin.sol\":2930:2940  msg.sender */\n      caller\n        /* \"contracts/GloballyUnitedCoin.sol\":2921:2941  balances[msg.sender] */\n      0xffffffffffffffffffffffffffffffffffffffff\n      and\n      0xffffffffffffffffffffffffffffffffffffffff\n      and\n      dup2\n      mstore\n      0x20\n      add\n      swap1\n      dup2\n      mstore\n      0x20\n      add\n      0x00\n      keccak256\n      sload\n        /* \"contracts/GloballyUnitedCoin.sol\":2921:2945  balances[msg.sender].sub */\n      tag_102\n      swap1\n        /* \"contracts/GloballyUnitedCoin.sol\":2921:2956  balances[msg.sender].sub(numTokens) */\n      swap2\n      swap1\n      0xffffffff\n      and\n      jump\t// in\n    tag_140:\n        /* \"contracts/GloballyUnitedCoin.sol\":2898:2906  balances */\n      0x01\n        /* \"contracts/GloballyUnitedCoin.sol\":2898:2918  balances[msg.sender] */\n      0x00\n        /* \"contracts/GloballyUnitedCoin.sol\":2907:2917  msg.sender */\n      caller\n        /* \"contracts/GloballyUnitedCoin.sol\":2898:2918  balances[msg.sender] */\n      0xffffffffffffffffffffffffffffffffffffffff\n      and\n      0xffffffffffffffffffffffffffffffffffffffff\n      and\n      dup2\n      mstore\n      0x20\n      add\n      swap1\n      dup2\n      mstore\n      0x20\n      add\n      0x00\n      keccak256\n        /* \"contracts/GloballyUnitedCoin.sol\":2898:2956  balances[msg.sender] = balances[msg.sender].sub(numTokens) */\n      dup2\n      swap1\n      sstore\n      pop\n        /* \"contracts/GloballyUnitedCoin.sol\":2988:3021  balances[receiver].add(numTokens) */\n      tag_141\n        /* \"contracts/GloballyUnitedCoin.sol\":3011:3020  numTokens */\n      dup3\n        /* \"contracts/GloballyUnitedCoin.sol\":2988:2996  balances */\n      0x01\n        /* \"contracts/GloballyUnitedCoin.sol\":2988:3006  balances[receiver] */\n      0x00\n        /* \"contracts/GloballyUnitedCoin.sol\":2997:3005  receiver */\n      dup7\n        /* \"contracts/GloballyUnitedCoin.sol\":2988:3006  balances[receiver] */\n      0xffffffffffffffffffffffffffffffffffffffff\n      and\n      0xffffffffffffffffffffffffffffffffffffffff\n      and\n      dup2\n      mstore\n      0x20\n      add\n      swap1\n      dup2\n      mstore\n      0x20\n      add\n      0x00\n      keccak256\n      sload\n        /* \"contracts/GloballyUnitedCoin.sol\":2988:3010  balances[receiver].add */\n      tag_104\n      swap1\n        /* \"contracts/GloballyUnitedCoin.sol\":2988:3021  balances[receiver].add(numTokens) */\n      swap2\n      swap1\n      0xffffffff\n      and\n      jump\t// in\n    tag_141:\n        /* \"contracts/GloballyUnitedCoin.sol\":2967:2975  balances */\n      0x01\n        /* \"contracts/GloballyUnitedCoin.sol\":2967:2985  balances[receiver] */\n      0x00\n        /* \"contracts/GloballyUnitedCoin.sol\":2976:2984  receiver */\n      dup6\n        /* \"contracts/GloballyUnitedCoin.sol\":2967:2985  balances[receiver] */\n      0xffffffffffffffffffffffffffffffffffffffff\n      and\n      0xffffffffffffffffffffffffffffffffffffffff\n      and\n      dup2\n      mstore\n      0x20\n      add\n      swap1\n      dup2\n      mstore\n      0x20\n      add\n      0x00\n      keccak256\n        /* \"contracts/GloballyUnitedCoin.sol\":2967:3021  balances[receiver] = balances[receiver].add(numTokens) */\n      dup2\n      swap1\n      sstore\n      pop\n        /* \"contracts/GloballyUnitedCoin.sol\":3058:3066  receiver */\n      dup3\n        /* \"contracts/GloballyUnitedCoin.sol\":3037:3078  Transfer(msg.sender, receiver, numTokens) */\n      0xffffffffffffffffffffffffffffffffffffffff\n      and\n        /* \"contracts/GloballyUnitedCoin.sol\":3046:3056  msg.sender */\n      caller\n        /* \"contracts/GloballyUnitedCoin.sol\":3037:3078  Transfer(msg.sender, receiver, numTokens) */\n      0xffffffffffffffffffffffffffffffffffffffff\n      and\n      0xddf252ad1be2c89b69c2b068fc378daa952ba7f163c4a11628f55a4df523b3ef\n        /* \"contracts/GloballyUnitedCoin.sol\":3068:3077  numTokens */\n      dup5\n        /* \"contracts/GloballyUnitedCoin.sol\":3037:3078  Transfer(msg.sender, receiver, numTokens) */\n      mload(0x40)\n      tag_142\n      swap2\n      swap1\n      tag_40\n      jump\t// in\n    tag_142:\n      mload(0x40)\n      dup1\n      swap2\n      sub\n      swap1\n      log3\n        /* \"contracts/GloballyUnitedCoin.sol\":3096:3100  true */\n      0x01\n        /* \"contracts/GloballyUnitedCoin.sol\":3089:3100  return true */\n      swap1\n      pop\n        /* \"contracts/GloballyUnitedCoin.sol\":2728:3108  function transfer(address receiver, uint numTokens) public override returns (bool) {\r... */\n      swap3\n      swap2\n      pop\n      pop\n      jump\t// out\n        /* \"contracts/GloballyUnitedCoin.sol\":5880:6238  function registerUser(string memory user, uint256 nonce) public returns (bool) {\r... */\n    tag_79:\n        /* \"contracts/GloballyUnitedCoin.sol\":5953:5957  bool */\n      0x00\n        /* \"contracts/GloballyUnitedCoin.sol\":6004:6005  0 */\n      dup1\n        /* \"contracts/GloballyUnitedCoin.sol\":5974:6006  addressTable[user] == address(0) */\n      0xffffffffffffffffffffffffffffffffffffffff\n      and\n        /* \"contracts/GloballyUnitedCoin.sol\":5974:5986  addressTable */\n      0x04\n        /* \"contracts/GloballyUnitedCoin.sol\":5987:5991  user */\n      dup5\n        /* \"contracts/GloballyUnitedCoin.sol\":5974:5992  addressTable[user] */\n      mload(0x40)\n      tag_144\n      swap2\n      swap1\n      tag_99\n      jump\t// in\n    tag_144:\n      swap1\n      dup2\n      mstore\n      0x20\n      add\n      mload(0x40)\n      dup1\n      swap2\n      sub\n      swap1\n      keccak256\n      0x00\n      swap1\n      sload\n      swap1\n      0x0100\n      exp\n      swap1\n      div\n      0xffffffffffffffffffffffffffffffffffffffff\n      and\n        /* \"contracts/GloballyUnitedCoin.sol\":5974:6006  addressTable[user] == address(0) */\n      0xffffffffffffffffffffffffffffffffffffffff\n      and\n      eq\n        /* \"contracts/GloballyUnitedCoin.sol\":5970:6231  if (addressTable[user] == address(0)) {\r... */\n      iszero\n      tag_145\n      jumpi\n        /* \"contracts/GloballyUnitedCoin.sol\":6044:6054  msg.sender */\n      caller\n        /* \"contracts/GloballyUnitedCoin.sol\":6023:6035  addressTable */\n      0x04\n        /* \"contracts/GloballyUnitedCoin.sol\":6036:6040  user */\n      dup5\n        /* \"contracts/GloballyUnitedCoin.sol\":6023:6041  addressTable[user] */\n      mload(0x40)\n      tag_146\n      swap2\n      swap1\n      tag_99\n      jump\t// in\n    tag_146:\n      swap1\n      dup2\n      mstore\n      0x20\n      add\n      mload(0x40)\n      dup1\n      swap2\n      sub\n      swap1\n      keccak256\n      0x00\n        /* \"contracts/GloballyUnitedCoin.sol\":6023:6054  addressTable[user] = msg.sender */\n      0x0100\n      exp\n      dup2\n      sload\n      dup2\n      0xffffffffffffffffffffffffffffffffffffffff\n      mul\n      not\n      and\n      swap1\n      dup4\n      0xffffffffffffffffffffffffffffffffffffffff\n      and\n      mul\n      or\n      swap1\n      sstore\n      pop\n        /* \"contracts/GloballyUnitedCoin.sol\":6074:6103  RegistrationSuccessful(nonce) */\n      0xb783ac61be9a63ecee43ec4875521540beaa0d5935b0d80543c42bd4aae8a0c9\n        /* \"contracts/GloballyUnitedCoin.sol\":6097:6102  nonce */\n      dup3\n        /* \"contracts/GloballyUnitedCoin.sol\":6074:6103  RegistrationSuccessful(nonce) */\n      mload(0x40)\n      tag_147\n      swap2\n      swap1\n      tag_40\n      jump\t// in\n    tag_147:\n      mload(0x40)\n      dup1\n      swap2\n      sub\n      swap1\n      log1\n        /* \"contracts/GloballyUnitedCoin.sol\":6125:6129  true */\n      0x01\n        /* \"contracts/GloballyUnitedCoin.sol\":6118:6129  return true */\n      swap1\n      pop\n      jump(tag_143)\n        /* \"contracts/GloballyUnitedCoin.sol\":5970:6231  if (addressTable[user] == address(0)) {\r... */\n    tag_145:\n        /* \"contracts/GloballyUnitedCoin.sol\":6167:6192  RegistrationFailed(nonce) */\n      0x2dcc15de21ffd99c8ff84e0d8289119ca55fff2e9b4a1e2270baa5840cb82487\n        /* \"contracts/GloballyUnitedCoin.sol\":6186:6191  nonce */\n      dup3\n        /* \"contracts/GloballyUnitedCoin.sol\":6167:6192  RegistrationFailed(nonce) */\n      mload(0x40)\n      tag_149\n      swap2\n      swap1\n      tag_40\n      jump\t// in\n    tag_149:\n      mload(0x40)\n      dup1\n      swap2\n      sub\n      swap1\n      log1\n        /* \"contracts/GloballyUnitedCoin.sol\":6214:6219  false */\n      0x00\n        /* \"contracts/GloballyUnitedCoin.sol\":6207:6219  return false */\n      swap1\n      pop\n        /* \"contracts/GloballyUnitedCoin.sol\":5880:6238  function registerUser(string memory user, uint256 nonce) public returns (bool) {\r... */\n    tag_143:\n      swap3\n      swap2\n      pop\n      pop\n      jump\t// out\n        /* \"contracts/GloballyUnitedCoin.sol\":4304:4620  function allowance(string memory owner, string memory delegate) public view returns (uint) {\r... */\n    tag_84:\n        /* \"contracts/GloballyUnitedCoin.sol\":4389:4393  uint */\n      0x00\n        /* \"contracts/GloballyUnitedCoin.sol\":4406:4426  address ownerAddress */\n      dup1\n        /* \"contracts/GloballyUnitedCoin.sol\":4452:4464  addressTable */\n      0x04\n        /* \"contracts/GloballyUnitedCoin.sol\":4465:4470  owner */\n      dup5\n        /* \"contracts/GloballyUnitedCoin.sol\":4452:4471  addressTable[owner] */\n      mload(0x40)\n      tag_151\n      swap2\n      swap1\n      tag_99\n      jump\t// in\n    tag_151:\n      swap1\n      dup2\n      mstore\n      0x20\n      add\n      mload(0x40)\n      dup1\n      swap2\n      sub\n      swap1\n      keccak256\n      0x00\n      swap1\n      sload\n      swap1\n      0x0100\n      exp\n      swap1\n      div\n      0xffffffffffffffffffffffffffffffffffffffff\n      and\n        /* \"contracts/GloballyUnitedCoin.sol\":4437:4471  ownerAddress = addressTable[owner] */\n      swap1\n      pop\n        /* \"contracts/GloballyUnitedCoin.sol\":4482:4505  address delegateAddress */\n      0x00\n        /* \"contracts/GloballyUnitedCoin.sol\":4534:4546  addressTable */\n      0x04\n        /* \"contracts/GloballyUnitedCoin.sol\":4547:4555  delegate */\n      dup5\n        /* \"contracts/GloballyUnitedCoin.sol\":4534:4556  addressTable[delegate] */\n      mload(0x40)\n      tag_152\n      swap2\n      swap1\n      tag_99\n      jump\t// in\n    tag_152:\n      swap1\n      dup2\n      mstore\n      0x20\n      add\n      mload(0x40)\n      dup1\n      swap2\n      sub\n      swap1\n      keccak256\n      0x00\n      swap1\n      sload\n      swap1\n      0x0100\n      exp\n      swap1\n      div\n      0xffffffffffffffffffffffffffffffffffffffff\n      and\n        /* \"contracts/GloballyUnitedCoin.sol\":4516:4556  delegateAddress = addressTable[delegate] */\n      swap1\n      pop\n        /* \"contracts/GloballyUnitedCoin.sol\":4574:4581  allowed */\n      0x02\n        /* \"contracts/GloballyUnitedCoin.sol\":4574:4595  allowed[ownerAddress] */\n      0x00\n        /* \"contracts/GloballyUnitedCoin.sol\":4582:4594  ownerAddress */\n      dup4\n        /* \"contracts/GloballyUnitedCoin.sol\":4574:4595  allowed[ownerAddress] */\n      0xffffffffffffffffffffffffffffffffffffffff\n      and\n      0xffffffffffffffffffffffffffffffffffffffff\n      and\n      dup2\n      mstore\n      0x20\n      add\n      swap1\n      dup2\n      mstore\n      0x20\n      add\n      0x00\n      keccak256\n        /* \"contracts/GloballyUnitedCoin.sol\":4574:4612  allowed[ownerAddress][delegateAddress] */\n      0x00\n        /* \"contracts/GloballyUnitedCoin.sol\":4596:4611  delegateAddress */\n      dup3\n        /* \"contracts/GloballyUnitedCoin.sol\":4574:4612  allowed[ownerAddress][delegateAddress] */\n      0xffffffffffffffffffffffffffffffffffffffff\n      and\n      0xffffffffffffffffffffffffffffffffffffffff\n      and\n      dup2\n      mstore\n      0x20\n      add\n      swap1\n      dup2\n      mstore\n      0x20\n      add\n      0x00\n      keccak256\n      sload\n        /* \"contracts/GloballyUnitedCoin.sol\":4567:4612  return allowed[ownerAddress][delegateAddress] */\n      swap3\n      pop\n      pop\n      pop\n        /* \"contracts/GloballyUnitedCoin.sol\":4304:4620  function allowance(string memory owner, string memory delegate) public view returns (uint) {\r... */\n      swap3\n      swap2\n      pop\n      pop\n      jump\t// out\n        /* \"contracts/GloballyUnitedCoin.sol\":4154:4292  function allowance(address owner, address delegate) public override view returns (uint) {\r... */\n    tag_89:\n        /* \"contracts/GloballyUnitedCoin.sol\":4236:4240  uint */\n      0x00\n        /* \"contracts/GloballyUnitedCoin.sol\":4260:4267  allowed */\n      0x02\n        /* \"contracts/GloballyUnitedCoin.sol\":4260:4274  allowed[owner] */\n      0x00\n        /* \"contracts/GloballyUnitedCoin.sol\":4268:4273  owner */\n      dup5\n        /* \"contracts/GloballyUnitedCoin.sol\":4260:4274  allowed[owner] */\n      0xffffffffffffffffffffffffffffffffffffffff\n      and\n      0xffffffffffffffffffffffffffffffffffffffff\n      and\n      dup2\n      mstore\n      0x20\n      add\n      swap1\n      dup2\n      mstore\n      0x20\n      add\n      0x00\n      keccak256\n        /* \"contracts/GloballyUnitedCoin.sol\":4260:4284  allowed[owner][delegate] */\n      0x00\n        /* \"contracts/GloballyUnitedCoin.sol\":4275:4283  delegate */\n      dup4\n        /* \"contracts/GloballyUnitedCoin.sol\":4260:4284  allowed[owner][delegate] */\n      0xffffffffffffffffffffffffffffffffffffffff\n      and\n      0xffffffffffffffffffffffffffffffffffffffff\n      and\n      dup2\n      mstore\n      0x20\n      add\n      swap1\n      dup2\n      mstore\n      0x20\n      add\n      0x00\n      keccak256\n      sload\n        /* \"contracts/GloballyUnitedCoin.sol\":4253:4284  return allowed[owner][delegate] */\n      swap1\n      pop\n        /* \"contracts/GloballyUnitedCoin.sol\":4154:4292  function allowance(address owner, address delegate) public override view returns (uint) {\r... */\n      swap3\n      swap2\n      pop\n      pop\n      jump\t// out\n        /* \"contracts/GloballyUnitedCoin.sol\":3825:4142  function approve(string memory delegate, uint numTokens) public returns (bool) {\r... */\n    tag_93:\n        /* \"contracts/GloballyUnitedCoin.sol\":3898:3902  bool */\n      0x00\n        /* \"contracts/GloballyUnitedCoin.sol\":3915:3938  address delegateAddress */\n      dup1\n        /* \"contracts/GloballyUnitedCoin.sol\":3967:3979  addressTable */\n      0x04\n        /* \"contracts/GloballyUnitedCoin.sol\":3980:3988  delegate */\n      dup5\n        /* \"contracts/GloballyUnitedCoin.sol\":3967:3989  addressTable[delegate] */\n      mload(0x40)\n      tag_155\n      swap2\n      swap1\n      tag_99\n      jump\t// in\n    tag_155:\n      swap1\n      dup2\n      mstore\n      0x20\n      add\n      mload(0x40)\n      dup1\n      swap2\n      sub\n      swap1\n      keccak256\n      0x00\n      swap1\n      sload\n      swap1\n      0x0100\n      exp\n      swap1\n      div\n      0xffffffffffffffffffffffffffffffffffffffff\n      and\n        /* \"contracts/GloballyUnitedCoin.sol\":3949:3989  delegateAddress = addressTable[delegate] */\n      swap1\n      pop\n        /* \"contracts/GloballyUnitedCoin.sol\":4039:4048  numTokens */\n      dup3\n        /* \"contracts/GloballyUnitedCoin.sol\":4000:4007  allowed */\n      0x02\n        /* \"contracts/GloballyUnitedCoin.sol\":4000:4019  allowed[msg.sender] */\n      0x00\n        /* \"contracts/GloballyUnitedCoin.sol\":4008:4018  msg.sender */\n      caller\n        /* \"contracts/GloballyUnitedCoin.sol\":4000:4019  allowed[msg.sender] */\n      0xffffffffffffffffffffffffffffffffffffffff\n      and\n      0xffffffffffffffffffffffffffffffffffffffff\n      and\n      dup2\n      mstore\n      0x20\n      add\n      swap1\n      dup2\n      mstore\n      0x20\n      add\n      0x00\n      keccak256\n        /* \"contracts/GloballyUnitedCoin.sol\":4000:4036  allowed[msg.sender][delegateAddress] */\n      0x00\n        /* \"contracts/GloballyUnitedCoin.sol\":4020:4035  delegateAddress */\n      dup4\n        /* \"contracts/GloballyUnitedCoin.sol\":4000:4036  allowed[msg.sender][delegateAddress] */\n      0xffffffffffffffffffffffffffffffffffffffff\n      and\n      0xffffffffffffffffffffffffffffffffffffffff\n      and\n      dup2\n      mstore\n      0x20\n      add\n      swap1\n      dup2\n      mstore\n      0x20\n      add\n      0x00\n      keccak256\n        /* \"contracts/GloballyUnitedCoin.sol\":4000:4048  allowed[msg.sender][delegateAddress] = numTokens */\n      dup2\n      swap1\n      sstore\n      pop\n        /* \"contracts/GloballyUnitedCoin.sol\":4085:4100  delegateAddress */\n      dup1\n        /* \"contracts/GloballyUnitedCoin.sol\":4064:4112  Approval(msg.sender, delegateAddress, numTokens) */\n      0xffffffffffffffffffffffffffffffffffffffff\n      and\n        /* \"contracts/GloballyUnitedCoin.sol\":4073:4083  msg.sender */\n      caller\n        /* \"contracts/GloballyUnitedCoin.sol\":4064:4112  Approval(msg.sender, delegateAddress, numTokens) */\n      0xffffffffffffffffffffffffffffffffffffffff\n      and\n      0x8c5be1e5ebec7d5bd14f71427d1e84f3dd0314c0f7b2291e5b200ac8c7c3b925\n        /* \"contracts/GloballyUnitedCoin.sol\":4102:4111  numTokens */\n      dup6\n        /* \"contracts/GloballyUnitedCoin.sol\":4064:4112  Approval(msg.sender, delegateAddress, numTokens) */\n      mload(0x40)\n      tag_156\n      swap2\n      swap1\n      tag_40\n      jump\t// in\n    tag_156:\n      mload(0x40)\n      dup1\n      swap2\n      sub\n      swap1\n      log3\n        /* \"contracts/GloballyUnitedCoin.sol\":4130:4134  true */\n      0x01\n        /* \"contracts/GloballyUnitedCoin.sol\":4123:4134  return true */\n      swap2\n      pop\n      pop\n        /* \"contracts/GloballyUnitedCoin.sol\":3825:4142  function approve(string memory delegate, uint numTokens) public returns (bool) {\r... */\n      swap3\n      swap2\n      pop\n      pop\n      jump\t// out\n        /* \"contracts/GloballyUnitedCoin.sol\":6268:6387  function sub(uint256 a, uint256 b) internal pure returns (uint256) {\r... */\n    tag_102:\n        /* \"contracts/GloballyUnitedCoin.sol\":6326:6333  uint256 */\n      0x00\n        /* \"contracts/GloballyUnitedCoin.sol\":6356:6357  a */\n      dup3\n        /* \"contracts/GloballyUnitedCoin.sol\":6351:6352  b */\n      dup3\n        /* \"contracts/GloballyUnitedCoin.sol\":6351:6357  b <= a */\n      gt\n      iszero\n        /* \"contracts/GloballyUnitedCoin.sol\":6344:6358  assert(b <= a) */\n      tag_158\n      jumpi\n      tag_159\n      tag_160\n      jump\t// in\n    tag_159:\n    tag_158:\n        /* \"contracts/GloballyUnitedCoin.sol\":6378:6379  b */\n      dup2\n        /* \"contracts/GloballyUnitedCoin.sol\":6374:6375  a */\n      dup4\n        /* \"contracts/GloballyUnitedCoin.sol\":6374:6379  a - b */\n      tag_161\n      swap2\n      swap1\n      tag_162\n      jump\t// in\n    tag_161:\n        /* \"contracts/GloballyUnitedCoin.sol\":6367:6379  return a - b */\n      swap1\n      pop\n        /* \"contracts/GloballyUnitedCoin.sol\":6268:6387  function sub(uint256 a, uint256 b) internal pure returns (uint256) {\r... */\n      swap3\n      swap2\n      pop\n      pop\n      jump\t// out\n        /* \"contracts/GloballyUnitedCoin.sol\":6399:6540  function add(uint256 a, uint256 b) internal pure returns (uint256) {\r... */\n    tag_104:\n        /* \"contracts/GloballyUnitedCoin.sol\":6457:6464  uint256 */\n      0x00\n        /* \"contracts/GloballyUnitedCoin.sol\":6475:6484  uint256 c */\n      dup1\n        /* \"contracts/GloballyUnitedCoin.sol\":6491:6492  b */\n      dup3\n        /* \"contracts/GloballyUnitedCoin.sol\":6487:6488  a */\n      dup5\n        /* \"contracts/GloballyUnitedCoin.sol\":6487:6492  a + b */\n      tag_164\n      swap2\n      swap1\n      tag_165\n      jump\t// in\n    tag_164:\n        /* \"contracts/GloballyUnitedCoin.sol\":6475:6492  uint256 c = a + b */\n      swap1\n      pop\n        /* \"contracts/GloballyUnitedCoin.sol\":6513:6514  a */\n      dup4\n        /* \"contracts/GloballyUnitedCoin.sol\":6508:6509  c */\n      dup2\n        /* \"contracts/GloballyUnitedCoin.sol\":6508:6514  c >= a */\n      lt\n      iszero\n        /* \"contracts/GloballyUnitedCoin.sol\":6501:6515  assert(c >= a) */\n      tag_166\n      jumpi\n      tag_167\n      tag_160\n      jump\t// in\n    tag_167:\n    tag_166:\n        /* \"contracts/GloballyUnitedCoin.sol\":6531:6532  c */\n      dup1\n        /* \"contracts/GloballyUnitedCoin.sol\":6524:6532  return c */\n      swap2\n      pop\n      pop\n        /* \"contracts/GloballyUnitedCoin.sol\":6399:6540  function add(uint256 a, uint256 b) internal pure returns (uint256) {\r... */\n      swap3\n      swap2\n      pop\n      pop\n      jump\t// out\n        /* \"#utility.yul\":7:419   */\n    tag_169:\n        /* \"#utility.yul\":85:90   */\n      0x00\n        /* \"#utility.yul\":110:176   */\n      tag_171\n        /* \"#utility.yul\":126:175   */\n      tag_172\n        /* \"#utility.yul\":168:174   */\n      dup5\n        /* \"#utility.yul\":126:175   */\n      tag_173\n      jump\t// in\n    tag_172:\n        /* \"#utility.yul\":110:176   */\n      tag_174\n      jump\t// in\n    tag_171:\n        /* \"#utility.yul\":101:176   */\n      swap1\n      pop\n        /* \"#utility.yul\":199:205   */\n      dup3\n        /* \"#utility.yul\":192:197   */\n      dup2\n        /* \"#utility.yul\":185:206   */\n      mstore\n        /* \"#utility.yul\":237:241   */\n      0x20\n        /* \"#utility.yul\":230:235   */\n      dup2\n        /* \"#utility.yul\":226:242   */\n      add\n        /* \"#utility.yul\":275:278   */\n      dup5\n        /* \"#utility.yul\":266:272   */\n      dup5\n        /* \"#utility.yul\":261:264   */\n      dup5\n        /* \"#utility.yul\":257:273   */\n      add\n        /* \"#utility.yul\":254:279   */\n      gt\n        /* \"#utility.yul\":251:363   */\n      iszero\n      tag_175\n      jumpi\n        /* \"#utility.yul\":282:361   */\n      tag_176\n      tag_177\n      jump\t// in\n    tag_176:\n        /* \"#utility.yul\":251:363   */\n    tag_175:\n        /* \"#utility.yul\":372:413   */\n      tag_178\n        /* \"#utility.yul\":406:412   */\n      dup5\n        /* \"#utility.yul\":401:404   */\n      dup3\n        /* \"#utility.yul\":396:399   */\n      dup6\n        /* \"#utility.yul\":372:413   */\n      tag_179\n      jump\t// in\n    tag_178:\n        /* \"#utility.yul\":91:419   */\n      pop\n        /* \"#utility.yul\":7:419   */\n      swap4\n      swap3\n      pop\n      pop\n      pop\n      jump\t// out\n        /* \"#utility.yul\":425:564   */\n    tag_180:\n        /* \"#utility.yul\":471:476   */\n      0x00\n        /* \"#utility.yul\":509:515   */\n      dup2\n        /* \"#utility.yul\":496:516   */\n      calldataload\n        /* \"#utility.yul\":487:516   */\n      swap1\n      pop\n        /* \"#utility.yul\":525:558   */\n      tag_182\n        /* \"#utility.yul\":552:557   */\n      dup2\n        /* \"#utility.yul\":525:558   */\n      tag_183\n      jump\t// in\n    tag_182:\n        /* \"#utility.yul\":425:564   */\n      swap3\n      swap2\n      pop\n      pop\n      jump\t// out\n        /* \"#utility.yul\":584:924   */\n    tag_184:\n        /* \"#utility.yul\":640:645   */\n      0x00\n        /* \"#utility.yul\":689:692   */\n      dup3\n        /* \"#utility.yul\":682:686   */\n      0x1f\n        /* \"#utility.yul\":674:680   */\n      dup4\n        /* \"#utility.yul\":670:687   */\n      add\n        /* \"#utility.yul\":666:693   */\n      slt\n        /* \"#utility.yul\":656:778   */\n      tag_186\n      jumpi\n        /* \"#utility.yul\":697:776   */\n      tag_187\n      tag_188\n      jump\t// in\n    tag_187:\n        /* \"#utility.yul\":656:778   */\n    tag_186:\n        /* \"#utility.yul\":814:820   */\n      dup2\n        /* \"#utility.yul\":801:821   */\n      calldataload\n        /* \"#utility.yul\":839:918   */\n      tag_189\n        /* \"#utility.yul\":914:917   */\n      dup5\n        /* \"#utility.yul\":906:912   */\n      dup3\n        /* \"#utility.yul\":899:903   */\n      0x20\n        /* \"#utility.yul\":891:897   */\n      dup7\n        /* \"#utility.yul\":887:904   */\n      add\n        /* \"#utility.yul\":839:918   */\n      tag_169\n      jump\t// in\n    tag_189:\n        /* \"#utility.yul\":830:918   */\n      swap2\n      pop\n        /* \"#utility.yul\":646:924   */\n      pop\n        /* \"#utility.yul\":584:924   */\n      swap3\n      swap2\n      pop\n      pop\n      jump\t// out\n        /* \"#utility.yul\":930:1069   */\n    tag_190:\n        /* \"#utility.yul\":976:981   */\n      0x00\n        /* \"#utility.yul\":1014:1020   */\n      dup2\n        /* \"#utility.yul\":1001:1021   */\n      calldataload\n        /* \"#utility.yul\":992:1021   */\n      swap1\n      pop\n        /* \"#utility.yul\":1030:1063   */\n      tag_192\n        /* \"#utility.yul\":1057:1062   */\n      dup2\n        /* \"#utility.yul\":1030:1063   */\n      tag_193\n      jump\t// in\n    tag_192:\n        /* \"#utility.yul\":930:1069   */\n      swap3\n      swap2\n      pop\n      pop\n      jump\t// out\n        /* \"#utility.yul\":1075:1404   */\n    tag_67:\n        /* \"#utility.yul\":1134:1140   */\n      0x00\n        /* \"#utility.yul\":1183:1185   */\n      0x20\n        /* \"#utility.yul\":1171:1180   */\n      dup3\n        /* \"#utility.yul\":1162:1169   */\n      dup5\n        /* \"#utility.yul\":1158:1181   */\n      sub\n        /* \"#utility.yul\":1154:1186   */\n      slt\n        /* \"#utility.yul\":1151:1270   */\n      iszero\n      tag_195\n      jumpi\n        /* \"#utility.yul\":1189:1268   */\n      tag_196\n      tag_197\n      jump\t// in\n    tag_196:\n        /* \"#utility.yul\":1151:1270   */\n    tag_195:\n        /* \"#utility.yul\":1309:1310   */\n      0x00\n        /* \"#utility.yul\":1334:1387   */\n      tag_198\n        /* \"#utility.yul\":1379:1386   */\n      dup5\n        /* \"#utility.yul\":1370:1376   */\n      dup3\n        /* \"#utility.yul\":1359:1368   */\n      dup6\n        /* \"#utility.yul\":1355:1377   */\n      add\n        /* \"#utility.yul\":1334:1387   */\n      tag_180\n      jump\t// in\n    tag_198:\n        /* \"#utility.yul\":1324:1387   */\n      swap2\n      pop\n        /* \"#utility.yul\":1280:1397   */\n      pop\n        /* \"#utility.yul\":1075:1404   */\n      swap3\n      swap2\n      pop\n      pop\n      jump\t// out\n        /* \"#utility.yul\":1410:1884   */\n    tag_88:\n        /* \"#utility.yul\":1478:1484   */\n      0x00\n        /* \"#utility.yul\":1486:1492   */\n      dup1\n        /* \"#utility.yul\":1535:1537   */\n      0x40\n        /* \"#utility.yul\":1523:1532   */\n      dup4\n        /* \"#utility.yul\":1514:1521   */\n      dup6\n        /* \"#utility.yul\":1510:1533   */\n      sub\n        /* \"#utility.yul\":1506:1538   */\n      slt\n        /* \"#utility.yul\":1503:1622   */\n      iszero\n      tag_200\n      jumpi\n        /* \"#utility.yul\":1541:1620   */\n      tag_201\n      tag_197\n      jump\t// in\n    tag_201:\n        /* \"#utility.yul\":1503:1622   */\n    tag_200:\n        /* \"#utility.yul\":1661:1662   */\n      0x00\n        /* \"#utility.yul\":1686:1739   */\n      tag_202\n        /* \"#utility.yul\":1731:1738   */\n      dup6\n        /* \"#utility.yul\":1722:1728   */\n      dup3\n        /* \"#utility.yul\":1711:1720   */\n      dup7\n        /* \"#utility.yul\":1707:1729   */\n      add\n        /* \"#utility.yul\":1686:1739   */\n      tag_180\n      jump\t// in\n    tag_202:\n        /* \"#utility.yul\":1676:1739   */\n      swap3\n      pop\n        /* \"#utility.yul\":1632:1749   */\n      pop\n        /* \"#utility.yul\":1788:1790   */\n      0x20\n        /* \"#utility.yul\":1814:1867   */\n      tag_203\n        /* \"#utility.yul\":1859:1866   */\n      dup6\n        /* \"#utility.yul\":1850:1856   */\n      dup3\n        /* \"#utility.yul\":1839:1848   */\n      dup7\n        /* \"#utility.yul\":1835:1857   */\n      add\n        /* \"#utility.yul\":1814:1867   */\n      tag_180\n      jump\t// in\n    tag_203:\n        /* \"#utility.yul\":1804:1867   */\n      swap2\n      pop\n        /* \"#utility.yul\":1759:1877   */\n      pop\n        /* \"#utility.yul\":1410:1884   */\n      swap3\n      pop\n      swap3\n      swap1\n      pop\n      jump\t// out\n        /* \"#utility.yul\":1890:2509   */\n    tag_43:\n        /* \"#utility.yul\":1967:1973   */\n      0x00\n        /* \"#utility.yul\":1975:1981   */\n      dup1\n        /* \"#utility.yul\":1983:1989   */\n      0x00\n        /* \"#utility.yul\":2032:2034   */\n      0x60\n        /* \"#utility.yul\":2020:2029   */\n      dup5\n        /* \"#utility.yul\":2011:2018   */\n      dup7\n        /* \"#utility.yul\":2007:2030   */\n      sub\n        /* \"#utility.yul\":2003:2035   */\n      slt\n        /* \"#utility.yul\":2000:2119   */\n      iszero\n      tag_205\n      jumpi\n        /* \"#utility.yul\":2038:2117   */\n      tag_206\n      tag_197\n      jump\t// in\n    tag_206:\n        /* \"#utility.yul\":2000:2119   */\n    tag_205:\n        /* \"#utility.yul\":2158:2159   */\n      0x00\n        /* \"#utility.yul\":2183:2236   */\n      tag_207\n        /* \"#utility.yul\":2228:2235   */\n      dup7\n        /* \"#utility.yul\":2219:2225   */\n      dup3\n        /* \"#utility.yul\":2208:2217   */\n      dup8\n        /* \"#utility.yul\":2204:2226   */\n      add\n        /* \"#utility.yul\":2183:2236   */\n      tag_180\n      jump\t// in\n    tag_207:\n        /* \"#utility.yul\":2173:2236   */\n      swap4\n      pop\n        /* \"#utility.yul\":2129:2246   */\n      pop\n        /* \"#utility.yul\":2285:2287   */\n      0x20\n        /* \"#utility.yul\":2311:2364   */\n      tag_208\n        /* \"#utility.yul\":2356:2363   */\n      dup7\n        /* \"#utility.yul\":2347:2353   */\n      dup3\n        /* \"#utility.yul\":2336:2345   */\n      dup8\n        /* \"#utility.yul\":2332:2354   */\n      add\n        /* \"#utility.yul\":2311:2364   */\n      tag_180\n      jump\t// in\n    tag_208:\n        /* \"#utility.yul\":2301:2364   */\n      swap3\n      pop\n        /* \"#utility.yul\":2256:2374   */\n      pop\n        /* \"#utility.yul\":2413:2415   */\n      0x40\n        /* \"#utility.yul\":2439:2492   */\n      tag_209\n        /* \"#utility.yul\":2484:2491   */\n      dup7\n        /* \"#utility.yul\":2475:2481   */\n      dup3\n        /* \"#utility.yul\":2464:2473   */\n      dup8\n        /* \"#utility.yul\":2460:2482   */\n      add\n        /* \"#utility.yul\":2439:2492   */\n      tag_190\n      jump\t// in\n    tag_209:\n        /* \"#utility.yul\":2429:2492   */\n      swap2\n      pop\n        /* \"#utility.yul\":2384:2502   */\n      pop\n        /* \"#utility.yul\":1890:2509   */\n      swap3\n      pop\n      swap3\n      pop\n      swap3\n      jump\t// out\n        /* \"#utility.yul\":2515:2989   */\n    tag_28:\n        /* \"#utility.yul\":2583:2589   */\n      0x00\n        /* \"#utility.yul\":2591:2597   */\n      dup1\n        /* \"#utility.yul\":2640:2642   */\n      0x40\n        /* \"#utility.yul\":2628:2637   */\n      dup4\n        /* \"#utility.yul\":2619:2626   */\n      dup6\n        /* \"#utility.yul\":2615:2638   */\n      sub\n        /* \"#utility.yul\":2611:2643   */\n      slt\n        /* \"#utility.yul\":2608:2727   */\n      iszero\n      tag_211\n      jumpi\n        /* \"#utility.yul\":2646:2725   */\n      tag_212\n      tag_197\n      jump\t// in\n    tag_212:\n        /* \"#utility.yul\":2608:2727   */\n    tag_211:\n        /* \"#utility.yul\":2766:2767   */\n      0x00\n        /* \"#utility.yul\":2791:2844   */\n      tag_213\n        /* \"#utility.yul\":2836:2843   */\n      dup6\n        /* \"#utility.yul\":2827:2833   */\n      dup3\n        /* \"#utility.yul\":2816:2825   */\n      dup7\n        /* \"#utility.yul\":2812:2834   */\n      add\n        /* \"#utility.yul\":2791:2844   */\n      tag_180\n      jump\t// in\n    tag_213:\n        /* \"#utility.yul\":2781:2844   */\n      swap3\n      pop\n        /* \"#utility.yul\":2737:2854   */\n      pop\n        /* \"#utility.yul\":2893:2895   */\n      0x20\n        /* \"#utility.yul\":2919:2972   */\n      tag_214\n        /* \"#utility.yul\":2964:2971   */\n      dup6\n        /* \"#utility.yul\":2955:2961   */\n      dup3\n        /* \"#utility.yul\":2944:2953   */\n      dup7\n        /* \"#utility.yul\":2940:2962   */\n      add\n        /* \"#utility.yul\":2919:2972   */\n      tag_190\n      jump\t// in\n    tag_214:\n        /* \"#utility.yul\":2909:2972   */\n      swap2\n      pop\n        /* \"#utility.yul\":2864:2982   */\n      pop\n        /* \"#utility.yul\":2515:2989   */\n      swap3\n      pop\n      swap3\n      swap1\n      pop\n      jump\t// out\n        /* \"#utility.yul\":2995:3504   */\n    tag_57:\n        /* \"#utility.yul\":3064:3070   */\n      0x00\n        /* \"#utility.yul\":3113:3115   */\n      0x20\n        /* \"#utility.yul\":3101:3110   */\n      dup3\n        /* \"#utility.yul\":3092:3099   */\n      dup5\n        /* \"#utility.yul\":3088:3111   */\n      sub\n        /* \"#utility.yul\":3084:3116   */\n      slt\n        /* \"#utility.yul\":3081:3200   */\n      iszero\n      tag_216\n      jumpi\n        /* \"#utility.yul\":3119:3198   */\n      tag_217\n      tag_197\n      jump\t// in\n    tag_217:\n        /* \"#utility.yul\":3081:3200   */\n    tag_216:\n        /* \"#utility.yul\":3267:3268   */\n      0x00\n        /* \"#utility.yul\":3256:3265   */\n      dup3\n        /* \"#utility.yul\":3252:3269   */\n      add\n        /* \"#utility.yul\":3239:3270   */\n      calldataload\n        /* \"#utility.yul\":3297:3315   */\n      0xffffffffffffffff\n        /* \"#utility.yul\":3289:3295   */\n      dup2\n        /* \"#utility.yul\":3286:3316   */\n      gt\n        /* \"#utility.yul\":3283:3400   */\n      iszero\n      tag_218\n      jumpi\n        /* \"#utility.yul\":3319:3398   */\n      tag_219\n      tag_220\n      jump\t// in\n    tag_219:\n        /* \"#utility.yul\":3283:3400   */\n    tag_218:\n        /* \"#utility.yul\":3424:3487   */\n      tag_221\n        /* \"#utility.yul\":3479:3486   */\n      dup5\n        /* \"#utility.yul\":3470:3476   */\n      dup3\n        /* \"#utility.yul\":3459:3468   */\n      dup6\n        /* \"#utility.yul\":3455:3477   */\n      add\n        /* \"#utility.yul\":3424:3487   */\n      tag_184\n      jump\t// in\n    tag_221:\n        /* \"#utility.yul\":3414:3487   */\n      swap2\n      pop\n        /* \"#utility.yul\":3210:3497   */\n      pop\n        /* \"#utility.yul\":2995:3504   */\n      swap3\n      swap2\n      pop\n      pop\n      jump\t// out\n        /* \"#utility.yul\":3510:4344   */\n    tag_83:\n        /* \"#utility.yul\":3598:3604   */\n      0x00\n        /* \"#utility.yul\":3606:3612   */\n      dup1\n        /* \"#utility.yul\":3655:3657   */\n      0x40\n        /* \"#utility.yul\":3643:3652   */\n      dup4\n        /* \"#utility.yul\":3634:3641   */\n      dup6\n        /* \"#utility.yul\":3630:3653   */\n      sub\n        /* \"#utility.yul\":3626:3658   */\n      slt\n        /* \"#utility.yul\":3623:3742   */\n      iszero\n      tag_223\n      jumpi\n        /* \"#utility.yul\":3661:3740   */\n      tag_224\n      tag_197\n      jump\t// in\n    tag_224:\n        /* \"#utility.yul\":3623:3742   */\n    tag_223:\n        /* \"#utility.yul\":3809:3810   */\n      0x00\n        /* \"#utility.yul\":3798:3807   */\n      dup4\n        /* \"#utility.yul\":3794:3811   */\n      add\n        /* \"#utility.yul\":3781:3812   */\n      calldataload\n        /* \"#utility.yul\":3839:3857   */\n      0xffffffffffffffff\n        /* \"#utility.yul\":3831:3837   */\n      dup2\n        /* \"#utility.yul\":3828:3858   */\n      gt\n        /* \"#utility.yul\":3825:3942   */\n      iszero\n      tag_225\n      jumpi\n        /* \"#utility.yul\":3861:3940   */\n      tag_226\n      tag_220\n      jump\t// in\n    tag_226:\n        /* \"#utility.yul\":3825:3942   */\n    tag_225:\n        /* \"#utility.yul\":3966:4029   */\n      tag_227\n        /* \"#utility.yul\":4021:4028   */\n      dup6\n        /* \"#utility.yul\":4012:4018   */\n      dup3\n        /* \"#utility.yul\":4001:4010   */\n      dup7\n        /* \"#utility.yul\":3997:4019   */\n      add\n        /* \"#utility.yul\":3966:4029   */\n      tag_184\n      jump\t// in\n    tag_227:\n        /* \"#utility.yul\":3956:4029   */\n      swap3\n      pop\n        /* \"#utility.yul\":3752:4039   */\n      pop\n        /* \"#utility.yul\":4106:4108   */\n      0x20\n        /* \"#utility.yul\":4095:4104   */\n      dup4\n        /* \"#utility.yul\":4091:4109   */\n      add\n        /* \"#utility.yul\":4078:4110   */\n      calldataload\n        /* \"#utility.yul\":4137:4155   */\n      0xffffffffffffffff\n        /* \"#utility.yul\":4129:4135   */\n      dup2\n        /* \"#utility.yul\":4126:4156   */\n      gt\n        /* \"#utility.yul\":4123:4240   */\n      iszero\n      tag_228\n      jumpi\n        /* \"#utility.yul\":4159:4238   */\n      tag_229\n      tag_220\n      jump\t// in\n    tag_229:\n        /* \"#utility.yul\":4123:4240   */\n    tag_228:\n        /* \"#utility.yul\":4264:4327   */\n      tag_230\n        /* \"#utility.yul\":4319:4326   */\n      dup6\n        /* \"#utility.yul\":4310:4316   */\n      dup3\n        /* \"#utility.yul\":4299:4308   */\n      dup7\n        /* \"#utility.yul\":4295:4317   */\n      add\n        /* \"#utility.yul\":4264:4327   */\n      tag_184\n      jump\t// in\n    tag_230:\n        /* \"#utility.yul\":4254:4327   */\n      swap2\n      pop\n        /* \"#utility.yul\":4049:4337   */\n      pop\n        /* \"#utility.yul\":3510:4344   */\n      swap3\n      pop\n      swap3\n      swap1\n      pop\n      jump\t// out\n        /* \"#utility.yul\":4350:5329   */\n    tag_62:\n        /* \"#utility.yul\":4447:4453   */\n      0x00\n        /* \"#utility.yul\":4455:4461   */\n      dup1\n        /* \"#utility.yul\":4463:4469   */\n      0x00\n        /* \"#utility.yul\":4512:4514   */\n      0x60\n        /* \"#utility.yul\":4500:4509   */\n      dup5\n        /* \"#utility.yul\":4491:4498   */\n      dup7\n        /* \"#utility.yul\":4487:4510   */\n      sub\n        /* \"#utility.yul\":4483:4515   */\n      slt\n        /* \"#utility.yul\":4480:4599   */\n      iszero\n      tag_232\n      jumpi\n        /* \"#utility.yul\":4518:4597   */\n      tag_233\n      tag_197\n      jump\t// in\n    tag_233:\n        /* \"#utility.yul\":4480:4599   */\n    tag_232:\n        /* \"#utility.yul\":4666:4667   */\n      0x00\n        /* \"#utility.yul\":4655:4664   */\n      dup5\n        /* \"#utility.yul\":4651:4668   */\n      add\n        /* \"#utility.yul\":4638:4669   */\n      calldataload\n        /* \"#utility.yul\":4696:4714   */\n      0xffffffffffffffff\n        /* \"#utility.yul\":4688:4694   */\n      dup2\n        /* \"#utility.yul\":4685:4715   */\n      gt\n        /* \"#utility.yul\":4682:4799   */\n      iszero\n      tag_234\n      jumpi\n        /* \"#utility.yul\":4718:4797   */\n      tag_235\n      tag_220\n      jump\t// in\n    tag_235:\n        /* \"#utility.yul\":4682:4799   */\n    tag_234:\n        /* \"#utility.yul\":4823:4886   */\n      tag_236\n        /* \"#utility.yul\":4878:4885   */\n      dup7\n        /* \"#utility.yul\":4869:4875   */\n      dup3\n        /* \"#utility.yul\":4858:4867   */\n      dup8\n        /* \"#utility.yul\":4854:4876   */\n      add\n        /* \"#utility.yul\":4823:4886   */\n      tag_184\n      jump\t// in\n    tag_236:\n        /* \"#utility.yul\":4813:4886   */\n      swap4\n      pop\n        /* \"#utility.yul\":4609:4896   */\n      pop\n        /* \"#utility.yul\":4963:4965   */\n      0x20\n        /* \"#utility.yul\":4952:4961   */\n      dup5\n        /* \"#utility.yul\":4948:4966   */\n      add\n        /* \"#utility.yul\":4935:4967   */\n      calldataload\n        /* \"#utility.yul\":4994:5012   */\n      0xffffffffffffffff\n        /* \"#utility.yul\":4986:4992   */\n      dup2\n        /* \"#utility.yul\":4983:5013   */\n      gt\n        /* \"#utility.yul\":4980:5097   */\n      iszero\n      tag_237\n      jumpi\n        /* \"#utility.yul\":5016:5095   */\n      tag_238\n      tag_220\n      jump\t// in\n    tag_238:\n        /* \"#utility.yul\":4980:5097   */\n    tag_237:\n        /* \"#utility.yul\":5121:5184   */\n      tag_239\n        /* \"#utility.yul\":5176:5183   */\n      dup7\n        /* \"#utility.yul\":5167:5173   */\n      dup3\n        /* \"#utility.yul\":5156:5165   */\n      dup8\n        /* \"#utility.yul\":5152:5174   */\n      add\n        /* \"#utility.yul\":5121:5184   */\n      tag_184\n      jump\t// in\n    tag_239:\n        /* \"#utility.yul\":5111:5184   */\n      swap3\n      pop\n        /* \"#utility.yul\":4906:5194   */\n      pop\n        /* \"#utility.yul\":5233:5235   */\n      0x40\n        /* \"#utility.yul\":5259:5312   */\n      tag_240\n        /* \"#utility.yul\":5304:5311   */\n      dup7\n        /* \"#utility.yul\":5295:5301   */\n      dup3\n        /* \"#utility.yul\":5284:5293   */\n      dup8\n        /* \"#utility.yul\":5280:5302   */\n      add\n        /* \"#utility.yul\":5259:5312   */\n      tag_190\n      jump\t// in\n    tag_240:\n        /* \"#utility.yul\":5249:5312   */\n      swap2\n      pop\n        /* \"#utility.yul\":5204:5322   */\n      pop\n        /* \"#utility.yul\":4350:5329   */\n      swap3\n      pop\n      swap3\n      pop\n      swap3\n      jump\t// out\n        /* \"#utility.yul\":5335:5989   */\n    tag_34:\n        /* \"#utility.yul\":5413:5419   */\n      0x00\n        /* \"#utility.yul\":5421:5427   */\n      dup1\n        /* \"#utility.yul\":5470:5472   */\n      0x40\n        /* \"#utility.yul\":5458:5467   */\n      dup4\n        /* \"#utility.yul\":5449:5456   */\n      dup6\n        /* \"#utility.yul\":5445:5468   */\n      sub\n        /* \"#utility.yul\":5441:5473   */\n      slt\n        /* \"#utility.yul\":5438:5557   */\n      iszero\n      tag_242\n      jumpi\n        /* \"#utility.yul\":5476:5555   */\n      tag_243\n      tag_197\n      jump\t// in\n    tag_243:\n        /* \"#utility.yul\":5438:5557   */\n    tag_242:\n        /* \"#utility.yul\":5624:5625   */\n      0x00\n        /* \"#utility.yul\":5613:5622   */\n      dup4\n        /* \"#utility.yul\":5609:5626   */\n      add\n        /* \"#utility.yul\":5596:5627   */\n      calldataload\n        /* \"#utility.yul\":5654:5672   */\n      0xffffffffffffffff\n        /* \"#utility.yul\":5646:5652   */\n      dup2\n        /* \"#utility.yul\":5643:5673   */\n      gt\n        /* \"#utility.yul\":5640:5757   */\n      iszero\n      tag_244\n      jumpi\n        /* \"#utility.yul\":5676:5755   */\n      tag_245\n      tag_220\n      jump\t// in\n    tag_245:\n        /* \"#utility.yul\":5640:5757   */\n    tag_244:\n        /* \"#utility.yul\":5781:5844   */\n      tag_246\n        /* \"#utility.yul\":5836:5843   */\n      dup6\n        /* \"#utility.yul\":5827:5833   */\n      dup3\n        /* \"#utility.yul\":5816:5825   */\n      dup7\n        /* \"#utility.yul\":5812:5834   */\n      add\n        /* \"#utility.yul\":5781:5844   */\n      tag_184\n      jump\t// in\n    tag_246:\n        /* \"#utility.yul\":5771:5844   */\n      swap3\n      pop\n        /* \"#utility.yul\":5567:5854   */\n      pop\n        /* \"#utility.yul\":5893:5895   */\n      0x20\n        /* \"#utility.yul\":5919:5972   */\n      tag_247\n        /* \"#utility.yul\":5964:5971   */\n      dup6\n        /* \"#utility.yul\":5955:5961   */\n      dup3\n        /* \"#utility.yul\":5944:5953   */\n      dup7\n        /* \"#utility.yul\":5940:5962   */\n      add\n        /* \"#utility.yul\":5919:5972   */\n      tag_190\n      jump\t// in\n    tag_247:\n        /* \"#utility.yul\":5909:5972   */\n      swap2\n      pop\n        /* \"#utility.yul\":5864:5982   */\n      pop\n        /* \"#utility.yul\":5335:5989   */\n      swap3\n      pop\n      swap3\n      swap1\n      pop\n      jump\t// out\n        /* \"#utility.yul\":5995:6324   */\n    tag_48:\n        /* \"#utility.yul\":6054:6060   */\n      0x00\n        /* \"#utility.yul\":6103:6105   */\n      0x20\n        /* \"#utility.yul\":6091:6100   */\n      dup3\n        /* \"#utility.yul\":6082:6089   */\n      dup5\n        /* \"#utility.yul\":6078:6101   */\n      sub\n        /* \"#utility.yul\":6074:6106   */\n      slt\n        /* \"#utility.yul\":6071:6190   */\n      iszero\n      tag_249\n      jumpi\n        /* \"#utility.yul\":6109:6188   */\n      tag_250\n      tag_197\n      jump\t// in\n    tag_250:\n        /* \"#utility.yul\":6071:6190   */\n    tag_249:\n        /* \"#utility.yul\":6229:6230   */\n      0x00\n        /* \"#utility.yul\":6254:6307   */\n      tag_251\n        /* \"#utility.yul\":6299:6306   */\n      dup5\n        /* \"#utility.yul\":6290:6296   */\n      dup3\n        /* \"#utility.yul\":6279:6288   */\n      dup6\n        /* \"#utility.yul\":6275:6297   */\n      add\n        /* \"#utility.yul\":6254:6307   */\n      tag_190\n      jump\t// in\n    tag_251:\n        /* \"#utility.yul\":6244:6307   */\n      swap2\n      pop\n        /* \"#utility.yul\":6200:6317   */\n      pop\n        /* \"#utility.yul\":5995:6324   */\n      swap3\n      swap2\n      pop\n      pop\n      jump\t// out\n        /* \"#utility.yul\":6330:6439   */\n    tag_252:\n        /* \"#utility.yul\":6411:6432   */\n      tag_254\n        /* \"#utility.yul\":6426:6431   */\n      dup2\n        /* \"#utility.yul\":6411:6432   */\n      tag_255\n      jump\t// in\n    tag_254:\n        /* \"#utility.yul\":6406:6409   */\n      dup3\n        /* \"#utility.yul\":6399:6433   */\n      mstore\n        /* \"#utility.yul\":6330:6439   */\n      pop\n      pop\n      jump\t// out\n        /* \"#utility.yul\":6445:6809   */\n    tag_256:\n        /* \"#utility.yul\":6533:6536   */\n      0x00\n        /* \"#utility.yul\":6561:6600   */\n      tag_258\n        /* \"#utility.yul\":6594:6599   */\n      dup3\n        /* \"#utility.yul\":6561:6600   */\n      tag_259\n      jump\t// in\n    tag_258:\n        /* \"#utility.yul\":6616:6687   */\n      tag_260\n        /* \"#utility.yul\":6680:6686   */\n      dup2\n        /* \"#utility.yul\":6675:6678   */\n      dup6\n        /* \"#utility.yul\":6616:6687   */\n      tag_261\n      jump\t// in\n    tag_260:\n        /* \"#utility.yul\":6609:6687   */\n      swap4\n      pop\n        /* \"#utility.yul\":6696:6748   */\n      tag_262\n        /* \"#utility.yul\":6741:6747   */\n      dup2\n        /* \"#utility.yul\":6736:6739   */\n      dup6\n        /* \"#utility.yul\":6729:6733   */\n      0x20\n        /* \"#utility.yul\":6722:6727   */\n      dup7\n        /* \"#utility.yul\":6718:6734   */\n      add\n        /* \"#utility.yul\":6696:6748   */\n      tag_263\n      jump\t// in\n    tag_262:\n        /* \"#utility.yul\":6773:6802   */\n      tag_264\n        /* \"#utility.yul\":6795:6801   */\n      dup2\n        /* \"#utility.yul\":6773:6802   */\n      tag_265\n      jump\t// in\n    tag_264:\n        /* \"#utility.yul\":6768:6771   */\n      dup5\n        /* \"#utility.yul\":6764:6803   */\n      add\n        /* \"#utility.yul\":6757:6803   */\n      swap2\n      pop\n        /* \"#utility.yul\":6537:6809   */\n      pop\n        /* \"#utility.yul\":6445:6809   */\n      swap3\n      swap2\n      pop\n      pop\n      jump\t// out\n        /* \"#utility.yul\":6815:7192   */\n    tag_266:\n        /* \"#utility.yul\":6921:6924   */\n      0x00\n        /* \"#utility.yul\":6949:6988   */\n      tag_268\n        /* \"#utility.yul\":6982:6987   */\n      dup3\n        /* \"#utility.yul\":6949:6988   */\n      tag_259\n      jump\t// in\n    tag_268:\n        /* \"#utility.yul\":7004:7093   */\n      tag_269\n        /* \"#utility.yul\":7086:7092   */\n      dup2\n        /* \"#utility.yul\":7081:7084   */\n      dup6\n        /* \"#utility.yul\":7004:7093   */\n      tag_270\n      jump\t// in\n    tag_269:\n        /* \"#utility.yul\":6997:7093   */\n      swap4\n      pop\n        /* \"#utility.yul\":7102:7154   */\n      tag_271\n        /* \"#utility.yul\":7147:7153   */\n      dup2\n        /* \"#utility.yul\":7142:7145   */\n      dup6\n        /* \"#utility.yul\":7135:7139   */\n      0x20\n        /* \"#utility.yul\":7128:7133   */\n      dup7\n        /* \"#utility.yul\":7124:7140   */\n      add\n        /* \"#utility.yul\":7102:7154   */\n      tag_263\n      jump\t// in\n    tag_271:\n        /* \"#utility.yul\":7179:7185   */\n      dup1\n        /* \"#utility.yul\":7174:7177   */\n      dup5\n        /* \"#utility.yul\":7170:7186   */\n      add\n        /* \"#utility.yul\":7163:7186   */\n      swap2\n      pop\n        /* \"#utility.yul\":6925:7192   */\n      pop\n        /* \"#utility.yul\":6815:7192   */\n      swap3\n      swap2\n      pop\n      pop\n      jump\t// out\n        /* \"#utility.yul\":7198:7564   */\n    tag_272:\n        /* \"#utility.yul\":7340:7343   */\n      0x00\n        /* \"#utility.yul\":7361:7428   */\n      tag_274\n        /* \"#utility.yul\":7425:7427   */\n      0x14\n        /* \"#utility.yul\":7420:7423   */\n      dup4\n        /* \"#utility.yul\":7361:7428   */\n      tag_261\n      jump\t// in\n    tag_274:\n        /* \"#utility.yul\":7354:7428   */\n      swap2\n      pop\n        /* \"#utility.yul\":7437:7530   */\n      tag_275\n        /* \"#utility.yul\":7526:7529   */\n      dup3\n        /* \"#utility.yul\":7437:7530   */\n      tag_276\n      jump\t// in\n    tag_275:\n        /* \"#utility.yul\":7555:7557   */\n      0x20\n        /* \"#utility.yul\":7550:7553   */\n      dup3\n        /* \"#utility.yul\":7546:7558   */\n      add\n        /* \"#utility.yul\":7539:7558   */\n      swap1\n      pop\n        /* \"#utility.yul\":7198:7564   */\n      swap2\n      swap1\n      pop\n      jump\t// out\n        /* \"#utility.yul\":7570:7936   */\n    tag_277:\n        /* \"#utility.yul\":7712:7715   */\n      0x00\n        /* \"#utility.yul\":7733:7800   */\n      tag_279\n        /* \"#utility.yul\":7797:7799   */\n      0x18\n        /* \"#utility.yul\":7792:7795   */\n      dup4\n        /* \"#utility.yul\":7733:7800   */\n      tag_261\n      jump\t// in\n    tag_279:\n        /* \"#utility.yul\":7726:7800   */\n      swap2\n      pop\n        /* \"#utility.yul\":7809:7902   */\n      tag_280\n        /* \"#utility.yul\":7898:7901   */\n      dup3\n        /* \"#utility.yul\":7809:7902   */\n      tag_281\n      jump\t// in\n    tag_280:\n        /* \"#utility.yul\":7927:7929   */\n      0x20\n        /* \"#utility.yul\":7922:7925   */\n      dup3\n        /* \"#utility.yul\":7918:7930   */\n      add\n        /* \"#utility.yul\":7911:7930   */\n      swap1\n      pop\n        /* \"#utility.yul\":7570:7936   */\n      swap2\n      swap1\n      pop\n      jump\t// out\n        /* \"#utility.yul\":7942:8308   */\n    tag_282:\n        /* \"#utility.yul\":8084:8087   */\n      0x00\n        /* \"#utility.yul\":8105:8172   */\n      tag_284\n        /* \"#utility.yul\":8169:8171   */\n      0x20\n        /* \"#utility.yul\":8164:8167   */\n      dup4\n        /* \"#utility.yul\":8105:8172   */\n      tag_261\n      jump\t// in\n    tag_284:\n        /* \"#utility.yul\":8098:8172   */\n      swap2\n      pop\n        /* \"#utility.yul\":8181:8274   */\n      tag_285\n        /* \"#utility.yul\":8270:8273   */\n      dup3\n        /* \"#utility.yul\":8181:8274   */\n      tag_286\n      jump\t// in\n    tag_285:\n        /* \"#utility.yul\":8299:8301   */\n      0x20\n        /* \"#utility.yul\":8294:8297   */\n      dup3\n        /* \"#utility.yul\":8290:8302   */\n      add\n        /* \"#utility.yul\":8283:8302   */\n      swap1\n      pop\n        /* \"#utility.yul\":7942:8308   */\n      swap2\n      swap1\n      pop\n      jump\t// out\n        /* \"#utility.yul\":8314:8432   */\n    tag_287:\n        /* \"#utility.yul\":8401:8425   */\n      tag_289\n        /* \"#utility.yul\":8419:8424   */\n      dup2\n        /* \"#utility.yul\":8401:8425   */\n      tag_290\n      jump\t// in\n    tag_289:\n        /* \"#utility.yul\":8396:8399   */\n      dup3\n        /* \"#utility.yul\":8389:8426   */\n      mstore\n        /* \"#utility.yul\":8314:8432   */\n      pop\n      pop\n      jump\t// out\n        /* \"#utility.yul\":8438:8550   */\n    tag_291:\n        /* \"#utility.yul\":8521:8543   */\n      tag_293\n        /* \"#utility.yul\":8537:8542   */\n      dup2\n        /* \"#utility.yul\":8521:8543   */\n      tag_294\n      jump\t// in\n    tag_293:\n        /* \"#utility.yul\":8516:8519   */\n      dup3\n        /* \"#utility.yul\":8509:8544   */\n      mstore\n        /* \"#utility.yul\":8438:8550   */\n      pop\n      pop\n      jump\t// out\n        /* \"#utility.yul\":8556:8831   */\n    tag_99:\n        /* \"#utility.yul\":8688:8691   */\n      0x00\n        /* \"#utility.yul\":8710:8805   */\n      tag_296\n        /* \"#utility.yul\":8801:8804   */\n      dup3\n        /* \"#utility.yul\":8792:8798   */\n      dup5\n        /* \"#utility.yul\":8710:8805   */\n      tag_266\n      jump\t// in\n    tag_296:\n        /* \"#utility.yul\":8703:8805   */\n      swap2\n      pop\n        /* \"#utility.yul\":8822:8825   */\n      dup2\n        /* \"#utility.yul\":8815:8825   */\n      swap1\n      pop\n        /* \"#utility.yul\":8556:8831   */\n      swap3\n      swap2\n      pop\n      pop\n      jump\t// out\n        /* \"#utility.yul\":8837:9047   */\n    tag_31:\n        /* \"#utility.yul\":8924:8928   */\n      0x00\n        /* \"#utility.yul\":8962:8964   */\n      0x20\n        /* \"#utility.yul\":8951:8960   */\n      dup3\n        /* \"#utility.yul\":8947:8965   */\n      add\n        /* \"#utility.yul\":8939:8965   */\n      swap1\n      pop\n        /* \"#utility.yul\":8975:9040   */\n      tag_298\n        /* \"#utility.yul\":9037:9038   */\n      0x00\n        /* \"#utility.yul\":9026:9035   */\n      dup4\n        /* \"#utility.yul\":9022:9039   */\n      add\n        /* \"#utility.yul\":9013:9019   */\n      dup5\n        /* \"#utility.yul\":8975:9040   */\n      tag_252\n      jump\t// in\n    tag_298:\n        /* \"#utility.yul\":8837:9047   */\n      swap3\n      swap2\n      pop\n      pop\n      jump\t// out\n        /* \"#utility.yul\":9053:9366   */\n    tag_25:\n        /* \"#utility.yul\":9166:9170   */\n      0x00\n        /* \"#utility.yul\":9204:9206   */\n      0x20\n        /* \"#utility.yul\":9193:9202   */\n      dup3\n        /* \"#utility.yul\":9189:9207   */\n      add\n        /* \"#utility.yul\":9181:9207   */\n      swap1\n      pop\n        /* \"#utility.yul\":9253:9262   */\n      dup2\n        /* \"#utility.yul\":9247:9251   */\n      dup2\n        /* \"#utility.yul\":9243:9263   */\n      sub\n        /* \"#utility.yul\":9239:9240   */\n      0x00\n        /* \"#utility.yul\":9228:9237   */\n      dup4\n        /* \"#utility.yul\":9224:9241   */\n      add\n        /* \"#utility.yul\":9217:9264   */\n      mstore\n        /* \"#utility.yul\":9281:9359   */\n      tag_300\n        /* \"#utility.yul\":9354:9358   */\n      dup2\n        /* \"#utility.yul\":9345:9351   */\n      dup5\n        /* \"#utility.yul\":9281:9359   */\n      tag_256\n      jump\t// in\n    tag_300:\n        /* \"#utility.yul\":9273:9359   */\n      swap1\n      pop\n        /* \"#utility.yul\":9053:9366   */\n      swap3\n      swap2\n      pop\n      pop\n      jump\t// out\n        /* \"#utility.yul\":9372:9791   */\n    tag_139:\n        /* \"#utility.yul\":9538:9542   */\n      0x00\n        /* \"#utility.yul\":9576:9578   */\n      0x20\n        /* \"#utility.yul\":9565:9574   */\n      dup3\n        /* \"#utility.yul\":9561:9579   */\n      add\n        /* \"#utility.yul\":9553:9579   */\n      swap1\n      pop\n        /* \"#utility.yul\":9625:9634   */\n      dup2\n        /* \"#utility.yul\":9619:9623   */\n      dup2\n        /* \"#utility.yul\":9615:9635   */\n      sub\n        /* \"#utility.yul\":9611:9612   */\n      0x00\n        /* \"#utility.yul\":9600:9609   */\n      dup4\n        /* \"#utility.yul\":9596:9613   */\n      add\n        /* \"#utility.yul\":9589:9636   */\n      mstore\n        /* \"#utility.yul\":9653:9784   */\n      tag_302\n        /* \"#utility.yul\":9779:9783   */\n      dup2\n        /* \"#utility.yul\":9653:9784   */\n      tag_272\n      jump\t// in\n    tag_302:\n        /* \"#utility.yul\":9645:9784   */\n      swap1\n      pop\n        /* \"#utility.yul\":9372:9791   */\n      swap2\n      swap1\n      pop\n      jump\t// out\n        /* \"#utility.yul\":9797:10216   */\n    tag_117:\n        /* \"#utility.yul\":9963:9967   */\n      0x00\n        /* \"#utility.yul\":10001:10003   */\n      0x20\n        /* \"#utility.yul\":9990:9999   */\n      dup3\n        /* \"#utility.yul\":9986:10004   */\n      add\n        /* \"#utility.yul\":9978:10004   */\n      swap1\n      pop\n        /* \"#utility.yul\":10050:10059   */\n      dup2\n        /* \"#utility.yul\":10044:10048   */\n      dup2\n        /* \"#utility.yul\":10040:10060   */\n      sub\n        /* \"#utility.yul\":10036:10037   */\n      0x00\n        /* \"#utility.yul\":10025:10034   */\n      dup4\n        /* \"#utility.yul\":10021:10038   */\n      add\n        /* \"#utility.yul\":10014:10061   */\n      mstore\n        /* \"#utility.yul\":10078:10209   */\n      tag_304\n        /* \"#utility.yul\":10204:10208   */\n      dup2\n        /* \"#utility.yul\":10078:10209   */\n      tag_277\n      jump\t// in\n    tag_304:\n        /* \"#utility.yul\":10070:10209   */\n      swap1\n      pop\n        /* \"#utility.yul\":9797:10216   */\n      swap2\n      swap1\n      pop\n      jump\t// out\n        /* \"#utility.yul\":10222:10641   */\n    tag_122:\n        /* \"#utility.yul\":10388:10392   */\n      0x00\n        /* \"#utility.yul\":10426:10428   */\n      0x20\n        /* \"#utility.yul\":10415:10424   */\n      dup3\n        /* \"#utility.yul\":10411:10429   */\n      add\n        /* \"#utility.yul\":10403:10429   */\n      swap1\n      pop\n        /* \"#utility.yul\":10475:10484   */\n      dup2\n        /* \"#utility.yul\":10469:10473   */\n      dup2\n        /* \"#utility.yul\":10465:10485   */\n      sub\n        /* \"#utility.yul\":10461:10462   */\n      0x00\n        /* \"#utility.yul\":10450:10459   */\n      dup4\n        /* \"#utility.yul\":10446:10463   */\n      add\n        /* \"#utility.yul\":10439:10486   */\n      mstore\n        /* \"#utility.yul\":10503:10634   */\n      tag_306\n        /* \"#utility.yul\":10629:10633   */\n      dup2\n        /* \"#utility.yul\":10503:10634   */\n      tag_282\n      jump\t// in\n    tag_306:\n        /* \"#utility.yul\":10495:10634   */\n      swap1\n      pop\n        /* \"#utility.yul\":10222:10641   */\n      swap2\n      swap1\n      pop\n      jump\t// out\n        /* \"#utility.yul\":10647:10869   */\n    tag_40:\n        /* \"#utility.yul\":10740:10744   */\n      0x00\n        /* \"#utility.yul\":10778:10780   */\n      0x20\n        /* \"#utility.yul\":10767:10776   */\n      dup3\n        /* \"#utility.yul\":10763:10781   */\n      add\n        /* \"#utility.yul\":10755:10781   */\n      swap1\n      pop\n        /* \"#utility.yul\":10791:10862   */\n      tag_308\n        /* \"#utility.yul\":10859:10860   */\n      0x00\n        /* \"#utility.yul\":10848:10857   */\n      dup4\n        /* \"#utility.yul\":10844:10861   */\n      add\n        /* \"#utility.yul\":10835:10841   */\n      dup5\n        /* \"#utility.yul\":10791:10862   */\n      tag_287\n      jump\t// in\n    tag_308:\n        /* \"#utility.yul\":10647:10869   */\n      swap3\n      swap2\n      pop\n      pop\n      jump\t// out\n        /* \"#utility.yul\":10875:11089   */\n    tag_54:\n        /* \"#utility.yul\":10964:10968   */\n      0x00\n        /* \"#utility.yul\":11002:11004   */\n      0x20\n        /* \"#utility.yul\":10991:11000   */\n      dup3\n        /* \"#utility.yul\":10987:11005   */\n      add\n        /* \"#utility.yul\":10979:11005   */\n      swap1\n      pop\n        /* \"#utility.yul\":11015:11082   */\n      tag_310\n        /* \"#utility.yul\":11079:11080   */\n      0x00\n        /* \"#utility.yul\":11068:11077   */\n      dup4\n        /* \"#utility.yul\":11064:11081   */\n      add\n        /* \"#utility.yul\":11055:11061   */\n      dup5\n        /* \"#utility.yul\":11015:11082   */\n      tag_291\n      jump\t// in\n    tag_310:\n        /* \"#utility.yul\":10875:11089   */\n      swap3\n      swap2\n      pop\n      pop\n      jump\t// out\n        /* \"#utility.yul\":11095:11224   */\n    tag_174:\n        /* \"#utility.yul\":11129:11135   */\n      0x00\n        /* \"#utility.yul\":11156:11176   */\n      tag_312\n      tag_313\n      jump\t// in\n    tag_312:\n        /* \"#utility.yul\":11146:11176   */\n      swap1\n      pop\n        /* \"#utility.yul\":11185:11218   */\n      tag_314\n        /* \"#utility.yul\":11213:11217   */\n      dup3\n        /* \"#utility.yul\":11205:11211   */\n      dup3\n        /* \"#utility.yul\":11185:11218   */\n      tag_315\n      jump\t// in\n    tag_314:\n        /* \"#utility.yul\":11095:11224   */\n      swap2\n      swap1\n      pop\n      jump\t// out\n        /* \"#utility.yul\":11230:11305   */\n    tag_313:\n        /* \"#utility.yul\":11263:11269   */\n      0x00\n        /* \"#utility.yul\":11296:11298   */\n      0x40\n        /* \"#utility.yul\":11290:11299   */\n      mload\n        /* \"#utility.yul\":11280:11299   */\n      swap1\n      pop\n        /* \"#utility.yul\":11230:11305   */\n      swap1\n      jump\t// out\n        /* \"#utility.yul\":11311:11619   */\n    tag_173:\n        /* \"#utility.yul\":11373:11377   */\n      0x00\n        /* \"#utility.yul\":11463:11481   */\n      0xffffffffffffffff\n        /* \"#utility.yul\":11455:11461   */\n      dup3\n        /* \"#utility.yul\":11452:11482   */\n      gt\n        /* \"#utility.yul\":11449:11505   */\n      iszero\n      tag_318\n      jumpi\n        /* \"#utility.yul\":11485:11503   */\n      tag_319\n      tag_320\n      jump\t// in\n    tag_319:\n        /* \"#utility.yul\":11449:11505   */\n    tag_318:\n        /* \"#utility.yul\":11523:11552   */\n      tag_321\n        /* \"#utility.yul\":11545:11551   */\n      dup3\n        /* \"#utility.yul\":11523:11552   */\n      tag_265\n      jump\t// in\n    tag_321:\n        /* \"#utility.yul\":11515:11552   */\n      swap1\n      pop\n        /* \"#utility.yul\":11607:11611   */\n      0x20\n        /* \"#utility.yul\":11601:11605   */\n      dup2\n        /* \"#utility.yul\":11597:11612   */\n      add\n        /* \"#utility.yul\":11589:11612   */\n      swap1\n      pop\n        /* \"#utility.yul\":11311:11619   */\n      swap2\n      swap1\n      pop\n      jump\t// out\n        /* \"#utility.yul\":11625:11724   */\n    tag_259:\n        /* \"#utility.yul\":11677:11683   */\n      0x00\n        /* \"#utility.yul\":11711:11716   */\n      dup2\n        /* \"#utility.yul\":11705:11717   */\n      mload\n        /* \"#utility.yul\":11695:11717   */\n      swap1\n      pop\n        /* \"#utility.yul\":11625:11724   */\n      swap2\n      swap1\n      pop\n      jump\t// out\n        /* \"#utility.yul\":11730:11899   */\n    tag_261:\n        /* \"#utility.yul\":11814:11825   */\n      0x00\n        /* \"#utility.yul\":11848:11854   */\n      dup3\n        /* \"#utility.yul\":11843:11846   */\n      dup3\n        /* \"#utility.yul\":11836:11855   */\n      mstore\n        /* \"#utility.yul\":11888:11892   */\n      0x20\n        /* \"#utility.yul\":11883:11886   */\n      dup3\n        /* \"#utility.yul\":11879:11893   */\n      add\n        /* \"#utility.yul\":11864:11893   */\n      swap1\n      pop\n        /* \"#utility.yul\":11730:11899   */\n      swap3\n      swap2\n      pop\n      pop\n      jump\t// out\n        /* \"#utility.yul\":11905:12053   */\n    tag_270:\n        /* \"#utility.yul\":12007:12018   */\n      0x00\n        /* \"#utility.yul\":12044:12047   */\n      dup2\n        /* \"#utility.yul\":12029:12047   */\n      swap1\n      pop\n        /* \"#utility.yul\":11905:12053   */\n      swap3\n      swap2\n      pop\n      pop\n      jump\t// out\n        /* \"#utility.yul\":12059:12364   */\n    tag_165:\n        /* \"#utility.yul\":12099:12102   */\n      0x00\n        /* \"#utility.yul\":12118:12138   */\n      tag_326\n        /* \"#utility.yul\":12136:12137   */\n      dup3\n        /* \"#utility.yul\":12118:12138   */\n      tag_290\n      jump\t// in\n    tag_326:\n        /* \"#utility.yul\":12113:12138   */\n      swap2\n      pop\n        /* \"#utility.yul\":12152:12172   */\n      tag_327\n        /* \"#utility.yul\":12170:12171   */\n      dup4\n        /* \"#utility.yul\":12152:12172   */\n      tag_290\n      jump\t// in\n    tag_327:\n        /* \"#utility.yul\":12147:12172   */\n      swap3\n      pop\n        /* \"#utility.yul\":12306:12307   */\n      dup3\n        /* \"#utility.yul\":12238:12304   */\n      0xffffffffffffffffffffffffffffffffffffffffffffffffffffffffffffffff\n        /* \"#utility.yul\":12234:12308   */\n      sub\n        /* \"#utility.yul\":12231:12232   */\n      dup3\n        /* \"#utility.yul\":12228:12309   */\n      gt\n        /* \"#utility.yul\":12225:12332   */\n      iszero\n      tag_328\n      jumpi\n        /* \"#utility.yul\":12312:12330   */\n      tag_329\n      tag_330\n      jump\t// in\n    tag_329:\n        /* \"#utility.yul\":12225:12332   */\n    tag_328:\n        /* \"#utility.yul\":12356:12357   */\n      dup3\n        /* \"#utility.yul\":12353:12354   */\n      dup3\n        /* \"#utility.yul\":12349:12358   */\n      add\n        /* \"#utility.yul\":12342:12358   */\n      swap1\n      pop\n        /* \"#utility.yul\":12059:12364   */\n      swap3\n      swap2\n      pop\n      pop\n      jump\t// out\n        /* \"#utility.yul\":12370:12561   */\n    tag_162:\n        /* \"#utility.yul\":12410:12414   */\n      0x00\n        /* \"#utility.yul\":12430:12450   */\n      tag_332\n        /* \"#utility.yul\":12448:12449   */\n      dup3\n        /* \"#utility.yul\":12430:12450   */\n      tag_290\n      jump\t// in\n    tag_332:\n        /* \"#utility.yul\":12425:12450   */\n      swap2\n      pop\n        /* \"#utility.yul\":12464:12484   */\n      tag_333\n        /* \"#utility.yul\":12482:12483   */\n      dup4\n        /* \"#utility.yul\":12464:12484   */\n      tag_290\n      jump\t// in\n    tag_333:\n        /* \"#utility.yul\":12459:12484   */\n      swap3\n      pop\n        /* \"#utility.yul\":12503:12504   */\n      dup3\n        /* \"#utility.yul\":12500:12501   */\n      dup3\n        /* \"#utility.yul\":12497:12505   */\n      lt\n        /* \"#utility.yul\":12494:12528   */\n      iszero\n      tag_334\n      jumpi\n        /* \"#utility.yul\":12508:12526   */\n      tag_335\n      tag_330\n      jump\t// in\n    tag_335:\n        /* \"#utility.yul\":12494:12528   */\n    tag_334:\n        /* \"#utility.yul\":12553:12554   */\n      dup3\n        /* \"#utility.yul\":12550:12551   */\n      dup3\n        /* \"#utility.yul\":12546:12555   */\n      sub\n        /* \"#utility.yul\":12538:12555   */\n      swap1\n      pop\n        /* \"#utility.yul\":12370:12561   */\n      swap3\n      swap2\n      pop\n      pop\n      jump\t// out\n        /* \"#utility.yul\":12567:12663   */\n    tag_336:\n        /* \"#utility.yul\":12604:12611   */\n      0x00\n        /* \"#utility.yul\":12633:12657   */\n      tag_338\n        /* \"#utility.yul\":12651:12656   */\n      dup3\n        /* \"#utility.yul\":12633:12657   */\n      tag_339\n      jump\t// in\n    tag_338:\n        /* \"#utility.yul\":12622:12657   */\n      swap1\n      pop\n        /* \"#utility.yul\":12567:12663   */\n      swap2\n      swap1\n      pop\n      jump\t// out\n        /* \"#utility.yul\":12669:12759   */\n    tag_255:\n        /* \"#utility.yul\":12703:12710   */\n      0x00\n        /* \"#utility.yul\":12746:12751   */\n      dup2\n        /* \"#utility.yul\":12739:12752   */\n      iszero\n        /* \"#utility.yul\":12732:12753   */\n      iszero\n        /* \"#utility.yul\":12721:12753   */\n      swap1\n      pop\n        /* \"#utility.yul\":12669:12759   */\n      swap2\n      swap1\n      pop\n      jump\t// out\n        /* \"#utility.yul\":12765:12891   */\n    tag_339:\n        /* \"#utility.yul\":12802:12809   */\n      0x00\n        /* \"#utility.yul\":12842:12884   */\n      0xffffffffffffffffffffffffffffffffffffffff\n        /* \"#utility.yul\":12835:12840   */\n      dup3\n        /* \"#utility.yul\":12831:12885   */\n      and\n        /* \"#utility.yul\":12820:12885   */\n      swap1\n      pop\n        /* \"#utility.yul\":12765:12891   */\n      swap2\n      swap1\n      pop\n      jump\t// out\n        /* \"#utility.yul\":12897:12974   */\n    tag_290:\n        /* \"#utility.yul\":12934:12941   */\n      0x00\n        /* \"#utility.yul\":12963:12968   */\n      dup2\n        /* \"#utility.yul\":12952:12968   */\n      swap1\n      pop\n        /* \"#utility.yul\":12897:12974   */\n      swap2\n      swap1\n      pop\n      jump\t// out\n        /* \"#utility.yul\":12980:13066   */\n    tag_294:\n        /* \"#utility.yul\":13015:13022   */\n      0x00\n        /* \"#utility.yul\":13055:13059   */\n      0xff\n        /* \"#utility.yul\":13048:13053   */\n      dup3\n        /* \"#utility.yul\":13044:13060   */\n      and\n        /* \"#utility.yul\":13033:13060   */\n      swap1\n      pop\n        /* \"#utility.yul\":12980:13066   */\n      swap2\n      swap1\n      pop\n      jump\t// out\n        /* \"#utility.yul\":13072:13226   */\n    tag_179:\n        /* \"#utility.yul\":13156:13162   */\n      dup3\n        /* \"#utility.yul\":13151:13154   */\n      dup2\n        /* \"#utility.yul\":13146:13149   */\n      dup4\n        /* \"#utility.yul\":13133:13163   */\n      calldatacopy\n        /* \"#utility.yul\":13218:13219   */\n      0x00\n        /* \"#utility.yul\":13209:13215   */\n      dup4\n        /* \"#utility.yul\":13204:13207   */\n      dup4\n        /* \"#utility.yul\":13200:13216   */\n      add\n        /* \"#utility.yul\":13193:13220   */\n      mstore\n        /* \"#utility.yul\":13072:13226   */\n      pop\n      pop\n      pop\n      jump\t// out\n        /* \"#utility.yul\":13232:13539   */\n    tag_263:\n        /* \"#utility.yul\":13300:13301   */\n      0x00\n        /* \"#utility.yul\":13310:13423   */\n    tag_346:\n        /* \"#utility.yul\":13324:13330   */\n      dup4\n        /* \"#utility.yul\":13321:13322   */\n      dup2\n        /* \"#utility.yul\":13318:13331   */\n      lt\n        /* \"#utility.yul\":13310:13423   */\n      iszero\n      tag_348\n      jumpi\n        /* \"#utility.yul\":13409:13410   */\n      dup1\n        /* \"#utility.yul\":13404:13407   */\n      dup3\n        /* \"#utility.yul\":13400:13411   */\n      add\n        /* \"#utility.yul\":13394:13412   */\n      mload\n        /* \"#utility.yul\":13390:13391   */\n      dup2\n        /* \"#utility.yul\":13385:13388   */\n      dup5\n        /* \"#utility.yul\":13381:13392   */\n      add\n        /* \"#utility.yul\":13374:13413   */\n      mstore\n        /* \"#utility.yul\":13346:13348   */\n      0x20\n        /* \"#utility.yul\":13343:13344   */\n      dup2\n        /* \"#utility.yul\":13339:13349   */\n      add\n        /* \"#utility.yul\":13334:13349   */\n      swap1\n      pop\n        /* \"#utility.yul\":13310:13423   */\n      jump(tag_346)\n    tag_348:\n        /* \"#utility.yul\":13441:13447   */\n      dup4\n        /* \"#utility.yul\":13438:13439   */\n      dup2\n        /* \"#utility.yul\":13435:13448   */\n      gt\n        /* \"#utility.yul\":13432:13533   */\n      iszero\n      tag_349\n      jumpi\n        /* \"#utility.yul\":13521:13522   */\n      0x00\n        /* \"#utility.yul\":13512:13518   */\n      dup5\n        /* \"#utility.yul\":13507:13510   */\n      dup5\n        /* \"#utility.yul\":13503:13519   */\n      add\n        /* \"#utility.yul\":13496:13523   */\n      mstore\n        /* \"#utility.yul\":13432:13533   */\n    tag_349:\n        /* \"#utility.yul\":13281:13539   */\n      pop\n        /* \"#utility.yul\":13232:13539   */\n      pop\n      pop\n      pop\n      jump\t// out\n        /* \"#utility.yul\":13545:13826   */\n    tag_315:\n        /* \"#utility.yul\":13628:13655   */\n      tag_351\n        /* \"#utility.yul\":13650:13654   */\n      dup3\n        /* \"#utility.yul\":13628:13655   */\n      tag_265\n      jump\t// in\n    tag_351:\n        /* \"#utility.yul\":13620:13626   */\n      dup2\n        /* \"#utility.yul\":13616:13656   */\n      add\n        /* \"#utility.yul\":13758:13764   */\n      dup2\n        /* \"#utility.yul\":13746:13756   */\n      dup2\n        /* \"#utility.yul\":13743:13765   */\n      lt\n        /* \"#utility.yul\":13722:13740   */\n      0xffffffffffffffff\n        /* \"#utility.yul\":13710:13720   */\n      dup3\n        /* \"#utility.yul\":13707:13741   */\n      gt\n        /* \"#utility.yul\":13704:13766   */\n      or\n        /* \"#utility.yul\":13701:13789   */\n      iszero\n      tag_352\n      jumpi\n        /* \"#utility.yul\":13769:13787   */\n      tag_353\n      tag_320\n      jump\t// in\n    tag_353:\n        /* \"#utility.yul\":13701:13789   */\n    tag_352:\n        /* \"#utility.yul\":13809:13819   */\n      dup1\n        /* \"#utility.yul\":13805:13807   */\n      0x40\n        /* \"#utility.yul\":13798:13820   */\n      mstore\n        /* \"#utility.yul\":13588:13826   */\n      pop\n        /* \"#utility.yul\":13545:13826   */\n      pop\n      pop\n      jump\t// out\n        /* \"#utility.yul\":13832:14012   */\n    tag_160:\n        /* \"#utility.yul\":13880:13957   */\n      0x4e487b7100000000000000000000000000000000000000000000000000000000\n        /* \"#utility.yul\":13877:13878   */\n      0x00\n        /* \"#utility.yul\":13870:13958   */\n      mstore\n        /* \"#utility.yul\":13977:13981   */\n      0x01\n        /* \"#utility.yul\":13974:13975   */\n      0x04\n        /* \"#utility.yul\":13967:13982   */\n      mstore\n        /* \"#utility.yul\":14001:14005   */\n      0x24\n        /* \"#utility.yul\":13998:13999   */\n      0x00\n        /* \"#utility.yul\":13991:14006   */\n      revert\n        /* \"#utility.yul\":14018:14198   */\n    tag_330:\n        /* \"#utility.yul\":14066:14143   */\n      0x4e487b7100000000000000000000000000000000000000000000000000000000\n        /* \"#utility.yul\":14063:14064   */\n      0x00\n        /* \"#utility.yul\":14056:14144   */\n      mstore\n        /* \"#utility.yul\":14163:14167   */\n      0x11\n        /* \"#utility.yul\":14160:14161   */\n      0x04\n        /* \"#utility.yul\":14153:14168   */\n      mstore\n        /* \"#utility.yul\":14187:14191   */\n      0x24\n        /* \"#utility.yul\":14184:14185   */\n      0x00\n        /* \"#utility.yul\":14177:14192   */\n      revert\n        /* \"#utility.yul\":14204:14384   */\n    tag_320:\n        /* \"#utility.yul\":14252:14329   */\n      0x4e487b7100000000000000000000000000000000000000000000000000000000\n        /* \"#utility.yul\":14249:14250   */\n      0x00\n        /* \"#utility.yul\":14242:14330   */\n      mstore\n        /* \"#utility.yul\":14349:14353   */\n      0x41\n        /* \"#utility.yul\":14346:14347   */\n      0x04\n        /* \"#utility.yul\":14339:14354   */\n      mstore\n        /* \"#utility.yul\":14373:14377   */\n      0x24\n        /* \"#utility.yul\":14370:14371   */\n      0x00\n        /* \"#utility.yul\":14363:14378   */\n      revert\n        /* \"#utility.yul\":14390:14507   */\n    tag_188:\n        /* \"#utility.yul\":14499:14500   */\n      0x00\n        /* \"#utility.yul\":14496:14497   */\n      dup1\n        /* \"#utility.yul\":14489:14501   */\n      revert\n        /* \"#utility.yul\":14513:14630   */\n    tag_177:\n        /* \"#utility.yul\":14622:14623   */\n      0x00\n        /* \"#utility.yul\":14619:14620   */\n      dup1\n        /* \"#utility.yul\":14612:14624   */\n      revert\n        /* \"#utility.yul\":14636:14753   */\n    tag_220:\n        /* \"#utility.yul\":14745:14746   */\n      0x00\n        /* \"#utility.yul\":14742:14743   */\n      dup1\n        /* \"#utility.yul\":14735:14747   */\n      revert\n        /* \"#utility.yul\":14759:14876   */\n    tag_197:\n        /* \"#utility.yul\":14868:14869   */\n      0x00\n        /* \"#utility.yul\":14865:14866   */\n      dup1\n        /* \"#utility.yul\":14858:14870   */\n      revert\n        /* \"#utility.yul\":14882:14984   */\n    tag_265:\n        /* \"#utility.yul\":14923:14929   */\n      0x00\n        /* \"#utility.yul\":14974:14976   */\n      0x1f\n        /* \"#utility.yul\":14970:14977   */\n      not\n        /* \"#utility.yul\":14965:14967   */\n      0x1f\n        /* \"#utility.yul\":14958:14963   */\n      dup4\n        /* \"#utility.yul\":14954:14968   */\n      add\n        /* \"#utility.yul\":14950:14978   */\n      and\n        /* \"#utility.yul\":14940:14978   */\n      swap1\n      pop\n        /* \"#utility.yul\":14882:14984   */\n      swap2\n      swap1\n      pop\n      jump\t// out\n        /* \"#utility.yul\":14990:15160   */\n    tag_276:\n        /* \"#utility.yul\":15130:15152   */\n      0x496e73756666696369656e742062616c616e6365000000000000000000000000\n        /* \"#utility.yul\":15126:15127   */\n      0x00\n        /* \"#utility.yul\":15118:15124   */\n      dup3\n        /* \"#utility.yul\":15114:15128   */\n      add\n        /* \"#utility.yul\":15107:15153   */\n      mstore\n        /* \"#utility.yul\":14990:15160   */\n      pop\n      jump\t// out\n        /* \"#utility.yul\":15166:15340   */\n    tag_281:\n        /* \"#utility.yul\":15306:15332   */\n      0x596f7520617265206e6f742077686974656c69737465642e0000000000000000\n        /* \"#utility.yul\":15302:15303   */\n      0x00\n        /* \"#utility.yul\":15294:15300   */\n      dup3\n        /* \"#utility.yul\":15290:15304   */\n      add\n        /* \"#utility.yul\":15283:15333   */\n      mstore\n        /* \"#utility.yul\":15166:15340   */\n      pop\n      jump\t// out\n        /* \"#utility.yul\":15346:15528   */\n    tag_286:\n        /* \"#utility.yul\":15486:15520   */\n      0x4e6f7420656e6f75676820746f6b656e7320696e207468652072657365727665\n        /* \"#utility.yul\":15482:15483   */\n      0x00\n        /* \"#utility.yul\":15474:15480   */\n      dup3\n        /* \"#utility.yul\":15470:15484   */\n      add\n        /* \"#utility.yul\":15463:15521   */\n      mstore\n        /* \"#utility.yul\":15346:15528   */\n      pop\n      jump\t// out\n        /* \"#utility.yul\":15534:15656   */\n    tag_183:\n        /* \"#utility.yul\":15607:15631   */\n      tag_366\n        /* \"#utility.yul\":15625:15630   */\n      dup2\n        /* \"#utility.yul\":15607:15631   */\n      tag_336\n      jump\t// in\n    tag_366:\n        /* \"#utility.yul\":15600:15605   */\n      dup2\n        /* \"#utility.yul\":15597:15632   */\n      eq\n        /* \"#utility.yul\":15587:15650   */\n      tag_367\n      jumpi\n        /* \"#utility.yul\":15646:15647   */\n      0x00\n        /* \"#utility.yul\":15643:15644   */\n      dup1\n        /* \"#utility.yul\":15636:15648   */\n      revert\n        /* \"#utility.yul\":15587:15650   */\n    tag_367:\n        /* \"#utility.yul\":15534:15656   */\n      pop\n      jump\t// out\n        /* \"#utility.yul\":15662:15784   */\n    tag_193:\n        /* \"#utility.yul\":15735:15759   */\n      tag_369\n        /* \"#utility.yul\":15753:15758   */\n      dup2\n        /* \"#utility.yul\":15735:15759   */\n      tag_290\n      jump\t// in\n    tag_369:\n        /* \"#utility.yul\":15728:15733   */\n      dup2\n        /* \"#utility.yul\":15725:15760   */\n      eq\n        /* \"#utility.yul\":15715:15778   */\n      tag_370\n      jumpi\n        /* \"#utility.yul\":15774:15775   */\n      0x00\n        /* \"#utility.yul\":15771:15772   */\n      dup1\n        /* \"#utility.yul\":15764:15776   */\n      revert\n        /* \"#utility.yul\":15715:15778   */\n    tag_370:\n        /* \"#utility.yul\":15662:15784   */\n      pop\n      jump\t// out\n\n    auxdata: 0xa264697066735822122038802b01c50846e7a91d96752b89fbb9daa414eff9b703a1b15c2581990c02e164736f6c63430008070033\n}\n",
				"bytecode": {
					"linkReferences": {},
					"object": "608060405273af5e0ea82a1a5110eee147efc8659c45526e9eb46000806101000a81548173ffffffffffffffffffffffffffffffffffffffff021916908373ffffffffffffffffffffffffffffffffffffffff1602179055506c01431e0fae6d7217caa000000060035534801561007557600080fd5b50600354600160003373ffffffffffffffffffffffffffffffffffffffff1673ffffffffffffffffffffffffffffffffffffffff16815260200190815260200160002081905550612011806100cb6000396000f3fe608060405234801561001057600080fd5b50600436106101005760003560e01c80635d1b1e6d11610097578063d395100211610066578063d3951002146102fd578063d5e1bdb31461032d578063dd62ed3e1461035d578063ff294f451461038d57610100565b80635d1b1e6d1461024f57806370a082311461027f57806395d89b41146102af578063a9059cbb146102cd57610100565b806323b872dd116100d357806323b872dd146101a15780632e1a7d4d146101d1578063313ce5671461020157806335ee5f871461021f57610100565b806306fdde0314610105578063095ea7b31461012357806312cb70c71461015357806318160ddd14610183575b600080fd5b61010d6103bd565b60405161011a9190611bf9565b60405180910390f35b61013d600480360381019061013891906118b2565b6103f6565b60405161014a9190611bde565b60405180910390f35b61016d60048036038101906101689190611a3e565b6104e8565b60405161017a9190611bde565b60405180910390f35b61018b610712565b6040516101989190611c7b565b60405180910390f35b6101bb60048036038101906101b6919061185f565b61071c565b6040516101c89190611bde565b60405180910390f35b6101eb60048036038101906101e69190611a9a565b610a9c565b6040516101f89190611c7b565b60405180910390f35b610209610bb1565b6040516102169190611c96565b60405180910390f35b610239600480360381019061023491906118f2565b610bb6565b6040516102469190611c7b565b60405180910390f35b610269600480360381019061026491906119b3565b610c42565b6040516102769190611bde565b60405180910390f35b610299600480360381019061029491906117f2565b611049565b6040516102a69190611c7b565b60405180910390f35b6102b7611092565b6040516102c49190611bf9565b60405180910390f35b6102e760048036038101906102e291906118b2565b6110cb565b6040516102f49190611bde565b60405180910390f35b61031760048036038101906103129190611a3e565b6112e8565b6040516103249190611bde565b60405180910390f35b6103476004803603810190610342919061193b565b61143b565b6040516103549190611c7b565b60405180910390f35b6103776004803603810190610372919061181f565b611549565b6040516103849190611c7b565b60405180910390f35b6103a760048036038101906103a29190611a3e565b6115d0565b6040516103b49190611bde565b60405180910390f35b6040518060400160405280601481526020017f476c6f62616c6c7920556e6974656420436f696e00000000000000000000000081525081565b600081600260003373ffffffffffffffffffffffffffffffffffffffff1673ffffffffffffffffffffffffffffffffffffffff16815260200190815260200160002060008573ffffffffffffffffffffffffffffffffffffffff1673ffffffffffffffffffffffffffffffffffffffff168152602001908152602001600020819055508273ffffffffffffffffffffffffffffffffffffffff163373ffffffffffffffffffffffffffffffffffffffff167f8c5be1e5ebec7d5bd14f71427d1e84f3dd0314c0f7b2291e5b200ac8c7c3b925846040516104d69190611c7b565b60405180910390a36001905092915050565b6000806004846040516104fb9190611bc7565b908152602001604051809103902060009054906101000a900473ffffffffffffffffffffffffffffffffffffffff169050600160003373ffffffffffffffffffffffffffffffffffffffff1673ffffffffffffffffffffffffffffffffffffffff1681526020019081526020016000205483111561057857600080fd5b6105ca83600160003373ffffffffffffffffffffffffffffffffffffffff1673ffffffffffffffffffffffffffffffffffffffff1681526020019081526020016000205461170590919063ffffffff16565b600160003373ffffffffffffffffffffffffffffffffffffffff1673ffffffffffffffffffffffffffffffffffffffff1681526020019081526020016000208190555061065f83600160008473ffffffffffffffffffffffffffffffffffffffff1673ffffffffffffffffffffffffffffffffffffffff1681526020019081526020016000205461172c90919063ffffffff16565b600160008373ffffffffffffffffffffffffffffffffffffffff1673ffffffffffffffffffffffffffffffffffffffff168152602001908152602001600020819055508073ffffffffffffffffffffffffffffffffffffffff163373ffffffffffffffffffffffffffffffffffffffff167fddf252ad1be2c89b69c2b068fc378daa952ba7f163c4a11628f55a4df523b3ef856040516106ff9190611c7b565b60405180910390a3600191505092915050565b6000600354905090565b6000600160008573ffffffffffffffffffffffffffffffffffffffff1673ffffffffffffffffffffffffffffffffffffffff1681526020019081526020016000205482111561076a57600080fd5b600260008573ffffffffffffffffffffffffffffffffffffffff1673ffffffffffffffffffffffffffffffffffffffff16815260200190815260200160002060003373ffffffffffffffffffffffffffffffffffffffff1673ffffffffffffffffffffffffffffffffffffffff168152602001908152602001600020548211156107f357600080fd5b61084582600160008773ffffffffffffffffffffffffffffffffffffffff1673ffffffffffffffffffffffffffffffffffffffff1681526020019081526020016000205461170590919063ffffffff16565b600160008673ffffffffffffffffffffffffffffffffffffffff1673ffffffffffffffffffffffffffffffffffffffff1681526020019081526020016000208190555061091782600260008773ffffffffffffffffffffffffffffffffffffffff1673ffffffffffffffffffffffffffffffffffffffff16815260200190815260200160002060003373ffffffffffffffffffffffffffffffffffffffff1673ffffffffffffffffffffffffffffffffffffffff1681526020019081526020016000205461170590919063ffffffff16565b600260008673ffffffffffffffffffffffffffffffffffffffff1673ffffffffffffffffffffffffffffffffffffffff16815260200190815260200160002060003373ffffffffffffffffffffffffffffffffffffffff1673ffffffffffffffffffffffffffffffffffffffff168152602001908152602001600020819055506109e982600160008673ffffffffffffffffffffffffffffffffffffffff1673ffffffffffffffffffffffffffffffffffffffff1681526020019081526020016000205461172c90919063ffffffff16565b600160008573ffffffffffffffffffffffffffffffffffffffff1673ffffffffffffffffffffffffffffffffffffffff168152602001908152602001600020819055508273ffffffffffffffffffffffffffffffffffffffff168473ffffffffffffffffffffffffffffffffffffffff167fddf252ad1be2c89b69c2b068fc378daa952ba7f163c4a11628f55a4df523b3ef84604051610a899190611c7b565b60405180910390a3600190509392505050565b60008060009054906101000a900473ffffffffffffffffffffffffffffffffffffffff1673ffffffffffffffffffffffffffffffffffffffff163373ffffffffffffffffffffffffffffffffffffffff1614610b2d576040517f08c379a0000000000000000000000000000000000000000000000000000000008152600401610b2490611c3b565b60405180910390fd5b6000610b3830611049565b905080831115610b7d576040517f08c379a0000000000000000000000000000000000000000000000000000000008152600401610b7490611c5b565b60405180910390fd5b610ba760008054906101000a900473ffffffffffffffffffffffffffffffffffffffff16846110cb565b5082915050919050565b601281565b600080600483604051610bc99190611bc7565b908152602001604051809103902060009054906101000a900473ffffffffffffffffffffffffffffffffffffffff169050600160008273ffffffffffffffffffffffffffffffffffffffff1673ffffffffffffffffffffffffffffffffffffffff16815260200190815260200160002054915050919050565b600080600485604051610c559190611bc7565b908152602001604051809103902060009054906101000a900473ffffffffffffffffffffffffffffffffffffffff1690506000600485604051610c989190611bc7565b908152602001604051809103902060009054906101000a900473ffffffffffffffffffffffffffffffffffffffff169050600160008373ffffffffffffffffffffffffffffffffffffffff1673ffffffffffffffffffffffffffffffffffffffff16815260200190815260200160002054841115610d1557600080fd5b600260008373ffffffffffffffffffffffffffffffffffffffff1673ffffffffffffffffffffffffffffffffffffffff16815260200190815260200160002060003373ffffffffffffffffffffffffffffffffffffffff1673ffffffffffffffffffffffffffffffffffffffff16815260200190815260200160002054841115610d9e57600080fd5b610df084600160008573ffffffffffffffffffffffffffffffffffffffff1673ffffffffffffffffffffffffffffffffffffffff1681526020019081526020016000205461170590919063ffffffff16565b600160008473ffffffffffffffffffffffffffffffffffffffff1673ffffffffffffffffffffffffffffffffffffffff16815260200190815260200160002081905550610ec284600260008573ffffffffffffffffffffffffffffffffffffffff1673ffffffffffffffffffffffffffffffffffffffff16815260200190815260200160002060003373ffffffffffffffffffffffffffffffffffffffff1673ffffffffffffffffffffffffffffffffffffffff1681526020019081526020016000205461170590919063ffffffff16565b600260008473ffffffffffffffffffffffffffffffffffffffff1673ffffffffffffffffffffffffffffffffffffffff16815260200190815260200160002060003373ffffffffffffffffffffffffffffffffffffffff1673ffffffffffffffffffffffffffffffffffffffff16815260200190815260200160002081905550610f9484600160008473ffffffffffffffffffffffffffffffffffffffff1673ffffffffffffffffffffffffffffffffffffffff1681526020019081526020016000205461172c90919063ffffffff16565b600160008373ffffffffffffffffffffffffffffffffffffffff1673ffffffffffffffffffffffffffffffffffffffff168152602001908152602001600020819055508073ffffffffffffffffffffffffffffffffffffffff168273ffffffffffffffffffffffffffffffffffffffff167fddf252ad1be2c89b69c2b068fc378daa952ba7f163c4a11628f55a4df523b3ef866040516110349190611c7b565b60405180910390a36001925050509392505050565b6000600160008373ffffffffffffffffffffffffffffffffffffffff1673ffffffffffffffffffffffffffffffffffffffff168152602001908152602001600020549050919050565b6040518060400160405280600381526020017f475543000000000000000000000000000000000000000000000000000000000081525081565b6000600160003373ffffffffffffffffffffffffffffffffffffffff1673ffffffffffffffffffffffffffffffffffffffff1681526020019081526020016000205482111561114f576040517f08c379a000000000000000000000000000000000000000000000000000000000815260040161114690611c1b565b60405180910390fd5b6111a182600160003373ffffffffffffffffffffffffffffffffffffffff1673ffffffffffffffffffffffffffffffffffffffff1681526020019081526020016000205461170590919063ffffffff16565b600160003373ffffffffffffffffffffffffffffffffffffffff1673ffffffffffffffffffffffffffffffffffffffff1681526020019081526020016000208190555061123682600160008673ffffffffffffffffffffffffffffffffffffffff1673ffffffffffffffffffffffffffffffffffffffff1681526020019081526020016000205461172c90919063ffffffff16565b600160008573ffffffffffffffffffffffffffffffffffffffff1673ffffffffffffffffffffffffffffffffffffffff168152602001908152602001600020819055508273ffffffffffffffffffffffffffffffffffffffff163373ffffffffffffffffffffffffffffffffffffffff167fddf252ad1be2c89b69c2b068fc378daa952ba7f163c4a11628f55a4df523b3ef846040516112d69190611c7b565b60405180910390a36001905092915050565b60008073ffffffffffffffffffffffffffffffffffffffff166004846040516113119190611bc7565b908152602001604051809103902060009054906101000a900473ffffffffffffffffffffffffffffffffffffffff1673ffffffffffffffffffffffffffffffffffffffff1614156113f9573360048460405161136d9190611bc7565b908152602001604051809103902060006101000a81548173ffffffffffffffffffffffffffffffffffffffff021916908373ffffffffffffffffffffffffffffffffffffffff1602179055507fb783ac61be9a63ecee43ec4875521540beaa0d5935b0d80543c42bd4aae8a0c9826040516113e89190611c7b565b60405180910390a160019050611435565b7f2dcc15de21ffd99c8ff84e0d8289119ca55fff2e9b4a1e2270baa5840cb82487826040516114289190611c7b565b60405180910390a1600090505b92915050565b60008060048460405161144e9190611bc7565b908152602001604051809103902060009054906101000a900473ffffffffffffffffffffffffffffffffffffffff16905060006004846040516114919190611bc7565b908152602001604051809103902060009054906101000a900473ffffffffffffffffffffffffffffffffffffffff169050600260008373ffffffffffffffffffffffffffffffffffffffff1673ffffffffffffffffffffffffffffffffffffffff16815260200190815260200160002060008273ffffffffffffffffffffffffffffffffffffffff1673ffffffffffffffffffffffffffffffffffffffff168152602001908152602001600020549250505092915050565b6000600260008473ffffffffffffffffffffffffffffffffffffffff1673ffffffffffffffffffffffffffffffffffffffff16815260200190815260200160002060008373ffffffffffffffffffffffffffffffffffffffff1673ffffffffffffffffffffffffffffffffffffffff16815260200190815260200160002054905092915050565b6000806004846040516115e39190611bc7565b908152602001604051809103902060009054906101000a900473ffffffffffffffffffffffffffffffffffffffff16905082600260003373ffffffffffffffffffffffffffffffffffffffff1673ffffffffffffffffffffffffffffffffffffffff16815260200190815260200160002060008373ffffffffffffffffffffffffffffffffffffffff1673ffffffffffffffffffffffffffffffffffffffff168152602001908152602001600020819055508073ffffffffffffffffffffffffffffffffffffffff163373ffffffffffffffffffffffffffffffffffffffff167f8c5be1e5ebec7d5bd14f71427d1e84f3dd0314c0f7b2291e5b200ac8c7c3b925856040516116f29190611c7b565b60405180910390a3600191505092915050565b60008282111561171857611717611e80565b5b81836117249190611d84565b905092915050565b600080828461173b9190611d2e565b90508381101561174e5761174d611e80565b5b8091505092915050565b600061176b61176684611cd6565b611cb1565b90508281526020810184848401111561178757611786611f12565b5b611792848285611e0d565b509392505050565b6000813590506117a981611fad565b92915050565b600082601f8301126117c4576117c3611f0d565b5b81356117d4848260208601611758565b91505092915050565b6000813590506117ec81611fc4565b92915050565b60006020828403121561180857611807611f1c565b5b60006118168482850161179a565b91505092915050565b6000806040838503121561183657611835611f1c565b5b60006118448582860161179a565b92505060206118558582860161179a565b9150509250929050565b60008060006060848603121561187857611877611f1c565b5b60006118868682870161179a565b93505060206118978682870161179a565b92505060406118a8868287016117dd565b9150509250925092565b600080604083850312156118c9576118c8611f1c565b5b60006118d78582860161179a565b92505060206118e8858286016117dd565b9150509250929050565b60006020828403121561190857611907611f1c565b5b600082013567ffffffffffffffff81111561192657611925611f17565b5b611932848285016117af565b91505092915050565b6000806040838503121561195257611951611f1c565b5b600083013567ffffffffffffffff8111156119705761196f611f17565b5b61197c858286016117af565b925050602083013567ffffffffffffffff81111561199d5761199c611f17565b5b6119a9858286016117af565b9150509250929050565b6000806000606084860312156119cc576119cb611f1c565b5b600084013567ffffffffffffffff8111156119ea576119e9611f17565b5b6119f6868287016117af565b935050602084013567ffffffffffffffff811115611a1757611a16611f17565b5b611a23868287016117af565b9250506040611a34868287016117dd565b9150509250925092565b60008060408385031215611a5557611a54611f1c565b5b600083013567ffffffffffffffff811115611a7357611a72611f17565b5b611a7f858286016117af565b9250506020611a90858286016117dd565b9150509250929050565b600060208284031215611ab057611aaf611f1c565b5b6000611abe848285016117dd565b91505092915050565b611ad081611dca565b82525050565b6000611ae182611d07565b611aeb8185611d12565b9350611afb818560208601611e1c565b611b0481611f21565b840191505092915050565b6000611b1a82611d07565b611b248185611d23565b9350611b34818560208601611e1c565b80840191505092915050565b6000611b4d601483611d12565b9150611b5882611f32565b602082019050919050565b6000611b70601883611d12565b9150611b7b82611f5b565b602082019050919050565b6000611b93602083611d12565b9150611b9e82611f84565b602082019050919050565b611bb281611df6565b82525050565b611bc181611e00565b82525050565b6000611bd38284611b0f565b915081905092915050565b6000602082019050611bf36000830184611ac7565b92915050565b60006020820190508181036000830152611c138184611ad6565b905092915050565b60006020820190508181036000830152611c3481611b40565b9050919050565b60006020820190508181036000830152611c5481611b63565b9050919050565b60006020820190508181036000830152611c7481611b86565b9050919050565b6000602082019050611c906000830184611ba9565b92915050565b6000602082019050611cab6000830184611bb8565b92915050565b6000611cbb611ccc565b9050611cc78282611e4f565b919050565b6000604051905090565b600067ffffffffffffffff821115611cf157611cf0611ede565b5b611cfa82611f21565b9050602081019050919050565b600081519050919050565b600082825260208201905092915050565b600081905092915050565b6000611d3982611df6565b9150611d4483611df6565b9250827fffffffffffffffffffffffffffffffffffffffffffffffffffffffffffffffff03821115611d7957611d78611eaf565b5b828201905092915050565b6000611d8f82611df6565b9150611d9a83611df6565b925082821015611dad57611dac611eaf565b5b828203905092915050565b6000611dc382611dd6565b9050919050565b60008115159050919050565b600073ffffffffffffffffffffffffffffffffffffffff82169050919050565b6000819050919050565b600060ff82169050919050565b82818337600083830152505050565b60005b83811015611e3a578082015181840152602081019050611e1f565b83811115611e49576000848401525b50505050565b611e5882611f21565b810181811067ffffffffffffffff82111715611e7757611e76611ede565b5b80604052505050565b7f4e487b7100000000000000000000000000000000000000000000000000000000600052600160045260246000fd5b7f4e487b7100000000000000000000000000000000000000000000000000000000600052601160045260246000fd5b7f4e487b7100000000000000000000000000000000000000000000000000000000600052604160045260246000fd5b600080fd5b600080fd5b600080fd5b600080fd5b6000601f19601f8301169050919050565b7f496e73756666696369656e742062616c616e6365000000000000000000000000600082015250565b7f596f7520617265206e6f742077686974656c69737465642e0000000000000000600082015250565b7f4e6f7420656e6f75676820746f6b656e7320696e207468652072657365727665600082015250565b611fb681611db8565b8114611fc157600080fd5b50565b611fcd81611df6565b8114611fd857600080fd5b5056fea264697066735822122038802b01c50846e7a91d96752b89fbb9daa414eff9b703a1b15c2581990c02e164736f6c63430008070033",
					"opcodes": "PUSH1 0x80 PUSH1 0x40 MSTORE PUSH20 0xAF5E0EA82A1A5110EEE147EFC8659C45526E9EB4 PUSH1 0x0 DUP1 PUSH2 0x100 EXP DUP2 SLOAD DUP2 PUSH20 0xFFFFFFFFFFFFFFFFFFFFFFFFFFFFFFFFFFFFFFFF MUL NOT AND SWAP1 DUP4 PUSH20 0xFFFFFFFFFFFFFFFFFFFFFFFFFFFFFFFFFFFFFFFF AND MUL OR SWAP1 SSTORE POP PUSH13 0x1431E0FAE6D7217CAA0000000 PUSH1 0x3 SSTORE CALLVALUE DUP1 ISZERO PUSH2 0x75 JUMPI PUSH1 0x0 DUP1 REVERT JUMPDEST POP PUSH1 0x3 SLOAD PUSH1 0x1 PUSH1 0x0 CALLER PUSH20 0xFFFFFFFFFFFFFFFFFFFFFFFFFFFFFFFFFFFFFFFF AND PUSH20 0xFFFFFFFFFFFFFFFFFFFFFFFFFFFFFFFFFFFFFFFF AND DUP2 MSTORE PUSH1 0x20 ADD SWAP1 DUP2 MSTORE PUSH1 0x20 ADD PUSH1 0x0 KECCAK256 DUP2 SWAP1 SSTORE POP PUSH2 0x2011 DUP1 PUSH2 0xCB PUSH1 0x0 CODECOPY PUSH1 0x0 RETURN INVALID PUSH1 0x80 PUSH1 0x40 MSTORE CALLVALUE DUP1 ISZERO PUSH2 0x10 JUMPI PUSH1 0x0 DUP1 REVERT JUMPDEST POP PUSH1 0x4 CALLDATASIZE LT PUSH2 0x100 JUMPI PUSH1 0x0 CALLDATALOAD PUSH1 0xE0 SHR DUP1 PUSH4 0x5D1B1E6D GT PUSH2 0x97 JUMPI DUP1 PUSH4 0xD3951002 GT PUSH2 0x66 JUMPI DUP1 PUSH4 0xD3951002 EQ PUSH2 0x2FD JUMPI DUP1 PUSH4 0xD5E1BDB3 EQ PUSH2 0x32D JUMPI DUP1 PUSH4 0xDD62ED3E EQ PUSH2 0x35D JUMPI DUP1 PUSH4 0xFF294F45 EQ PUSH2 0x38D JUMPI PUSH2 0x100 JUMP JUMPDEST DUP1 PUSH4 0x5D1B1E6D EQ PUSH2 0x24F JUMPI DUP1 PUSH4 0x70A08231 EQ PUSH2 0x27F JUMPI DUP1 PUSH4 0x95D89B41 EQ PUSH2 0x2AF JUMPI DUP1 PUSH4 0xA9059CBB EQ PUSH2 0x2CD JUMPI PUSH2 0x100 JUMP JUMPDEST DUP1 PUSH4 0x23B872DD GT PUSH2 0xD3 JUMPI DUP1 PUSH4 0x23B872DD EQ PUSH2 0x1A1 JUMPI DUP1 PUSH4 0x2E1A7D4D EQ PUSH2 0x1D1 JUMPI DUP1 PUSH4 0x313CE567 EQ PUSH2 0x201 JUMPI DUP1 PUSH4 0x35EE5F87 EQ PUSH2 0x21F JUMPI PUSH2 0x100 JUMP JUMPDEST DUP1 PUSH4 0x6FDDE03 EQ PUSH2 0x105 JUMPI DUP1 PUSH4 0x95EA7B3 EQ PUSH2 0x123 JUMPI DUP1 PUSH4 0x12CB70C7 EQ PUSH2 0x153 JUMPI DUP1 PUSH4 0x18160DDD EQ PUSH2 0x183 JUMPI JUMPDEST PUSH1 0x0 DUP1 REVERT JUMPDEST PUSH2 0x10D PUSH2 0x3BD JUMP JUMPDEST PUSH1 0x40 MLOAD PUSH2 0x11A SWAP2 SWAP1 PUSH2 0x1BF9 JUMP JUMPDEST PUSH1 0x40 MLOAD DUP1 SWAP2 SUB SWAP1 RETURN JUMPDEST PUSH2 0x13D PUSH1 0x4 DUP1 CALLDATASIZE SUB DUP2 ADD SWAP1 PUSH2 0x138 SWAP2 SWAP1 PUSH2 0x18B2 JUMP JUMPDEST PUSH2 0x3F6 JUMP JUMPDEST PUSH1 0x40 MLOAD PUSH2 0x14A SWAP2 SWAP1 PUSH2 0x1BDE JUMP JUMPDEST PUSH1 0x40 MLOAD DUP1 SWAP2 SUB SWAP1 RETURN JUMPDEST PUSH2 0x16D PUSH1 0x4 DUP1 CALLDATASIZE SUB DUP2 ADD SWAP1 PUSH2 0x168 SWAP2 SWAP1 PUSH2 0x1A3E JUMP JUMPDEST PUSH2 0x4E8 JUMP JUMPDEST PUSH1 0x40 MLOAD PUSH2 0x17A SWAP2 SWAP1 PUSH2 0x1BDE JUMP JUMPDEST PUSH1 0x40 MLOAD DUP1 SWAP2 SUB SWAP1 RETURN JUMPDEST PUSH2 0x18B PUSH2 0x712 JUMP JUMPDEST PUSH1 0x40 MLOAD PUSH2 0x198 SWAP2 SWAP1 PUSH2 0x1C7B JUMP JUMPDEST PUSH1 0x40 MLOAD DUP1 SWAP2 SUB SWAP1 RETURN JUMPDEST PUSH2 0x1BB PUSH1 0x4 DUP1 CALLDATASIZE SUB DUP2 ADD SWAP1 PUSH2 0x1B6 SWAP2 SWAP1 PUSH2 0x185F JUMP JUMPDEST PUSH2 0x71C JUMP JUMPDEST PUSH1 0x40 MLOAD PUSH2 0x1C8 SWAP2 SWAP1 PUSH2 0x1BDE JUMP JUMPDEST PUSH1 0x40 MLOAD DUP1 SWAP2 SUB SWAP1 RETURN JUMPDEST PUSH2 0x1EB PUSH1 0x4 DUP1 CALLDATASIZE SUB DUP2 ADD SWAP1 PUSH2 0x1E6 SWAP2 SWAP1 PUSH2 0x1A9A JUMP JUMPDEST PUSH2 0xA9C JUMP JUMPDEST PUSH1 0x40 MLOAD PUSH2 0x1F8 SWAP2 SWAP1 PUSH2 0x1C7B JUMP JUMPDEST PUSH1 0x40 MLOAD DUP1 SWAP2 SUB SWAP1 RETURN JUMPDEST PUSH2 0x209 PUSH2 0xBB1 JUMP JUMPDEST PUSH1 0x40 MLOAD PUSH2 0x216 SWAP2 SWAP1 PUSH2 0x1C96 JUMP JUMPDEST PUSH1 0x40 MLOAD DUP1 SWAP2 SUB SWAP1 RETURN JUMPDEST PUSH2 0x239 PUSH1 0x4 DUP1 CALLDATASIZE SUB DUP2 ADD SWAP1 PUSH2 0x234 SWAP2 SWAP1 PUSH2 0x18F2 JUMP JUMPDEST PUSH2 0xBB6 JUMP JUMPDEST PUSH1 0x40 MLOAD PUSH2 0x246 SWAP2 SWAP1 PUSH2 0x1C7B JUMP JUMPDEST PUSH1 0x40 MLOAD DUP1 SWAP2 SUB SWAP1 RETURN JUMPDEST PUSH2 0x269 PUSH1 0x4 DUP1 CALLDATASIZE SUB DUP2 ADD SWAP1 PUSH2 0x264 SWAP2 SWAP1 PUSH2 0x19B3 JUMP JUMPDEST PUSH2 0xC42 JUMP JUMPDEST PUSH1 0x40 MLOAD PUSH2 0x276 SWAP2 SWAP1 PUSH2 0x1BDE JUMP JUMPDEST PUSH1 0x40 MLOAD DUP1 SWAP2 SUB SWAP1 RETURN JUMPDEST PUSH2 0x299 PUSH1 0x4 DUP1 CALLDATASIZE SUB DUP2 ADD SWAP1 PUSH2 0x294 SWAP2 SWAP1 PUSH2 0x17F2 JUMP JUMPDEST PUSH2 0x1049 JUMP JUMPDEST PUSH1 0x40 MLOAD PUSH2 0x2A6 SWAP2 SWAP1 PUSH2 0x1C7B JUMP JUMPDEST PUSH1 0x40 MLOAD DUP1 SWAP2 SUB SWAP1 RETURN JUMPDEST PUSH2 0x2B7 PUSH2 0x1092 JUMP JUMPDEST PUSH1 0x40 MLOAD PUSH2 0x2C4 SWAP2 SWAP1 PUSH2 0x1BF9 JUMP JUMPDEST PUSH1 0x40 MLOAD DUP1 SWAP2 SUB SWAP1 RETURN JUMPDEST PUSH2 0x2E7 PUSH1 0x4 DUP1 CALLDATASIZE SUB DUP2 ADD SWAP1 PUSH2 0x2E2 SWAP2 SWAP1 PUSH2 0x18B2 JUMP JUMPDEST PUSH2 0x10CB JUMP JUMPDEST PUSH1 0x40 MLOAD PUSH2 0x2F4 SWAP2 SWAP1 PUSH2 0x1BDE JUMP JUMPDEST PUSH1 0x40 MLOAD DUP1 SWAP2 SUB SWAP1 RETURN JUMPDEST PUSH2 0x317 PUSH1 0x4 DUP1 CALLDATASIZE SUB DUP2 ADD SWAP1 PUSH2 0x312 SWAP2 SWAP1 PUSH2 0x1A3E JUMP JUMPDEST PUSH2 0x12E8 JUMP JUMPDEST PUSH1 0x40 MLOAD PUSH2 0x324 SWAP2 SWAP1 PUSH2 0x1BDE JUMP JUMPDEST PUSH1 0x40 MLOAD DUP1 SWAP2 SUB SWAP1 RETURN JUMPDEST PUSH2 0x347 PUSH1 0x4 DUP1 CALLDATASIZE SUB DUP2 ADD SWAP1 PUSH2 0x342 SWAP2 SWAP1 PUSH2 0x193B JUMP JUMPDEST PUSH2 0x143B JUMP JUMPDEST PUSH1 0x40 MLOAD PUSH2 0x354 SWAP2 SWAP1 PUSH2 0x1C7B JUMP JUMPDEST PUSH1 0x40 MLOAD DUP1 SWAP2 SUB SWAP1 RETURN JUMPDEST PUSH2 0x377 PUSH1 0x4 DUP1 CALLDATASIZE SUB DUP2 ADD SWAP1 PUSH2 0x372 SWAP2 SWAP1 PUSH2 0x181F JUMP JUMPDEST PUSH2 0x1549 JUMP JUMPDEST PUSH1 0x40 MLOAD PUSH2 0x384 SWAP2 SWAP1 PUSH2 0x1C7B JUMP JUMPDEST PUSH1 0x40 MLOAD DUP1 SWAP2 SUB SWAP1 RETURN JUMPDEST PUSH2 0x3A7 PUSH1 0x4 DUP1 CALLDATASIZE SUB DUP2 ADD SWAP1 PUSH2 0x3A2 SWAP2 SWAP1 PUSH2 0x1A3E JUMP JUMPDEST PUSH2 0x15D0 JUMP JUMPDEST PUSH1 0x40 MLOAD PUSH2 0x3B4 SWAP2 SWAP1 PUSH2 0x1BDE JUMP JUMPDEST PUSH1 0x40 MLOAD DUP1 SWAP2 SUB SWAP1 RETURN JUMPDEST PUSH1 0x40 MLOAD DUP1 PUSH1 0x40 ADD PUSH1 0x40 MSTORE DUP1 PUSH1 0x14 DUP2 MSTORE PUSH1 0x20 ADD PUSH32 0x476C6F62616C6C7920556E6974656420436F696E000000000000000000000000 DUP2 MSTORE POP DUP2 JUMP JUMPDEST PUSH1 0x0 DUP2 PUSH1 0x2 PUSH1 0x0 CALLER PUSH20 0xFFFFFFFFFFFFFFFFFFFFFFFFFFFFFFFFFFFFFFFF AND PUSH20 0xFFFFFFFFFFFFFFFFFFFFFFFFFFFFFFFFFFFFFFFF AND DUP2 MSTORE PUSH1 0x20 ADD SWAP1 DUP2 MSTORE PUSH1 0x20 ADD PUSH1 0x0 KECCAK256 PUSH1 0x0 DUP6 PUSH20 0xFFFFFFFFFFFFFFFFFFFFFFFFFFFFFFFFFFFFFFFF AND PUSH20 0xFFFFFFFFFFFFFFFFFFFFFFFFFFFFFFFFFFFFFFFF AND DUP2 MSTORE PUSH1 0x20 ADD SWAP1 DUP2 MSTORE PUSH1 0x20 ADD PUSH1 0x0 KECCAK256 DUP2 SWAP1 SSTORE POP DUP3 PUSH20 0xFFFFFFFFFFFFFFFFFFFFFFFFFFFFFFFFFFFFFFFF AND CALLER PUSH20 0xFFFFFFFFFFFFFFFFFFFFFFFFFFFFFFFFFFFFFFFF AND PUSH32 0x8C5BE1E5EBEC7D5BD14F71427D1E84F3DD0314C0F7B2291E5B200AC8C7C3B925 DUP5 PUSH1 0x40 MLOAD PUSH2 0x4D6 SWAP2 SWAP1 PUSH2 0x1C7B JUMP JUMPDEST PUSH1 0x40 MLOAD DUP1 SWAP2 SUB SWAP1 LOG3 PUSH1 0x1 SWAP1 POP SWAP3 SWAP2 POP POP JUMP JUMPDEST PUSH1 0x0 DUP1 PUSH1 0x4 DUP5 PUSH1 0x40 MLOAD PUSH2 0x4FB SWAP2 SWAP1 PUSH2 0x1BC7 JUMP JUMPDEST SWAP1 DUP2 MSTORE PUSH1 0x20 ADD PUSH1 0x40 MLOAD DUP1 SWAP2 SUB SWAP1 KECCAK256 PUSH1 0x0 SWAP1 SLOAD SWAP1 PUSH2 0x100 EXP SWAP1 DIV PUSH20 0xFFFFFFFFFFFFFFFFFFFFFFFFFFFFFFFFFFFFFFFF AND SWAP1 POP PUSH1 0x1 PUSH1 0x0 CALLER PUSH20 0xFFFFFFFFFFFFFFFFFFFFFFFFFFFFFFFFFFFFFFFF AND PUSH20 0xFFFFFFFFFFFFFFFFFFFFFFFFFFFFFFFFFFFFFFFF AND DUP2 MSTORE PUSH1 0x20 ADD SWAP1 DUP2 MSTORE PUSH1 0x20 ADD PUSH1 0x0 KECCAK256 SLOAD DUP4 GT ISZERO PUSH2 0x578 JUMPI PUSH1 0x0 DUP1 REVERT JUMPDEST PUSH2 0x5CA DUP4 PUSH1 0x1 PUSH1 0x0 CALLER PUSH20 0xFFFFFFFFFFFFFFFFFFFFFFFFFFFFFFFFFFFFFFFF AND PUSH20 0xFFFFFFFFFFFFFFFFFFFFFFFFFFFFFFFFFFFFFFFF AND DUP2 MSTORE PUSH1 0x20 ADD SWAP1 DUP2 MSTORE PUSH1 0x20 ADD PUSH1 0x0 KECCAK256 SLOAD PUSH2 0x1705 SWAP1 SWAP2 SWAP1 PUSH4 0xFFFFFFFF AND JUMP JUMPDEST PUSH1 0x1 PUSH1 0x0 CALLER PUSH20 0xFFFFFFFFFFFFFFFFFFFFFFFFFFFFFFFFFFFFFFFF AND PUSH20 0xFFFFFFFFFFFFFFFFFFFFFFFFFFFFFFFFFFFFFFFF AND DUP2 MSTORE PUSH1 0x20 ADD SWAP1 DUP2 MSTORE PUSH1 0x20 ADD PUSH1 0x0 KECCAK256 DUP2 SWAP1 SSTORE POP PUSH2 0x65F DUP4 PUSH1 0x1 PUSH1 0x0 DUP5 PUSH20 0xFFFFFFFFFFFFFFFFFFFFFFFFFFFFFFFFFFFFFFFF AND PUSH20 0xFFFFFFFFFFFFFFFFFFFFFFFFFFFFFFFFFFFFFFFF AND DUP2 MSTORE PUSH1 0x20 ADD SWAP1 DUP2 MSTORE PUSH1 0x20 ADD PUSH1 0x0 KECCAK256 SLOAD PUSH2 0x172C SWAP1 SWAP2 SWAP1 PUSH4 0xFFFFFFFF AND JUMP JUMPDEST PUSH1 0x1 PUSH1 0x0 DUP4 PUSH20 0xFFFFFFFFFFFFFFFFFFFFFFFFFFFFFFFFFFFFFFFF AND PUSH20 0xFFFFFFFFFFFFFFFFFFFFFFFFFFFFFFFFFFFFFFFF AND DUP2 MSTORE PUSH1 0x20 ADD SWAP1 DUP2 MSTORE PUSH1 0x20 ADD PUSH1 0x0 KECCAK256 DUP2 SWAP1 SSTORE POP DUP1 PUSH20 0xFFFFFFFFFFFFFFFFFFFFFFFFFFFFFFFFFFFFFFFF AND CALLER PUSH20 0xFFFFFFFFFFFFFFFFFFFFFFFFFFFFFFFFFFFFFFFF AND PUSH32 0xDDF252AD1BE2C89B69C2B068FC378DAA952BA7F163C4A11628F55A4DF523B3EF DUP6 PUSH1 0x40 MLOAD PUSH2 0x6FF SWAP2 SWAP1 PUSH2 0x1C7B JUMP JUMPDEST PUSH1 0x40 MLOAD DUP1 SWAP2 SUB SWAP1 LOG3 PUSH1 0x1 SWAP2 POP POP SWAP3 SWAP2 POP POP JUMP JUMPDEST PUSH1 0x0 PUSH1 0x3 SLOAD SWAP1 POP SWAP1 JUMP JUMPDEST PUSH1 0x0 PUSH1 0x1 PUSH1 0x0 DUP6 PUSH20 0xFFFFFFFFFFFFFFFFFFFFFFFFFFFFFFFFFFFFFFFF AND PUSH20 0xFFFFFFFFFFFFFFFFFFFFFFFFFFFFFFFFFFFFFFFF AND DUP2 MSTORE PUSH1 0x20 ADD SWAP1 DUP2 MSTORE PUSH1 0x20 ADD PUSH1 0x0 KECCAK256 SLOAD DUP3 GT ISZERO PUSH2 0x76A JUMPI PUSH1 0x0 DUP1 REVERT JUMPDEST PUSH1 0x2 PUSH1 0x0 DUP6 PUSH20 0xFFFFFFFFFFFFFFFFFFFFFFFFFFFFFFFFFFFFFFFF AND PUSH20 0xFFFFFFFFFFFFFFFFFFFFFFFFFFFFFFFFFFFFFFFF AND DUP2 MSTORE PUSH1 0x20 ADD SWAP1 DUP2 MSTORE PUSH1 0x20 ADD PUSH1 0x0 KECCAK256 PUSH1 0x0 CALLER PUSH20 0xFFFFFFFFFFFFFFFFFFFFFFFFFFFFFFFFFFFFFFFF AND PUSH20 0xFFFFFFFFFFFFFFFFFFFFFFFFFFFFFFFFFFFFFFFF AND DUP2 MSTORE PUSH1 0x20 ADD SWAP1 DUP2 MSTORE PUSH1 0x20 ADD PUSH1 0x0 KECCAK256 SLOAD DUP3 GT ISZERO PUSH2 0x7F3 JUMPI PUSH1 0x0 DUP1 REVERT JUMPDEST PUSH2 0x845 DUP3 PUSH1 0x1 PUSH1 0x0 DUP8 PUSH20 0xFFFFFFFFFFFFFFFFFFFFFFFFFFFFFFFFFFFFFFFF AND PUSH20 0xFFFFFFFFFFFFFFFFFFFFFFFFFFFFFFFFFFFFFFFF AND DUP2 MSTORE PUSH1 0x20 ADD SWAP1 DUP2 MSTORE PUSH1 0x20 ADD PUSH1 0x0 KECCAK256 SLOAD PUSH2 0x1705 SWAP1 SWAP2 SWAP1 PUSH4 0xFFFFFFFF AND JUMP JUMPDEST PUSH1 0x1 PUSH1 0x0 DUP7 PUSH20 0xFFFFFFFFFFFFFFFFFFFFFFFFFFFFFFFFFFFFFFFF AND PUSH20 0xFFFFFFFFFFFFFFFFFFFFFFFFFFFFFFFFFFFFFFFF AND DUP2 MSTORE PUSH1 0x20 ADD SWAP1 DUP2 MSTORE PUSH1 0x20 ADD PUSH1 0x0 KECCAK256 DUP2 SWAP1 SSTORE POP PUSH2 0x917 DUP3 PUSH1 0x2 PUSH1 0x0 DUP8 PUSH20 0xFFFFFFFFFFFFFFFFFFFFFFFFFFFFFFFFFFFFFFFF AND PUSH20 0xFFFFFFFFFFFFFFFFFFFFFFFFFFFFFFFFFFFFFFFF AND DUP2 MSTORE PUSH1 0x20 ADD SWAP1 DUP2 MSTORE PUSH1 0x20 ADD PUSH1 0x0 KECCAK256 PUSH1 0x0 CALLER PUSH20 0xFFFFFFFFFFFFFFFFFFFFFFFFFFFFFFFFFFFFFFFF AND PUSH20 0xFFFFFFFFFFFFFFFFFFFFFFFFFFFFFFFFFFFFFFFF AND DUP2 MSTORE PUSH1 0x20 ADD SWAP1 DUP2 MSTORE PUSH1 0x20 ADD PUSH1 0x0 KECCAK256 SLOAD PUSH2 0x1705 SWAP1 SWAP2 SWAP1 PUSH4 0xFFFFFFFF AND JUMP JUMPDEST PUSH1 0x2 PUSH1 0x0 DUP7 PUSH20 0xFFFFFFFFFFFFFFFFFFFFFFFFFFFFFFFFFFFFFFFF AND PUSH20 0xFFFFFFFFFFFFFFFFFFFFFFFFFFFFFFFFFFFFFFFF AND DUP2 MSTORE PUSH1 0x20 ADD SWAP1 DUP2 MSTORE PUSH1 0x20 ADD PUSH1 0x0 KECCAK256 PUSH1 0x0 CALLER PUSH20 0xFFFFFFFFFFFFFFFFFFFFFFFFFFFFFFFFFFFFFFFF AND PUSH20 0xFFFFFFFFFFFFFFFFFFFFFFFFFFFFFFFFFFFFFFFF AND DUP2 MSTORE PUSH1 0x20 ADD SWAP1 DUP2 MSTORE PUSH1 0x20 ADD PUSH1 0x0 KECCAK256 DUP2 SWAP1 SSTORE POP PUSH2 0x9E9 DUP3 PUSH1 0x1 PUSH1 0x0 DUP7 PUSH20 0xFFFFFFFFFFFFFFFFFFFFFFFFFFFFFFFFFFFFFFFF AND PUSH20 0xFFFFFFFFFFFFFFFFFFFFFFFFFFFFFFFFFFFFFFFF AND DUP2 MSTORE PUSH1 0x20 ADD SWAP1 DUP2 MSTORE PUSH1 0x20 ADD PUSH1 0x0 KECCAK256 SLOAD PUSH2 0x172C SWAP1 SWAP2 SWAP1 PUSH4 0xFFFFFFFF AND JUMP JUMPDEST PUSH1 0x1 PUSH1 0x0 DUP6 PUSH20 0xFFFFFFFFFFFFFFFFFFFFFFFFFFFFFFFFFFFFFFFF AND PUSH20 0xFFFFFFFFFFFFFFFFFFFFFFFFFFFFFFFFFFFFFFFF AND DUP2 MSTORE PUSH1 0x20 ADD SWAP1 DUP2 MSTORE PUSH1 0x20 ADD PUSH1 0x0 KECCAK256 DUP2 SWAP1 SSTORE POP DUP3 PUSH20 0xFFFFFFFFFFFFFFFFFFFFFFFFFFFFFFFFFFFFFFFF AND DUP5 PUSH20 0xFFFFFFFFFFFFFFFFFFFFFFFFFFFFFFFFFFFFFFFF AND PUSH32 0xDDF252AD1BE2C89B69C2B068FC378DAA952BA7F163C4A11628F55A4DF523B3EF DUP5 PUSH1 0x40 MLOAD PUSH2 0xA89 SWAP2 SWAP1 PUSH2 0x1C7B JUMP JUMPDEST PUSH1 0x40 MLOAD DUP1 SWAP2 SUB SWAP1 LOG3 PUSH1 0x1 SWAP1 POP SWAP4 SWAP3 POP POP POP JUMP JUMPDEST PUSH1 0x0 DUP1 PUSH1 0x0 SWAP1 SLOAD SWAP1 PUSH2 0x100 EXP SWAP1 DIV PUSH20 0xFFFFFFFFFFFFFFFFFFFFFFFFFFFFFFFFFFFFFFFF AND PUSH20 0xFFFFFFFFFFFFFFFFFFFFFFFFFFFFFFFFFFFFFFFF AND CALLER PUSH20 0xFFFFFFFFFFFFFFFFFFFFFFFFFFFFFFFFFFFFFFFF AND EQ PUSH2 0xB2D JUMPI PUSH1 0x40 MLOAD PUSH32 0x8C379A000000000000000000000000000000000000000000000000000000000 DUP2 MSTORE PUSH1 0x4 ADD PUSH2 0xB24 SWAP1 PUSH2 0x1C3B JUMP JUMPDEST PUSH1 0x40 MLOAD DUP1 SWAP2 SUB SWAP1 REVERT JUMPDEST PUSH1 0x0 PUSH2 0xB38 ADDRESS PUSH2 0x1049 JUMP JUMPDEST SWAP1 POP DUP1 DUP4 GT ISZERO PUSH2 0xB7D JUMPI PUSH1 0x40 MLOAD PUSH32 0x8C379A000000000000000000000000000000000000000000000000000000000 DUP2 MSTORE PUSH1 0x4 ADD PUSH2 0xB74 SWAP1 PUSH2 0x1C5B JUMP JUMPDEST PUSH1 0x40 MLOAD DUP1 SWAP2 SUB SWAP1 REVERT JUMPDEST PUSH2 0xBA7 PUSH1 0x0 DUP1 SLOAD SWAP1 PUSH2 0x100 EXP SWAP1 DIV PUSH20 0xFFFFFFFFFFFFFFFFFFFFFFFFFFFFFFFFFFFFFFFF AND DUP5 PUSH2 0x10CB JUMP JUMPDEST POP DUP3 SWAP2 POP POP SWAP2 SWAP1 POP JUMP JUMPDEST PUSH1 0x12 DUP2 JUMP JUMPDEST PUSH1 0x0 DUP1 PUSH1 0x4 DUP4 PUSH1 0x40 MLOAD PUSH2 0xBC9 SWAP2 SWAP1 PUSH2 0x1BC7 JUMP JUMPDEST SWAP1 DUP2 MSTORE PUSH1 0x20 ADD PUSH1 0x40 MLOAD DUP1 SWAP2 SUB SWAP1 KECCAK256 PUSH1 0x0 SWAP1 SLOAD SWAP1 PUSH2 0x100 EXP SWAP1 DIV PUSH20 0xFFFFFFFFFFFFFFFFFFFFFFFFFFFFFFFFFFFFFFFF AND SWAP1 POP PUSH1 0x1 PUSH1 0x0 DUP3 PUSH20 0xFFFFFFFFFFFFFFFFFFFFFFFFFFFFFFFFFFFFFFFF AND PUSH20 0xFFFFFFFFFFFFFFFFFFFFFFFFFFFFFFFFFFFFFFFF AND DUP2 MSTORE PUSH1 0x20 ADD SWAP1 DUP2 MSTORE PUSH1 0x20 ADD PUSH1 0x0 KECCAK256 SLOAD SWAP2 POP POP SWAP2 SWAP1 POP JUMP JUMPDEST PUSH1 0x0 DUP1 PUSH1 0x4 DUP6 PUSH1 0x40 MLOAD PUSH2 0xC55 SWAP2 SWAP1 PUSH2 0x1BC7 JUMP JUMPDEST SWAP1 DUP2 MSTORE PUSH1 0x20 ADD PUSH1 0x40 MLOAD DUP1 SWAP2 SUB SWAP1 KECCAK256 PUSH1 0x0 SWAP1 SLOAD SWAP1 PUSH2 0x100 EXP SWAP1 DIV PUSH20 0xFFFFFFFFFFFFFFFFFFFFFFFFFFFFFFFFFFFFFFFF AND SWAP1 POP PUSH1 0x0 PUSH1 0x4 DUP6 PUSH1 0x40 MLOAD PUSH2 0xC98 SWAP2 SWAP1 PUSH2 0x1BC7 JUMP JUMPDEST SWAP1 DUP2 MSTORE PUSH1 0x20 ADD PUSH1 0x40 MLOAD DUP1 SWAP2 SUB SWAP1 KECCAK256 PUSH1 0x0 SWAP1 SLOAD SWAP1 PUSH2 0x100 EXP SWAP1 DIV PUSH20 0xFFFFFFFFFFFFFFFFFFFFFFFFFFFFFFFFFFFFFFFF AND SWAP1 POP PUSH1 0x1 PUSH1 0x0 DUP4 PUSH20 0xFFFFFFFFFFFFFFFFFFFFFFFFFFFFFFFFFFFFFFFF AND PUSH20 0xFFFFFFFFFFFFFFFFFFFFFFFFFFFFFFFFFFFFFFFF AND DUP2 MSTORE PUSH1 0x20 ADD SWAP1 DUP2 MSTORE PUSH1 0x20 ADD PUSH1 0x0 KECCAK256 SLOAD DUP5 GT ISZERO PUSH2 0xD15 JUMPI PUSH1 0x0 DUP1 REVERT JUMPDEST PUSH1 0x2 PUSH1 0x0 DUP4 PUSH20 0xFFFFFFFFFFFFFFFFFFFFFFFFFFFFFFFFFFFFFFFF AND PUSH20 0xFFFFFFFFFFFFFFFFFFFFFFFFFFFFFFFFFFFFFFFF AND DUP2 MSTORE PUSH1 0x20 ADD SWAP1 DUP2 MSTORE PUSH1 0x20 ADD PUSH1 0x0 KECCAK256 PUSH1 0x0 CALLER PUSH20 0xFFFFFFFFFFFFFFFFFFFFFFFFFFFFFFFFFFFFFFFF AND PUSH20 0xFFFFFFFFFFFFFFFFFFFFFFFFFFFFFFFFFFFFFFFF AND DUP2 MSTORE PUSH1 0x20 ADD SWAP1 DUP2 MSTORE PUSH1 0x20 ADD PUSH1 0x0 KECCAK256 SLOAD DUP5 GT ISZERO PUSH2 0xD9E JUMPI PUSH1 0x0 DUP1 REVERT JUMPDEST PUSH2 0xDF0 DUP5 PUSH1 0x1 PUSH1 0x0 DUP6 PUSH20 0xFFFFFFFFFFFFFFFFFFFFFFFFFFFFFFFFFFFFFFFF AND PUSH20 0xFFFFFFFFFFFFFFFFFFFFFFFFFFFFFFFFFFFFFFFF AND DUP2 MSTORE PUSH1 0x20 ADD SWAP1 DUP2 MSTORE PUSH1 0x20 ADD PUSH1 0x0 KECCAK256 SLOAD PUSH2 0x1705 SWAP1 SWAP2 SWAP1 PUSH4 0xFFFFFFFF AND JUMP JUMPDEST PUSH1 0x1 PUSH1 0x0 DUP5 PUSH20 0xFFFFFFFFFFFFFFFFFFFFFFFFFFFFFFFFFFFFFFFF AND PUSH20 0xFFFFFFFFFFFFFFFFFFFFFFFFFFFFFFFFFFFFFFFF AND DUP2 MSTORE PUSH1 0x20 ADD SWAP1 DUP2 MSTORE PUSH1 0x20 ADD PUSH1 0x0 KECCAK256 DUP2 SWAP1 SSTORE POP PUSH2 0xEC2 DUP5 PUSH1 0x2 PUSH1 0x0 DUP6 PUSH20 0xFFFFFFFFFFFFFFFFFFFFFFFFFFFFFFFFFFFFFFFF AND PUSH20 0xFFFFFFFFFFFFFFFFFFFFFFFFFFFFFFFFFFFFFFFF AND DUP2 MSTORE PUSH1 0x20 ADD SWAP1 DUP2 MSTORE PUSH1 0x20 ADD PUSH1 0x0 KECCAK256 PUSH1 0x0 CALLER PUSH20 0xFFFFFFFFFFFFFFFFFFFFFFFFFFFFFFFFFFFFFFFF AND PUSH20 0xFFFFFFFFFFFFFFFFFFFFFFFFFFFFFFFFFFFFFFFF AND DUP2 MSTORE PUSH1 0x20 ADD SWAP1 DUP2 MSTORE PUSH1 0x20 ADD PUSH1 0x0 KECCAK256 SLOAD PUSH2 0x1705 SWAP1 SWAP2 SWAP1 PUSH4 0xFFFFFFFF AND JUMP JUMPDEST PUSH1 0x2 PUSH1 0x0 DUP5 PUSH20 0xFFFFFFFFFFFFFFFFFFFFFFFFFFFFFFFFFFFFFFFF AND PUSH20 0xFFFFFFFFFFFFFFFFFFFFFFFFFFFFFFFFFFFFFFFF AND DUP2 MSTORE PUSH1 0x20 ADD SWAP1 DUP2 MSTORE PUSH1 0x20 ADD PUSH1 0x0 KECCAK256 PUSH1 0x0 CALLER PUSH20 0xFFFFFFFFFFFFFFFFFFFFFFFFFFFFFFFFFFFFFFFF AND PUSH20 0xFFFFFFFFFFFFFFFFFFFFFFFFFFFFFFFFFFFFFFFF AND DUP2 MSTORE PUSH1 0x20 ADD SWAP1 DUP2 MSTORE PUSH1 0x20 ADD PUSH1 0x0 KECCAK256 DUP2 SWAP1 SSTORE POP PUSH2 0xF94 DUP5 PUSH1 0x1 PUSH1 0x0 DUP5 PUSH20 0xFFFFFFFFFFFFFFFFFFFFFFFFFFFFFFFFFFFFFFFF AND PUSH20 0xFFFFFFFFFFFFFFFFFFFFFFFFFFFFFFFFFFFFFFFF AND DUP2 MSTORE PUSH1 0x20 ADD SWAP1 DUP2 MSTORE PUSH1 0x20 ADD PUSH1 0x0 KECCAK256 SLOAD PUSH2 0x172C SWAP1 SWAP2 SWAP1 PUSH4 0xFFFFFFFF AND JUMP JUMPDEST PUSH1 0x1 PUSH1 0x0 DUP4 PUSH20 0xFFFFFFFFFFFFFFFFFFFFFFFFFFFFFFFFFFFFFFFF AND PUSH20 0xFFFFFFFFFFFFFFFFFFFFFFFFFFFFFFFFFFFFFFFF AND DUP2 MSTORE PUSH1 0x20 ADD SWAP1 DUP2 MSTORE PUSH1 0x20 ADD PUSH1 0x0 KECCAK256 DUP2 SWAP1 SSTORE POP DUP1 PUSH20 0xFFFFFFFFFFFFFFFFFFFFFFFFFFFFFFFFFFFFFFFF AND DUP3 PUSH20 0xFFFFFFFFFFFFFFFFFFFFFFFFFFFFFFFFFFFFFFFF AND PUSH32 0xDDF252AD1BE2C89B69C2B068FC378DAA952BA7F163C4A11628F55A4DF523B3EF DUP7 PUSH1 0x40 MLOAD PUSH2 0x1034 SWAP2 SWAP1 PUSH2 0x1C7B JUMP JUMPDEST PUSH1 0x40 MLOAD DUP1 SWAP2 SUB SWAP1 LOG3 PUSH1 0x1 SWAP3 POP POP POP SWAP4 SWAP3 POP POP POP JUMP JUMPDEST PUSH1 0x0 PUSH1 0x1 PUSH1 0x0 DUP4 PUSH20 0xFFFFFFFFFFFFFFFFFFFFFFFFFFFFFFFFFFFFFFFF AND PUSH20 0xFFFFFFFFFFFFFFFFFFFFFFFFFFFFFFFFFFFFFFFF AND DUP2 MSTORE PUSH1 0x20 ADD SWAP1 DUP2 MSTORE PUSH1 0x20 ADD PUSH1 0x0 KECCAK256 SLOAD SWAP1 POP SWAP2 SWAP1 POP JUMP JUMPDEST PUSH1 0x40 MLOAD DUP1 PUSH1 0x40 ADD PUSH1 0x40 MSTORE DUP1 PUSH1 0x3 DUP2 MSTORE PUSH1 0x20 ADD PUSH32 0x4755430000000000000000000000000000000000000000000000000000000000 DUP2 MSTORE POP DUP2 JUMP JUMPDEST PUSH1 0x0 PUSH1 0x1 PUSH1 0x0 CALLER PUSH20 0xFFFFFFFFFFFFFFFFFFFFFFFFFFFFFFFFFFFFFFFF AND PUSH20 0xFFFFFFFFFFFFFFFFFFFFFFFFFFFFFFFFFFFFFFFF AND DUP2 MSTORE PUSH1 0x20 ADD SWAP1 DUP2 MSTORE PUSH1 0x20 ADD PUSH1 0x0 KECCAK256 SLOAD DUP3 GT ISZERO PUSH2 0x114F JUMPI PUSH1 0x40 MLOAD PUSH32 0x8C379A000000000000000000000000000000000000000000000000000000000 DUP2 MSTORE PUSH1 0x4 ADD PUSH2 0x1146 SWAP1 PUSH2 0x1C1B JUMP JUMPDEST PUSH1 0x40 MLOAD DUP1 SWAP2 SUB SWAP1 REVERT JUMPDEST PUSH2 0x11A1 DUP3 PUSH1 0x1 PUSH1 0x0 CALLER PUSH20 0xFFFFFFFFFFFFFFFFFFFFFFFFFFFFFFFFFFFFFFFF AND PUSH20 0xFFFFFFFFFFFFFFFFFFFFFFFFFFFFFFFFFFFFFFFF AND DUP2 MSTORE PUSH1 0x20 ADD SWAP1 DUP2 MSTORE PUSH1 0x20 ADD PUSH1 0x0 KECCAK256 SLOAD PUSH2 0x1705 SWAP1 SWAP2 SWAP1 PUSH4 0xFFFFFFFF AND JUMP JUMPDEST PUSH1 0x1 PUSH1 0x0 CALLER PUSH20 0xFFFFFFFFFFFFFFFFFFFFFFFFFFFFFFFFFFFFFFFF AND PUSH20 0xFFFFFFFFFFFFFFFFFFFFFFFFFFFFFFFFFFFFFFFF AND DUP2 MSTORE PUSH1 0x20 ADD SWAP1 DUP2 MSTORE PUSH1 0x20 ADD PUSH1 0x0 KECCAK256 DUP2 SWAP1 SSTORE POP PUSH2 0x1236 DUP3 PUSH1 0x1 PUSH1 0x0 DUP7 PUSH20 0xFFFFFFFFFFFFFFFFFFFFFFFFFFFFFFFFFFFFFFFF AND PUSH20 0xFFFFFFFFFFFFFFFFFFFFFFFFFFFFFFFFFFFFFFFF AND DUP2 MSTORE PUSH1 0x20 ADD SWAP1 DUP2 MSTORE PUSH1 0x20 ADD PUSH1 0x0 KECCAK256 SLOAD PUSH2 0x172C SWAP1 SWAP2 SWAP1 PUSH4 0xFFFFFFFF AND JUMP JUMPDEST PUSH1 0x1 PUSH1 0x0 DUP6 PUSH20 0xFFFFFFFFFFFFFFFFFFFFFFFFFFFFFFFFFFFFFFFF AND PUSH20 0xFFFFFFFFFFFFFFFFFFFFFFFFFFFFFFFFFFFFFFFF AND DUP2 MSTORE PUSH1 0x20 ADD SWAP1 DUP2 MSTORE PUSH1 0x20 ADD PUSH1 0x0 KECCAK256 DUP2 SWAP1 SSTORE POP DUP3 PUSH20 0xFFFFFFFFFFFFFFFFFFFFFFFFFFFFFFFFFFFFFFFF AND CALLER PUSH20 0xFFFFFFFFFFFFFFFFFFFFFFFFFFFFFFFFFFFFFFFF AND PUSH32 0xDDF252AD1BE2C89B69C2B068FC378DAA952BA7F163C4A11628F55A4DF523B3EF DUP5 PUSH1 0x40 MLOAD PUSH2 0x12D6 SWAP2 SWAP1 PUSH2 0x1C7B JUMP JUMPDEST PUSH1 0x40 MLOAD DUP1 SWAP2 SUB SWAP1 LOG3 PUSH1 0x1 SWAP1 POP SWAP3 SWAP2 POP POP JUMP JUMPDEST PUSH1 0x0 DUP1 PUSH20 0xFFFFFFFFFFFFFFFFFFFFFFFFFFFFFFFFFFFFFFFF AND PUSH1 0x4 DUP5 PUSH1 0x40 MLOAD PUSH2 0x1311 SWAP2 SWAP1 PUSH2 0x1BC7 JUMP JUMPDEST SWAP1 DUP2 MSTORE PUSH1 0x20 ADD PUSH1 0x40 MLOAD DUP1 SWAP2 SUB SWAP1 KECCAK256 PUSH1 0x0 SWAP1 SLOAD SWAP1 PUSH2 0x100 EXP SWAP1 DIV PUSH20 0xFFFFFFFFFFFFFFFFFFFFFFFFFFFFFFFFFFFFFFFF AND PUSH20 0xFFFFFFFFFFFFFFFFFFFFFFFFFFFFFFFFFFFFFFFF AND EQ ISZERO PUSH2 0x13F9 JUMPI CALLER PUSH1 0x4 DUP5 PUSH1 0x40 MLOAD PUSH2 0x136D SWAP2 SWAP1 PUSH2 0x1BC7 JUMP JUMPDEST SWAP1 DUP2 MSTORE PUSH1 0x20 ADD PUSH1 0x40 MLOAD DUP1 SWAP2 SUB SWAP1 KECCAK256 PUSH1 0x0 PUSH2 0x100 EXP DUP2 SLOAD DUP2 PUSH20 0xFFFFFFFFFFFFFFFFFFFFFFFFFFFFFFFFFFFFFFFF MUL NOT AND SWAP1 DUP4 PUSH20 0xFFFFFFFFFFFFFFFFFFFFFFFFFFFFFFFFFFFFFFFF AND MUL OR SWAP1 SSTORE POP PUSH32 0xB783AC61BE9A63ECEE43EC4875521540BEAA0D5935B0D80543C42BD4AAE8A0C9 DUP3 PUSH1 0x40 MLOAD PUSH2 0x13E8 SWAP2 SWAP1 PUSH2 0x1C7B JUMP JUMPDEST PUSH1 0x40 MLOAD DUP1 SWAP2 SUB SWAP1 LOG1 PUSH1 0x1 SWAP1 POP PUSH2 0x1435 JUMP JUMPDEST PUSH32 0x2DCC15DE21FFD99C8FF84E0D8289119CA55FFF2E9B4A1E2270BAA5840CB82487 DUP3 PUSH1 0x40 MLOAD PUSH2 0x1428 SWAP2 SWAP1 PUSH2 0x1C7B JUMP JUMPDEST PUSH1 0x40 MLOAD DUP1 SWAP2 SUB SWAP1 LOG1 PUSH1 0x0 SWAP1 POP JUMPDEST SWAP3 SWAP2 POP POP JUMP JUMPDEST PUSH1 0x0 DUP1 PUSH1 0x4 DUP5 PUSH1 0x40 MLOAD PUSH2 0x144E SWAP2 SWAP1 PUSH2 0x1BC7 JUMP JUMPDEST SWAP1 DUP2 MSTORE PUSH1 0x20 ADD PUSH1 0x40 MLOAD DUP1 SWAP2 SUB SWAP1 KECCAK256 PUSH1 0x0 SWAP1 SLOAD SWAP1 PUSH2 0x100 EXP SWAP1 DIV PUSH20 0xFFFFFFFFFFFFFFFFFFFFFFFFFFFFFFFFFFFFFFFF AND SWAP1 POP PUSH1 0x0 PUSH1 0x4 DUP5 PUSH1 0x40 MLOAD PUSH2 0x1491 SWAP2 SWAP1 PUSH2 0x1BC7 JUMP JUMPDEST SWAP1 DUP2 MSTORE PUSH1 0x20 ADD PUSH1 0x40 MLOAD DUP1 SWAP2 SUB SWAP1 KECCAK256 PUSH1 0x0 SWAP1 SLOAD SWAP1 PUSH2 0x100 EXP SWAP1 DIV PUSH20 0xFFFFFFFFFFFFFFFFFFFFFFFFFFFFFFFFFFFFFFFF AND SWAP1 POP PUSH1 0x2 PUSH1 0x0 DUP4 PUSH20 0xFFFFFFFFFFFFFFFFFFFFFFFFFFFFFFFFFFFFFFFF AND PUSH20 0xFFFFFFFFFFFFFFFFFFFFFFFFFFFFFFFFFFFFFFFF AND DUP2 MSTORE PUSH1 0x20 ADD SWAP1 DUP2 MSTORE PUSH1 0x20 ADD PUSH1 0x0 KECCAK256 PUSH1 0x0 DUP3 PUSH20 0xFFFFFFFFFFFFFFFFFFFFFFFFFFFFFFFFFFFFFFFF AND PUSH20 0xFFFFFFFFFFFFFFFFFFFFFFFFFFFFFFFFFFFFFFFF AND DUP2 MSTORE PUSH1 0x20 ADD SWAP1 DUP2 MSTORE PUSH1 0x20 ADD PUSH1 0x0 KECCAK256 SLOAD SWAP3 POP POP POP SWAP3 SWAP2 POP POP JUMP JUMPDEST PUSH1 0x0 PUSH1 0x2 PUSH1 0x0 DUP5 PUSH20 0xFFFFFFFFFFFFFFFFFFFFFFFFFFFFFFFFFFFFFFFF AND PUSH20 0xFFFFFFFFFFFFFFFFFFFFFFFFFFFFFFFFFFFFFFFF AND DUP2 MSTORE PUSH1 0x20 ADD SWAP1 DUP2 MSTORE PUSH1 0x20 ADD PUSH1 0x0 KECCAK256 PUSH1 0x0 DUP4 PUSH20 0xFFFFFFFFFFFFFFFFFFFFFFFFFFFFFFFFFFFFFFFF AND PUSH20 0xFFFFFFFFFFFFFFFFFFFFFFFFFFFFFFFFFFFFFFFF AND DUP2 MSTORE PUSH1 0x20 ADD SWAP1 DUP2 MSTORE PUSH1 0x20 ADD PUSH1 0x0 KECCAK256 SLOAD SWAP1 POP SWAP3 SWAP2 POP POP JUMP JUMPDEST PUSH1 0x0 DUP1 PUSH1 0x4 DUP5 PUSH1 0x40 MLOAD PUSH2 0x15E3 SWAP2 SWAP1 PUSH2 0x1BC7 JUMP JUMPDEST SWAP1 DUP2 MSTORE PUSH1 0x20 ADD PUSH1 0x40 MLOAD DUP1 SWAP2 SUB SWAP1 KECCAK256 PUSH1 0x0 SWAP1 SLOAD SWAP1 PUSH2 0x100 EXP SWAP1 DIV PUSH20 0xFFFFFFFFFFFFFFFFFFFFFFFFFFFFFFFFFFFFFFFF AND SWAP1 POP DUP3 PUSH1 0x2 PUSH1 0x0 CALLER PUSH20 0xFFFFFFFFFFFFFFFFFFFFFFFFFFFFFFFFFFFFFFFF AND PUSH20 0xFFFFFFFFFFFFFFFFFFFFFFFFFFFFFFFFFFFFFFFF AND DUP2 MSTORE PUSH1 0x20 ADD SWAP1 DUP2 MSTORE PUSH1 0x20 ADD PUSH1 0x0 KECCAK256 PUSH1 0x0 DUP4 PUSH20 0xFFFFFFFFFFFFFFFFFFFFFFFFFFFFFFFFFFFFFFFF AND PUSH20 0xFFFFFFFFFFFFFFFFFFFFFFFFFFFFFFFFFFFFFFFF AND DUP2 MSTORE PUSH1 0x20 ADD SWAP1 DUP2 MSTORE PUSH1 0x20 ADD PUSH1 0x0 KECCAK256 DUP2 SWAP1 SSTORE POP DUP1 PUSH20 0xFFFFFFFFFFFFFFFFFFFFFFFFFFFFFFFFFFFFFFFF AND CALLER PUSH20 0xFFFFFFFFFFFFFFFFFFFFFFFFFFFFFFFFFFFFFFFF AND PUSH32 0x8C5BE1E5EBEC7D5BD14F71427D1E84F3DD0314C0F7B2291E5B200AC8C7C3B925 DUP6 PUSH1 0x40 MLOAD PUSH2 0x16F2 SWAP2 SWAP1 PUSH2 0x1C7B JUMP JUMPDEST PUSH1 0x40 MLOAD DUP1 SWAP2 SUB SWAP1 LOG3 PUSH1 0x1 SWAP2 POP POP SWAP3 SWAP2 POP POP JUMP JUMPDEST PUSH1 0x0 DUP3 DUP3 GT ISZERO PUSH2 0x1718 JUMPI PUSH2 0x1717 PUSH2 0x1E80 JUMP JUMPDEST JUMPDEST DUP2 DUP4 PUSH2 0x1724 SWAP2 SWAP1 PUSH2 0x1D84 JUMP JUMPDEST SWAP1 POP SWAP3 SWAP2 POP POP JUMP JUMPDEST PUSH1 0x0 DUP1 DUP3 DUP5 PUSH2 0x173B SWAP2 SWAP1 PUSH2 0x1D2E JUMP JUMPDEST SWAP1 POP DUP4 DUP2 LT ISZERO PUSH2 0x174E JUMPI PUSH2 0x174D PUSH2 0x1E80 JUMP JUMPDEST JUMPDEST DUP1 SWAP2 POP POP SWAP3 SWAP2 POP POP JUMP JUMPDEST PUSH1 0x0 PUSH2 0x176B PUSH2 0x1766 DUP5 PUSH2 0x1CD6 JUMP JUMPDEST PUSH2 0x1CB1 JUMP JUMPDEST SWAP1 POP DUP3 DUP2 MSTORE PUSH1 0x20 DUP2 ADD DUP5 DUP5 DUP5 ADD GT ISZERO PUSH2 0x1787 JUMPI PUSH2 0x1786 PUSH2 0x1F12 JUMP JUMPDEST JUMPDEST PUSH2 0x1792 DUP5 DUP3 DUP6 PUSH2 0x1E0D JUMP JUMPDEST POP SWAP4 SWAP3 POP POP POP JUMP JUMPDEST PUSH1 0x0 DUP2 CALLDATALOAD SWAP1 POP PUSH2 0x17A9 DUP2 PUSH2 0x1FAD JUMP JUMPDEST SWAP3 SWAP2 POP POP JUMP JUMPDEST PUSH1 0x0 DUP3 PUSH1 0x1F DUP4 ADD SLT PUSH2 0x17C4 JUMPI PUSH2 0x17C3 PUSH2 0x1F0D JUMP JUMPDEST JUMPDEST DUP2 CALLDATALOAD PUSH2 0x17D4 DUP5 DUP3 PUSH1 0x20 DUP7 ADD PUSH2 0x1758 JUMP JUMPDEST SWAP2 POP POP SWAP3 SWAP2 POP POP JUMP JUMPDEST PUSH1 0x0 DUP2 CALLDATALOAD SWAP1 POP PUSH2 0x17EC DUP2 PUSH2 0x1FC4 JUMP JUMPDEST SWAP3 SWAP2 POP POP JUMP JUMPDEST PUSH1 0x0 PUSH1 0x20 DUP3 DUP5 SUB SLT ISZERO PUSH2 0x1808 JUMPI PUSH2 0x1807 PUSH2 0x1F1C JUMP JUMPDEST JUMPDEST PUSH1 0x0 PUSH2 0x1816 DUP5 DUP3 DUP6 ADD PUSH2 0x179A JUMP JUMPDEST SWAP2 POP POP SWAP3 SWAP2 POP POP JUMP JUMPDEST PUSH1 0x0 DUP1 PUSH1 0x40 DUP4 DUP6 SUB SLT ISZERO PUSH2 0x1836 JUMPI PUSH2 0x1835 PUSH2 0x1F1C JUMP JUMPDEST JUMPDEST PUSH1 0x0 PUSH2 0x1844 DUP6 DUP3 DUP7 ADD PUSH2 0x179A JUMP JUMPDEST SWAP3 POP POP PUSH1 0x20 PUSH2 0x1855 DUP6 DUP3 DUP7 ADD PUSH2 0x179A JUMP JUMPDEST SWAP2 POP POP SWAP3 POP SWAP3 SWAP1 POP JUMP JUMPDEST PUSH1 0x0 DUP1 PUSH1 0x0 PUSH1 0x60 DUP5 DUP7 SUB SLT ISZERO PUSH2 0x1878 JUMPI PUSH2 0x1877 PUSH2 0x1F1C JUMP JUMPDEST JUMPDEST PUSH1 0x0 PUSH2 0x1886 DUP7 DUP3 DUP8 ADD PUSH2 0x179A JUMP JUMPDEST SWAP4 POP POP PUSH1 0x20 PUSH2 0x1897 DUP7 DUP3 DUP8 ADD PUSH2 0x179A JUMP JUMPDEST SWAP3 POP POP PUSH1 0x40 PUSH2 0x18A8 DUP7 DUP3 DUP8 ADD PUSH2 0x17DD JUMP JUMPDEST SWAP2 POP POP SWAP3 POP SWAP3 POP SWAP3 JUMP JUMPDEST PUSH1 0x0 DUP1 PUSH1 0x40 DUP4 DUP6 SUB SLT ISZERO PUSH2 0x18C9 JUMPI PUSH2 0x18C8 PUSH2 0x1F1C JUMP JUMPDEST JUMPDEST PUSH1 0x0 PUSH2 0x18D7 DUP6 DUP3 DUP7 ADD PUSH2 0x179A JUMP JUMPDEST SWAP3 POP POP PUSH1 0x20 PUSH2 0x18E8 DUP6 DUP3 DUP7 ADD PUSH2 0x17DD JUMP JUMPDEST SWAP2 POP POP SWAP3 POP SWAP3 SWAP1 POP JUMP JUMPDEST PUSH1 0x0 PUSH1 0x20 DUP3 DUP5 SUB SLT ISZERO PUSH2 0x1908 JUMPI PUSH2 0x1907 PUSH2 0x1F1C JUMP JUMPDEST JUMPDEST PUSH1 0x0 DUP3 ADD CALLDATALOAD PUSH8 0xFFFFFFFFFFFFFFFF DUP2 GT ISZERO PUSH2 0x1926 JUMPI PUSH2 0x1925 PUSH2 0x1F17 JUMP JUMPDEST JUMPDEST PUSH2 0x1932 DUP5 DUP3 DUP6 ADD PUSH2 0x17AF JUMP JUMPDEST SWAP2 POP POP SWAP3 SWAP2 POP POP JUMP JUMPDEST PUSH1 0x0 DUP1 PUSH1 0x40 DUP4 DUP6 SUB SLT ISZERO PUSH2 0x1952 JUMPI PUSH2 0x1951 PUSH2 0x1F1C JUMP JUMPDEST JUMPDEST PUSH1 0x0 DUP4 ADD CALLDATALOAD PUSH8 0xFFFFFFFFFFFFFFFF DUP2 GT ISZERO PUSH2 0x1970 JUMPI PUSH2 0x196F PUSH2 0x1F17 JUMP JUMPDEST JUMPDEST PUSH2 0x197C DUP6 DUP3 DUP7 ADD PUSH2 0x17AF JUMP JUMPDEST SWAP3 POP POP PUSH1 0x20 DUP4 ADD CALLDATALOAD PUSH8 0xFFFFFFFFFFFFFFFF DUP2 GT ISZERO PUSH2 0x199D JUMPI PUSH2 0x199C PUSH2 0x1F17 JUMP JUMPDEST JUMPDEST PUSH2 0x19A9 DUP6 DUP3 DUP7 ADD PUSH2 0x17AF JUMP JUMPDEST SWAP2 POP POP SWAP3 POP SWAP3 SWAP1 POP JUMP JUMPDEST PUSH1 0x0 DUP1 PUSH1 0x0 PUSH1 0x60 DUP5 DUP7 SUB SLT ISZERO PUSH2 0x19CC JUMPI PUSH2 0x19CB PUSH2 0x1F1C JUMP JUMPDEST JUMPDEST PUSH1 0x0 DUP5 ADD CALLDATALOAD PUSH8 0xFFFFFFFFFFFFFFFF DUP2 GT ISZERO PUSH2 0x19EA JUMPI PUSH2 0x19E9 PUSH2 0x1F17 JUMP JUMPDEST JUMPDEST PUSH2 0x19F6 DUP7 DUP3 DUP8 ADD PUSH2 0x17AF JUMP JUMPDEST SWAP4 POP POP PUSH1 0x20 DUP5 ADD CALLDATALOAD PUSH8 0xFFFFFFFFFFFFFFFF DUP2 GT ISZERO PUSH2 0x1A17 JUMPI PUSH2 0x1A16 PUSH2 0x1F17 JUMP JUMPDEST JUMPDEST PUSH2 0x1A23 DUP7 DUP3 DUP8 ADD PUSH2 0x17AF JUMP JUMPDEST SWAP3 POP POP PUSH1 0x40 PUSH2 0x1A34 DUP7 DUP3 DUP8 ADD PUSH2 0x17DD JUMP JUMPDEST SWAP2 POP POP SWAP3 POP SWAP3 POP SWAP3 JUMP JUMPDEST PUSH1 0x0 DUP1 PUSH1 0x40 DUP4 DUP6 SUB SLT ISZERO PUSH2 0x1A55 JUMPI PUSH2 0x1A54 PUSH2 0x1F1C JUMP JUMPDEST JUMPDEST PUSH1 0x0 DUP4 ADD CALLDATALOAD PUSH8 0xFFFFFFFFFFFFFFFF DUP2 GT ISZERO PUSH2 0x1A73 JUMPI PUSH2 0x1A72 PUSH2 0x1F17 JUMP JUMPDEST JUMPDEST PUSH2 0x1A7F DUP6 DUP3 DUP7 ADD PUSH2 0x17AF JUMP JUMPDEST SWAP3 POP POP PUSH1 0x20 PUSH2 0x1A90 DUP6 DUP3 DUP7 ADD PUSH2 0x17DD JUMP JUMPDEST SWAP2 POP POP SWAP3 POP SWAP3 SWAP1 POP JUMP JUMPDEST PUSH1 0x0 PUSH1 0x20 DUP3 DUP5 SUB SLT ISZERO PUSH2 0x1AB0 JUMPI PUSH2 0x1AAF PUSH2 0x1F1C JUMP JUMPDEST JUMPDEST PUSH1 0x0 PUSH2 0x1ABE DUP5 DUP3 DUP6 ADD PUSH2 0x17DD JUMP JUMPDEST SWAP2 POP POP SWAP3 SWAP2 POP POP JUMP JUMPDEST PUSH2 0x1AD0 DUP2 PUSH2 0x1DCA JUMP JUMPDEST DUP3 MSTORE POP POP JUMP JUMPDEST PUSH1 0x0 PUSH2 0x1AE1 DUP3 PUSH2 0x1D07 JUMP JUMPDEST PUSH2 0x1AEB DUP2 DUP6 PUSH2 0x1D12 JUMP JUMPDEST SWAP4 POP PUSH2 0x1AFB DUP2 DUP6 PUSH1 0x20 DUP7 ADD PUSH2 0x1E1C JUMP JUMPDEST PUSH2 0x1B04 DUP2 PUSH2 0x1F21 JUMP JUMPDEST DUP5 ADD SWAP2 POP POP SWAP3 SWAP2 POP POP JUMP JUMPDEST PUSH1 0x0 PUSH2 0x1B1A DUP3 PUSH2 0x1D07 JUMP JUMPDEST PUSH2 0x1B24 DUP2 DUP6 PUSH2 0x1D23 JUMP JUMPDEST SWAP4 POP PUSH2 0x1B34 DUP2 DUP6 PUSH1 0x20 DUP7 ADD PUSH2 0x1E1C JUMP JUMPDEST DUP1 DUP5 ADD SWAP2 POP POP SWAP3 SWAP2 POP POP JUMP JUMPDEST PUSH1 0x0 PUSH2 0x1B4D PUSH1 0x14 DUP4 PUSH2 0x1D12 JUMP JUMPDEST SWAP2 POP PUSH2 0x1B58 DUP3 PUSH2 0x1F32 JUMP JUMPDEST PUSH1 0x20 DUP3 ADD SWAP1 POP SWAP2 SWAP1 POP JUMP JUMPDEST PUSH1 0x0 PUSH2 0x1B70 PUSH1 0x18 DUP4 PUSH2 0x1D12 JUMP JUMPDEST SWAP2 POP PUSH2 0x1B7B DUP3 PUSH2 0x1F5B JUMP JUMPDEST PUSH1 0x20 DUP3 ADD SWAP1 POP SWAP2 SWAP1 POP JUMP JUMPDEST PUSH1 0x0 PUSH2 0x1B93 PUSH1 0x20 DUP4 PUSH2 0x1D12 JUMP JUMPDEST SWAP2 POP PUSH2 0x1B9E DUP3 PUSH2 0x1F84 JUMP JUMPDEST PUSH1 0x20 DUP3 ADD SWAP1 POP SWAP2 SWAP1 POP JUMP JUMPDEST PUSH2 0x1BB2 DUP2 PUSH2 0x1DF6 JUMP JUMPDEST DUP3 MSTORE POP POP JUMP JUMPDEST PUSH2 0x1BC1 DUP2 PUSH2 0x1E00 JUMP JUMPDEST DUP3 MSTORE POP POP JUMP JUMPDEST PUSH1 0x0 PUSH2 0x1BD3 DUP3 DUP5 PUSH2 0x1B0F JUMP JUMPDEST SWAP2 POP DUP2 SWAP1 POP SWAP3 SWAP2 POP POP JUMP JUMPDEST PUSH1 0x0 PUSH1 0x20 DUP3 ADD SWAP1 POP PUSH2 0x1BF3 PUSH1 0x0 DUP4 ADD DUP5 PUSH2 0x1AC7 JUMP JUMPDEST SWAP3 SWAP2 POP POP JUMP JUMPDEST PUSH1 0x0 PUSH1 0x20 DUP3 ADD SWAP1 POP DUP2 DUP2 SUB PUSH1 0x0 DUP4 ADD MSTORE PUSH2 0x1C13 DUP2 DUP5 PUSH2 0x1AD6 JUMP JUMPDEST SWAP1 POP SWAP3 SWAP2 POP POP JUMP JUMPDEST PUSH1 0x0 PUSH1 0x20 DUP3 ADD SWAP1 POP DUP2 DUP2 SUB PUSH1 0x0 DUP4 ADD MSTORE PUSH2 0x1C34 DUP2 PUSH2 0x1B40 JUMP JUMPDEST SWAP1 POP SWAP2 SWAP1 POP JUMP JUMPDEST PUSH1 0x0 PUSH1 0x20 DUP3 ADD SWAP1 POP DUP2 DUP2 SUB PUSH1 0x0 DUP4 ADD MSTORE PUSH2 0x1C54 DUP2 PUSH2 0x1B63 JUMP JUMPDEST SWAP1 POP SWAP2 SWAP1 POP JUMP JUMPDEST PUSH1 0x0 PUSH1 0x20 DUP3 ADD SWAP1 POP DUP2 DUP2 SUB PUSH1 0x0 DUP4 ADD MSTORE PUSH2 0x1C74 DUP2 PUSH2 0x1B86 JUMP JUMPDEST SWAP1 POP SWAP2 SWAP1 POP JUMP JUMPDEST PUSH1 0x0 PUSH1 0x20 DUP3 ADD SWAP1 POP PUSH2 0x1C90 PUSH1 0x0 DUP4 ADD DUP5 PUSH2 0x1BA9 JUMP JUMPDEST SWAP3 SWAP2 POP POP JUMP JUMPDEST PUSH1 0x0 PUSH1 0x20 DUP3 ADD SWAP1 POP PUSH2 0x1CAB PUSH1 0x0 DUP4 ADD DUP5 PUSH2 0x1BB8 JUMP JUMPDEST SWAP3 SWAP2 POP POP JUMP JUMPDEST PUSH1 0x0 PUSH2 0x1CBB PUSH2 0x1CCC JUMP JUMPDEST SWAP1 POP PUSH2 0x1CC7 DUP3 DUP3 PUSH2 0x1E4F JUMP JUMPDEST SWAP2 SWAP1 POP JUMP JUMPDEST PUSH1 0x0 PUSH1 0x40 MLOAD SWAP1 POP SWAP1 JUMP JUMPDEST PUSH1 0x0 PUSH8 0xFFFFFFFFFFFFFFFF DUP3 GT ISZERO PUSH2 0x1CF1 JUMPI PUSH2 0x1CF0 PUSH2 0x1EDE JUMP JUMPDEST JUMPDEST PUSH2 0x1CFA DUP3 PUSH2 0x1F21 JUMP JUMPDEST SWAP1 POP PUSH1 0x20 DUP2 ADD SWAP1 POP SWAP2 SWAP1 POP JUMP JUMPDEST PUSH1 0x0 DUP2 MLOAD SWAP1 POP SWAP2 SWAP1 POP JUMP JUMPDEST PUSH1 0x0 DUP3 DUP3 MSTORE PUSH1 0x20 DUP3 ADD SWAP1 POP SWAP3 SWAP2 POP POP JUMP JUMPDEST PUSH1 0x0 DUP2 SWAP1 POP SWAP3 SWAP2 POP POP JUMP JUMPDEST PUSH1 0x0 PUSH2 0x1D39 DUP3 PUSH2 0x1DF6 JUMP JUMPDEST SWAP2 POP PUSH2 0x1D44 DUP4 PUSH2 0x1DF6 JUMP JUMPDEST SWAP3 POP DUP3 PUSH32 0xFFFFFFFFFFFFFFFFFFFFFFFFFFFFFFFFFFFFFFFFFFFFFFFFFFFFFFFFFFFFFFFF SUB DUP3 GT ISZERO PUSH2 0x1D79 JUMPI PUSH2 0x1D78 PUSH2 0x1EAF JUMP JUMPDEST JUMPDEST DUP3 DUP3 ADD SWAP1 POP SWAP3 SWAP2 POP POP JUMP JUMPDEST PUSH1 0x0 PUSH2 0x1D8F DUP3 PUSH2 0x1DF6 JUMP JUMPDEST SWAP2 POP PUSH2 0x1D9A DUP4 PUSH2 0x1DF6 JUMP JUMPDEST SWAP3 POP DUP3 DUP3 LT ISZERO PUSH2 0x1DAD JUMPI PUSH2 0x1DAC PUSH2 0x1EAF JUMP JUMPDEST JUMPDEST DUP3 DUP3 SUB SWAP1 POP SWAP3 SWAP2 POP POP JUMP JUMPDEST PUSH1 0x0 PUSH2 0x1DC3 DUP3 PUSH2 0x1DD6 JUMP JUMPDEST SWAP1 POP SWAP2 SWAP1 POP JUMP JUMPDEST PUSH1 0x0 DUP2 ISZERO ISZERO SWAP1 POP SWAP2 SWAP1 POP JUMP JUMPDEST PUSH1 0x0 PUSH20 0xFFFFFFFFFFFFFFFFFFFFFFFFFFFFFFFFFFFFFFFF DUP3 AND SWAP1 POP SWAP2 SWAP1 POP JUMP JUMPDEST PUSH1 0x0 DUP2 SWAP1 POP SWAP2 SWAP1 POP JUMP JUMPDEST PUSH1 0x0 PUSH1 0xFF DUP3 AND SWAP1 POP SWAP2 SWAP1 POP JUMP JUMPDEST DUP3 DUP2 DUP4 CALLDATACOPY PUSH1 0x0 DUP4 DUP4 ADD MSTORE POP POP POP JUMP JUMPDEST PUSH1 0x0 JUMPDEST DUP4 DUP2 LT ISZERO PUSH2 0x1E3A JUMPI DUP1 DUP3 ADD MLOAD DUP2 DUP5 ADD MSTORE PUSH1 0x20 DUP2 ADD SWAP1 POP PUSH2 0x1E1F JUMP JUMPDEST DUP4 DUP2 GT ISZERO PUSH2 0x1E49 JUMPI PUSH1 0x0 DUP5 DUP5 ADD MSTORE JUMPDEST POP POP POP POP JUMP JUMPDEST PUSH2 0x1E58 DUP3 PUSH2 0x1F21 JUMP JUMPDEST DUP2 ADD DUP2 DUP2 LT PUSH8 0xFFFFFFFFFFFFFFFF DUP3 GT OR ISZERO PUSH2 0x1E77 JUMPI PUSH2 0x1E76 PUSH2 0x1EDE JUMP JUMPDEST JUMPDEST DUP1 PUSH1 0x40 MSTORE POP POP POP JUMP JUMPDEST PUSH32 0x4E487B7100000000000000000000000000000000000000000000000000000000 PUSH1 0x0 MSTORE PUSH1 0x1 PUSH1 0x4 MSTORE PUSH1 0x24 PUSH1 0x0 REVERT JUMPDEST PUSH32 0x4E487B7100000000000000000000000000000000000000000000000000000000 PUSH1 0x0 MSTORE PUSH1 0x11 PUSH1 0x4 MSTORE PUSH1 0x24 PUSH1 0x0 REVERT JUMPDEST PUSH32 0x4E487B7100000000000000000000000000000000000000000000000000000000 PUSH1 0x0 MSTORE PUSH1 0x41 PUSH1 0x4 MSTORE PUSH1 0x24 PUSH1 0x0 REVERT JUMPDEST PUSH1 0x0 DUP1 REVERT JUMPDEST PUSH1 0x0 DUP1 REVERT JUMPDEST PUSH1 0x0 DUP1 REVERT JUMPDEST PUSH1 0x0 DUP1 REVERT JUMPDEST PUSH1 0x0 PUSH1 0x1F NOT PUSH1 0x1F DUP4 ADD AND SWAP1 POP SWAP2 SWAP1 POP JUMP JUMPDEST PUSH32 0x496E73756666696369656E742062616C616E6365000000000000000000000000 PUSH1 0x0 DUP3 ADD MSTORE POP JUMP JUMPDEST PUSH32 0x596F7520617265206E6F742077686974656C69737465642E0000000000000000 PUSH1 0x0 DUP3 ADD MSTORE POP JUMP JUMPDEST PUSH32 0x4E6F7420656E6F75676820746F6B656E7320696E207468652072657365727665 PUSH1 0x0 DUP3 ADD MSTORE POP JUMP JUMPDEST PUSH2 0x1FB6 DUP2 PUSH2 0x1DB8 JUMP JUMPDEST DUP2 EQ PUSH2 0x1FC1 JUMPI PUSH1 0x0 DUP1 REVERT JUMPDEST POP JUMP JUMPDEST PUSH2 0x1FCD DUP2 PUSH2 0x1DF6 JUMP JUMPDEST DUP2 EQ PUSH2 0x1FD8 JUMPI PUSH1 0x0 DUP1 REVERT JUMPDEST POP JUMP INVALID LOG2 PUSH5 0x6970667358 0x22 SLT KECCAK256 CODESIZE DUP1 0x2B ADD 0xC5 ADDMOD CHAINID 0xE7 0xA9 SAR SWAP7 PUSH22 0x2B89FBB9DAA414EFF9B703A1B15C2581990C02E16473 PUSH16 0x6C634300080700330000000000000000 "
				},
				"gasEstimates": {
					"creation": {
						"codeDepositCost": "1641800",
						"executionCost": "72398",
						"totalCost": "1714198"
					},
					"external": {
						"allowance(address,address)": "infinite",
						"allowance(string,string)": "infinite",
						"approve(address,uint256)": "infinite",
						"approve(string,uint256)": "infinite",
						"balanceOf(address)": "2886",
						"balanceOf(string)": "infinite",
						"decimals()": "402",
						"name()": "infinite",
						"registerUser(string,uint256)": "infinite",
						"symbol()": "infinite",
						"totalSupply()": "2527",
						"transfer(address,uint256)": "infinite",
						"transfer(string,uint256)": "infinite",
						"transferFrom(address,address,uint256)": "infinite",
						"transferFrom(string,string,uint256)": "infinite",
						"withdraw(uint256)": "infinite"
					}
				},
				"methodIdentifiers": {
					"allowance(address,address)": "dd62ed3e",
					"allowance(string,string)": "d5e1bdb3",
					"approve(address,uint256)": "095ea7b3",
					"approve(string,uint256)": "ff294f45",
					"balanceOf(address)": "70a08231",
					"balanceOf(string)": "35ee5f87",
					"decimals()": "313ce567",
					"name()": "06fdde03",
					"registerUser(string,uint256)": "d3951002",
					"symbol()": "95d89b41",
					"totalSupply()": "18160ddd",
					"transfer(address,uint256)": "a9059cbb",
					"transfer(string,uint256)": "12cb70c7",
					"transferFrom(address,address,uint256)": "23b872dd",
					"transferFrom(string,string,uint256)": "5d1b1e6d",
					"withdraw(uint256)": "2e1a7d4d"
				}
			},
			"storageLayout": {
				"storage": [
					{
						"astId": 82,
						"contract": "contracts/GloballyUnitedCoin.sol:GloballyUnitedCoin",
						"label": "masterWalletAddress",
						"offset": 0,
						"slot": "0",
						"type": "t_address"
					},
					{
						"astId": 106,
						"contract": "contracts/GloballyUnitedCoin.sol:GloballyUnitedCoin",
						"label": "balances",
						"offset": 0,
						"slot": "1",
						"type": "t_mapping(t_address,t_uint256)"
					},
					{
						"astId": 112,
						"contract": "contracts/GloballyUnitedCoin.sol:GloballyUnitedCoin",
						"label": "allowed",
						"offset": 0,
						"slot": "2",
						"type": "t_mapping(t_address,t_mapping(t_address,t_uint256))"
					},
					{
						"astId": 119,
						"contract": "contracts/GloballyUnitedCoin.sol:GloballyUnitedCoin",
						"label": "totalSupply_",
						"offset": 0,
						"slot": "3",
						"type": "t_uint256"
					},
					{
						"astId": 123,
						"contract": "contracts/GloballyUnitedCoin.sol:GloballyUnitedCoin",
						"label": "addressTable",
						"offset": 0,
						"slot": "4",
						"type": "t_mapping(t_string_memory_ptr,t_address)"
					}
				],
				"types": {
					"t_address": {
						"encoding": "inplace",
						"label": "address",
						"numberOfBytes": "20"
					},
					"t_mapping(t_address,t_mapping(t_address,t_uint256))": {
						"encoding": "mapping",
						"key": "t_address",
						"label": "mapping(address => mapping(address => uint256))",
						"numberOfBytes": "32",
						"value": "t_mapping(t_address,t_uint256)"
					},
					"t_mapping(t_address,t_uint256)": {
						"encoding": "mapping",
						"key": "t_address",
						"label": "mapping(address => uint256)",
						"numberOfBytes": "32",
						"value": "t_uint256"
					},
					"t_mapping(t_string_memory_ptr,t_address)": {
						"encoding": "mapping",
						"key": "t_string_memory_ptr",
						"label": "mapping(string => address)",
						"numberOfBytes": "32",
						"value": "t_address"
					},
					"t_string_memory_ptr": {
						"encoding": "bytes",
						"label": "string",
						"numberOfBytes": "32"
					},
					"t_uint256": {
						"encoding": "inplace",
						"label": "uint256",
						"numberOfBytes": "32"
					}
				}
			},
			"userdoc": {
				"kind": "user",
				"methods": {},
				"version": 1
			}
		}
	}
}