{
	"contracts/GU-NFT/GUCollections.sol": {
		"GUCollections": {
			"abi": [
				{
					"inputs": [
						{
							"internalType": "string",
							"name": "uri_",
							"type": "string"
						},
						{
							"internalType": "address",
							"name": "safe",
							"type": "address"
						}
					],
					"stateMutability": "nonpayable",
					"type": "constructor"
				},
				{
					"anonymous": false,
					"inputs": [
						{
							"indexed": true,
							"internalType": "address",
							"name": "safeAddress",
							"type": "address"
						}
					],
					"name": "AdminSafeChanged",
					"type": "event"
				},
				{
					"anonymous": false,
					"inputs": [
						{
							"indexed": true,
							"internalType": "address",
							"name": "account",
							"type": "address"
						},
						{
							"indexed": true,
							"internalType": "address",
							"name": "operator",
							"type": "address"
						},
						{
							"indexed": false,
							"internalType": "bool",
							"name": "approved",
							"type": "bool"
						}
					],
					"name": "ApprovalForAll",
					"type": "event"
				},
				{
					"anonymous": false,
					"inputs": [
						{
							"indexed": true,
							"internalType": "address",
							"name": "tokenAddress",
							"type": "address"
						}
					],
					"name": "TraderApproved",
					"type": "event"
				},
				{
					"anonymous": false,
					"inputs": [
						{
							"indexed": true,
							"internalType": "address",
							"name": "operator",
							"type": "address"
						},
						{
							"indexed": true,
							"internalType": "address",
							"name": "from",
							"type": "address"
						},
						{
							"indexed": true,
							"internalType": "address",
							"name": "to",
							"type": "address"
						},
						{
							"indexed": false,
							"internalType": "uint256[]",
							"name": "ids",
							"type": "uint256[]"
						},
						{
							"indexed": false,
							"internalType": "uint256[]",
							"name": "values",
							"type": "uint256[]"
						}
					],
					"name": "TransferBatch",
					"type": "event"
				},
				{
					"anonymous": false,
					"inputs": [
						{
							"indexed": true,
							"internalType": "address",
							"name": "operator",
							"type": "address"
						},
						{
							"indexed": true,
							"internalType": "address",
							"name": "from",
							"type": "address"
						},
						{
							"indexed": true,
							"internalType": "address",
							"name": "to",
							"type": "address"
						},
						{
							"indexed": false,
							"internalType": "uint256",
							"name": "id",
							"type": "uint256"
						},
						{
							"indexed": false,
							"internalType": "uint256",
							"name": "value",
							"type": "uint256"
						}
					],
					"name": "TransferSingle",
					"type": "event"
				},
				{
					"anonymous": false,
					"inputs": [
						{
							"indexed": false,
							"internalType": "string",
							"name": "value",
							"type": "string"
						},
						{
							"indexed": true,
							"internalType": "uint256",
							"name": "id",
							"type": "uint256"
						}
					],
					"name": "URI",
					"type": "event"
				},
				{
					"inputs": [],
					"name": "adminSafe",
					"outputs": [
						{
							"internalType": "address",
							"name": "",
							"type": "address"
						}
					],
					"stateMutability": "view",
					"type": "function"
				},
				{
					"inputs": [
						{
							"internalType": "address",
							"name": "account",
							"type": "address"
						},
						{
							"internalType": "uint256",
							"name": "id",
							"type": "uint256"
						}
					],
					"name": "balanceOf",
					"outputs": [
						{
							"internalType": "uint256",
							"name": "",
							"type": "uint256"
						}
					],
					"stateMutability": "view",
					"type": "function"
				},
				{
					"inputs": [
						{
							"internalType": "address[]",
							"name": "accounts",
							"type": "address[]"
						},
						{
							"internalType": "uint256[]",
							"name": "ids",
							"type": "uint256[]"
						}
					],
					"name": "balanceOfBatch",
					"outputs": [
						{
							"internalType": "uint256[]",
							"name": "",
							"type": "uint256[]"
						}
					],
					"stateMutability": "view",
					"type": "function"
				},
				{
					"inputs": [
						{
							"internalType": "address",
							"name": "safe",
							"type": "address"
						}
					],
					"name": "changeAdminSafe",
					"outputs": [
						{
							"internalType": "bool",
							"name": "",
							"type": "bool"
						}
					],
					"stateMutability": "nonpayable",
					"type": "function"
				},
				{
					"inputs": [
						{
							"internalType": "uint256",
							"name": "id",
							"type": "uint256"
						}
					],
					"name": "exists",
					"outputs": [
						{
							"internalType": "bool",
							"name": "",
							"type": "bool"
						}
					],
					"stateMutability": "view",
					"type": "function"
				},
				{
					"inputs": [
						{
							"internalType": "address",
							"name": "account",
							"type": "address"
						},
						{
							"internalType": "address",
							"name": "operator",
							"type": "address"
						}
					],
					"name": "isApprovedForAll",
					"outputs": [
						{
							"internalType": "bool",
							"name": "",
							"type": "bool"
						}
					],
					"stateMutability": "view",
					"type": "function"
				},
				{
					"inputs": [
						{
							"internalType": "address",
							"name": "to",
							"type": "address"
						},
						{
							"internalType": "uint256",
							"name": "id",
							"type": "uint256"
						},
						{
							"internalType": "uint256",
							"name": "amount",
							"type": "uint256"
						}
					],
					"name": "mint",
					"outputs": [
						{
							"internalType": "bool",
							"name": "",
							"type": "bool"
						}
					],
					"stateMutability": "nonpayable",
					"type": "function"
				},
				{
					"inputs": [
						{
							"internalType": "address",
							"name": "from",
							"type": "address"
						},
						{
							"internalType": "address",
							"name": "to",
							"type": "address"
						},
						{
							"internalType": "uint256[]",
							"name": "ids",
							"type": "uint256[]"
						},
						{
							"internalType": "uint256[]",
							"name": "amounts",
							"type": "uint256[]"
						},
						{
							"internalType": "bytes",
							"name": "data",
							"type": "bytes"
						}
					],
					"name": "safeBatchTransferFrom",
					"outputs": [],
					"stateMutability": "nonpayable",
					"type": "function"
				},
				{
					"inputs": [
						{
							"internalType": "address",
							"name": "from",
							"type": "address"
						},
						{
							"internalType": "address",
							"name": "to",
							"type": "address"
						},
						{
							"internalType": "uint256",
							"name": "id",
							"type": "uint256"
						},
						{
							"internalType": "uint256",
							"name": "amount",
							"type": "uint256"
						},
						{
							"internalType": "bytes",
							"name": "data",
							"type": "bytes"
						}
					],
					"name": "safeTransferFrom",
					"outputs": [],
					"stateMutability": "nonpayable",
					"type": "function"
				},
				{
					"inputs": [
						{
							"internalType": "address",
							"name": "operator",
							"type": "address"
						},
						{
							"internalType": "bool",
							"name": "approved",
							"type": "bool"
						}
					],
					"name": "setApprovalForAll",
					"outputs": [],
					"stateMutability": "nonpayable",
					"type": "function"
				},
				{
					"inputs": [
						{
							"internalType": "bytes4",
							"name": "interfaceId",
							"type": "bytes4"
						}
					],
					"name": "supportsInterface",
					"outputs": [
						{
							"internalType": "bool",
							"name": "",
							"type": "bool"
						}
					],
					"stateMutability": "view",
					"type": "function"
				},
				{
					"inputs": [
						{
							"internalType": "uint256",
							"name": "id",
							"type": "uint256"
						}
					],
					"name": "totalSupply",
					"outputs": [
						{
							"internalType": "uint256",
							"name": "",
							"type": "uint256"
						}
					],
					"stateMutability": "view",
					"type": "function"
				},
				{
					"inputs": [
						{
							"internalType": "uint256",
							"name": "",
							"type": "uint256"
						}
					],
					"name": "uri",
					"outputs": [
						{
							"internalType": "string",
							"name": "",
							"type": "string"
						}
					],
					"stateMutability": "view",
					"type": "function"
				}
			],
			"devdoc": {
				"kind": "dev",
				"methods": {
					"balanceOf(address,uint256)": {
						"details": "See {IERC1155-balanceOf}. Requirements: - `account` cannot be the zero address."
					},
					"balanceOfBatch(address[],uint256[])": {
						"details": "See {IERC1155-balanceOfBatch}. Requirements: - `accounts` and `ids` must have the same length."
					},
					"exists(uint256)": {
						"details": "Indicates whether any token exist with a given id, or not."
					},
					"isApprovedForAll(address,address)": {
						"details": "See {IERC1155-isApprovedForAll}."
					},
					"safeBatchTransferFrom(address,address,uint256[],uint256[],bytes)": {
						"details": "See {IERC1155-safeBatchTransferFrom}."
					},
					"safeTransferFrom(address,address,uint256,uint256,bytes)": {
						"details": "See {IERC1155-safeTransferFrom}."
					},
					"setApprovalForAll(address,bool)": {
						"details": "See {IERC1155-setApprovalForAll}."
					},
					"supportsInterface(bytes4)": {
						"details": "See {IERC165-supportsInterface}."
					},
					"totalSupply(uint256)": {
						"details": "Total amount of tokens in with a given id."
					},
					"uri(uint256)": {
						"details": "See {IERC1155MetadataURI-uri}. This implementation returns the same URI for *all* token types. It relies on the token type ID substitution mechanism https://eips.ethereum.org/EIPS/eip-1155#metadata[defined in the EIP]. Clients calling this function must replace the `\\{id\\}` substring with the actual token type ID."
					}
				},
				"version": 1
			},
			"evm": {
				"assembly": "    /* \"contracts/GU-NFT/GUCollections.sol\":204:1260  contract GUCollections is ERC1155Supply{\r... */\n  mstore(0x40, 0x80)\n    /* \"contracts/GU-NFT/GUCollections.sol\":440:535  constructor(string memory uri_, address safe) ERC1155(uri_) {\r... */\n  callvalue\n  dup1\n  iszero\n  tag_1\n  jumpi\n  0x00\n  dup1\n  revert\ntag_1:\n  pop\n  mload(0x40)\n  sub(codesize, bytecodeSize)\n  dup1\n  bytecodeSize\n  dup4\n  codecopy\n  dup2\n  add\n  0x40\n  dup2\n  swap1\n  mstore\n  tag_2\n  swap2\n  tag_3\n  jump\t// in\ntag_2:\n    /* \"contracts/GU-NFT/GUCollections.sol\":494:498  uri_ */\n  dup2\n    /* \"@openzeppelin/contracts/token/ERC1155/ERC1155.sol\":1134:1147  _setURI(uri_) */\n  tag_7\n    /* \"contracts/GU-NFT/GUCollections.sol\":494:498  uri_ */\n  dup2\n    /* \"@openzeppelin/contracts/token/ERC1155/ERC1155.sol\":1134:1141  _setURI */\n  tag_8\n    /* \"@openzeppelin/contracts/token/ERC1155/ERC1155.sol\":1134:1147  _setURI(uri_) */\n  jump\t// in\ntag_7:\n  pop\n    /* \"contracts/GU-NFT/GUCollections.sol\":511:520  adminSafe */\n  0x05\n    /* \"contracts/GU-NFT/GUCollections.sol\":511:527  adminSafe = safe */\n  dup1\n  sload\n  not(sub(shl(0xa0, 0x01), 0x01))\n  and\n  sub(shl(0xa0, 0x01), 0x01)\n  swap3\n  swap1\n  swap3\n  and\n  swap2\n  swap1\n  swap2\n  or\n  swap1\n  sstore\n  pop\n    /* \"contracts/GU-NFT/GUCollections.sol\":204:1260  contract GUCollections is ERC1155Supply{\r... */\n  jump(tag_25)\n    /* \"@openzeppelin/contracts/token/ERC1155/ERC1155.sol\":7936:8022  function _setURI(string memory newuri) internal virtual {... */\ntag_8:\n    /* \"@openzeppelin/contracts/token/ERC1155/ERC1155.sol\":8002:8015  _uri = newuri */\n  dup1\n  mload\n  tag_12\n  swap1\n    /* \"@openzeppelin/contracts/token/ERC1155/ERC1155.sol\":8002:8006  _uri */\n  0x02\n  swap1\n    /* \"@openzeppelin/contracts/token/ERC1155/ERC1155.sol\":8002:8015  _uri = newuri */\n  0x20\n  dup5\n  add\n  swap1\n  tag_13\n  jump\t// in\ntag_12:\n  pop\n    /* \"@openzeppelin/contracts/token/ERC1155/ERC1155.sol\":7936:8022  function _setURI(string memory newuri) internal virtual {... */\n  pop\n  jump\t// out\n    /* \"contracts/GU-NFT/GUCollections.sol\":204:1260  contract GUCollections is ERC1155Supply{\r... */\ntag_13:\n  dup3\n  dup1\n  sload\n  tag_14\n  swap1\n  tag_15\n  jump\t// in\ntag_14:\n  swap1\n  0x00\n  mstore\n  keccak256(0x00, 0x20)\n  swap1\n  0x1f\n  add\n  0x20\n  swap1\n  div\n  dup2\n  add\n  swap3\n  dup3\n  tag_17\n  jumpi\n  0x00\n  dup6\n  sstore\n  jump(tag_20)\ntag_17:\n  dup3\n  0x1f\n  lt\n  tag_18\n  jumpi\n  dup1\n  mload\n  not(0xff)\n  and\n  dup4\n  dup1\n  add\n  or\n  dup6\n  sstore\n  jump(tag_20)\ntag_18:\n  dup3\n  dup1\n  add\n  0x01\n  add\n  dup6\n  sstore\n  dup3\n  iszero\n  tag_20\n  jumpi\n  swap2\n  dup3\n  add\ntag_19:\n  dup3\n  dup2\n  gt\n  iszero\n  tag_20\n  jumpi\n  dup3\n  mload\n  dup3\n  sstore\n  swap2\n  0x20\n  add\n  swap2\n  swap1\n  0x01\n  add\n  swap1\n  jump(tag_19)\ntag_20:\n  pop\n  tag_21\n  swap3\n  swap2\n  pop\n  tag_22\n  jump\t// in\ntag_21:\n  pop\n  swap1\n  jump\t// out\ntag_22:\ntag_23:\n  dup1\n  dup3\n  gt\n  iszero\n  tag_21\n  jumpi\n  0x00\n  dup2\n  sstore\n  0x01\n  add\n  jump(tag_23)\n    /* \"#utility.yul\":14:191   */\ntag_26:\n    /* \"#utility.yul\":93:106   */\n  dup1\n  mload\n  sub(shl(0xa0, 0x01), 0x01)\n    /* \"#utility.yul\":135:166   */\n  dup2\n  and\n    /* \"#utility.yul\":125:167   */\n  dup2\n  eq\n    /* \"#utility.yul\":115:185   */\n  tag_28\n  jumpi\n    /* \"#utility.yul\":181:182   */\n  0x00\n    /* \"#utility.yul\":178:179   */\n  dup1\n    /* \"#utility.yul\":171:183   */\n  revert\n    /* \"#utility.yul\":115:185   */\ntag_28:\n    /* \"#utility.yul\":14:191   */\n  swap2\n  swap1\n  pop\n  jump\t// out\n    /* \"#utility.yul\":196:1370   */\ntag_3:\n    /* \"#utility.yul\":285:291   */\n  0x00\n    /* \"#utility.yul\":293:299   */\n  dup1\n    /* \"#utility.yul\":346:348   */\n  0x40\n    /* \"#utility.yul\":334:343   */\n  dup4\n    /* \"#utility.yul\":325:332   */\n  dup6\n    /* \"#utility.yul\":321:344   */\n  sub\n    /* \"#utility.yul\":317:349   */\n  slt\n    /* \"#utility.yul\":314:366   */\n  iszero\n  tag_30\n  jumpi\n    /* \"#utility.yul\":362:363   */\n  0x00\n    /* \"#utility.yul\":359:360   */\n  dup1\n    /* \"#utility.yul\":352:364   */\n  revert\n    /* \"#utility.yul\":314:366   */\ntag_30:\n    /* \"#utility.yul\":389:405   */\n  dup3\n  mload\n  sub(shl(0x40, 0x01), 0x01)\n    /* \"#utility.yul\":454:468   */\n  dup1\n  dup3\n  gt\n    /* \"#utility.yul\":451:485   */\n  iszero\n  tag_31\n  jumpi\n    /* \"#utility.yul\":481:482   */\n  0x00\n    /* \"#utility.yul\":478:479   */\n  dup1\n    /* \"#utility.yul\":471:483   */\n  revert\n    /* \"#utility.yul\":451:485   */\ntag_31:\n    /* \"#utility.yul\":519:525   */\n  dup2\n    /* \"#utility.yul\":508:517   */\n  dup6\n    /* \"#utility.yul\":504:526   */\n  add\n    /* \"#utility.yul\":494:526   */\n  swap2\n  pop\n    /* \"#utility.yul\":564:571   */\n  dup6\n    /* \"#utility.yul\":557:561   */\n  0x1f\n    /* \"#utility.yul\":553:555   */\n  dup4\n    /* \"#utility.yul\":549:562   */\n  add\n    /* \"#utility.yul\":545:572   */\n  slt\n    /* \"#utility.yul\":535:590   */\n  tag_32\n  jumpi\n    /* \"#utility.yul\":586:587   */\n  0x00\n    /* \"#utility.yul\":583:584   */\n  dup1\n    /* \"#utility.yul\":576:588   */\n  revert\n    /* \"#utility.yul\":535:590   */\ntag_32:\n    /* \"#utility.yul\":615:617   */\n  dup2\n    /* \"#utility.yul\":609:618   */\n  mload\n    /* \"#utility.yul\":637:639   */\n  dup2\n    /* \"#utility.yul\":633:635   */\n  dup2\n    /* \"#utility.yul\":630:640   */\n  gt\n    /* \"#utility.yul\":627:663   */\n  iszero\n  tag_34\n  jumpi\n    /* \"#utility.yul\":643:661   */\n  tag_34\n  tag_35\n  jump\t// in\ntag_34:\n    /* \"#utility.yul\":718:720   */\n  0x40\n    /* \"#utility.yul\":712:721   */\n  mload\n    /* \"#utility.yul\":686:688   */\n  0x1f\n    /* \"#utility.yul\":772:785   */\n  dup3\n  add\n  not(0x1f)\n    /* \"#utility.yul\":768:790   */\n  swap1\n  dup2\n  and\n    /* \"#utility.yul\":792:794   */\n  0x3f\n    /* \"#utility.yul\":764:795   */\n  add\n    /* \"#utility.yul\":760:800   */\n  and\n    /* \"#utility.yul\":748:801   */\n  dup2\n  add\n  swap1\n    /* \"#utility.yul\":816:834   */\n  dup4\n  dup3\n  gt\n    /* \"#utility.yul\":836:858   */\n  dup2\n  dup4\n  lt\n    /* \"#utility.yul\":813:859   */\n  or\n    /* \"#utility.yul\":810:882   */\n  iszero\n  tag_37\n  jumpi\n    /* \"#utility.yul\":862:880   */\n  tag_37\n  tag_35\n  jump\t// in\ntag_37:\n    /* \"#utility.yul\":902:912   */\n  dup2\n    /* \"#utility.yul\":898:900   */\n  0x40\n    /* \"#utility.yul\":891:913   */\n  mstore\n    /* \"#utility.yul\":937:939   */\n  dup3\n    /* \"#utility.yul\":929:935   */\n  dup2\n    /* \"#utility.yul\":922:940   */\n  mstore\n    /* \"#utility.yul\":959:963   */\n  0x20\n    /* \"#utility.yul\":949:963   */\n  swap4\n  pop\n    /* \"#utility.yul\":1000:1007   */\n  dup9\n    /* \"#utility.yul\":995:997   */\n  dup5\n    /* \"#utility.yul\":990:992   */\n  dup5\n    /* \"#utility.yul\":986:988   */\n  dup8\n    /* \"#utility.yul\":982:993   */\n  add\n    /* \"#utility.yul\":978:998   */\n  add\n    /* \"#utility.yul\":975:1008   */\n  gt\n    /* \"#utility.yul\":972:1025   */\n  iszero\n  tag_38\n  jumpi\n    /* \"#utility.yul\":1021:1022   */\n  0x00\n    /* \"#utility.yul\":1018:1019   */\n  dup1\n    /* \"#utility.yul\":1011:1023   */\n  revert\n    /* \"#utility.yul\":972:1025   */\ntag_38:\n    /* \"#utility.yul\":1043:1044   */\n  0x00\n    /* \"#utility.yul\":1034:1044   */\n  swap2\n  pop\n    /* \"#utility.yul\":1053:1182   */\ntag_39:\n    /* \"#utility.yul\":1067:1069   */\n  dup3\n    /* \"#utility.yul\":1064:1065   */\n  dup3\n    /* \"#utility.yul\":1061:1070   */\n  lt\n    /* \"#utility.yul\":1053:1182   */\n  iszero\n  tag_41\n  jumpi\n    /* \"#utility.yul\":1155:1165   */\n  dup5\n  dup3\n  add\n    /* \"#utility.yul\":1151:1170   */\n  dup5\n  add\n    /* \"#utility.yul\":1145:1171   */\n  mload\n    /* \"#utility.yul\":1124:1138   */\n  dup2\n  dup4\n  add\n    /* \"#utility.yul\":1120:1143   */\n  dup6\n  add\n    /* \"#utility.yul\":1113:1172   */\n  mstore\n    /* \"#utility.yul\":1078:1088   */\n  swap1\n  dup4\n  add\n  swap1\n    /* \"#utility.yul\":1053:1182   */\n  jump(tag_39)\ntag_41:\n    /* \"#utility.yul\":1200:1202   */\n  dup3\n    /* \"#utility.yul\":1197:1198   */\n  dup3\n    /* \"#utility.yul\":1194:1203   */\n  gt\n    /* \"#utility.yul\":1191:1271   */\n  iszero\n  tag_42\n  jumpi\n    /* \"#utility.yul\":1259:1260   */\n  0x00\n    /* \"#utility.yul\":1254:1256   */\n  dup5\n    /* \"#utility.yul\":1249:1251   */\n  dup5\n    /* \"#utility.yul\":1241:1247   */\n  dup4\n    /* \"#utility.yul\":1237:1252   */\n  add\n    /* \"#utility.yul\":1233:1257   */\n  add\n    /* \"#utility.yul\":1226:1261   */\n  mstore\n    /* \"#utility.yul\":1191:1271   */\ntag_42:\n    /* \"#utility.yul\":1290:1296   */\n  swap6\n  pop\n    /* \"#utility.yul\":1315:1364   */\n  tag_43\n  swap2\n  pop\n  pop\n    /* \"#utility.yul\":1345:1363   */\n  dup6\n  dup3\n  add\n    /* \"#utility.yul\":1315:1364   */\n  tag_26\n  jump\t// in\ntag_43:\n    /* \"#utility.yul\":1305:1364   */\n  swap3\n  pop\n  pop\n  pop\n    /* \"#utility.yul\":196:1370   */\n  swap3\n  pop\n  swap3\n  swap1\n  pop\n  jump\t// out\n    /* \"#utility.yul\":1375:1755   */\ntag_15:\n    /* \"#utility.yul\":1454:1455   */\n  0x01\n    /* \"#utility.yul\":1450:1462   */\n  dup2\n  dup2\n  shr\n  swap1\n    /* \"#utility.yul\":1497:1509   */\n  dup3\n  and\n  dup1\n    /* \"#utility.yul\":1518:1579   */\n  tag_45\n  jumpi\n    /* \"#utility.yul\":1572:1576   */\n  0x7f\n    /* \"#utility.yul\":1564:1570   */\n  dup3\n    /* \"#utility.yul\":1560:1577   */\n  and\n    /* \"#utility.yul\":1550:1577   */\n  swap2\n  pop\n    /* \"#utility.yul\":1518:1579   */\ntag_45:\n    /* \"#utility.yul\":1625:1627   */\n  0x20\n    /* \"#utility.yul\":1617:1623   */\n  dup3\n    /* \"#utility.yul\":1614:1628   */\n  lt\n    /* \"#utility.yul\":1594:1612   */\n  dup2\n    /* \"#utility.yul\":1591:1629   */\n  eq\n    /* \"#utility.yul\":1588:1749   */\n  iszero\n  tag_46\n  jumpi\n    /* \"#utility.yul\":1671:1681   */\n  0x4e487b71\n    /* \"#utility.yul\":1666:1669   */\n  0xe0\n    /* \"#utility.yul\":1662:1682   */\n  shl\n    /* \"#utility.yul\":1659:1660   */\n  0x00\n    /* \"#utility.yul\":1652:1683   */\n  mstore\n    /* \"#utility.yul\":1706:1710   */\n  0x22\n    /* \"#utility.yul\":1703:1704   */\n  0x04\n    /* \"#utility.yul\":1696:1711   */\n  mstore\n    /* \"#utility.yul\":1734:1738   */\n  0x24\n    /* \"#utility.yul\":1731:1732   */\n  0x00\n    /* \"#utility.yul\":1724:1739   */\n  revert\n    /* \"#utility.yul\":1588:1749   */\ntag_46:\n  pop\n    /* \"#utility.yul\":1375:1755   */\n  swap2\n  swap1\n  pop\n  jump\t// out\n    /* \"#utility.yul\":1760:1887   */\ntag_35:\n    /* \"#utility.yul\":1821:1831   */\n  0x4e487b71\n    /* \"#utility.yul\":1816:1819   */\n  0xe0\n    /* \"#utility.yul\":1812:1832   */\n  shl\n    /* \"#utility.yul\":1809:1810   */\n  0x00\n    /* \"#utility.yul\":1802:1833   */\n  mstore\n    /* \"#utility.yul\":1852:1856   */\n  0x41\n    /* \"#utility.yul\":1849:1850   */\n  0x04\n    /* \"#utility.yul\":1842:1857   */\n  mstore\n    /* \"#utility.yul\":1876:1880   */\n  0x24\n    /* \"#utility.yul\":1873:1874   */\n  0x00\n    /* \"#utility.yul\":1866:1881   */\n  revert\n    /* \"#utility.yul\":1760:1887   */\ntag_25:\n    /* \"contracts/GU-NFT/GUCollections.sol\":204:1260  contract GUCollections is ERC1155Supply{\r... */\n  dataSize(sub_0)\n  dup1\n  dataOffset(sub_0)\n  0x00\n  codecopy\n  0x00\n  return\nstop\n\nsub_0: assembly {\n        /* \"contracts/GU-NFT/GUCollections.sol\":204:1260  contract GUCollections is ERC1155Supply{\r... */\n      mstore(0x40, 0x80)\n      callvalue\n      dup1\n      iszero\n      tag_1\n      jumpi\n      0x00\n      dup1\n      revert\n    tag_1:\n      pop\n      jumpi(tag_2, lt(calldatasize, 0x04))\n      shr(0xe0, calldataload(0x00))\n      dup1\n      0x4e1273f4\n      gt\n      tag_16\n      jumpi\n      dup1\n      0xbd85b039\n      gt\n      tag_17\n      jumpi\n      dup1\n      0xbd85b039\n      eq\n      tag_12\n      jumpi\n      dup1\n      0xcb450772\n      eq\n      tag_13\n      jumpi\n      dup1\n      0xe985e9c5\n      eq\n      tag_14\n      jumpi\n      dup1\n      0xf242432a\n      eq\n      tag_15\n      jumpi\n      0x00\n      dup1\n      revert\n    tag_17:\n      dup1\n      0x4e1273f4\n      eq\n      tag_9\n      jumpi\n      dup1\n      0x4f558e79\n      eq\n      tag_10\n      jumpi\n      dup1\n      0xa22cb465\n      eq\n      tag_11\n      jumpi\n      0x00\n      dup1\n      revert\n    tag_16:\n      dup1\n      0xfdd58e\n      eq\n      tag_3\n      jumpi\n      dup1\n      0x01ffc9a7\n      eq\n      tag_4\n      jumpi\n      dup1\n      0x0e89341c\n      eq\n      tag_5\n      jumpi\n      dup1\n      0x156e29f6\n      eq\n      tag_6\n      jumpi\n      dup1\n      0x2eb2c2d6\n      eq\n      tag_7\n      jumpi\n      dup1\n      0x4b8c9c2d\n      eq\n      tag_8\n      jumpi\n    tag_2:\n      0x00\n      dup1\n      revert\n        /* \"@openzeppelin/contracts/token/ERC1155/ERC1155.sol\":2170:2398  function balanceOf(address account, uint256 id) public view virtual override returns (uint256) {... */\n    tag_3:\n      tag_18\n      tag_19\n      calldatasize\n      0x04\n      tag_20\n      jump\t// in\n    tag_19:\n      tag_21\n      jump\t// in\n    tag_18:\n      mload(0x40)\n        /* \"#utility.yul\":15454:15479   */\n      swap1\n      dup2\n      mstore\n        /* \"#utility.yul\":15442:15444   */\n      0x20\n        /* \"#utility.yul\":15427:15445   */\n      add\n        /* \"@openzeppelin/contracts/token/ERC1155/ERC1155.sol\":2170:2398  function balanceOf(address account, uint256 id) public view virtual override returns (uint256) {... */\n    tag_22:\n      mload(0x40)\n      dup1\n      swap2\n      sub\n      swap1\n      return\n        /* \"@openzeppelin/contracts/token/ERC1155/ERC1155.sol\":1221:1526  function supportsInterface(bytes4 interfaceId) public view virtual override(ERC165, IERC165) returns (bool) {... */\n    tag_4:\n      tag_24\n      tag_25\n      calldatasize\n      0x04\n      tag_26\n      jump\t// in\n    tag_25:\n      tag_27\n      jump\t// in\n    tag_24:\n      mload(0x40)\n        /* \"#utility.yul\":9779:9793   */\n      swap1\n      iszero\n        /* \"#utility.yul\":9772:9794   */\n      iszero\n        /* \"#utility.yul\":9754:9795   */\n      dup2\n      mstore\n        /* \"#utility.yul\":9742:9744   */\n      0x20\n        /* \"#utility.yul\":9727:9745   */\n      add\n        /* \"@openzeppelin/contracts/token/ERC1155/ERC1155.sol\":1221:1526  function supportsInterface(bytes4 interfaceId) public view virtual override(ERC165, IERC165) returns (bool) {... */\n      tag_22\n        /* \"#utility.yul\":9614:9801   */\n      jump\n        /* \"@openzeppelin/contracts/token/ERC1155/ERC1155.sol\":1925:2028  function uri(uint256) public view virtual override returns (string memory) {... */\n    tag_5:\n      tag_30\n      tag_31\n      calldatasize\n      0x04\n      tag_32\n      jump\t// in\n    tag_31:\n      tag_33\n      jump\t// in\n    tag_30:\n      mload(0x40)\n      tag_22\n      swap2\n      swap1\n      tag_35\n      jump\t// in\n        /* \"contracts/GU-NFT/GUCollections.sol\":1101:1255  function mint(address to, uint256 id, uint256 amount) public onlyTraders returns (bool) {\r... */\n    tag_6:\n      tag_24\n      tag_37\n      calldatasize\n      0x04\n      tag_38\n      jump\t// in\n    tag_37:\n      tag_39\n      jump\t// in\n        /* \"@openzeppelin/contracts/token/ERC1155/ERC1155.sol\":4045:4475  function safeBatchTransferFrom(... */\n    tag_7:\n      tag_41\n      tag_42\n      calldatasize\n      0x04\n      tag_43\n      jump\t// in\n    tag_42:\n      tag_44\n      jump\t// in\n    tag_41:\n      stop\n        /* \"contracts/GU-NFT/GUCollections.sol\":290:314  address public adminSafe */\n    tag_8:\n      sload(0x05)\n      tag_45\n      swap1\n      sub(shl(0xa0, 0x01), 0x01)\n      and\n      dup2\n      jump\n    tag_45:\n      mload(0x40)\n      sub(shl(0xa0, 0x01), 0x01)\n        /* \"#utility.yul\":7438:7470   */\n      swap1\n      swap2\n      and\n        /* \"#utility.yul\":7420:7471   */\n      dup2\n      mstore\n        /* \"#utility.yul\":7408:7410   */\n      0x20\n        /* \"#utility.yul\":7393:7411   */\n      add\n        /* \"contracts/GU-NFT/GUCollections.sol\":290:314  address public adminSafe */\n      tag_22\n        /* \"#utility.yul\":7274:7477   */\n      jump\n        /* \"@openzeppelin/contracts/token/ERC1155/ERC1155.sol\":2555:3063  function balanceOfBatch(address[] memory accounts, uint256[] memory ids)... */\n    tag_9:\n      tag_49\n      tag_50\n      calldatasize\n      0x04\n      tag_51\n      jump\t// in\n    tag_50:\n      tag_52\n      jump\t// in\n    tag_49:\n      mload(0x40)\n      tag_22\n      swap2\n      swap1\n      tag_54\n      jump\t// in\n        /* \"@openzeppelin/contracts/token/ERC1155/extensions/ERC1155Supply.sol\":886:1006  function exists(uint256 id) public view virtual returns (bool) {... */\n    tag_10:\n      tag_24\n      tag_56\n      calldatasize\n      0x04\n      tag_32\n      jump\t// in\n    tag_56:\n        /* \"@openzeppelin/contracts/token/ERC1155/extensions/ERC1155Supply.sol\":943:947  bool */\n      0x00\n        /* \"@openzeppelin/contracts/token/ERC1155/extensions/ERC1155Supply.sol\":770:786  _totalSupply[id] */\n      swap1\n      dup2\n      mstore\n        /* \"@openzeppelin/contracts/token/ERC1155/extensions/ERC1155Supply.sol\":770:782  _totalSupply */\n      0x03\n        /* \"@openzeppelin/contracts/token/ERC1155/extensions/ERC1155Supply.sol\":770:786  _totalSupply[id] */\n      0x20\n      mstore\n      0x40\n      swap1\n      keccak256\n      sload\n      iszero\n      iszero\n      swap1\n        /* \"@openzeppelin/contracts/token/ERC1155/extensions/ERC1155Supply.sol\":886:1006  function exists(uint256 id) public view virtual returns (bool) {... */\n      jump\n        /* \"@openzeppelin/contracts/token/ERC1155/ERC1155.sol\":3131:3284  function setApprovalForAll(address operator, bool approved) public virtual override {... */\n    tag_11:\n      tag_41\n      tag_60\n      calldatasize\n      0x04\n      tag_61\n      jump\t// in\n    tag_60:\n      tag_62\n      jump\t// in\n        /* \"@openzeppelin/contracts/token/ERC1155/extensions/ERC1155Supply.sol\":682:793  function totalSupply(uint256 id) public view virtual returns (uint256) {... */\n    tag_12:\n      tag_18\n      tag_64\n      calldatasize\n      0x04\n      tag_32\n      jump\t// in\n    tag_64:\n        /* \"@openzeppelin/contracts/token/ERC1155/extensions/ERC1155Supply.sol\":744:751  uint256 */\n      0x00\n        /* \"@openzeppelin/contracts/token/ERC1155/extensions/ERC1155Supply.sol\":770:786  _totalSupply[id] */\n      swap1\n      dup2\n      mstore\n        /* \"@openzeppelin/contracts/token/ERC1155/extensions/ERC1155Supply.sol\":770:782  _totalSupply */\n      0x03\n        /* \"@openzeppelin/contracts/token/ERC1155/extensions/ERC1155Supply.sol\":770:786  _totalSupply[id] */\n      0x20\n      mstore\n      0x40\n      swap1\n      keccak256\n      sload\n      swap1\n        /* \"@openzeppelin/contracts/token/ERC1155/extensions/ERC1155Supply.sol\":682:793  function totalSupply(uint256 id) public view virtual returns (uint256) {... */\n      jump\n        /* \"contracts/GU-NFT/GUCollections.sol\":547:798  function changeAdminSafe(address safe) public onlyAdminSafe returns (bool)\r... */\n    tag_13:\n      tag_24\n      tag_68\n      calldatasize\n      0x04\n      tag_69\n      jump\t// in\n    tag_68:\n      tag_70\n      jump\t// in\n        /* \"@openzeppelin/contracts/token/ERC1155/ERC1155.sol\":3351:3517  function isApprovedForAll(address account, address operator) public view virtual override returns (bool) {... */\n    tag_14:\n      tag_24\n      tag_73\n      calldatasize\n      0x04\n      tag_74\n      jump\t// in\n    tag_73:\n      sub(shl(0xa0, 0x01), 0x01)\n        /* \"@openzeppelin/contracts/token/ERC1155/ERC1155.sol\":3473:3500  _operatorApprovals[account] */\n      swap2\n      dup3\n      and\n        /* \"@openzeppelin/contracts/token/ERC1155/ERC1155.sol\":3450:3454  bool */\n      0x00\n        /* \"@openzeppelin/contracts/token/ERC1155/ERC1155.sol\":3473:3500  _operatorApprovals[account] */\n      swap1\n      dup2\n      mstore\n        /* \"@openzeppelin/contracts/token/ERC1155/ERC1155.sol\":3473:3491  _operatorApprovals */\n      0x01\n        /* \"@openzeppelin/contracts/token/ERC1155/ERC1155.sol\":3473:3500  _operatorApprovals[account] */\n      0x20\n      swap1\n      dup2\n      mstore\n      0x40\n      dup1\n      dup4\n      keccak256\n        /* \"@openzeppelin/contracts/token/ERC1155/ERC1155.sol\":3473:3510  _operatorApprovals[account][operator] */\n      swap4\n      swap1\n      swap5\n      and\n      dup3\n      mstore\n      swap2\n      swap1\n      swap2\n      mstore\n      keccak256\n      sload\n      0xff\n      and\n      swap1\n        /* \"@openzeppelin/contracts/token/ERC1155/ERC1155.sol\":3351:3517  function isApprovedForAll(address account, address operator) public view virtual override returns (bool) {... */\n      jump\n        /* \"@openzeppelin/contracts/token/ERC1155/ERC1155.sol\":3584:3973  function safeTransferFrom(... */\n    tag_15:\n      tag_41\n      tag_78\n      calldatasize\n      0x04\n      tag_79\n      jump\t// in\n    tag_78:\n      tag_80\n      jump\t// in\n        /* \"@openzeppelin/contracts/token/ERC1155/ERC1155.sol\":2170:2398  function balanceOf(address account, uint256 id) public view virtual override returns (uint256) {... */\n    tag_21:\n        /* \"@openzeppelin/contracts/token/ERC1155/ERC1155.sol\":2256:2263  uint256 */\n      0x00\n      sub(shl(0xa0, 0x01), 0x01)\n        /* \"@openzeppelin/contracts/token/ERC1155/ERC1155.sol\":2283:2304  account != address(0) */\n      dup4\n      and\n        /* \"@openzeppelin/contracts/token/ERC1155/ERC1155.sol\":2275:2352  require(account != address(0), \"ERC1155: balance query for the zero address\") */\n      tag_82\n      jumpi\n      mload(0x40)\n      shl(0xe5, 0x461bcd)\n      dup2\n      mstore\n        /* \"#utility.yul\":11062:11064   */\n      0x20\n        /* \"@openzeppelin/contracts/token/ERC1155/ERC1155.sol\":2275:2352  require(account != address(0), \"ERC1155: balance query for the zero address\") */\n      0x04\n      dup3\n      add\n        /* \"#utility.yul\":11044:11065   */\n      mstore\n        /* \"#utility.yul\":11101:11103   */\n      0x2b\n        /* \"#utility.yul\":11081:11099   */\n      0x24\n      dup3\n      add\n        /* \"#utility.yul\":11074:11104   */\n      mstore\n        /* \"#utility.yul\":11140:11174   */\n      0x455243313135353a2062616c616e636520717565727920666f7220746865207a\n        /* \"#utility.yul\":11120:11138   */\n      0x44\n      dup3\n      add\n        /* \"#utility.yul\":11113:11175   */\n      mstore\n      shl(0xa8, 0x65726f2061646472657373)\n        /* \"#utility.yul\":11191:11209   */\n      0x64\n      dup3\n      add\n        /* \"#utility.yul\":11184:11225   */\n      mstore\n        /* \"#utility.yul\":11242:11261   */\n      0x84\n      add\n        /* \"@openzeppelin/contracts/token/ERC1155/ERC1155.sol\":2275:2352  require(account != address(0), \"ERC1155: balance query for the zero address\") */\n    tag_83:\n      mload(0x40)\n      dup1\n      swap2\n      sub\n      swap1\n      revert\n    tag_82:\n      pop\n        /* \"@openzeppelin/contracts/token/ERC1155/ERC1155.sol\":2369:2378  _balances */\n      0x00\n        /* \"@openzeppelin/contracts/token/ERC1155/ERC1155.sol\":2369:2382  _balances[id] */\n      swap1\n      dup2\n      mstore\n      0x20\n      dup2\n      dup2\n      mstore\n      0x40\n      dup1\n      dup4\n      keccak256\n      sub(shl(0xa0, 0x01), 0x01)\n        /* \"@openzeppelin/contracts/token/ERC1155/ERC1155.sol\":2369:2391  _balances[id][account] */\n      swap5\n      swap1\n      swap5\n      and\n      dup4\n      mstore\n      swap3\n      swap1\n      mstore\n      keccak256\n      sload\n      swap1\n        /* \"@openzeppelin/contracts/token/ERC1155/ERC1155.sol\":2170:2398  function balanceOf(address account, uint256 id) public view virtual override returns (uint256) {... */\n      jump\t// out\n        /* \"@openzeppelin/contracts/token/ERC1155/ERC1155.sol\":1221:1526  function supportsInterface(bytes4 interfaceId) public view virtual override(ERC165, IERC165) returns (bool) {... */\n    tag_27:\n        /* \"@openzeppelin/contracts/token/ERC1155/ERC1155.sol\":1323:1327  bool */\n      0x00\n      not(sub(shl(0xe0, 0x01), 0x01))\n        /* \"@openzeppelin/contracts/token/ERC1155/ERC1155.sol\":1358:1399  interfaceId == type(IERC1155).interfaceId */\n      dup3\n      and\n      shl(0xe1, 0x6cdb3d13)\n      eq\n      dup1\n        /* \"@openzeppelin/contracts/token/ERC1155/ERC1155.sol\":1358:1467  interfaceId == type(IERC1155).interfaceId ||... */\n      tag_86\n      jumpi\n      pop\n      not(sub(shl(0xe0, 0x01), 0x01))\n        /* \"@openzeppelin/contracts/token/ERC1155/ERC1155.sol\":1415:1467  interfaceId == type(IERC1155MetadataURI).interfaceId */\n      dup3\n      and\n      shl(0xe2, 0x03a24d07)\n      eq\n        /* \"@openzeppelin/contracts/token/ERC1155/ERC1155.sol\":1358:1467  interfaceId == type(IERC1155).interfaceId ||... */\n    tag_86:\n        /* \"@openzeppelin/contracts/token/ERC1155/ERC1155.sol\":1358:1519  interfaceId == type(IERC1155).interfaceId ||... */\n      dup1\n      tag_88\n      jumpi\n      pop\n      shl(0xe0, 0x01ffc9a7)\n      not(sub(shl(0xe0, 0x01), 0x01))\n        /* \"@openzeppelin/contracts/utils/introspection/ERC165.sol\":937:977  interfaceId == type(IERC165).interfaceId */\n      dup4\n      and\n      eq\n        /* \"@openzeppelin/contracts/token/ERC1155/ERC1155.sol\":1483:1519  super.supportsInterface(interfaceId) */\n    tag_88:\n        /* \"@openzeppelin/contracts/token/ERC1155/ERC1155.sol\":1339:1519  return... */\n      swap3\n        /* \"@openzeppelin/contracts/token/ERC1155/ERC1155.sol\":1221:1526  function supportsInterface(bytes4 interfaceId) public view virtual override(ERC165, IERC165) returns (bool) {... */\n      swap2\n      pop\n      pop\n      jump\t// out\n        /* \"@openzeppelin/contracts/token/ERC1155/ERC1155.sol\":1925:2028  function uri(uint256) public view virtual override returns (string memory) {... */\n    tag_33:\n        /* \"@openzeppelin/contracts/token/ERC1155/ERC1155.sol\":1985:1998  string memory */\n      0x60\n        /* \"@openzeppelin/contracts/token/ERC1155/ERC1155.sol\":2017:2021  _uri */\n      0x02\n        /* \"@openzeppelin/contracts/token/ERC1155/ERC1155.sol\":2010:2021  return _uri */\n      dup1\n      sload\n      tag_91\n      swap1\n      tag_92\n      jump\t// in\n    tag_91:\n      dup1\n      0x1f\n      add\n      0x20\n      dup1\n      swap2\n      div\n      mul\n      0x20\n      add\n      mload(0x40)\n      swap1\n      dup2\n      add\n      0x40\n      mstore\n      dup1\n      swap3\n      swap2\n      swap1\n      dup2\n      dup2\n      mstore\n      0x20\n      add\n      dup3\n      dup1\n      sload\n      tag_93\n      swap1\n      tag_92\n      jump\t// in\n    tag_93:\n      dup1\n      iszero\n      tag_94\n      jumpi\n      dup1\n      0x1f\n      lt\n      tag_95\n      jumpi\n      0x0100\n      dup1\n      dup4\n      sload\n      div\n      mul\n      dup4\n      mstore\n      swap2\n      0x20\n      add\n      swap2\n      jump(tag_94)\n    tag_95:\n      dup3\n      add\n      swap2\n      swap1\n      0x00\n      mstore\n      keccak256(0x00, 0x20)\n      swap1\n    tag_96:\n      dup2\n      sload\n      dup2\n      mstore\n      swap1\n      0x01\n      add\n      swap1\n      0x20\n      add\n      dup1\n      dup4\n      gt\n      tag_96\n      jumpi\n      dup3\n      swap1\n      sub\n      0x1f\n      and\n      dup3\n      add\n      swap2\n    tag_94:\n      pop\n      pop\n      pop\n      pop\n      pop\n      swap1\n      pop\n        /* \"@openzeppelin/contracts/token/ERC1155/ERC1155.sol\":1925:2028  function uri(uint256) public view virtual override returns (string memory) {... */\n      swap2\n      swap1\n      pop\n      jump\t// out\n        /* \"contracts/GU-NFT/GUCollections.sol\":1101:1255  function mint(address to, uint256 id, uint256 amount) public onlyTraders returns (bool) {\r... */\n    tag_39:\n        /* \"contracts/GU-NFT/GUCollections.sol\":912:922  msg.sender */\n      caller\n        /* \"contracts/GU-NFT/GUCollections.sol\":1183:1187  bool */\n      0x00\n        /* \"contracts/GU-NFT/GUCollections.sol\":904:923  traders[msg.sender] */\n      swap1\n      dup2\n      mstore\n        /* \"contracts/GU-NFT/GUCollections.sol\":904:911  traders */\n      0x04\n        /* \"contracts/GU-NFT/GUCollections.sol\":904:923  traders[msg.sender] */\n      0x20\n      mstore\n      0x40\n      dup2\n      keccak256\n      sload\n      0xff\n      and\n        /* \"contracts/GU-NFT/GUCollections.sol\":896:952  require(traders[msg.sender], 'You are not whitelisted.') */\n      tag_98\n      jumpi\n      mload(0x40)\n      shl(0xe5, 0x461bcd)\n      dup2\n      mstore\n        /* \"#utility.yul\":13120:13122   */\n      0x20\n        /* \"contracts/GU-NFT/GUCollections.sol\":896:952  require(traders[msg.sender], 'You are not whitelisted.') */\n      0x04\n      dup3\n      add\n        /* \"#utility.yul\":13102:13123   */\n      mstore\n        /* \"#utility.yul\":13159:13161   */\n      0x18\n        /* \"#utility.yul\":13139:13157   */\n      0x24\n      dup3\n      add\n        /* \"#utility.yul\":13132:13162   */\n      mstore\n      shl(0x41, 0x2cb7ba9030b932903737ba103bb434ba32b634b9ba32b217)\n        /* \"#utility.yul\":13178:13196   */\n      0x44\n      dup3\n      add\n        /* \"#utility.yul\":13171:13225   */\n      mstore\n        /* \"#utility.yul\":13242:13260   */\n      0x64\n      add\n        /* \"contracts/GU-NFT/GUCollections.sol\":896:952  require(traders[msg.sender], 'You are not whitelisted.') */\n      tag_83\n        /* \"#utility.yul\":12918:13266   */\n      jump\n        /* \"contracts/GU-NFT/GUCollections.sol\":896:952  require(traders[msg.sender], 'You are not whitelisted.') */\n    tag_98:\n        /* \"contracts/GU-NFT/GUCollections.sol\":1200:1225  _mint(to, id, amount, \"\") */\n      tag_102\n        /* \"contracts/GU-NFT/GUCollections.sol\":1206:1208  to */\n      dup5\n        /* \"contracts/GU-NFT/GUCollections.sol\":1210:1212  id */\n      dup5\n        /* \"contracts/GU-NFT/GUCollections.sol\":1214:1220  amount */\n      dup5\n        /* \"contracts/GU-NFT/GUCollections.sol\":1200:1225  _mint(to, id, amount, \"\") */\n      mload(0x40)\n      dup1\n      0x20\n      add\n      0x40\n      mstore\n      dup1\n      0x00\n      dup2\n      mstore\n      pop\n        /* \"contracts/GU-NFT/GUCollections.sol\":1200:1205  _mint */\n      tag_103\n        /* \"contracts/GU-NFT/GUCollections.sol\":1200:1225  _mint(to, id, amount, \"\") */\n      jump\t// in\n    tag_102:\n      pop\n        /* \"contracts/GU-NFT/GUCollections.sol\":1243:1247  true */\n      0x01\n        /* \"contracts/GU-NFT/GUCollections.sol\":1101:1255  function mint(address to, uint256 id, uint256 amount) public onlyTraders returns (bool) {\r... */\n      swap4\n      swap3\n      pop\n      pop\n      pop\n      jump\t// out\n        /* \"@openzeppelin/contracts/token/ERC1155/ERC1155.sol\":4045:4475  function safeBatchTransferFrom(... */\n    tag_44:\n      sub(shl(0xa0, 0x01), 0x01)\n        /* \"@openzeppelin/contracts/token/ERC1155/ERC1155.sol\":4270:4290  from == _msgSender() */\n      dup6\n      and\n        /* \"@openzeppelin/contracts/utils/Context.sol\":719:729  msg.sender */\n      caller\n        /* \"@openzeppelin/contracts/token/ERC1155/ERC1155.sol\":4270:4290  from == _msgSender() */\n      eq\n      dup1\n        /* \"@openzeppelin/contracts/token/ERC1155/ERC1155.sol\":4270:4330  from == _msgSender() || isApprovedForAll(from, _msgSender()) */\n      tag_108\n      jumpi\n      pop\n        /* \"@openzeppelin/contracts/token/ERC1155/ERC1155.sol\":4294:4330  isApprovedForAll(from, _msgSender()) */\n      tag_108\n        /* \"@openzeppelin/contracts/token/ERC1155/ERC1155.sol\":4311:4315  from */\n      dup6\n        /* \"@openzeppelin/contracts/utils/Context.sol\":719:729  msg.sender */\n      caller\n        /* \"@openzeppelin/contracts/token/ERC1155/ERC1155.sol\":3351:3517  function isApprovedForAll(address account, address operator) public view virtual override returns (bool) {... */\n      tag_73\n      jump\t// in\n        /* \"@openzeppelin/contracts/token/ERC1155/ERC1155.sol\":4294:4330  isApprovedForAll(from, _msgSender()) */\n    tag_108:\n        /* \"@openzeppelin/contracts/token/ERC1155/ERC1155.sol\":4249:4406  require(... */\n      tag_110\n      jumpi\n      mload(0x40)\n      shl(0xe5, 0x461bcd)\n      dup2\n      mstore\n        /* \"#utility.yul\":12290:12292   */\n      0x20\n        /* \"@openzeppelin/contracts/token/ERC1155/ERC1155.sol\":4249:4406  require(... */\n      0x04\n      dup3\n      add\n        /* \"#utility.yul\":12272:12293   */\n      mstore\n        /* \"#utility.yul\":12329:12331   */\n      0x32\n        /* \"#utility.yul\":12309:12327   */\n      0x24\n      dup3\n      add\n        /* \"#utility.yul\":12302:12332   */\n      mstore\n        /* \"#utility.yul\":12368:12402   */\n      0x455243313135353a207472616e736665722063616c6c6572206973206e6f7420\n        /* \"#utility.yul\":12348:12366   */\n      0x44\n      dup3\n      add\n        /* \"#utility.yul\":12341:12403   */\n      mstore\n      shl(0x72, 0x1bdddb995c881b9bdc88185c1c1c9bdd9959)\n        /* \"#utility.yul\":12419:12437   */\n      0x64\n      dup3\n      add\n        /* \"#utility.yul\":12412:12460   */\n      mstore\n        /* \"#utility.yul\":12477:12496   */\n      0x84\n      add\n        /* \"@openzeppelin/contracts/token/ERC1155/ERC1155.sol\":4249:4406  require(... */\n      tag_83\n        /* \"#utility.yul\":12088:12502   */\n      jump\n        /* \"@openzeppelin/contracts/token/ERC1155/ERC1155.sol\":4249:4406  require(... */\n    tag_110:\n        /* \"@openzeppelin/contracts/token/ERC1155/ERC1155.sol\":4416:4468  _safeBatchTransferFrom(from, to, ids, amounts, data) */\n      tag_113\n        /* \"@openzeppelin/contracts/token/ERC1155/ERC1155.sol\":4439:4443  from */\n      dup6\n        /* \"@openzeppelin/contracts/token/ERC1155/ERC1155.sol\":4445:4447  to */\n      dup6\n        /* \"@openzeppelin/contracts/token/ERC1155/ERC1155.sol\":4449:4452  ids */\n      dup6\n        /* \"@openzeppelin/contracts/token/ERC1155/ERC1155.sol\":4454:4461  amounts */\n      dup6\n        /* \"@openzeppelin/contracts/token/ERC1155/ERC1155.sol\":4463:4467  data */\n      dup6\n        /* \"@openzeppelin/contracts/token/ERC1155/ERC1155.sol\":4416:4438  _safeBatchTransferFrom */\n      tag_114\n        /* \"@openzeppelin/contracts/token/ERC1155/ERC1155.sol\":4416:4468  _safeBatchTransferFrom(from, to, ids, amounts, data) */\n      jump\t// in\n    tag_113:\n        /* \"@openzeppelin/contracts/token/ERC1155/ERC1155.sol\":4045:4475  function safeBatchTransferFrom(... */\n      pop\n      pop\n      pop\n      pop\n      pop\n      jump\t// out\n        /* \"@openzeppelin/contracts/token/ERC1155/ERC1155.sol\":2555:3063  function balanceOfBatch(address[] memory accounts, uint256[] memory ids)... */\n    tag_52:\n        /* \"@openzeppelin/contracts/token/ERC1155/ERC1155.sol\":2706:2722  uint256[] memory */\n      0x60\n        /* \"@openzeppelin/contracts/token/ERC1155/ERC1155.sol\":2765:2768  ids */\n      dup2\n        /* \"@openzeppelin/contracts/token/ERC1155/ERC1155.sol\":2765:2775  ids.length */\n      mload\n        /* \"@openzeppelin/contracts/token/ERC1155/ERC1155.sol\":2746:2754  accounts */\n      dup4\n        /* \"@openzeppelin/contracts/token/ERC1155/ERC1155.sol\":2746:2761  accounts.length */\n      mload\n        /* \"@openzeppelin/contracts/token/ERC1155/ERC1155.sol\":2746:2775  accounts.length == ids.length */\n      eq\n        /* \"@openzeppelin/contracts/token/ERC1155/ERC1155.sol\":2738:2821  require(accounts.length == ids.length, \"ERC1155: accounts and ids length mismatch\") */\n      tag_116\n      jumpi\n      mload(0x40)\n      shl(0xe5, 0x461bcd)\n      dup2\n      mstore\n        /* \"#utility.yul\":13883:13885   */\n      0x20\n        /* \"@openzeppelin/contracts/token/ERC1155/ERC1155.sol\":2738:2821  require(accounts.length == ids.length, \"ERC1155: accounts and ids length mismatch\") */\n      0x04\n      dup3\n      add\n        /* \"#utility.yul\":13865:13886   */\n      mstore\n        /* \"#utility.yul\":13922:13924   */\n      0x29\n        /* \"#utility.yul\":13902:13920   */\n      0x24\n      dup3\n      add\n        /* \"#utility.yul\":13895:13925   */\n      mstore\n        /* \"#utility.yul\":13961:13995   */\n      0x455243313135353a206163636f756e747320616e6420696473206c656e677468\n        /* \"#utility.yul\":13941:13959   */\n      0x44\n      dup3\n      add\n        /* \"#utility.yul\":13934:13996   */\n      mstore\n      shl(0xbb, 0x040dad2e6dac2e8c6d)\n        /* \"#utility.yul\":14012:14030   */\n      0x64\n      dup3\n      add\n        /* \"#utility.yul\":14005:14044   */\n      mstore\n        /* \"#utility.yul\":14061:14080   */\n      0x84\n      add\n        /* \"@openzeppelin/contracts/token/ERC1155/ERC1155.sol\":2738:2821  require(accounts.length == ids.length, \"ERC1155: accounts and ids length mismatch\") */\n      tag_83\n        /* \"#utility.yul\":13681:14086   */\n      jump\n        /* \"@openzeppelin/contracts/token/ERC1155/ERC1155.sol\":2738:2821  require(accounts.length == ids.length, \"ERC1155: accounts and ids length mismatch\") */\n    tag_116:\n        /* \"@openzeppelin/contracts/token/ERC1155/ERC1155.sol\":2832:2862  uint256[] memory batchBalances */\n      0x00\n        /* \"@openzeppelin/contracts/token/ERC1155/ERC1155.sol\":2879:2887  accounts */\n      dup4\n        /* \"@openzeppelin/contracts/token/ERC1155/ERC1155.sol\":2879:2894  accounts.length */\n      mload\n        /* \"@openzeppelin/contracts/token/ERC1155/ERC1155.sol\":2865:2895  new uint256[](accounts.length) */\n      0xffffffffffffffff\n      dup2\n      gt\n      iszero\n      tag_120\n      jumpi\n      tag_120\n      tag_121\n      jump\t// in\n    tag_120:\n      mload(0x40)\n      swap1\n      dup1\n      dup3\n      mstore\n      dup1\n      0x20\n      mul\n      0x20\n      add\n      dup3\n      add\n      0x40\n      mstore\n      dup1\n      iszero\n      tag_122\n      jumpi\n      dup2\n      0x20\n      add\n      0x20\n      dup3\n      mul\n      dup1\n      calldatasize\n      dup4\n      calldatacopy\n      add\n      swap1\n      pop\n    tag_122:\n      pop\n        /* \"@openzeppelin/contracts/token/ERC1155/ERC1155.sol\":2832:2895  uint256[] memory batchBalances = new uint256[](accounts.length) */\n      swap1\n      pop\n        /* \"@openzeppelin/contracts/token/ERC1155/ERC1155.sol\":2911:2920  uint256 i */\n      0x00\n        /* \"@openzeppelin/contracts/token/ERC1155/ERC1155.sol\":2906:3026  for (uint256 i = 0; i < accounts.length; ++i) {... */\n    tag_123:\n        /* \"@openzeppelin/contracts/token/ERC1155/ERC1155.sol\":2930:2938  accounts */\n      dup5\n        /* \"@openzeppelin/contracts/token/ERC1155/ERC1155.sol\":2930:2945  accounts.length */\n      mload\n        /* \"@openzeppelin/contracts/token/ERC1155/ERC1155.sol\":2926:2927  i */\n      dup2\n        /* \"@openzeppelin/contracts/token/ERC1155/ERC1155.sol\":2926:2945  i < accounts.length */\n      lt\n        /* \"@openzeppelin/contracts/token/ERC1155/ERC1155.sol\":2906:3026  for (uint256 i = 0; i < accounts.length; ++i) {... */\n      iszero\n      tag_124\n      jumpi\n        /* \"@openzeppelin/contracts/token/ERC1155/ERC1155.sol\":2985:3015  balanceOf(accounts[i], ids[i]) */\n      tag_126\n        /* \"@openzeppelin/contracts/token/ERC1155/ERC1155.sol\":2995:3003  accounts */\n      dup6\n        /* \"@openzeppelin/contracts/token/ERC1155/ERC1155.sol\":3004:3005  i */\n      dup3\n        /* \"@openzeppelin/contracts/token/ERC1155/ERC1155.sol\":2995:3006  accounts[i] */\n      dup2\n      mload\n      dup2\n      lt\n      tag_128\n      jumpi\n      tag_128\n      tag_129\n      jump\t// in\n    tag_128:\n      0x20\n      mul\n      0x20\n      add\n      add\n      mload\n        /* \"@openzeppelin/contracts/token/ERC1155/ERC1155.sol\":3008:3011  ids */\n      dup6\n        /* \"@openzeppelin/contracts/token/ERC1155/ERC1155.sol\":3012:3013  i */\n      dup4\n        /* \"@openzeppelin/contracts/token/ERC1155/ERC1155.sol\":3008:3014  ids[i] */\n      dup2\n      mload\n      dup2\n      lt\n      tag_131\n      jumpi\n      tag_131\n      tag_129\n      jump\t// in\n    tag_131:\n      0x20\n      mul\n      0x20\n      add\n      add\n      mload\n        /* \"@openzeppelin/contracts/token/ERC1155/ERC1155.sol\":2985:2994  balanceOf */\n      tag_21\n        /* \"@openzeppelin/contracts/token/ERC1155/ERC1155.sol\":2985:3015  balanceOf(accounts[i], ids[i]) */\n      jump\t// in\n    tag_126:\n        /* \"@openzeppelin/contracts/token/ERC1155/ERC1155.sol\":2966:2979  batchBalances */\n      dup3\n        /* \"@openzeppelin/contracts/token/ERC1155/ERC1155.sol\":2980:2981  i */\n      dup3\n        /* \"@openzeppelin/contracts/token/ERC1155/ERC1155.sol\":2966:2982  batchBalances[i] */\n      dup2\n      mload\n      dup2\n      lt\n      tag_133\n      jumpi\n      tag_133\n      tag_129\n      jump\t// in\n    tag_133:\n      0x20\n      swap1\n      dup2\n      mul\n      swap2\n      swap1\n      swap2\n      add\n      add\n        /* \"@openzeppelin/contracts/token/ERC1155/ERC1155.sol\":2966:3015  batchBalances[i] = balanceOf(accounts[i], ids[i]) */\n      mstore\n        /* \"@openzeppelin/contracts/token/ERC1155/ERC1155.sol\":2947:2950  ++i */\n      tag_134\n      dup2\n      tag_135\n      jump\t// in\n    tag_134:\n      swap1\n      pop\n        /* \"@openzeppelin/contracts/token/ERC1155/ERC1155.sol\":2906:3026  for (uint256 i = 0; i < accounts.length; ++i) {... */\n      jump(tag_123)\n    tag_124:\n      pop\n        /* \"@openzeppelin/contracts/token/ERC1155/ERC1155.sol\":3043:3056  batchBalances */\n      swap4\n        /* \"@openzeppelin/contracts/token/ERC1155/ERC1155.sol\":2555:3063  function balanceOfBatch(address[] memory accounts, uint256[] memory ids)... */\n      swap3\n      pop\n      pop\n      pop\n      jump\t// out\n        /* \"@openzeppelin/contracts/token/ERC1155/ERC1155.sol\":3131:3284  function setApprovalForAll(address operator, bool approved) public virtual override {... */\n    tag_62:\n        /* \"@openzeppelin/contracts/token/ERC1155/ERC1155.sol\":3225:3277  _setApprovalForAll(_msgSender(), operator, approved) */\n      tag_139\n        /* \"@openzeppelin/contracts/utils/Context.sol\":719:729  msg.sender */\n      caller\n        /* \"@openzeppelin/contracts/token/ERC1155/ERC1155.sol\":3258:3266  operator */\n      dup4\n        /* \"@openzeppelin/contracts/token/ERC1155/ERC1155.sol\":3268:3276  approved */\n      dup4\n        /* \"@openzeppelin/contracts/token/ERC1155/ERC1155.sol\":3225:3243  _setApprovalForAll */\n      tag_141\n        /* \"@openzeppelin/contracts/token/ERC1155/ERC1155.sol\":3225:3277  _setApprovalForAll(_msgSender(), operator, approved) */\n      jump\t// in\n    tag_139:\n        /* \"@openzeppelin/contracts/token/ERC1155/ERC1155.sol\":3131:3284  function setApprovalForAll(address operator, bool approved) public virtual override {... */\n      pop\n      pop\n      jump\t// out\n        /* \"contracts/GU-NFT/GUCollections.sol\":547:798  function changeAdminSafe(address safe) public onlyAdminSafe returns (bool)\r... */\n    tag_70:\n        /* \"contracts/GU-NFT/GUCollections.sol\":616:620  bool */\n      0x00\n        /* \"contracts/GU-NFT/GUCollections.sol\":1022:1032  msg.sender */\n      caller\n        /* \"contracts/GU-NFT/GUCollections.sol\":1022:1044  msg.sender==address(0) */\n      iszero\n        /* \"contracts/GU-NFT/GUCollections.sol\":1014:1073  require(msg.sender==address(0), 'You are not whitelisted.') */\n      tag_144\n      jumpi\n      mload(0x40)\n      shl(0xe5, 0x461bcd)\n      dup2\n      mstore\n        /* \"#utility.yul\":13120:13122   */\n      0x20\n        /* \"contracts/GU-NFT/GUCollections.sol\":1014:1073  require(msg.sender==address(0), 'You are not whitelisted.') */\n      0x04\n      dup3\n      add\n        /* \"#utility.yul\":13102:13123   */\n      mstore\n        /* \"#utility.yul\":13159:13161   */\n      0x18\n        /* \"#utility.yul\":13139:13157   */\n      0x24\n      dup3\n      add\n        /* \"#utility.yul\":13132:13162   */\n      mstore\n      shl(0x41, 0x2cb7ba9030b932903737ba103bb434ba32b634b9ba32b217)\n        /* \"#utility.yul\":13178:13196   */\n      0x44\n      dup3\n      add\n        /* \"#utility.yul\":13171:13225   */\n      mstore\n        /* \"#utility.yul\":13242:13260   */\n      0x64\n      add\n        /* \"contracts/GU-NFT/GUCollections.sol\":1014:1073  require(msg.sender==address(0), 'You are not whitelisted.') */\n      tag_83\n        /* \"#utility.yul\":12918:13266   */\n      jump\n        /* \"contracts/GU-NFT/GUCollections.sol\":1014:1073  require(msg.sender==address(0), 'You are not whitelisted.') */\n    tag_144:\n        /* \"contracts/GU-NFT/GUCollections.sol\":646:655  adminSafe */\n      sload(0x05)\n      sub(shl(0xa0, 0x01), 0x01)\n        /* \"contracts/GU-NFT/GUCollections.sol\":646:661  adminSafe!=safe */\n      dup4\n      dup2\n      and\n        /* \"contracts/GU-NFT/GUCollections.sol\":646:655  adminSafe */\n      swap2\n      and\n        /* \"contracts/GU-NFT/GUCollections.sol\":646:661  adminSafe!=safe */\n      eq\n      iszero\n        /* \"contracts/GU-NFT/GUCollections.sol\":638:703  require(adminSafe!=safe, \"Provided address already safe address\") */\n      tag_147\n      jumpi\n      mload(0x40)\n      shl(0xe5, 0x461bcd)\n      dup2\n      mstore\n        /* \"#utility.yul\":15104:15106   */\n      0x20\n        /* \"contracts/GU-NFT/GUCollections.sol\":638:703  require(adminSafe!=safe, \"Provided address already safe address\") */\n      0x04\n      dup3\n      add\n        /* \"#utility.yul\":15086:15107   */\n      mstore\n        /* \"#utility.yul\":15143:15145   */\n      0x25\n        /* \"#utility.yul\":15123:15141   */\n      0x24\n      dup3\n      add\n        /* \"#utility.yul\":15116:15146   */\n      mstore\n        /* \"#utility.yul\":15182:15216   */\n      0x50726f7669646564206164647265737320616c72656164792073616665206164\n        /* \"#utility.yul\":15162:15180   */\n      0x44\n      dup3\n      add\n        /* \"#utility.yul\":15155:15217   */\n      mstore\n      shl(0xd8, 0x6472657373)\n        /* \"#utility.yul\":15233:15251   */\n      0x64\n      dup3\n      add\n        /* \"#utility.yul\":15226:15261   */\n      mstore\n        /* \"#utility.yul\":15278:15297   */\n      0x84\n      add\n        /* \"contracts/GU-NFT/GUCollections.sol\":638:703  require(adminSafe!=safe, \"Provided address already safe address\") */\n      tag_83\n        /* \"#utility.yul\":14902:15303   */\n      jump\n        /* \"contracts/GU-NFT/GUCollections.sol\":638:703  require(adminSafe!=safe, \"Provided address already safe address\") */\n    tag_147:\n        /* \"contracts/GU-NFT/GUCollections.sol\":714:723  adminSafe */\n      0x05\n        /* \"contracts/GU-NFT/GUCollections.sol\":714:730  adminSafe = safe */\n      dup1\n      sload\n      not(sub(shl(0xa0, 0x01), 0x01))\n      and\n      sub(shl(0xa0, 0x01), 0x01)\n      dup5\n      and\n      swap1\n      dup2\n      or\n      swap1\n      swap2\n      sstore\n        /* \"contracts/GU-NFT/GUCollections.sol\":746:768  AdminSafeChanged(safe) */\n      mload(0x40)\n      0xd4c1af98b758421a8d47b0bc04ecfa30233d5506955e8cde282417aa0d31d3b6\n      swap1\n      0x00\n      swap1\n      log2\n      pop\n        /* \"contracts/GU-NFT/GUCollections.sol\":786:790  true */\n      0x01\n        /* \"contracts/GU-NFT/GUCollections.sol\":1084:1085  _ */\n    tag_146:\n        /* \"contracts/GU-NFT/GUCollections.sol\":547:798  function changeAdminSafe(address safe) public onlyAdminSafe returns (bool)\r... */\n      swap2\n      swap1\n      pop\n      jump\t// out\n        /* \"@openzeppelin/contracts/token/ERC1155/ERC1155.sol\":3584:3973  function safeTransferFrom(... */\n    tag_80:\n      sub(shl(0xa0, 0x01), 0x01)\n        /* \"@openzeppelin/contracts/token/ERC1155/ERC1155.sol\":3784:3804  from == _msgSender() */\n      dup6\n      and\n        /* \"@openzeppelin/contracts/utils/Context.sol\":719:729  msg.sender */\n      caller\n        /* \"@openzeppelin/contracts/token/ERC1155/ERC1155.sol\":3784:3804  from == _msgSender() */\n      eq\n      dup1\n        /* \"@openzeppelin/contracts/token/ERC1155/ERC1155.sol\":3784:3844  from == _msgSender() || isApprovedForAll(from, _msgSender()) */\n      tag_154\n      jumpi\n      pop\n        /* \"@openzeppelin/contracts/token/ERC1155/ERC1155.sol\":3808:3844  isApprovedForAll(from, _msgSender()) */\n      tag_154\n        /* \"@openzeppelin/contracts/token/ERC1155/ERC1155.sol\":3825:3829  from */\n      dup6\n        /* \"@openzeppelin/contracts/utils/Context.sol\":719:729  msg.sender */\n      caller\n        /* \"@openzeppelin/contracts/token/ERC1155/ERC1155.sol\":3351:3517  function isApprovedForAll(address account, address operator) public view virtual override returns (bool) {... */\n      tag_73\n      jump\t// in\n        /* \"@openzeppelin/contracts/token/ERC1155/ERC1155.sol\":3808:3844  isApprovedForAll(from, _msgSender()) */\n    tag_154:\n        /* \"@openzeppelin/contracts/token/ERC1155/ERC1155.sol\":3763:3911  require(... */\n      tag_156\n      jumpi\n      mload(0x40)\n      shl(0xe5, 0x461bcd)\n      dup2\n      mstore\n        /* \"#utility.yul\":11474:11476   */\n      0x20\n        /* \"@openzeppelin/contracts/token/ERC1155/ERC1155.sol\":3763:3911  require(... */\n      0x04\n      dup3\n      add\n        /* \"#utility.yul\":11456:11477   */\n      mstore\n        /* \"#utility.yul\":11513:11515   */\n      0x29\n        /* \"#utility.yul\":11493:11511   */\n      0x24\n      dup3\n      add\n        /* \"#utility.yul\":11486:11516   */\n      mstore\n        /* \"#utility.yul\":11552:11586   */\n      0x455243313135353a2063616c6c6572206973206e6f74206f776e6572206e6f72\n        /* \"#utility.yul\":11532:11550   */\n      0x44\n      dup3\n      add\n        /* \"#utility.yul\":11525:11587   */\n      mstore\n      shl(0xba, 0x08185c1c1c9bdd9959)\n        /* \"#utility.yul\":11603:11621   */\n      0x64\n      dup3\n      add\n        /* \"#utility.yul\":11596:11635   */\n      mstore\n        /* \"#utility.yul\":11652:11671   */\n      0x84\n      add\n        /* \"@openzeppelin/contracts/token/ERC1155/ERC1155.sol\":3763:3911  require(... */\n      tag_83\n        /* \"#utility.yul\":11272:11677   */\n      jump\n        /* \"@openzeppelin/contracts/token/ERC1155/ERC1155.sol\":3763:3911  require(... */\n    tag_156:\n        /* \"@openzeppelin/contracts/token/ERC1155/ERC1155.sol\":3921:3966  _safeTransferFrom(from, to, id, amount, data) */\n      tag_113\n        /* \"@openzeppelin/contracts/token/ERC1155/ERC1155.sol\":3939:3943  from */\n      dup6\n        /* \"@openzeppelin/contracts/token/ERC1155/ERC1155.sol\":3945:3947  to */\n      dup6\n        /* \"@openzeppelin/contracts/token/ERC1155/ERC1155.sol\":3949:3951  id */\n      dup6\n        /* \"@openzeppelin/contracts/token/ERC1155/ERC1155.sol\":3953:3959  amount */\n      dup6\n        /* \"@openzeppelin/contracts/token/ERC1155/ERC1155.sol\":3961:3965  data */\n      dup6\n        /* \"@openzeppelin/contracts/token/ERC1155/ERC1155.sol\":3921:3938  _safeTransferFrom */\n      tag_160\n        /* \"@openzeppelin/contracts/token/ERC1155/ERC1155.sol\":3921:3966  _safeTransferFrom(from, to, id, amount, data) */\n      jump\t// in\n        /* \"@openzeppelin/contracts/token/ERC1155/ERC1155.sol\":8395:8948  function _mint(... */\n    tag_103:\n      sub(shl(0xa0, 0x01), 0x01)\n        /* \"@openzeppelin/contracts/token/ERC1155/ERC1155.sol\":8542:8558  to != address(0) */\n      dup5\n      and\n        /* \"@openzeppelin/contracts/token/ERC1155/ERC1155.sol\":8534:8596  require(to != address(0), \"ERC1155: mint to the zero address\") */\n      tag_163\n      jumpi\n      mload(0x40)\n      shl(0xe5, 0x461bcd)\n      dup2\n      mstore\n        /* \"#utility.yul\":14702:14704   */\n      0x20\n        /* \"@openzeppelin/contracts/token/ERC1155/ERC1155.sol\":8534:8596  require(to != address(0), \"ERC1155: mint to the zero address\") */\n      0x04\n      dup3\n      add\n        /* \"#utility.yul\":14684:14705   */\n      mstore\n        /* \"#utility.yul\":14741:14743   */\n      0x21\n        /* \"#utility.yul\":14721:14739   */\n      0x24\n      dup3\n      add\n        /* \"#utility.yul\":14714:14744   */\n      mstore\n        /* \"#utility.yul\":14780:14814   */\n      0x455243313135353a206d696e7420746f20746865207a65726f20616464726573\n        /* \"#utility.yul\":14760:14778   */\n      0x44\n      dup3\n      add\n        /* \"#utility.yul\":14753:14815   */\n      mstore\n      shl(0xf8, 0x73)\n        /* \"#utility.yul\":14831:14849   */\n      0x64\n      dup3\n      add\n        /* \"#utility.yul\":14824:14855   */\n      mstore\n        /* \"#utility.yul\":14872:14891   */\n      0x84\n      add\n        /* \"@openzeppelin/contracts/token/ERC1155/ERC1155.sol\":8534:8596  require(to != address(0), \"ERC1155: mint to the zero address\") */\n      tag_83\n        /* \"#utility.yul\":14500:14897   */\n      jump\n        /* \"@openzeppelin/contracts/token/ERC1155/ERC1155.sol\":8534:8596  require(to != address(0), \"ERC1155: mint to the zero address\") */\n    tag_163:\n        /* \"@openzeppelin/contracts/utils/Context.sol\":719:729  msg.sender */\n      caller\n        /* \"@openzeppelin/contracts/token/ERC1155/ERC1155.sol\":8649:8751  _beforeTokenTransfer(operator, address(0), to, _asSingletonArray(id), _asSingletonArray(amount), data) */\n      tag_167\n        /* \"@openzeppelin/contracts/utils/Context.sol\":719:729  msg.sender */\n      dup2\n        /* \"@openzeppelin/contracts/token/ERC1155/ERC1155.sol\":8607:8623  address operator */\n      0x00\n        /* \"@openzeppelin/contracts/token/ERC1155/ERC1155.sol\":8692:8694  to */\n      dup8\n        /* \"@openzeppelin/contracts/token/ERC1155/ERC1155.sol\":8696:8717  _asSingletonArray(id) */\n      tag_168\n        /* \"@openzeppelin/contracts/token/ERC1155/ERC1155.sol\":8714:8716  id */\n      dup9\n        /* \"@openzeppelin/contracts/token/ERC1155/ERC1155.sol\":8696:8713  _asSingletonArray */\n      tag_169\n        /* \"@openzeppelin/contracts/token/ERC1155/ERC1155.sol\":8696:8717  _asSingletonArray(id) */\n      jump\t// in\n    tag_168:\n        /* \"@openzeppelin/contracts/token/ERC1155/ERC1155.sol\":8719:8744  _asSingletonArray(amount) */\n      tag_170\n        /* \"@openzeppelin/contracts/token/ERC1155/ERC1155.sol\":8737:8743  amount */\n      dup9\n        /* \"@openzeppelin/contracts/token/ERC1155/ERC1155.sol\":8719:8736  _asSingletonArray */\n      tag_169\n        /* \"@openzeppelin/contracts/token/ERC1155/ERC1155.sol\":8719:8744  _asSingletonArray(amount) */\n      jump\t// in\n    tag_170:\n        /* \"@openzeppelin/contracts/token/ERC1155/ERC1155.sol\":8746:8750  data */\n      dup8\n        /* \"@openzeppelin/contracts/token/ERC1155/ERC1155.sol\":8649:8669  _beforeTokenTransfer */\n      tag_171\n        /* \"@openzeppelin/contracts/token/ERC1155/ERC1155.sol\":8649:8751  _beforeTokenTransfer(operator, address(0), to, _asSingletonArray(id), _asSingletonArray(amount), data) */\n      jump\t// in\n    tag_167:\n        /* \"@openzeppelin/contracts/token/ERC1155/ERC1155.sol\":8762:8771  _balances */\n      0x00\n        /* \"@openzeppelin/contracts/token/ERC1155/ERC1155.sol\":8762:8775  _balances[id] */\n      dup5\n      dup2\n      mstore\n      0x20\n      dup2\n      dup2\n      mstore\n      0x40\n      dup1\n      dup4\n      keccak256\n      sub(shl(0xa0, 0x01), 0x01)\n        /* \"@openzeppelin/contracts/token/ERC1155/ERC1155.sol\":8762:8779  _balances[id][to] */\n      dup10\n      and\n      dup5\n      mstore\n      swap1\n      swap2\n      mstore\n      dup2\n      keccak256\n        /* \"@openzeppelin/contracts/token/ERC1155/ERC1155.sol\":8762:8789  _balances[id][to] += amount */\n      dup1\n      sload\n        /* \"@openzeppelin/contracts/token/ERC1155/ERC1155.sol\":8783:8789  amount */\n      dup6\n      swap3\n        /* \"@openzeppelin/contracts/token/ERC1155/ERC1155.sol\":8762:8771  _balances */\n      swap1\n        /* \"@openzeppelin/contracts/token/ERC1155/ERC1155.sol\":8762:8789  _balances[id][to] += amount */\n      tag_172\n      swap1\n        /* \"@openzeppelin/contracts/token/ERC1155/ERC1155.sol\":8783:8789  amount */\n      dup5\n      swap1\n        /* \"@openzeppelin/contracts/token/ERC1155/ERC1155.sol\":8762:8789  _balances[id][to] += amount */\n      tag_173\n      jump\t// in\n    tag_172:\n      swap1\n      swap2\n      sstore\n      pop\n      pop\n        /* \"@openzeppelin/contracts/token/ERC1155/ERC1155.sol\":8804:8856  TransferSingle(operator, address(0), to, id, amount) */\n      0x40\n      dup1\n      mload\n        /* \"#utility.yul\":15664:15689   */\n      dup6\n      dup2\n      mstore\n        /* \"#utility.yul\":15720:15722   */\n      0x20\n        /* \"#utility.yul\":15705:15723   */\n      dup2\n      add\n        /* \"#utility.yul\":15698:15732   */\n      dup6\n      swap1\n      mstore\n      sub(shl(0xa0, 0x01), 0x01)\n        /* \"@openzeppelin/contracts/token/ERC1155/ERC1155.sol\":8804:8856  TransferSingle(operator, address(0), to, id, amount) */\n      dup1\n      dup9\n      and\n      swap3\n        /* \"@openzeppelin/contracts/token/ERC1155/ERC1155.sol\":8837:8838  0 */\n      0x00\n      swap3\n        /* \"@openzeppelin/contracts/token/ERC1155/ERC1155.sol\":8804:8856  TransferSingle(operator, address(0), to, id, amount) */\n      swap2\n      dup6\n      and\n      swap2\n      0xc3d58168c5ae7397731d063d5bbf3d657854427343f4c083240f7aacaa2d0f62\n      swap2\n        /* \"#utility.yul\":15637:15655   */\n      add\n        /* \"@openzeppelin/contracts/token/ERC1155/ERC1155.sol\":8804:8856  TransferSingle(operator, address(0), to, id, amount) */\n      mload(0x40)\n      dup1\n      swap2\n      sub\n      swap1\n      log4\n        /* \"@openzeppelin/contracts/token/ERC1155/ERC1155.sol\":8867:8941  _doSafeTransferAcceptanceCheck(operator, address(0), to, id, amount, data) */\n      tag_113\n        /* \"@openzeppelin/contracts/token/ERC1155/ERC1155.sol\":8898:8906  operator */\n      dup2\n        /* \"@openzeppelin/contracts/token/ERC1155/ERC1155.sol\":8916:8917  0 */\n      0x00\n        /* \"@openzeppelin/contracts/token/ERC1155/ERC1155.sol\":8920:8922  to */\n      dup8\n        /* \"@openzeppelin/contracts/token/ERC1155/ERC1155.sol\":8924:8926  id */\n      dup8\n        /* \"@openzeppelin/contracts/token/ERC1155/ERC1155.sol\":8928:8934  amount */\n      dup8\n        /* \"@openzeppelin/contracts/token/ERC1155/ERC1155.sol\":8936:8940  data */\n      dup8\n        /* \"@openzeppelin/contracts/token/ERC1155/ERC1155.sol\":8867:8897  _doSafeTransferAcceptanceCheck */\n      tag_177\n        /* \"@openzeppelin/contracts/token/ERC1155/ERC1155.sol\":8867:8941  _doSafeTransferAcceptanceCheck(operator, address(0), to, id, amount, data) */\n      jump\t// in\n        /* \"@openzeppelin/contracts/token/ERC1155/ERC1155.sol\":6068:7113  function _safeBatchTransferFrom(... */\n    tag_114:\n        /* \"@openzeppelin/contracts/token/ERC1155/ERC1155.sol\":6288:6295  amounts */\n      dup2\n        /* \"@openzeppelin/contracts/token/ERC1155/ERC1155.sol\":6288:6302  amounts.length */\n      mload\n        /* \"@openzeppelin/contracts/token/ERC1155/ERC1155.sol\":6274:6277  ids */\n      dup4\n        /* \"@openzeppelin/contracts/token/ERC1155/ERC1155.sol\":6274:6284  ids.length */\n      mload\n        /* \"@openzeppelin/contracts/token/ERC1155/ERC1155.sol\":6274:6302  ids.length == amounts.length */\n      eq\n        /* \"@openzeppelin/contracts/token/ERC1155/ERC1155.sol\":6266:6347  require(ids.length == amounts.length, \"ERC1155: ids and amounts length mismatch\") */\n      tag_180\n      jumpi\n      mload(0x40)\n      shl(0xe5, 0x461bcd)\n      dup2\n      mstore\n        /* \"#utility.yul\":14293:14295   */\n      0x20\n        /* \"@openzeppelin/contracts/token/ERC1155/ERC1155.sol\":6266:6347  require(ids.length == amounts.length, \"ERC1155: ids and amounts length mismatch\") */\n      0x04\n      dup3\n      add\n        /* \"#utility.yul\":14275:14296   */\n      mstore\n        /* \"#utility.yul\":14332:14334   */\n      0x28\n        /* \"#utility.yul\":14312:14330   */\n      0x24\n      dup3\n      add\n        /* \"#utility.yul\":14305:14335   */\n      mstore\n        /* \"#utility.yul\":14371:14405   */\n      0x455243313135353a2069647320616e6420616d6f756e7473206c656e67746820\n        /* \"#utility.yul\":14351:14369   */\n      0x44\n      dup3\n      add\n        /* \"#utility.yul\":14344:14406   */\n      mstore\n      shl(0xc3, 0x0dad2e6dac2e8c6d)\n        /* \"#utility.yul\":14422:14440   */\n      0x64\n      dup3\n      add\n        /* \"#utility.yul\":14415:14453   */\n      mstore\n        /* \"#utility.yul\":14470:14489   */\n      0x84\n      add\n        /* \"@openzeppelin/contracts/token/ERC1155/ERC1155.sol\":6266:6347  require(ids.length == amounts.length, \"ERC1155: ids and amounts length mismatch\") */\n      tag_83\n        /* \"#utility.yul\":14091:14495   */\n      jump\n        /* \"@openzeppelin/contracts/token/ERC1155/ERC1155.sol\":6266:6347  require(ids.length == amounts.length, \"ERC1155: ids and amounts length mismatch\") */\n    tag_180:\n      sub(shl(0xa0, 0x01), 0x01)\n        /* \"@openzeppelin/contracts/token/ERC1155/ERC1155.sol\":6365:6381  to != address(0) */\n      dup5\n      and\n        /* \"@openzeppelin/contracts/token/ERC1155/ERC1155.sol\":6357:6423  require(to != address(0), \"ERC1155: transfer to the zero address\") */\n      tag_183\n      jumpi\n      mload(0x40)\n      shl(0xe5, 0x461bcd)\n      dup2\n      mstore\n      0x04\n      add\n      tag_83\n      swap1\n      tag_185\n      jump\t// in\n    tag_183:\n        /* \"@openzeppelin/contracts/utils/Context.sol\":719:729  msg.sender */\n      caller\n        /* \"@openzeppelin/contracts/token/ERC1155/ERC1155.sol\":6476:6536  _beforeTokenTransfer(operator, from, to, ids, amounts, data) */\n      tag_187\n        /* \"@openzeppelin/contracts/utils/Context.sol\":719:729  msg.sender */\n      dup2\n        /* \"@openzeppelin/contracts/token/ERC1155/ERC1155.sol\":6507:6511  from */\n      dup8\n        /* \"@openzeppelin/contracts/token/ERC1155/ERC1155.sol\":6513:6515  to */\n      dup8\n        /* \"@openzeppelin/contracts/token/ERC1155/ERC1155.sol\":6517:6520  ids */\n      dup8\n        /* \"@openzeppelin/contracts/token/ERC1155/ERC1155.sol\":6522:6529  amounts */\n      dup8\n        /* \"@openzeppelin/contracts/token/ERC1155/ERC1155.sol\":6531:6535  data */\n      dup8\n        /* \"@openzeppelin/contracts/token/ERC1155/ERC1155.sol\":6476:6496  _beforeTokenTransfer */\n      tag_171\n        /* \"@openzeppelin/contracts/token/ERC1155/ERC1155.sol\":6476:6536  _beforeTokenTransfer(operator, from, to, ids, amounts, data) */\n      jump\t// in\n    tag_187:\n        /* \"@openzeppelin/contracts/token/ERC1155/ERC1155.sol\":6552:6561  uint256 i */\n      0x00\n        /* \"@openzeppelin/contracts/token/ERC1155/ERC1155.sol\":6547:6958  for (uint256 i = 0; i < ids.length; ++i) {... */\n    tag_188:\n        /* \"@openzeppelin/contracts/token/ERC1155/ERC1155.sol\":6571:6574  ids */\n      dup5\n        /* \"@openzeppelin/contracts/token/ERC1155/ERC1155.sol\":6571:6581  ids.length */\n      mload\n        /* \"@openzeppelin/contracts/token/ERC1155/ERC1155.sol\":6567:6568  i */\n      dup2\n        /* \"@openzeppelin/contracts/token/ERC1155/ERC1155.sol\":6567:6581  i < ids.length */\n      lt\n        /* \"@openzeppelin/contracts/token/ERC1155/ERC1155.sol\":6547:6958  for (uint256 i = 0; i < ids.length; ++i) {... */\n      iszero\n      tag_189\n      jumpi\n        /* \"@openzeppelin/contracts/token/ERC1155/ERC1155.sol\":6602:6612  uint256 id */\n      0x00\n        /* \"@openzeppelin/contracts/token/ERC1155/ERC1155.sol\":6615:6618  ids */\n      dup6\n        /* \"@openzeppelin/contracts/token/ERC1155/ERC1155.sol\":6619:6620  i */\n      dup3\n        /* \"@openzeppelin/contracts/token/ERC1155/ERC1155.sol\":6615:6621  ids[i] */\n      dup2\n      mload\n      dup2\n      lt\n      tag_192\n      jumpi\n      tag_192\n      tag_129\n      jump\t// in\n    tag_192:\n      0x20\n      mul\n      0x20\n      add\n      add\n      mload\n        /* \"@openzeppelin/contracts/token/ERC1155/ERC1155.sol\":6602:6621  uint256 id = ids[i] */\n      swap1\n      pop\n        /* \"@openzeppelin/contracts/token/ERC1155/ERC1155.sol\":6635:6649  uint256 amount */\n      0x00\n        /* \"@openzeppelin/contracts/token/ERC1155/ERC1155.sol\":6652:6659  amounts */\n      dup6\n        /* \"@openzeppelin/contracts/token/ERC1155/ERC1155.sol\":6660:6661  i */\n      dup4\n        /* \"@openzeppelin/contracts/token/ERC1155/ERC1155.sol\":6652:6662  amounts[i] */\n      dup2\n      mload\n      dup2\n      lt\n      tag_194\n      jumpi\n      tag_194\n      tag_129\n      jump\t// in\n    tag_194:\n      0x20\n      swap1\n      dup2\n      mul\n      swap2\n      swap1\n      swap2\n      add\n      dup2\n      add\n      mload\n        /* \"@openzeppelin/contracts/token/ERC1155/ERC1155.sol\":6677:6696  uint256 fromBalance */\n      0x00\n        /* \"@openzeppelin/contracts/token/ERC1155/ERC1155.sol\":6699:6712  _balances[id] */\n      dup5\n      dup2\n      mstore\n      dup1\n      dup4\n      mstore\n      0x40\n      dup1\n      dup3\n      keccak256\n      sub(shl(0xa0, 0x01), 0x01)\n        /* \"@openzeppelin/contracts/token/ERC1155/ERC1155.sol\":6699:6718  _balances[id][from] */\n      dup15\n      and\n      dup4\n      mstore\n      swap1\n      swap4\n      mstore\n      swap2\n      swap1\n      swap2\n      keccak256\n      sload\n        /* \"@openzeppelin/contracts/token/ERC1155/ERC1155.sol\":6652:6662  amounts[i] */\n      swap1\n      swap2\n      pop\n        /* \"@openzeppelin/contracts/token/ERC1155/ERC1155.sol\":6740:6761  fromBalance >= amount */\n      dup2\n      dup2\n      lt\n      iszero\n        /* \"@openzeppelin/contracts/token/ERC1155/ERC1155.sol\":6732:6808  require(fromBalance >= amount, \"ERC1155: insufficient balance for transfer\") */\n      tag_195\n      jumpi\n      mload(0x40)\n      shl(0xe5, 0x461bcd)\n      dup2\n      mstore\n      0x04\n      add\n      tag_83\n      swap1\n      tag_197\n      jump\t// in\n    tag_195:\n        /* \"@openzeppelin/contracts/token/ERC1155/ERC1155.sol\":6850:6859  _balances */\n      0x00\n        /* \"@openzeppelin/contracts/token/ERC1155/ERC1155.sol\":6850:6863  _balances[id] */\n      dup4\n      dup2\n      mstore\n      0x20\n      dup2\n      dup2\n      mstore\n      0x40\n      dup1\n      dup4\n      keccak256\n      sub(shl(0xa0, 0x01), 0x01)\n        /* \"@openzeppelin/contracts/token/ERC1155/ERC1155.sol\":6850:6869  _balances[id][from] */\n      dup15\n      dup2\n      and\n      dup6\n      mstore\n      swap3\n      mstore\n      dup1\n      dup4\n      keccak256\n        /* \"@openzeppelin/contracts/token/ERC1155/ERC1155.sol\":6872:6892  fromBalance - amount */\n      dup6\n      dup6\n      sub\n        /* \"@openzeppelin/contracts/token/ERC1155/ERC1155.sol\":6850:6892  _balances[id][from] = fromBalance - amount */\n      swap1\n      sstore\n        /* \"@openzeppelin/contracts/token/ERC1155/ERC1155.sol\":6920:6937  _balances[id][to] */\n      swap1\n      dup12\n      and\n      dup3\n      mstore\n      dup2\n      keccak256\n        /* \"@openzeppelin/contracts/token/ERC1155/ERC1155.sol\":6920:6947  _balances[id][to] += amount */\n      dup1\n      sload\n        /* \"@openzeppelin/contracts/token/ERC1155/ERC1155.sol\":6872:6892  fromBalance - amount */\n      dup5\n      swap3\n        /* \"@openzeppelin/contracts/token/ERC1155/ERC1155.sol\":6850:6859  _balances */\n      swap1\n        /* \"@openzeppelin/contracts/token/ERC1155/ERC1155.sol\":6920:6947  _balances[id][to] += amount */\n      tag_198\n      swap1\n        /* \"@openzeppelin/contracts/token/ERC1155/ERC1155.sol\":6872:6892  fromBalance - amount */\n      dup5\n      swap1\n        /* \"@openzeppelin/contracts/token/ERC1155/ERC1155.sol\":6920:6947  _balances[id][to] += amount */\n      tag_173\n      jump\t// in\n    tag_198:\n      swap3\n      pop\n      pop\n      dup2\n      swap1\n      sstore\n      pop\n        /* \"@openzeppelin/contracts/token/ERC1155/ERC1155.sol\":6588:6958  {... */\n      pop\n      pop\n      pop\n        /* \"@openzeppelin/contracts/token/ERC1155/ERC1155.sol\":6583:6586  ++i */\n      dup1\n      tag_199\n      swap1\n      tag_135\n      jump\t// in\n    tag_199:\n      swap1\n      pop\n        /* \"@openzeppelin/contracts/token/ERC1155/ERC1155.sol\":6547:6958  for (uint256 i = 0; i < ids.length; ++i) {... */\n      jump(tag_188)\n    tag_189:\n      pop\n        /* \"@openzeppelin/contracts/token/ERC1155/ERC1155.sol\":7003:7005  to */\n      dup5\n      sub(shl(0xa0, 0x01), 0x01)\n        /* \"@openzeppelin/contracts/token/ERC1155/ERC1155.sol\":6973:7020  TransferBatch(operator, from, to, ids, amounts) */\n      and\n        /* \"@openzeppelin/contracts/token/ERC1155/ERC1155.sol\":6997:7001  from */\n      dup7\n      sub(shl(0xa0, 0x01), 0x01)\n        /* \"@openzeppelin/contracts/token/ERC1155/ERC1155.sol\":6973:7020  TransferBatch(operator, from, to, ids, amounts) */\n      and\n        /* \"@openzeppelin/contracts/token/ERC1155/ERC1155.sol\":6987:6995  operator */\n      dup3\n      sub(shl(0xa0, 0x01), 0x01)\n        /* \"@openzeppelin/contracts/token/ERC1155/ERC1155.sol\":6973:7020  TransferBatch(operator, from, to, ids, amounts) */\n      and\n      0x4a39dc06d4c0dbc64b70af90fd698a233a518aa5d07e595d983b8c0526c8f7fb\n        /* \"@openzeppelin/contracts/token/ERC1155/ERC1155.sol\":7007:7010  ids */\n      dup8\n        /* \"@openzeppelin/contracts/token/ERC1155/ERC1155.sol\":7012:7019  amounts */\n      dup8\n        /* \"@openzeppelin/contracts/token/ERC1155/ERC1155.sol\":6973:7020  TransferBatch(operator, from, to, ids, amounts) */\n      mload(0x40)\n      tag_200\n      swap3\n      swap2\n      swap1\n      tag_201\n      jump\t// in\n    tag_200:\n      mload(0x40)\n      dup1\n      swap2\n      sub\n      swap1\n      log4\n        /* \"@openzeppelin/contracts/token/ERC1155/ERC1155.sol\":7031:7106  _doSafeBatchTransferAcceptanceCheck(operator, from, to, ids, amounts, data) */\n      tag_202\n        /* \"@openzeppelin/contracts/token/ERC1155/ERC1155.sol\":7067:7075  operator */\n      dup2\n        /* \"@openzeppelin/contracts/token/ERC1155/ERC1155.sol\":7077:7081  from */\n      dup8\n        /* \"@openzeppelin/contracts/token/ERC1155/ERC1155.sol\":7083:7085  to */\n      dup8\n        /* \"@openzeppelin/contracts/token/ERC1155/ERC1155.sol\":7087:7090  ids */\n      dup8\n        /* \"@openzeppelin/contracts/token/ERC1155/ERC1155.sol\":7092:7099  amounts */\n      dup8\n        /* \"@openzeppelin/contracts/token/ERC1155/ERC1155.sol\":7101:7105  data */\n      dup8\n        /* \"@openzeppelin/contracts/token/ERC1155/ERC1155.sol\":7031:7066  _doSafeBatchTransferAcceptanceCheck */\n      tag_203\n        /* \"@openzeppelin/contracts/token/ERC1155/ERC1155.sol\":7031:7106  _doSafeBatchTransferAcceptanceCheck(operator, from, to, ids, amounts, data) */\n      jump\t// in\n    tag_202:\n        /* \"@openzeppelin/contracts/token/ERC1155/ERC1155.sol\":6256:7113  {... */\n      pop\n        /* \"@openzeppelin/contracts/token/ERC1155/ERC1155.sol\":6068:7113  function _safeBatchTransferFrom(... */\n      pop\n      pop\n      pop\n      pop\n      pop\n      jump\t// out\n        /* \"@openzeppelin/contracts/token/ERC1155/ERC1155.sol\":12074:12397  function _setApprovalForAll(... */\n    tag_141:\n        /* \"@openzeppelin/contracts/token/ERC1155/ERC1155.sol\":12224:12232  operator */\n      dup2\n      sub(shl(0xa0, 0x01), 0x01)\n        /* \"@openzeppelin/contracts/token/ERC1155/ERC1155.sol\":12215:12232  owner != operator */\n      and\n        /* \"@openzeppelin/contracts/token/ERC1155/ERC1155.sol\":12215:12220  owner */\n      dup4\n      sub(shl(0xa0, 0x01), 0x01)\n        /* \"@openzeppelin/contracts/token/ERC1155/ERC1155.sol\":12215:12232  owner != operator */\n      and\n      eq\n      iszero\n        /* \"@openzeppelin/contracts/token/ERC1155/ERC1155.sol\":12207:12278  require(owner != operator, \"ERC1155: setting approval status for self\") */\n      tag_205\n      jumpi\n      mload(0x40)\n      shl(0xe5, 0x461bcd)\n      dup2\n      mstore\n        /* \"#utility.yul\":13473:13475   */\n      0x20\n        /* \"@openzeppelin/contracts/token/ERC1155/ERC1155.sol\":12207:12278  require(owner != operator, \"ERC1155: setting approval status for self\") */\n      0x04\n      dup3\n      add\n        /* \"#utility.yul\":13455:13476   */\n      mstore\n        /* \"#utility.yul\":13512:13514   */\n      0x29\n        /* \"#utility.yul\":13492:13510   */\n      0x24\n      dup3\n      add\n        /* \"#utility.yul\":13485:13515   */\n      mstore\n        /* \"#utility.yul\":13551:13585   */\n      0x455243313135353a2073657474696e6720617070726f76616c20737461747573\n        /* \"#utility.yul\":13531:13549   */\n      0x44\n      dup3\n      add\n        /* \"#utility.yul\":13524:13586   */\n      mstore\n      shl(0xb9, 0x103337b91039b2b633)\n        /* \"#utility.yul\":13602:13620   */\n      0x64\n      dup3\n      add\n        /* \"#utility.yul\":13595:13634   */\n      mstore\n        /* \"#utility.yul\":13651:13670   */\n      0x84\n      add\n        /* \"@openzeppelin/contracts/token/ERC1155/ERC1155.sol\":12207:12278  require(owner != operator, \"ERC1155: setting approval status for self\") */\n      tag_83\n        /* \"#utility.yul\":13271:13676   */\n      jump\n        /* \"@openzeppelin/contracts/token/ERC1155/ERC1155.sol\":12207:12278  require(owner != operator, \"ERC1155: setting approval status for self\") */\n    tag_205:\n      sub(shl(0xa0, 0x01), 0x01)\n        /* \"@openzeppelin/contracts/token/ERC1155/ERC1155.sol\":12288:12313  _operatorApprovals[owner] */\n      dup4\n      dup2\n      and\n      0x00\n      dup2\n      dup2\n      mstore\n        /* \"@openzeppelin/contracts/token/ERC1155/ERC1155.sol\":12288:12306  _operatorApprovals */\n      0x01\n        /* \"@openzeppelin/contracts/token/ERC1155/ERC1155.sol\":12288:12313  _operatorApprovals[owner] */\n      0x20\n      swap1\n      dup2\n      mstore\n      0x40\n      dup1\n      dup4\n      keccak256\n        /* \"@openzeppelin/contracts/token/ERC1155/ERC1155.sol\":12288:12323  _operatorApprovals[owner][operator] */\n      swap5\n      dup8\n      and\n      dup1\n      dup5\n      mstore\n      swap5\n      dup3\n      mstore\n      swap2\n      dup3\n      swap1\n      keccak256\n        /* \"@openzeppelin/contracts/token/ERC1155/ERC1155.sol\":12288:12334  _operatorApprovals[owner][operator] = approved */\n      dup1\n      sload\n      not(0xff)\n      and\n      dup7\n      iszero\n      iszero\n      swap1\n      dup2\n      or\n      swap1\n      swap2\n      sstore\n        /* \"@openzeppelin/contracts/token/ERC1155/ERC1155.sol\":12349:12390  ApprovalForAll(owner, operator, approved) */\n      swap2\n      mload\n        /* \"#utility.yul\":9754:9795   */\n      swap2\n      dup3\n      mstore\n        /* \"@openzeppelin/contracts/token/ERC1155/ERC1155.sol\":12349:12390  ApprovalForAll(owner, operator, approved) */\n      0x17307eab39ab6107e8899845ad3d59bd9653f200f220920489ca2b5937696c31\n      swap2\n        /* \"#utility.yul\":9727:9745   */\n      add\n        /* \"@openzeppelin/contracts/token/ERC1155/ERC1155.sol\":12349:12390  ApprovalForAll(owner, operator, approved) */\n      mload(0x40)\n      dup1\n      swap2\n      sub\n      swap1\n      log3\n        /* \"@openzeppelin/contracts/token/ERC1155/ERC1155.sol\":12074:12397  function _setApprovalForAll(... */\n      pop\n      pop\n      pop\n      jump\t// out\n        /* \"@openzeppelin/contracts/token/ERC1155/ERC1155.sol\":4925:5722  function _safeTransferFrom(... */\n    tag_160:\n      sub(shl(0xa0, 0x01), 0x01)\n        /* \"@openzeppelin/contracts/token/ERC1155/ERC1155.sol\":5106:5122  to != address(0) */\n      dup5\n      and\n        /* \"@openzeppelin/contracts/token/ERC1155/ERC1155.sol\":5098:5164  require(to != address(0), \"ERC1155: transfer to the zero address\") */\n      tag_210\n      jumpi\n      mload(0x40)\n      shl(0xe5, 0x461bcd)\n      dup2\n      mstore\n      0x04\n      add\n      tag_83\n      swap1\n      tag_185\n      jump\t// in\n    tag_210:\n        /* \"@openzeppelin/contracts/utils/Context.sol\":719:729  msg.sender */\n      caller\n        /* \"@openzeppelin/contracts/token/ERC1155/ERC1155.sol\":5217:5313  _beforeTokenTransfer(operator, from, to, _asSingletonArray(id), _asSingletonArray(amount), data) */\n      tag_213\n        /* \"@openzeppelin/contracts/utils/Context.sol\":719:729  msg.sender */\n      dup2\n        /* \"@openzeppelin/contracts/token/ERC1155/ERC1155.sol\":5248:5252  from */\n      dup8\n        /* \"@openzeppelin/contracts/token/ERC1155/ERC1155.sol\":5254:5256  to */\n      dup8\n        /* \"@openzeppelin/contracts/token/ERC1155/ERC1155.sol\":5258:5279  _asSingletonArray(id) */\n      tag_168\n        /* \"@openzeppelin/contracts/token/ERC1155/ERC1155.sol\":5276:5278  id */\n      dup9\n        /* \"@openzeppelin/contracts/token/ERC1155/ERC1155.sol\":5258:5275  _asSingletonArray */\n      tag_169\n        /* \"@openzeppelin/contracts/token/ERC1155/ERC1155.sol\":5258:5279  _asSingletonArray(id) */\n      jump\t// in\n        /* \"@openzeppelin/contracts/token/ERC1155/ERC1155.sol\":5217:5313  _beforeTokenTransfer(operator, from, to, _asSingletonArray(id), _asSingletonArray(amount), data) */\n    tag_213:\n        /* \"@openzeppelin/contracts/token/ERC1155/ERC1155.sol\":5324:5343  uint256 fromBalance */\n      0x00\n        /* \"@openzeppelin/contracts/token/ERC1155/ERC1155.sol\":5346:5359  _balances[id] */\n      dup5\n      dup2\n      mstore\n      0x20\n      dup2\n      dup2\n      mstore\n      0x40\n      dup1\n      dup4\n      keccak256\n      sub(shl(0xa0, 0x01), 0x01)\n        /* \"@openzeppelin/contracts/token/ERC1155/ERC1155.sol\":5346:5365  _balances[id][from] */\n      dup11\n      and\n      dup5\n      mstore\n      swap1\n      swap2\n      mstore\n      swap1\n      keccak256\n      sload\n        /* \"@openzeppelin/contracts/token/ERC1155/ERC1155.sol\":5383:5404  fromBalance >= amount */\n      dup4\n      dup2\n      lt\n      iszero\n        /* \"@openzeppelin/contracts/token/ERC1155/ERC1155.sol\":5375:5451  require(fromBalance >= amount, \"ERC1155: insufficient balance for transfer\") */\n      tag_216\n      jumpi\n      mload(0x40)\n      shl(0xe5, 0x461bcd)\n      dup2\n      mstore\n      0x04\n      add\n      tag_83\n      swap1\n      tag_197\n      jump\t// in\n    tag_216:\n        /* \"@openzeppelin/contracts/token/ERC1155/ERC1155.sol\":5485:5494  _balances */\n      0x00\n        /* \"@openzeppelin/contracts/token/ERC1155/ERC1155.sol\":5485:5498  _balances[id] */\n      dup6\n      dup2\n      mstore\n      0x20\n      dup2\n      dup2\n      mstore\n      0x40\n      dup1\n      dup4\n      keccak256\n      sub(shl(0xa0, 0x01), 0x01)\n        /* \"@openzeppelin/contracts/token/ERC1155/ERC1155.sol\":5485:5504  _balances[id][from] */\n      dup12\n      dup2\n      and\n      dup6\n      mstore\n      swap3\n      mstore\n      dup1\n      dup4\n      keccak256\n        /* \"@openzeppelin/contracts/token/ERC1155/ERC1155.sol\":5507:5527  fromBalance - amount */\n      dup8\n      dup6\n      sub\n        /* \"@openzeppelin/contracts/token/ERC1155/ERC1155.sol\":5485:5527  _balances[id][from] = fromBalance - amount */\n      swap1\n      sstore\n        /* \"@openzeppelin/contracts/token/ERC1155/ERC1155.sol\":5547:5564  _balances[id][to] */\n      swap1\n      dup9\n      and\n      dup3\n      mstore\n      dup2\n      keccak256\n        /* \"@openzeppelin/contracts/token/ERC1155/ERC1155.sol\":5547:5574  _balances[id][to] += amount */\n      dup1\n      sload\n        /* \"@openzeppelin/contracts/token/ERC1155/ERC1155.sol\":5507:5527  fromBalance - amount */\n      dup7\n      swap3\n        /* \"@openzeppelin/contracts/token/ERC1155/ERC1155.sol\":5485:5494  _balances */\n      swap1\n        /* \"@openzeppelin/contracts/token/ERC1155/ERC1155.sol\":5547:5574  _balances[id][to] += amount */\n      tag_218\n      swap1\n        /* \"@openzeppelin/contracts/token/ERC1155/ERC1155.sol\":5507:5527  fromBalance - amount */\n      dup5\n      swap1\n        /* \"@openzeppelin/contracts/token/ERC1155/ERC1155.sol\":5547:5574  _balances[id][to] += amount */\n      tag_173\n      jump\t// in\n    tag_218:\n      swap1\n      swap2\n      sstore\n      pop\n      pop\n        /* \"@openzeppelin/contracts/token/ERC1155/ERC1155.sol\":5590:5636  TransferSingle(operator, from, to, id, amount) */\n      0x40\n      dup1\n      mload\n        /* \"#utility.yul\":15664:15689   */\n      dup7\n      dup2\n      mstore\n        /* \"#utility.yul\":15720:15722   */\n      0x20\n        /* \"#utility.yul\":15705:15723   */\n      dup2\n      add\n        /* \"#utility.yul\":15698:15732   */\n      dup7\n      swap1\n      mstore\n      sub(shl(0xa0, 0x01), 0x01)\n        /* \"@openzeppelin/contracts/token/ERC1155/ERC1155.sol\":5590:5636  TransferSingle(operator, from, to, id, amount) */\n      dup1\n      dup10\n      and\n      swap3\n      dup11\n      dup3\n      and\n      swap3\n      swap2\n      dup7\n      and\n      swap2\n      0xc3d58168c5ae7397731d063d5bbf3d657854427343f4c083240f7aacaa2d0f62\n      swap2\n        /* \"#utility.yul\":15637:15655   */\n      add\n        /* \"@openzeppelin/contracts/token/ERC1155/ERC1155.sol\":5590:5636  TransferSingle(operator, from, to, id, amount) */\n      mload(0x40)\n      dup1\n      swap2\n      sub\n      swap1\n      log4\n        /* \"@openzeppelin/contracts/token/ERC1155/ERC1155.sol\":5647:5715  _doSafeTransferAcceptanceCheck(operator, from, to, id, amount, data) */\n      tag_220\n        /* \"@openzeppelin/contracts/token/ERC1155/ERC1155.sol\":5678:5686  operator */\n      dup3\n        /* \"@openzeppelin/contracts/token/ERC1155/ERC1155.sol\":5688:5692  from */\n      dup9\n        /* \"@openzeppelin/contracts/token/ERC1155/ERC1155.sol\":5694:5696  to */\n      dup9\n        /* \"@openzeppelin/contracts/token/ERC1155/ERC1155.sol\":5698:5700  id */\n      dup9\n        /* \"@openzeppelin/contracts/token/ERC1155/ERC1155.sol\":5702:5708  amount */\n      dup9\n        /* \"@openzeppelin/contracts/token/ERC1155/ERC1155.sol\":5710:5714  data */\n      dup9\n        /* \"@openzeppelin/contracts/token/ERC1155/ERC1155.sol\":5647:5677  _doSafeTransferAcceptanceCheck */\n      tag_177\n        /* \"@openzeppelin/contracts/token/ERC1155/ERC1155.sol\":5647:5715  _doSafeTransferAcceptanceCheck(operator, from, to, id, amount, data) */\n      jump\t// in\n    tag_220:\n        /* \"@openzeppelin/contracts/token/ERC1155/ERC1155.sol\":5088:5722  {... */\n      pop\n      pop\n        /* \"@openzeppelin/contracts/token/ERC1155/ERC1155.sol\":4925:5722  function _safeTransferFrom(... */\n      pop\n      pop\n      pop\n      pop\n      pop\n      jump\t// out\n        /* \"@openzeppelin/contracts/token/ERC1155/ERC1155.sol\":15080:15273  function _asSingletonArray(uint256 element) private pure returns (uint256[] memory) {... */\n    tag_169:\n        /* \"@openzeppelin/contracts/token/ERC1155/ERC1155.sol\":15199:15215  new uint256[](1) */\n      0x40\n      dup1\n      mload\n        /* \"@openzeppelin/contracts/token/ERC1155/ERC1155.sol\":15213:15214  1 */\n      0x01\n        /* \"@openzeppelin/contracts/token/ERC1155/ERC1155.sol\":15199:15215  new uint256[](1) */\n      dup1\n      dup3\n      mstore\n      dup2\n      dup4\n      add\n      swap1\n      swap3\n      mstore\n        /* \"@openzeppelin/contracts/token/ERC1155/ERC1155.sol\":15146:15162  uint256[] memory */\n      0x60\n      swap2\n        /* \"@openzeppelin/contracts/token/ERC1155/ERC1155.sol\":15174:15196  uint256[] memory array */\n      0x00\n      swap2\n        /* \"@openzeppelin/contracts/token/ERC1155/ERC1155.sol\":15199:15215  new uint256[](1) */\n      swap1\n      0x20\n      dup1\n      dup4\n      add\n      swap1\n      dup1\n      calldatasize\n      dup4\n      calldatacopy\n      add\n      swap1\n      pop\n      pop\n        /* \"@openzeppelin/contracts/token/ERC1155/ERC1155.sol\":15174:15215  uint256[] memory array = new uint256[](1) */\n      swap1\n      pop\n        /* \"@openzeppelin/contracts/token/ERC1155/ERC1155.sol\":15236:15243  element */\n      dup3\n        /* \"@openzeppelin/contracts/token/ERC1155/ERC1155.sol\":15225:15230  array */\n      dup2\n        /* \"@openzeppelin/contracts/token/ERC1155/ERC1155.sol\":15231:15232  0 */\n      0x00\n        /* \"@openzeppelin/contracts/token/ERC1155/ERC1155.sol\":15225:15233  array[0] */\n      dup2\n      mload\n      dup2\n      lt\n      tag_226\n      jumpi\n      tag_226\n      tag_129\n      jump\t// in\n    tag_226:\n      0x20\n      swap1\n      dup2\n      mul\n      swap2\n      swap1\n      swap2\n      add\n      add\n        /* \"@openzeppelin/contracts/token/ERC1155/ERC1155.sol\":15225:15243  array[0] = element */\n      mstore\n        /* \"@openzeppelin/contracts/token/ERC1155/ERC1155.sol\":15261:15266  array */\n      swap3\n        /* \"@openzeppelin/contracts/token/ERC1155/ERC1155.sol\":15080:15273  function _asSingletonArray(uint256 element) private pure returns (uint256[] memory) {... */\n      swap2\n      pop\n      pop\n      jump\t// out\n        /* \"@openzeppelin/contracts/token/ERC1155/extensions/ERC1155Supply.sol\":1076:1710  function _beforeTokenTransfer(... */\n    tag_171:\n      sub(shl(0xa0, 0x01), 0x01)\n        /* \"@openzeppelin/contracts/token/ERC1155/extensions/ERC1155Supply.sol\":1388:1406  from == address(0) */\n      dup6\n      and\n        /* \"@openzeppelin/contracts/token/ERC1155/extensions/ERC1155Supply.sol\":1384:1540  if (from == address(0)) {... */\n      tag_230\n      jumpi\n        /* \"@openzeppelin/contracts/token/ERC1155/extensions/ERC1155Supply.sol\":1427:1436  uint256 i */\n      0x00\n        /* \"@openzeppelin/contracts/token/ERC1155/extensions/ERC1155Supply.sol\":1422:1530  for (uint256 i = 0; i < ids.length; ++i) {... */\n    tag_231:\n        /* \"@openzeppelin/contracts/token/ERC1155/extensions/ERC1155Supply.sol\":1446:1449  ids */\n      dup4\n        /* \"@openzeppelin/contracts/token/ERC1155/extensions/ERC1155Supply.sol\":1446:1456  ids.length */\n      mload\n        /* \"@openzeppelin/contracts/token/ERC1155/extensions/ERC1155Supply.sol\":1442:1443  i */\n      dup2\n        /* \"@openzeppelin/contracts/token/ERC1155/extensions/ERC1155Supply.sol\":1442:1456  i < ids.length */\n      lt\n        /* \"@openzeppelin/contracts/token/ERC1155/extensions/ERC1155Supply.sol\":1422:1530  for (uint256 i = 0; i < ids.length; ++i) {... */\n      iszero\n      tag_232\n      jumpi\n        /* \"@openzeppelin/contracts/token/ERC1155/extensions/ERC1155Supply.sol\":1505:1512  amounts */\n      dup3\n        /* \"@openzeppelin/contracts/token/ERC1155/extensions/ERC1155Supply.sol\":1513:1514  i */\n      dup2\n        /* \"@openzeppelin/contracts/token/ERC1155/extensions/ERC1155Supply.sol\":1505:1515  amounts[i] */\n      dup2\n      mload\n      dup2\n      lt\n      tag_235\n      jumpi\n      tag_235\n      tag_129\n      jump\t// in\n    tag_235:\n      0x20\n      mul\n      0x20\n      add\n      add\n      mload\n        /* \"@openzeppelin/contracts/token/ERC1155/extensions/ERC1155Supply.sol\":1481:1493  _totalSupply */\n      0x03\n        /* \"@openzeppelin/contracts/token/ERC1155/extensions/ERC1155Supply.sol\":1481:1501  _totalSupply[ids[i]] */\n      0x00\n        /* \"@openzeppelin/contracts/token/ERC1155/extensions/ERC1155Supply.sol\":1494:1497  ids */\n      dup7\n        /* \"@openzeppelin/contracts/token/ERC1155/extensions/ERC1155Supply.sol\":1498:1499  i */\n      dup5\n        /* \"@openzeppelin/contracts/token/ERC1155/extensions/ERC1155Supply.sol\":1494:1500  ids[i] */\n      dup2\n      mload\n      dup2\n      lt\n      tag_237\n      jumpi\n      tag_237\n      tag_129\n      jump\t// in\n    tag_237:\n      0x20\n      mul\n      0x20\n      add\n      add\n      mload\n        /* \"@openzeppelin/contracts/token/ERC1155/extensions/ERC1155Supply.sol\":1481:1501  _totalSupply[ids[i]] */\n      dup2\n      mstore\n      0x20\n      add\n      swap1\n      dup2\n      mstore\n      0x20\n      add\n      0x00\n      keccak256\n      0x00\n        /* \"@openzeppelin/contracts/token/ERC1155/extensions/ERC1155Supply.sol\":1481:1515  _totalSupply[ids[i]] += amounts[i] */\n      dup3\n      dup3\n      sload\n      tag_238\n      swap2\n      swap1\n      tag_173\n      jump\t// in\n    tag_238:\n      swap1\n      swap2\n      sstore\n      pop\n        /* \"@openzeppelin/contracts/token/ERC1155/extensions/ERC1155Supply.sol\":1458:1461  ++i */\n      tag_239\n      swap1\n      pop\n      dup2\n      tag_135\n      jump\t// in\n    tag_239:\n      swap1\n      pop\n        /* \"@openzeppelin/contracts/token/ERC1155/extensions/ERC1155Supply.sol\":1422:1530  for (uint256 i = 0; i < ids.length; ++i) {... */\n      jump(tag_231)\n    tag_232:\n      pop\n        /* \"@openzeppelin/contracts/token/ERC1155/extensions/ERC1155Supply.sol\":1384:1540  if (from == address(0)) {... */\n    tag_230:\n      sub(shl(0xa0, 0x01), 0x01)\n        /* \"@openzeppelin/contracts/token/ERC1155/extensions/ERC1155Supply.sol\":1554:1570  to == address(0) */\n      dup5\n      and\n        /* \"@openzeppelin/contracts/token/ERC1155/extensions/ERC1155Supply.sol\":1550:1704  if (to == address(0)) {... */\n      tag_202\n      jumpi\n        /* \"@openzeppelin/contracts/token/ERC1155/extensions/ERC1155Supply.sol\":1591:1600  uint256 i */\n      0x00\n        /* \"@openzeppelin/contracts/token/ERC1155/extensions/ERC1155Supply.sol\":1586:1694  for (uint256 i = 0; i < ids.length; ++i) {... */\n    tag_241:\n        /* \"@openzeppelin/contracts/token/ERC1155/extensions/ERC1155Supply.sol\":1610:1613  ids */\n      dup4\n        /* \"@openzeppelin/contracts/token/ERC1155/extensions/ERC1155Supply.sol\":1610:1620  ids.length */\n      mload\n        /* \"@openzeppelin/contracts/token/ERC1155/extensions/ERC1155Supply.sol\":1606:1607  i */\n      dup2\n        /* \"@openzeppelin/contracts/token/ERC1155/extensions/ERC1155Supply.sol\":1606:1620  i < ids.length */\n      lt\n        /* \"@openzeppelin/contracts/token/ERC1155/extensions/ERC1155Supply.sol\":1586:1694  for (uint256 i = 0; i < ids.length; ++i) {... */\n      iszero\n      tag_220\n      jumpi\n        /* \"@openzeppelin/contracts/token/ERC1155/extensions/ERC1155Supply.sol\":1669:1676  amounts */\n      dup3\n        /* \"@openzeppelin/contracts/token/ERC1155/extensions/ERC1155Supply.sol\":1677:1678  i */\n      dup2\n        /* \"@openzeppelin/contracts/token/ERC1155/extensions/ERC1155Supply.sol\":1669:1679  amounts[i] */\n      dup2\n      mload\n      dup2\n      lt\n      tag_245\n      jumpi\n      tag_245\n      tag_129\n      jump\t// in\n    tag_245:\n      0x20\n      mul\n      0x20\n      add\n      add\n      mload\n        /* \"@openzeppelin/contracts/token/ERC1155/extensions/ERC1155Supply.sol\":1645:1657  _totalSupply */\n      0x03\n        /* \"@openzeppelin/contracts/token/ERC1155/extensions/ERC1155Supply.sol\":1645:1665  _totalSupply[ids[i]] */\n      0x00\n        /* \"@openzeppelin/contracts/token/ERC1155/extensions/ERC1155Supply.sol\":1658:1661  ids */\n      dup7\n        /* \"@openzeppelin/contracts/token/ERC1155/extensions/ERC1155Supply.sol\":1662:1663  i */\n      dup5\n        /* \"@openzeppelin/contracts/token/ERC1155/extensions/ERC1155Supply.sol\":1658:1664  ids[i] */\n      dup2\n      mload\n      dup2\n      lt\n      tag_247\n      jumpi\n      tag_247\n      tag_129\n      jump\t// in\n    tag_247:\n      0x20\n      mul\n      0x20\n      add\n      add\n      mload\n        /* \"@openzeppelin/contracts/token/ERC1155/extensions/ERC1155Supply.sol\":1645:1665  _totalSupply[ids[i]] */\n      dup2\n      mstore\n      0x20\n      add\n      swap1\n      dup2\n      mstore\n      0x20\n      add\n      0x00\n      keccak256\n      0x00\n        /* \"@openzeppelin/contracts/token/ERC1155/extensions/ERC1155Supply.sol\":1645:1679  _totalSupply[ids[i]] -= amounts[i] */\n      dup3\n      dup3\n      sload\n      tag_248\n      swap2\n      swap1\n      tag_249\n      jump\t// in\n    tag_248:\n      swap1\n      swap2\n      sstore\n      pop\n        /* \"@openzeppelin/contracts/token/ERC1155/extensions/ERC1155Supply.sol\":1622:1625  ++i */\n      tag_250\n      swap1\n      pop\n      dup2\n      tag_135\n      jump\t// in\n    tag_250:\n      swap1\n      pop\n        /* \"@openzeppelin/contracts/token/ERC1155/extensions/ERC1155Supply.sol\":1586:1694  for (uint256 i = 0; i < ids.length; ++i) {... */\n      jump(tag_241)\n        /* \"@openzeppelin/contracts/token/ERC1155/ERC1155.sol\":13551:14276  function _doSafeTransferAcceptanceCheck(... */\n    tag_177:\n      sub(shl(0xa0, 0x01), 0x01)\n        /* \"@openzeppelin/contracts/token/ERC1155/ERC1155.sol\":13758:13771  to.isContract */\n      dup5\n      and\n        /* \"@openzeppelin/contracts/utils/Address.sol\":1465:1484  account.code.length */\n      extcodesize\n        /* \"@openzeppelin/contracts/utils/Address.sol\":1465:1488  account.code.length > 0 */\n      iszero\n        /* \"@openzeppelin/contracts/token/ERC1155/ERC1155.sol\":13754:14270  if (to.isContract()) {... */\n      tag_202\n      jumpi\n        /* \"@openzeppelin/contracts/token/ERC1155/ERC1155.sol\":13793:13865  IERC1155Receiver(to).onERC1155Received(operator, from, id, amount, data) */\n      mload(0x40)\n      shl(0xe0, 0xf23a6e61)\n      dup2\n      mstore\n      sub(shl(0xa0, 0x01), 0x01)\n        /* \"@openzeppelin/contracts/token/ERC1155/ERC1155.sol\":13793:13831  IERC1155Receiver(to).onERC1155Received */\n      dup6\n      and\n      swap1\n      0xf23a6e61\n      swap1\n        /* \"@openzeppelin/contracts/token/ERC1155/ERC1155.sol\":13793:13865  IERC1155Receiver(to).onERC1155Received(operator, from, id, amount, data) */\n      tag_255\n      swap1\n        /* \"@openzeppelin/contracts/token/ERC1155/ERC1155.sol\":13832:13840  operator */\n      dup10\n      swap1\n        /* \"@openzeppelin/contracts/token/ERC1155/ERC1155.sol\":13842:13846  from */\n      dup10\n      swap1\n        /* \"@openzeppelin/contracts/token/ERC1155/ERC1155.sol\":13848:13850  id */\n      dup9\n      swap1\n        /* \"@openzeppelin/contracts/token/ERC1155/ERC1155.sol\":13852:13858  amount */\n      dup9\n      swap1\n        /* \"@openzeppelin/contracts/token/ERC1155/ERC1155.sol\":13860:13864  data */\n      dup9\n      swap1\n        /* \"@openzeppelin/contracts/token/ERC1155/ERC1155.sol\":13793:13865  IERC1155Receiver(to).onERC1155Received(operator, from, id, amount, data) */\n      0x04\n      add\n      tag_256\n      jump\t// in\n    tag_255:\n      0x20\n      mload(0x40)\n      dup1\n      dup4\n      sub\n      dup2\n      0x00\n      dup8\n      dup1\n      extcodesize\n      iszero\n      dup1\n      iszero\n      tag_257\n      jumpi\n      0x00\n      dup1\n      revert\n    tag_257:\n      pop\n      gas\n      call\n      swap3\n      pop\n      pop\n      pop\n      dup1\n      iszero\n      tag_258\n      jumpi\n      pop\n      0x40\n      dup1\n      mload\n      0x1f\n      returndatasize\n      swap1\n      dup2\n      add\n      not(0x1f)\n      and\n      dup3\n      add\n      swap1\n      swap3\n      mstore\n      tag_259\n      swap2\n      dup2\n      add\n      swap1\n      tag_260\n      jump\t// in\n    tag_259:\n      0x01\n    tag_258:\n        /* \"@openzeppelin/contracts/token/ERC1155/ERC1155.sol\":13789:14260  try IERC1155Receiver(to).onERC1155Received(operator, from, id, amount, data) returns (bytes4 response) {... */\n      tag_261\n      jumpi\n      tag_265\n      tag_266\n      jump\t// in\n    tag_265:\n      dup1\n      0x08c379a0\n      eq\n      iszero\n      tag_264\n      jumpi\n      pop\n      tag_267\n      tag_268\n      jump\t// in\n    tag_267:\n      dup1\n      tag_269\n      jumpi\n      pop\n      jump(tag_263)\n    tag_269:\n        /* \"@openzeppelin/contracts/token/ERC1155/ERC1155.sol\":14136:14142  reason */\n      dup1\n        /* \"@openzeppelin/contracts/token/ERC1155/ERC1155.sol\":14129:14143  revert(reason) */\n      mload(0x40)\n      shl(0xe5, 0x461bcd)\n      dup2\n      mstore\n      0x04\n      add\n      tag_83\n      swap2\n      swap1\n      tag_35\n      jump\t// in\n        /* \"@openzeppelin/contracts/token/ERC1155/ERC1155.sol\":13789:14260  try IERC1155Receiver(to).onERC1155Received(operator, from, id, amount, data) returns (bytes4 response) {... */\n    tag_264:\n      pop\n    tag_263:\n        /* \"@openzeppelin/contracts/token/ERC1155/ERC1155.sol\":14183:14245  revert(\"ERC1155: transfer to non ERC1155Receiver implementer\") */\n      mload(0x40)\n      shl(0xe5, 0x461bcd)\n      dup2\n      mstore\n        /* \"#utility.yul\":10232:10234   */\n      0x20\n        /* \"@openzeppelin/contracts/token/ERC1155/ERC1155.sol\":14183:14245  revert(\"ERC1155: transfer to non ERC1155Receiver implementer\") */\n      0x04\n      dup3\n      add\n        /* \"#utility.yul\":10214:10235   */\n      mstore\n        /* \"#utility.yul\":10271:10273   */\n      0x34\n        /* \"#utility.yul\":10251:10269   */\n      0x24\n      dup3\n      add\n        /* \"#utility.yul\":10244:10274   */\n      mstore\n        /* \"#utility.yul\":10310:10344   */\n      0x455243313135353a207472616e7366657220746f206e6f6e2045524331313535\n        /* \"#utility.yul\":10290:10308   */\n      0x44\n      dup3\n      add\n        /* \"#utility.yul\":10283:10345   */\n      mstore\n      shl(0x61, 0x2932b1b2b4bb32b91034b6b83632b6b2b73a32b9)\n        /* \"#utility.yul\":10361:10379   */\n      0x64\n      dup3\n      add\n        /* \"#utility.yul\":10354:10404   */\n      mstore\n        /* \"#utility.yul\":10421:10440   */\n      0x84\n      add\n        /* \"@openzeppelin/contracts/token/ERC1155/ERC1155.sol\":14183:14245  revert(\"ERC1155: transfer to non ERC1155Receiver implementer\") */\n      tag_83\n        /* \"#utility.yul\":10030:10446   */\n      jump\n        /* \"@openzeppelin/contracts/token/ERC1155/ERC1155.sol\":13789:14260  try IERC1155Receiver(to).onERC1155Received(operator, from, id, amount, data) returns (bytes4 response) {... */\n    tag_261:\n      not(sub(shl(0xe0, 0x01), 0x01))\n        /* \"@openzeppelin/contracts/token/ERC1155/ERC1155.sol\":13914:13969  response != IERC1155Receiver.onERC1155Received.selector */\n      dup2\n      and\n      shl(0xe0, 0xf23a6e61)\n      eq\n        /* \"@openzeppelin/contracts/token/ERC1155/ERC1155.sol\":13910:14062  if (response != IERC1155Receiver.onERC1155Received.selector) {... */\n      tag_220\n      jumpi\n        /* \"@openzeppelin/contracts/token/ERC1155/ERC1155.sol\":13993:14043  revert(\"ERC1155: ERC1155Receiver rejected tokens\") */\n      mload(0x40)\n      shl(0xe5, 0x461bcd)\n      dup2\n      mstore\n      0x04\n      add\n      tag_83\n      swap1\n      tag_276\n      jump\t// in\n        /* \"@openzeppelin/contracts/token/ERC1155/ERC1155.sol\":14282:15074  function _doSafeBatchTransferAcceptanceCheck(... */\n    tag_203:\n      sub(shl(0xa0, 0x01), 0x01)\n        /* \"@openzeppelin/contracts/token/ERC1155/ERC1155.sol\":14514:14527  to.isContract */\n      dup5\n      and\n        /* \"@openzeppelin/contracts/utils/Address.sol\":1465:1484  account.code.length */\n      extcodesize\n        /* \"@openzeppelin/contracts/utils/Address.sol\":1465:1488  account.code.length > 0 */\n      iszero\n        /* \"@openzeppelin/contracts/token/ERC1155/ERC1155.sol\":14510:15068  if (to.isContract()) {... */\n      tag_202\n      jumpi\n        /* \"@openzeppelin/contracts/token/ERC1155/ERC1155.sol\":14549:14628  IERC1155Receiver(to).onERC1155BatchReceived(operator, from, ids, amounts, data) */\n      mload(0x40)\n      shl(0xe0, 0xbc197c81)\n      dup2\n      mstore\n      sub(shl(0xa0, 0x01), 0x01)\n        /* \"@openzeppelin/contracts/token/ERC1155/ERC1155.sol\":14549:14592  IERC1155Receiver(to).onERC1155BatchReceived */\n      dup6\n      and\n      swap1\n      0xbc197c81\n      swap1\n        /* \"@openzeppelin/contracts/token/ERC1155/ERC1155.sol\":14549:14628  IERC1155Receiver(to).onERC1155BatchReceived(operator, from, ids, amounts, data) */\n      tag_280\n      swap1\n        /* \"@openzeppelin/contracts/token/ERC1155/ERC1155.sol\":14593:14601  operator */\n      dup10\n      swap1\n        /* \"@openzeppelin/contracts/token/ERC1155/ERC1155.sol\":14603:14607  from */\n      dup10\n      swap1\n        /* \"@openzeppelin/contracts/token/ERC1155/ERC1155.sol\":14609:14612  ids */\n      dup9\n      swap1\n        /* \"@openzeppelin/contracts/token/ERC1155/ERC1155.sol\":14614:14621  amounts */\n      dup9\n      swap1\n        /* \"@openzeppelin/contracts/token/ERC1155/ERC1155.sol\":14623:14627  data */\n      dup9\n      swap1\n        /* \"@openzeppelin/contracts/token/ERC1155/ERC1155.sol\":14549:14628  IERC1155Receiver(to).onERC1155BatchReceived(operator, from, ids, amounts, data) */\n      0x04\n      add\n      tag_281\n      jump\t// in\n    tag_280:\n      0x20\n      mload(0x40)\n      dup1\n      dup4\n      sub\n      dup2\n      0x00\n      dup8\n      dup1\n      extcodesize\n      iszero\n      dup1\n      iszero\n      tag_282\n      jumpi\n      0x00\n      dup1\n      revert\n    tag_282:\n      pop\n      gas\n      call\n      swap3\n      pop\n      pop\n      pop\n      dup1\n      iszero\n      tag_283\n      jumpi\n      pop\n      0x40\n      dup1\n      mload\n      0x1f\n      returndatasize\n      swap1\n      dup2\n      add\n      not(0x1f)\n      and\n      dup3\n      add\n      swap1\n      swap3\n      mstore\n      tag_284\n      swap2\n      dup2\n      add\n      swap1\n      tag_260\n      jump\t// in\n    tag_284:\n      0x01\n    tag_283:\n        /* \"@openzeppelin/contracts/token/ERC1155/ERC1155.sol\":14545:15058  try IERC1155Receiver(to).onERC1155BatchReceived(operator, from, ids, amounts, data) returns (... */\n      tag_285\n      jumpi\n      tag_265\n      tag_266\n      jump\t// in\n    tag_285:\n      not(sub(shl(0xe0, 0x01), 0x01))\n        /* \"@openzeppelin/contracts/token/ERC1155/ERC1155.sol\":14707:14767  response != IERC1155Receiver.onERC1155BatchReceived.selector */\n      dup2\n      and\n      shl(0xe0, 0xbc197c81)\n      eq\n        /* \"@openzeppelin/contracts/token/ERC1155/ERC1155.sol\":14703:14860  if (response != IERC1155Receiver.onERC1155BatchReceived.selector) {... */\n      tag_220\n      jumpi\n        /* \"@openzeppelin/contracts/token/ERC1155/ERC1155.sol\":14791:14841  revert(\"ERC1155: ERC1155Receiver rejected tokens\") */\n      mload(0x40)\n      shl(0xe5, 0x461bcd)\n      dup2\n      mstore\n      0x04\n      add\n      tag_83\n      swap1\n      tag_276\n      jump\t// in\n        /* \"#utility.yul\":14:187   */\n    tag_300:\n        /* \"#utility.yul\":82:102   */\n      dup1\n      calldataload\n      sub(shl(0xa0, 0x01), 0x01)\n        /* \"#utility.yul\":131:162   */\n      dup2\n      and\n        /* \"#utility.yul\":121:163   */\n      dup2\n      eq\n        /* \"#utility.yul\":111:181   */\n      tag_146\n      jumpi\n        /* \"#utility.yul\":177:178   */\n      0x00\n        /* \"#utility.yul\":174:175   */\n      dup1\n        /* \"#utility.yul\":167:179   */\n      revert\n        /* \"#utility.yul\":192:927   */\n    tag_303:\n        /* \"#utility.yul\":246:251   */\n      0x00\n        /* \"#utility.yul\":299:302   */\n      dup3\n        /* \"#utility.yul\":292:296   */\n      0x1f\n        /* \"#utility.yul\":284:290   */\n      dup4\n        /* \"#utility.yul\":280:297   */\n      add\n        /* \"#utility.yul\":276:303   */\n      slt\n        /* \"#utility.yul\":266:321   */\n      tag_305\n      jumpi\n        /* \"#utility.yul\":317:318   */\n      0x00\n        /* \"#utility.yul\":314:315   */\n      dup1\n        /* \"#utility.yul\":307:319   */\n      revert\n        /* \"#utility.yul\":266:321   */\n    tag_305:\n        /* \"#utility.yul\":353:359   */\n      dup2\n        /* \"#utility.yul\":340:360   */\n      calldataload\n        /* \"#utility.yul\":379:383   */\n      0x20\n        /* \"#utility.yul\":402:445   */\n      tag_306\n        /* \"#utility.yul\":442:444   */\n      dup3\n        /* \"#utility.yul\":402:445   */\n      tag_307\n      jump\t// in\n    tag_306:\n        /* \"#utility.yul\":474:476   */\n      0x40\n        /* \"#utility.yul\":468:477   */\n      mload\n        /* \"#utility.yul\":486:517   */\n      tag_308\n        /* \"#utility.yul\":514:516   */\n      dup3\n        /* \"#utility.yul\":506:512   */\n      dup3\n        /* \"#utility.yul\":486:517   */\n      tag_309\n      jump\t// in\n    tag_308:\n        /* \"#utility.yul\":552:570   */\n      dup4\n      dup2\n      mstore\n        /* \"#utility.yul\":586:601   */\n      dup3\n      dup2\n      add\n      swap2\n      pop\n        /* \"#utility.yul\":621:636   */\n      dup6\n      dup4\n      add\n        /* \"#utility.yul\":671:672   */\n      0x05\n        /* \"#utility.yul\":667:677   */\n      dup6\n      swap1\n      shl\n        /* \"#utility.yul\":655:678   */\n      dup8\n      add\n        /* \"#utility.yul\":651:683   */\n      dup5\n      add\n        /* \"#utility.yul\":648:689   */\n      dup9\n      lt\n        /* \"#utility.yul\":645:706   */\n      iszero\n      tag_310\n      jumpi\n        /* \"#utility.yul\":702:703   */\n      0x00\n        /* \"#utility.yul\":699:700   */\n      dup1\n        /* \"#utility.yul\":692:704   */\n      revert\n        /* \"#utility.yul\":645:706   */\n    tag_310:\n        /* \"#utility.yul\":724:725   */\n      0x00\n        /* \"#utility.yul\":734:897   */\n    tag_311:\n        /* \"#utility.yul\":748:750   */\n      dup6\n        /* \"#utility.yul\":745:746   */\n      dup2\n        /* \"#utility.yul\":742:751   */\n      lt\n        /* \"#utility.yul\":734:897   */\n      iszero\n      tag_313\n      jumpi\n        /* \"#utility.yul\":805:822   */\n      dup2\n      calldataload\n        /* \"#utility.yul\":793:823   */\n      dup5\n      mstore\n        /* \"#utility.yul\":843:855   */\n      swap3\n      dup5\n      add\n      swap3\n        /* \"#utility.yul\":875:887   */\n      swap1\n      dup5\n      add\n      swap1\n        /* \"#utility.yul\":766:767   */\n      0x01\n        /* \"#utility.yul\":759:768   */\n      add\n        /* \"#utility.yul\":734:897   */\n      jump(tag_311)\n    tag_313:\n      pop\n        /* \"#utility.yul\":915:921   */\n      swap1\n      swap8\n        /* \"#utility.yul\":192:927   */\n      swap7\n      pop\n      pop\n      pop\n      pop\n      pop\n      pop\n      pop\n      jump\t// out\n        /* \"#utility.yul\":932:1487   */\n    tag_314:\n        /* \"#utility.yul\":974:979   */\n      0x00\n        /* \"#utility.yul\":1027:1030   */\n      dup3\n        /* \"#utility.yul\":1020:1024   */\n      0x1f\n        /* \"#utility.yul\":1012:1018   */\n      dup4\n        /* \"#utility.yul\":1008:1025   */\n      add\n        /* \"#utility.yul\":1004:1031   */\n      slt\n        /* \"#utility.yul\":994:1049   */\n      tag_316\n      jumpi\n        /* \"#utility.yul\":1045:1046   */\n      0x00\n        /* \"#utility.yul\":1042:1043   */\n      dup1\n        /* \"#utility.yul\":1035:1047   */\n      revert\n        /* \"#utility.yul\":994:1049   */\n    tag_316:\n        /* \"#utility.yul\":1081:1087   */\n      dup2\n        /* \"#utility.yul\":1068:1088   */\n      calldataload\n        /* \"#utility.yul\":1107:1125   */\n      0xffffffffffffffff\n        /* \"#utility.yul\":1103:1105   */\n      dup2\n        /* \"#utility.yul\":1100:1126   */\n      gt\n        /* \"#utility.yul\":1097:1149   */\n      iszero\n      tag_318\n      jumpi\n        /* \"#utility.yul\":1129:1147   */\n      tag_318\n      tag_121\n      jump\t// in\n    tag_318:\n        /* \"#utility.yul\":1178:1180   */\n      0x40\n        /* \"#utility.yul\":1172:1181   */\n      mload\n        /* \"#utility.yul\":1190:1257   */\n      tag_319\n        /* \"#utility.yul\":1245:1247   */\n      0x1f\n        /* \"#utility.yul\":1226:1239   */\n      dup4\n      add\n      not(0x1f)\n        /* \"#utility.yul\":1222:1249   */\n      and\n        /* \"#utility.yul\":1251:1255   */\n      0x20\n        /* \"#utility.yul\":1218:1256   */\n      add\n        /* \"#utility.yul\":1172:1181   */\n      dup3\n        /* \"#utility.yul\":1190:1257   */\n      tag_309\n      jump\t// in\n    tag_319:\n        /* \"#utility.yul\":1281:1283   */\n      dup2\n        /* \"#utility.yul\":1273:1279   */\n      dup2\n        /* \"#utility.yul\":1266:1284   */\n      mstore\n        /* \"#utility.yul\":1327:1330   */\n      dup5\n        /* \"#utility.yul\":1320:1324   */\n      0x20\n        /* \"#utility.yul\":1315:1317   */\n      dup4\n        /* \"#utility.yul\":1307:1313   */\n      dup7\n        /* \"#utility.yul\":1303:1318   */\n      add\n        /* \"#utility.yul\":1299:1325   */\n      add\n        /* \"#utility.yul\":1296:1331   */\n      gt\n        /* \"#utility.yul\":1293:1348   */\n      iszero\n      tag_320\n      jumpi\n        /* \"#utility.yul\":1344:1345   */\n      0x00\n        /* \"#utility.yul\":1341:1342   */\n      dup1\n        /* \"#utility.yul\":1334:1346   */\n      revert\n        /* \"#utility.yul\":1293:1348   */\n    tag_320:\n        /* \"#utility.yul\":1408:1410   */\n      dup2\n        /* \"#utility.yul\":1401:1405   */\n      0x20\n        /* \"#utility.yul\":1393:1399   */\n      dup6\n        /* \"#utility.yul\":1389:1406   */\n      add\n        /* \"#utility.yul\":1382:1386   */\n      0x20\n        /* \"#utility.yul\":1374:1380   */\n      dup4\n        /* \"#utility.yul\":1370:1387   */\n      add\n        /* \"#utility.yul\":1357:1411   */\n      calldatacopy\n        /* \"#utility.yul\":1455:1456   */\n      0x00\n        /* \"#utility.yul\":1431:1446   */\n      swap2\n      dup2\n      add\n        /* \"#utility.yul\":1448:1452   */\n      0x20\n        /* \"#utility.yul\":1427:1453   */\n      add\n        /* \"#utility.yul\":1420:1457   */\n      swap2\n      swap1\n      swap2\n      mstore\n        /* \"#utility.yul\":1435:1441   */\n      swap4\n        /* \"#utility.yul\":932:1487   */\n      swap3\n      pop\n      pop\n      pop\n      jump\t// out\n        /* \"#utility.yul\":1492:1678   */\n    tag_69:\n        /* \"#utility.yul\":1551:1557   */\n      0x00\n        /* \"#utility.yul\":1604:1606   */\n      0x20\n        /* \"#utility.yul\":1592:1601   */\n      dup3\n        /* \"#utility.yul\":1583:1590   */\n      dup5\n        /* \"#utility.yul\":1579:1602   */\n      sub\n        /* \"#utility.yul\":1575:1607   */\n      slt\n        /* \"#utility.yul\":1572:1624   */\n      iszero\n      tag_322\n      jumpi\n        /* \"#utility.yul\":1620:1621   */\n      0x00\n        /* \"#utility.yul\":1617:1618   */\n      dup1\n        /* \"#utility.yul\":1610:1622   */\n      revert\n        /* \"#utility.yul\":1572:1624   */\n    tag_322:\n        /* \"#utility.yul\":1643:1672   */\n      tag_323\n        /* \"#utility.yul\":1662:1671   */\n      dup3\n        /* \"#utility.yul\":1643:1672   */\n      tag_300\n      jump\t// in\n    tag_323:\n        /* \"#utility.yul\":1633:1672   */\n      swap4\n        /* \"#utility.yul\":1492:1678   */\n      swap3\n      pop\n      pop\n      pop\n      jump\t// out\n        /* \"#utility.yul\":1683:1943   */\n    tag_74:\n        /* \"#utility.yul\":1751:1757   */\n      0x00\n        /* \"#utility.yul\":1759:1765   */\n      dup1\n        /* \"#utility.yul\":1812:1814   */\n      0x40\n        /* \"#utility.yul\":1800:1809   */\n      dup4\n        /* \"#utility.yul\":1791:1798   */\n      dup6\n        /* \"#utility.yul\":1787:1810   */\n      sub\n        /* \"#utility.yul\":1783:1815   */\n      slt\n        /* \"#utility.yul\":1780:1832   */\n      iszero\n      tag_325\n      jumpi\n        /* \"#utility.yul\":1828:1829   */\n      0x00\n        /* \"#utility.yul\":1825:1826   */\n      dup1\n        /* \"#utility.yul\":1818:1830   */\n      revert\n        /* \"#utility.yul\":1780:1832   */\n    tag_325:\n        /* \"#utility.yul\":1851:1880   */\n      tag_326\n        /* \"#utility.yul\":1870:1879   */\n      dup4\n        /* \"#utility.yul\":1851:1880   */\n      tag_300\n      jump\t// in\n    tag_326:\n        /* \"#utility.yul\":1841:1880   */\n      swap2\n      pop\n        /* \"#utility.yul\":1899:1937   */\n      tag_327\n        /* \"#utility.yul\":1933:1935   */\n      0x20\n        /* \"#utility.yul\":1922:1931   */\n      dup5\n        /* \"#utility.yul\":1918:1936   */\n      add\n        /* \"#utility.yul\":1899:1937   */\n      tag_300\n      jump\t// in\n    tag_327:\n        /* \"#utility.yul\":1889:1937   */\n      swap1\n      pop\n        /* \"#utility.yul\":1683:1943   */\n      swap3\n      pop\n      swap3\n      swap1\n      pop\n      jump\t// out\n        /* \"#utility.yul\":1948:2891   */\n    tag_43:\n        /* \"#utility.yul\":2102:2108   */\n      0x00\n        /* \"#utility.yul\":2110:2116   */\n      dup1\n        /* \"#utility.yul\":2118:2124   */\n      0x00\n        /* \"#utility.yul\":2126:2132   */\n      dup1\n        /* \"#utility.yul\":2134:2140   */\n      0x00\n        /* \"#utility.yul\":2187:2190   */\n      0xa0\n        /* \"#utility.yul\":2175:2184   */\n      dup7\n        /* \"#utility.yul\":2166:2173   */\n      dup9\n        /* \"#utility.yul\":2162:2185   */\n      sub\n        /* \"#utility.yul\":2158:2191   */\n      slt\n        /* \"#utility.yul\":2155:2208   */\n      iszero\n      tag_329\n      jumpi\n        /* \"#utility.yul\":2204:2205   */\n      0x00\n        /* \"#utility.yul\":2201:2202   */\n      dup1\n        /* \"#utility.yul\":2194:2206   */\n      revert\n        /* \"#utility.yul\":2155:2208   */\n    tag_329:\n        /* \"#utility.yul\":2227:2256   */\n      tag_330\n        /* \"#utility.yul\":2246:2255   */\n      dup7\n        /* \"#utility.yul\":2227:2256   */\n      tag_300\n      jump\t// in\n    tag_330:\n        /* \"#utility.yul\":2217:2256   */\n      swap5\n      pop\n        /* \"#utility.yul\":2275:2313   */\n      tag_331\n        /* \"#utility.yul\":2309:2311   */\n      0x20\n        /* \"#utility.yul\":2298:2307   */\n      dup8\n        /* \"#utility.yul\":2294:2312   */\n      add\n        /* \"#utility.yul\":2275:2313   */\n      tag_300\n      jump\t// in\n    tag_331:\n        /* \"#utility.yul\":2265:2313   */\n      swap4\n      pop\n        /* \"#utility.yul\":2364:2366   */\n      0x40\n        /* \"#utility.yul\":2353:2362   */\n      dup7\n        /* \"#utility.yul\":2349:2367   */\n      add\n        /* \"#utility.yul\":2336:2368   */\n      calldataload\n        /* \"#utility.yul\":2387:2405   */\n      0xffffffffffffffff\n        /* \"#utility.yul\":2428:2430   */\n      dup1\n        /* \"#utility.yul\":2420:2426   */\n      dup3\n        /* \"#utility.yul\":2417:2431   */\n      gt\n        /* \"#utility.yul\":2414:2448   */\n      iszero\n      tag_332\n      jumpi\n        /* \"#utility.yul\":2444:2445   */\n      0x00\n        /* \"#utility.yul\":2441:2442   */\n      dup1\n        /* \"#utility.yul\":2434:2446   */\n      revert\n        /* \"#utility.yul\":2414:2448   */\n    tag_332:\n        /* \"#utility.yul\":2467:2528   */\n      tag_333\n        /* \"#utility.yul\":2520:2527   */\n      dup10\n        /* \"#utility.yul\":2511:2517   */\n      dup4\n        /* \"#utility.yul\":2500:2509   */\n      dup11\n        /* \"#utility.yul\":2496:2518   */\n      add\n        /* \"#utility.yul\":2467:2528   */\n      tag_303\n      jump\t// in\n    tag_333:\n        /* \"#utility.yul\":2457:2528   */\n      swap5\n      pop\n        /* \"#utility.yul\":2581:2583   */\n      0x60\n        /* \"#utility.yul\":2570:2579   */\n      dup9\n        /* \"#utility.yul\":2566:2584   */\n      add\n        /* \"#utility.yul\":2553:2585   */\n      calldataload\n        /* \"#utility.yul\":2537:2585   */\n      swap2\n      pop\n        /* \"#utility.yul\":2610:2612   */\n      dup1\n        /* \"#utility.yul\":2600:2608   */\n      dup3\n        /* \"#utility.yul\":2597:2613   */\n      gt\n        /* \"#utility.yul\":2594:2630   */\n      iszero\n      tag_334\n      jumpi\n        /* \"#utility.yul\":2626:2627   */\n      0x00\n        /* \"#utility.yul\":2623:2624   */\n      dup1\n        /* \"#utility.yul\":2616:2628   */\n      revert\n        /* \"#utility.yul\":2594:2630   */\n    tag_334:\n        /* \"#utility.yul\":2649:2712   */\n      tag_335\n        /* \"#utility.yul\":2704:2711   */\n      dup10\n        /* \"#utility.yul\":2693:2701   */\n      dup4\n        /* \"#utility.yul\":2682:2691   */\n      dup11\n        /* \"#utility.yul\":2678:2702   */\n      add\n        /* \"#utility.yul\":2649:2712   */\n      tag_303\n      jump\t// in\n    tag_335:\n        /* \"#utility.yul\":2639:2712   */\n      swap4\n      pop\n        /* \"#utility.yul\":2765:2768   */\n      0x80\n        /* \"#utility.yul\":2754:2763   */\n      dup9\n        /* \"#utility.yul\":2750:2769   */\n      add\n        /* \"#utility.yul\":2737:2770   */\n      calldataload\n        /* \"#utility.yul\":2721:2770   */\n      swap2\n      pop\n        /* \"#utility.yul\":2795:2797   */\n      dup1\n        /* \"#utility.yul\":2785:2793   */\n      dup3\n        /* \"#utility.yul\":2782:2798   */\n      gt\n        /* \"#utility.yul\":2779:2815   */\n      iszero\n      tag_336\n      jumpi\n        /* \"#utility.yul\":2811:2812   */\n      0x00\n        /* \"#utility.yul\":2808:2809   */\n      dup1\n        /* \"#utility.yul\":2801:2813   */\n      revert\n        /* \"#utility.yul\":2779:2815   */\n    tag_336:\n      pop\n        /* \"#utility.yul\":2834:2885   */\n      tag_337\n        /* \"#utility.yul\":2877:2884   */\n      dup9\n        /* \"#utility.yul\":2866:2874   */\n      dup3\n        /* \"#utility.yul\":2855:2864   */\n      dup10\n        /* \"#utility.yul\":2851:2875   */\n      add\n        /* \"#utility.yul\":2834:2885   */\n      tag_314\n      jump\t// in\n    tag_337:\n        /* \"#utility.yul\":2824:2885   */\n      swap2\n      pop\n      pop\n        /* \"#utility.yul\":1948:2891   */\n      swap3\n      swap6\n      pop\n      swap3\n      swap6\n      swap1\n      swap4\n      pop\n      jump\t// out\n        /* \"#utility.yul\":2896:3502   */\n    tag_79:\n        /* \"#utility.yul\":3000:3006   */\n      0x00\n        /* \"#utility.yul\":3008:3014   */\n      dup1\n        /* \"#utility.yul\":3016:3022   */\n      0x00\n        /* \"#utility.yul\":3024:3030   */\n      dup1\n        /* \"#utility.yul\":3032:3038   */\n      0x00\n        /* \"#utility.yul\":3085:3088   */\n      0xa0\n        /* \"#utility.yul\":3073:3082   */\n      dup7\n        /* \"#utility.yul\":3064:3071   */\n      dup9\n        /* \"#utility.yul\":3060:3083   */\n      sub\n        /* \"#utility.yul\":3056:3089   */\n      slt\n        /* \"#utility.yul\":3053:3106   */\n      iszero\n      tag_339\n      jumpi\n        /* \"#utility.yul\":3102:3103   */\n      0x00\n        /* \"#utility.yul\":3099:3100   */\n      dup1\n        /* \"#utility.yul\":3092:3104   */\n      revert\n        /* \"#utility.yul\":3053:3106   */\n    tag_339:\n        /* \"#utility.yul\":3125:3154   */\n      tag_340\n        /* \"#utility.yul\":3144:3153   */\n      dup7\n        /* \"#utility.yul\":3125:3154   */\n      tag_300\n      jump\t// in\n    tag_340:\n        /* \"#utility.yul\":3115:3154   */\n      swap5\n      pop\n        /* \"#utility.yul\":3173:3211   */\n      tag_341\n        /* \"#utility.yul\":3207:3209   */\n      0x20\n        /* \"#utility.yul\":3196:3205   */\n      dup8\n        /* \"#utility.yul\":3192:3210   */\n      add\n        /* \"#utility.yul\":3173:3211   */\n      tag_300\n      jump\t// in\n    tag_341:\n        /* \"#utility.yul\":3163:3211   */\n      swap4\n      pop\n        /* \"#utility.yul\":3258:3260   */\n      0x40\n        /* \"#utility.yul\":3247:3256   */\n      dup7\n        /* \"#utility.yul\":3243:3261   */\n      add\n        /* \"#utility.yul\":3230:3262   */\n      calldataload\n        /* \"#utility.yul\":3220:3262   */\n      swap3\n      pop\n        /* \"#utility.yul\":3309:3311   */\n      0x60\n        /* \"#utility.yul\":3298:3307   */\n      dup7\n        /* \"#utility.yul\":3294:3312   */\n      add\n        /* \"#utility.yul\":3281:3313   */\n      calldataload\n        /* \"#utility.yul\":3271:3313   */\n      swap2\n      pop\n        /* \"#utility.yul\":3364:3367   */\n      0x80\n        /* \"#utility.yul\":3353:3362   */\n      dup7\n        /* \"#utility.yul\":3349:3368   */\n      add\n        /* \"#utility.yul\":3336:3369   */\n      calldataload\n        /* \"#utility.yul\":3392:3410   */\n      0xffffffffffffffff\n        /* \"#utility.yul\":3384:3390   */\n      dup2\n        /* \"#utility.yul\":3381:3411   */\n      gt\n        /* \"#utility.yul\":3378:3428   */\n      iszero\n      tag_342\n      jumpi\n        /* \"#utility.yul\":3424:3425   */\n      0x00\n        /* \"#utility.yul\":3421:3422   */\n      dup1\n        /* \"#utility.yul\":3414:3426   */\n      revert\n        /* \"#utility.yul\":3378:3428   */\n    tag_342:\n        /* \"#utility.yul\":3447:3496   */\n      tag_337\n        /* \"#utility.yul\":3488:3495   */\n      dup9\n        /* \"#utility.yul\":3479:3485   */\n      dup3\n        /* \"#utility.yul\":3468:3477   */\n      dup10\n        /* \"#utility.yul\":3464:3486   */\n      add\n        /* \"#utility.yul\":3447:3496   */\n      tag_314\n      jump\t// in\n        /* \"#utility.yul\":3507:3854   */\n    tag_61:\n        /* \"#utility.yul\":3572:3578   */\n      0x00\n        /* \"#utility.yul\":3580:3586   */\n      dup1\n        /* \"#utility.yul\":3633:3635   */\n      0x40\n        /* \"#utility.yul\":3621:3630   */\n      dup4\n        /* \"#utility.yul\":3612:3619   */\n      dup6\n        /* \"#utility.yul\":3608:3631   */\n      sub\n        /* \"#utility.yul\":3604:3636   */\n      slt\n        /* \"#utility.yul\":3601:3653   */\n      iszero\n      tag_345\n      jumpi\n        /* \"#utility.yul\":3649:3650   */\n      0x00\n        /* \"#utility.yul\":3646:3647   */\n      dup1\n        /* \"#utility.yul\":3639:3651   */\n      revert\n        /* \"#utility.yul\":3601:3653   */\n    tag_345:\n        /* \"#utility.yul\":3672:3701   */\n      tag_346\n        /* \"#utility.yul\":3691:3700   */\n      dup4\n        /* \"#utility.yul\":3672:3701   */\n      tag_300\n      jump\t// in\n    tag_346:\n        /* \"#utility.yul\":3662:3701   */\n      swap2\n      pop\n        /* \"#utility.yul\":3751:3753   */\n      0x20\n        /* \"#utility.yul\":3740:3749   */\n      dup4\n        /* \"#utility.yul\":3736:3754   */\n      add\n        /* \"#utility.yul\":3723:3755   */\n      calldataload\n        /* \"#utility.yul\":3798:3803   */\n      dup1\n        /* \"#utility.yul\":3791:3804   */\n      iszero\n        /* \"#utility.yul\":3784:3805   */\n      iszero\n        /* \"#utility.yul\":3777:3782   */\n      dup2\n        /* \"#utility.yul\":3774:3806   */\n      eq\n        /* \"#utility.yul\":3764:3824   */\n      tag_347\n      jumpi\n        /* \"#utility.yul\":3820:3821   */\n      0x00\n        /* \"#utility.yul\":3817:3818   */\n      dup1\n        /* \"#utility.yul\":3810:3822   */\n      revert\n        /* \"#utility.yul\":3764:3824   */\n    tag_347:\n        /* \"#utility.yul\":3843:3848   */\n      dup1\n        /* \"#utility.yul\":3833:3848   */\n      swap2\n      pop\n      pop\n        /* \"#utility.yul\":3507:3854   */\n      swap3\n      pop\n      swap3\n      swap1\n      pop\n      jump\t// out\n        /* \"#utility.yul\":3859:4113   */\n    tag_20:\n        /* \"#utility.yul\":3927:3933   */\n      0x00\n        /* \"#utility.yul\":3935:3941   */\n      dup1\n        /* \"#utility.yul\":3988:3990   */\n      0x40\n        /* \"#utility.yul\":3976:3985   */\n      dup4\n        /* \"#utility.yul\":3967:3974   */\n      dup6\n        /* \"#utility.yul\":3963:3986   */\n      sub\n        /* \"#utility.yul\":3959:3991   */\n      slt\n        /* \"#utility.yul\":3956:4008   */\n      iszero\n      tag_349\n      jumpi\n        /* \"#utility.yul\":4004:4005   */\n      0x00\n        /* \"#utility.yul\":4001:4002   */\n      dup1\n        /* \"#utility.yul\":3994:4006   */\n      revert\n        /* \"#utility.yul\":3956:4008   */\n    tag_349:\n        /* \"#utility.yul\":4027:4056   */\n      tag_350\n        /* \"#utility.yul\":4046:4055   */\n      dup4\n        /* \"#utility.yul\":4027:4056   */\n      tag_300\n      jump\t// in\n    tag_350:\n        /* \"#utility.yul\":4017:4056   */\n      swap5\n        /* \"#utility.yul\":4103:4105   */\n      0x20\n        /* \"#utility.yul\":4088:4106   */\n      swap4\n      swap1\n      swap4\n      add\n        /* \"#utility.yul\":4075:4107   */\n      calldataload\n      swap4\n      pop\n      pop\n      pop\n        /* \"#utility.yul\":3859:4113   */\n      jump\t// out\n        /* \"#utility.yul\":4118:4440   */\n    tag_38:\n        /* \"#utility.yul\":4195:4201   */\n      0x00\n        /* \"#utility.yul\":4203:4209   */\n      dup1\n        /* \"#utility.yul\":4211:4217   */\n      0x00\n        /* \"#utility.yul\":4264:4266   */\n      0x60\n        /* \"#utility.yul\":4252:4261   */\n      dup5\n        /* \"#utility.yul\":4243:4250   */\n      dup7\n        /* \"#utility.yul\":4239:4262   */\n      sub\n        /* \"#utility.yul\":4235:4267   */\n      slt\n        /* \"#utility.yul\":4232:4284   */\n      iszero\n      tag_352\n      jumpi\n        /* \"#utility.yul\":4280:4281   */\n      0x00\n        /* \"#utility.yul\":4277:4278   */\n      dup1\n        /* \"#utility.yul\":4270:4282   */\n      revert\n        /* \"#utility.yul\":4232:4284   */\n    tag_352:\n        /* \"#utility.yul\":4303:4332   */\n      tag_353\n        /* \"#utility.yul\":4322:4331   */\n      dup5\n        /* \"#utility.yul\":4303:4332   */\n      tag_300\n      jump\t// in\n    tag_353:\n        /* \"#utility.yul\":4293:4332   */\n      swap6\n        /* \"#utility.yul\":4379:4381   */\n      0x20\n        /* \"#utility.yul\":4364:4382   */\n      dup6\n      add\n        /* \"#utility.yul\":4351:4383   */\n      calldataload\n      swap6\n      pop\n        /* \"#utility.yul\":4430:4432   */\n      0x40\n        /* \"#utility.yul\":4415:4433   */\n      swap1\n      swap5\n      add\n        /* \"#utility.yul\":4402:4434   */\n      calldataload\n      swap4\n        /* \"#utility.yul\":4118:4440   */\n      swap3\n      pop\n      pop\n      pop\n      jump\t// out\n        /* \"#utility.yul\":4445:5664   */\n    tag_51:\n        /* \"#utility.yul\":4563:4569   */\n      0x00\n        /* \"#utility.yul\":4571:4577   */\n      dup1\n        /* \"#utility.yul\":4624:4626   */\n      0x40\n        /* \"#utility.yul\":4612:4621   */\n      dup4\n        /* \"#utility.yul\":4603:4610   */\n      dup6\n        /* \"#utility.yul\":4599:4622   */\n      sub\n        /* \"#utility.yul\":4595:4627   */\n      slt\n        /* \"#utility.yul\":4592:4644   */\n      iszero\n      tag_355\n      jumpi\n        /* \"#utility.yul\":4640:4641   */\n      0x00\n        /* \"#utility.yul\":4637:4638   */\n      dup1\n        /* \"#utility.yul\":4630:4642   */\n      revert\n        /* \"#utility.yul\":4592:4644   */\n    tag_355:\n        /* \"#utility.yul\":4680:4689   */\n      dup3\n        /* \"#utility.yul\":4667:4690   */\n      calldataload\n        /* \"#utility.yul\":4709:4727   */\n      0xffffffffffffffff\n        /* \"#utility.yul\":4750:4752   */\n      dup1\n        /* \"#utility.yul\":4742:4748   */\n      dup3\n        /* \"#utility.yul\":4739:4753   */\n      gt\n        /* \"#utility.yul\":4736:4770   */\n      iszero\n      tag_356\n      jumpi\n        /* \"#utility.yul\":4766:4767   */\n      0x00\n        /* \"#utility.yul\":4763:4764   */\n      dup1\n        /* \"#utility.yul\":4756:4768   */\n      revert\n        /* \"#utility.yul\":4736:4770   */\n    tag_356:\n        /* \"#utility.yul\":4804:4810   */\n      dup2\n        /* \"#utility.yul\":4793:4802   */\n      dup6\n        /* \"#utility.yul\":4789:4811   */\n      add\n        /* \"#utility.yul\":4779:4811   */\n      swap2\n      pop\n        /* \"#utility.yul\":4849:4856   */\n      dup6\n        /* \"#utility.yul\":4842:4846   */\n      0x1f\n        /* \"#utility.yul\":4838:4840   */\n      dup4\n        /* \"#utility.yul\":4834:4847   */\n      add\n        /* \"#utility.yul\":4830:4857   */\n      slt\n        /* \"#utility.yul\":4820:4875   */\n      tag_357\n      jumpi\n        /* \"#utility.yul\":4871:4872   */\n      0x00\n        /* \"#utility.yul\":4868:4869   */\n      dup1\n        /* \"#utility.yul\":4861:4873   */\n      revert\n        /* \"#utility.yul\":4820:4875   */\n    tag_357:\n        /* \"#utility.yul\":4907:4909   */\n      dup2\n        /* \"#utility.yul\":4894:4910   */\n      calldataload\n        /* \"#utility.yul\":4929:4933   */\n      0x20\n        /* \"#utility.yul\":4952:4995   */\n      tag_358\n        /* \"#utility.yul\":4992:4994   */\n      dup3\n        /* \"#utility.yul\":4952:4995   */\n      tag_307\n      jump\t// in\n    tag_358:\n        /* \"#utility.yul\":5024:5026   */\n      0x40\n        /* \"#utility.yul\":5018:5027   */\n      mload\n        /* \"#utility.yul\":5036:5067   */\n      tag_359\n        /* \"#utility.yul\":5064:5066   */\n      dup3\n        /* \"#utility.yul\":5056:5062   */\n      dup3\n        /* \"#utility.yul\":5036:5067   */\n      tag_309\n      jump\t// in\n    tag_359:\n        /* \"#utility.yul\":5102:5120   */\n      dup4\n      dup2\n      mstore\n        /* \"#utility.yul\":5136:5151   */\n      dup3\n      dup2\n      add\n      swap2\n      pop\n        /* \"#utility.yul\":5171:5182   */\n      dup6\n      dup4\n      add\n        /* \"#utility.yul\":5213:5214   */\n      0x05\n        /* \"#utility.yul\":5209:5219   */\n      dup6\n      swap1\n      shl\n        /* \"#utility.yul\":5201:5220   */\n      dup8\n      add\n        /* \"#utility.yul\":5197:5225   */\n      dup5\n      add\n        /* \"#utility.yul\":5194:5235   */\n      dup12\n      lt\n        /* \"#utility.yul\":5191:5252   */\n      iszero\n      tag_360\n      jumpi\n        /* \"#utility.yul\":5248:5249   */\n      0x00\n        /* \"#utility.yul\":5245:5246   */\n      dup1\n        /* \"#utility.yul\":5238:5250   */\n      revert\n        /* \"#utility.yul\":5191:5252   */\n    tag_360:\n        /* \"#utility.yul\":5270:5271   */\n      0x00\n        /* \"#utility.yul\":5261:5271   */\n      swap7\n      pop\n        /* \"#utility.yul\":5280:5449   */\n    tag_361:\n        /* \"#utility.yul\":5294:5296   */\n      dup5\n        /* \"#utility.yul\":5291:5292   */\n      dup8\n        /* \"#utility.yul\":5288:5297   */\n      lt\n        /* \"#utility.yul\":5280:5449   */\n      iszero\n      tag_363\n      jumpi\n        /* \"#utility.yul\":5351:5374   */\n      tag_364\n        /* \"#utility.yul\":5370:5373   */\n      dup2\n        /* \"#utility.yul\":5351:5374   */\n      tag_300\n      jump\t// in\n    tag_364:\n        /* \"#utility.yul\":5339:5375   */\n      dup4\n      mstore\n        /* \"#utility.yul\":5312:5313   */\n      0x01\n        /* \"#utility.yul\":5305:5314   */\n      swap7\n      swap1\n      swap7\n      add\n      swap6\n        /* \"#utility.yul\":5395:5407   */\n      swap2\n      dup4\n      add\n      swap2\n        /* \"#utility.yul\":5427:5439   */\n      dup4\n      add\n        /* \"#utility.yul\":5280:5449   */\n      jump(tag_361)\n    tag_363:\n      pop\n        /* \"#utility.yul\":5468:5474   */\n      swap7\n      pop\n      pop\n        /* \"#utility.yul\":5512:5530   */\n      dup7\n      add\n        /* \"#utility.yul\":5499:5531   */\n      calldataload\n      swap3\n      pop\n      pop\n        /* \"#utility.yul\":5543:5559   */\n      dup1\n      dup3\n      gt\n        /* \"#utility.yul\":5540:5576   */\n      iszero\n      tag_365\n      jumpi\n        /* \"#utility.yul\":5572:5573   */\n      0x00\n        /* \"#utility.yul\":5569:5570   */\n      dup1\n        /* \"#utility.yul\":5562:5574   */\n      revert\n        /* \"#utility.yul\":5540:5576   */\n    tag_365:\n      pop\n        /* \"#utility.yul\":5595:5658   */\n      tag_366\n        /* \"#utility.yul\":5650:5657   */\n      dup6\n        /* \"#utility.yul\":5639:5647   */\n      dup3\n        /* \"#utility.yul\":5628:5637   */\n      dup7\n        /* \"#utility.yul\":5624:5648   */\n      add\n        /* \"#utility.yul\":5595:5658   */\n      tag_303\n      jump\t// in\n    tag_366:\n        /* \"#utility.yul\":5585:5658   */\n      swap2\n      pop\n      pop\n        /* \"#utility.yul\":4445:5664   */\n      swap3\n      pop\n      swap3\n      swap1\n      pop\n      jump\t// out\n        /* \"#utility.yul\":5669:5914   */\n    tag_26:\n        /* \"#utility.yul\":5727:5733   */\n      0x00\n        /* \"#utility.yul\":5780:5782   */\n      0x20\n        /* \"#utility.yul\":5768:5777   */\n      dup3\n        /* \"#utility.yul\":5759:5766   */\n      dup5\n        /* \"#utility.yul\":5755:5778   */\n      sub\n        /* \"#utility.yul\":5751:5783   */\n      slt\n        /* \"#utility.yul\":5748:5800   */\n      iszero\n      tag_368\n      jumpi\n        /* \"#utility.yul\":5796:5797   */\n      0x00\n        /* \"#utility.yul\":5793:5794   */\n      dup1\n        /* \"#utility.yul\":5786:5798   */\n      revert\n        /* \"#utility.yul\":5748:5800   */\n    tag_368:\n        /* \"#utility.yul\":5835:5844   */\n      dup2\n        /* \"#utility.yul\":5822:5845   */\n      calldataload\n        /* \"#utility.yul\":5854:5884   */\n      tag_323\n        /* \"#utility.yul\":5878:5883   */\n      dup2\n        /* \"#utility.yul\":5854:5884   */\n      tag_370\n      jump\t// in\n        /* \"#utility.yul\":5919:6168   */\n    tag_260:\n        /* \"#utility.yul\":5988:5994   */\n      0x00\n        /* \"#utility.yul\":6041:6043   */\n      0x20\n        /* \"#utility.yul\":6029:6038   */\n      dup3\n        /* \"#utility.yul\":6020:6027   */\n      dup5\n        /* \"#utility.yul\":6016:6039   */\n      sub\n        /* \"#utility.yul\":6012:6044   */\n      slt\n        /* \"#utility.yul\":6009:6061   */\n      iszero\n      tag_372\n      jumpi\n        /* \"#utility.yul\":6057:6058   */\n      0x00\n        /* \"#utility.yul\":6054:6055   */\n      dup1\n        /* \"#utility.yul\":6047:6059   */\n      revert\n        /* \"#utility.yul\":6009:6061   */\n    tag_372:\n        /* \"#utility.yul\":6089:6098   */\n      dup2\n        /* \"#utility.yul\":6083:6099   */\n      mload\n        /* \"#utility.yul\":6108:6138   */\n      tag_323\n        /* \"#utility.yul\":6132:6137   */\n      dup2\n        /* \"#utility.yul\":6108:6138   */\n      tag_370\n      jump\t// in\n        /* \"#utility.yul\":6173:6353   */\n    tag_32:\n        /* \"#utility.yul\":6232:6238   */\n      0x00\n        /* \"#utility.yul\":6285:6287   */\n      0x20\n        /* \"#utility.yul\":6273:6282   */\n      dup3\n        /* \"#utility.yul\":6264:6271   */\n      dup5\n        /* \"#utility.yul\":6260:6283   */\n      sub\n        /* \"#utility.yul\":6256:6288   */\n      slt\n        /* \"#utility.yul\":6253:6305   */\n      iszero\n      tag_375\n      jumpi\n        /* \"#utility.yul\":6301:6302   */\n      0x00\n        /* \"#utility.yul\":6298:6299   */\n      dup1\n        /* \"#utility.yul\":6291:6303   */\n      revert\n        /* \"#utility.yul\":6253:6305   */\n    tag_375:\n      pop\n        /* \"#utility.yul\":6324:6347   */\n      calldataload\n      swap2\n        /* \"#utility.yul\":6173:6353   */\n      swap1\n      pop\n      jump\t// out\n        /* \"#utility.yul\":6358:6793   */\n    tag_376:\n        /* \"#utility.yul\":6411:6414   */\n      0x00\n        /* \"#utility.yul\":6449:6454   */\n      dup2\n        /* \"#utility.yul\":6443:6455   */\n      mload\n        /* \"#utility.yul\":6476:6482   */\n      dup1\n        /* \"#utility.yul\":6471:6474   */\n      dup5\n        /* \"#utility.yul\":6464:6483   */\n      mstore\n        /* \"#utility.yul\":6502:6506   */\n      0x20\n        /* \"#utility.yul\":6531:6533   */\n      dup1\n        /* \"#utility.yul\":6526:6529   */\n      dup6\n        /* \"#utility.yul\":6522:6534   */\n      add\n        /* \"#utility.yul\":6515:6534   */\n      swap5\n      pop\n        /* \"#utility.yul\":6568:6570   */\n      dup1\n        /* \"#utility.yul\":6561:6566   */\n      dup5\n        /* \"#utility.yul\":6557:6571   */\n      add\n        /* \"#utility.yul\":6589:6590   */\n      0x00\n        /* \"#utility.yul\":6599:6768   */\n    tag_378:\n        /* \"#utility.yul\":6613:6619   */\n      dup4\n        /* \"#utility.yul\":6610:6611   */\n      dup2\n        /* \"#utility.yul\":6607:6620   */\n      lt\n        /* \"#utility.yul\":6599:6768   */\n      iszero\n      tag_380\n      jumpi\n        /* \"#utility.yul\":6674:6687   */\n      dup2\n      mload\n        /* \"#utility.yul\":6662:6688   */\n      dup8\n      mstore\n        /* \"#utility.yul\":6708:6720   */\n      swap6\n      dup3\n      add\n      swap6\n        /* \"#utility.yul\":6743:6758   */\n      swap1\n      dup3\n      add\n      swap1\n        /* \"#utility.yul\":6635:6636   */\n      0x01\n        /* \"#utility.yul\":6628:6637   */\n      add\n        /* \"#utility.yul\":6599:6768   */\n      jump(tag_378)\n    tag_380:\n      pop\n        /* \"#utility.yul\":6784:6787   */\n      swap5\n      swap6\n        /* \"#utility.yul\":6358:6793   */\n      swap5\n      pop\n      pop\n      pop\n      pop\n      pop\n      jump\t// out\n        /* \"#utility.yul\":6798:7269   */\n    tag_381:\n        /* \"#utility.yul\":6839:6842   */\n      0x00\n        /* \"#utility.yul\":6877:6882   */\n      dup2\n        /* \"#utility.yul\":6871:6883   */\n      mload\n        /* \"#utility.yul\":6904:6910   */\n      dup1\n        /* \"#utility.yul\":6899:6902   */\n      dup5\n        /* \"#utility.yul\":6892:6911   */\n      mstore\n        /* \"#utility.yul\":6929:6930   */\n      0x00\n        /* \"#utility.yul\":6939:7101   */\n    tag_383:\n        /* \"#utility.yul\":6953:6959   */\n      dup2\n        /* \"#utility.yul\":6950:6951   */\n      dup2\n        /* \"#utility.yul\":6947:6960   */\n      lt\n        /* \"#utility.yul\":6939:7101   */\n      iszero\n      tag_385\n      jumpi\n        /* \"#utility.yul\":7015:7019   */\n      0x20\n        /* \"#utility.yul\":7071:7084   */\n      dup2\n      dup6\n      add\n        /* \"#utility.yul\":7067:7089   */\n      dup2\n      add\n        /* \"#utility.yul\":7061:7090   */\n      mload\n        /* \"#utility.yul\":7043:7054   */\n      dup7\n      dup4\n      add\n        /* \"#utility.yul\":7039:7059   */\n      dup3\n      add\n        /* \"#utility.yul\":7032:7091   */\n      mstore\n        /* \"#utility.yul\":6968:6980   */\n      add\n        /* \"#utility.yul\":6939:7101   */\n      jump(tag_383)\n    tag_385:\n        /* \"#utility.yul\":7119:7125   */\n      dup2\n        /* \"#utility.yul\":7116:7117   */\n      dup2\n        /* \"#utility.yul\":7113:7126   */\n      gt\n        /* \"#utility.yul\":7110:7197   */\n      iszero\n      tag_386\n      jumpi\n        /* \"#utility.yul\":7185:7186   */\n      0x00\n        /* \"#utility.yul\":7178:7182   */\n      0x20\n        /* \"#utility.yul\":7169:7175   */\n      dup4\n        /* \"#utility.yul\":7164:7167   */\n      dup8\n        /* \"#utility.yul\":7160:7176   */\n      add\n        /* \"#utility.yul\":7156:7183   */\n      add\n        /* \"#utility.yul\":7149:7187   */\n      mstore\n        /* \"#utility.yul\":7110:7197   */\n    tag_386:\n      pop\n        /* \"#utility.yul\":7251:7253   */\n      0x1f\n        /* \"#utility.yul\":7230:7245   */\n      add\n      not(0x1f)\n        /* \"#utility.yul\":7226:7255   */\n      and\n        /* \"#utility.yul\":7217:7256   */\n      swap3\n      swap1\n      swap3\n      add\n        /* \"#utility.yul\":7258:7262   */\n      0x20\n        /* \"#utility.yul\":7213:7263   */\n      add\n      swap3\n        /* \"#utility.yul\":6798:7269   */\n      swap2\n      pop\n      pop\n      jump\t// out\n        /* \"#utility.yul\":7482:8308   */\n    tag_281:\n      sub(shl(0xa0, 0x01), 0x01)\n        /* \"#utility.yul\":7879:7894   */\n      dup7\n      dup2\n      and\n        /* \"#utility.yul\":7861:7895   */\n      dup3\n      mstore\n        /* \"#utility.yul\":7931:7946   */\n      dup6\n      and\n        /* \"#utility.yul\":7926:7928   */\n      0x20\n        /* \"#utility.yul\":7911:7929   */\n      dup3\n      add\n        /* \"#utility.yul\":7904:7947   */\n      mstore\n        /* \"#utility.yul\":7841:7844   */\n      0xa0\n        /* \"#utility.yul\":7978:7980   */\n      0x40\n        /* \"#utility.yul\":7963:7981   */\n      dup3\n      add\n        /* \"#utility.yul\":7956:7987   */\n      dup2\n      swap1\n      mstore\n        /* \"#utility.yul\":7804:7808   */\n      0x00\n      swap1\n        /* \"#utility.yul\":8010:8067   */\n      tag_389\n      swap1\n        /* \"#utility.yul\":8047:8066   */\n      dup4\n      add\n        /* \"#utility.yul\":8039:8045   */\n      dup7\n        /* \"#utility.yul\":8010:8067   */\n      tag_376\n      jump\t// in\n    tag_389:\n        /* \"#utility.yul\":8115:8124   */\n      dup3\n        /* \"#utility.yul\":8107:8113   */\n      dup2\n        /* \"#utility.yul\":8103:8125   */\n      sub\n        /* \"#utility.yul\":8098:8100   */\n      0x60\n        /* \"#utility.yul\":8087:8096   */\n      dup5\n        /* \"#utility.yul\":8083:8101   */\n      add\n        /* \"#utility.yul\":8076:8126   */\n      mstore\n        /* \"#utility.yul\":8149:8193   */\n      tag_390\n        /* \"#utility.yul\":8186:8192   */\n      dup2\n        /* \"#utility.yul\":8178:8184   */\n      dup7\n        /* \"#utility.yul\":8149:8193   */\n      tag_376\n      jump\t// in\n    tag_390:\n        /* \"#utility.yul\":8135:8193   */\n      swap1\n      pop\n        /* \"#utility.yul\":8242:8251   */\n      dup3\n        /* \"#utility.yul\":8234:8240   */\n      dup2\n        /* \"#utility.yul\":8230:8252   */\n      sub\n        /* \"#utility.yul\":8224:8227   */\n      0x80\n        /* \"#utility.yul\":8213:8222   */\n      dup5\n        /* \"#utility.yul\":8209:8228   */\n      add\n        /* \"#utility.yul\":8202:8253   */\n      mstore\n        /* \"#utility.yul\":8270:8302   */\n      tag_391\n        /* \"#utility.yul\":8295:8301   */\n      dup2\n        /* \"#utility.yul\":8287:8293   */\n      dup6\n        /* \"#utility.yul\":8270:8302   */\n      tag_381\n      jump\t// in\n    tag_391:\n        /* \"#utility.yul\":8262:8302   */\n      swap9\n        /* \"#utility.yul\":7482:8308   */\n      swap8\n      pop\n      pop\n      pop\n      pop\n      pop\n      pop\n      pop\n      pop\n      jump\t// out\n        /* \"#utility.yul\":8313:8873   */\n    tag_256:\n      sub(shl(0xa0, 0x01), 0x01)\n        /* \"#utility.yul\":8610:8625   */\n      dup7\n      dup2\n      and\n        /* \"#utility.yul\":8592:8626   */\n      dup3\n      mstore\n        /* \"#utility.yul\":8662:8677   */\n      dup6\n      and\n        /* \"#utility.yul\":8657:8659   */\n      0x20\n        /* \"#utility.yul\":8642:8660   */\n      dup3\n      add\n        /* \"#utility.yul\":8635:8678   */\n      mstore\n        /* \"#utility.yul\":8709:8711   */\n      0x40\n        /* \"#utility.yul\":8694:8712   */\n      dup2\n      add\n        /* \"#utility.yul\":8687:8721   */\n      dup5\n      swap1\n      mstore\n        /* \"#utility.yul\":8752:8754   */\n      0x60\n        /* \"#utility.yul\":8737:8755   */\n      dup2\n      add\n        /* \"#utility.yul\":8730:8764   */\n      dup4\n      swap1\n      mstore\n        /* \"#utility.yul\":8572:8575   */\n      0xa0\n        /* \"#utility.yul\":8795:8798   */\n      0x80\n        /* \"#utility.yul\":8780:8799   */\n      dup3\n      add\n        /* \"#utility.yul\":8773:8805   */\n      dup2\n      swap1\n      mstore\n        /* \"#utility.yul\":8535:8539   */\n      0x00\n      swap1\n        /* \"#utility.yul\":8822:8867   */\n      tag_393\n      swap1\n        /* \"#utility.yul\":8847:8866   */\n      dup4\n      add\n        /* \"#utility.yul\":8839:8845   */\n      dup5\n        /* \"#utility.yul\":8822:8867   */\n      tag_381\n      jump\t// in\n    tag_393:\n        /* \"#utility.yul\":8814:8867   */\n      swap8\n        /* \"#utility.yul\":8313:8873   */\n      swap7\n      pop\n      pop\n      pop\n      pop\n      pop\n      pop\n      pop\n      jump\t// out\n        /* \"#utility.yul\":8878:9139   */\n    tag_54:\n        /* \"#utility.yul\":9057:9059   */\n      0x20\n        /* \"#utility.yul\":9046:9055   */\n      dup2\n        /* \"#utility.yul\":9039:9060   */\n      mstore\n        /* \"#utility.yul\":9020:9024   */\n      0x00\n        /* \"#utility.yul\":9077:9133   */\n      tag_323\n        /* \"#utility.yul\":9129:9131   */\n      0x20\n        /* \"#utility.yul\":9118:9127   */\n      dup4\n        /* \"#utility.yul\":9114:9132   */\n      add\n        /* \"#utility.yul\":9106:9112   */\n      dup5\n        /* \"#utility.yul\":9077:9133   */\n      tag_376\n      jump\t// in\n        /* \"#utility.yul\":9144:9609   */\n    tag_201:\n        /* \"#utility.yul\":9401:9403   */\n      0x40\n        /* \"#utility.yul\":9390:9399   */\n      dup2\n        /* \"#utility.yul\":9383:9404   */\n      mstore\n        /* \"#utility.yul\":9364:9368   */\n      0x00\n        /* \"#utility.yul\":9427:9483   */\n      tag_397\n        /* \"#utility.yul\":9479:9481   */\n      0x40\n        /* \"#utility.yul\":9468:9477   */\n      dup4\n        /* \"#utility.yul\":9464:9482   */\n      add\n        /* \"#utility.yul\":9456:9462   */\n      dup6\n        /* \"#utility.yul\":9427:9483   */\n      tag_376\n      jump\t// in\n    tag_397:\n        /* \"#utility.yul\":9531:9540   */\n      dup3\n        /* \"#utility.yul\":9523:9529   */\n      dup2\n        /* \"#utility.yul\":9519:9541   */\n      sub\n        /* \"#utility.yul\":9514:9516   */\n      0x20\n        /* \"#utility.yul\":9503:9512   */\n      dup5\n        /* \"#utility.yul\":9499:9517   */\n      add\n        /* \"#utility.yul\":9492:9542   */\n      mstore\n        /* \"#utility.yul\":9559:9603   */\n      tag_398\n        /* \"#utility.yul\":9596:9602   */\n      dup2\n        /* \"#utility.yul\":9588:9594   */\n      dup6\n        /* \"#utility.yul\":9559:9603   */\n      tag_376\n      jump\t// in\n    tag_398:\n        /* \"#utility.yul\":9551:9603   */\n      swap6\n        /* \"#utility.yul\":9144:9609   */\n      swap5\n      pop\n      pop\n      pop\n      pop\n      pop\n      jump\t// out\n        /* \"#utility.yul\":9806:10025   */\n    tag_35:\n        /* \"#utility.yul\":9955:9957   */\n      0x20\n        /* \"#utility.yul\":9944:9953   */\n      dup2\n        /* \"#utility.yul\":9937:9958   */\n      mstore\n        /* \"#utility.yul\":9918:9922   */\n      0x00\n        /* \"#utility.yul\":9975:10019   */\n      tag_323\n        /* \"#utility.yul\":10015:10017   */\n      0x20\n        /* \"#utility.yul\":10004:10013   */\n      dup4\n        /* \"#utility.yul\":10000:10018   */\n      add\n        /* \"#utility.yul\":9992:9998   */\n      dup5\n        /* \"#utility.yul\":9975:10019   */\n      tag_381\n      jump\t// in\n        /* \"#utility.yul\":10451:10855   */\n    tag_276:\n        /* \"#utility.yul\":10653:10655   */\n      0x20\n        /* \"#utility.yul\":10635:10656   */\n      dup1\n      dup3\n      mstore\n        /* \"#utility.yul\":10692:10694   */\n      0x28\n        /* \"#utility.yul\":10672:10690   */\n      swap1\n      dup3\n      add\n        /* \"#utility.yul\":10665:10695   */\n      mstore\n        /* \"#utility.yul\":10731:10765   */\n      0x455243313135353a204552433131353552656365697665722072656a65637465\n        /* \"#utility.yul\":10726:10728   */\n      0x40\n        /* \"#utility.yul\":10711:10729   */\n      dup3\n      add\n        /* \"#utility.yul\":10704:10766   */\n      mstore\n      shl(0xc0, 0x6420746f6b656e73)\n        /* \"#utility.yul\":10797:10799   */\n      0x60\n        /* \"#utility.yul\":10782:10800   */\n      dup3\n      add\n        /* \"#utility.yul\":10775:10813   */\n      mstore\n        /* \"#utility.yul\":10845:10848   */\n      0x80\n        /* \"#utility.yul\":10830:10849   */\n      add\n      swap1\n        /* \"#utility.yul\":10451:10855   */\n      jump\t// out\n        /* \"#utility.yul\":11682:12083   */\n    tag_185:\n        /* \"#utility.yul\":11884:11886   */\n      0x20\n        /* \"#utility.yul\":11866:11887   */\n      dup1\n      dup3\n      mstore\n        /* \"#utility.yul\":11923:11925   */\n      0x25\n        /* \"#utility.yul\":11903:11921   */\n      swap1\n      dup3\n      add\n        /* \"#utility.yul\":11896:11926   */\n      mstore\n        /* \"#utility.yul\":11962:11996   */\n      0x455243313135353a207472616e7366657220746f20746865207a65726f206164\n        /* \"#utility.yul\":11957:11959   */\n      0x40\n        /* \"#utility.yul\":11942:11960   */\n      dup3\n      add\n        /* \"#utility.yul\":11935:11997   */\n      mstore\n      shl(0xd8, 0x6472657373)\n        /* \"#utility.yul\":12028:12030   */\n      0x60\n        /* \"#utility.yul\":12013:12031   */\n      dup3\n      add\n        /* \"#utility.yul\":12006:12041   */\n      mstore\n        /* \"#utility.yul\":12073:12076   */\n      0x80\n        /* \"#utility.yul\":12058:12077   */\n      add\n      swap1\n        /* \"#utility.yul\":11682:12083   */\n      jump\t// out\n        /* \"#utility.yul\":12507:12913   */\n    tag_197:\n        /* \"#utility.yul\":12709:12711   */\n      0x20\n        /* \"#utility.yul\":12691:12712   */\n      dup1\n      dup3\n      mstore\n        /* \"#utility.yul\":12748:12750   */\n      0x2a\n        /* \"#utility.yul\":12728:12746   */\n      swap1\n      dup3\n      add\n        /* \"#utility.yul\":12721:12751   */\n      mstore\n        /* \"#utility.yul\":12787:12821   */\n      0x455243313135353a20696e73756666696369656e742062616c616e636520666f\n        /* \"#utility.yul\":12782:12784   */\n      0x40\n        /* \"#utility.yul\":12767:12785   */\n      dup3\n      add\n        /* \"#utility.yul\":12760:12822   */\n      mstore\n      shl(0xb1, 0x39103a3930b739b332b9)\n        /* \"#utility.yul\":12853:12855   */\n      0x60\n        /* \"#utility.yul\":12838:12856   */\n      dup3\n      add\n        /* \"#utility.yul\":12831:12871   */\n      mstore\n        /* \"#utility.yul\":12903:12906   */\n      0x80\n        /* \"#utility.yul\":12888:12907   */\n      add\n      swap1\n        /* \"#utility.yul\":12507:12913   */\n      jump\t// out\n        /* \"#utility.yul\":15743:15926   */\n    tag_307:\n        /* \"#utility.yul\":15803:15807   */\n      0x00\n        /* \"#utility.yul\":15836:15854   */\n      0xffffffffffffffff\n        /* \"#utility.yul\":15828:15834   */\n      dup3\n        /* \"#utility.yul\":15825:15855   */\n      gt\n        /* \"#utility.yul\":15822:15878   */\n      iszero\n      tag_419\n      jumpi\n        /* \"#utility.yul\":15858:15876   */\n      tag_419\n      tag_121\n      jump\t// in\n    tag_419:\n      pop\n        /* \"#utility.yul\":15903:15904   */\n      0x05\n        /* \"#utility.yul\":15899:15913   */\n      shl\n        /* \"#utility.yul\":15915:15919   */\n      0x20\n        /* \"#utility.yul\":15895:15920   */\n      add\n      swap1\n        /* \"#utility.yul\":15743:15926   */\n      jump\t// out\n        /* \"#utility.yul\":15931:16059   */\n    tag_173:\n        /* \"#utility.yul\":15971:15974   */\n      0x00\n        /* \"#utility.yul\":16002:16003   */\n      dup3\n        /* \"#utility.yul\":15998:16004   */\n      not\n        /* \"#utility.yul\":15995:15996   */\n      dup3\n        /* \"#utility.yul\":15992:16005   */\n      gt\n        /* \"#utility.yul\":15989:16028   */\n      iszero\n      tag_422\n      jumpi\n        /* \"#utility.yul\":16008:16026   */\n      tag_422\n      tag_423\n      jump\t// in\n    tag_422:\n      pop\n        /* \"#utility.yul\":16044:16053   */\n      add\n      swap1\n        /* \"#utility.yul\":15931:16059   */\n      jump\t// out\n        /* \"#utility.yul\":16064:16189   */\n    tag_249:\n        /* \"#utility.yul\":16104:16108   */\n      0x00\n        /* \"#utility.yul\":16132:16133   */\n      dup3\n        /* \"#utility.yul\":16129:16130   */\n      dup3\n        /* \"#utility.yul\":16126:16134   */\n      lt\n        /* \"#utility.yul\":16123:16157   */\n      iszero\n      tag_426\n      jumpi\n        /* \"#utility.yul\":16137:16155   */\n      tag_426\n      tag_423\n      jump\t// in\n    tag_426:\n      pop\n        /* \"#utility.yul\":16174:16183   */\n      sub\n      swap1\n        /* \"#utility.yul\":16064:16189   */\n      jump\t// out\n        /* \"#utility.yul\":16194:16574   */\n    tag_92:\n        /* \"#utility.yul\":16273:16274   */\n      0x01\n        /* \"#utility.yul\":16269:16281   */\n      dup2\n      dup2\n      shr\n      swap1\n        /* \"#utility.yul\":16316:16328   */\n      dup3\n      and\n      dup1\n        /* \"#utility.yul\":16337:16398   */\n      tag_428\n      jumpi\n        /* \"#utility.yul\":16391:16395   */\n      0x7f\n        /* \"#utility.yul\":16383:16389   */\n      dup3\n        /* \"#utility.yul\":16379:16396   */\n      and\n        /* \"#utility.yul\":16369:16396   */\n      swap2\n      pop\n        /* \"#utility.yul\":16337:16398   */\n    tag_428:\n        /* \"#utility.yul\":16444:16446   */\n      0x20\n        /* \"#utility.yul\":16436:16442   */\n      dup3\n        /* \"#utility.yul\":16433:16447   */\n      lt\n        /* \"#utility.yul\":16413:16431   */\n      dup2\n        /* \"#utility.yul\":16410:16448   */\n      eq\n        /* \"#utility.yul\":16407:16568   */\n      iszero\n      tag_429\n      jumpi\n        /* \"#utility.yul\":16490:16500   */\n      0x4e487b71\n        /* \"#utility.yul\":16485:16488   */\n      0xe0\n        /* \"#utility.yul\":16481:16501   */\n      shl\n        /* \"#utility.yul\":16478:16479   */\n      0x00\n        /* \"#utility.yul\":16471:16502   */\n      mstore\n        /* \"#utility.yul\":16525:16529   */\n      0x22\n        /* \"#utility.yul\":16522:16523   */\n      0x04\n        /* \"#utility.yul\":16515:16530   */\n      mstore\n        /* \"#utility.yul\":16553:16557   */\n      0x24\n        /* \"#utility.yul\":16550:16551   */\n      0x00\n        /* \"#utility.yul\":16543:16558   */\n      revert\n        /* \"#utility.yul\":16407:16568   */\n    tag_429:\n      pop\n        /* \"#utility.yul\":16194:16574   */\n      swap2\n      swap1\n      pop\n      jump\t// out\n        /* \"#utility.yul\":16579:16828   */\n    tag_309:\n        /* \"#utility.yul\":16689:16691   */\n      0x1f\n        /* \"#utility.yul\":16670:16683   */\n      dup3\n      add\n      not(0x1f)\n        /* \"#utility.yul\":16666:16693   */\n      and\n        /* \"#utility.yul\":16654:16694   */\n      dup2\n      add\n        /* \"#utility.yul\":16724:16742   */\n      0xffffffffffffffff\n        /* \"#utility.yul\":16709:16743   */\n      dup2\n      gt\n        /* \"#utility.yul\":16745:16767   */\n      dup3\n      dup3\n      lt\n        /* \"#utility.yul\":16706:16768   */\n      or\n        /* \"#utility.yul\":16703:16791   */\n      iszero\n      tag_432\n      jumpi\n        /* \"#utility.yul\":16771:16789   */\n      tag_432\n      tag_121\n      jump\t// in\n    tag_432:\n        /* \"#utility.yul\":16807:16809   */\n      0x40\n        /* \"#utility.yul\":16800:16822   */\n      mstore\n      pop\n      pop\n        /* \"#utility.yul\":16579:16828   */\n      jump\t// out\n        /* \"#utility.yul\":16833:16968   */\n    tag_135:\n        /* \"#utility.yul\":16872:16875   */\n      0x00\n      not(0x00)\n        /* \"#utility.yul\":16893:16910   */\n      dup3\n      eq\n        /* \"#utility.yul\":16890:16933   */\n      iszero\n      tag_435\n      jumpi\n        /* \"#utility.yul\":16913:16931   */\n      tag_435\n      tag_423\n      jump\t// in\n    tag_435:\n      pop\n        /* \"#utility.yul\":16960:16961   */\n      0x01\n        /* \"#utility.yul\":16949:16962   */\n      add\n      swap1\n        /* \"#utility.yul\":16833:16968   */\n      jump\t// out\n        /* \"#utility.yul\":16973:17100   */\n    tag_423:\n        /* \"#utility.yul\":17034:17044   */\n      0x4e487b71\n        /* \"#utility.yul\":17029:17032   */\n      0xe0\n        /* \"#utility.yul\":17025:17045   */\n      shl\n        /* \"#utility.yul\":17022:17023   */\n      0x00\n        /* \"#utility.yul\":17015:17046   */\n      mstore\n        /* \"#utility.yul\":17065:17069   */\n      0x11\n        /* \"#utility.yul\":17062:17063   */\n      0x04\n        /* \"#utility.yul\":17055:17070   */\n      mstore\n        /* \"#utility.yul\":17089:17093   */\n      0x24\n        /* \"#utility.yul\":17086:17087   */\n      0x00\n        /* \"#utility.yul\":17079:17094   */\n      revert\n        /* \"#utility.yul\":17105:17232   */\n    tag_129:\n        /* \"#utility.yul\":17166:17176   */\n      0x4e487b71\n        /* \"#utility.yul\":17161:17164   */\n      0xe0\n        /* \"#utility.yul\":17157:17177   */\n      shl\n        /* \"#utility.yul\":17154:17155   */\n      0x00\n        /* \"#utility.yul\":17147:17178   */\n      mstore\n        /* \"#utility.yul\":17197:17201   */\n      0x32\n        /* \"#utility.yul\":17194:17195   */\n      0x04\n        /* \"#utility.yul\":17187:17202   */\n      mstore\n        /* \"#utility.yul\":17221:17225   */\n      0x24\n        /* \"#utility.yul\":17218:17219   */\n      0x00\n        /* \"#utility.yul\":17211:17226   */\n      revert\n        /* \"#utility.yul\":17237:17364   */\n    tag_121:\n        /* \"#utility.yul\":17298:17308   */\n      0x4e487b71\n        /* \"#utility.yul\":17293:17296   */\n      0xe0\n        /* \"#utility.yul\":17289:17309   */\n      shl\n        /* \"#utility.yul\":17286:17287   */\n      0x00\n        /* \"#utility.yul\":17279:17310   */\n      mstore\n        /* \"#utility.yul\":17329:17333   */\n      0x41\n        /* \"#utility.yul\":17326:17327   */\n      0x04\n        /* \"#utility.yul\":17319:17334   */\n      mstore\n        /* \"#utility.yul\":17353:17357   */\n      0x24\n        /* \"#utility.yul\":17350:17351   */\n      0x00\n        /* \"#utility.yul\":17343:17358   */\n      revert\n        /* \"#utility.yul\":17369:17548   */\n    tag_266:\n        /* \"#utility.yul\":17404:17407   */\n      0x00\n        /* \"#utility.yul\":17446:17447   */\n      0x03\n        /* \"#utility.yul\":17428:17444   */\n      returndatasize\n        /* \"#utility.yul\":17425:17448   */\n      gt\n        /* \"#utility.yul\":17422:17542   */\n      iszero\n      tag_440\n      jumpi\n        /* \"#utility.yul\":17492:17493   */\n      0x04\n        /* \"#utility.yul\":17489:17490   */\n      0x00\n        /* \"#utility.yul\":17486:17487   */\n      dup1\n        /* \"#utility.yul\":17471:17494   */\n      returndatacopy\n      pop\n        /* \"#utility.yul\":17529:17530   */\n      0x00\n        /* \"#utility.yul\":17523:17531   */\n      mload\n        /* \"#utility.yul\":17518:17521   */\n      0xe0\n        /* \"#utility.yul\":17514:17532   */\n      shr\n        /* \"#utility.yul\":17422:17542   */\n    tag_440:\n        /* \"#utility.yul\":17369:17548   */\n      swap1\n      jump\t// out\n        /* \"#utility.yul\":17553:18224   */\n    tag_268:\n        /* \"#utility.yul\":17592:17595   */\n      0x00\n        /* \"#utility.yul\":17634:17638   */\n      0x44\n        /* \"#utility.yul\":17616:17632   */\n      returndatasize\n        /* \"#utility.yul\":17613:17639   */\n      lt\n        /* \"#utility.yul\":17610:17649   */\n      iszero\n      tag_442\n      jumpi\n        /* \"#utility.yul\":17553:18224   */\n      swap1\n      jump\t// out\n        /* \"#utility.yul\":17610:17649   */\n    tag_442:\n        /* \"#utility.yul\":17676:17678   */\n      0x40\n        /* \"#utility.yul\":17670:17679   */\n      mload\n      not(0x03)\n        /* \"#utility.yul\":17741:17757   */\n      returndatasize\n        /* \"#utility.yul\":17737:17762   */\n      dup2\n      add\n        /* \"#utility.yul\":17734:17735   */\n      0x04\n        /* \"#utility.yul\":17670:17679   */\n      dup4\n        /* \"#utility.yul\":17713:17763   */\n      returndatacopy\n        /* \"#utility.yul\":17792:17796   */\n      dup2\n        /* \"#utility.yul\":17786:17797   */\n      mload\n        /* \"#utility.yul\":17816:17832   */\n      returndatasize\n        /* \"#utility.yul\":17851:17869   */\n      0xffffffffffffffff\n        /* \"#utility.yul\":17922:17924   */\n      dup2\n        /* \"#utility.yul\":17915:17919   */\n      0x24\n        /* \"#utility.yul\":17907:17913   */\n      dup5\n        /* \"#utility.yul\":17903:17920   */\n      add\n        /* \"#utility.yul\":17900:17925   */\n      gt\n        /* \"#utility.yul\":17895:17897   */\n      dup2\n        /* \"#utility.yul\":17887:17893   */\n      dup5\n        /* \"#utility.yul\":17884:17898   */\n      gt\n        /* \"#utility.yul\":17881:17926   */\n      or\n        /* \"#utility.yul\":17878:17936   */\n      iszero\n      tag_443\n      jumpi\n        /* \"#utility.yul\":17929:17934   */\n      pop\n      pop\n      pop\n      pop\n      pop\n        /* \"#utility.yul\":17553:18224   */\n      swap1\n      jump\t// out\n        /* \"#utility.yul\":17878:17936   */\n    tag_443:\n        /* \"#utility.yul\":17966:17972   */\n      dup3\n        /* \"#utility.yul\":17960:17964   */\n      dup6\n        /* \"#utility.yul\":17956:17973   */\n      add\n        /* \"#utility.yul\":17945:17973   */\n      swap2\n      pop\n        /* \"#utility.yul\":18002:18005   */\n      dup2\n        /* \"#utility.yul\":17996:18006   */\n      mload\n        /* \"#utility.yul\":18029:18031   */\n      dup2\n        /* \"#utility.yul\":18021:18027   */\n      dup2\n        /* \"#utility.yul\":18018:18032   */\n      gt\n        /* \"#utility.yul\":18015:18042   */\n      iszero\n      tag_444\n      jumpi\n        /* \"#utility.yul\":18035:18040   */\n      pop\n      pop\n      pop\n      pop\n      pop\n      pop\n        /* \"#utility.yul\":17553:18224   */\n      swap1\n      jump\t// out\n        /* \"#utility.yul\":18015:18042   */\n    tag_444:\n        /* \"#utility.yul\":18119:18121   */\n      dup5\n        /* \"#utility.yul\":18100:18116   */\n      returndatasize\n        /* \"#utility.yul\":18094:18098   */\n      dup8\n        /* \"#utility.yul\":18090:18117   */\n      add\n        /* \"#utility.yul\":18086:18122   */\n      add\n        /* \"#utility.yul\":18079:18083   */\n      0x20\n        /* \"#utility.yul\":18070:18076   */\n      dup3\n        /* \"#utility.yul\":18065:18068   */\n      dup6\n        /* \"#utility.yul\":18061:18077   */\n      add\n        /* \"#utility.yul\":18057:18084   */\n      add\n        /* \"#utility.yul\":18054:18123   */\n      gt\n        /* \"#utility.yul\":18051:18133   */\n      iszero\n      tag_445\n      jumpi\n        /* \"#utility.yul\":18126:18131   */\n      pop\n      pop\n      pop\n      pop\n      pop\n      pop\n        /* \"#utility.yul\":17553:18224   */\n      swap1\n      jump\t// out\n        /* \"#utility.yul\":18051:18133   */\n    tag_445:\n        /* \"#utility.yul\":18142:18199   */\n      tag_446\n        /* \"#utility.yul\":18193:18197   */\n      0x20\n        /* \"#utility.yul\":18184:18190   */\n      dup3\n        /* \"#utility.yul\":18176:18182   */\n      dup7\n        /* \"#utility.yul\":18172:18191   */\n      add\n        /* \"#utility.yul\":18168:18198   */\n      add\n        /* \"#utility.yul\":18162:18166   */\n      dup8\n        /* \"#utility.yul\":18142:18199   */\n      tag_309\n      jump\t// in\n    tag_446:\n      pop\n        /* \"#utility.yul\":18215:18218   */\n      swap1\n      swap6\n        /* \"#utility.yul\":17553:18224   */\n      swap5\n      pop\n      pop\n      pop\n      pop\n      pop\n      jump\t// out\n        /* \"#utility.yul\":18229:18360   */\n    tag_370:\n      not(sub(shl(0xe0, 0x01), 0x01))\n        /* \"#utility.yul\":18303:18335   */\n      dup2\n      and\n        /* \"#utility.yul\":18293:18336   */\n      dup2\n      eq\n        /* \"#utility.yul\":18283:18354   */\n      tag_448\n      jumpi\n        /* \"#utility.yul\":18350:18351   */\n      0x00\n        /* \"#utility.yul\":18347:18348   */\n      dup1\n        /* \"#utility.yul\":18340:18352   */\n      revert\n        /* \"#utility.yul\":18283:18354   */\n    tag_448:\n        /* \"#utility.yul\":18229:18360   */\n      pop\n      jump\t// out\n\n    auxdata: 0xa2646970667358221220e940295d673465ee7f2c5d98a7ccd0169a1c65fcf35a17777ba830b07f62971f64736f6c63430008070033\n}\n",
				"bytecode": {
					"linkReferences": {},
					"object": "60806040523480156200001157600080fd5b5060405162001b6338038062001b63833981016040819052620000349162000144565b81620000408162000068565b50600580546001600160a01b0319166001600160a01b03929092169190911790555062000288565b80516200007d90600290602084019062000081565b5050565b8280546200008f9062000235565b90600052602060002090601f016020900481019282620000b35760008555620000fe565b82601f10620000ce57805160ff1916838001178555620000fe565b82800160010185558215620000fe579182015b82811115620000fe578251825591602001919060010190620000e1565b506200010c92915062000110565b5090565b5b808211156200010c576000815560010162000111565b80516001600160a01b03811681146200013f57600080fd5b919050565b600080604083850312156200015857600080fd5b82516001600160401b03808211156200017057600080fd5b818501915085601f8301126200018557600080fd5b8151818111156200019a576200019a62000272565b604051601f8201601f19908116603f01168101908382118183101715620001c557620001c562000272565b81604052828152602093508884848701011115620001e257600080fd5b600091505b82821015620002065784820184015181830185015290830190620001e7565b82821115620002185760008484830101525b95506200022a91505085820162000127565b925050509250929050565b600181811c908216806200024a57607f821691505b602082108114156200026c57634e487b7160e01b600052602260045260246000fd5b50919050565b634e487b7160e01b600052604160045260246000fd5b6118cb80620002986000396000f3fe608060405234801561001057600080fd5b50600436106100ce5760003560e01c80634e1273f41161008c578063bd85b03911610066578063bd85b039146101e4578063cb45077214610204578063e985e9c514610217578063f242432a1461025357600080fd5b80634e1273f41461018f5780634f558e79146101af578063a22cb465146101d157600080fd5b8062fdd58e146100d357806301ffc9a7146100f95780630e89341c1461011c578063156e29f61461013c5780632eb2c2d61461014f5780634b8c9c2d14610164575b600080fd5b6100e66100e13660046112e7565b610266565b6040519081526020015b60405180910390f35b61010c610107366004611415565b6102fd565b60405190151581526020016100f0565b61012f61012a36600461144f565b61034f565b6040516100f091906115d4565b61010c61014a366004611311565b6103e3565b61016261015d36600461119c565b610462565b005b600554610177906001600160a01b031681565b6040516001600160a01b0390911681526020016100f0565b6101a261019d366004611344565b6104f9565b6040516100f09190611593565b61010c6101bd36600461144f565b600090815260036020526040902054151590565b6101626101df3660046112ab565b610623565b6100e66101f236600461144f565b60009081526003602052604090205490565b61010c610212366004611147565b610632565b61010c610225366004611169565b6001600160a01b03918216600090815260016020908152604080832093909416825291909152205460ff1690565b610162610261366004611246565b610739565b60006001600160a01b0383166102d75760405162461bcd60e51b815260206004820152602b60248201527f455243313135353a2062616c616e636520717565727920666f7220746865207a60448201526a65726f206164647265737360a81b60648201526084015b60405180910390fd5b506000908152602081815260408083206001600160a01b03949094168352929052205490565b60006001600160e01b03198216636cdb3d1360e11b148061032e57506001600160e01b031982166303a24d0760e21b145b8061034957506301ffc9a760e01b6001600160e01b03198316145b92915050565b60606002805461035e90611711565b80601f016020809104026020016040519081016040528092919081815260200182805461038a90611711565b80156103d75780601f106103ac576101008083540402835291602001916103d7565b820191906000526020600020905b8154815290600101906020018083116103ba57829003601f168201915b50505050509050919050565b3360009081526004602052604081205460ff1661043d5760405162461bcd60e51b81526020600482015260186024820152772cb7ba9030b932903737ba103bb434ba32b634b9ba32b21760411b60448201526064016102ce565b610458848484604051806020016040528060008152506107c0565b5060019392505050565b6001600160a01b03851633148061047e575061047e8533610225565b6104e55760405162461bcd60e51b815260206004820152603260248201527f455243313135353a207472616e736665722063616c6c6572206973206e6f74206044820152711bdddb995c881b9bdc88185c1c1c9bdd995960721b60648201526084016102ce565b6104f285858585856108d0565b5050505050565b6060815183511461055e5760405162461bcd60e51b815260206004820152602960248201527f455243313135353a206163636f756e747320616e6420696473206c656e677468604482015268040dad2e6dac2e8c6d60bb1b60648201526084016102ce565b6000835167ffffffffffffffff81111561057a5761057a6117c0565b6040519080825280602002602001820160405280156105a3578160200160208202803683370190505b50905060005b845181101561061b576105ee8582815181106105c7576105c76117aa565b60200260200101518583815181106105e1576105e16117aa565b6020026020010151610266565b828281518110610600576106006117aa565b602090810291909101015261061481611779565b90506105a9565b509392505050565b61062e338383610abb565b5050565b6000331561067d5760405162461bcd60e51b81526020600482015260186024820152772cb7ba9030b932903737ba103bb434ba32b634b9ba32b21760411b60448201526064016102ce565b6005546001600160a01b03838116911614156106e95760405162461bcd60e51b815260206004820152602560248201527f50726f7669646564206164647265737320616c72656164792073616665206164604482015264647265737360d81b60648201526084016102ce565b600580546001600160a01b0319166001600160a01b0384169081179091556040517fd4c1af98b758421a8d47b0bc04ecfa30233d5506955e8cde282417aa0d31d3b690600090a25060015b919050565b6001600160a01b03851633148061075557506107558533610225565b6107b35760405162461bcd60e51b815260206004820152602960248201527f455243313135353a2063616c6c6572206973206e6f74206f776e6572206e6f7260448201526808185c1c1c9bdd995960ba1b60648201526084016102ce565b6104f28585858585610b9c565b6001600160a01b0384166108205760405162461bcd60e51b815260206004820152602160248201527f455243313135353a206d696e7420746f20746865207a65726f206164647265736044820152607360f81b60648201526084016102ce565b336108408160008761083188610cb9565b61083a88610cb9565b87610d04565b6000848152602081815260408083206001600160a01b0389168452909152812080548592906108709084906116e2565b909155505060408051858152602081018590526001600160a01b0380881692600092918516917fc3d58168c5ae7397731d063d5bbf3d657854427343f4c083240f7aacaa2d0f62910160405180910390a46104f281600087878787610e10565b81518351146109325760405162461bcd60e51b815260206004820152602860248201527f455243313135353a2069647320616e6420616d6f756e7473206c656e677468206044820152670dad2e6dac2e8c6d60c31b60648201526084016102ce565b6001600160a01b0384166109585760405162461bcd60e51b81526004016102ce9061162f565b33610967818787878787610d04565b60005b8451811015610a4d576000858281518110610987576109876117aa565b6020026020010151905060008583815181106109a5576109a56117aa565b602090810291909101810151600084815280835260408082206001600160a01b038e1683529093529190912054909150818110156109f55760405162461bcd60e51b81526004016102ce90611674565b6000838152602081815260408083206001600160a01b038e8116855292528083208585039055908b16825281208054849290610a329084906116e2565b9250508190555050505080610a4690611779565b905061096a565b50846001600160a01b0316866001600160a01b0316826001600160a01b03167f4a39dc06d4c0dbc64b70af90fd698a233a518aa5d07e595d983b8c0526c8f7fb8787604051610a9d9291906115a6565b60405180910390a4610ab3818787878787610f7b565b505050505050565b816001600160a01b0316836001600160a01b03161415610b2f5760405162461bcd60e51b815260206004820152602960248201527f455243313135353a2073657474696e6720617070726f76616c20737461747573604482015268103337b91039b2b63360b91b60648201526084016102ce565b6001600160a01b03838116600081815260016020908152604080832094871680845294825291829020805460ff191686151590811790915591519182527f17307eab39ab6107e8899845ad3d59bd9653f200f220920489ca2b5937696c31910160405180910390a3505050565b6001600160a01b038416610bc25760405162461bcd60e51b81526004016102ce9061162f565b33610bd281878761083188610cb9565b6000848152602081815260408083206001600160a01b038a16845290915290205483811015610c135760405162461bcd60e51b81526004016102ce90611674565b6000858152602081815260408083206001600160a01b038b8116855292528083208785039055908816825281208054869290610c509084906116e2565b909155505060408051868152602081018690526001600160a01b03808916928a821692918616917fc3d58168c5ae7397731d063d5bbf3d657854427343f4c083240f7aacaa2d0f62910160405180910390a4610cb0828888888888610e10565b50505050505050565b60408051600180825281830190925260609160009190602080830190803683370190505090508281600081518110610cf357610cf36117aa565b602090810291909101015292915050565b6001600160a01b038516610d8b5760005b8351811015610d8957828181518110610d3057610d306117aa565b602002602001015160036000868481518110610d4e57610d4e6117aa565b602002602001015181526020019081526020016000206000828254610d7391906116e2565b90915550610d82905081611779565b9050610d15565b505b6001600160a01b038416610ab35760005b8351811015610cb057828181518110610db757610db76117aa565b602002602001015160036000868481518110610dd557610dd56117aa565b602002602001015181526020019081526020016000206000828254610dfa91906116fa565b90915550610e09905081611779565b9050610d9c565b6001600160a01b0384163b15610ab35760405163f23a6e6160e01b81526001600160a01b0385169063f23a6e6190610e54908990899088908890889060040161154e565b602060405180830381600087803b158015610e6e57600080fd5b505af1925050508015610e9e575060408051601f3d908101601f19168201909252610e9b91810190611432565b60015b610f4b57610eaa6117d6565b806308c379a01415610ee45750610ebf6117f2565b80610eca5750610ee6565b8060405162461bcd60e51b81526004016102ce91906115d4565b505b60405162461bcd60e51b815260206004820152603460248201527f455243313135353a207472616e7366657220746f206e6f6e20455243313135356044820152732932b1b2b4bb32b91034b6b83632b6b2b73a32b960611b60648201526084016102ce565b6001600160e01b0319811663f23a6e6160e01b14610cb05760405162461bcd60e51b81526004016102ce906115e7565b6001600160a01b0384163b15610ab35760405163bc197c8160e01b81526001600160a01b0385169063bc197c8190610fbf90899089908890889088906004016114f0565b602060405180830381600087803b158015610fd957600080fd5b505af1925050508015611009575060408051601f3d908101601f1916820190925261100691810190611432565b60015b61101557610eaa6117d6565b6001600160e01b0319811663bc197c8160e01b14610cb05760405162461bcd60e51b81526004016102ce906115e7565b80356001600160a01b038116811461073457600080fd5b600082601f83011261106d57600080fd5b8135602061107a826116be565b604051611087828261174c565b8381528281019150858301600585901b870184018810156110a757600080fd5b60005b858110156110c6578135845292840192908401906001016110aa565b5090979650505050505050565b600082601f8301126110e457600080fd5b813567ffffffffffffffff8111156110fe576110fe6117c0565b604051611115601f8301601f19166020018261174c565b81815284602083860101111561112a57600080fd5b816020850160208301376000918101602001919091529392505050565b60006020828403121561115957600080fd5b61116282611045565b9392505050565b6000806040838503121561117c57600080fd5b61118583611045565b915061119360208401611045565b90509250929050565b600080600080600060a086880312156111b457600080fd5b6111bd86611045565b94506111cb60208701611045565b9350604086013567ffffffffffffffff808211156111e857600080fd5b6111f489838a0161105c565b9450606088013591508082111561120a57600080fd5b61121689838a0161105c565b9350608088013591508082111561122c57600080fd5b50611239888289016110d3565b9150509295509295909350565b600080600080600060a0868803121561125e57600080fd5b61126786611045565b945061127560208701611045565b93506040860135925060608601359150608086013567ffffffffffffffff81111561129f57600080fd5b611239888289016110d3565b600080604083850312156112be57600080fd5b6112c783611045565b9150602083013580151581146112dc57600080fd5b809150509250929050565b600080604083850312156112fa57600080fd5b61130383611045565b946020939093013593505050565b60008060006060848603121561132657600080fd5b61132f84611045565b95602085013595506040909401359392505050565b6000806040838503121561135757600080fd5b823567ffffffffffffffff8082111561136f57600080fd5b818501915085601f83011261138357600080fd5b81356020611390826116be565b60405161139d828261174c565b8381528281019150858301600585901b870184018b10156113bd57600080fd5b600096505b848710156113e7576113d381611045565b8352600196909601959183019183016113c2565b50965050860135925050808211156113fe57600080fd5b5061140b8582860161105c565b9150509250929050565b60006020828403121561142757600080fd5b81356111628161187c565b60006020828403121561144457600080fd5b81516111628161187c565b60006020828403121561146157600080fd5b5035919050565b600081518084526020808501945080840160005b838110156114985781518752958201959082019060010161147c565b509495945050505050565b6000815180845260005b818110156114c9576020818501810151868301820152016114ad565b818111156114db576000602083870101525b50601f01601f19169290920160200192915050565b6001600160a01b0386811682528516602082015260a06040820181905260009061151c90830186611468565b828103606084015261152e8186611468565b9050828103608084015261154281856114a3565b98975050505050505050565b6001600160a01b03868116825285166020820152604081018490526060810183905260a060808201819052600090611588908301846114a3565b979650505050505050565b6020815260006111626020830184611468565b6040815260006115b96040830185611468565b82810360208401526115cb8185611468565b95945050505050565b60208152600061116260208301846114a3565b60208082526028908201527f455243313135353a204552433131353552656365697665722072656a656374656040820152676420746f6b656e7360c01b606082015260800190565b60208082526025908201527f455243313135353a207472616e7366657220746f20746865207a65726f206164604082015264647265737360d81b606082015260800190565b6020808252602a908201527f455243313135353a20696e73756666696369656e742062616c616e636520666f60408201526939103a3930b739b332b960b11b606082015260800190565b600067ffffffffffffffff8211156116d8576116d86117c0565b5060051b60200190565b600082198211156116f5576116f5611794565b500190565b60008282101561170c5761170c611794565b500390565b600181811c9082168061172557607f821691505b6020821081141561174657634e487b7160e01b600052602260045260246000fd5b50919050565b601f8201601f1916810167ffffffffffffffff81118282101715611772576117726117c0565b6040525050565b600060001982141561178d5761178d611794565b5060010190565b634e487b7160e01b600052601160045260246000fd5b634e487b7160e01b600052603260045260246000fd5b634e487b7160e01b600052604160045260246000fd5b600060033d11156117ef5760046000803e5060005160e01c5b90565b600060443d10156118005790565b6040516003193d81016004833e81513d67ffffffffffffffff816024840111818411171561183057505050505090565b82850191508151818111156118485750505050505090565b843d87010160208285010111156118625750505050505090565b6118716020828601018761174c565b509095945050505050565b6001600160e01b03198116811461189257600080fd5b5056fea2646970667358221220e940295d673465ee7f2c5d98a7ccd0169a1c65fcf35a17777ba830b07f62971f64736f6c63430008070033",
					"opcodes": "PUSH1 0x80 PUSH1 0x40 MSTORE CALLVALUE DUP1 ISZERO PUSH3 0x11 JUMPI PUSH1 0x0 DUP1 REVERT JUMPDEST POP PUSH1 0x40 MLOAD PUSH3 0x1B63 CODESIZE SUB DUP1 PUSH3 0x1B63 DUP4 CODECOPY DUP2 ADD PUSH1 0x40 DUP2 SWAP1 MSTORE PUSH3 0x34 SWAP2 PUSH3 0x144 JUMP JUMPDEST DUP2 PUSH3 0x40 DUP2 PUSH3 0x68 JUMP JUMPDEST POP PUSH1 0x5 DUP1 SLOAD PUSH1 0x1 PUSH1 0x1 PUSH1 0xA0 SHL SUB NOT AND PUSH1 0x1 PUSH1 0x1 PUSH1 0xA0 SHL SUB SWAP3 SWAP1 SWAP3 AND SWAP2 SWAP1 SWAP2 OR SWAP1 SSTORE POP PUSH3 0x288 JUMP JUMPDEST DUP1 MLOAD PUSH3 0x7D SWAP1 PUSH1 0x2 SWAP1 PUSH1 0x20 DUP5 ADD SWAP1 PUSH3 0x81 JUMP JUMPDEST POP POP JUMP JUMPDEST DUP3 DUP1 SLOAD PUSH3 0x8F SWAP1 PUSH3 0x235 JUMP JUMPDEST SWAP1 PUSH1 0x0 MSTORE PUSH1 0x20 PUSH1 0x0 KECCAK256 SWAP1 PUSH1 0x1F ADD PUSH1 0x20 SWAP1 DIV DUP2 ADD SWAP3 DUP3 PUSH3 0xB3 JUMPI PUSH1 0x0 DUP6 SSTORE PUSH3 0xFE JUMP JUMPDEST DUP3 PUSH1 0x1F LT PUSH3 0xCE JUMPI DUP1 MLOAD PUSH1 0xFF NOT AND DUP4 DUP1 ADD OR DUP6 SSTORE PUSH3 0xFE JUMP JUMPDEST DUP3 DUP1 ADD PUSH1 0x1 ADD DUP6 SSTORE DUP3 ISZERO PUSH3 0xFE JUMPI SWAP2 DUP3 ADD JUMPDEST DUP3 DUP2 GT ISZERO PUSH3 0xFE JUMPI DUP3 MLOAD DUP3 SSTORE SWAP2 PUSH1 0x20 ADD SWAP2 SWAP1 PUSH1 0x1 ADD SWAP1 PUSH3 0xE1 JUMP JUMPDEST POP PUSH3 0x10C SWAP3 SWAP2 POP PUSH3 0x110 JUMP JUMPDEST POP SWAP1 JUMP JUMPDEST JUMPDEST DUP1 DUP3 GT ISZERO PUSH3 0x10C JUMPI PUSH1 0x0 DUP2 SSTORE PUSH1 0x1 ADD PUSH3 0x111 JUMP JUMPDEST DUP1 MLOAD PUSH1 0x1 PUSH1 0x1 PUSH1 0xA0 SHL SUB DUP2 AND DUP2 EQ PUSH3 0x13F JUMPI PUSH1 0x0 DUP1 REVERT JUMPDEST SWAP2 SWAP1 POP JUMP JUMPDEST PUSH1 0x0 DUP1 PUSH1 0x40 DUP4 DUP6 SUB SLT ISZERO PUSH3 0x158 JUMPI PUSH1 0x0 DUP1 REVERT JUMPDEST DUP3 MLOAD PUSH1 0x1 PUSH1 0x1 PUSH1 0x40 SHL SUB DUP1 DUP3 GT ISZERO PUSH3 0x170 JUMPI PUSH1 0x0 DUP1 REVERT JUMPDEST DUP2 DUP6 ADD SWAP2 POP DUP6 PUSH1 0x1F DUP4 ADD SLT PUSH3 0x185 JUMPI PUSH1 0x0 DUP1 REVERT JUMPDEST DUP2 MLOAD DUP2 DUP2 GT ISZERO PUSH3 0x19A JUMPI PUSH3 0x19A PUSH3 0x272 JUMP JUMPDEST PUSH1 0x40 MLOAD PUSH1 0x1F DUP3 ADD PUSH1 0x1F NOT SWAP1 DUP2 AND PUSH1 0x3F ADD AND DUP2 ADD SWAP1 DUP4 DUP3 GT DUP2 DUP4 LT OR ISZERO PUSH3 0x1C5 JUMPI PUSH3 0x1C5 PUSH3 0x272 JUMP JUMPDEST DUP2 PUSH1 0x40 MSTORE DUP3 DUP2 MSTORE PUSH1 0x20 SWAP4 POP DUP9 DUP5 DUP5 DUP8 ADD ADD GT ISZERO PUSH3 0x1E2 JUMPI PUSH1 0x0 DUP1 REVERT JUMPDEST PUSH1 0x0 SWAP2 POP JUMPDEST DUP3 DUP3 LT ISZERO PUSH3 0x206 JUMPI DUP5 DUP3 ADD DUP5 ADD MLOAD DUP2 DUP4 ADD DUP6 ADD MSTORE SWAP1 DUP4 ADD SWAP1 PUSH3 0x1E7 JUMP JUMPDEST DUP3 DUP3 GT ISZERO PUSH3 0x218 JUMPI PUSH1 0x0 DUP5 DUP5 DUP4 ADD ADD MSTORE JUMPDEST SWAP6 POP PUSH3 0x22A SWAP2 POP POP DUP6 DUP3 ADD PUSH3 0x127 JUMP JUMPDEST SWAP3 POP POP POP SWAP3 POP SWAP3 SWAP1 POP JUMP JUMPDEST PUSH1 0x1 DUP2 DUP2 SHR SWAP1 DUP3 AND DUP1 PUSH3 0x24A JUMPI PUSH1 0x7F DUP3 AND SWAP2 POP JUMPDEST PUSH1 0x20 DUP3 LT DUP2 EQ ISZERO PUSH3 0x26C JUMPI PUSH4 0x4E487B71 PUSH1 0xE0 SHL PUSH1 0x0 MSTORE PUSH1 0x22 PUSH1 0x4 MSTORE PUSH1 0x24 PUSH1 0x0 REVERT JUMPDEST POP SWAP2 SWAP1 POP JUMP JUMPDEST PUSH4 0x4E487B71 PUSH1 0xE0 SHL PUSH1 0x0 MSTORE PUSH1 0x41 PUSH1 0x4 MSTORE PUSH1 0x24 PUSH1 0x0 REVERT JUMPDEST PUSH2 0x18CB DUP1 PUSH3 0x298 PUSH1 0x0 CODECOPY PUSH1 0x0 RETURN INVALID PUSH1 0x80 PUSH1 0x40 MSTORE CALLVALUE DUP1 ISZERO PUSH2 0x10 JUMPI PUSH1 0x0 DUP1 REVERT JUMPDEST POP PUSH1 0x4 CALLDATASIZE LT PUSH2 0xCE JUMPI PUSH1 0x0 CALLDATALOAD PUSH1 0xE0 SHR DUP1 PUSH4 0x4E1273F4 GT PUSH2 0x8C JUMPI DUP1 PUSH4 0xBD85B039 GT PUSH2 0x66 JUMPI DUP1 PUSH4 0xBD85B039 EQ PUSH2 0x1E4 JUMPI DUP1 PUSH4 0xCB450772 EQ PUSH2 0x204 JUMPI DUP1 PUSH4 0xE985E9C5 EQ PUSH2 0x217 JUMPI DUP1 PUSH4 0xF242432A EQ PUSH2 0x253 JUMPI PUSH1 0x0 DUP1 REVERT JUMPDEST DUP1 PUSH4 0x4E1273F4 EQ PUSH2 0x18F JUMPI DUP1 PUSH4 0x4F558E79 EQ PUSH2 0x1AF JUMPI DUP1 PUSH4 0xA22CB465 EQ PUSH2 0x1D1 JUMPI PUSH1 0x0 DUP1 REVERT JUMPDEST DUP1 PUSH3 0xFDD58E EQ PUSH2 0xD3 JUMPI DUP1 PUSH4 0x1FFC9A7 EQ PUSH2 0xF9 JUMPI DUP1 PUSH4 0xE89341C EQ PUSH2 0x11C JUMPI DUP1 PUSH4 0x156E29F6 EQ PUSH2 0x13C JUMPI DUP1 PUSH4 0x2EB2C2D6 EQ PUSH2 0x14F JUMPI DUP1 PUSH4 0x4B8C9C2D EQ PUSH2 0x164 JUMPI JUMPDEST PUSH1 0x0 DUP1 REVERT JUMPDEST PUSH2 0xE6 PUSH2 0xE1 CALLDATASIZE PUSH1 0x4 PUSH2 0x12E7 JUMP JUMPDEST PUSH2 0x266 JUMP JUMPDEST PUSH1 0x40 MLOAD SWAP1 DUP2 MSTORE PUSH1 0x20 ADD JUMPDEST PUSH1 0x40 MLOAD DUP1 SWAP2 SUB SWAP1 RETURN JUMPDEST PUSH2 0x10C PUSH2 0x107 CALLDATASIZE PUSH1 0x4 PUSH2 0x1415 JUMP JUMPDEST PUSH2 0x2FD JUMP JUMPDEST PUSH1 0x40 MLOAD SWAP1 ISZERO ISZERO DUP2 MSTORE PUSH1 0x20 ADD PUSH2 0xF0 JUMP JUMPDEST PUSH2 0x12F PUSH2 0x12A CALLDATASIZE PUSH1 0x4 PUSH2 0x144F JUMP JUMPDEST PUSH2 0x34F JUMP JUMPDEST PUSH1 0x40 MLOAD PUSH2 0xF0 SWAP2 SWAP1 PUSH2 0x15D4 JUMP JUMPDEST PUSH2 0x10C PUSH2 0x14A CALLDATASIZE PUSH1 0x4 PUSH2 0x1311 JUMP JUMPDEST PUSH2 0x3E3 JUMP JUMPDEST PUSH2 0x162 PUSH2 0x15D CALLDATASIZE PUSH1 0x4 PUSH2 0x119C JUMP JUMPDEST PUSH2 0x462 JUMP JUMPDEST STOP JUMPDEST PUSH1 0x5 SLOAD PUSH2 0x177 SWAP1 PUSH1 0x1 PUSH1 0x1 PUSH1 0xA0 SHL SUB AND DUP2 JUMP JUMPDEST PUSH1 0x40 MLOAD PUSH1 0x1 PUSH1 0x1 PUSH1 0xA0 SHL SUB SWAP1 SWAP2 AND DUP2 MSTORE PUSH1 0x20 ADD PUSH2 0xF0 JUMP JUMPDEST PUSH2 0x1A2 PUSH2 0x19D CALLDATASIZE PUSH1 0x4 PUSH2 0x1344 JUMP JUMPDEST PUSH2 0x4F9 JUMP JUMPDEST PUSH1 0x40 MLOAD PUSH2 0xF0 SWAP2 SWAP1 PUSH2 0x1593 JUMP JUMPDEST PUSH2 0x10C PUSH2 0x1BD CALLDATASIZE PUSH1 0x4 PUSH2 0x144F JUMP JUMPDEST PUSH1 0x0 SWAP1 DUP2 MSTORE PUSH1 0x3 PUSH1 0x20 MSTORE PUSH1 0x40 SWAP1 KECCAK256 SLOAD ISZERO ISZERO SWAP1 JUMP JUMPDEST PUSH2 0x162 PUSH2 0x1DF CALLDATASIZE PUSH1 0x4 PUSH2 0x12AB JUMP JUMPDEST PUSH2 0x623 JUMP JUMPDEST PUSH2 0xE6 PUSH2 0x1F2 CALLDATASIZE PUSH1 0x4 PUSH2 0x144F JUMP JUMPDEST PUSH1 0x0 SWAP1 DUP2 MSTORE PUSH1 0x3 PUSH1 0x20 MSTORE PUSH1 0x40 SWAP1 KECCAK256 SLOAD SWAP1 JUMP JUMPDEST PUSH2 0x10C PUSH2 0x212 CALLDATASIZE PUSH1 0x4 PUSH2 0x1147 JUMP JUMPDEST PUSH2 0x632 JUMP JUMPDEST PUSH2 0x10C PUSH2 0x225 CALLDATASIZE PUSH1 0x4 PUSH2 0x1169 JUMP JUMPDEST PUSH1 0x1 PUSH1 0x1 PUSH1 0xA0 SHL SUB SWAP2 DUP3 AND PUSH1 0x0 SWAP1 DUP2 MSTORE PUSH1 0x1 PUSH1 0x20 SWAP1 DUP2 MSTORE PUSH1 0x40 DUP1 DUP4 KECCAK256 SWAP4 SWAP1 SWAP5 AND DUP3 MSTORE SWAP2 SWAP1 SWAP2 MSTORE KECCAK256 SLOAD PUSH1 0xFF AND SWAP1 JUMP JUMPDEST PUSH2 0x162 PUSH2 0x261 CALLDATASIZE PUSH1 0x4 PUSH2 0x1246 JUMP JUMPDEST PUSH2 0x739 JUMP JUMPDEST PUSH1 0x0 PUSH1 0x1 PUSH1 0x1 PUSH1 0xA0 SHL SUB DUP4 AND PUSH2 0x2D7 JUMPI PUSH1 0x40 MLOAD PUSH3 0x461BCD PUSH1 0xE5 SHL DUP2 MSTORE PUSH1 0x20 PUSH1 0x4 DUP3 ADD MSTORE PUSH1 0x2B PUSH1 0x24 DUP3 ADD MSTORE PUSH32 0x455243313135353A2062616C616E636520717565727920666F7220746865207A PUSH1 0x44 DUP3 ADD MSTORE PUSH11 0x65726F2061646472657373 PUSH1 0xA8 SHL PUSH1 0x64 DUP3 ADD MSTORE PUSH1 0x84 ADD JUMPDEST PUSH1 0x40 MLOAD DUP1 SWAP2 SUB SWAP1 REVERT JUMPDEST POP PUSH1 0x0 SWAP1 DUP2 MSTORE PUSH1 0x20 DUP2 DUP2 MSTORE PUSH1 0x40 DUP1 DUP4 KECCAK256 PUSH1 0x1 PUSH1 0x1 PUSH1 0xA0 SHL SUB SWAP5 SWAP1 SWAP5 AND DUP4 MSTORE SWAP3 SWAP1 MSTORE KECCAK256 SLOAD SWAP1 JUMP JUMPDEST PUSH1 0x0 PUSH1 0x1 PUSH1 0x1 PUSH1 0xE0 SHL SUB NOT DUP3 AND PUSH4 0x6CDB3D13 PUSH1 0xE1 SHL EQ DUP1 PUSH2 0x32E JUMPI POP PUSH1 0x1 PUSH1 0x1 PUSH1 0xE0 SHL SUB NOT DUP3 AND PUSH4 0x3A24D07 PUSH1 0xE2 SHL EQ JUMPDEST DUP1 PUSH2 0x349 JUMPI POP PUSH4 0x1FFC9A7 PUSH1 0xE0 SHL PUSH1 0x1 PUSH1 0x1 PUSH1 0xE0 SHL SUB NOT DUP4 AND EQ JUMPDEST SWAP3 SWAP2 POP POP JUMP JUMPDEST PUSH1 0x60 PUSH1 0x2 DUP1 SLOAD PUSH2 0x35E SWAP1 PUSH2 0x1711 JUMP JUMPDEST DUP1 PUSH1 0x1F ADD PUSH1 0x20 DUP1 SWAP2 DIV MUL PUSH1 0x20 ADD PUSH1 0x40 MLOAD SWAP1 DUP2 ADD PUSH1 0x40 MSTORE DUP1 SWAP3 SWAP2 SWAP1 DUP2 DUP2 MSTORE PUSH1 0x20 ADD DUP3 DUP1 SLOAD PUSH2 0x38A SWAP1 PUSH2 0x1711 JUMP JUMPDEST DUP1 ISZERO PUSH2 0x3D7 JUMPI DUP1 PUSH1 0x1F LT PUSH2 0x3AC JUMPI PUSH2 0x100 DUP1 DUP4 SLOAD DIV MUL DUP4 MSTORE SWAP2 PUSH1 0x20 ADD SWAP2 PUSH2 0x3D7 JUMP JUMPDEST DUP3 ADD SWAP2 SWAP1 PUSH1 0x0 MSTORE PUSH1 0x20 PUSH1 0x0 KECCAK256 SWAP1 JUMPDEST DUP2 SLOAD DUP2 MSTORE SWAP1 PUSH1 0x1 ADD SWAP1 PUSH1 0x20 ADD DUP1 DUP4 GT PUSH2 0x3BA JUMPI DUP3 SWAP1 SUB PUSH1 0x1F AND DUP3 ADD SWAP2 JUMPDEST POP POP POP POP POP SWAP1 POP SWAP2 SWAP1 POP JUMP JUMPDEST CALLER PUSH1 0x0 SWAP1 DUP2 MSTORE PUSH1 0x4 PUSH1 0x20 MSTORE PUSH1 0x40 DUP2 KECCAK256 SLOAD PUSH1 0xFF AND PUSH2 0x43D JUMPI PUSH1 0x40 MLOAD PUSH3 0x461BCD PUSH1 0xE5 SHL DUP2 MSTORE PUSH1 0x20 PUSH1 0x4 DUP3 ADD MSTORE PUSH1 0x18 PUSH1 0x24 DUP3 ADD MSTORE PUSH24 0x2CB7BA9030B932903737BA103BB434BA32B634B9BA32B217 PUSH1 0x41 SHL PUSH1 0x44 DUP3 ADD MSTORE PUSH1 0x64 ADD PUSH2 0x2CE JUMP JUMPDEST PUSH2 0x458 DUP5 DUP5 DUP5 PUSH1 0x40 MLOAD DUP1 PUSH1 0x20 ADD PUSH1 0x40 MSTORE DUP1 PUSH1 0x0 DUP2 MSTORE POP PUSH2 0x7C0 JUMP JUMPDEST POP PUSH1 0x1 SWAP4 SWAP3 POP POP POP JUMP JUMPDEST PUSH1 0x1 PUSH1 0x1 PUSH1 0xA0 SHL SUB DUP6 AND CALLER EQ DUP1 PUSH2 0x47E JUMPI POP PUSH2 0x47E DUP6 CALLER PUSH2 0x225 JUMP JUMPDEST PUSH2 0x4E5 JUMPI PUSH1 0x40 MLOAD PUSH3 0x461BCD PUSH1 0xE5 SHL DUP2 MSTORE PUSH1 0x20 PUSH1 0x4 DUP3 ADD MSTORE PUSH1 0x32 PUSH1 0x24 DUP3 ADD MSTORE PUSH32 0x455243313135353A207472616E736665722063616C6C6572206973206E6F7420 PUSH1 0x44 DUP3 ADD MSTORE PUSH18 0x1BDDDB995C881B9BDC88185C1C1C9BDD9959 PUSH1 0x72 SHL PUSH1 0x64 DUP3 ADD MSTORE PUSH1 0x84 ADD PUSH2 0x2CE JUMP JUMPDEST PUSH2 0x4F2 DUP6 DUP6 DUP6 DUP6 DUP6 PUSH2 0x8D0 JUMP JUMPDEST POP POP POP POP POP JUMP JUMPDEST PUSH1 0x60 DUP2 MLOAD DUP4 MLOAD EQ PUSH2 0x55E JUMPI PUSH1 0x40 MLOAD PUSH3 0x461BCD PUSH1 0xE5 SHL DUP2 MSTORE PUSH1 0x20 PUSH1 0x4 DUP3 ADD MSTORE PUSH1 0x29 PUSH1 0x24 DUP3 ADD MSTORE PUSH32 0x455243313135353A206163636F756E747320616E6420696473206C656E677468 PUSH1 0x44 DUP3 ADD MSTORE PUSH9 0x40DAD2E6DAC2E8C6D PUSH1 0xBB SHL PUSH1 0x64 DUP3 ADD MSTORE PUSH1 0x84 ADD PUSH2 0x2CE JUMP JUMPDEST PUSH1 0x0 DUP4 MLOAD PUSH8 0xFFFFFFFFFFFFFFFF DUP2 GT ISZERO PUSH2 0x57A JUMPI PUSH2 0x57A PUSH2 0x17C0 JUMP JUMPDEST PUSH1 0x40 MLOAD SWAP1 DUP1 DUP3 MSTORE DUP1 PUSH1 0x20 MUL PUSH1 0x20 ADD DUP3 ADD PUSH1 0x40 MSTORE DUP1 ISZERO PUSH2 0x5A3 JUMPI DUP2 PUSH1 0x20 ADD PUSH1 0x20 DUP3 MUL DUP1 CALLDATASIZE DUP4 CALLDATACOPY ADD SWAP1 POP JUMPDEST POP SWAP1 POP PUSH1 0x0 JUMPDEST DUP5 MLOAD DUP2 LT ISZERO PUSH2 0x61B JUMPI PUSH2 0x5EE DUP6 DUP3 DUP2 MLOAD DUP2 LT PUSH2 0x5C7 JUMPI PUSH2 0x5C7 PUSH2 0x17AA JUMP JUMPDEST PUSH1 0x20 MUL PUSH1 0x20 ADD ADD MLOAD DUP6 DUP4 DUP2 MLOAD DUP2 LT PUSH2 0x5E1 JUMPI PUSH2 0x5E1 PUSH2 0x17AA JUMP JUMPDEST PUSH1 0x20 MUL PUSH1 0x20 ADD ADD MLOAD PUSH2 0x266 JUMP JUMPDEST DUP3 DUP3 DUP2 MLOAD DUP2 LT PUSH2 0x600 JUMPI PUSH2 0x600 PUSH2 0x17AA JUMP JUMPDEST PUSH1 0x20 SWAP1 DUP2 MUL SWAP2 SWAP1 SWAP2 ADD ADD MSTORE PUSH2 0x614 DUP2 PUSH2 0x1779 JUMP JUMPDEST SWAP1 POP PUSH2 0x5A9 JUMP JUMPDEST POP SWAP4 SWAP3 POP POP POP JUMP JUMPDEST PUSH2 0x62E CALLER DUP4 DUP4 PUSH2 0xABB JUMP JUMPDEST POP POP JUMP JUMPDEST PUSH1 0x0 CALLER ISZERO PUSH2 0x67D JUMPI PUSH1 0x40 MLOAD PUSH3 0x461BCD PUSH1 0xE5 SHL DUP2 MSTORE PUSH1 0x20 PUSH1 0x4 DUP3 ADD MSTORE PUSH1 0x18 PUSH1 0x24 DUP3 ADD MSTORE PUSH24 0x2CB7BA9030B932903737BA103BB434BA32B634B9BA32B217 PUSH1 0x41 SHL PUSH1 0x44 DUP3 ADD MSTORE PUSH1 0x64 ADD PUSH2 0x2CE JUMP JUMPDEST PUSH1 0x5 SLOAD PUSH1 0x1 PUSH1 0x1 PUSH1 0xA0 SHL SUB DUP4 DUP2 AND SWAP2 AND EQ ISZERO PUSH2 0x6E9 JUMPI PUSH1 0x40 MLOAD PUSH3 0x461BCD PUSH1 0xE5 SHL DUP2 MSTORE PUSH1 0x20 PUSH1 0x4 DUP3 ADD MSTORE PUSH1 0x25 PUSH1 0x24 DUP3 ADD MSTORE PUSH32 0x50726F7669646564206164647265737320616C72656164792073616665206164 PUSH1 0x44 DUP3 ADD MSTORE PUSH5 0x6472657373 PUSH1 0xD8 SHL PUSH1 0x64 DUP3 ADD MSTORE PUSH1 0x84 ADD PUSH2 0x2CE JUMP JUMPDEST PUSH1 0x5 DUP1 SLOAD PUSH1 0x1 PUSH1 0x1 PUSH1 0xA0 SHL SUB NOT AND PUSH1 0x1 PUSH1 0x1 PUSH1 0xA0 SHL SUB DUP5 AND SWAP1 DUP2 OR SWAP1 SWAP2 SSTORE PUSH1 0x40 MLOAD PUSH32 0xD4C1AF98B758421A8D47B0BC04ECFA30233D5506955E8CDE282417AA0D31D3B6 SWAP1 PUSH1 0x0 SWAP1 LOG2 POP PUSH1 0x1 JUMPDEST SWAP2 SWAP1 POP JUMP JUMPDEST PUSH1 0x1 PUSH1 0x1 PUSH1 0xA0 SHL SUB DUP6 AND CALLER EQ DUP1 PUSH2 0x755 JUMPI POP PUSH2 0x755 DUP6 CALLER PUSH2 0x225 JUMP JUMPDEST PUSH2 0x7B3 JUMPI PUSH1 0x40 MLOAD PUSH3 0x461BCD PUSH1 0xE5 SHL DUP2 MSTORE PUSH1 0x20 PUSH1 0x4 DUP3 ADD MSTORE PUSH1 0x29 PUSH1 0x24 DUP3 ADD MSTORE PUSH32 0x455243313135353A2063616C6C6572206973206E6F74206F776E6572206E6F72 PUSH1 0x44 DUP3 ADD MSTORE PUSH9 0x8185C1C1C9BDD9959 PUSH1 0xBA SHL PUSH1 0x64 DUP3 ADD MSTORE PUSH1 0x84 ADD PUSH2 0x2CE JUMP JUMPDEST PUSH2 0x4F2 DUP6 DUP6 DUP6 DUP6 DUP6 PUSH2 0xB9C JUMP JUMPDEST PUSH1 0x1 PUSH1 0x1 PUSH1 0xA0 SHL SUB DUP5 AND PUSH2 0x820 JUMPI PUSH1 0x40 MLOAD PUSH3 0x461BCD PUSH1 0xE5 SHL DUP2 MSTORE PUSH1 0x20 PUSH1 0x4 DUP3 ADD MSTORE PUSH1 0x21 PUSH1 0x24 DUP3 ADD MSTORE PUSH32 0x455243313135353A206D696E7420746F20746865207A65726F20616464726573 PUSH1 0x44 DUP3 ADD MSTORE PUSH1 0x73 PUSH1 0xF8 SHL PUSH1 0x64 DUP3 ADD MSTORE PUSH1 0x84 ADD PUSH2 0x2CE JUMP JUMPDEST CALLER PUSH2 0x840 DUP2 PUSH1 0x0 DUP8 PUSH2 0x831 DUP9 PUSH2 0xCB9 JUMP JUMPDEST PUSH2 0x83A DUP9 PUSH2 0xCB9 JUMP JUMPDEST DUP8 PUSH2 0xD04 JUMP JUMPDEST PUSH1 0x0 DUP5 DUP2 MSTORE PUSH1 0x20 DUP2 DUP2 MSTORE PUSH1 0x40 DUP1 DUP4 KECCAK256 PUSH1 0x1 PUSH1 0x1 PUSH1 0xA0 SHL SUB DUP10 AND DUP5 MSTORE SWAP1 SWAP2 MSTORE DUP2 KECCAK256 DUP1 SLOAD DUP6 SWAP3 SWAP1 PUSH2 0x870 SWAP1 DUP5 SWAP1 PUSH2 0x16E2 JUMP JUMPDEST SWAP1 SWAP2 SSTORE POP POP PUSH1 0x40 DUP1 MLOAD DUP6 DUP2 MSTORE PUSH1 0x20 DUP2 ADD DUP6 SWAP1 MSTORE PUSH1 0x1 PUSH1 0x1 PUSH1 0xA0 SHL SUB DUP1 DUP9 AND SWAP3 PUSH1 0x0 SWAP3 SWAP2 DUP6 AND SWAP2 PUSH32 0xC3D58168C5AE7397731D063D5BBF3D657854427343F4C083240F7AACAA2D0F62 SWAP2 ADD PUSH1 0x40 MLOAD DUP1 SWAP2 SUB SWAP1 LOG4 PUSH2 0x4F2 DUP2 PUSH1 0x0 DUP8 DUP8 DUP8 DUP8 PUSH2 0xE10 JUMP JUMPDEST DUP2 MLOAD DUP4 MLOAD EQ PUSH2 0x932 JUMPI PUSH1 0x40 MLOAD PUSH3 0x461BCD PUSH1 0xE5 SHL DUP2 MSTORE PUSH1 0x20 PUSH1 0x4 DUP3 ADD MSTORE PUSH1 0x28 PUSH1 0x24 DUP3 ADD MSTORE PUSH32 0x455243313135353A2069647320616E6420616D6F756E7473206C656E67746820 PUSH1 0x44 DUP3 ADD MSTORE PUSH8 0xDAD2E6DAC2E8C6D PUSH1 0xC3 SHL PUSH1 0x64 DUP3 ADD MSTORE PUSH1 0x84 ADD PUSH2 0x2CE JUMP JUMPDEST PUSH1 0x1 PUSH1 0x1 PUSH1 0xA0 SHL SUB DUP5 AND PUSH2 0x958 JUMPI PUSH1 0x40 MLOAD PUSH3 0x461BCD PUSH1 0xE5 SHL DUP2 MSTORE PUSH1 0x4 ADD PUSH2 0x2CE SWAP1 PUSH2 0x162F JUMP JUMPDEST CALLER PUSH2 0x967 DUP2 DUP8 DUP8 DUP8 DUP8 DUP8 PUSH2 0xD04 JUMP JUMPDEST PUSH1 0x0 JUMPDEST DUP5 MLOAD DUP2 LT ISZERO PUSH2 0xA4D JUMPI PUSH1 0x0 DUP6 DUP3 DUP2 MLOAD DUP2 LT PUSH2 0x987 JUMPI PUSH2 0x987 PUSH2 0x17AA JUMP JUMPDEST PUSH1 0x20 MUL PUSH1 0x20 ADD ADD MLOAD SWAP1 POP PUSH1 0x0 DUP6 DUP4 DUP2 MLOAD DUP2 LT PUSH2 0x9A5 JUMPI PUSH2 0x9A5 PUSH2 0x17AA JUMP JUMPDEST PUSH1 0x20 SWAP1 DUP2 MUL SWAP2 SWAP1 SWAP2 ADD DUP2 ADD MLOAD PUSH1 0x0 DUP5 DUP2 MSTORE DUP1 DUP4 MSTORE PUSH1 0x40 DUP1 DUP3 KECCAK256 PUSH1 0x1 PUSH1 0x1 PUSH1 0xA0 SHL SUB DUP15 AND DUP4 MSTORE SWAP1 SWAP4 MSTORE SWAP2 SWAP1 SWAP2 KECCAK256 SLOAD SWAP1 SWAP2 POP DUP2 DUP2 LT ISZERO PUSH2 0x9F5 JUMPI PUSH1 0x40 MLOAD PUSH3 0x461BCD PUSH1 0xE5 SHL DUP2 MSTORE PUSH1 0x4 ADD PUSH2 0x2CE SWAP1 PUSH2 0x1674 JUMP JUMPDEST PUSH1 0x0 DUP4 DUP2 MSTORE PUSH1 0x20 DUP2 DUP2 MSTORE PUSH1 0x40 DUP1 DUP4 KECCAK256 PUSH1 0x1 PUSH1 0x1 PUSH1 0xA0 SHL SUB DUP15 DUP2 AND DUP6 MSTORE SWAP3 MSTORE DUP1 DUP4 KECCAK256 DUP6 DUP6 SUB SWAP1 SSTORE SWAP1 DUP12 AND DUP3 MSTORE DUP2 KECCAK256 DUP1 SLOAD DUP5 SWAP3 SWAP1 PUSH2 0xA32 SWAP1 DUP5 SWAP1 PUSH2 0x16E2 JUMP JUMPDEST SWAP3 POP POP DUP2 SWAP1 SSTORE POP POP POP POP DUP1 PUSH2 0xA46 SWAP1 PUSH2 0x1779 JUMP JUMPDEST SWAP1 POP PUSH2 0x96A JUMP JUMPDEST POP DUP5 PUSH1 0x1 PUSH1 0x1 PUSH1 0xA0 SHL SUB AND DUP7 PUSH1 0x1 PUSH1 0x1 PUSH1 0xA0 SHL SUB AND DUP3 PUSH1 0x1 PUSH1 0x1 PUSH1 0xA0 SHL SUB AND PUSH32 0x4A39DC06D4C0DBC64B70AF90FD698A233A518AA5D07E595D983B8C0526C8F7FB DUP8 DUP8 PUSH1 0x40 MLOAD PUSH2 0xA9D SWAP3 SWAP2 SWAP1 PUSH2 0x15A6 JUMP JUMPDEST PUSH1 0x40 MLOAD DUP1 SWAP2 SUB SWAP1 LOG4 PUSH2 0xAB3 DUP2 DUP8 DUP8 DUP8 DUP8 DUP8 PUSH2 0xF7B JUMP JUMPDEST POP POP POP POP POP POP JUMP JUMPDEST DUP2 PUSH1 0x1 PUSH1 0x1 PUSH1 0xA0 SHL SUB AND DUP4 PUSH1 0x1 PUSH1 0x1 PUSH1 0xA0 SHL SUB AND EQ ISZERO PUSH2 0xB2F JUMPI PUSH1 0x40 MLOAD PUSH3 0x461BCD PUSH1 0xE5 SHL DUP2 MSTORE PUSH1 0x20 PUSH1 0x4 DUP3 ADD MSTORE PUSH1 0x29 PUSH1 0x24 DUP3 ADD MSTORE PUSH32 0x455243313135353A2073657474696E6720617070726F76616C20737461747573 PUSH1 0x44 DUP3 ADD MSTORE PUSH9 0x103337B91039B2B633 PUSH1 0xB9 SHL PUSH1 0x64 DUP3 ADD MSTORE PUSH1 0x84 ADD PUSH2 0x2CE JUMP JUMPDEST PUSH1 0x1 PUSH1 0x1 PUSH1 0xA0 SHL SUB DUP4 DUP2 AND PUSH1 0x0 DUP2 DUP2 MSTORE PUSH1 0x1 PUSH1 0x20 SWAP1 DUP2 MSTORE PUSH1 0x40 DUP1 DUP4 KECCAK256 SWAP5 DUP8 AND DUP1 DUP5 MSTORE SWAP5 DUP3 MSTORE SWAP2 DUP3 SWAP1 KECCAK256 DUP1 SLOAD PUSH1 0xFF NOT AND DUP7 ISZERO ISZERO SWAP1 DUP2 OR SWAP1 SWAP2 SSTORE SWAP2 MLOAD SWAP2 DUP3 MSTORE PUSH32 0x17307EAB39AB6107E8899845AD3D59BD9653F200F220920489CA2B5937696C31 SWAP2 ADD PUSH1 0x40 MLOAD DUP1 SWAP2 SUB SWAP1 LOG3 POP POP POP JUMP JUMPDEST PUSH1 0x1 PUSH1 0x1 PUSH1 0xA0 SHL SUB DUP5 AND PUSH2 0xBC2 JUMPI PUSH1 0x40 MLOAD PUSH3 0x461BCD PUSH1 0xE5 SHL DUP2 MSTORE PUSH1 0x4 ADD PUSH2 0x2CE SWAP1 PUSH2 0x162F JUMP JUMPDEST CALLER PUSH2 0xBD2 DUP2 DUP8 DUP8 PUSH2 0x831 DUP9 PUSH2 0xCB9 JUMP JUMPDEST PUSH1 0x0 DUP5 DUP2 MSTORE PUSH1 0x20 DUP2 DUP2 MSTORE PUSH1 0x40 DUP1 DUP4 KECCAK256 PUSH1 0x1 PUSH1 0x1 PUSH1 0xA0 SHL SUB DUP11 AND DUP5 MSTORE SWAP1 SWAP2 MSTORE SWAP1 KECCAK256 SLOAD DUP4 DUP2 LT ISZERO PUSH2 0xC13 JUMPI PUSH1 0x40 MLOAD PUSH3 0x461BCD PUSH1 0xE5 SHL DUP2 MSTORE PUSH1 0x4 ADD PUSH2 0x2CE SWAP1 PUSH2 0x1674 JUMP JUMPDEST PUSH1 0x0 DUP6 DUP2 MSTORE PUSH1 0x20 DUP2 DUP2 MSTORE PUSH1 0x40 DUP1 DUP4 KECCAK256 PUSH1 0x1 PUSH1 0x1 PUSH1 0xA0 SHL SUB DUP12 DUP2 AND DUP6 MSTORE SWAP3 MSTORE DUP1 DUP4 KECCAK256 DUP8 DUP6 SUB SWAP1 SSTORE SWAP1 DUP9 AND DUP3 MSTORE DUP2 KECCAK256 DUP1 SLOAD DUP7 SWAP3 SWAP1 PUSH2 0xC50 SWAP1 DUP5 SWAP1 PUSH2 0x16E2 JUMP JUMPDEST SWAP1 SWAP2 SSTORE POP POP PUSH1 0x40 DUP1 MLOAD DUP7 DUP2 MSTORE PUSH1 0x20 DUP2 ADD DUP7 SWAP1 MSTORE PUSH1 0x1 PUSH1 0x1 PUSH1 0xA0 SHL SUB DUP1 DUP10 AND SWAP3 DUP11 DUP3 AND SWAP3 SWAP2 DUP7 AND SWAP2 PUSH32 0xC3D58168C5AE7397731D063D5BBF3D657854427343F4C083240F7AACAA2D0F62 SWAP2 ADD PUSH1 0x40 MLOAD DUP1 SWAP2 SUB SWAP1 LOG4 PUSH2 0xCB0 DUP3 DUP9 DUP9 DUP9 DUP9 DUP9 PUSH2 0xE10 JUMP JUMPDEST POP POP POP POP POP POP POP JUMP JUMPDEST PUSH1 0x40 DUP1 MLOAD PUSH1 0x1 DUP1 DUP3 MSTORE DUP2 DUP4 ADD SWAP1 SWAP3 MSTORE PUSH1 0x60 SWAP2 PUSH1 0x0 SWAP2 SWAP1 PUSH1 0x20 DUP1 DUP4 ADD SWAP1 DUP1 CALLDATASIZE DUP4 CALLDATACOPY ADD SWAP1 POP POP SWAP1 POP DUP3 DUP2 PUSH1 0x0 DUP2 MLOAD DUP2 LT PUSH2 0xCF3 JUMPI PUSH2 0xCF3 PUSH2 0x17AA JUMP JUMPDEST PUSH1 0x20 SWAP1 DUP2 MUL SWAP2 SWAP1 SWAP2 ADD ADD MSTORE SWAP3 SWAP2 POP POP JUMP JUMPDEST PUSH1 0x1 PUSH1 0x1 PUSH1 0xA0 SHL SUB DUP6 AND PUSH2 0xD8B JUMPI PUSH1 0x0 JUMPDEST DUP4 MLOAD DUP2 LT ISZERO PUSH2 0xD89 JUMPI DUP3 DUP2 DUP2 MLOAD DUP2 LT PUSH2 0xD30 JUMPI PUSH2 0xD30 PUSH2 0x17AA JUMP JUMPDEST PUSH1 0x20 MUL PUSH1 0x20 ADD ADD MLOAD PUSH1 0x3 PUSH1 0x0 DUP7 DUP5 DUP2 MLOAD DUP2 LT PUSH2 0xD4E JUMPI PUSH2 0xD4E PUSH2 0x17AA JUMP JUMPDEST PUSH1 0x20 MUL PUSH1 0x20 ADD ADD MLOAD DUP2 MSTORE PUSH1 0x20 ADD SWAP1 DUP2 MSTORE PUSH1 0x20 ADD PUSH1 0x0 KECCAK256 PUSH1 0x0 DUP3 DUP3 SLOAD PUSH2 0xD73 SWAP2 SWAP1 PUSH2 0x16E2 JUMP JUMPDEST SWAP1 SWAP2 SSTORE POP PUSH2 0xD82 SWAP1 POP DUP2 PUSH2 0x1779 JUMP JUMPDEST SWAP1 POP PUSH2 0xD15 JUMP JUMPDEST POP JUMPDEST PUSH1 0x1 PUSH1 0x1 PUSH1 0xA0 SHL SUB DUP5 AND PUSH2 0xAB3 JUMPI PUSH1 0x0 JUMPDEST DUP4 MLOAD DUP2 LT ISZERO PUSH2 0xCB0 JUMPI DUP3 DUP2 DUP2 MLOAD DUP2 LT PUSH2 0xDB7 JUMPI PUSH2 0xDB7 PUSH2 0x17AA JUMP JUMPDEST PUSH1 0x20 MUL PUSH1 0x20 ADD ADD MLOAD PUSH1 0x3 PUSH1 0x0 DUP7 DUP5 DUP2 MLOAD DUP2 LT PUSH2 0xDD5 JUMPI PUSH2 0xDD5 PUSH2 0x17AA JUMP JUMPDEST PUSH1 0x20 MUL PUSH1 0x20 ADD ADD MLOAD DUP2 MSTORE PUSH1 0x20 ADD SWAP1 DUP2 MSTORE PUSH1 0x20 ADD PUSH1 0x0 KECCAK256 PUSH1 0x0 DUP3 DUP3 SLOAD PUSH2 0xDFA SWAP2 SWAP1 PUSH2 0x16FA JUMP JUMPDEST SWAP1 SWAP2 SSTORE POP PUSH2 0xE09 SWAP1 POP DUP2 PUSH2 0x1779 JUMP JUMPDEST SWAP1 POP PUSH2 0xD9C JUMP JUMPDEST PUSH1 0x1 PUSH1 0x1 PUSH1 0xA0 SHL SUB DUP5 AND EXTCODESIZE ISZERO PUSH2 0xAB3 JUMPI PUSH1 0x40 MLOAD PUSH4 0xF23A6E61 PUSH1 0xE0 SHL DUP2 MSTORE PUSH1 0x1 PUSH1 0x1 PUSH1 0xA0 SHL SUB DUP6 AND SWAP1 PUSH4 0xF23A6E61 SWAP1 PUSH2 0xE54 SWAP1 DUP10 SWAP1 DUP10 SWAP1 DUP9 SWAP1 DUP9 SWAP1 DUP9 SWAP1 PUSH1 0x4 ADD PUSH2 0x154E JUMP JUMPDEST PUSH1 0x20 PUSH1 0x40 MLOAD DUP1 DUP4 SUB DUP2 PUSH1 0x0 DUP8 DUP1 EXTCODESIZE ISZERO DUP1 ISZERO PUSH2 0xE6E JUMPI PUSH1 0x0 DUP1 REVERT JUMPDEST POP GAS CALL SWAP3 POP POP POP DUP1 ISZERO PUSH2 0xE9E JUMPI POP PUSH1 0x40 DUP1 MLOAD PUSH1 0x1F RETURNDATASIZE SWAP1 DUP2 ADD PUSH1 0x1F NOT AND DUP3 ADD SWAP1 SWAP3 MSTORE PUSH2 0xE9B SWAP2 DUP2 ADD SWAP1 PUSH2 0x1432 JUMP JUMPDEST PUSH1 0x1 JUMPDEST PUSH2 0xF4B JUMPI PUSH2 0xEAA PUSH2 0x17D6 JUMP JUMPDEST DUP1 PUSH4 0x8C379A0 EQ ISZERO PUSH2 0xEE4 JUMPI POP PUSH2 0xEBF PUSH2 0x17F2 JUMP JUMPDEST DUP1 PUSH2 0xECA JUMPI POP PUSH2 0xEE6 JUMP JUMPDEST DUP1 PUSH1 0x40 MLOAD PUSH3 0x461BCD PUSH1 0xE5 SHL DUP2 MSTORE PUSH1 0x4 ADD PUSH2 0x2CE SWAP2 SWAP1 PUSH2 0x15D4 JUMP JUMPDEST POP JUMPDEST PUSH1 0x40 MLOAD PUSH3 0x461BCD PUSH1 0xE5 SHL DUP2 MSTORE PUSH1 0x20 PUSH1 0x4 DUP3 ADD MSTORE PUSH1 0x34 PUSH1 0x24 DUP3 ADD MSTORE PUSH32 0x455243313135353A207472616E7366657220746F206E6F6E2045524331313535 PUSH1 0x44 DUP3 ADD MSTORE PUSH20 0x2932B1B2B4BB32B91034B6B83632B6B2B73A32B9 PUSH1 0x61 SHL PUSH1 0x64 DUP3 ADD MSTORE PUSH1 0x84 ADD PUSH2 0x2CE JUMP JUMPDEST PUSH1 0x1 PUSH1 0x1 PUSH1 0xE0 SHL SUB NOT DUP2 AND PUSH4 0xF23A6E61 PUSH1 0xE0 SHL EQ PUSH2 0xCB0 JUMPI PUSH1 0x40 MLOAD PUSH3 0x461BCD PUSH1 0xE5 SHL DUP2 MSTORE PUSH1 0x4 ADD PUSH2 0x2CE SWAP1 PUSH2 0x15E7 JUMP JUMPDEST PUSH1 0x1 PUSH1 0x1 PUSH1 0xA0 SHL SUB DUP5 AND EXTCODESIZE ISZERO PUSH2 0xAB3 JUMPI PUSH1 0x40 MLOAD PUSH4 0xBC197C81 PUSH1 0xE0 SHL DUP2 MSTORE PUSH1 0x1 PUSH1 0x1 PUSH1 0xA0 SHL SUB DUP6 AND SWAP1 PUSH4 0xBC197C81 SWAP1 PUSH2 0xFBF SWAP1 DUP10 SWAP1 DUP10 SWAP1 DUP9 SWAP1 DUP9 SWAP1 DUP9 SWAP1 PUSH1 0x4 ADD PUSH2 0x14F0 JUMP JUMPDEST PUSH1 0x20 PUSH1 0x40 MLOAD DUP1 DUP4 SUB DUP2 PUSH1 0x0 DUP8 DUP1 EXTCODESIZE ISZERO DUP1 ISZERO PUSH2 0xFD9 JUMPI PUSH1 0x0 DUP1 REVERT JUMPDEST POP GAS CALL SWAP3 POP POP POP DUP1 ISZERO PUSH2 0x1009 JUMPI POP PUSH1 0x40 DUP1 MLOAD PUSH1 0x1F RETURNDATASIZE SWAP1 DUP2 ADD PUSH1 0x1F NOT AND DUP3 ADD SWAP1 SWAP3 MSTORE PUSH2 0x1006 SWAP2 DUP2 ADD SWAP1 PUSH2 0x1432 JUMP JUMPDEST PUSH1 0x1 JUMPDEST PUSH2 0x1015 JUMPI PUSH2 0xEAA PUSH2 0x17D6 JUMP JUMPDEST PUSH1 0x1 PUSH1 0x1 PUSH1 0xE0 SHL SUB NOT DUP2 AND PUSH4 0xBC197C81 PUSH1 0xE0 SHL EQ PUSH2 0xCB0 JUMPI PUSH1 0x40 MLOAD PUSH3 0x461BCD PUSH1 0xE5 SHL DUP2 MSTORE PUSH1 0x4 ADD PUSH2 0x2CE SWAP1 PUSH2 0x15E7 JUMP JUMPDEST DUP1 CALLDATALOAD PUSH1 0x1 PUSH1 0x1 PUSH1 0xA0 SHL SUB DUP2 AND DUP2 EQ PUSH2 0x734 JUMPI PUSH1 0x0 DUP1 REVERT JUMPDEST PUSH1 0x0 DUP3 PUSH1 0x1F DUP4 ADD SLT PUSH2 0x106D JUMPI PUSH1 0x0 DUP1 REVERT JUMPDEST DUP2 CALLDATALOAD PUSH1 0x20 PUSH2 0x107A DUP3 PUSH2 0x16BE JUMP JUMPDEST PUSH1 0x40 MLOAD PUSH2 0x1087 DUP3 DUP3 PUSH2 0x174C JUMP JUMPDEST DUP4 DUP2 MSTORE DUP3 DUP2 ADD SWAP2 POP DUP6 DUP4 ADD PUSH1 0x5 DUP6 SWAP1 SHL DUP8 ADD DUP5 ADD DUP9 LT ISZERO PUSH2 0x10A7 JUMPI PUSH1 0x0 DUP1 REVERT JUMPDEST PUSH1 0x0 JUMPDEST DUP6 DUP2 LT ISZERO PUSH2 0x10C6 JUMPI DUP2 CALLDATALOAD DUP5 MSTORE SWAP3 DUP5 ADD SWAP3 SWAP1 DUP5 ADD SWAP1 PUSH1 0x1 ADD PUSH2 0x10AA JUMP JUMPDEST POP SWAP1 SWAP8 SWAP7 POP POP POP POP POP POP POP JUMP JUMPDEST PUSH1 0x0 DUP3 PUSH1 0x1F DUP4 ADD SLT PUSH2 0x10E4 JUMPI PUSH1 0x0 DUP1 REVERT JUMPDEST DUP2 CALLDATALOAD PUSH8 0xFFFFFFFFFFFFFFFF DUP2 GT ISZERO PUSH2 0x10FE JUMPI PUSH2 0x10FE PUSH2 0x17C0 JUMP JUMPDEST PUSH1 0x40 MLOAD PUSH2 0x1115 PUSH1 0x1F DUP4 ADD PUSH1 0x1F NOT AND PUSH1 0x20 ADD DUP3 PUSH2 0x174C JUMP JUMPDEST DUP2 DUP2 MSTORE DUP5 PUSH1 0x20 DUP4 DUP7 ADD ADD GT ISZERO PUSH2 0x112A JUMPI PUSH1 0x0 DUP1 REVERT JUMPDEST DUP2 PUSH1 0x20 DUP6 ADD PUSH1 0x20 DUP4 ADD CALLDATACOPY PUSH1 0x0 SWAP2 DUP2 ADD PUSH1 0x20 ADD SWAP2 SWAP1 SWAP2 MSTORE SWAP4 SWAP3 POP POP POP JUMP JUMPDEST PUSH1 0x0 PUSH1 0x20 DUP3 DUP5 SUB SLT ISZERO PUSH2 0x1159 JUMPI PUSH1 0x0 DUP1 REVERT JUMPDEST PUSH2 0x1162 DUP3 PUSH2 0x1045 JUMP JUMPDEST SWAP4 SWAP3 POP POP POP JUMP JUMPDEST PUSH1 0x0 DUP1 PUSH1 0x40 DUP4 DUP6 SUB SLT ISZERO PUSH2 0x117C JUMPI PUSH1 0x0 DUP1 REVERT JUMPDEST PUSH2 0x1185 DUP4 PUSH2 0x1045 JUMP JUMPDEST SWAP2 POP PUSH2 0x1193 PUSH1 0x20 DUP5 ADD PUSH2 0x1045 JUMP JUMPDEST SWAP1 POP SWAP3 POP SWAP3 SWAP1 POP JUMP JUMPDEST PUSH1 0x0 DUP1 PUSH1 0x0 DUP1 PUSH1 0x0 PUSH1 0xA0 DUP7 DUP9 SUB SLT ISZERO PUSH2 0x11B4 JUMPI PUSH1 0x0 DUP1 REVERT JUMPDEST PUSH2 0x11BD DUP7 PUSH2 0x1045 JUMP JUMPDEST SWAP5 POP PUSH2 0x11CB PUSH1 0x20 DUP8 ADD PUSH2 0x1045 JUMP JUMPDEST SWAP4 POP PUSH1 0x40 DUP7 ADD CALLDATALOAD PUSH8 0xFFFFFFFFFFFFFFFF DUP1 DUP3 GT ISZERO PUSH2 0x11E8 JUMPI PUSH1 0x0 DUP1 REVERT JUMPDEST PUSH2 0x11F4 DUP10 DUP4 DUP11 ADD PUSH2 0x105C JUMP JUMPDEST SWAP5 POP PUSH1 0x60 DUP9 ADD CALLDATALOAD SWAP2 POP DUP1 DUP3 GT ISZERO PUSH2 0x120A JUMPI PUSH1 0x0 DUP1 REVERT JUMPDEST PUSH2 0x1216 DUP10 DUP4 DUP11 ADD PUSH2 0x105C JUMP JUMPDEST SWAP4 POP PUSH1 0x80 DUP9 ADD CALLDATALOAD SWAP2 POP DUP1 DUP3 GT ISZERO PUSH2 0x122C JUMPI PUSH1 0x0 DUP1 REVERT JUMPDEST POP PUSH2 0x1239 DUP9 DUP3 DUP10 ADD PUSH2 0x10D3 JUMP JUMPDEST SWAP2 POP POP SWAP3 SWAP6 POP SWAP3 SWAP6 SWAP1 SWAP4 POP JUMP JUMPDEST PUSH1 0x0 DUP1 PUSH1 0x0 DUP1 PUSH1 0x0 PUSH1 0xA0 DUP7 DUP9 SUB SLT ISZERO PUSH2 0x125E JUMPI PUSH1 0x0 DUP1 REVERT JUMPDEST PUSH2 0x1267 DUP7 PUSH2 0x1045 JUMP JUMPDEST SWAP5 POP PUSH2 0x1275 PUSH1 0x20 DUP8 ADD PUSH2 0x1045 JUMP JUMPDEST SWAP4 POP PUSH1 0x40 DUP7 ADD CALLDATALOAD SWAP3 POP PUSH1 0x60 DUP7 ADD CALLDATALOAD SWAP2 POP PUSH1 0x80 DUP7 ADD CALLDATALOAD PUSH8 0xFFFFFFFFFFFFFFFF DUP2 GT ISZERO PUSH2 0x129F JUMPI PUSH1 0x0 DUP1 REVERT JUMPDEST PUSH2 0x1239 DUP9 DUP3 DUP10 ADD PUSH2 0x10D3 JUMP JUMPDEST PUSH1 0x0 DUP1 PUSH1 0x40 DUP4 DUP6 SUB SLT ISZERO PUSH2 0x12BE JUMPI PUSH1 0x0 DUP1 REVERT JUMPDEST PUSH2 0x12C7 DUP4 PUSH2 0x1045 JUMP JUMPDEST SWAP2 POP PUSH1 0x20 DUP4 ADD CALLDATALOAD DUP1 ISZERO ISZERO DUP2 EQ PUSH2 0x12DC JUMPI PUSH1 0x0 DUP1 REVERT JUMPDEST DUP1 SWAP2 POP POP SWAP3 POP SWAP3 SWAP1 POP JUMP JUMPDEST PUSH1 0x0 DUP1 PUSH1 0x40 DUP4 DUP6 SUB SLT ISZERO PUSH2 0x12FA JUMPI PUSH1 0x0 DUP1 REVERT JUMPDEST PUSH2 0x1303 DUP4 PUSH2 0x1045 JUMP JUMPDEST SWAP5 PUSH1 0x20 SWAP4 SWAP1 SWAP4 ADD CALLDATALOAD SWAP4 POP POP POP JUMP JUMPDEST PUSH1 0x0 DUP1 PUSH1 0x0 PUSH1 0x60 DUP5 DUP7 SUB SLT ISZERO PUSH2 0x1326 JUMPI PUSH1 0x0 DUP1 REVERT JUMPDEST PUSH2 0x132F DUP5 PUSH2 0x1045 JUMP JUMPDEST SWAP6 PUSH1 0x20 DUP6 ADD CALLDATALOAD SWAP6 POP PUSH1 0x40 SWAP1 SWAP5 ADD CALLDATALOAD SWAP4 SWAP3 POP POP POP JUMP JUMPDEST PUSH1 0x0 DUP1 PUSH1 0x40 DUP4 DUP6 SUB SLT ISZERO PUSH2 0x1357 JUMPI PUSH1 0x0 DUP1 REVERT JUMPDEST DUP3 CALLDATALOAD PUSH8 0xFFFFFFFFFFFFFFFF DUP1 DUP3 GT ISZERO PUSH2 0x136F JUMPI PUSH1 0x0 DUP1 REVERT JUMPDEST DUP2 DUP6 ADD SWAP2 POP DUP6 PUSH1 0x1F DUP4 ADD SLT PUSH2 0x1383 JUMPI PUSH1 0x0 DUP1 REVERT JUMPDEST DUP2 CALLDATALOAD PUSH1 0x20 PUSH2 0x1390 DUP3 PUSH2 0x16BE JUMP JUMPDEST PUSH1 0x40 MLOAD PUSH2 0x139D DUP3 DUP3 PUSH2 0x174C JUMP JUMPDEST DUP4 DUP2 MSTORE DUP3 DUP2 ADD SWAP2 POP DUP6 DUP4 ADD PUSH1 0x5 DUP6 SWAP1 SHL DUP8 ADD DUP5 ADD DUP12 LT ISZERO PUSH2 0x13BD JUMPI PUSH1 0x0 DUP1 REVERT JUMPDEST PUSH1 0x0 SWAP7 POP JUMPDEST DUP5 DUP8 LT ISZERO PUSH2 0x13E7 JUMPI PUSH2 0x13D3 DUP2 PUSH2 0x1045 JUMP JUMPDEST DUP4 MSTORE PUSH1 0x1 SWAP7 SWAP1 SWAP7 ADD SWAP6 SWAP2 DUP4 ADD SWAP2 DUP4 ADD PUSH2 0x13C2 JUMP JUMPDEST POP SWAP7 POP POP DUP7 ADD CALLDATALOAD SWAP3 POP POP DUP1 DUP3 GT ISZERO PUSH2 0x13FE JUMPI PUSH1 0x0 DUP1 REVERT JUMPDEST POP PUSH2 0x140B DUP6 DUP3 DUP7 ADD PUSH2 0x105C JUMP JUMPDEST SWAP2 POP POP SWAP3 POP SWAP3 SWAP1 POP JUMP JUMPDEST PUSH1 0x0 PUSH1 0x20 DUP3 DUP5 SUB SLT ISZERO PUSH2 0x1427 JUMPI PUSH1 0x0 DUP1 REVERT JUMPDEST DUP2 CALLDATALOAD PUSH2 0x1162 DUP2 PUSH2 0x187C JUMP JUMPDEST PUSH1 0x0 PUSH1 0x20 DUP3 DUP5 SUB SLT ISZERO PUSH2 0x1444 JUMPI PUSH1 0x0 DUP1 REVERT JUMPDEST DUP2 MLOAD PUSH2 0x1162 DUP2 PUSH2 0x187C JUMP JUMPDEST PUSH1 0x0 PUSH1 0x20 DUP3 DUP5 SUB SLT ISZERO PUSH2 0x1461 JUMPI PUSH1 0x0 DUP1 REVERT JUMPDEST POP CALLDATALOAD SWAP2 SWAP1 POP JUMP JUMPDEST PUSH1 0x0 DUP2 MLOAD DUP1 DUP5 MSTORE PUSH1 0x20 DUP1 DUP6 ADD SWAP5 POP DUP1 DUP5 ADD PUSH1 0x0 JUMPDEST DUP4 DUP2 LT ISZERO PUSH2 0x1498 JUMPI DUP2 MLOAD DUP8 MSTORE SWAP6 DUP3 ADD SWAP6 SWAP1 DUP3 ADD SWAP1 PUSH1 0x1 ADD PUSH2 0x147C JUMP JUMPDEST POP SWAP5 SWAP6 SWAP5 POP POP POP POP POP JUMP JUMPDEST PUSH1 0x0 DUP2 MLOAD DUP1 DUP5 MSTORE PUSH1 0x0 JUMPDEST DUP2 DUP2 LT ISZERO PUSH2 0x14C9 JUMPI PUSH1 0x20 DUP2 DUP6 ADD DUP2 ADD MLOAD DUP7 DUP4 ADD DUP3 ADD MSTORE ADD PUSH2 0x14AD JUMP JUMPDEST DUP2 DUP2 GT ISZERO PUSH2 0x14DB JUMPI PUSH1 0x0 PUSH1 0x20 DUP4 DUP8 ADD ADD MSTORE JUMPDEST POP PUSH1 0x1F ADD PUSH1 0x1F NOT AND SWAP3 SWAP1 SWAP3 ADD PUSH1 0x20 ADD SWAP3 SWAP2 POP POP JUMP JUMPDEST PUSH1 0x1 PUSH1 0x1 PUSH1 0xA0 SHL SUB DUP7 DUP2 AND DUP3 MSTORE DUP6 AND PUSH1 0x20 DUP3 ADD MSTORE PUSH1 0xA0 PUSH1 0x40 DUP3 ADD DUP2 SWAP1 MSTORE PUSH1 0x0 SWAP1 PUSH2 0x151C SWAP1 DUP4 ADD DUP7 PUSH2 0x1468 JUMP JUMPDEST DUP3 DUP2 SUB PUSH1 0x60 DUP5 ADD MSTORE PUSH2 0x152E DUP2 DUP7 PUSH2 0x1468 JUMP JUMPDEST SWAP1 POP DUP3 DUP2 SUB PUSH1 0x80 DUP5 ADD MSTORE PUSH2 0x1542 DUP2 DUP6 PUSH2 0x14A3 JUMP JUMPDEST SWAP9 SWAP8 POP POP POP POP POP POP POP POP JUMP JUMPDEST PUSH1 0x1 PUSH1 0x1 PUSH1 0xA0 SHL SUB DUP7 DUP2 AND DUP3 MSTORE DUP6 AND PUSH1 0x20 DUP3 ADD MSTORE PUSH1 0x40 DUP2 ADD DUP5 SWAP1 MSTORE PUSH1 0x60 DUP2 ADD DUP4 SWAP1 MSTORE PUSH1 0xA0 PUSH1 0x80 DUP3 ADD DUP2 SWAP1 MSTORE PUSH1 0x0 SWAP1 PUSH2 0x1588 SWAP1 DUP4 ADD DUP5 PUSH2 0x14A3 JUMP JUMPDEST SWAP8 SWAP7 POP POP POP POP POP POP POP JUMP JUMPDEST PUSH1 0x20 DUP2 MSTORE PUSH1 0x0 PUSH2 0x1162 PUSH1 0x20 DUP4 ADD DUP5 PUSH2 0x1468 JUMP JUMPDEST PUSH1 0x40 DUP2 MSTORE PUSH1 0x0 PUSH2 0x15B9 PUSH1 0x40 DUP4 ADD DUP6 PUSH2 0x1468 JUMP JUMPDEST DUP3 DUP2 SUB PUSH1 0x20 DUP5 ADD MSTORE PUSH2 0x15CB DUP2 DUP6 PUSH2 0x1468 JUMP JUMPDEST SWAP6 SWAP5 POP POP POP POP POP JUMP JUMPDEST PUSH1 0x20 DUP2 MSTORE PUSH1 0x0 PUSH2 0x1162 PUSH1 0x20 DUP4 ADD DUP5 PUSH2 0x14A3 JUMP JUMPDEST PUSH1 0x20 DUP1 DUP3 MSTORE PUSH1 0x28 SWAP1 DUP3 ADD MSTORE PUSH32 0x455243313135353A204552433131353552656365697665722072656A65637465 PUSH1 0x40 DUP3 ADD MSTORE PUSH8 0x6420746F6B656E73 PUSH1 0xC0 SHL PUSH1 0x60 DUP3 ADD MSTORE PUSH1 0x80 ADD SWAP1 JUMP JUMPDEST PUSH1 0x20 DUP1 DUP3 MSTORE PUSH1 0x25 SWAP1 DUP3 ADD MSTORE PUSH32 0x455243313135353A207472616E7366657220746F20746865207A65726F206164 PUSH1 0x40 DUP3 ADD MSTORE PUSH5 0x6472657373 PUSH1 0xD8 SHL PUSH1 0x60 DUP3 ADD MSTORE PUSH1 0x80 ADD SWAP1 JUMP JUMPDEST PUSH1 0x20 DUP1 DUP3 MSTORE PUSH1 0x2A SWAP1 DUP3 ADD MSTORE PUSH32 0x455243313135353A20696E73756666696369656E742062616C616E636520666F PUSH1 0x40 DUP3 ADD MSTORE PUSH10 0x39103A3930B739B332B9 PUSH1 0xB1 SHL PUSH1 0x60 DUP3 ADD MSTORE PUSH1 0x80 ADD SWAP1 JUMP JUMPDEST PUSH1 0x0 PUSH8 0xFFFFFFFFFFFFFFFF DUP3 GT ISZERO PUSH2 0x16D8 JUMPI PUSH2 0x16D8 PUSH2 0x17C0 JUMP JUMPDEST POP PUSH1 0x5 SHL PUSH1 0x20 ADD SWAP1 JUMP JUMPDEST PUSH1 0x0 DUP3 NOT DUP3 GT ISZERO PUSH2 0x16F5 JUMPI PUSH2 0x16F5 PUSH2 0x1794 JUMP JUMPDEST POP ADD SWAP1 JUMP JUMPDEST PUSH1 0x0 DUP3 DUP3 LT ISZERO PUSH2 0x170C JUMPI PUSH2 0x170C PUSH2 0x1794 JUMP JUMPDEST POP SUB SWAP1 JUMP JUMPDEST PUSH1 0x1 DUP2 DUP2 SHR SWAP1 DUP3 AND DUP1 PUSH2 0x1725 JUMPI PUSH1 0x7F DUP3 AND SWAP2 POP JUMPDEST PUSH1 0x20 DUP3 LT DUP2 EQ ISZERO PUSH2 0x1746 JUMPI PUSH4 0x4E487B71 PUSH1 0xE0 SHL PUSH1 0x0 MSTORE PUSH1 0x22 PUSH1 0x4 MSTORE PUSH1 0x24 PUSH1 0x0 REVERT JUMPDEST POP SWAP2 SWAP1 POP JUMP JUMPDEST PUSH1 0x1F DUP3 ADD PUSH1 0x1F NOT AND DUP2 ADD PUSH8 0xFFFFFFFFFFFFFFFF DUP2 GT DUP3 DUP3 LT OR ISZERO PUSH2 0x1772 JUMPI PUSH2 0x1772 PUSH2 0x17C0 JUMP JUMPDEST PUSH1 0x40 MSTORE POP POP JUMP JUMPDEST PUSH1 0x0 PUSH1 0x0 NOT DUP3 EQ ISZERO PUSH2 0x178D JUMPI PUSH2 0x178D PUSH2 0x1794 JUMP JUMPDEST POP PUSH1 0x1 ADD SWAP1 JUMP JUMPDEST PUSH4 0x4E487B71 PUSH1 0xE0 SHL PUSH1 0x0 MSTORE PUSH1 0x11 PUSH1 0x4 MSTORE PUSH1 0x24 PUSH1 0x0 REVERT JUMPDEST PUSH4 0x4E487B71 PUSH1 0xE0 SHL PUSH1 0x0 MSTORE PUSH1 0x32 PUSH1 0x4 MSTORE PUSH1 0x24 PUSH1 0x0 REVERT JUMPDEST PUSH4 0x4E487B71 PUSH1 0xE0 SHL PUSH1 0x0 MSTORE PUSH1 0x41 PUSH1 0x4 MSTORE PUSH1 0x24 PUSH1 0x0 REVERT JUMPDEST PUSH1 0x0 PUSH1 0x3 RETURNDATASIZE GT ISZERO PUSH2 0x17EF JUMPI PUSH1 0x4 PUSH1 0x0 DUP1 RETURNDATACOPY POP PUSH1 0x0 MLOAD PUSH1 0xE0 SHR JUMPDEST SWAP1 JUMP JUMPDEST PUSH1 0x0 PUSH1 0x44 RETURNDATASIZE LT ISZERO PUSH2 0x1800 JUMPI SWAP1 JUMP JUMPDEST PUSH1 0x40 MLOAD PUSH1 0x3 NOT RETURNDATASIZE DUP2 ADD PUSH1 0x4 DUP4 RETURNDATACOPY DUP2 MLOAD RETURNDATASIZE PUSH8 0xFFFFFFFFFFFFFFFF DUP2 PUSH1 0x24 DUP5 ADD GT DUP2 DUP5 GT OR ISZERO PUSH2 0x1830 JUMPI POP POP POP POP POP SWAP1 JUMP JUMPDEST DUP3 DUP6 ADD SWAP2 POP DUP2 MLOAD DUP2 DUP2 GT ISZERO PUSH2 0x1848 JUMPI POP POP POP POP POP POP SWAP1 JUMP JUMPDEST DUP5 RETURNDATASIZE DUP8 ADD ADD PUSH1 0x20 DUP3 DUP6 ADD ADD GT ISZERO PUSH2 0x1862 JUMPI POP POP POP POP POP POP SWAP1 JUMP JUMPDEST PUSH2 0x1871 PUSH1 0x20 DUP3 DUP7 ADD ADD DUP8 PUSH2 0x174C JUMP JUMPDEST POP SWAP1 SWAP6 SWAP5 POP POP POP POP POP JUMP JUMPDEST PUSH1 0x1 PUSH1 0x1 PUSH1 0xE0 SHL SUB NOT DUP2 AND DUP2 EQ PUSH2 0x1892 JUMPI PUSH1 0x0 DUP1 REVERT JUMPDEST POP JUMP INVALID LOG2 PUSH5 0x6970667358 0x22 SLT KECCAK256 0xE9 BLOCKHASH 0x29 0x5D PUSH8 0x3465EE7F2C5D98A7 0xCC 0xD0 AND SWAP11 SHR PUSH6 0xFCF35A17777B 0xA8 ADDRESS 0xB0 PUSH32 0x62971F64736F6C63430008070033000000000000000000000000000000000000 "
				},
				"gasEstimates": {
					"creation": {
						"codeDepositCost": "1269400",
						"executionCost": "infinite",
						"totalCost": "infinite"
					},
					"external": {
						"adminSafe()": "2448",
						"balanceOf(address,uint256)": "2672",
						"balanceOfBatch(address[],uint256[])": "infinite",
						"changeAdminSafe(address)": "infinite",
						"exists(uint256)": "2495",
						"isApprovedForAll(address,address)": "infinite",
						"mint(address,uint256,uint256)": "infinite",
						"safeBatchTransferFrom(address,address,uint256[],uint256[],bytes)": "infinite",
						"safeTransferFrom(address,address,uint256,uint256,bytes)": "infinite",
						"setApprovalForAll(address,bool)": "26753",
						"supportsInterface(bytes4)": "544",
						"totalSupply(uint256)": "2449",
						"uri(uint256)": "infinite"
					}
				},
				"methodIdentifiers": {
					"adminSafe()": "4b8c9c2d",
					"balanceOf(address,uint256)": "00fdd58e",
					"balanceOfBatch(address[],uint256[])": "4e1273f4",
					"changeAdminSafe(address)": "cb450772",
					"exists(uint256)": "4f558e79",
					"isApprovedForAll(address,address)": "e985e9c5",
					"mint(address,uint256,uint256)": "156e29f6",
					"safeBatchTransferFrom(address,address,uint256[],uint256[],bytes)": "2eb2c2d6",
					"safeTransferFrom(address,address,uint256,uint256,bytes)": "f242432a",
					"setApprovalForAll(address,bool)": "a22cb465",
					"supportsInterface(bytes4)": "01ffc9a7",
					"totalSupply(uint256)": "bd85b039",
					"uri(uint256)": "0e89341c"
				}
			},
			"storageLayout": {
				"storage": [
					{
						"astId": 25,
						"contract": "contracts/GU-NFT/GUCollections.sol:GUCollections",
						"label": "_balances",
						"offset": 0,
						"slot": "0",
						"type": "t_mapping(t_uint256,t_mapping(t_address,t_uint256))"
					},
					{
						"astId": 31,
						"contract": "contracts/GU-NFT/GUCollections.sol:GUCollections",
						"label": "_operatorApprovals",
						"offset": 0,
						"slot": "1",
						"type": "t_mapping(t_address,t_mapping(t_address,t_bool))"
					},
					{
						"astId": 33,
						"contract": "contracts/GU-NFT/GUCollections.sol:GUCollections",
						"label": "_uri",
						"offset": 0,
						"slot": "2",
						"type": "t_string_storage"
					},
					{
						"astId": 1268,
						"contract": "contracts/GU-NFT/GUCollections.sol:GUCollections",
						"label": "_totalSupply",
						"offset": 0,
						"slot": "3",
						"type": "t_mapping(t_uint256,t_uint256)"
					},
					{
						"astId": 1768,
						"contract": "contracts/GU-NFT/GUCollections.sol:GUCollections",
						"label": "traders",
						"offset": 0,
						"slot": "4",
						"type": "t_mapping(t_address,t_bool)"
					},
					{
						"astId": 1770,
						"contract": "contracts/GU-NFT/GUCollections.sol:GUCollections",
						"label": "adminSafe",
						"offset": 0,
						"slot": "5",
						"type": "t_address"
					}
				],
				"types": {
					"t_address": {
						"encoding": "inplace",
						"label": "address",
						"numberOfBytes": "20"
					},
					"t_bool": {
						"encoding": "inplace",
						"label": "bool",
						"numberOfBytes": "1"
					},
					"t_mapping(t_address,t_bool)": {
						"encoding": "mapping",
						"key": "t_address",
						"label": "mapping(address => bool)",
						"numberOfBytes": "32",
						"value": "t_bool"
					},
					"t_mapping(t_address,t_mapping(t_address,t_bool))": {
						"encoding": "mapping",
						"key": "t_address",
						"label": "mapping(address => mapping(address => bool))",
						"numberOfBytes": "32",
						"value": "t_mapping(t_address,t_bool)"
					},
					"t_mapping(t_address,t_uint256)": {
						"encoding": "mapping",
						"key": "t_address",
						"label": "mapping(address => uint256)",
						"numberOfBytes": "32",
						"value": "t_uint256"
					},
					"t_mapping(t_uint256,t_mapping(t_address,t_uint256))": {
						"encoding": "mapping",
						"key": "t_uint256",
						"label": "mapping(uint256 => mapping(address => uint256))",
						"numberOfBytes": "32",
						"value": "t_mapping(t_address,t_uint256)"
					},
					"t_mapping(t_uint256,t_uint256)": {
						"encoding": "mapping",
						"key": "t_uint256",
						"label": "mapping(uint256 => uint256)",
						"numberOfBytes": "32",
						"value": "t_uint256"
					},
					"t_string_storage": {
						"encoding": "bytes",
						"label": "string",
						"numberOfBytes": "32"
					},
					"t_uint256": {
						"encoding": "inplace",
						"label": "uint256",
						"numberOfBytes": "32"
					}
				}
			},
			"userdoc": {
				"kind": "user",
				"methods": {},
				"version": 1
			}
		}
	}
}