{
	"GU-NFT/TradeLib.sol": {
		"TradeLib": {
			"abi": [
				{
					"inputs": [
						{
							"internalType": "bytes32",
							"name": "_ethSignedMessageHash",
							"type": "bytes32"
						},
						{
							"internalType": "bytes",
							"name": "_signature",
							"type": "bytes"
						}
					],
					"name": "recoverSigner",
					"outputs": [
						{
							"internalType": "address",
							"name": "",
							"type": "address"
						}
					],
					"stateMutability": "pure",
					"type": "function"
				},
				{
					"inputs": [
						{
							"internalType": "bytes",
							"name": "sig",
							"type": "bytes"
						}
					],
					"name": "splitSignature",
					"outputs": [
						{
							"internalType": "bytes32",
							"name": "r",
							"type": "bytes32"
						},
						{
							"internalType": "bytes32",
							"name": "s",
							"type": "bytes32"
						},
						{
							"internalType": "uint8",
							"name": "v",
							"type": "uint8"
						}
					],
					"stateMutability": "pure",
					"type": "function"
				}
			],
			"devdoc": {
				"kind": "dev",
				"methods": {},
				"version": 1
			},
			"evm": {
				"assembly": "    /* \"GU-NFT/TradeLib.sol\":27:641  library TradeLib {\r... */\n  dataSize(sub_0)\n  dataOffset(sub_0)\n  0x0b\n  dup3\n  dup3\n  dup3\n  codecopy\n  dup1\n  mload\n  0x00\n  byte\n  0x73\n  eq\n  tag_1\n  jumpi\n  mstore(0x00, 0x4e487b7100000000000000000000000000000000000000000000000000000000)\n  mstore(0x04, 0x00)\n  revert(0x00, 0x24)\ntag_1:\n  mstore(0x00, address)\n  0x73\n  dup2\n  mstore8\n  dup3\n  dup2\n  return\nstop\n\nsub_0: assembly {\n        /* \"GU-NFT/TradeLib.sol\":27:641  library TradeLib {\r... */\n      eq(address, deployTimeAddress())\n      mstore(0x40, 0x80)\n      jumpi(tag_1, lt(calldatasize, 0x04))\n      shr(0xe0, calldataload(0x00))\n      dup1\n      0x97aba7f9\n      eq\n      tag_2\n      jumpi\n      dup1\n      0xa7bb5803\n      eq\n      tag_3\n      jumpi\n    tag_1:\n      0x00\n      dup1\n      revert\n        /* \"GU-NFT/TradeLib.sol\":51:303  function recoverSigner(bytes32 _ethSignedMessageHash, bytes memory _signature) public pure returns (address)\r... */\n    tag_2:\n      tag_4\n      0x04\n      dup1\n      calldatasize\n      sub\n      dup2\n      add\n      swap1\n      tag_5\n      swap2\n      swap1\n      tag_6\n      jump\t// in\n    tag_5:\n      tag_7\n      jump\t// in\n    tag_4:\n      mload(0x40)\n      tag_8\n      swap2\n      swap1\n      tag_9\n      jump\t// in\n    tag_8:\n      mload(0x40)\n      dup1\n      swap2\n      sub\n      swap1\n      return\n        /* \"GU-NFT/TradeLib.sol\":311:638  function splitSignature(bytes memory sig) public pure returns (bytes32 r, bytes32 s, uint8 v)\r... */\n    tag_3:\n      tag_10\n      0x04\n      dup1\n      calldatasize\n      sub\n      dup2\n      add\n      swap1\n      tag_11\n      swap2\n      swap1\n      tag_12\n      jump\t// in\n    tag_11:\n      tag_13\n      jump\t// in\n    tag_10:\n      mload(0x40)\n      tag_14\n      swap4\n      swap3\n      swap2\n      swap1\n      tag_15\n      jump\t// in\n    tag_14:\n      mload(0x40)\n      dup1\n      swap2\n      sub\n      swap1\n      return\n        /* \"GU-NFT/TradeLib.sol\":51:303  function recoverSigner(bytes32 _ethSignedMessageHash, bytes memory _signature) public pure returns (address)\r... */\n    tag_7:\n        /* \"GU-NFT/TradeLib.sol\":151:158  address */\n      0x00\n        /* \"GU-NFT/TradeLib.sol\":177:186  bytes32 r */\n      dup1\n        /* \"GU-NFT/TradeLib.sol\":188:197  bytes32 s */\n      0x00\n        /* \"GU-NFT/TradeLib.sol\":199:206  uint8 v */\n      dup1\n        /* \"GU-NFT/TradeLib.sol\":210:236  splitSignature(_signature) */\n      tag_17\n        /* \"GU-NFT/TradeLib.sol\":225:235  _signature */\n      dup6\n        /* \"GU-NFT/TradeLib.sol\":210:224  splitSignature */\n      tag_13\n        /* \"GU-NFT/TradeLib.sol\":210:236  splitSignature(_signature) */\n      jump\t// in\n    tag_17:\n        /* \"GU-NFT/TradeLib.sol\":176:236  (bytes32 r, bytes32 s, uint8 v) = splitSignature(_signature) */\n      swap3\n      pop\n      swap3\n      pop\n      swap3\n      pop\n        /* \"GU-NFT/TradeLib.sol\":254:295  ecrecover(_ethSignedMessageHash, v, r, s) */\n      0x01\n        /* \"GU-NFT/TradeLib.sol\":264:285  _ethSignedMessageHash */\n      dup7\n        /* \"GU-NFT/TradeLib.sol\":287:288  v */\n      dup3\n        /* \"GU-NFT/TradeLib.sol\":290:291  r */\n      dup6\n        /* \"GU-NFT/TradeLib.sol\":293:294  s */\n      dup6\n        /* \"GU-NFT/TradeLib.sol\":254:295  ecrecover(_ethSignedMessageHash, v, r, s) */\n      mload(0x40)\n      0x00\n      dup2\n      mstore\n      0x20\n      add\n      0x40\n      mstore\n      mload(0x40)\n      tag_18\n      swap5\n      swap4\n      swap3\n      swap2\n      swap1\n      tag_19\n      jump\t// in\n    tag_18:\n      0x20\n      mload(0x40)\n      0x20\n      dup2\n      sub\n      swap1\n      dup1\n      dup5\n      sub\n      swap1\n      dup6\n      gas\n      staticcall\n      iszero\n      dup1\n      iszero\n      tag_21\n      jumpi\n      returndatasize\n      0x00\n      dup1\n      returndatacopy\n      revert(0x00, returndatasize)\n    tag_21:\n      pop\n      pop\n      pop\n      mload(sub(mload(0x40), 0x20))\n        /* \"GU-NFT/TradeLib.sol\":247:295  return ecrecover(_ethSignedMessageHash, v, r, s) */\n      swap4\n      pop\n      pop\n      pop\n      pop\n        /* \"GU-NFT/TradeLib.sol\":51:303  function recoverSigner(bytes32 _ethSignedMessageHash, bytes memory _signature) public pure returns (address)\r... */\n      swap3\n      swap2\n      pop\n      pop\n      jump\t// out\n        /* \"GU-NFT/TradeLib.sol\":311:638  function splitSignature(bytes memory sig) public pure returns (bytes32 r, bytes32 s, uint8 v)\r... */\n    tag_13:\n        /* \"GU-NFT/TradeLib.sol\":374:383  bytes32 r */\n      0x00\n        /* \"GU-NFT/TradeLib.sol\":385:394  bytes32 s */\n      dup1\n        /* \"GU-NFT/TradeLib.sol\":396:403  uint8 v */\n      0x00\n        /* \"GU-NFT/TradeLib.sol\":443:445  65 */\n      0x41\n        /* \"GU-NFT/TradeLib.sol\":429:432  sig */\n      dup5\n        /* \"GU-NFT/TradeLib.sol\":429:439  sig.length */\n      mload\n        /* \"GU-NFT/TradeLib.sol\":429:445  sig.length == 65 */\n      eq\n        /* \"GU-NFT/TradeLib.sol\":421:474  require(sig.length == 65, \"invalid signature length\") */\n      tag_23\n      jumpi\n      mload(0x40)\n      0x08c379a000000000000000000000000000000000000000000000000000000000\n      dup2\n      mstore\n      0x04\n      add\n      tag_24\n      swap1\n      tag_25\n      jump\t// in\n    tag_24:\n      mload(0x40)\n      dup1\n      swap2\n      sub\n      swap1\n      revert\n    tag_23:\n        /* \"GU-NFT/TradeLib.sol\":531:533  32 */\n      0x20\n        /* \"GU-NFT/TradeLib.sol\":526:529  sig */\n      dup5\n        /* \"GU-NFT/TradeLib.sol\":522:534  add(sig, 32) */\n      add\n        /* \"GU-NFT/TradeLib.sol\":516:535  mload(add(sig, 32)) */\n      mload\n        /* \"GU-NFT/TradeLib.sol\":511:535  r := mload(add(sig, 32)) */\n      swap3\n      pop\n        /* \"GU-NFT/TradeLib.sol\":569:571  64 */\n      0x40\n        /* \"GU-NFT/TradeLib.sol\":564:567  sig */\n      dup5\n        /* \"GU-NFT/TradeLib.sol\":560:572  add(sig, 64) */\n      add\n        /* \"GU-NFT/TradeLib.sol\":554:573  mload(add(sig, 64)) */\n      mload\n        /* \"GU-NFT/TradeLib.sol\":549:573  s := mload(add(sig, 64)) */\n      swap2\n      pop\n        /* \"GU-NFT/TradeLib.sol\":615:617  96 */\n      0x60\n        /* \"GU-NFT/TradeLib.sol\":610:613  sig */\n      dup5\n        /* \"GU-NFT/TradeLib.sol\":606:618  add(sig, 96) */\n      add\n        /* \"GU-NFT/TradeLib.sol\":600:619  mload(add(sig, 96)) */\n      mload\n        /* \"GU-NFT/TradeLib.sol\":597:598  0 */\n      0x00\n        /* \"GU-NFT/TradeLib.sol\":592:620  byte(0, mload(add(sig, 96))) */\n      byte\n        /* \"GU-NFT/TradeLib.sol\":587:620  v := byte(0, mload(add(sig, 96))) */\n      swap1\n      pop\n        /* \"GU-NFT/TradeLib.sol\":311:638  function splitSignature(bytes memory sig) public pure returns (bytes32 r, bytes32 s, uint8 v)\r... */\n      swap2\n      swap4\n      swap1\n      swap3\n      pop\n      jump\t// out\n        /* \"#utility.yul\":7:417   */\n    tag_27:\n        /* \"#utility.yul\":84:89   */\n      0x00\n        /* \"#utility.yul\":109:174   */\n      tag_29\n        /* \"#utility.yul\":125:173   */\n      tag_30\n        /* \"#utility.yul\":166:172   */\n      dup5\n        /* \"#utility.yul\":125:173   */\n      tag_31\n      jump\t// in\n    tag_30:\n        /* \"#utility.yul\":109:174   */\n      tag_32\n      jump\t// in\n    tag_29:\n        /* \"#utility.yul\":100:174   */\n      swap1\n      pop\n        /* \"#utility.yul\":197:203   */\n      dup3\n        /* \"#utility.yul\":190:195   */\n      dup2\n        /* \"#utility.yul\":183:204   */\n      mstore\n        /* \"#utility.yul\":235:239   */\n      0x20\n        /* \"#utility.yul\":228:233   */\n      dup2\n        /* \"#utility.yul\":224:240   */\n      add\n        /* \"#utility.yul\":273:276   */\n      dup5\n        /* \"#utility.yul\":264:270   */\n      dup5\n        /* \"#utility.yul\":259:262   */\n      dup5\n        /* \"#utility.yul\":255:271   */\n      add\n        /* \"#utility.yul\":252:277   */\n      gt\n        /* \"#utility.yul\":249:361   */\n      iszero\n      tag_33\n      jumpi\n        /* \"#utility.yul\":280:359   */\n      tag_34\n      tag_35\n      jump\t// in\n    tag_34:\n        /* \"#utility.yul\":249:361   */\n    tag_33:\n        /* \"#utility.yul\":370:411   */\n      tag_36\n        /* \"#utility.yul\":404:410   */\n      dup5\n        /* \"#utility.yul\":399:402   */\n      dup3\n        /* \"#utility.yul\":394:397   */\n      dup6\n        /* \"#utility.yul\":370:411   */\n      tag_37\n      jump\t// in\n    tag_36:\n        /* \"#utility.yul\":90:417   */\n      pop\n        /* \"#utility.yul\":7:417   */\n      swap4\n      swap3\n      pop\n      pop\n      pop\n      jump\t// out\n        /* \"#utility.yul\":423:562   */\n    tag_38:\n        /* \"#utility.yul\":469:474   */\n      0x00\n        /* \"#utility.yul\":507:513   */\n      dup2\n        /* \"#utility.yul\":494:514   */\n      calldataload\n        /* \"#utility.yul\":485:514   */\n      swap1\n      pop\n        /* \"#utility.yul\":523:556   */\n      tag_40\n        /* \"#utility.yul\":550:555   */\n      dup2\n        /* \"#utility.yul\":523:556   */\n      tag_41\n      jump\t// in\n    tag_40:\n        /* \"#utility.yul\":423:562   */\n      swap3\n      swap2\n      pop\n      pop\n      jump\t// out\n        /* \"#utility.yul\":581:919   */\n    tag_42:\n        /* \"#utility.yul\":636:641   */\n      0x00\n        /* \"#utility.yul\":685:688   */\n      dup3\n        /* \"#utility.yul\":678:682   */\n      0x1f\n        /* \"#utility.yul\":670:676   */\n      dup4\n        /* \"#utility.yul\":666:683   */\n      add\n        /* \"#utility.yul\":662:689   */\n      slt\n        /* \"#utility.yul\":652:774   */\n      tag_44\n      jumpi\n        /* \"#utility.yul\":693:772   */\n      tag_45\n      tag_46\n      jump\t// in\n    tag_45:\n        /* \"#utility.yul\":652:774   */\n    tag_44:\n        /* \"#utility.yul\":810:816   */\n      dup2\n        /* \"#utility.yul\":797:817   */\n      calldataload\n        /* \"#utility.yul\":835:913   */\n      tag_47\n        /* \"#utility.yul\":909:912   */\n      dup5\n        /* \"#utility.yul\":901:907   */\n      dup3\n        /* \"#utility.yul\":894:898   */\n      0x20\n        /* \"#utility.yul\":886:892   */\n      dup7\n        /* \"#utility.yul\":882:899   */\n      add\n        /* \"#utility.yul\":835:913   */\n      tag_27\n      jump\t// in\n    tag_47:\n        /* \"#utility.yul\":826:913   */\n      swap2\n      pop\n        /* \"#utility.yul\":642:919   */\n      pop\n        /* \"#utility.yul\":581:919   */\n      swap3\n      swap2\n      pop\n      pop\n      jump\t// out\n        /* \"#utility.yul\":925:1577   */\n    tag_6:\n        /* \"#utility.yul\":1002:1008   */\n      0x00\n        /* \"#utility.yul\":1010:1016   */\n      dup1\n        /* \"#utility.yul\":1059:1061   */\n      0x40\n        /* \"#utility.yul\":1047:1056   */\n      dup4\n        /* \"#utility.yul\":1038:1045   */\n      dup6\n        /* \"#utility.yul\":1034:1057   */\n      sub\n        /* \"#utility.yul\":1030:1062   */\n      slt\n        /* \"#utility.yul\":1027:1146   */\n      iszero\n      tag_49\n      jumpi\n        /* \"#utility.yul\":1065:1144   */\n      tag_50\n      tag_51\n      jump\t// in\n    tag_50:\n        /* \"#utility.yul\":1027:1146   */\n    tag_49:\n        /* \"#utility.yul\":1185:1186   */\n      0x00\n        /* \"#utility.yul\":1210:1263   */\n      tag_52\n        /* \"#utility.yul\":1255:1262   */\n      dup6\n        /* \"#utility.yul\":1246:1252   */\n      dup3\n        /* \"#utility.yul\":1235:1244   */\n      dup7\n        /* \"#utility.yul\":1231:1253   */\n      add\n        /* \"#utility.yul\":1210:1263   */\n      tag_38\n      jump\t// in\n    tag_52:\n        /* \"#utility.yul\":1200:1263   */\n      swap3\n      pop\n        /* \"#utility.yul\":1156:1273   */\n      pop\n        /* \"#utility.yul\":1340:1342   */\n      0x20\n        /* \"#utility.yul\":1329:1338   */\n      dup4\n        /* \"#utility.yul\":1325:1343   */\n      add\n        /* \"#utility.yul\":1312:1344   */\n      calldataload\n        /* \"#utility.yul\":1371:1389   */\n      0xffffffffffffffff\n        /* \"#utility.yul\":1363:1369   */\n      dup2\n        /* \"#utility.yul\":1360:1390   */\n      gt\n        /* \"#utility.yul\":1357:1474   */\n      iszero\n      tag_53\n      jumpi\n        /* \"#utility.yul\":1393:1472   */\n      tag_54\n      tag_55\n      jump\t// in\n    tag_54:\n        /* \"#utility.yul\":1357:1474   */\n    tag_53:\n        /* \"#utility.yul\":1498:1560   */\n      tag_56\n        /* \"#utility.yul\":1552:1559   */\n      dup6\n        /* \"#utility.yul\":1543:1549   */\n      dup3\n        /* \"#utility.yul\":1532:1541   */\n      dup7\n        /* \"#utility.yul\":1528:1550   */\n      add\n        /* \"#utility.yul\":1498:1560   */\n      tag_42\n      jump\t// in\n    tag_56:\n        /* \"#utility.yul\":1488:1560   */\n      swap2\n      pop\n        /* \"#utility.yul\":1283:1570   */\n      pop\n        /* \"#utility.yul\":925:1577   */\n      swap3\n      pop\n      swap3\n      swap1\n      pop\n      jump\t// out\n        /* \"#utility.yul\":1583:2090   */\n    tag_12:\n        /* \"#utility.yul\":1651:1657   */\n      0x00\n        /* \"#utility.yul\":1700:1702   */\n      0x20\n        /* \"#utility.yul\":1688:1697   */\n      dup3\n        /* \"#utility.yul\":1679:1686   */\n      dup5\n        /* \"#utility.yul\":1675:1698   */\n      sub\n        /* \"#utility.yul\":1671:1703   */\n      slt\n        /* \"#utility.yul\":1668:1787   */\n      iszero\n      tag_58\n      jumpi\n        /* \"#utility.yul\":1706:1785   */\n      tag_59\n      tag_51\n      jump\t// in\n    tag_59:\n        /* \"#utility.yul\":1668:1787   */\n    tag_58:\n        /* \"#utility.yul\":1854:1855   */\n      0x00\n        /* \"#utility.yul\":1843:1852   */\n      dup3\n        /* \"#utility.yul\":1839:1856   */\n      add\n        /* \"#utility.yul\":1826:1857   */\n      calldataload\n        /* \"#utility.yul\":1884:1902   */\n      0xffffffffffffffff\n        /* \"#utility.yul\":1876:1882   */\n      dup2\n        /* \"#utility.yul\":1873:1903   */\n      gt\n        /* \"#utility.yul\":1870:1987   */\n      iszero\n      tag_60\n      jumpi\n        /* \"#utility.yul\":1906:1985   */\n      tag_61\n      tag_55\n      jump\t// in\n    tag_61:\n        /* \"#utility.yul\":1870:1987   */\n    tag_60:\n        /* \"#utility.yul\":2011:2073   */\n      tag_62\n        /* \"#utility.yul\":2065:2072   */\n      dup5\n        /* \"#utility.yul\":2056:2062   */\n      dup3\n        /* \"#utility.yul\":2045:2054   */\n      dup6\n        /* \"#utility.yul\":2041:2063   */\n      add\n        /* \"#utility.yul\":2011:2073   */\n      tag_42\n      jump\t// in\n    tag_62:\n        /* \"#utility.yul\":2001:2073   */\n      swap2\n      pop\n        /* \"#utility.yul\":1797:2083   */\n      pop\n        /* \"#utility.yul\":1583:2090   */\n      swap3\n      swap2\n      pop\n      pop\n      jump\t// out\n        /* \"#utility.yul\":2096:2222   */\n    tag_63:\n        /* \"#utility.yul\":2191:2215   */\n      tag_65\n        /* \"#utility.yul\":2209:2214   */\n      dup2\n        /* \"#utility.yul\":2191:2215   */\n      tag_66\n      jump\t// in\n    tag_65:\n        /* \"#utility.yul\":2186:2189   */\n      dup3\n        /* \"#utility.yul\":2179:2216   */\n      mstore\n        /* \"#utility.yul\":2096:2222   */\n      pop\n      pop\n      jump\t// out\n        /* \"#utility.yul\":2228:2346   */\n    tag_67:\n        /* \"#utility.yul\":2315:2339   */\n      tag_69\n        /* \"#utility.yul\":2333:2338   */\n      dup2\n        /* \"#utility.yul\":2315:2339   */\n      tag_70\n      jump\t// in\n    tag_69:\n        /* \"#utility.yul\":2310:2313   */\n      dup3\n        /* \"#utility.yul\":2303:2340   */\n      mstore\n        /* \"#utility.yul\":2228:2346   */\n      pop\n      pop\n      jump\t// out\n        /* \"#utility.yul\":2352:2478   */\n    tag_71:\n        /* \"#utility.yul\":2447:2471   */\n      tag_73\n        /* \"#utility.yul\":2465:2470   */\n      dup2\n        /* \"#utility.yul\":2447:2471   */\n      tag_70\n      jump\t// in\n    tag_73:\n        /* \"#utility.yul\":2442:2445   */\n      dup3\n        /* \"#utility.yul\":2435:2472   */\n      mstore\n        /* \"#utility.yul\":2352:2478   */\n      pop\n      pop\n      jump\t// out\n        /* \"#utility.yul\":2484:2850   */\n    tag_74:\n        /* \"#utility.yul\":2626:2629   */\n      0x00\n        /* \"#utility.yul\":2647:2714   */\n      tag_76\n        /* \"#utility.yul\":2711:2713   */\n      0x18\n        /* \"#utility.yul\":2706:2709   */\n      dup4\n        /* \"#utility.yul\":2647:2714   */\n      tag_77\n      jump\t// in\n    tag_76:\n        /* \"#utility.yul\":2640:2714   */\n      swap2\n      pop\n        /* \"#utility.yul\":2723:2816   */\n      tag_78\n        /* \"#utility.yul\":2812:2815   */\n      dup3\n        /* \"#utility.yul\":2723:2816   */\n      tag_79\n      jump\t// in\n    tag_78:\n        /* \"#utility.yul\":2841:2843   */\n      0x20\n        /* \"#utility.yul\":2836:2839   */\n      dup3\n        /* \"#utility.yul\":2832:2844   */\n      add\n        /* \"#utility.yul\":2825:2844   */\n      swap1\n      pop\n        /* \"#utility.yul\":2484:2850   */\n      swap2\n      swap1\n      pop\n      jump\t// out\n        /* \"#utility.yul\":2856:2968   */\n    tag_80:\n        /* \"#utility.yul\":2939:2961   */\n      tag_82\n        /* \"#utility.yul\":2955:2960   */\n      dup2\n        /* \"#utility.yul\":2939:2961   */\n      tag_83\n      jump\t// in\n    tag_82:\n        /* \"#utility.yul\":2934:2937   */\n      dup3\n        /* \"#utility.yul\":2927:2962   */\n      mstore\n        /* \"#utility.yul\":2856:2968   */\n      pop\n      pop\n      jump\t// out\n        /* \"#utility.yul\":2974:3094   */\n    tag_84:\n        /* \"#utility.yul\":3065:3087   */\n      tag_86\n        /* \"#utility.yul\":3081:3086   */\n      dup2\n        /* \"#utility.yul\":3065:3087   */\n      tag_83\n      jump\t// in\n    tag_86:\n        /* \"#utility.yul\":3060:3063   */\n      dup3\n        /* \"#utility.yul\":3053:3088   */\n      mstore\n        /* \"#utility.yul\":2974:3094   */\n      pop\n      pop\n      jump\t// out\n        /* \"#utility.yul\":3100:3338   */\n    tag_9:\n        /* \"#utility.yul\":3201:3205   */\n      0x00\n        /* \"#utility.yul\":3239:3241   */\n      0x20\n        /* \"#utility.yul\":3228:3237   */\n      dup3\n        /* \"#utility.yul\":3224:3242   */\n      add\n        /* \"#utility.yul\":3216:3242   */\n      swap1\n      pop\n        /* \"#utility.yul\":3252:3331   */\n      tag_88\n        /* \"#utility.yul\":3328:3329   */\n      0x00\n        /* \"#utility.yul\":3317:3326   */\n      dup4\n        /* \"#utility.yul\":3313:3330   */\n      add\n        /* \"#utility.yul\":3304:3310   */\n      dup5\n        /* \"#utility.yul\":3252:3331   */\n      tag_63\n      jump\t// in\n    tag_88:\n        /* \"#utility.yul\":3100:3338   */\n      swap3\n      swap2\n      pop\n      pop\n      jump\t// out\n        /* \"#utility.yul\":3344:3810   */\n    tag_15:\n        /* \"#utility.yul\":3497:3501   */\n      0x00\n        /* \"#utility.yul\":3535:3537   */\n      0x60\n        /* \"#utility.yul\":3524:3533   */\n      dup3\n        /* \"#utility.yul\":3520:3538   */\n      add\n        /* \"#utility.yul\":3512:3538   */\n      swap1\n      pop\n        /* \"#utility.yul\":3548:3627   */\n      tag_90\n        /* \"#utility.yul\":3624:3625   */\n      0x00\n        /* \"#utility.yul\":3613:3622   */\n      dup4\n        /* \"#utility.yul\":3609:3626   */\n      add\n        /* \"#utility.yul\":3600:3606   */\n      dup7\n        /* \"#utility.yul\":3548:3627   */\n      tag_71\n      jump\t// in\n    tag_90:\n        /* \"#utility.yul\":3637:3717   */\n      tag_91\n        /* \"#utility.yul\":3713:3715   */\n      0x20\n        /* \"#utility.yul\":3702:3711   */\n      dup4\n        /* \"#utility.yul\":3698:3716   */\n      add\n        /* \"#utility.yul\":3689:3695   */\n      dup6\n        /* \"#utility.yul\":3637:3717   */\n      tag_71\n      jump\t// in\n    tag_91:\n        /* \"#utility.yul\":3727:3803   */\n      tag_92\n        /* \"#utility.yul\":3799:3801   */\n      0x40\n        /* \"#utility.yul\":3788:3797   */\n      dup4\n        /* \"#utility.yul\":3784:3802   */\n      add\n        /* \"#utility.yul\":3775:3781   */\n      dup5\n        /* \"#utility.yul\":3727:3803   */\n      tag_84\n      jump\t// in\n    tag_92:\n        /* \"#utility.yul\":3344:3810   */\n      swap5\n      swap4\n      pop\n      pop\n      pop\n      pop\n      jump\t// out\n        /* \"#utility.yul\":3816:4361   */\n    tag_19:\n        /* \"#utility.yul\":3989:3993   */\n      0x00\n        /* \"#utility.yul\":4027:4030   */\n      0x80\n        /* \"#utility.yul\":4016:4025   */\n      dup3\n        /* \"#utility.yul\":4012:4031   */\n      add\n        /* \"#utility.yul\":4004:4031   */\n      swap1\n      pop\n        /* \"#utility.yul\":4041:4112   */\n      tag_94\n        /* \"#utility.yul\":4109:4110   */\n      0x00\n        /* \"#utility.yul\":4098:4107   */\n      dup4\n        /* \"#utility.yul\":4094:4111   */\n      add\n        /* \"#utility.yul\":4085:4091   */\n      dup8\n        /* \"#utility.yul\":4041:4112   */\n      tag_67\n      jump\t// in\n    tag_94:\n        /* \"#utility.yul\":4122:4190   */\n      tag_95\n        /* \"#utility.yul\":4186:4188   */\n      0x20\n        /* \"#utility.yul\":4175:4184   */\n      dup4\n        /* \"#utility.yul\":4171:4189   */\n      add\n        /* \"#utility.yul\":4162:4168   */\n      dup7\n        /* \"#utility.yul\":4122:4190   */\n      tag_80\n      jump\t// in\n    tag_95:\n        /* \"#utility.yul\":4200:4272   */\n      tag_96\n        /* \"#utility.yul\":4268:4270   */\n      0x40\n        /* \"#utility.yul\":4257:4266   */\n      dup4\n        /* \"#utility.yul\":4253:4271   */\n      add\n        /* \"#utility.yul\":4244:4250   */\n      dup6\n        /* \"#utility.yul\":4200:4272   */\n      tag_67\n      jump\t// in\n    tag_96:\n        /* \"#utility.yul\":4282:4354   */\n      tag_97\n        /* \"#utility.yul\":4350:4352   */\n      0x60\n        /* \"#utility.yul\":4339:4348   */\n      dup4\n        /* \"#utility.yul\":4335:4353   */\n      add\n        /* \"#utility.yul\":4326:4332   */\n      dup5\n        /* \"#utility.yul\":4282:4354   */\n      tag_67\n      jump\t// in\n    tag_97:\n        /* \"#utility.yul\":3816:4361   */\n      swap6\n      swap5\n      pop\n      pop\n      pop\n      pop\n      pop\n      jump\t// out\n        /* \"#utility.yul\":4367:4786   */\n    tag_25:\n        /* \"#utility.yul\":4533:4537   */\n      0x00\n        /* \"#utility.yul\":4571:4573   */\n      0x20\n        /* \"#utility.yul\":4560:4569   */\n      dup3\n        /* \"#utility.yul\":4556:4574   */\n      add\n        /* \"#utility.yul\":4548:4574   */\n      swap1\n      pop\n        /* \"#utility.yul\":4620:4629   */\n      dup2\n        /* \"#utility.yul\":4614:4618   */\n      dup2\n        /* \"#utility.yul\":4610:4630   */\n      sub\n        /* \"#utility.yul\":4606:4607   */\n      0x00\n        /* \"#utility.yul\":4595:4604   */\n      dup4\n        /* \"#utility.yul\":4591:4608   */\n      add\n        /* \"#utility.yul\":4584:4631   */\n      mstore\n        /* \"#utility.yul\":4648:4779   */\n      tag_99\n        /* \"#utility.yul\":4774:4778   */\n      dup2\n        /* \"#utility.yul\":4648:4779   */\n      tag_74\n      jump\t// in\n    tag_99:\n        /* \"#utility.yul\":4640:4779   */\n      swap1\n      pop\n        /* \"#utility.yul\":4367:4786   */\n      swap2\n      swap1\n      pop\n      jump\t// out\n        /* \"#utility.yul\":4792:4921   */\n    tag_32:\n        /* \"#utility.yul\":4826:4832   */\n      0x00\n        /* \"#utility.yul\":4853:4873   */\n      tag_101\n      tag_102\n      jump\t// in\n    tag_101:\n        /* \"#utility.yul\":4843:4873   */\n      swap1\n      pop\n        /* \"#utility.yul\":4882:4915   */\n      tag_103\n        /* \"#utility.yul\":4910:4914   */\n      dup3\n        /* \"#utility.yul\":4902:4908   */\n      dup3\n        /* \"#utility.yul\":4882:4915   */\n      tag_104\n      jump\t// in\n    tag_103:\n        /* \"#utility.yul\":4792:4921   */\n      swap2\n      swap1\n      pop\n      jump\t// out\n        /* \"#utility.yul\":4927:5002   */\n    tag_102:\n        /* \"#utility.yul\":4960:4966   */\n      0x00\n        /* \"#utility.yul\":4993:4995   */\n      0x40\n        /* \"#utility.yul\":4987:4996   */\n      mload\n        /* \"#utility.yul\":4977:4996   */\n      swap1\n      pop\n        /* \"#utility.yul\":4927:5002   */\n      swap1\n      jump\t// out\n        /* \"#utility.yul\":5008:5315   */\n    tag_31:\n        /* \"#utility.yul\":5069:5073   */\n      0x00\n        /* \"#utility.yul\":5159:5177   */\n      0xffffffffffffffff\n        /* \"#utility.yul\":5151:5157   */\n      dup3\n        /* \"#utility.yul\":5148:5178   */\n      gt\n        /* \"#utility.yul\":5145:5201   */\n      iszero\n      tag_107\n      jumpi\n        /* \"#utility.yul\":5181:5199   */\n      tag_108\n      tag_109\n      jump\t// in\n    tag_108:\n        /* \"#utility.yul\":5145:5201   */\n    tag_107:\n        /* \"#utility.yul\":5219:5248   */\n      tag_110\n        /* \"#utility.yul\":5241:5247   */\n      dup3\n        /* \"#utility.yul\":5219:5248   */\n      tag_111\n      jump\t// in\n    tag_110:\n        /* \"#utility.yul\":5211:5248   */\n      swap1\n      pop\n        /* \"#utility.yul\":5303:5307   */\n      0x20\n        /* \"#utility.yul\":5297:5301   */\n      dup2\n        /* \"#utility.yul\":5293:5308   */\n      add\n        /* \"#utility.yul\":5285:5308   */\n      swap1\n      pop\n        /* \"#utility.yul\":5008:5315   */\n      swap2\n      swap1\n      pop\n      jump\t// out\n        /* \"#utility.yul\":5321:5490   */\n    tag_77:\n        /* \"#utility.yul\":5405:5416   */\n      0x00\n        /* \"#utility.yul\":5439:5445   */\n      dup3\n        /* \"#utility.yul\":5434:5437   */\n      dup3\n        /* \"#utility.yul\":5427:5446   */\n      mstore\n        /* \"#utility.yul\":5479:5483   */\n      0x20\n        /* \"#utility.yul\":5474:5477   */\n      dup3\n        /* \"#utility.yul\":5470:5484   */\n      add\n        /* \"#utility.yul\":5455:5484   */\n      swap1\n      pop\n        /* \"#utility.yul\":5321:5490   */\n      swap3\n      swap2\n      pop\n      pop\n      jump\t// out\n        /* \"#utility.yul\":5496:5592   */\n    tag_66:\n        /* \"#utility.yul\":5533:5540   */\n      0x00\n        /* \"#utility.yul\":5562:5586   */\n      tag_114\n        /* \"#utility.yul\":5580:5585   */\n      dup3\n        /* \"#utility.yul\":5562:5586   */\n      tag_115\n      jump\t// in\n    tag_114:\n        /* \"#utility.yul\":5551:5586   */\n      swap1\n      pop\n        /* \"#utility.yul\":5496:5592   */\n      swap2\n      swap1\n      pop\n      jump\t// out\n        /* \"#utility.yul\":5598:5675   */\n    tag_70:\n        /* \"#utility.yul\":5635:5642   */\n      0x00\n        /* \"#utility.yul\":5664:5669   */\n      dup2\n        /* \"#utility.yul\":5653:5669   */\n      swap1\n      pop\n        /* \"#utility.yul\":5598:5675   */\n      swap2\n      swap1\n      pop\n      jump\t// out\n        /* \"#utility.yul\":5681:5807   */\n    tag_115:\n        /* \"#utility.yul\":5718:5725   */\n      0x00\n        /* \"#utility.yul\":5758:5800   */\n      0xffffffffffffffffffffffffffffffffffffffff\n        /* \"#utility.yul\":5751:5756   */\n      dup3\n        /* \"#utility.yul\":5747:5801   */\n      and\n        /* \"#utility.yul\":5736:5801   */\n      swap1\n      pop\n        /* \"#utility.yul\":5681:5807   */\n      swap2\n      swap1\n      pop\n      jump\t// out\n        /* \"#utility.yul\":5813:5899   */\n    tag_83:\n        /* \"#utility.yul\":5848:5855   */\n      0x00\n        /* \"#utility.yul\":5888:5892   */\n      0xff\n        /* \"#utility.yul\":5881:5886   */\n      dup3\n        /* \"#utility.yul\":5877:5893   */\n      and\n        /* \"#utility.yul\":5866:5893   */\n      swap1\n      pop\n        /* \"#utility.yul\":5813:5899   */\n      swap2\n      swap1\n      pop\n      jump\t// out\n        /* \"#utility.yul\":5905:6059   */\n    tag_37:\n        /* \"#utility.yul\":5989:5995   */\n      dup3\n        /* \"#utility.yul\":5984:5987   */\n      dup2\n        /* \"#utility.yul\":5979:5982   */\n      dup4\n        /* \"#utility.yul\":5966:5996   */\n      calldatacopy\n        /* \"#utility.yul\":6051:6052   */\n      0x00\n        /* \"#utility.yul\":6042:6048   */\n      dup4\n        /* \"#utility.yul\":6037:6040   */\n      dup4\n        /* \"#utility.yul\":6033:6049   */\n      add\n        /* \"#utility.yul\":6026:6053   */\n      mstore\n        /* \"#utility.yul\":5905:6059   */\n      pop\n      pop\n      pop\n      jump\t// out\n        /* \"#utility.yul\":6065:6346   */\n    tag_104:\n        /* \"#utility.yul\":6148:6175   */\n      tag_121\n        /* \"#utility.yul\":6170:6174   */\n      dup3\n        /* \"#utility.yul\":6148:6175   */\n      tag_111\n      jump\t// in\n    tag_121:\n        /* \"#utility.yul\":6140:6146   */\n      dup2\n        /* \"#utility.yul\":6136:6176   */\n      add\n        /* \"#utility.yul\":6278:6284   */\n      dup2\n        /* \"#utility.yul\":6266:6276   */\n      dup2\n        /* \"#utility.yul\":6263:6285   */\n      lt\n        /* \"#utility.yul\":6242:6260   */\n      0xffffffffffffffff\n        /* \"#utility.yul\":6230:6240   */\n      dup3\n        /* \"#utility.yul\":6227:6261   */\n      gt\n        /* \"#utility.yul\":6224:6286   */\n      or\n        /* \"#utility.yul\":6221:6309   */\n      iszero\n      tag_122\n      jumpi\n        /* \"#utility.yul\":6289:6307   */\n      tag_123\n      tag_109\n      jump\t// in\n    tag_123:\n        /* \"#utility.yul\":6221:6309   */\n    tag_122:\n        /* \"#utility.yul\":6329:6339   */\n      dup1\n        /* \"#utility.yul\":6325:6327   */\n      0x40\n        /* \"#utility.yul\":6318:6340   */\n      mstore\n        /* \"#utility.yul\":6108:6346   */\n      pop\n        /* \"#utility.yul\":6065:6346   */\n      pop\n      pop\n      jump\t// out\n        /* \"#utility.yul\":6352:6532   */\n    tag_109:\n        /* \"#utility.yul\":6400:6477   */\n      0x4e487b7100000000000000000000000000000000000000000000000000000000\n        /* \"#utility.yul\":6397:6398   */\n      0x00\n        /* \"#utility.yul\":6390:6478   */\n      mstore\n        /* \"#utility.yul\":6497:6501   */\n      0x41\n        /* \"#utility.yul\":6494:6495   */\n      0x04\n        /* \"#utility.yul\":6487:6502   */\n      mstore\n        /* \"#utility.yul\":6521:6525   */\n      0x24\n        /* \"#utility.yul\":6518:6519   */\n      0x00\n        /* \"#utility.yul\":6511:6526   */\n      revert\n        /* \"#utility.yul\":6538:6655   */\n    tag_46:\n        /* \"#utility.yul\":6647:6648   */\n      0x00\n        /* \"#utility.yul\":6644:6645   */\n      dup1\n        /* \"#utility.yul\":6637:6649   */\n      revert\n        /* \"#utility.yul\":6661:6778   */\n    tag_35:\n        /* \"#utility.yul\":6770:6771   */\n      0x00\n        /* \"#utility.yul\":6767:6768   */\n      dup1\n        /* \"#utility.yul\":6760:6772   */\n      revert\n        /* \"#utility.yul\":6784:6901   */\n    tag_55:\n        /* \"#utility.yul\":6893:6894   */\n      0x00\n        /* \"#utility.yul\":6890:6891   */\n      dup1\n        /* \"#utility.yul\":6883:6895   */\n      revert\n        /* \"#utility.yul\":6907:7024   */\n    tag_51:\n        /* \"#utility.yul\":7016:7017   */\n      0x00\n        /* \"#utility.yul\":7013:7014   */\n      dup1\n        /* \"#utility.yul\":7006:7018   */\n      revert\n        /* \"#utility.yul\":7030:7132   */\n    tag_111:\n        /* \"#utility.yul\":7071:7077   */\n      0x00\n        /* \"#utility.yul\":7122:7124   */\n      0x1f\n        /* \"#utility.yul\":7118:7125   */\n      not\n        /* \"#utility.yul\":7113:7115   */\n      0x1f\n        /* \"#utility.yul\":7106:7111   */\n      dup4\n        /* \"#utility.yul\":7102:7116   */\n      add\n        /* \"#utility.yul\":7098:7126   */\n      and\n        /* \"#utility.yul\":7088:7126   */\n      swap1\n      pop\n        /* \"#utility.yul\":7030:7132   */\n      swap2\n      swap1\n      pop\n      jump\t// out\n        /* \"#utility.yul\":7138:7312   */\n    tag_79:\n        /* \"#utility.yul\":7278:7304   */\n      0x696e76616c6964207369676e6174757265206c656e6774680000000000000000\n        /* \"#utility.yul\":7274:7275   */\n      0x00\n        /* \"#utility.yul\":7266:7272   */\n      dup3\n        /* \"#utility.yul\":7262:7276   */\n      add\n        /* \"#utility.yul\":7255:7305   */\n      mstore\n        /* \"#utility.yul\":7138:7312   */\n      pop\n      jump\t// out\n        /* \"#utility.yul\":7318:7440   */\n    tag_41:\n        /* \"#utility.yul\":7391:7415   */\n      tag_132\n        /* \"#utility.yul\":7409:7414   */\n      dup2\n        /* \"#utility.yul\":7391:7415   */\n      tag_70\n      jump\t// in\n    tag_132:\n        /* \"#utility.yul\":7384:7389   */\n      dup2\n        /* \"#utility.yul\":7381:7416   */\n      eq\n        /* \"#utility.yul\":7371:7434   */\n      tag_133\n      jumpi\n        /* \"#utility.yul\":7430:7431   */\n      0x00\n        /* \"#utility.yul\":7427:7428   */\n      dup1\n        /* \"#utility.yul\":7420:7432   */\n      revert\n        /* \"#utility.yul\":7371:7434   */\n    tag_133:\n        /* \"#utility.yul\":7318:7440   */\n      pop\n      jump\t// out\n\n    auxdata: 0xa2646970667358221220a4946e22e8c019f7b7c8c6ba3b8a1336d789327466e8d577daf794ec2ca81b5864736f6c63430008070033\n}\n",
				"bytecode": {
					"linkReferences": {},
					"object": "610587610053600b82828239805160001a607314610046577f4e487b7100000000000000000000000000000000000000000000000000000000600052600060045260246000fd5b30600052607381538281f3fe73000000000000000000000000000000000000000030146080604052600436106100405760003560e01c806397aba7f914610045578063a7bb580314610075575b600080fd5b61005f600480360381019061005a9190610203565b6100a7565b60405161006c9190610316565b60405180910390f35b61008f600480360381019061008a919061025f565b610116565b60405161009e93929190610331565b60405180910390f35b6000806000806100b685610116565b925092509250600186828585604051600081526020016040526040516100df9493929190610368565b6020604051602081039080840390855afa158015610101573d6000803e3d6000fd5b50505060206040510351935050505092915050565b6000806000604184511461015f576040517f08c379a0000000000000000000000000000000000000000000000000000000008152600401610156906103ad565b60405180910390fd5b6020840151925060408401519150606084015160001a90509193909250565b600061019161018c846103f2565b6103cd565b9050828152602081018484840111156101ad576101ac6104f1565b5b6101b884828561047d565b509392505050565b6000813590506101cf8161053a565b92915050565b600082601f8301126101ea576101e96104ec565b5b81356101fa84826020860161017e565b91505092915050565b6000806040838503121561021a576102196104fb565b5b6000610228858286016101c0565b925050602083013567ffffffffffffffff811115610249576102486104f6565b5b610255858286016101d5565b9150509250929050565b600060208284031215610275576102746104fb565b5b600082013567ffffffffffffffff811115610293576102926104f6565b5b61029f848285016101d5565b91505092915050565b6102b181610434565b82525050565b6102c081610446565b82525050565b6102cf81610446565b82525050565b60006102e2601883610423565b91506102ed82610511565b602082019050919050565b61030181610470565b82525050565b61031081610470565b82525050565b600060208201905061032b60008301846102a8565b92915050565b600060608201905061034660008301866102c6565b61035360208301856102c6565b6103606040830184610307565b949350505050565b600060808201905061037d60008301876102b7565b61038a60208301866102f8565b61039760408301856102b7565b6103a460608301846102b7565b95945050505050565b600060208201905081810360008301526103c6816102d5565b9050919050565b60006103d76103e8565b90506103e3828261048c565b919050565b6000604051905090565b600067ffffffffffffffff82111561040d5761040c6104bd565b5b61041682610500565b9050602081019050919050565b600082825260208201905092915050565b600061043f82610450565b9050919050565b6000819050919050565b600073ffffffffffffffffffffffffffffffffffffffff82169050919050565b600060ff82169050919050565b82818337600083830152505050565b61049582610500565b810181811067ffffffffffffffff821117156104b4576104b36104bd565b5b80604052505050565b7f4e487b7100000000000000000000000000000000000000000000000000000000600052604160045260246000fd5b600080fd5b600080fd5b600080fd5b600080fd5b6000601f19601f8301169050919050565b7f696e76616c6964207369676e6174757265206c656e6774680000000000000000600082015250565b61054381610446565b811461054e57600080fd5b5056fea2646970667358221220a4946e22e8c019f7b7c8c6ba3b8a1336d789327466e8d577daf794ec2ca81b5864736f6c63430008070033",
					"opcodes": "PUSH2 0x587 PUSH2 0x53 PUSH1 0xB DUP3 DUP3 DUP3 CODECOPY DUP1 MLOAD PUSH1 0x0 BYTE PUSH1 0x73 EQ PUSH2 0x46 JUMPI PUSH32 0x4E487B7100000000000000000000000000000000000000000000000000000000 PUSH1 0x0 MSTORE PUSH1 0x0 PUSH1 0x4 MSTORE PUSH1 0x24 PUSH1 0x0 REVERT JUMPDEST ADDRESS PUSH1 0x0 MSTORE PUSH1 0x73 DUP2 MSTORE8 DUP3 DUP2 RETURN INVALID PUSH20 0x0 ADDRESS EQ PUSH1 0x80 PUSH1 0x40 MSTORE PUSH1 0x4 CALLDATASIZE LT PUSH2 0x40 JUMPI PUSH1 0x0 CALLDATALOAD PUSH1 0xE0 SHR DUP1 PUSH4 0x97ABA7F9 EQ PUSH2 0x45 JUMPI DUP1 PUSH4 0xA7BB5803 EQ PUSH2 0x75 JUMPI JUMPDEST PUSH1 0x0 DUP1 REVERT JUMPDEST PUSH2 0x5F PUSH1 0x4 DUP1 CALLDATASIZE SUB DUP2 ADD SWAP1 PUSH2 0x5A SWAP2 SWAP1 PUSH2 0x203 JUMP JUMPDEST PUSH2 0xA7 JUMP JUMPDEST PUSH1 0x40 MLOAD PUSH2 0x6C SWAP2 SWAP1 PUSH2 0x316 JUMP JUMPDEST PUSH1 0x40 MLOAD DUP1 SWAP2 SUB SWAP1 RETURN JUMPDEST PUSH2 0x8F PUSH1 0x4 DUP1 CALLDATASIZE SUB DUP2 ADD SWAP1 PUSH2 0x8A SWAP2 SWAP1 PUSH2 0x25F JUMP JUMPDEST PUSH2 0x116 JUMP JUMPDEST PUSH1 0x40 MLOAD PUSH2 0x9E SWAP4 SWAP3 SWAP2 SWAP1 PUSH2 0x331 JUMP JUMPDEST PUSH1 0x40 MLOAD DUP1 SWAP2 SUB SWAP1 RETURN JUMPDEST PUSH1 0x0 DUP1 PUSH1 0x0 DUP1 PUSH2 0xB6 DUP6 PUSH2 0x116 JUMP JUMPDEST SWAP3 POP SWAP3 POP SWAP3 POP PUSH1 0x1 DUP7 DUP3 DUP6 DUP6 PUSH1 0x40 MLOAD PUSH1 0x0 DUP2 MSTORE PUSH1 0x20 ADD PUSH1 0x40 MSTORE PUSH1 0x40 MLOAD PUSH2 0xDF SWAP5 SWAP4 SWAP3 SWAP2 SWAP1 PUSH2 0x368 JUMP JUMPDEST PUSH1 0x20 PUSH1 0x40 MLOAD PUSH1 0x20 DUP2 SUB SWAP1 DUP1 DUP5 SUB SWAP1 DUP6 GAS STATICCALL ISZERO DUP1 ISZERO PUSH2 0x101 JUMPI RETURNDATASIZE PUSH1 0x0 DUP1 RETURNDATACOPY RETURNDATASIZE PUSH1 0x0 REVERT JUMPDEST POP POP POP PUSH1 0x20 PUSH1 0x40 MLOAD SUB MLOAD SWAP4 POP POP POP POP SWAP3 SWAP2 POP POP JUMP JUMPDEST PUSH1 0x0 DUP1 PUSH1 0x0 PUSH1 0x41 DUP5 MLOAD EQ PUSH2 0x15F JUMPI PUSH1 0x40 MLOAD PUSH32 0x8C379A000000000000000000000000000000000000000000000000000000000 DUP2 MSTORE PUSH1 0x4 ADD PUSH2 0x156 SWAP1 PUSH2 0x3AD JUMP JUMPDEST PUSH1 0x40 MLOAD DUP1 SWAP2 SUB SWAP1 REVERT JUMPDEST PUSH1 0x20 DUP5 ADD MLOAD SWAP3 POP PUSH1 0x40 DUP5 ADD MLOAD SWAP2 POP PUSH1 0x60 DUP5 ADD MLOAD PUSH1 0x0 BYTE SWAP1 POP SWAP2 SWAP4 SWAP1 SWAP3 POP JUMP JUMPDEST PUSH1 0x0 PUSH2 0x191 PUSH2 0x18C DUP5 PUSH2 0x3F2 JUMP JUMPDEST PUSH2 0x3CD JUMP JUMPDEST SWAP1 POP DUP3 DUP2 MSTORE PUSH1 0x20 DUP2 ADD DUP5 DUP5 DUP5 ADD GT ISZERO PUSH2 0x1AD JUMPI PUSH2 0x1AC PUSH2 0x4F1 JUMP JUMPDEST JUMPDEST PUSH2 0x1B8 DUP5 DUP3 DUP6 PUSH2 0x47D JUMP JUMPDEST POP SWAP4 SWAP3 POP POP POP JUMP JUMPDEST PUSH1 0x0 DUP2 CALLDATALOAD SWAP1 POP PUSH2 0x1CF DUP2 PUSH2 0x53A JUMP JUMPDEST SWAP3 SWAP2 POP POP JUMP JUMPDEST PUSH1 0x0 DUP3 PUSH1 0x1F DUP4 ADD SLT PUSH2 0x1EA JUMPI PUSH2 0x1E9 PUSH2 0x4EC JUMP JUMPDEST JUMPDEST DUP2 CALLDATALOAD PUSH2 0x1FA DUP5 DUP3 PUSH1 0x20 DUP7 ADD PUSH2 0x17E JUMP JUMPDEST SWAP2 POP POP SWAP3 SWAP2 POP POP JUMP JUMPDEST PUSH1 0x0 DUP1 PUSH1 0x40 DUP4 DUP6 SUB SLT ISZERO PUSH2 0x21A JUMPI PUSH2 0x219 PUSH2 0x4FB JUMP JUMPDEST JUMPDEST PUSH1 0x0 PUSH2 0x228 DUP6 DUP3 DUP7 ADD PUSH2 0x1C0 JUMP JUMPDEST SWAP3 POP POP PUSH1 0x20 DUP4 ADD CALLDATALOAD PUSH8 0xFFFFFFFFFFFFFFFF DUP2 GT ISZERO PUSH2 0x249 JUMPI PUSH2 0x248 PUSH2 0x4F6 JUMP JUMPDEST JUMPDEST PUSH2 0x255 DUP6 DUP3 DUP7 ADD PUSH2 0x1D5 JUMP JUMPDEST SWAP2 POP POP SWAP3 POP SWAP3 SWAP1 POP JUMP JUMPDEST PUSH1 0x0 PUSH1 0x20 DUP3 DUP5 SUB SLT ISZERO PUSH2 0x275 JUMPI PUSH2 0x274 PUSH2 0x4FB JUMP JUMPDEST JUMPDEST PUSH1 0x0 DUP3 ADD CALLDATALOAD PUSH8 0xFFFFFFFFFFFFFFFF DUP2 GT ISZERO PUSH2 0x293 JUMPI PUSH2 0x292 PUSH2 0x4F6 JUMP JUMPDEST JUMPDEST PUSH2 0x29F DUP5 DUP3 DUP6 ADD PUSH2 0x1D5 JUMP JUMPDEST SWAP2 POP POP SWAP3 SWAP2 POP POP JUMP JUMPDEST PUSH2 0x2B1 DUP2 PUSH2 0x434 JUMP JUMPDEST DUP3 MSTORE POP POP JUMP JUMPDEST PUSH2 0x2C0 DUP2 PUSH2 0x446 JUMP JUMPDEST DUP3 MSTORE POP POP JUMP JUMPDEST PUSH2 0x2CF DUP2 PUSH2 0x446 JUMP JUMPDEST DUP3 MSTORE POP POP JUMP JUMPDEST PUSH1 0x0 PUSH2 0x2E2 PUSH1 0x18 DUP4 PUSH2 0x423 JUMP JUMPDEST SWAP2 POP PUSH2 0x2ED DUP3 PUSH2 0x511 JUMP JUMPDEST PUSH1 0x20 DUP3 ADD SWAP1 POP SWAP2 SWAP1 POP JUMP JUMPDEST PUSH2 0x301 DUP2 PUSH2 0x470 JUMP JUMPDEST DUP3 MSTORE POP POP JUMP JUMPDEST PUSH2 0x310 DUP2 PUSH2 0x470 JUMP JUMPDEST DUP3 MSTORE POP POP JUMP JUMPDEST PUSH1 0x0 PUSH1 0x20 DUP3 ADD SWAP1 POP PUSH2 0x32B PUSH1 0x0 DUP4 ADD DUP5 PUSH2 0x2A8 JUMP JUMPDEST SWAP3 SWAP2 POP POP JUMP JUMPDEST PUSH1 0x0 PUSH1 0x60 DUP3 ADD SWAP1 POP PUSH2 0x346 PUSH1 0x0 DUP4 ADD DUP7 PUSH2 0x2C6 JUMP JUMPDEST PUSH2 0x353 PUSH1 0x20 DUP4 ADD DUP6 PUSH2 0x2C6 JUMP JUMPDEST PUSH2 0x360 PUSH1 0x40 DUP4 ADD DUP5 PUSH2 0x307 JUMP JUMPDEST SWAP5 SWAP4 POP POP POP POP JUMP JUMPDEST PUSH1 0x0 PUSH1 0x80 DUP3 ADD SWAP1 POP PUSH2 0x37D PUSH1 0x0 DUP4 ADD DUP8 PUSH2 0x2B7 JUMP JUMPDEST PUSH2 0x38A PUSH1 0x20 DUP4 ADD DUP7 PUSH2 0x2F8 JUMP JUMPDEST PUSH2 0x397 PUSH1 0x40 DUP4 ADD DUP6 PUSH2 0x2B7 JUMP JUMPDEST PUSH2 0x3A4 PUSH1 0x60 DUP4 ADD DUP5 PUSH2 0x2B7 JUMP JUMPDEST SWAP6 SWAP5 POP POP POP POP POP JUMP JUMPDEST PUSH1 0x0 PUSH1 0x20 DUP3 ADD SWAP1 POP DUP2 DUP2 SUB PUSH1 0x0 DUP4 ADD MSTORE PUSH2 0x3C6 DUP2 PUSH2 0x2D5 JUMP JUMPDEST SWAP1 POP SWAP2 SWAP1 POP JUMP JUMPDEST PUSH1 0x0 PUSH2 0x3D7 PUSH2 0x3E8 JUMP JUMPDEST SWAP1 POP PUSH2 0x3E3 DUP3 DUP3 PUSH2 0x48C JUMP JUMPDEST SWAP2 SWAP1 POP JUMP JUMPDEST PUSH1 0x0 PUSH1 0x40 MLOAD SWAP1 POP SWAP1 JUMP JUMPDEST PUSH1 0x0 PUSH8 0xFFFFFFFFFFFFFFFF DUP3 GT ISZERO PUSH2 0x40D JUMPI PUSH2 0x40C PUSH2 0x4BD JUMP JUMPDEST JUMPDEST PUSH2 0x416 DUP3 PUSH2 0x500 JUMP JUMPDEST SWAP1 POP PUSH1 0x20 DUP2 ADD SWAP1 POP SWAP2 SWAP1 POP JUMP JUMPDEST PUSH1 0x0 DUP3 DUP3 MSTORE PUSH1 0x20 DUP3 ADD SWAP1 POP SWAP3 SWAP2 POP POP JUMP JUMPDEST PUSH1 0x0 PUSH2 0x43F DUP3 PUSH2 0x450 JUMP JUMPDEST SWAP1 POP SWAP2 SWAP1 POP JUMP JUMPDEST PUSH1 0x0 DUP2 SWAP1 POP SWAP2 SWAP1 POP JUMP JUMPDEST PUSH1 0x0 PUSH20 0xFFFFFFFFFFFFFFFFFFFFFFFFFFFFFFFFFFFFFFFF DUP3 AND SWAP1 POP SWAP2 SWAP1 POP JUMP JUMPDEST PUSH1 0x0 PUSH1 0xFF DUP3 AND SWAP1 POP SWAP2 SWAP1 POP JUMP JUMPDEST DUP3 DUP2 DUP4 CALLDATACOPY PUSH1 0x0 DUP4 DUP4 ADD MSTORE POP POP POP JUMP JUMPDEST PUSH2 0x495 DUP3 PUSH2 0x500 JUMP JUMPDEST DUP2 ADD DUP2 DUP2 LT PUSH8 0xFFFFFFFFFFFFFFFF DUP3 GT OR ISZERO PUSH2 0x4B4 JUMPI PUSH2 0x4B3 PUSH2 0x4BD JUMP JUMPDEST JUMPDEST DUP1 PUSH1 0x40 MSTORE POP POP POP JUMP JUMPDEST PUSH32 0x4E487B7100000000000000000000000000000000000000000000000000000000 PUSH1 0x0 MSTORE PUSH1 0x41 PUSH1 0x4 MSTORE PUSH1 0x24 PUSH1 0x0 REVERT JUMPDEST PUSH1 0x0 DUP1 REVERT JUMPDEST PUSH1 0x0 DUP1 REVERT JUMPDEST PUSH1 0x0 DUP1 REVERT JUMPDEST PUSH1 0x0 DUP1 REVERT JUMPDEST PUSH1 0x0 PUSH1 0x1F NOT PUSH1 0x1F DUP4 ADD AND SWAP1 POP SWAP2 SWAP1 POP JUMP JUMPDEST PUSH32 0x696E76616C6964207369676E6174757265206C656E6774680000000000000000 PUSH1 0x0 DUP3 ADD MSTORE POP JUMP JUMPDEST PUSH2 0x543 DUP2 PUSH2 0x446 JUMP JUMPDEST DUP2 EQ PUSH2 0x54E JUMPI PUSH1 0x0 DUP1 REVERT JUMPDEST POP JUMP INVALID LOG2 PUSH5 0x6970667358 0x22 SLT KECCAK256 LOG4 SWAP5 PUSH15 0x22E8C019F7B7C8C6BA3B8A1336D789 ORIGIN PUSH21 0x66E8D577DAF794EC2CA81B5864736F6C6343000807 STOP CALLER "
				},
				"gasEstimates": {
					"creation": {
						"codeDepositCost": "283000",
						"executionCost": "349",
						"totalCost": "283349"
					},
					"external": {
						"recoverSigner(bytes32,bytes)": "infinite",
						"splitSignature(bytes)": "infinite"
					}
				},
				"methodIdentifiers": {
					"recoverSigner(bytes32,bytes)": "97aba7f9",
					"splitSignature(bytes)": "a7bb5803"
				}
			},
			"userdoc": {
				"kind": "user",
				"methods": {},
				"version": 1
			}
		}
	}
}