{
	"data": {
		"bytecode": {
			"linkReferences": {},
			"object": "608060405260405180602001604052806000815250600490805190602001906200002b929190620000d7565b503480156200003957600080fd5b5060405162003d5038038062003d5083398181016040528101906200005f919062000389565b816200007181620000bb60201b60201c565b5080600860006101000a81548173ffffffffffffffffffffffffffffffffffffffff021916908373ffffffffffffffffffffffffffffffffffffffff160217905550505062000453565b8060029080519060200190620000d3929190620000d7565b5050565b828054620000e5906200041e565b90600052602060002090601f01602090048101928262000109576000855562000155565b82601f106200012457805160ff191683800117855562000155565b8280016001018555821562000155579182015b828111156200015457825182559160200191906001019062000137565b5b50905062000164919062000168565b5090565b5b808211156200018357600081600090555060010162000169565b5090565b6000604051905090565b600080fd5b600080fd5b600080fd5b600080fd5b6000601f19601f8301169050919050565b7f4e487b7100000000000000000000000000000000000000000000000000000000600052604160045260246000fd5b620001f082620001a5565b810181811067ffffffffffffffff82111715620002125762000211620001b6565b5b80604052505050565b60006200022762000187565b9050620002358282620001e5565b919050565b600067ffffffffffffffff821115620002585762000257620001b6565b5b6200026382620001a5565b9050602081019050919050565b60005b838110156200029057808201518184015260208101905062000273565b83811115620002a0576000848401525b50505050565b6000620002bd620002b7846200023a565b6200021b565b905082815260208101848484011115620002dc57620002db620001a0565b5b620002e984828562000270565b509392505050565b600082601f8301126200030957620003086200019b565b5b81516200031b848260208601620002a6565b91505092915050565b600073ffffffffffffffffffffffffffffffffffffffff82169050919050565b6000620003518262000324565b9050919050565b620003638162000344565b81146200036f57600080fd5b50565b600081519050620003838162000358565b92915050565b60008060408385031215620003a357620003a262000191565b5b600083015167ffffffffffffffff811115620003c457620003c362000196565b5b620003d285828601620002f1565b9250506020620003e58582860162000372565b9150509250929050565b7f4e487b7100000000000000000000000000000000000000000000000000000000600052602260045260246000fd5b600060028204905060018216806200043757607f821691505b6020821081036200044d576200044c620003ef565b5b50919050565b6138ed80620004636000396000f3fe608060405234801561001057600080fd5b50600436106101205760003560e01c80636c0360eb116100ad578063c1341c4f11610071578063c1341c4f14610365578063cb45077214610381578063d14186c61461039d578063e985e9c5146103b9578063f242432a146103e957610120565b80636c0360eb1461029b5780636c8b703f146102b957806392a88fa2146102e9578063a22cb46514610319578063bd85b0391461033557610120565b80632eb2c2d6116100f45780632eb2c2d6146101e55780634b8c9c2d146102015780634e1273f41461021f5780634f558e791461024f57806355f804b31461027f57610120565b8062fdd58e1461012557806301ffc9a7146101555780630e89341c1461018557806323f5867f146101b5575b600080fd5b61013f600480360381019061013a91906121c6565b610405565b60405161014c9190612215565b60405180910390f35b61016f600480360381019061016a9190612288565b6104cd565b60405161017c91906122d0565b60405180910390f35b61019f600480360381019061019a91906122eb565b6105af565b6040516101ac91906123b1565b60405180910390f35b6101cf60048036038101906101ca91906122eb565b610607565b6040516101dc9190612428565b60405180910390f35b6101ff60048036038101906101fa9190612647565b6106a7565b005b610209610748565b6040516102169190612725565b60405180910390f35b61023960048036038101906102349190612803565b61076e565b6040516102469190612939565b60405180910390f35b610269600480360381019061026491906122eb565b610887565b60405161027691906122d0565b60405180910390f35b610299600480360381019061029491906129b6565b61089b565b005b6102a361097c565b6040516102b091906123b1565b60405180910390f35b6102d360048036038101906102ce91906122eb565b610a0e565b6040516102e091906123b1565b60405180910390f35b61030360048036038101906102fe9190612a03565b610ab3565b60405161031091906122d0565b60405180910390f35b610333600480360381019061032e9190612a5c565b610ad3565b005b61034f600480360381019061034a91906122eb565b610ae9565b60405161035c9190612215565b60405180910390f35b61037f600480360381019061037a9190612af2565b610b06565b005b61039b60048036038101906103969190612a03565b610c38565b005b6103b760048036038101906103b29190612a5c565b610ddf565b005b6103d360048036038101906103ce9190612bae565b610f5c565b6040516103e091906122d0565b60405180910390f35b61040360048036038101906103fe9190612bee565b610ff0565b005b60008073ffffffffffffffffffffffffffffffffffffffff168373ffffffffffffffffffffffffffffffffffffffff1603610475576040517f08c379a000000000000000000000000000000000000000000000000000000000815260040161046c90612cf7565b60405180910390fd5b60008083815260200190815260200160002060008473ffffffffffffffffffffffffffffffffffffffff1673ffffffffffffffffffffffffffffffffffffffff16815260200190815260200160002054905092915050565b60007fd9b67a26000000000000000000000000000000000000000000000000000000007bffffffffffffffffffffffffffffffffffffffffffffffffffffffff1916827bffffffffffffffffffffffffffffffffffffffffffffffffffffffff1916148061059857507f0e89341c000000000000000000000000000000000000000000000000000000007bffffffffffffffffffffffffffffffffffffffffffffffffffffffff1916827bffffffffffffffffffffffffffffffffffffffffffffffffffffffff1916145b806105a857506105a782611091565b5b9050919050565b606060006105bc83610a0e565b905060008151116105d5576105d0836110fb565b6105ff565b6105dd61097c565b816040516020016105ef929190612d9f565b6040516020818303038152906040525b915050919050565b6007602052806000526040600020600091509050805461062690612dfd565b80601f016020809104026020016040519081016040528092919081815260200182805461065290612dfd565b801561069f5780601f106106745761010080835404028352916020019161069f565b820191906000526020600020905b81548152906001019060200180831161068257829003601f168201915b505050505081565b6106af6111e0565b73ffffffffffffffffffffffffffffffffffffffff168573ffffffffffffffffffffffffffffffffffffffff1614806106f557506106f4856106ef6111e0565b610f5c565b5b610734576040517f08c379a000000000000000000000000000000000000000000000000000000000815260040161072b90612ea0565b60405180910390fd5b61074185858585856111e8565b5050505050565b600860009054906101000a900473ffffffffffffffffffffffffffffffffffffffff1681565b606081518351146107b4576040517f08c379a00000000000000000000000000000000000000000000000000000000081526004016107ab90612f32565b60405180910390fd5b6000835167ffffffffffffffff8111156107d1576107d061244f565b5b6040519080825280602002602001820160405280156107ff5781602001602082028036833780820191505090505b50905060005b845181101561087c5761084c85828151811061082457610823612f52565b5b602002602001015185838151811061083f5761083e612f52565b5b6020026020010151610405565b82828151811061085f5761085e612f52565b5b6020026020010181815250508061087590612fb0565b9050610805565b508091505092915050565b60008061089383610ae9565b119050919050565b600860009054906101000a900473ffffffffffffffffffffffffffffffffffffffff1673ffffffffffffffffffffffffffffffffffffffff163373ffffffffffffffffffffffffffffffffffffffff161461092b576040517f08c379a000000000000000000000000000000000000000000000000000000000815260040161092290613044565b60405180910390fd5b61097882828080601f016020809104026020016040519081016040528093929190818152602001838380828437600081840152601f19601f82011690508083019250505050505050611509565b5050565b60606004805461098b90612dfd565b80601f01602080910402602001604051908101604052809291908181526020018280546109b790612dfd565b8015610a045780601f106109d957610100808354040283529160200191610a04565b820191906000526020600020905b8154815290600101906020018083116109e757829003601f168201915b5050505050905090565b6060600560008381526020019081526020016000208054610a2e90612dfd565b80601f0160208091040260200160405190810160405280929190818152602001828054610a5a90612dfd565b8015610aa75780601f10610a7c57610100808354040283529160200191610aa7565b820191906000526020600020905b815481529060010190602001808311610a8a57829003601f168201915b50505050509050919050565b60066020528060005260406000206000915054906101000a900460ff1681565b610ae5610ade6111e0565b8383611523565b5050565b600060036000838152602001908152602001600020549050919050565b600660003373ffffffffffffffffffffffffffffffffffffffff1673ffffffffffffffffffffffffffffffffffffffff16815260200190815260200160002060009054906101000a900460ff16610b92576040517f08c379a0000000000000000000000000000000000000000000000000000000008152600401610b8990613044565b60405180910390fd5b6000610b9d87610ae9565b03610c1457610bf08683838080601f016020809104026020016040519081016040528093929190818152602001838380828437600081840152601f19601f8201169050808301925050505050505061168f565b8383600760008981526020019081526020016000209190610c12929190611ff5565b505b610c2f878787604051806020016040528060008152506116bb565b50505050505050565b600860009054906101000a900473ffffffffffffffffffffffffffffffffffffffff1673ffffffffffffffffffffffffffffffffffffffff163373ffffffffffffffffffffffffffffffffffffffff1614610cc8576040517f08c379a0000000000000000000000000000000000000000000000000000000008152600401610cbf90613044565b60405180910390fd5b8073ffffffffffffffffffffffffffffffffffffffff16600860009054906101000a900473ffffffffffffffffffffffffffffffffffffffff1673ffffffffffffffffffffffffffffffffffffffff1603610d58576040517f08c379a0000000000000000000000000000000000000000000000000000000008152600401610d4f906130d6565b60405180910390fd5b80600860006101000a81548173ffffffffffffffffffffffffffffffffffffffff021916908373ffffffffffffffffffffffffffffffffffffffff1602179055508073ffffffffffffffffffffffffffffffffffffffff167fd4c1af98b758421a8d47b0bc04ecfa30233d5506955e8cde282417aa0d31d3b660405160405180910390a250565b600860009054906101000a900473ffffffffffffffffffffffffffffffffffffffff1673ffffffffffffffffffffffffffffffffffffffff163373ffffffffffffffffffffffffffffffffffffffff1614610e6f576040517f08c379a0000000000000000000000000000000000000000000000000000000008152600401610e6690613044565b60405180910390fd5b80600660008473ffffffffffffffffffffffffffffffffffffffff1673ffffffffffffffffffffffffffffffffffffffff16815260200190815260200160002060006101000a81548160ff0219169083151502179055508015610f14578173ffffffffffffffffffffffffffffffffffffffff167f526af00f9bc92d53f2d0b4c603a1305395a04f7fb6a0a7962867d8d23046754760405160405180910390a2610f58565b8173ffffffffffffffffffffffffffffffffffffffff167fe8185c1a3f6241a6224d99ff39e932ac24fc0d2c51b17e56c5d6f52aff1b5da160405160405180910390a25b5050565b6000600160008473ffffffffffffffffffffffffffffffffffffffff1673ffffffffffffffffffffffffffffffffffffffff16815260200190815260200160002060008373ffffffffffffffffffffffffffffffffffffffff1673ffffffffffffffffffffffffffffffffffffffff16815260200190815260200160002060009054906101000a900460ff16905092915050565b610ff86111e0565b73ffffffffffffffffffffffffffffffffffffffff168573ffffffffffffffffffffffffffffffffffffffff16148061103e575061103d856110386111e0565b610f5c565b5b61107d576040517f08c379a000000000000000000000000000000000000000000000000000000000815260040161107490613168565b60405180910390fd5b61108a858585858561186b565b5050505050565b60007f01ffc9a7000000000000000000000000000000000000000000000000000000007bffffffffffffffffffffffffffffffffffffffffffffffffffffffff1916827bffffffffffffffffffffffffffffffffffffffffffffffffffffffff1916149050919050565b6060600060056000848152602001908152602001600020805461111d90612dfd565b80601f016020809104026020016040519081016040528092919081815260200182805461114990612dfd565b80156111965780601f1061116b57610100808354040283529160200191611196565b820191906000526020600020905b81548152906001019060200180831161117957829003601f168201915b5050505050905060008151116111b4576111af83611b06565b6111d8565b6004816040516020016111c892919061321c565b6040516020818303038152906040525b915050919050565b600033905090565b815183511461122c576040517f08c379a0000000000000000000000000000000000000000000000000000000008152600401611223906132b2565b60405180910390fd5b600073ffffffffffffffffffffffffffffffffffffffff168473ffffffffffffffffffffffffffffffffffffffff160361129b576040517f08c379a000000000000000000000000000000000000000000000000000000000815260040161129290613344565b60405180910390fd5b60006112a56111e0565b90506112b5818787878787611b9a565b60005b84518110156114665760008582815181106112d6576112d5612f52565b5b6020026020010151905060008583815181106112f5576112f4612f52565b5b60200260200101519050600080600084815260200190815260200160002060008b73ffffffffffffffffffffffffffffffffffffffff1673ffffffffffffffffffffffffffffffffffffffff16815260200190815260200160002054905081811015611396576040517f08c379a000000000000000000000000000000000000000000000000000000000815260040161138d906133d6565b60405180910390fd5b81810360008085815260200190815260200160002060008c73ffffffffffffffffffffffffffffffffffffffff1673ffffffffffffffffffffffffffffffffffffffff168152602001908152602001600020819055508160008085815260200190815260200160002060008b73ffffffffffffffffffffffffffffffffffffffff1673ffffffffffffffffffffffffffffffffffffffff168152602001908152602001600020600082825461144b91906133f6565b925050819055505050508061145f90612fb0565b90506112b8565b508473ffffffffffffffffffffffffffffffffffffffff168673ffffffffffffffffffffffffffffffffffffffff168273ffffffffffffffffffffffffffffffffffffffff167f4a39dc06d4c0dbc64b70af90fd698a233a518aa5d07e595d983b8c0526c8f7fb87876040516114dd92919061344c565b60405180910390a46114f3818787878787611ba2565b611501818787878787611baa565b505050505050565b806004908051906020019061151f92919061207b565b5050565b8173ffffffffffffffffffffffffffffffffffffffff168373ffffffffffffffffffffffffffffffffffffffff1603611591576040517f08c379a0000000000000000000000000000000000000000000000000000000008152600401611588906134f5565b60405180910390fd5b80600160008573ffffffffffffffffffffffffffffffffffffffff1673ffffffffffffffffffffffffffffffffffffffff16815260200190815260200160002060008473ffffffffffffffffffffffffffffffffffffffff1673ffffffffffffffffffffffffffffffffffffffff16815260200190815260200160002060006101000a81548160ff0219169083151502179055508173ffffffffffffffffffffffffffffffffffffffff168373ffffffffffffffffffffffffffffffffffffffff167f17307eab39ab6107e8899845ad3d59bd9653f200f220920489ca2b5937696c318360405161168291906122d0565b60405180910390a3505050565b806005600084815260200190815260200160002090805190602001906116b692919061207b565b505050565b600073ffffffffffffffffffffffffffffffffffffffff168473ffffffffffffffffffffffffffffffffffffffff160361172a576040517f08c379a000000000000000000000000000000000000000000000000000000000815260040161172190613587565b60405180910390fd5b60006117346111e0565b9050600061174185611d81565b9050600061174e85611d81565b905061175f83600089858589611b9a565b8460008088815260200190815260200160002060008973ffffffffffffffffffffffffffffffffffffffff1673ffffffffffffffffffffffffffffffffffffffff16815260200190815260200160002060008282546117be91906133f6565b925050819055508673ffffffffffffffffffffffffffffffffffffffff16600073ffffffffffffffffffffffffffffffffffffffff168473ffffffffffffffffffffffffffffffffffffffff167fc3d58168c5ae7397731d063d5bbf3d657854427343f4c083240f7aacaa2d0f62898960405161183c9291906135a7565b60405180910390a461185383600089858589611ba2565b61186283600089898989611dfb565b50505050505050565b600073ffffffffffffffffffffffffffffffffffffffff168473ffffffffffffffffffffffffffffffffffffffff16036118da576040517f08c379a00000000000000000000000000000000000000000000000000000000081526004016118d190613344565b60405180910390fd5b60006118e46111e0565b905060006118f185611d81565b905060006118fe85611d81565b905061190e838989858589611b9a565b600080600088815260200190815260200160002060008a73ffffffffffffffffffffffffffffffffffffffff1673ffffffffffffffffffffffffffffffffffffffff168152602001908152602001600020549050858110156119a5576040517f08c379a000000000000000000000000000000000000000000000000000000000815260040161199c906133d6565b60405180910390fd5b85810360008089815260200190815260200160002060008b73ffffffffffffffffffffffffffffffffffffffff1673ffffffffffffffffffffffffffffffffffffffff168152602001908152602001600020819055508560008089815260200190815260200160002060008a73ffffffffffffffffffffffffffffffffffffffff1673ffffffffffffffffffffffffffffffffffffffff1681526020019081526020016000206000828254611a5a91906133f6565b925050819055508773ffffffffffffffffffffffffffffffffffffffff168973ffffffffffffffffffffffffffffffffffffffff168573ffffffffffffffffffffffffffffffffffffffff167fc3d58168c5ae7397731d063d5bbf3d657854427343f4c083240f7aacaa2d0f628a8a604051611ad79291906135a7565b60405180910390a4611aed848a8a86868a611ba2565b611afb848a8a8a8a8a611dfb565b505050505050505050565b606060028054611b1590612dfd565b80601f0160208091040260200160405190810160405280929190818152602001828054611b4190612dfd565b8015611b8e5780601f10611b6357610100808354040283529160200191611b8e565b820191906000526020600020905b815481529060010190602001808311611b7157829003601f168201915b50505050509050919050565b505050505050565b505050505050565b611bc98473ffffffffffffffffffffffffffffffffffffffff16611fd2565b15611d79578373ffffffffffffffffffffffffffffffffffffffff1663bc197c8187878686866040518663ffffffff1660e01b8152600401611c0f9594939291906135d0565b6020604051808303816000875af1925050508015611c4b57506040513d601f19601f82011682018060405250810190611c48919061364d565b60015b611cf057611c57613687565b806308c379a003611cb35750611c6b6136a9565b80611c765750611cb5565b806040517f08c379a0000000000000000000000000000000000000000000000000000000008152600401611caa91906123b1565b60405180910390fd5b505b6040517f08c379a0000000000000000000000000000000000000000000000000000000008152600401611ce7906137ab565b60405180910390fd5b63bc197c8160e01b7bffffffffffffffffffffffffffffffffffffffffffffffffffffffff1916817bffffffffffffffffffffffffffffffffffffffffffffffffffffffff191614611d77576040517f08c379a0000000000000000000000000000000000000000000000000000000008152600401611d6e9061383d565b60405180910390fd5b505b505050505050565b60606000600167ffffffffffffffff811115611da057611d9f61244f565b5b604051908082528060200260200182016040528015611dce5781602001602082028036833780820191505090505b5090508281600081518110611de657611de5612f52565b5b60200260200101818152505080915050919050565b611e1a8473ffffffffffffffffffffffffffffffffffffffff16611fd2565b15611fca578373ffffffffffffffffffffffffffffffffffffffff1663f23a6e6187878686866040518663ffffffff1660e01b8152600401611e6095949392919061385d565b6020604051808303816000875af1925050508015611e9c57506040513d601f19601f82011682018060405250810190611e99919061364d565b60015b611f4157611ea8613687565b806308c379a003611f045750611ebc6136a9565b80611ec75750611f06565b806040517f08c379a0000000000000000000000000000000000000000000000000000000008152600401611efb91906123b1565b60405180910390fd5b505b6040517f08c379a0000000000000000000000000000000000000000000000000000000008152600401611f38906137ab565b60405180910390fd5b63f23a6e6160e01b7bffffffffffffffffffffffffffffffffffffffffffffffffffffffff1916817bffffffffffffffffffffffffffffffffffffffffffffffffffffffff191614611fc8576040517f08c379a0000000000000000000000000000000000000000000000000000000008152600401611fbf9061383d565b60405180910390fd5b505b505050505050565b6000808273ffffffffffffffffffffffffffffffffffffffff163b119050919050565b82805461200190612dfd565b90600052602060002090601f016020900481019282612023576000855561206a565b82601f1061203c57803560ff191683800117855561206a565b8280016001018555821561206a579182015b8281111561206957823582559160200191906001019061204e565b5b5090506120779190612101565b5090565b82805461208790612dfd565b90600052602060002090601f0160209004810192826120a957600085556120f0565b82601f106120c257805160ff19168380011785556120f0565b828001600101855582156120f0579182015b828111156120ef5782518255916020019190600101906120d4565b5b5090506120fd9190612101565b5090565b5b8082111561211a576000816000905550600101612102565b5090565b6000604051905090565b600080fd5b600080fd5b600073ffffffffffffffffffffffffffffffffffffffff82169050919050565b600061215d82612132565b9050919050565b61216d81612152565b811461217857600080fd5b50565b60008135905061218a81612164565b92915050565b6000819050919050565b6121a381612190565b81146121ae57600080fd5b50565b6000813590506121c08161219a565b92915050565b600080604083850312156121dd576121dc612128565b5b60006121eb8582860161217b565b92505060206121fc858286016121b1565b9150509250929050565b61220f81612190565b82525050565b600060208201905061222a6000830184612206565b92915050565b60007fffffffff0000000000000000000000000000000000000000000000000000000082169050919050565b61226581612230565b811461227057600080fd5b50565b6000813590506122828161225c565b92915050565b60006020828403121561229e5761229d612128565b5b60006122ac84828501612273565b91505092915050565b60008115159050919050565b6122ca816122b5565b82525050565b60006020820190506122e560008301846122c1565b92915050565b60006020828403121561230157612300612128565b5b600061230f848285016121b1565b91505092915050565b600081519050919050565b600082825260208201905092915050565b60005b83811015612352578082015181840152602081019050612337565b83811115612361576000848401525b50505050565b6000601f19601f8301169050919050565b600061238382612318565b61238d8185612323565b935061239d818560208601612334565b6123a681612367565b840191505092915050565b600060208201905081810360008301526123cb8184612378565b905092915050565b600081519050919050565b600082825260208201905092915050565b60006123fa826123d3565b61240481856123de565b9350612414818560208601612334565b61241d81612367565b840191505092915050565b6000602082019050818103600083015261244281846123ef565b905092915050565b600080fd5b7f4e487b7100000000000000000000000000000000000000000000000000000000600052604160045260246000fd5b61248782612367565b810181811067ffffffffffffffff821117156124a6576124a561244f565b5b80604052505050565b60006124b961211e565b90506124c5828261247e565b919050565b600067ffffffffffffffff8211156124e5576124e461244f565b5b602082029050602081019050919050565b600080fd5b600061250e612509846124ca565b6124af565b90508083825260208201905060208402830185811115612531576125306124f6565b5b835b8181101561255a578061254688826121b1565b845260208401935050602081019050612533565b5050509392505050565b600082601f8301126125795761257861244a565b5b81356125898482602086016124fb565b91505092915050565b600080fd5b600067ffffffffffffffff8211156125b2576125b161244f565b5b6125bb82612367565b9050602081019050919050565b82818337600083830152505050565b60006125ea6125e584612597565b6124af565b90508281526020810184848401111561260657612605612592565b5b6126118482856125c8565b509392505050565b600082601f83011261262e5761262d61244a565b5b813561263e8482602086016125d7565b91505092915050565b600080600080600060a0868803121561266357612662612128565b5b60006126718882890161217b565b95505060206126828882890161217b565b945050604086013567ffffffffffffffff8111156126a3576126a261212d565b5b6126af88828901612564565b935050606086013567ffffffffffffffff8111156126d0576126cf61212d565b5b6126dc88828901612564565b925050608086013567ffffffffffffffff8111156126fd576126fc61212d565b5b61270988828901612619565b9150509295509295909350565b61271f81612152565b82525050565b600060208201905061273a6000830184612716565b92915050565b600067ffffffffffffffff82111561275b5761275a61244f565b5b602082029050602081019050919050565b600061277f61277a84612740565b6124af565b905080838252602082019050602084028301858111156127a2576127a16124f6565b5b835b818110156127cb57806127b7888261217b565b8452602084019350506020810190506127a4565b5050509392505050565b600082601f8301126127ea576127e961244a565b5b81356127fa84826020860161276c565b91505092915050565b6000806040838503121561281a57612819612128565b5b600083013567ffffffffffffffff8111156128385761283761212d565b5b612844858286016127d5565b925050602083013567ffffffffffffffff8111156128655761286461212d565b5b61287185828601612564565b9150509250929050565b600081519050919050565b600082825260208201905092915050565b6000819050602082019050919050565b6128b081612190565b82525050565b60006128c283836128a7565b60208301905092915050565b6000602082019050919050565b60006128e68261287b565b6128f08185612886565b93506128fb83612897565b8060005b8381101561292c57815161291388826128b6565b975061291e836128ce565b9250506001810190506128ff565b5085935050505092915050565b6000602082019050818103600083015261295381846128db565b905092915050565b600080fd5b60008083601f8401126129765761297561244a565b5b8235905067ffffffffffffffff8111156129935761299261295b565b5b6020830191508360018202830111156129af576129ae6124f6565b5b9250929050565b600080602083850312156129cd576129cc612128565b5b600083013567ffffffffffffffff8111156129eb576129ea61212d565b5b6129f785828601612960565b92509250509250929050565b600060208284031215612a1957612a18612128565b5b6000612a278482850161217b565b91505092915050565b612a39816122b5565b8114612a4457600080fd5b50565b600081359050612a5681612a30565b92915050565b60008060408385031215612a7357612a72612128565b5b6000612a818582860161217b565b9250506020612a9285828601612a47565b9150509250929050565b60008083601f840112612ab257612ab161244a565b5b8235905067ffffffffffffffff811115612acf57612ace61295b565b5b602083019150836001820283011115612aeb57612aea6124f6565b5b9250929050565b600080600080600080600060a0888a031215612b1157612b10612128565b5b6000612b1f8a828b0161217b565b9750506020612b308a828b016121b1565b9650506040612b418a828b016121b1565b955050606088013567ffffffffffffffff811115612b6257612b6161212d565b5b612b6e8a828b01612a9c565b9450945050608088013567ffffffffffffffff811115612b9157612b9061212d565b5b612b9d8a828b01612960565b925092505092959891949750929550565b60008060408385031215612bc557612bc4612128565b5b6000612bd38582860161217b565b9250506020612be48582860161217b565b9150509250929050565b600080600080600060a08688031215612c0a57612c09612128565b5b6000612c188882890161217b565b9550506020612c298882890161217b565b9450506040612c3a888289016121b1565b9350506060612c4b888289016121b1565b925050608086013567ffffffffffffffff811115612c6c57612c6b61212d565b5b612c7888828901612619565b9150509295509295909350565b7f455243313135353a2062616c616e636520717565727920666f7220746865207a60008201527f65726f2061646472657373000000000000000000000000000000000000000000602082015250565b6000612ce1602b83612323565b9150612cec82612c85565b604082019050919050565b60006020820190508181036000830152612d1081612cd4565b9050919050565b600081905092915050565b6000612d2d82612318565b612d378185612d17565b9350612d47818560208601612334565b80840191505092915050565b7f2f6d657461646174612e6a736f6e000000000000000000000000000000000000600082015250565b6000612d89600e83612d17565b9150612d9482612d53565b600e82019050919050565b6000612dab8285612d22565b9150612db78284612d22565b9150612dc282612d7c565b91508190509392505050565b7f4e487b7100000000000000000000000000000000000000000000000000000000600052602260045260246000fd5b60006002820490506001821680612e1557607f821691505b602082108103612e2857612e27612dce565b5b50919050565b7f455243313135353a207472616e736665722063616c6c6572206973206e6f742060008201527f6f776e6572206e6f7220617070726f7665640000000000000000000000000000602082015250565b6000612e8a603283612323565b9150612e9582612e2e565b604082019050919050565b60006020820190508181036000830152612eb981612e7d565b9050919050565b7f455243313135353a206163636f756e747320616e6420696473206c656e67746860008201527f206d69736d617463680000000000000000000000000000000000000000000000602082015250565b6000612f1c602983612323565b9150612f2782612ec0565b604082019050919050565b60006020820190508181036000830152612f4b81612f0f565b9050919050565b7f4e487b7100000000000000000000000000000000000000000000000000000000600052603260045260246000fd5b7f4e487b7100000000000000000000000000000000000000000000000000000000600052601160045260246000fd5b6000612fbb82612190565b91507fffffffffffffffffffffffffffffffffffffffffffffffffffffffffffffffff8203612fed57612fec612f81565b5b600182019050919050565b7f596f7520617265206e6f742077686974656c69737465642e0000000000000000600082015250565b600061302e601883612323565b915061303982612ff8565b602082019050919050565b6000602082019050818103600083015261305d81613021565b9050919050565b7f50726f7669646564206164647265737320616c7265616479207361666520616460008201527f6472657373000000000000000000000000000000000000000000000000000000602082015250565b60006130c0602583612323565b91506130cb82613064565b604082019050919050565b600060208201905081810360008301526130ef816130b3565b9050919050565b7f455243313135353a2063616c6c6572206973206e6f74206f776e6572206e6f7260008201527f20617070726f7665640000000000000000000000000000000000000000000000602082015250565b6000613152602983612323565b915061315d826130f6565b604082019050919050565b6000602082019050818103600083015261318181613145565b9050919050565b60008190508160005260206000209050919050565b600081546131aa81612dfd565b6131b48186612d17565b945060018216600081146131cf57600181146131e057613213565b60ff19831686528186019350613213565b6131e985613188565b60005b8381101561320b578154818901526001820191506020810190506131ec565b838801955050505b50505092915050565b6000613228828561319d565b91506132348284612d22565b91508190509392505050565b7f455243313135353a2069647320616e6420616d6f756e7473206c656e6774682060008201527f6d69736d61746368000000000000000000000000000000000000000000000000602082015250565b600061329c602883612323565b91506132a782613240565b604082019050919050565b600060208201905081810360008301526132cb8161328f565b9050919050565b7f455243313135353a207472616e7366657220746f20746865207a65726f20616460008201527f6472657373000000000000000000000000000000000000000000000000000000602082015250565b600061332e602583612323565b9150613339826132d2565b604082019050919050565b6000602082019050818103600083015261335d81613321565b9050919050565b7f455243313135353a20696e73756666696369656e742062616c616e636520666f60008201527f72207472616e7366657200000000000000000000000000000000000000000000602082015250565b60006133c0602a83612323565b91506133cb82613364565b604082019050919050565b600060208201905081810360008301526133ef816133b3565b9050919050565b600061340182612190565b915061340c83612190565b9250827fffffffffffffffffffffffffffffffffffffffffffffffffffffffffffffffff0382111561344157613440612f81565b5b828201905092915050565b6000604082019050818103600083015261346681856128db565b9050818103602083015261347a81846128db565b90509392505050565b7f455243313135353a2073657474696e6720617070726f76616c2073746174757360008201527f20666f722073656c660000000000000000000000000000000000000000000000602082015250565b60006134df602983612323565b91506134ea82613483565b604082019050919050565b6000602082019050818103600083015261350e816134d2565b9050919050565b7f455243313135353a206d696e7420746f20746865207a65726f2061646472657360008201527f7300000000000000000000000000000000000000000000000000000000000000602082015250565b6000613571602183612323565b915061357c82613515565b604082019050919050565b600060208201905081810360008301526135a081613564565b9050919050565b60006040820190506135bc6000830185612206565b6135c96020830184612206565b9392505050565b600060a0820190506135e56000830188612716565b6135f26020830187612716565b818103604083015261360481866128db565b9050818103606083015261361881856128db565b9050818103608083015261362c81846123ef565b90509695505050505050565b6000815190506136478161225c565b92915050565b60006020828403121561366357613662612128565b5b600061367184828501613638565b91505092915050565b60008160e01c9050919050565b600060033d11156136a65760046000803e6136a360005161367a565b90505b90565b600060443d10613736576136bb61211e565b60043d036004823e80513d602482011167ffffffffffffffff821117156136e3575050613736565b808201805167ffffffffffffffff8111156137015750505050613736565b80602083010160043d03850181111561371e575050505050613736565b61372d8260200185018661247e565b82955050505050505b90565b7f455243313135353a207472616e7366657220746f206e6f6e204552433131353560008201527f526563656976657220696d706c656d656e746572000000000000000000000000602082015250565b6000613795603483612323565b91506137a082613739565b604082019050919050565b600060208201905081810360008301526137c481613788565b9050919050565b7f455243313135353a204552433131353552656365697665722072656a6563746560008201527f6420746f6b656e73000000000000000000000000000000000000000000000000602082015250565b6000613827602883612323565b9150613832826137cb565b604082019050919050565b600060208201905081810360008301526138568161381a565b9050919050565b600060a0820190506138726000830188612716565b61387f6020830187612716565b61388c6040830186612206565b6138996060830185612206565b81810360808301526138ab81846123ef565b9050969550505050505056fea2646970667358221220dca6825866beda2b7955b3ffcbcf3e0dbcefb01d9e09b24d452e0c1d1bf8d11164736f6c634300080e0033",
			"opcodes": "PUSH1 0x80 PUSH1 0x40 MSTORE PUSH1 0x40 MLOAD DUP1 PUSH1 0x20 ADD PUSH1 0x40 MSTORE DUP1 PUSH1 0x0 DUP2 MSTORE POP PUSH1 0x4 SWAP1 DUP1 MLOAD SWAP1 PUSH1 0x20 ADD SWAP1 PUSH3 0x2B SWAP3 SWAP2 SWAP1 PUSH3 0xD7 JUMP JUMPDEST POP CALLVALUE DUP1 ISZERO PUSH3 0x39 JUMPI PUSH1 0x0 DUP1 REVERT JUMPDEST POP PUSH1 0x40 MLOAD PUSH3 0x3D50 CODESIZE SUB DUP1 PUSH3 0x3D50 DUP4 CODECOPY DUP2 DUP2 ADD PUSH1 0x40 MSTORE DUP2 ADD SWAP1 PUSH3 0x5F SWAP2 SWAP1 PUSH3 0x389 JUMP JUMPDEST DUP2 PUSH3 0x71 DUP2 PUSH3 0xBB PUSH1 0x20 SHL PUSH1 0x20 SHR JUMP JUMPDEST POP DUP1 PUSH1 0x8 PUSH1 0x0 PUSH2 0x100 EXP DUP2 SLOAD DUP2 PUSH20 0xFFFFFFFFFFFFFFFFFFFFFFFFFFFFFFFFFFFFFFFF MUL NOT AND SWAP1 DUP4 PUSH20 0xFFFFFFFFFFFFFFFFFFFFFFFFFFFFFFFFFFFFFFFF AND MUL OR SWAP1 SSTORE POP POP POP PUSH3 0x453 JUMP JUMPDEST DUP1 PUSH1 0x2 SWAP1 DUP1 MLOAD SWAP1 PUSH1 0x20 ADD SWAP1 PUSH3 0xD3 SWAP3 SWAP2 SWAP1 PUSH3 0xD7 JUMP JUMPDEST POP POP JUMP JUMPDEST DUP3 DUP1 SLOAD PUSH3 0xE5 SWAP1 PUSH3 0x41E JUMP JUMPDEST SWAP1 PUSH1 0x0 MSTORE PUSH1 0x20 PUSH1 0x0 KECCAK256 SWAP1 PUSH1 0x1F ADD PUSH1 0x20 SWAP1 DIV DUP2 ADD SWAP3 DUP3 PUSH3 0x109 JUMPI PUSH1 0x0 DUP6 SSTORE PUSH3 0x155 JUMP JUMPDEST DUP3 PUSH1 0x1F LT PUSH3 0x124 JUMPI DUP1 MLOAD PUSH1 0xFF NOT AND DUP4 DUP1 ADD OR DUP6 SSTORE PUSH3 0x155 JUMP JUMPDEST DUP3 DUP1 ADD PUSH1 0x1 ADD DUP6 SSTORE DUP3 ISZERO PUSH3 0x155 JUMPI SWAP2 DUP3 ADD JUMPDEST DUP3 DUP2 GT ISZERO PUSH3 0x154 JUMPI DUP3 MLOAD DUP3 SSTORE SWAP2 PUSH1 0x20 ADD SWAP2 SWAP1 PUSH1 0x1 ADD SWAP1 PUSH3 0x137 JUMP JUMPDEST JUMPDEST POP SWAP1 POP PUSH3 0x164 SWAP2 SWAP1 PUSH3 0x168 JUMP JUMPDEST POP SWAP1 JUMP JUMPDEST JUMPDEST DUP1 DUP3 GT ISZERO PUSH3 0x183 JUMPI PUSH1 0x0 DUP2 PUSH1 0x0 SWAP1 SSTORE POP PUSH1 0x1 ADD PUSH3 0x169 JUMP JUMPDEST POP SWAP1 JUMP JUMPDEST PUSH1 0x0 PUSH1 0x40 MLOAD SWAP1 POP SWAP1 JUMP JUMPDEST PUSH1 0x0 DUP1 REVERT JUMPDEST PUSH1 0x0 DUP1 REVERT JUMPDEST PUSH1 0x0 DUP1 REVERT JUMPDEST PUSH1 0x0 DUP1 REVERT JUMPDEST PUSH1 0x0 PUSH1 0x1F NOT PUSH1 0x1F DUP4 ADD AND SWAP1 POP SWAP2 SWAP1 POP JUMP JUMPDEST PUSH32 0x4E487B7100000000000000000000000000000000000000000000000000000000 PUSH1 0x0 MSTORE PUSH1 0x41 PUSH1 0x4 MSTORE PUSH1 0x24 PUSH1 0x0 REVERT JUMPDEST PUSH3 0x1F0 DUP3 PUSH3 0x1A5 JUMP JUMPDEST DUP2 ADD DUP2 DUP2 LT PUSH8 0xFFFFFFFFFFFFFFFF DUP3 GT OR ISZERO PUSH3 0x212 JUMPI PUSH3 0x211 PUSH3 0x1B6 JUMP JUMPDEST JUMPDEST DUP1 PUSH1 0x40 MSTORE POP POP POP JUMP JUMPDEST PUSH1 0x0 PUSH3 0x227 PUSH3 0x187 JUMP JUMPDEST SWAP1 POP PUSH3 0x235 DUP3 DUP3 PUSH3 0x1E5 JUMP JUMPDEST SWAP2 SWAP1 POP JUMP JUMPDEST PUSH1 0x0 PUSH8 0xFFFFFFFFFFFFFFFF DUP3 GT ISZERO PUSH3 0x258 JUMPI PUSH3 0x257 PUSH3 0x1B6 JUMP JUMPDEST JUMPDEST PUSH3 0x263 DUP3 PUSH3 0x1A5 JUMP JUMPDEST SWAP1 POP PUSH1 0x20 DUP2 ADD SWAP1 POP SWAP2 SWAP1 POP JUMP JUMPDEST PUSH1 0x0 JUMPDEST DUP4 DUP2 LT ISZERO PUSH3 0x290 JUMPI DUP1 DUP3 ADD MLOAD DUP2 DUP5 ADD MSTORE PUSH1 0x20 DUP2 ADD SWAP1 POP PUSH3 0x273 JUMP JUMPDEST DUP4 DUP2 GT ISZERO PUSH3 0x2A0 JUMPI PUSH1 0x0 DUP5 DUP5 ADD MSTORE JUMPDEST POP POP POP POP JUMP JUMPDEST PUSH1 0x0 PUSH3 0x2BD PUSH3 0x2B7 DUP5 PUSH3 0x23A JUMP JUMPDEST PUSH3 0x21B JUMP JUMPDEST SWAP1 POP DUP3 DUP2 MSTORE PUSH1 0x20 DUP2 ADD DUP5 DUP5 DUP5 ADD GT ISZERO PUSH3 0x2DC JUMPI PUSH3 0x2DB PUSH3 0x1A0 JUMP JUMPDEST JUMPDEST PUSH3 0x2E9 DUP5 DUP3 DUP6 PUSH3 0x270 JUMP JUMPDEST POP SWAP4 SWAP3 POP POP POP JUMP JUMPDEST PUSH1 0x0 DUP3 PUSH1 0x1F DUP4 ADD SLT PUSH3 0x309 JUMPI PUSH3 0x308 PUSH3 0x19B JUMP JUMPDEST JUMPDEST DUP2 MLOAD PUSH3 0x31B DUP5 DUP3 PUSH1 0x20 DUP7 ADD PUSH3 0x2A6 JUMP JUMPDEST SWAP2 POP POP SWAP3 SWAP2 POP POP JUMP JUMPDEST PUSH1 0x0 PUSH20 0xFFFFFFFFFFFFFFFFFFFFFFFFFFFFFFFFFFFFFFFF DUP3 AND SWAP1 POP SWAP2 SWAP1 POP JUMP JUMPDEST PUSH1 0x0 PUSH3 0x351 DUP3 PUSH3 0x324 JUMP JUMPDEST SWAP1 POP SWAP2 SWAP1 POP JUMP JUMPDEST PUSH3 0x363 DUP2 PUSH3 0x344 JUMP JUMPDEST DUP2 EQ PUSH3 0x36F JUMPI PUSH1 0x0 DUP1 REVERT JUMPDEST POP JUMP JUMPDEST PUSH1 0x0 DUP2 MLOAD SWAP1 POP PUSH3 0x383 DUP2 PUSH3 0x358 JUMP JUMPDEST SWAP3 SWAP2 POP POP JUMP JUMPDEST PUSH1 0x0 DUP1 PUSH1 0x40 DUP4 DUP6 SUB SLT ISZERO PUSH3 0x3A3 JUMPI PUSH3 0x3A2 PUSH3 0x191 JUMP JUMPDEST JUMPDEST PUSH1 0x0 DUP4 ADD MLOAD PUSH8 0xFFFFFFFFFFFFFFFF DUP2 GT ISZERO PUSH3 0x3C4 JUMPI PUSH3 0x3C3 PUSH3 0x196 JUMP JUMPDEST JUMPDEST PUSH3 0x3D2 DUP6 DUP3 DUP7 ADD PUSH3 0x2F1 JUMP JUMPDEST SWAP3 POP POP PUSH1 0x20 PUSH3 0x3E5 DUP6 DUP3 DUP7 ADD PUSH3 0x372 JUMP JUMPDEST SWAP2 POP POP SWAP3 POP SWAP3 SWAP1 POP JUMP JUMPDEST PUSH32 0x4E487B7100000000000000000000000000000000000000000000000000000000 PUSH1 0x0 MSTORE PUSH1 0x22 PUSH1 0x4 MSTORE PUSH1 0x24 PUSH1 0x0 REVERT JUMPDEST PUSH1 0x0 PUSH1 0x2 DUP3 DIV SWAP1 POP PUSH1 0x1 DUP3 AND DUP1 PUSH3 0x437 JUMPI PUSH1 0x7F DUP3 AND SWAP2 POP JUMPDEST PUSH1 0x20 DUP3 LT DUP2 SUB PUSH3 0x44D JUMPI PUSH3 0x44C PUSH3 0x3EF JUMP JUMPDEST JUMPDEST POP SWAP2 SWAP1 POP JUMP JUMPDEST PUSH2 0x38ED DUP1 PUSH3 0x463 PUSH1 0x0 CODECOPY PUSH1 0x0 RETURN INVALID PUSH1 0x80 PUSH1 0x40 MSTORE CALLVALUE DUP1 ISZERO PUSH2 0x10 JUMPI PUSH1 0x0 DUP1 REVERT JUMPDEST POP PUSH1 0x4 CALLDATASIZE LT PUSH2 0x120 JUMPI PUSH1 0x0 CALLDATALOAD PUSH1 0xE0 SHR DUP1 PUSH4 0x6C0360EB GT PUSH2 0xAD JUMPI DUP1 PUSH4 0xC1341C4F GT PUSH2 0x71 JUMPI DUP1 PUSH4 0xC1341C4F EQ PUSH2 0x365 JUMPI DUP1 PUSH4 0xCB450772 EQ PUSH2 0x381 JUMPI DUP1 PUSH4 0xD14186C6 EQ PUSH2 0x39D JUMPI DUP1 PUSH4 0xE985E9C5 EQ PUSH2 0x3B9 JUMPI DUP1 PUSH4 0xF242432A EQ PUSH2 0x3E9 JUMPI PUSH2 0x120 JUMP JUMPDEST DUP1 PUSH4 0x6C0360EB EQ PUSH2 0x29B JUMPI DUP1 PUSH4 0x6C8B703F EQ PUSH2 0x2B9 JUMPI DUP1 PUSH4 0x92A88FA2 EQ PUSH2 0x2E9 JUMPI DUP1 PUSH4 0xA22CB465 EQ PUSH2 0x319 JUMPI DUP1 PUSH4 0xBD85B039 EQ PUSH2 0x335 JUMPI PUSH2 0x120 JUMP JUMPDEST DUP1 PUSH4 0x2EB2C2D6 GT PUSH2 0xF4 JUMPI DUP1 PUSH4 0x2EB2C2D6 EQ PUSH2 0x1E5 JUMPI DUP1 PUSH4 0x4B8C9C2D EQ PUSH2 0x201 JUMPI DUP1 PUSH4 0x4E1273F4 EQ PUSH2 0x21F JUMPI DUP1 PUSH4 0x4F558E79 EQ PUSH2 0x24F JUMPI DUP1 PUSH4 0x55F804B3 EQ PUSH2 0x27F JUMPI PUSH2 0x120 JUMP JUMPDEST DUP1 PUSH3 0xFDD58E EQ PUSH2 0x125 JUMPI DUP1 PUSH4 0x1FFC9A7 EQ PUSH2 0x155 JUMPI DUP1 PUSH4 0xE89341C EQ PUSH2 0x185 JUMPI DUP1 PUSH4 0x23F5867F EQ PUSH2 0x1B5 JUMPI JUMPDEST PUSH1 0x0 DUP1 REVERT JUMPDEST PUSH2 0x13F PUSH1 0x4 DUP1 CALLDATASIZE SUB DUP2 ADD SWAP1 PUSH2 0x13A SWAP2 SWAP1 PUSH2 0x21C6 JUMP JUMPDEST PUSH2 0x405 JUMP JUMPDEST PUSH1 0x40 MLOAD PUSH2 0x14C SWAP2 SWAP1 PUSH2 0x2215 JUMP JUMPDEST PUSH1 0x40 MLOAD DUP1 SWAP2 SUB SWAP1 RETURN JUMPDEST PUSH2 0x16F PUSH1 0x4 DUP1 CALLDATASIZE SUB DUP2 ADD SWAP1 PUSH2 0x16A SWAP2 SWAP1 PUSH2 0x2288 JUMP JUMPDEST PUSH2 0x4CD JUMP JUMPDEST PUSH1 0x40 MLOAD PUSH2 0x17C SWAP2 SWAP1 PUSH2 0x22D0 JUMP JUMPDEST PUSH1 0x40 MLOAD DUP1 SWAP2 SUB SWAP1 RETURN JUMPDEST PUSH2 0x19F PUSH1 0x4 DUP1 CALLDATASIZE SUB DUP2 ADD SWAP1 PUSH2 0x19A SWAP2 SWAP1 PUSH2 0x22EB JUMP JUMPDEST PUSH2 0x5AF JUMP JUMPDEST PUSH1 0x40 MLOAD PUSH2 0x1AC SWAP2 SWAP1 PUSH2 0x23B1 JUMP JUMPDEST PUSH1 0x40 MLOAD DUP1 SWAP2 SUB SWAP1 RETURN JUMPDEST PUSH2 0x1CF PUSH1 0x4 DUP1 CALLDATASIZE SUB DUP2 ADD SWAP1 PUSH2 0x1CA SWAP2 SWAP1 PUSH2 0x22EB JUMP JUMPDEST PUSH2 0x607 JUMP JUMPDEST PUSH1 0x40 MLOAD PUSH2 0x1DC SWAP2 SWAP1 PUSH2 0x2428 JUMP JUMPDEST PUSH1 0x40 MLOAD DUP1 SWAP2 SUB SWAP1 RETURN JUMPDEST PUSH2 0x1FF PUSH1 0x4 DUP1 CALLDATASIZE SUB DUP2 ADD SWAP1 PUSH2 0x1FA SWAP2 SWAP1 PUSH2 0x2647 JUMP JUMPDEST PUSH2 0x6A7 JUMP JUMPDEST STOP JUMPDEST PUSH2 0x209 PUSH2 0x748 JUMP JUMPDEST PUSH1 0x40 MLOAD PUSH2 0x216 SWAP2 SWAP1 PUSH2 0x2725 JUMP JUMPDEST PUSH1 0x40 MLOAD DUP1 SWAP2 SUB SWAP1 RETURN JUMPDEST PUSH2 0x239 PUSH1 0x4 DUP1 CALLDATASIZE SUB DUP2 ADD SWAP1 PUSH2 0x234 SWAP2 SWAP1 PUSH2 0x2803 JUMP JUMPDEST PUSH2 0x76E JUMP JUMPDEST PUSH1 0x40 MLOAD PUSH2 0x246 SWAP2 SWAP1 PUSH2 0x2939 JUMP JUMPDEST PUSH1 0x40 MLOAD DUP1 SWAP2 SUB SWAP1 RETURN JUMPDEST PUSH2 0x269 PUSH1 0x4 DUP1 CALLDATASIZE SUB DUP2 ADD SWAP1 PUSH2 0x264 SWAP2 SWAP1 PUSH2 0x22EB JUMP JUMPDEST PUSH2 0x887 JUMP JUMPDEST PUSH1 0x40 MLOAD PUSH2 0x276 SWAP2 SWAP1 PUSH2 0x22D0 JUMP JUMPDEST PUSH1 0x40 MLOAD DUP1 SWAP2 SUB SWAP1 RETURN JUMPDEST PUSH2 0x299 PUSH1 0x4 DUP1 CALLDATASIZE SUB DUP2 ADD SWAP1 PUSH2 0x294 SWAP2 SWAP1 PUSH2 0x29B6 JUMP JUMPDEST PUSH2 0x89B JUMP JUMPDEST STOP JUMPDEST PUSH2 0x2A3 PUSH2 0x97C JUMP JUMPDEST PUSH1 0x40 MLOAD PUSH2 0x2B0 SWAP2 SWAP1 PUSH2 0x23B1 JUMP JUMPDEST PUSH1 0x40 MLOAD DUP1 SWAP2 SUB SWAP1 RETURN JUMPDEST PUSH2 0x2D3 PUSH1 0x4 DUP1 CALLDATASIZE SUB DUP2 ADD SWAP1 PUSH2 0x2CE SWAP2 SWAP1 PUSH2 0x22EB JUMP JUMPDEST PUSH2 0xA0E JUMP JUMPDEST PUSH1 0x40 MLOAD PUSH2 0x2E0 SWAP2 SWAP1 PUSH2 0x23B1 JUMP JUMPDEST PUSH1 0x40 MLOAD DUP1 SWAP2 SUB SWAP1 RETURN JUMPDEST PUSH2 0x303 PUSH1 0x4 DUP1 CALLDATASIZE SUB DUP2 ADD SWAP1 PUSH2 0x2FE SWAP2 SWAP1 PUSH2 0x2A03 JUMP JUMPDEST PUSH2 0xAB3 JUMP JUMPDEST PUSH1 0x40 MLOAD PUSH2 0x310 SWAP2 SWAP1 PUSH2 0x22D0 JUMP JUMPDEST PUSH1 0x40 MLOAD DUP1 SWAP2 SUB SWAP1 RETURN JUMPDEST PUSH2 0x333 PUSH1 0x4 DUP1 CALLDATASIZE SUB DUP2 ADD SWAP1 PUSH2 0x32E SWAP2 SWAP1 PUSH2 0x2A5C JUMP JUMPDEST PUSH2 0xAD3 JUMP JUMPDEST STOP JUMPDEST PUSH2 0x34F PUSH1 0x4 DUP1 CALLDATASIZE SUB DUP2 ADD SWAP1 PUSH2 0x34A SWAP2 SWAP1 PUSH2 0x22EB JUMP JUMPDEST PUSH2 0xAE9 JUMP JUMPDEST PUSH1 0x40 MLOAD PUSH2 0x35C SWAP2 SWAP1 PUSH2 0x2215 JUMP JUMPDEST PUSH1 0x40 MLOAD DUP1 SWAP2 SUB SWAP1 RETURN JUMPDEST PUSH2 0x37F PUSH1 0x4 DUP1 CALLDATASIZE SUB DUP2 ADD SWAP1 PUSH2 0x37A SWAP2 SWAP1 PUSH2 0x2AF2 JUMP JUMPDEST PUSH2 0xB06 JUMP JUMPDEST STOP JUMPDEST PUSH2 0x39B PUSH1 0x4 DUP1 CALLDATASIZE SUB DUP2 ADD SWAP1 PUSH2 0x396 SWAP2 SWAP1 PUSH2 0x2A03 JUMP JUMPDEST PUSH2 0xC38 JUMP JUMPDEST STOP JUMPDEST PUSH2 0x3B7 PUSH1 0x4 DUP1 CALLDATASIZE SUB DUP2 ADD SWAP1 PUSH2 0x3B2 SWAP2 SWAP1 PUSH2 0x2A5C JUMP JUMPDEST PUSH2 0xDDF JUMP JUMPDEST STOP JUMPDEST PUSH2 0x3D3 PUSH1 0x4 DUP1 CALLDATASIZE SUB DUP2 ADD SWAP1 PUSH2 0x3CE SWAP2 SWAP1 PUSH2 0x2BAE JUMP JUMPDEST PUSH2 0xF5C JUMP JUMPDEST PUSH1 0x40 MLOAD PUSH2 0x3E0 SWAP2 SWAP1 PUSH2 0x22D0 JUMP JUMPDEST PUSH1 0x40 MLOAD DUP1 SWAP2 SUB SWAP1 RETURN JUMPDEST PUSH2 0x403 PUSH1 0x4 DUP1 CALLDATASIZE SUB DUP2 ADD SWAP1 PUSH2 0x3FE SWAP2 SWAP1 PUSH2 0x2BEE JUMP JUMPDEST PUSH2 0xFF0 JUMP JUMPDEST STOP JUMPDEST PUSH1 0x0 DUP1 PUSH20 0xFFFFFFFFFFFFFFFFFFFFFFFFFFFFFFFFFFFFFFFF AND DUP4 PUSH20 0xFFFFFFFFFFFFFFFFFFFFFFFFFFFFFFFFFFFFFFFF AND SUB PUSH2 0x475 JUMPI PUSH1 0x40 MLOAD PUSH32 0x8C379A000000000000000000000000000000000000000000000000000000000 DUP2 MSTORE PUSH1 0x4 ADD PUSH2 0x46C SWAP1 PUSH2 0x2CF7 JUMP JUMPDEST PUSH1 0x40 MLOAD DUP1 SWAP2 SUB SWAP1 REVERT JUMPDEST PUSH1 0x0 DUP1 DUP4 DUP2 MSTORE PUSH1 0x20 ADD SWAP1 DUP2 MSTORE PUSH1 0x20 ADD PUSH1 0x0 KECCAK256 PUSH1 0x0 DUP5 PUSH20 0xFFFFFFFFFFFFFFFFFFFFFFFFFFFFFFFFFFFFFFFF AND PUSH20 0xFFFFFFFFFFFFFFFFFFFFFFFFFFFFFFFFFFFFFFFF AND DUP2 MSTORE PUSH1 0x20 ADD SWAP1 DUP2 MSTORE PUSH1 0x20 ADD PUSH1 0x0 KECCAK256 SLOAD SWAP1 POP SWAP3 SWAP2 POP POP JUMP JUMPDEST PUSH1 0x0 PUSH32 0xD9B67A2600000000000000000000000000000000000000000000000000000000 PUSH28 0xFFFFFFFFFFFFFFFFFFFFFFFFFFFFFFFFFFFFFFFFFFFFFFFFFFFFFFFF NOT AND DUP3 PUSH28 0xFFFFFFFFFFFFFFFFFFFFFFFFFFFFFFFFFFFFFFFFFFFFFFFFFFFFFFFF NOT AND EQ DUP1 PUSH2 0x598 JUMPI POP PUSH32 0xE89341C00000000000000000000000000000000000000000000000000000000 PUSH28 0xFFFFFFFFFFFFFFFFFFFFFFFFFFFFFFFFFFFFFFFFFFFFFFFFFFFFFFFF NOT AND DUP3 PUSH28 0xFFFFFFFFFFFFFFFFFFFFFFFFFFFFFFFFFFFFFFFFFFFFFFFFFFFFFFFF NOT AND EQ JUMPDEST DUP1 PUSH2 0x5A8 JUMPI POP PUSH2 0x5A7 DUP3 PUSH2 0x1091 JUMP JUMPDEST JUMPDEST SWAP1 POP SWAP2 SWAP1 POP JUMP JUMPDEST PUSH1 0x60 PUSH1 0x0 PUSH2 0x5BC DUP4 PUSH2 0xA0E JUMP JUMPDEST SWAP1 POP PUSH1 0x0 DUP2 MLOAD GT PUSH2 0x5D5 JUMPI PUSH2 0x5D0 DUP4 PUSH2 0x10FB JUMP JUMPDEST PUSH2 0x5FF JUMP JUMPDEST PUSH2 0x5DD PUSH2 0x97C JUMP JUMPDEST DUP2 PUSH1 0x40 MLOAD PUSH1 0x20 ADD PUSH2 0x5EF SWAP3 SWAP2 SWAP1 PUSH2 0x2D9F JUMP JUMPDEST PUSH1 0x40 MLOAD PUSH1 0x20 DUP2 DUP4 SUB SUB DUP2 MSTORE SWAP1 PUSH1 0x40 MSTORE JUMPDEST SWAP2 POP POP SWAP2 SWAP1 POP JUMP JUMPDEST PUSH1 0x7 PUSH1 0x20 MSTORE DUP1 PUSH1 0x0 MSTORE PUSH1 0x40 PUSH1 0x0 KECCAK256 PUSH1 0x0 SWAP2 POP SWAP1 POP DUP1 SLOAD PUSH2 0x626 SWAP1 PUSH2 0x2DFD JUMP JUMPDEST DUP1 PUSH1 0x1F ADD PUSH1 0x20 DUP1 SWAP2 DIV MUL PUSH1 0x20 ADD PUSH1 0x40 MLOAD SWAP1 DUP2 ADD PUSH1 0x40 MSTORE DUP1 SWAP3 SWAP2 SWAP1 DUP2 DUP2 MSTORE PUSH1 0x20 ADD DUP3 DUP1 SLOAD PUSH2 0x652 SWAP1 PUSH2 0x2DFD JUMP JUMPDEST DUP1 ISZERO PUSH2 0x69F JUMPI DUP1 PUSH1 0x1F LT PUSH2 0x674 JUMPI PUSH2 0x100 DUP1 DUP4 SLOAD DIV MUL DUP4 MSTORE SWAP2 PUSH1 0x20 ADD SWAP2 PUSH2 0x69F JUMP JUMPDEST DUP3 ADD SWAP2 SWAP1 PUSH1 0x0 MSTORE PUSH1 0x20 PUSH1 0x0 KECCAK256 SWAP1 JUMPDEST DUP2 SLOAD DUP2 MSTORE SWAP1 PUSH1 0x1 ADD SWAP1 PUSH1 0x20 ADD DUP1 DUP4 GT PUSH2 0x682 JUMPI DUP3 SWAP1 SUB PUSH1 0x1F AND DUP3 ADD SWAP2 JUMPDEST POP POP POP POP POP DUP2 JUMP JUMPDEST PUSH2 0x6AF PUSH2 0x11E0 JUMP JUMPDEST PUSH20 0xFFFFFFFFFFFFFFFFFFFFFFFFFFFFFFFFFFFFFFFF AND DUP6 PUSH20 0xFFFFFFFFFFFFFFFFFFFFFFFFFFFFFFFFFFFFFFFF AND EQ DUP1 PUSH2 0x6F5 JUMPI POP PUSH2 0x6F4 DUP6 PUSH2 0x6EF PUSH2 0x11E0 JUMP JUMPDEST PUSH2 0xF5C JUMP JUMPDEST JUMPDEST PUSH2 0x734 JUMPI PUSH1 0x40 MLOAD PUSH32 0x8C379A000000000000000000000000000000000000000000000000000000000 DUP2 MSTORE PUSH1 0x4 ADD PUSH2 0x72B SWAP1 PUSH2 0x2EA0 JUMP JUMPDEST PUSH1 0x40 MLOAD DUP1 SWAP2 SUB SWAP1 REVERT JUMPDEST PUSH2 0x741 DUP6 DUP6 DUP6 DUP6 DUP6 PUSH2 0x11E8 JUMP JUMPDEST POP POP POP POP POP JUMP JUMPDEST PUSH1 0x8 PUSH1 0x0 SWAP1 SLOAD SWAP1 PUSH2 0x100 EXP SWAP1 DIV PUSH20 0xFFFFFFFFFFFFFFFFFFFFFFFFFFFFFFFFFFFFFFFF AND DUP2 JUMP JUMPDEST PUSH1 0x60 DUP2 MLOAD DUP4 MLOAD EQ PUSH2 0x7B4 JUMPI PUSH1 0x40 MLOAD PUSH32 0x8C379A000000000000000000000000000000000000000000000000000000000 DUP2 MSTORE PUSH1 0x4 ADD PUSH2 0x7AB SWAP1 PUSH2 0x2F32 JUMP JUMPDEST PUSH1 0x40 MLOAD DUP1 SWAP2 SUB SWAP1 REVERT JUMPDEST PUSH1 0x0 DUP4 MLOAD PUSH8 0xFFFFFFFFFFFFFFFF DUP2 GT ISZERO PUSH2 0x7D1 JUMPI PUSH2 0x7D0 PUSH2 0x244F JUMP JUMPDEST JUMPDEST PUSH1 0x40 MLOAD SWAP1 DUP1 DUP3 MSTORE DUP1 PUSH1 0x20 MUL PUSH1 0x20 ADD DUP3 ADD PUSH1 0x40 MSTORE DUP1 ISZERO PUSH2 0x7FF JUMPI DUP2 PUSH1 0x20 ADD PUSH1 0x20 DUP3 MUL DUP1 CALLDATASIZE DUP4 CALLDATACOPY DUP1 DUP3 ADD SWAP2 POP POP SWAP1 POP JUMPDEST POP SWAP1 POP PUSH1 0x0 JUMPDEST DUP5 MLOAD DUP2 LT ISZERO PUSH2 0x87C JUMPI PUSH2 0x84C DUP6 DUP3 DUP2 MLOAD DUP2 LT PUSH2 0x824 JUMPI PUSH2 0x823 PUSH2 0x2F52 JUMP JUMPDEST JUMPDEST PUSH1 0x20 MUL PUSH1 0x20 ADD ADD MLOAD DUP6 DUP4 DUP2 MLOAD DUP2 LT PUSH2 0x83F JUMPI PUSH2 0x83E PUSH2 0x2F52 JUMP JUMPDEST JUMPDEST PUSH1 0x20 MUL PUSH1 0x20 ADD ADD MLOAD PUSH2 0x405 JUMP JUMPDEST DUP3 DUP3 DUP2 MLOAD DUP2 LT PUSH2 0x85F JUMPI PUSH2 0x85E PUSH2 0x2F52 JUMP JUMPDEST JUMPDEST PUSH1 0x20 MUL PUSH1 0x20 ADD ADD DUP2 DUP2 MSTORE POP POP DUP1 PUSH2 0x875 SWAP1 PUSH2 0x2FB0 JUMP JUMPDEST SWAP1 POP PUSH2 0x805 JUMP JUMPDEST POP DUP1 SWAP2 POP POP SWAP3 SWAP2 POP POP JUMP JUMPDEST PUSH1 0x0 DUP1 PUSH2 0x893 DUP4 PUSH2 0xAE9 JUMP JUMPDEST GT SWAP1 POP SWAP2 SWAP1 POP JUMP JUMPDEST PUSH1 0x8 PUSH1 0x0 SWAP1 SLOAD SWAP1 PUSH2 0x100 EXP SWAP1 DIV PUSH20 0xFFFFFFFFFFFFFFFFFFFFFFFFFFFFFFFFFFFFFFFF AND PUSH20 0xFFFFFFFFFFFFFFFFFFFFFFFFFFFFFFFFFFFFFFFF AND CALLER PUSH20 0xFFFFFFFFFFFFFFFFFFFFFFFFFFFFFFFFFFFFFFFF AND EQ PUSH2 0x92B JUMPI PUSH1 0x40 MLOAD PUSH32 0x8C379A000000000000000000000000000000000000000000000000000000000 DUP2 MSTORE PUSH1 0x4 ADD PUSH2 0x922 SWAP1 PUSH2 0x3044 JUMP JUMPDEST PUSH1 0x40 MLOAD DUP1 SWAP2 SUB SWAP1 REVERT JUMPDEST PUSH2 0x978 DUP3 DUP3 DUP1 DUP1 PUSH1 0x1F ADD PUSH1 0x20 DUP1 SWAP2 DIV MUL PUSH1 0x20 ADD PUSH1 0x40 MLOAD SWAP1 DUP2 ADD PUSH1 0x40 MSTORE DUP1 SWAP4 SWAP3 SWAP2 SWAP1 DUP2 DUP2 MSTORE PUSH1 0x20 ADD DUP4 DUP4 DUP1 DUP3 DUP5 CALLDATACOPY PUSH1 0x0 DUP2 DUP5 ADD MSTORE PUSH1 0x1F NOT PUSH1 0x1F DUP3 ADD AND SWAP1 POP DUP1 DUP4 ADD SWAP3 POP POP POP POP POP POP POP PUSH2 0x1509 JUMP JUMPDEST POP POP JUMP JUMPDEST PUSH1 0x60 PUSH1 0x4 DUP1 SLOAD PUSH2 0x98B SWAP1 PUSH2 0x2DFD JUMP JUMPDEST DUP1 PUSH1 0x1F ADD PUSH1 0x20 DUP1 SWAP2 DIV MUL PUSH1 0x20 ADD PUSH1 0x40 MLOAD SWAP1 DUP2 ADD PUSH1 0x40 MSTORE DUP1 SWAP3 SWAP2 SWAP1 DUP2 DUP2 MSTORE PUSH1 0x20 ADD DUP3 DUP1 SLOAD PUSH2 0x9B7 SWAP1 PUSH2 0x2DFD JUMP JUMPDEST DUP1 ISZERO PUSH2 0xA04 JUMPI DUP1 PUSH1 0x1F LT PUSH2 0x9D9 JUMPI PUSH2 0x100 DUP1 DUP4 SLOAD DIV MUL DUP4 MSTORE SWAP2 PUSH1 0x20 ADD SWAP2 PUSH2 0xA04 JUMP JUMPDEST DUP3 ADD SWAP2 SWAP1 PUSH1 0x0 MSTORE PUSH1 0x20 PUSH1 0x0 KECCAK256 SWAP1 JUMPDEST DUP2 SLOAD DUP2 MSTORE SWAP1 PUSH1 0x1 ADD SWAP1 PUSH1 0x20 ADD DUP1 DUP4 GT PUSH2 0x9E7 JUMPI DUP3 SWAP1 SUB PUSH1 0x1F AND DUP3 ADD SWAP2 JUMPDEST POP POP POP POP POP SWAP1 POP SWAP1 JUMP JUMPDEST PUSH1 0x60 PUSH1 0x5 PUSH1 0x0 DUP4 DUP2 MSTORE PUSH1 0x20 ADD SWAP1 DUP2 MSTORE PUSH1 0x20 ADD PUSH1 0x0 KECCAK256 DUP1 SLOAD PUSH2 0xA2E SWAP1 PUSH2 0x2DFD JUMP JUMPDEST DUP1 PUSH1 0x1F ADD PUSH1 0x20 DUP1 SWAP2 DIV MUL PUSH1 0x20 ADD PUSH1 0x40 MLOAD SWAP1 DUP2 ADD PUSH1 0x40 MSTORE DUP1 SWAP3 SWAP2 SWAP1 DUP2 DUP2 MSTORE PUSH1 0x20 ADD DUP3 DUP1 SLOAD PUSH2 0xA5A SWAP1 PUSH2 0x2DFD JUMP JUMPDEST DUP1 ISZERO PUSH2 0xAA7 JUMPI DUP1 PUSH1 0x1F LT PUSH2 0xA7C JUMPI PUSH2 0x100 DUP1 DUP4 SLOAD DIV MUL DUP4 MSTORE SWAP2 PUSH1 0x20 ADD SWAP2 PUSH2 0xAA7 JUMP JUMPDEST DUP3 ADD SWAP2 SWAP1 PUSH1 0x0 MSTORE PUSH1 0x20 PUSH1 0x0 KECCAK256 SWAP1 JUMPDEST DUP2 SLOAD DUP2 MSTORE SWAP1 PUSH1 0x1 ADD SWAP1 PUSH1 0x20 ADD DUP1 DUP4 GT PUSH2 0xA8A JUMPI DUP3 SWAP1 SUB PUSH1 0x1F AND DUP3 ADD SWAP2 JUMPDEST POP POP POP POP POP SWAP1 POP SWAP2 SWAP1 POP JUMP JUMPDEST PUSH1 0x6 PUSH1 0x20 MSTORE DUP1 PUSH1 0x0 MSTORE PUSH1 0x40 PUSH1 0x0 KECCAK256 PUSH1 0x0 SWAP2 POP SLOAD SWAP1 PUSH2 0x100 EXP SWAP1 DIV PUSH1 0xFF AND DUP2 JUMP JUMPDEST PUSH2 0xAE5 PUSH2 0xADE PUSH2 0x11E0 JUMP JUMPDEST DUP4 DUP4 PUSH2 0x1523 JUMP JUMPDEST POP POP JUMP JUMPDEST PUSH1 0x0 PUSH1 0x3 PUSH1 0x0 DUP4 DUP2 MSTORE PUSH1 0x20 ADD SWAP1 DUP2 MSTORE PUSH1 0x20 ADD PUSH1 0x0 KECCAK256 SLOAD SWAP1 POP SWAP2 SWAP1 POP JUMP JUMPDEST PUSH1 0x6 PUSH1 0x0 CALLER PUSH20 0xFFFFFFFFFFFFFFFFFFFFFFFFFFFFFFFFFFFFFFFF AND PUSH20 0xFFFFFFFFFFFFFFFFFFFFFFFFFFFFFFFFFFFFFFFF AND DUP2 MSTORE PUSH1 0x20 ADD SWAP1 DUP2 MSTORE PUSH1 0x20 ADD PUSH1 0x0 KECCAK256 PUSH1 0x0 SWAP1 SLOAD SWAP1 PUSH2 0x100 EXP SWAP1 DIV PUSH1 0xFF AND PUSH2 0xB92 JUMPI PUSH1 0x40 MLOAD PUSH32 0x8C379A000000000000000000000000000000000000000000000000000000000 DUP2 MSTORE PUSH1 0x4 ADD PUSH2 0xB89 SWAP1 PUSH2 0x3044 JUMP JUMPDEST PUSH1 0x40 MLOAD DUP1 SWAP2 SUB SWAP1 REVERT JUMPDEST PUSH1 0x0 PUSH2 0xB9D DUP8 PUSH2 0xAE9 JUMP JUMPDEST SUB PUSH2 0xC14 JUMPI PUSH2 0xBF0 DUP7 DUP4 DUP4 DUP1 DUP1 PUSH1 0x1F ADD PUSH1 0x20 DUP1 SWAP2 DIV MUL PUSH1 0x20 ADD PUSH1 0x40 MLOAD SWAP1 DUP2 ADD PUSH1 0x40 MSTORE DUP1 SWAP4 SWAP3 SWAP2 SWAP1 DUP2 DUP2 MSTORE PUSH1 0x20 ADD DUP4 DUP4 DUP1 DUP3 DUP5 CALLDATACOPY PUSH1 0x0 DUP2 DUP5 ADD MSTORE PUSH1 0x1F NOT PUSH1 0x1F DUP3 ADD AND SWAP1 POP DUP1 DUP4 ADD SWAP3 POP POP POP POP POP POP POP PUSH2 0x168F JUMP JUMPDEST DUP4 DUP4 PUSH1 0x7 PUSH1 0x0 DUP10 DUP2 MSTORE PUSH1 0x20 ADD SWAP1 DUP2 MSTORE PUSH1 0x20 ADD PUSH1 0x0 KECCAK256 SWAP2 SWAP1 PUSH2 0xC12 SWAP3 SWAP2 SWAP1 PUSH2 0x1FF5 JUMP JUMPDEST POP JUMPDEST PUSH2 0xC2F DUP8 DUP8 DUP8 PUSH1 0x40 MLOAD DUP1 PUSH1 0x20 ADD PUSH1 0x40 MSTORE DUP1 PUSH1 0x0 DUP2 MSTORE POP PUSH2 0x16BB JUMP JUMPDEST POP POP POP POP POP POP POP JUMP JUMPDEST PUSH1 0x8 PUSH1 0x0 SWAP1 SLOAD SWAP1 PUSH2 0x100 EXP SWAP1 DIV PUSH20 0xFFFFFFFFFFFFFFFFFFFFFFFFFFFFFFFFFFFFFFFF AND PUSH20 0xFFFFFFFFFFFFFFFFFFFFFFFFFFFFFFFFFFFFFFFF AND CALLER PUSH20 0xFFFFFFFFFFFFFFFFFFFFFFFFFFFFFFFFFFFFFFFF AND EQ PUSH2 0xCC8 JUMPI PUSH1 0x40 MLOAD PUSH32 0x8C379A000000000000000000000000000000000000000000000000000000000 DUP2 MSTORE PUSH1 0x4 ADD PUSH2 0xCBF SWAP1 PUSH2 0x3044 JUMP JUMPDEST PUSH1 0x40 MLOAD DUP1 SWAP2 SUB SWAP1 REVERT JUMPDEST DUP1 PUSH20 0xFFFFFFFFFFFFFFFFFFFFFFFFFFFFFFFFFFFFFFFF AND PUSH1 0x8 PUSH1 0x0 SWAP1 SLOAD SWAP1 PUSH2 0x100 EXP SWAP1 DIV PUSH20 0xFFFFFFFFFFFFFFFFFFFFFFFFFFFFFFFFFFFFFFFF AND PUSH20 0xFFFFFFFFFFFFFFFFFFFFFFFFFFFFFFFFFFFFFFFF AND SUB PUSH2 0xD58 JUMPI PUSH1 0x40 MLOAD PUSH32 0x8C379A000000000000000000000000000000000000000000000000000000000 DUP2 MSTORE PUSH1 0x4 ADD PUSH2 0xD4F SWAP1 PUSH2 0x30D6 JUMP JUMPDEST PUSH1 0x40 MLOAD DUP1 SWAP2 SUB SWAP1 REVERT JUMPDEST DUP1 PUSH1 0x8 PUSH1 0x0 PUSH2 0x100 EXP DUP2 SLOAD DUP2 PUSH20 0xFFFFFFFFFFFFFFFFFFFFFFFFFFFFFFFFFFFFFFFF MUL NOT AND SWAP1 DUP4 PUSH20 0xFFFFFFFFFFFFFFFFFFFFFFFFFFFFFFFFFFFFFFFF AND MUL OR SWAP1 SSTORE POP DUP1 PUSH20 0xFFFFFFFFFFFFFFFFFFFFFFFFFFFFFFFFFFFFFFFF AND PUSH32 0xD4C1AF98B758421A8D47B0BC04ECFA30233D5506955E8CDE282417AA0D31D3B6 PUSH1 0x40 MLOAD PUSH1 0x40 MLOAD DUP1 SWAP2 SUB SWAP1 LOG2 POP JUMP JUMPDEST PUSH1 0x8 PUSH1 0x0 SWAP1 SLOAD SWAP1 PUSH2 0x100 EXP SWAP1 DIV PUSH20 0xFFFFFFFFFFFFFFFFFFFFFFFFFFFFFFFFFFFFFFFF AND PUSH20 0xFFFFFFFFFFFFFFFFFFFFFFFFFFFFFFFFFFFFFFFF AND CALLER PUSH20 0xFFFFFFFFFFFFFFFFFFFFFFFFFFFFFFFFFFFFFFFF AND EQ PUSH2 0xE6F JUMPI PUSH1 0x40 MLOAD PUSH32 0x8C379A000000000000000000000000000000000000000000000000000000000 DUP2 MSTORE PUSH1 0x4 ADD PUSH2 0xE66 SWAP1 PUSH2 0x3044 JUMP JUMPDEST PUSH1 0x40 MLOAD DUP1 SWAP2 SUB SWAP1 REVERT JUMPDEST DUP1 PUSH1 0x6 PUSH1 0x0 DUP5 PUSH20 0xFFFFFFFFFFFFFFFFFFFFFFFFFFFFFFFFFFFFFFFF AND PUSH20 0xFFFFFFFFFFFFFFFFFFFFFFFFFFFFFFFFFFFFFFFF AND DUP2 MSTORE PUSH1 0x20 ADD SWAP1 DUP2 MSTORE PUSH1 0x20 ADD PUSH1 0x0 KECCAK256 PUSH1 0x0 PUSH2 0x100 EXP DUP2 SLOAD DUP2 PUSH1 0xFF MUL NOT AND SWAP1 DUP4 ISZERO ISZERO MUL OR SWAP1 SSTORE POP DUP1 ISZERO PUSH2 0xF14 JUMPI DUP2 PUSH20 0xFFFFFFFFFFFFFFFFFFFFFFFFFFFFFFFFFFFFFFFF AND PUSH32 0x526AF00F9BC92D53F2D0B4C603A1305395A04F7FB6A0A7962867D8D230467547 PUSH1 0x40 MLOAD PUSH1 0x40 MLOAD DUP1 SWAP2 SUB SWAP1 LOG2 PUSH2 0xF58 JUMP JUMPDEST DUP2 PUSH20 0xFFFFFFFFFFFFFFFFFFFFFFFFFFFFFFFFFFFFFFFF AND PUSH32 0xE8185C1A3F6241A6224D99FF39E932AC24FC0D2C51B17E56C5D6F52AFF1B5DA1 PUSH1 0x40 MLOAD PUSH1 0x40 MLOAD DUP1 SWAP2 SUB SWAP1 LOG2 JUMPDEST POP POP JUMP JUMPDEST PUSH1 0x0 PUSH1 0x1 PUSH1 0x0 DUP5 PUSH20 0xFFFFFFFFFFFFFFFFFFFFFFFFFFFFFFFFFFFFFFFF AND PUSH20 0xFFFFFFFFFFFFFFFFFFFFFFFFFFFFFFFFFFFFFFFF AND DUP2 MSTORE PUSH1 0x20 ADD SWAP1 DUP2 MSTORE PUSH1 0x20 ADD PUSH1 0x0 KECCAK256 PUSH1 0x0 DUP4 PUSH20 0xFFFFFFFFFFFFFFFFFFFFFFFFFFFFFFFFFFFFFFFF AND PUSH20 0xFFFFFFFFFFFFFFFFFFFFFFFFFFFFFFFFFFFFFFFF AND DUP2 MSTORE PUSH1 0x20 ADD SWAP1 DUP2 MSTORE PUSH1 0x20 ADD PUSH1 0x0 KECCAK256 PUSH1 0x0 SWAP1 SLOAD SWAP1 PUSH2 0x100 EXP SWAP1 DIV PUSH1 0xFF AND SWAP1 POP SWAP3 SWAP2 POP POP JUMP JUMPDEST PUSH2 0xFF8 PUSH2 0x11E0 JUMP JUMPDEST PUSH20 0xFFFFFFFFFFFFFFFFFFFFFFFFFFFFFFFFFFFFFFFF AND DUP6 PUSH20 0xFFFFFFFFFFFFFFFFFFFFFFFFFFFFFFFFFFFFFFFF AND EQ DUP1 PUSH2 0x103E JUMPI POP PUSH2 0x103D DUP6 PUSH2 0x1038 PUSH2 0x11E0 JUMP JUMPDEST PUSH2 0xF5C JUMP JUMPDEST JUMPDEST PUSH2 0x107D JUMPI PUSH1 0x40 MLOAD PUSH32 0x8C379A000000000000000000000000000000000000000000000000000000000 DUP2 MSTORE PUSH1 0x4 ADD PUSH2 0x1074 SWAP1 PUSH2 0x3168 JUMP JUMPDEST PUSH1 0x40 MLOAD DUP1 SWAP2 SUB SWAP1 REVERT JUMPDEST PUSH2 0x108A DUP6 DUP6 DUP6 DUP6 DUP6 PUSH2 0x186B JUMP JUMPDEST POP POP POP POP POP JUMP JUMPDEST PUSH1 0x0 PUSH32 0x1FFC9A700000000000000000000000000000000000000000000000000000000 PUSH28 0xFFFFFFFFFFFFFFFFFFFFFFFFFFFFFFFFFFFFFFFFFFFFFFFFFFFFFFFF NOT AND DUP3 PUSH28 0xFFFFFFFFFFFFFFFFFFFFFFFFFFFFFFFFFFFFFFFFFFFFFFFFFFFFFFFF NOT AND EQ SWAP1 POP SWAP2 SWAP1 POP JUMP JUMPDEST PUSH1 0x60 PUSH1 0x0 PUSH1 0x5 PUSH1 0x0 DUP5 DUP2 MSTORE PUSH1 0x20 ADD SWAP1 DUP2 MSTORE PUSH1 0x20 ADD PUSH1 0x0 KECCAK256 DUP1 SLOAD PUSH2 0x111D SWAP1 PUSH2 0x2DFD JUMP JUMPDEST DUP1 PUSH1 0x1F ADD PUSH1 0x20 DUP1 SWAP2 DIV MUL PUSH1 0x20 ADD PUSH1 0x40 MLOAD SWAP1 DUP2 ADD PUSH1 0x40 MSTORE DUP1 SWAP3 SWAP2 SWAP1 DUP2 DUP2 MSTORE PUSH1 0x20 ADD DUP3 DUP1 SLOAD PUSH2 0x1149 SWAP1 PUSH2 0x2DFD JUMP JUMPDEST DUP1 ISZERO PUSH2 0x1196 JUMPI DUP1 PUSH1 0x1F LT PUSH2 0x116B JUMPI PUSH2 0x100 DUP1 DUP4 SLOAD DIV MUL DUP4 MSTORE SWAP2 PUSH1 0x20 ADD SWAP2 PUSH2 0x1196 JUMP JUMPDEST DUP3 ADD SWAP2 SWAP1 PUSH1 0x0 MSTORE PUSH1 0x20 PUSH1 0x0 KECCAK256 SWAP1 JUMPDEST DUP2 SLOAD DUP2 MSTORE SWAP1 PUSH1 0x1 ADD SWAP1 PUSH1 0x20 ADD DUP1 DUP4 GT PUSH2 0x1179 JUMPI DUP3 SWAP1 SUB PUSH1 0x1F AND DUP3 ADD SWAP2 JUMPDEST POP POP POP POP POP SWAP1 POP PUSH1 0x0 DUP2 MLOAD GT PUSH2 0x11B4 JUMPI PUSH2 0x11AF DUP4 PUSH2 0x1B06 JUMP JUMPDEST PUSH2 0x11D8 JUMP JUMPDEST PUSH1 0x4 DUP2 PUSH1 0x40 MLOAD PUSH1 0x20 ADD PUSH2 0x11C8 SWAP3 SWAP2 SWAP1 PUSH2 0x321C JUMP JUMPDEST PUSH1 0x40 MLOAD PUSH1 0x20 DUP2 DUP4 SUB SUB DUP2 MSTORE SWAP1 PUSH1 0x40 MSTORE JUMPDEST SWAP2 POP POP SWAP2 SWAP1 POP JUMP JUMPDEST PUSH1 0x0 CALLER SWAP1 POP SWAP1 JUMP JUMPDEST DUP2 MLOAD DUP4 MLOAD EQ PUSH2 0x122C JUMPI PUSH1 0x40 MLOAD PUSH32 0x8C379A000000000000000000000000000000000000000000000000000000000 DUP2 MSTORE PUSH1 0x4 ADD PUSH2 0x1223 SWAP1 PUSH2 0x32B2 JUMP JUMPDEST PUSH1 0x40 MLOAD DUP1 SWAP2 SUB SWAP1 REVERT JUMPDEST PUSH1 0x0 PUSH20 0xFFFFFFFFFFFFFFFFFFFFFFFFFFFFFFFFFFFFFFFF AND DUP5 PUSH20 0xFFFFFFFFFFFFFFFFFFFFFFFFFFFFFFFFFFFFFFFF AND SUB PUSH2 0x129B JUMPI PUSH1 0x40 MLOAD PUSH32 0x8C379A000000000000000000000000000000000000000000000000000000000 DUP2 MSTORE PUSH1 0x4 ADD PUSH2 0x1292 SWAP1 PUSH2 0x3344 JUMP JUMPDEST PUSH1 0x40 MLOAD DUP1 SWAP2 SUB SWAP1 REVERT JUMPDEST PUSH1 0x0 PUSH2 0x12A5 PUSH2 0x11E0 JUMP JUMPDEST SWAP1 POP PUSH2 0x12B5 DUP2 DUP8 DUP8 DUP8 DUP8 DUP8 PUSH2 0x1B9A JUMP JUMPDEST PUSH1 0x0 JUMPDEST DUP5 MLOAD DUP2 LT ISZERO PUSH2 0x1466 JUMPI PUSH1 0x0 DUP6 DUP3 DUP2 MLOAD DUP2 LT PUSH2 0x12D6 JUMPI PUSH2 0x12D5 PUSH2 0x2F52 JUMP JUMPDEST JUMPDEST PUSH1 0x20 MUL PUSH1 0x20 ADD ADD MLOAD SWAP1 POP PUSH1 0x0 DUP6 DUP4 DUP2 MLOAD DUP2 LT PUSH2 0x12F5 JUMPI PUSH2 0x12F4 PUSH2 0x2F52 JUMP JUMPDEST JUMPDEST PUSH1 0x20 MUL PUSH1 0x20 ADD ADD MLOAD SWAP1 POP PUSH1 0x0 DUP1 PUSH1 0x0 DUP5 DUP2 MSTORE PUSH1 0x20 ADD SWAP1 DUP2 MSTORE PUSH1 0x20 ADD PUSH1 0x0 KECCAK256 PUSH1 0x0 DUP12 PUSH20 0xFFFFFFFFFFFFFFFFFFFFFFFFFFFFFFFFFFFFFFFF AND PUSH20 0xFFFFFFFFFFFFFFFFFFFFFFFFFFFFFFFFFFFFFFFF AND DUP2 MSTORE PUSH1 0x20 ADD SWAP1 DUP2 MSTORE PUSH1 0x20 ADD PUSH1 0x0 KECCAK256 SLOAD SWAP1 POP DUP2 DUP2 LT ISZERO PUSH2 0x1396 JUMPI PUSH1 0x40 MLOAD PUSH32 0x8C379A000000000000000000000000000000000000000000000000000000000 DUP2 MSTORE PUSH1 0x4 ADD PUSH2 0x138D SWAP1 PUSH2 0x33D6 JUMP JUMPDEST PUSH1 0x40 MLOAD DUP1 SWAP2 SUB SWAP1 REVERT JUMPDEST DUP2 DUP2 SUB PUSH1 0x0 DUP1 DUP6 DUP2 MSTORE PUSH1 0x20 ADD SWAP1 DUP2 MSTORE PUSH1 0x20 ADD PUSH1 0x0 KECCAK256 PUSH1 0x0 DUP13 PUSH20 0xFFFFFFFFFFFFFFFFFFFFFFFFFFFFFFFFFFFFFFFF AND PUSH20 0xFFFFFFFFFFFFFFFFFFFFFFFFFFFFFFFFFFFFFFFF AND DUP2 MSTORE PUSH1 0x20 ADD SWAP1 DUP2 MSTORE PUSH1 0x20 ADD PUSH1 0x0 KECCAK256 DUP2 SWAP1 SSTORE POP DUP2 PUSH1 0x0 DUP1 DUP6 DUP2 MSTORE PUSH1 0x20 ADD SWAP1 DUP2 MSTORE PUSH1 0x20 ADD PUSH1 0x0 KECCAK256 PUSH1 0x0 DUP12 PUSH20 0xFFFFFFFFFFFFFFFFFFFFFFFFFFFFFFFFFFFFFFFF AND PUSH20 0xFFFFFFFFFFFFFFFFFFFFFFFFFFFFFFFFFFFFFFFF AND DUP2 MSTORE PUSH1 0x20 ADD SWAP1 DUP2 MSTORE PUSH1 0x20 ADD PUSH1 0x0 KECCAK256 PUSH1 0x0 DUP3 DUP3 SLOAD PUSH2 0x144B SWAP2 SWAP1 PUSH2 0x33F6 JUMP JUMPDEST SWAP3 POP POP DUP2 SWAP1 SSTORE POP POP POP POP DUP1 PUSH2 0x145F SWAP1 PUSH2 0x2FB0 JUMP JUMPDEST SWAP1 POP PUSH2 0x12B8 JUMP JUMPDEST POP DUP5 PUSH20 0xFFFFFFFFFFFFFFFFFFFFFFFFFFFFFFFFFFFFFFFF AND DUP7 PUSH20 0xFFFFFFFFFFFFFFFFFFFFFFFFFFFFFFFFFFFFFFFF AND DUP3 PUSH20 0xFFFFFFFFFFFFFFFFFFFFFFFFFFFFFFFFFFFFFFFF AND PUSH32 0x4A39DC06D4C0DBC64B70AF90FD698A233A518AA5D07E595D983B8C0526C8F7FB DUP8 DUP8 PUSH1 0x40 MLOAD PUSH2 0x14DD SWAP3 SWAP2 SWAP1 PUSH2 0x344C JUMP JUMPDEST PUSH1 0x40 MLOAD DUP1 SWAP2 SUB SWAP1 LOG4 PUSH2 0x14F3 DUP2 DUP8 DUP8 DUP8 DUP8 DUP8 PUSH2 0x1BA2 JUMP JUMPDEST PUSH2 0x1501 DUP2 DUP8 DUP8 DUP8 DUP8 DUP8 PUSH2 0x1BAA JUMP JUMPDEST POP POP POP POP POP POP JUMP JUMPDEST DUP1 PUSH1 0x4 SWAP1 DUP1 MLOAD SWAP1 PUSH1 0x20 ADD SWAP1 PUSH2 0x151F SWAP3 SWAP2 SWAP1 PUSH2 0x207B JUMP JUMPDEST POP POP JUMP JUMPDEST DUP2 PUSH20 0xFFFFFFFFFFFFFFFFFFFFFFFFFFFFFFFFFFFFFFFF AND DUP4 PUSH20 0xFFFFFFFFFFFFFFFFFFFFFFFFFFFFFFFFFFFFFFFF AND SUB PUSH2 0x1591 JUMPI PUSH1 0x40 MLOAD PUSH32 0x8C379A000000000000000000000000000000000000000000000000000000000 DUP2 MSTORE PUSH1 0x4 ADD PUSH2 0x1588 SWAP1 PUSH2 0x34F5 JUMP JUMPDEST PUSH1 0x40 MLOAD DUP1 SWAP2 SUB SWAP1 REVERT JUMPDEST DUP1 PUSH1 0x1 PUSH1 0x0 DUP6 PUSH20 0xFFFFFFFFFFFFFFFFFFFFFFFFFFFFFFFFFFFFFFFF AND PUSH20 0xFFFFFFFFFFFFFFFFFFFFFFFFFFFFFFFFFFFFFFFF AND DUP2 MSTORE PUSH1 0x20 ADD SWAP1 DUP2 MSTORE PUSH1 0x20 ADD PUSH1 0x0 KECCAK256 PUSH1 0x0 DUP5 PUSH20 0xFFFFFFFFFFFFFFFFFFFFFFFFFFFFFFFFFFFFFFFF AND PUSH20 0xFFFFFFFFFFFFFFFFFFFFFFFFFFFFFFFFFFFFFFFF AND DUP2 MSTORE PUSH1 0x20 ADD SWAP1 DUP2 MSTORE PUSH1 0x20 ADD PUSH1 0x0 KECCAK256 PUSH1 0x0 PUSH2 0x100 EXP DUP2 SLOAD DUP2 PUSH1 0xFF MUL NOT AND SWAP1 DUP4 ISZERO ISZERO MUL OR SWAP1 SSTORE POP DUP2 PUSH20 0xFFFFFFFFFFFFFFFFFFFFFFFFFFFFFFFFFFFFFFFF AND DUP4 PUSH20 0xFFFFFFFFFFFFFFFFFFFFFFFFFFFFFFFFFFFFFFFF AND PUSH32 0x17307EAB39AB6107E8899845AD3D59BD9653F200F220920489CA2B5937696C31 DUP4 PUSH1 0x40 MLOAD PUSH2 0x1682 SWAP2 SWAP1 PUSH2 0x22D0 JUMP JUMPDEST PUSH1 0x40 MLOAD DUP1 SWAP2 SUB SWAP1 LOG3 POP POP POP JUMP JUMPDEST DUP1 PUSH1 0x5 PUSH1 0x0 DUP5 DUP2 MSTORE PUSH1 0x20 ADD SWAP1 DUP2 MSTORE PUSH1 0x20 ADD PUSH1 0x0 KECCAK256 SWAP1 DUP1 MLOAD SWAP1 PUSH1 0x20 ADD SWAP1 PUSH2 0x16B6 SWAP3 SWAP2 SWAP1 PUSH2 0x207B JUMP JUMPDEST POP POP POP JUMP JUMPDEST PUSH1 0x0 PUSH20 0xFFFFFFFFFFFFFFFFFFFFFFFFFFFFFFFFFFFFFFFF AND DUP5 PUSH20 0xFFFFFFFFFFFFFFFFFFFFFFFFFFFFFFFFFFFFFFFF AND SUB PUSH2 0x172A JUMPI PUSH1 0x40 MLOAD PUSH32 0x8C379A000000000000000000000000000000000000000000000000000000000 DUP2 MSTORE PUSH1 0x4 ADD PUSH2 0x1721 SWAP1 PUSH2 0x3587 JUMP JUMPDEST PUSH1 0x40 MLOAD DUP1 SWAP2 SUB SWAP1 REVERT JUMPDEST PUSH1 0x0 PUSH2 0x1734 PUSH2 0x11E0 JUMP JUMPDEST SWAP1 POP PUSH1 0x0 PUSH2 0x1741 DUP6 PUSH2 0x1D81 JUMP JUMPDEST SWAP1 POP PUSH1 0x0 PUSH2 0x174E DUP6 PUSH2 0x1D81 JUMP JUMPDEST SWAP1 POP PUSH2 0x175F DUP4 PUSH1 0x0 DUP10 DUP6 DUP6 DUP10 PUSH2 0x1B9A JUMP JUMPDEST DUP5 PUSH1 0x0 DUP1 DUP9 DUP2 MSTORE PUSH1 0x20 ADD SWAP1 DUP2 MSTORE PUSH1 0x20 ADD PUSH1 0x0 KECCAK256 PUSH1 0x0 DUP10 PUSH20 0xFFFFFFFFFFFFFFFFFFFFFFFFFFFFFFFFFFFFFFFF AND PUSH20 0xFFFFFFFFFFFFFFFFFFFFFFFFFFFFFFFFFFFFFFFF AND DUP2 MSTORE PUSH1 0x20 ADD SWAP1 DUP2 MSTORE PUSH1 0x20 ADD PUSH1 0x0 KECCAK256 PUSH1 0x0 DUP3 DUP3 SLOAD PUSH2 0x17BE SWAP2 SWAP1 PUSH2 0x33F6 JUMP JUMPDEST SWAP3 POP POP DUP2 SWAP1 SSTORE POP DUP7 PUSH20 0xFFFFFFFFFFFFFFFFFFFFFFFFFFFFFFFFFFFFFFFF AND PUSH1 0x0 PUSH20 0xFFFFFFFFFFFFFFFFFFFFFFFFFFFFFFFFFFFFFFFF AND DUP5 PUSH20 0xFFFFFFFFFFFFFFFFFFFFFFFFFFFFFFFFFFFFFFFF AND PUSH32 0xC3D58168C5AE7397731D063D5BBF3D657854427343F4C083240F7AACAA2D0F62 DUP10 DUP10 PUSH1 0x40 MLOAD PUSH2 0x183C SWAP3 SWAP2 SWAP1 PUSH2 0x35A7 JUMP JUMPDEST PUSH1 0x40 MLOAD DUP1 SWAP2 SUB SWAP1 LOG4 PUSH2 0x1853 DUP4 PUSH1 0x0 DUP10 DUP6 DUP6 DUP10 PUSH2 0x1BA2 JUMP JUMPDEST PUSH2 0x1862 DUP4 PUSH1 0x0 DUP10 DUP10 DUP10 DUP10 PUSH2 0x1DFB JUMP JUMPDEST POP POP POP POP POP POP POP JUMP JUMPDEST PUSH1 0x0 PUSH20 0xFFFFFFFFFFFFFFFFFFFFFFFFFFFFFFFFFFFFFFFF AND DUP5 PUSH20 0xFFFFFFFFFFFFFFFFFFFFFFFFFFFFFFFFFFFFFFFF AND SUB PUSH2 0x18DA JUMPI PUSH1 0x40 MLOAD PUSH32 0x8C379A000000000000000000000000000000000000000000000000000000000 DUP2 MSTORE PUSH1 0x4 ADD PUSH2 0x18D1 SWAP1 PUSH2 0x3344 JUMP JUMPDEST PUSH1 0x40 MLOAD DUP1 SWAP2 SUB SWAP1 REVERT JUMPDEST PUSH1 0x0 PUSH2 0x18E4 PUSH2 0x11E0 JUMP JUMPDEST SWAP1 POP PUSH1 0x0 PUSH2 0x18F1 DUP6 PUSH2 0x1D81 JUMP JUMPDEST SWAP1 POP PUSH1 0x0 PUSH2 0x18FE DUP6 PUSH2 0x1D81 JUMP JUMPDEST SWAP1 POP PUSH2 0x190E DUP4 DUP10 DUP10 DUP6 DUP6 DUP10 PUSH2 0x1B9A JUMP JUMPDEST PUSH1 0x0 DUP1 PUSH1 0x0 DUP9 DUP2 MSTORE PUSH1 0x20 ADD SWAP1 DUP2 MSTORE PUSH1 0x20 ADD PUSH1 0x0 KECCAK256 PUSH1 0x0 DUP11 PUSH20 0xFFFFFFFFFFFFFFFFFFFFFFFFFFFFFFFFFFFFFFFF AND PUSH20 0xFFFFFFFFFFFFFFFFFFFFFFFFFFFFFFFFFFFFFFFF AND DUP2 MSTORE PUSH1 0x20 ADD SWAP1 DUP2 MSTORE PUSH1 0x20 ADD PUSH1 0x0 KECCAK256 SLOAD SWAP1 POP DUP6 DUP2 LT ISZERO PUSH2 0x19A5 JUMPI PUSH1 0x40 MLOAD PUSH32 0x8C379A000000000000000000000000000000000000000000000000000000000 DUP2 MSTORE PUSH1 0x4 ADD PUSH2 0x199C SWAP1 PUSH2 0x33D6 JUMP JUMPDEST PUSH1 0x40 MLOAD DUP1 SWAP2 SUB SWAP1 REVERT JUMPDEST DUP6 DUP2 SUB PUSH1 0x0 DUP1 DUP10 DUP2 MSTORE PUSH1 0x20 ADD SWAP1 DUP2 MSTORE PUSH1 0x20 ADD PUSH1 0x0 KECCAK256 PUSH1 0x0 DUP12 PUSH20 0xFFFFFFFFFFFFFFFFFFFFFFFFFFFFFFFFFFFFFFFF AND PUSH20 0xFFFFFFFFFFFFFFFFFFFFFFFFFFFFFFFFFFFFFFFF AND DUP2 MSTORE PUSH1 0x20 ADD SWAP1 DUP2 MSTORE PUSH1 0x20 ADD PUSH1 0x0 KECCAK256 DUP2 SWAP1 SSTORE POP DUP6 PUSH1 0x0 DUP1 DUP10 DUP2 MSTORE PUSH1 0x20 ADD SWAP1 DUP2 MSTORE PUSH1 0x20 ADD PUSH1 0x0 KECCAK256 PUSH1 0x0 DUP11 PUSH20 0xFFFFFFFFFFFFFFFFFFFFFFFFFFFFFFFFFFFFFFFF AND PUSH20 0xFFFFFFFFFFFFFFFFFFFFFFFFFFFFFFFFFFFFFFFF AND DUP2 MSTORE PUSH1 0x20 ADD SWAP1 DUP2 MSTORE PUSH1 0x20 ADD PUSH1 0x0 KECCAK256 PUSH1 0x0 DUP3 DUP3 SLOAD PUSH2 0x1A5A SWAP2 SWAP1 PUSH2 0x33F6 JUMP JUMPDEST SWAP3 POP POP DUP2 SWAP1 SSTORE POP DUP8 PUSH20 0xFFFFFFFFFFFFFFFFFFFFFFFFFFFFFFFFFFFFFFFF AND DUP10 PUSH20 0xFFFFFFFFFFFFFFFFFFFFFFFFFFFFFFFFFFFFFFFF AND DUP6 PUSH20 0xFFFFFFFFFFFFFFFFFFFFFFFFFFFFFFFFFFFFFFFF AND PUSH32 0xC3D58168C5AE7397731D063D5BBF3D657854427343F4C083240F7AACAA2D0F62 DUP11 DUP11 PUSH1 0x40 MLOAD PUSH2 0x1AD7 SWAP3 SWAP2 SWAP1 PUSH2 0x35A7 JUMP JUMPDEST PUSH1 0x40 MLOAD DUP1 SWAP2 SUB SWAP1 LOG4 PUSH2 0x1AED DUP5 DUP11 DUP11 DUP7 DUP7 DUP11 PUSH2 0x1BA2 JUMP JUMPDEST PUSH2 0x1AFB DUP5 DUP11 DUP11 DUP11 DUP11 DUP11 PUSH2 0x1DFB JUMP JUMPDEST POP POP POP POP POP POP POP POP POP JUMP JUMPDEST PUSH1 0x60 PUSH1 0x2 DUP1 SLOAD PUSH2 0x1B15 SWAP1 PUSH2 0x2DFD JUMP JUMPDEST DUP1 PUSH1 0x1F ADD PUSH1 0x20 DUP1 SWAP2 DIV MUL PUSH1 0x20 ADD PUSH1 0x40 MLOAD SWAP1 DUP2 ADD PUSH1 0x40 MSTORE DUP1 SWAP3 SWAP2 SWAP1 DUP2 DUP2 MSTORE PUSH1 0x20 ADD DUP3 DUP1 SLOAD PUSH2 0x1B41 SWAP1 PUSH2 0x2DFD JUMP JUMPDEST DUP1 ISZERO PUSH2 0x1B8E JUMPI DUP1 PUSH1 0x1F LT PUSH2 0x1B63 JUMPI PUSH2 0x100 DUP1 DUP4 SLOAD DIV MUL DUP4 MSTORE SWAP2 PUSH1 0x20 ADD SWAP2 PUSH2 0x1B8E JUMP JUMPDEST DUP3 ADD SWAP2 SWAP1 PUSH1 0x0 MSTORE PUSH1 0x20 PUSH1 0x0 KECCAK256 SWAP1 JUMPDEST DUP2 SLOAD DUP2 MSTORE SWAP1 PUSH1 0x1 ADD SWAP1 PUSH1 0x20 ADD DUP1 DUP4 GT PUSH2 0x1B71 JUMPI DUP3 SWAP1 SUB PUSH1 0x1F AND DUP3 ADD SWAP2 JUMPDEST POP POP POP POP POP SWAP1 POP SWAP2 SWAP1 POP JUMP JUMPDEST POP POP POP POP POP POP JUMP JUMPDEST POP POP POP POP POP POP JUMP JUMPDEST PUSH2 0x1BC9 DUP5 PUSH20 0xFFFFFFFFFFFFFFFFFFFFFFFFFFFFFFFFFFFFFFFF AND PUSH2 0x1FD2 JUMP JUMPDEST ISZERO PUSH2 0x1D79 JUMPI DUP4 PUSH20 0xFFFFFFFFFFFFFFFFFFFFFFFFFFFFFFFFFFFFFFFF AND PUSH4 0xBC197C81 DUP8 DUP8 DUP7 DUP7 DUP7 PUSH1 0x40 MLOAD DUP7 PUSH4 0xFFFFFFFF AND PUSH1 0xE0 SHL DUP2 MSTORE PUSH1 0x4 ADD PUSH2 0x1C0F SWAP6 SWAP5 SWAP4 SWAP3 SWAP2 SWAP1 PUSH2 0x35D0 JUMP JUMPDEST PUSH1 0x20 PUSH1 0x40 MLOAD DUP1 DUP4 SUB DUP2 PUSH1 0x0 DUP8 GAS CALL SWAP3 POP POP POP DUP1 ISZERO PUSH2 0x1C4B JUMPI POP PUSH1 0x40 MLOAD RETURNDATASIZE PUSH1 0x1F NOT PUSH1 0x1F DUP3 ADD AND DUP3 ADD DUP1 PUSH1 0x40 MSTORE POP DUP2 ADD SWAP1 PUSH2 0x1C48 SWAP2 SWAP1 PUSH2 0x364D JUMP JUMPDEST PUSH1 0x1 JUMPDEST PUSH2 0x1CF0 JUMPI PUSH2 0x1C57 PUSH2 0x3687 JUMP JUMPDEST DUP1 PUSH4 0x8C379A0 SUB PUSH2 0x1CB3 JUMPI POP PUSH2 0x1C6B PUSH2 0x36A9 JUMP JUMPDEST DUP1 PUSH2 0x1C76 JUMPI POP PUSH2 0x1CB5 JUMP JUMPDEST DUP1 PUSH1 0x40 MLOAD PUSH32 0x8C379A000000000000000000000000000000000000000000000000000000000 DUP2 MSTORE PUSH1 0x4 ADD PUSH2 0x1CAA SWAP2 SWAP1 PUSH2 0x23B1 JUMP JUMPDEST PUSH1 0x40 MLOAD DUP1 SWAP2 SUB SWAP1 REVERT JUMPDEST POP JUMPDEST PUSH1 0x40 MLOAD PUSH32 0x8C379A000000000000000000000000000000000000000000000000000000000 DUP2 MSTORE PUSH1 0x4 ADD PUSH2 0x1CE7 SWAP1 PUSH2 0x37AB JUMP JUMPDEST PUSH1 0x40 MLOAD DUP1 SWAP2 SUB SWAP1 REVERT JUMPDEST PUSH4 0xBC197C81 PUSH1 0xE0 SHL PUSH28 0xFFFFFFFFFFFFFFFFFFFFFFFFFFFFFFFFFFFFFFFFFFFFFFFFFFFFFFFF NOT AND DUP2 PUSH28 0xFFFFFFFFFFFFFFFFFFFFFFFFFFFFFFFFFFFFFFFFFFFFFFFFFFFFFFFF NOT AND EQ PUSH2 0x1D77 JUMPI PUSH1 0x40 MLOAD PUSH32 0x8C379A000000000000000000000000000000000000000000000000000000000 DUP2 MSTORE PUSH1 0x4 ADD PUSH2 0x1D6E SWAP1 PUSH2 0x383D JUMP JUMPDEST PUSH1 0x40 MLOAD DUP1 SWAP2 SUB SWAP1 REVERT JUMPDEST POP JUMPDEST POP POP POP POP POP POP JUMP JUMPDEST PUSH1 0x60 PUSH1 0x0 PUSH1 0x1 PUSH8 0xFFFFFFFFFFFFFFFF DUP2 GT ISZERO PUSH2 0x1DA0 JUMPI PUSH2 0x1D9F PUSH2 0x244F JUMP JUMPDEST JUMPDEST PUSH1 0x40 MLOAD SWAP1 DUP1 DUP3 MSTORE DUP1 PUSH1 0x20 MUL PUSH1 0x20 ADD DUP3 ADD PUSH1 0x40 MSTORE DUP1 ISZERO PUSH2 0x1DCE JUMPI DUP2 PUSH1 0x20 ADD PUSH1 0x20 DUP3 MUL DUP1 CALLDATASIZE DUP4 CALLDATACOPY DUP1 DUP3 ADD SWAP2 POP POP SWAP1 POP JUMPDEST POP SWAP1 POP DUP3 DUP2 PUSH1 0x0 DUP2 MLOAD DUP2 LT PUSH2 0x1DE6 JUMPI PUSH2 0x1DE5 PUSH2 0x2F52 JUMP JUMPDEST JUMPDEST PUSH1 0x20 MUL PUSH1 0x20 ADD ADD DUP2 DUP2 MSTORE POP POP DUP1 SWAP2 POP POP SWAP2 SWAP1 POP JUMP JUMPDEST PUSH2 0x1E1A DUP5 PUSH20 0xFFFFFFFFFFFFFFFFFFFFFFFFFFFFFFFFFFFFFFFF AND PUSH2 0x1FD2 JUMP JUMPDEST ISZERO PUSH2 0x1FCA JUMPI DUP4 PUSH20 0xFFFFFFFFFFFFFFFFFFFFFFFFFFFFFFFFFFFFFFFF AND PUSH4 0xF23A6E61 DUP8 DUP8 DUP7 DUP7 DUP7 PUSH1 0x40 MLOAD DUP7 PUSH4 0xFFFFFFFF AND PUSH1 0xE0 SHL DUP2 MSTORE PUSH1 0x4 ADD PUSH2 0x1E60 SWAP6 SWAP5 SWAP4 SWAP3 SWAP2 SWAP1 PUSH2 0x385D JUMP JUMPDEST PUSH1 0x20 PUSH1 0x40 MLOAD DUP1 DUP4 SUB DUP2 PUSH1 0x0 DUP8 GAS CALL SWAP3 POP POP POP DUP1 ISZERO PUSH2 0x1E9C JUMPI POP PUSH1 0x40 MLOAD RETURNDATASIZE PUSH1 0x1F NOT PUSH1 0x1F DUP3 ADD AND DUP3 ADD DUP1 PUSH1 0x40 MSTORE POP DUP2 ADD SWAP1 PUSH2 0x1E99 SWAP2 SWAP1 PUSH2 0x364D JUMP JUMPDEST PUSH1 0x1 JUMPDEST PUSH2 0x1F41 JUMPI PUSH2 0x1EA8 PUSH2 0x3687 JUMP JUMPDEST DUP1 PUSH4 0x8C379A0 SUB PUSH2 0x1F04 JUMPI POP PUSH2 0x1EBC PUSH2 0x36A9 JUMP JUMPDEST DUP1 PUSH2 0x1EC7 JUMPI POP PUSH2 0x1F06 JUMP JUMPDEST DUP1 PUSH1 0x40 MLOAD PUSH32 0x8C379A000000000000000000000000000000000000000000000000000000000 DUP2 MSTORE PUSH1 0x4 ADD PUSH2 0x1EFB SWAP2 SWAP1 PUSH2 0x23B1 JUMP JUMPDEST PUSH1 0x40 MLOAD DUP1 SWAP2 SUB SWAP1 REVERT JUMPDEST POP JUMPDEST PUSH1 0x40 MLOAD PUSH32 0x8C379A000000000000000000000000000000000000000000000000000000000 DUP2 MSTORE PUSH1 0x4 ADD PUSH2 0x1F38 SWAP1 PUSH2 0x37AB JUMP JUMPDEST PUSH1 0x40 MLOAD DUP1 SWAP2 SUB SWAP1 REVERT JUMPDEST PUSH4 0xF23A6E61 PUSH1 0xE0 SHL PUSH28 0xFFFFFFFFFFFFFFFFFFFFFFFFFFFFFFFFFFFFFFFFFFFFFFFFFFFFFFFF NOT AND DUP2 PUSH28 0xFFFFFFFFFFFFFFFFFFFFFFFFFFFFFFFFFFFFFFFFFFFFFFFFFFFFFFFF NOT AND EQ PUSH2 0x1FC8 JUMPI PUSH1 0x40 MLOAD PUSH32 0x8C379A000000000000000000000000000000000000000000000000000000000 DUP2 MSTORE PUSH1 0x4 ADD PUSH2 0x1FBF SWAP1 PUSH2 0x383D JUMP JUMPDEST PUSH1 0x40 MLOAD DUP1 SWAP2 SUB SWAP1 REVERT JUMPDEST POP JUMPDEST POP POP POP POP POP POP JUMP JUMPDEST PUSH1 0x0 DUP1 DUP3 PUSH20 0xFFFFFFFFFFFFFFFFFFFFFFFFFFFFFFFFFFFFFFFF AND EXTCODESIZE GT SWAP1 POP SWAP2 SWAP1 POP JUMP JUMPDEST DUP3 DUP1 SLOAD PUSH2 0x2001 SWAP1 PUSH2 0x2DFD JUMP JUMPDEST SWAP1 PUSH1 0x0 MSTORE PUSH1 0x20 PUSH1 0x0 KECCAK256 SWAP1 PUSH1 0x1F ADD PUSH1 0x20 SWAP1 DIV DUP2 ADD SWAP3 DUP3 PUSH2 0x2023 JUMPI PUSH1 0x0 DUP6 SSTORE PUSH2 0x206A JUMP JUMPDEST DUP3 PUSH1 0x1F LT PUSH2 0x203C JUMPI DUP1 CALLDATALOAD PUSH1 0xFF NOT AND DUP4 DUP1 ADD OR DUP6 SSTORE PUSH2 0x206A JUMP JUMPDEST DUP3 DUP1 ADD PUSH1 0x1 ADD DUP6 SSTORE DUP3 ISZERO PUSH2 0x206A JUMPI SWAP2 DUP3 ADD JUMPDEST DUP3 DUP2 GT ISZERO PUSH2 0x2069 JUMPI DUP3 CALLDATALOAD DUP3 SSTORE SWAP2 PUSH1 0x20 ADD SWAP2 SWAP1 PUSH1 0x1 ADD SWAP1 PUSH2 0x204E JUMP JUMPDEST JUMPDEST POP SWAP1 POP PUSH2 0x2077 SWAP2 SWAP1 PUSH2 0x2101 JUMP JUMPDEST POP SWAP1 JUMP JUMPDEST DUP3 DUP1 SLOAD PUSH2 0x2087 SWAP1 PUSH2 0x2DFD JUMP JUMPDEST SWAP1 PUSH1 0x0 MSTORE PUSH1 0x20 PUSH1 0x0 KECCAK256 SWAP1 PUSH1 0x1F ADD PUSH1 0x20 SWAP1 DIV DUP2 ADD SWAP3 DUP3 PUSH2 0x20A9 JUMPI PUSH1 0x0 DUP6 SSTORE PUSH2 0x20F0 JUMP JUMPDEST DUP3 PUSH1 0x1F LT PUSH2 0x20C2 JUMPI DUP1 MLOAD PUSH1 0xFF NOT AND DUP4 DUP1 ADD OR DUP6 SSTORE PUSH2 0x20F0 JUMP JUMPDEST DUP3 DUP1 ADD PUSH1 0x1 ADD DUP6 SSTORE DUP3 ISZERO PUSH2 0x20F0 JUMPI SWAP2 DUP3 ADD JUMPDEST DUP3 DUP2 GT ISZERO PUSH2 0x20EF JUMPI DUP3 MLOAD DUP3 SSTORE SWAP2 PUSH1 0x20 ADD SWAP2 SWAP1 PUSH1 0x1 ADD SWAP1 PUSH2 0x20D4 JUMP JUMPDEST JUMPDEST POP SWAP1 POP PUSH2 0x20FD SWAP2 SWAP1 PUSH2 0x2101 JUMP JUMPDEST POP SWAP1 JUMP JUMPDEST JUMPDEST DUP1 DUP3 GT ISZERO PUSH2 0x211A JUMPI PUSH1 0x0 DUP2 PUSH1 0x0 SWAP1 SSTORE POP PUSH1 0x1 ADD PUSH2 0x2102 JUMP JUMPDEST POP SWAP1 JUMP JUMPDEST PUSH1 0x0 PUSH1 0x40 MLOAD SWAP1 POP SWAP1 JUMP JUMPDEST PUSH1 0x0 DUP1 REVERT JUMPDEST PUSH1 0x0 DUP1 REVERT JUMPDEST PUSH1 0x0 PUSH20 0xFFFFFFFFFFFFFFFFFFFFFFFFFFFFFFFFFFFFFFFF DUP3 AND SWAP1 POP SWAP2 SWAP1 POP JUMP JUMPDEST PUSH1 0x0 PUSH2 0x215D DUP3 PUSH2 0x2132 JUMP JUMPDEST SWAP1 POP SWAP2 SWAP1 POP JUMP JUMPDEST PUSH2 0x216D DUP2 PUSH2 0x2152 JUMP JUMPDEST DUP2 EQ PUSH2 0x2178 JUMPI PUSH1 0x0 DUP1 REVERT JUMPDEST POP JUMP JUMPDEST PUSH1 0x0 DUP2 CALLDATALOAD SWAP1 POP PUSH2 0x218A DUP2 PUSH2 0x2164 JUMP JUMPDEST SWAP3 SWAP2 POP POP JUMP JUMPDEST PUSH1 0x0 DUP2 SWAP1 POP SWAP2 SWAP1 POP JUMP JUMPDEST PUSH2 0x21A3 DUP2 PUSH2 0x2190 JUMP JUMPDEST DUP2 EQ PUSH2 0x21AE JUMPI PUSH1 0x0 DUP1 REVERT JUMPDEST POP JUMP JUMPDEST PUSH1 0x0 DUP2 CALLDATALOAD SWAP1 POP PUSH2 0x21C0 DUP2 PUSH2 0x219A JUMP JUMPDEST SWAP3 SWAP2 POP POP JUMP JUMPDEST PUSH1 0x0 DUP1 PUSH1 0x40 DUP4 DUP6 SUB SLT ISZERO PUSH2 0x21DD JUMPI PUSH2 0x21DC PUSH2 0x2128 JUMP JUMPDEST JUMPDEST PUSH1 0x0 PUSH2 0x21EB DUP6 DUP3 DUP7 ADD PUSH2 0x217B JUMP JUMPDEST SWAP3 POP POP PUSH1 0x20 PUSH2 0x21FC DUP6 DUP3 DUP7 ADD PUSH2 0x21B1 JUMP JUMPDEST SWAP2 POP POP SWAP3 POP SWAP3 SWAP1 POP JUMP JUMPDEST PUSH2 0x220F DUP2 PUSH2 0x2190 JUMP JUMPDEST DUP3 MSTORE POP POP JUMP JUMPDEST PUSH1 0x0 PUSH1 0x20 DUP3 ADD SWAP1 POP PUSH2 0x222A PUSH1 0x0 DUP4 ADD DUP5 PUSH2 0x2206 JUMP JUMPDEST SWAP3 SWAP2 POP POP JUMP JUMPDEST PUSH1 0x0 PUSH32 0xFFFFFFFF00000000000000000000000000000000000000000000000000000000 DUP3 AND SWAP1 POP SWAP2 SWAP1 POP JUMP JUMPDEST PUSH2 0x2265 DUP2 PUSH2 0x2230 JUMP JUMPDEST DUP2 EQ PUSH2 0x2270 JUMPI PUSH1 0x0 DUP1 REVERT JUMPDEST POP JUMP JUMPDEST PUSH1 0x0 DUP2 CALLDATALOAD SWAP1 POP PUSH2 0x2282 DUP2 PUSH2 0x225C JUMP JUMPDEST SWAP3 SWAP2 POP POP JUMP JUMPDEST PUSH1 0x0 PUSH1 0x20 DUP3 DUP5 SUB SLT ISZERO PUSH2 0x229E JUMPI PUSH2 0x229D PUSH2 0x2128 JUMP JUMPDEST JUMPDEST PUSH1 0x0 PUSH2 0x22AC DUP5 DUP3 DUP6 ADD PUSH2 0x2273 JUMP JUMPDEST SWAP2 POP POP SWAP3 SWAP2 POP POP JUMP JUMPDEST PUSH1 0x0 DUP2 ISZERO ISZERO SWAP1 POP SWAP2 SWAP1 POP JUMP JUMPDEST PUSH2 0x22CA DUP2 PUSH2 0x22B5 JUMP JUMPDEST DUP3 MSTORE POP POP JUMP JUMPDEST PUSH1 0x0 PUSH1 0x20 DUP3 ADD SWAP1 POP PUSH2 0x22E5 PUSH1 0x0 DUP4 ADD DUP5 PUSH2 0x22C1 JUMP JUMPDEST SWAP3 SWAP2 POP POP JUMP JUMPDEST PUSH1 0x0 PUSH1 0x20 DUP3 DUP5 SUB SLT ISZERO PUSH2 0x2301 JUMPI PUSH2 0x2300 PUSH2 0x2128 JUMP JUMPDEST JUMPDEST PUSH1 0x0 PUSH2 0x230F DUP5 DUP3 DUP6 ADD PUSH2 0x21B1 JUMP JUMPDEST SWAP2 POP POP SWAP3 SWAP2 POP POP JUMP JUMPDEST PUSH1 0x0 DUP2 MLOAD SWAP1 POP SWAP2 SWAP1 POP JUMP JUMPDEST PUSH1 0x0 DUP3 DUP3 MSTORE PUSH1 0x20 DUP3 ADD SWAP1 POP SWAP3 SWAP2 POP POP JUMP JUMPDEST PUSH1 0x0 JUMPDEST DUP4 DUP2 LT ISZERO PUSH2 0x2352 JUMPI DUP1 DUP3 ADD MLOAD DUP2 DUP5 ADD MSTORE PUSH1 0x20 DUP2 ADD SWAP1 POP PUSH2 0x2337 JUMP JUMPDEST DUP4 DUP2 GT ISZERO PUSH2 0x2361 JUMPI PUSH1 0x0 DUP5 DUP5 ADD MSTORE JUMPDEST POP POP POP POP JUMP JUMPDEST PUSH1 0x0 PUSH1 0x1F NOT PUSH1 0x1F DUP4 ADD AND SWAP1 POP SWAP2 SWAP1 POP JUMP JUMPDEST PUSH1 0x0 PUSH2 0x2383 DUP3 PUSH2 0x2318 JUMP JUMPDEST PUSH2 0x238D DUP2 DUP6 PUSH2 0x2323 JUMP JUMPDEST SWAP4 POP PUSH2 0x239D DUP2 DUP6 PUSH1 0x20 DUP7 ADD PUSH2 0x2334 JUMP JUMPDEST PUSH2 0x23A6 DUP2 PUSH2 0x2367 JUMP JUMPDEST DUP5 ADD SWAP2 POP POP SWAP3 SWAP2 POP POP JUMP JUMPDEST PUSH1 0x0 PUSH1 0x20 DUP3 ADD SWAP1 POP DUP2 DUP2 SUB PUSH1 0x0 DUP4 ADD MSTORE PUSH2 0x23CB DUP2 DUP5 PUSH2 0x2378 JUMP JUMPDEST SWAP1 POP SWAP3 SWAP2 POP POP JUMP JUMPDEST PUSH1 0x0 DUP2 MLOAD SWAP1 POP SWAP2 SWAP1 POP JUMP JUMPDEST PUSH1 0x0 DUP3 DUP3 MSTORE PUSH1 0x20 DUP3 ADD SWAP1 POP SWAP3 SWAP2 POP POP JUMP JUMPDEST PUSH1 0x0 PUSH2 0x23FA DUP3 PUSH2 0x23D3 JUMP JUMPDEST PUSH2 0x2404 DUP2 DUP6 PUSH2 0x23DE JUMP JUMPDEST SWAP4 POP PUSH2 0x2414 DUP2 DUP6 PUSH1 0x20 DUP7 ADD PUSH2 0x2334 JUMP JUMPDEST PUSH2 0x241D DUP2 PUSH2 0x2367 JUMP JUMPDEST DUP5 ADD SWAP2 POP POP SWAP3 SWAP2 POP POP JUMP JUMPDEST PUSH1 0x0 PUSH1 0x20 DUP3 ADD SWAP1 POP DUP2 DUP2 SUB PUSH1 0x0 DUP4 ADD MSTORE PUSH2 0x2442 DUP2 DUP5 PUSH2 0x23EF JUMP JUMPDEST SWAP1 POP SWAP3 SWAP2 POP POP JUMP JUMPDEST PUSH1 0x0 DUP1 REVERT JUMPDEST PUSH32 0x4E487B7100000000000000000000000000000000000000000000000000000000 PUSH1 0x0 MSTORE PUSH1 0x41 PUSH1 0x4 MSTORE PUSH1 0x24 PUSH1 0x0 REVERT JUMPDEST PUSH2 0x2487 DUP3 PUSH2 0x2367 JUMP JUMPDEST DUP2 ADD DUP2 DUP2 LT PUSH8 0xFFFFFFFFFFFFFFFF DUP3 GT OR ISZERO PUSH2 0x24A6 JUMPI PUSH2 0x24A5 PUSH2 0x244F JUMP JUMPDEST JUMPDEST DUP1 PUSH1 0x40 MSTORE POP POP POP JUMP JUMPDEST PUSH1 0x0 PUSH2 0x24B9 PUSH2 0x211E JUMP JUMPDEST SWAP1 POP PUSH2 0x24C5 DUP3 DUP3 PUSH2 0x247E JUMP JUMPDEST SWAP2 SWAP1 POP JUMP JUMPDEST PUSH1 0x0 PUSH8 0xFFFFFFFFFFFFFFFF DUP3 GT ISZERO PUSH2 0x24E5 JUMPI PUSH2 0x24E4 PUSH2 0x244F JUMP JUMPDEST JUMPDEST PUSH1 0x20 DUP3 MUL SWAP1 POP PUSH1 0x20 DUP2 ADD SWAP1 POP SWAP2 SWAP1 POP JUMP JUMPDEST PUSH1 0x0 DUP1 REVERT JUMPDEST PUSH1 0x0 PUSH2 0x250E PUSH2 0x2509 DUP5 PUSH2 0x24CA JUMP JUMPDEST PUSH2 0x24AF JUMP JUMPDEST SWAP1 POP DUP1 DUP4 DUP3 MSTORE PUSH1 0x20 DUP3 ADD SWAP1 POP PUSH1 0x20 DUP5 MUL DUP4 ADD DUP6 DUP2 GT ISZERO PUSH2 0x2531 JUMPI PUSH2 0x2530 PUSH2 0x24F6 JUMP JUMPDEST JUMPDEST DUP4 JUMPDEST DUP2 DUP2 LT ISZERO PUSH2 0x255A JUMPI DUP1 PUSH2 0x2546 DUP9 DUP3 PUSH2 0x21B1 JUMP JUMPDEST DUP5 MSTORE PUSH1 0x20 DUP5 ADD SWAP4 POP POP PUSH1 0x20 DUP2 ADD SWAP1 POP PUSH2 0x2533 JUMP JUMPDEST POP POP POP SWAP4 SWAP3 POP POP POP JUMP JUMPDEST PUSH1 0x0 DUP3 PUSH1 0x1F DUP4 ADD SLT PUSH2 0x2579 JUMPI PUSH2 0x2578 PUSH2 0x244A JUMP JUMPDEST JUMPDEST DUP2 CALLDATALOAD PUSH2 0x2589 DUP5 DUP3 PUSH1 0x20 DUP7 ADD PUSH2 0x24FB JUMP JUMPDEST SWAP2 POP POP SWAP3 SWAP2 POP POP JUMP JUMPDEST PUSH1 0x0 DUP1 REVERT JUMPDEST PUSH1 0x0 PUSH8 0xFFFFFFFFFFFFFFFF DUP3 GT ISZERO PUSH2 0x25B2 JUMPI PUSH2 0x25B1 PUSH2 0x244F JUMP JUMPDEST JUMPDEST PUSH2 0x25BB DUP3 PUSH2 0x2367 JUMP JUMPDEST SWAP1 POP PUSH1 0x20 DUP2 ADD SWAP1 POP SWAP2 SWAP1 POP JUMP JUMPDEST DUP3 DUP2 DUP4 CALLDATACOPY PUSH1 0x0 DUP4 DUP4 ADD MSTORE POP POP POP JUMP JUMPDEST PUSH1 0x0 PUSH2 0x25EA PUSH2 0x25E5 DUP5 PUSH2 0x2597 JUMP JUMPDEST PUSH2 0x24AF JUMP JUMPDEST SWAP1 POP DUP3 DUP2 MSTORE PUSH1 0x20 DUP2 ADD DUP5 DUP5 DUP5 ADD GT ISZERO PUSH2 0x2606 JUMPI PUSH2 0x2605 PUSH2 0x2592 JUMP JUMPDEST JUMPDEST PUSH2 0x2611 DUP5 DUP3 DUP6 PUSH2 0x25C8 JUMP JUMPDEST POP SWAP4 SWAP3 POP POP POP JUMP JUMPDEST PUSH1 0x0 DUP3 PUSH1 0x1F DUP4 ADD SLT PUSH2 0x262E JUMPI PUSH2 0x262D PUSH2 0x244A JUMP JUMPDEST JUMPDEST DUP2 CALLDATALOAD PUSH2 0x263E DUP5 DUP3 PUSH1 0x20 DUP7 ADD PUSH2 0x25D7 JUMP JUMPDEST SWAP2 POP POP SWAP3 SWAP2 POP POP JUMP JUMPDEST PUSH1 0x0 DUP1 PUSH1 0x0 DUP1 PUSH1 0x0 PUSH1 0xA0 DUP7 DUP9 SUB SLT ISZERO PUSH2 0x2663 JUMPI PUSH2 0x2662 PUSH2 0x2128 JUMP JUMPDEST JUMPDEST PUSH1 0x0 PUSH2 0x2671 DUP9 DUP3 DUP10 ADD PUSH2 0x217B JUMP JUMPDEST SWAP6 POP POP PUSH1 0x20 PUSH2 0x2682 DUP9 DUP3 DUP10 ADD PUSH2 0x217B JUMP JUMPDEST SWAP5 POP POP PUSH1 0x40 DUP7 ADD CALLDATALOAD PUSH8 0xFFFFFFFFFFFFFFFF DUP2 GT ISZERO PUSH2 0x26A3 JUMPI PUSH2 0x26A2 PUSH2 0x212D JUMP JUMPDEST JUMPDEST PUSH2 0x26AF DUP9 DUP3 DUP10 ADD PUSH2 0x2564 JUMP JUMPDEST SWAP4 POP POP PUSH1 0x60 DUP7 ADD CALLDATALOAD PUSH8 0xFFFFFFFFFFFFFFFF DUP2 GT ISZERO PUSH2 0x26D0 JUMPI PUSH2 0x26CF PUSH2 0x212D JUMP JUMPDEST JUMPDEST PUSH2 0x26DC DUP9 DUP3 DUP10 ADD PUSH2 0x2564 JUMP JUMPDEST SWAP3 POP POP PUSH1 0x80 DUP7 ADD CALLDATALOAD PUSH8 0xFFFFFFFFFFFFFFFF DUP2 GT ISZERO PUSH2 0x26FD JUMPI PUSH2 0x26FC PUSH2 0x212D JUMP JUMPDEST JUMPDEST PUSH2 0x2709 DUP9 DUP3 DUP10 ADD PUSH2 0x2619 JUMP JUMPDEST SWAP2 POP POP SWAP3 SWAP6 POP SWAP3 SWAP6 SWAP1 SWAP4 POP JUMP JUMPDEST PUSH2 0x271F DUP2 PUSH2 0x2152 JUMP JUMPDEST DUP3 MSTORE POP POP JUMP JUMPDEST PUSH1 0x0 PUSH1 0x20 DUP3 ADD SWAP1 POP PUSH2 0x273A PUSH1 0x0 DUP4 ADD DUP5 PUSH2 0x2716 JUMP JUMPDEST SWAP3 SWAP2 POP POP JUMP JUMPDEST PUSH1 0x0 PUSH8 0xFFFFFFFFFFFFFFFF DUP3 GT ISZERO PUSH2 0x275B JUMPI PUSH2 0x275A PUSH2 0x244F JUMP JUMPDEST JUMPDEST PUSH1 0x20 DUP3 MUL SWAP1 POP PUSH1 0x20 DUP2 ADD SWAP1 POP SWAP2 SWAP1 POP JUMP JUMPDEST PUSH1 0x0 PUSH2 0x277F PUSH2 0x277A DUP5 PUSH2 0x2740 JUMP JUMPDEST PUSH2 0x24AF JUMP JUMPDEST SWAP1 POP DUP1 DUP4 DUP3 MSTORE PUSH1 0x20 DUP3 ADD SWAP1 POP PUSH1 0x20 DUP5 MUL DUP4 ADD DUP6 DUP2 GT ISZERO PUSH2 0x27A2 JUMPI PUSH2 0x27A1 PUSH2 0x24F6 JUMP JUMPDEST JUMPDEST DUP4 JUMPDEST DUP2 DUP2 LT ISZERO PUSH2 0x27CB JUMPI DUP1 PUSH2 0x27B7 DUP9 DUP3 PUSH2 0x217B JUMP JUMPDEST DUP5 MSTORE PUSH1 0x20 DUP5 ADD SWAP4 POP POP PUSH1 0x20 DUP2 ADD SWAP1 POP PUSH2 0x27A4 JUMP JUMPDEST POP POP POP SWAP4 SWAP3 POP POP POP JUMP JUMPDEST PUSH1 0x0 DUP3 PUSH1 0x1F DUP4 ADD SLT PUSH2 0x27EA JUMPI PUSH2 0x27E9 PUSH2 0x244A JUMP JUMPDEST JUMPDEST DUP2 CALLDATALOAD PUSH2 0x27FA DUP5 DUP3 PUSH1 0x20 DUP7 ADD PUSH2 0x276C JUMP JUMPDEST SWAP2 POP POP SWAP3 SWAP2 POP POP JUMP JUMPDEST PUSH1 0x0 DUP1 PUSH1 0x40 DUP4 DUP6 SUB SLT ISZERO PUSH2 0x281A JUMPI PUSH2 0x2819 PUSH2 0x2128 JUMP JUMPDEST JUMPDEST PUSH1 0x0 DUP4 ADD CALLDATALOAD PUSH8 0xFFFFFFFFFFFFFFFF DUP2 GT ISZERO PUSH2 0x2838 JUMPI PUSH2 0x2837 PUSH2 0x212D JUMP JUMPDEST JUMPDEST PUSH2 0x2844 DUP6 DUP3 DUP7 ADD PUSH2 0x27D5 JUMP JUMPDEST SWAP3 POP POP PUSH1 0x20 DUP4 ADD CALLDATALOAD PUSH8 0xFFFFFFFFFFFFFFFF DUP2 GT ISZERO PUSH2 0x2865 JUMPI PUSH2 0x2864 PUSH2 0x212D JUMP JUMPDEST JUMPDEST PUSH2 0x2871 DUP6 DUP3 DUP7 ADD PUSH2 0x2564 JUMP JUMPDEST SWAP2 POP POP SWAP3 POP SWAP3 SWAP1 POP JUMP JUMPDEST PUSH1 0x0 DUP2 MLOAD SWAP1 POP SWAP2 SWAP1 POP JUMP JUMPDEST PUSH1 0x0 DUP3 DUP3 MSTORE PUSH1 0x20 DUP3 ADD SWAP1 POP SWAP3 SWAP2 POP POP JUMP JUMPDEST PUSH1 0x0 DUP2 SWAP1 POP PUSH1 0x20 DUP3 ADD SWAP1 POP SWAP2 SWAP1 POP JUMP JUMPDEST PUSH2 0x28B0 DUP2 PUSH2 0x2190 JUMP JUMPDEST DUP3 MSTORE POP POP JUMP JUMPDEST PUSH1 0x0 PUSH2 0x28C2 DUP4 DUP4 PUSH2 0x28A7 JUMP JUMPDEST PUSH1 0x20 DUP4 ADD SWAP1 POP SWAP3 SWAP2 POP POP JUMP JUMPDEST PUSH1 0x0 PUSH1 0x20 DUP3 ADD SWAP1 POP SWAP2 SWAP1 POP JUMP JUMPDEST PUSH1 0x0 PUSH2 0x28E6 DUP3 PUSH2 0x287B JUMP JUMPDEST PUSH2 0x28F0 DUP2 DUP6 PUSH2 0x2886 JUMP JUMPDEST SWAP4 POP PUSH2 0x28FB DUP4 PUSH2 0x2897 JUMP JUMPDEST DUP1 PUSH1 0x0 JUMPDEST DUP4 DUP2 LT ISZERO PUSH2 0x292C JUMPI DUP2 MLOAD PUSH2 0x2913 DUP9 DUP3 PUSH2 0x28B6 JUMP JUMPDEST SWAP8 POP PUSH2 0x291E DUP4 PUSH2 0x28CE JUMP JUMPDEST SWAP3 POP POP PUSH1 0x1 DUP2 ADD SWAP1 POP PUSH2 0x28FF JUMP JUMPDEST POP DUP6 SWAP4 POP POP POP POP SWAP3 SWAP2 POP POP JUMP JUMPDEST PUSH1 0x0 PUSH1 0x20 DUP3 ADD SWAP1 POP DUP2 DUP2 SUB PUSH1 0x0 DUP4 ADD MSTORE PUSH2 0x2953 DUP2 DUP5 PUSH2 0x28DB JUMP JUMPDEST SWAP1 POP SWAP3 SWAP2 POP POP JUMP JUMPDEST PUSH1 0x0 DUP1 REVERT JUMPDEST PUSH1 0x0 DUP1 DUP4 PUSH1 0x1F DUP5 ADD SLT PUSH2 0x2976 JUMPI PUSH2 0x2975 PUSH2 0x244A JUMP JUMPDEST JUMPDEST DUP3 CALLDATALOAD SWAP1 POP PUSH8 0xFFFFFFFFFFFFFFFF DUP2 GT ISZERO PUSH2 0x2993 JUMPI PUSH2 0x2992 PUSH2 0x295B JUMP JUMPDEST JUMPDEST PUSH1 0x20 DUP4 ADD SWAP2 POP DUP4 PUSH1 0x1 DUP3 MUL DUP4 ADD GT ISZERO PUSH2 0x29AF JUMPI PUSH2 0x29AE PUSH2 0x24F6 JUMP JUMPDEST JUMPDEST SWAP3 POP SWAP3 SWAP1 POP JUMP JUMPDEST PUSH1 0x0 DUP1 PUSH1 0x20 DUP4 DUP6 SUB SLT ISZERO PUSH2 0x29CD JUMPI PUSH2 0x29CC PUSH2 0x2128 JUMP JUMPDEST JUMPDEST PUSH1 0x0 DUP4 ADD CALLDATALOAD PUSH8 0xFFFFFFFFFFFFFFFF DUP2 GT ISZERO PUSH2 0x29EB JUMPI PUSH2 0x29EA PUSH2 0x212D JUMP JUMPDEST JUMPDEST PUSH2 0x29F7 DUP6 DUP3 DUP7 ADD PUSH2 0x2960 JUMP JUMPDEST SWAP3 POP SWAP3 POP POP SWAP3 POP SWAP3 SWAP1 POP JUMP JUMPDEST PUSH1 0x0 PUSH1 0x20 DUP3 DUP5 SUB SLT ISZERO PUSH2 0x2A19 JUMPI PUSH2 0x2A18 PUSH2 0x2128 JUMP JUMPDEST JUMPDEST PUSH1 0x0 PUSH2 0x2A27 DUP5 DUP3 DUP6 ADD PUSH2 0x217B JUMP JUMPDEST SWAP2 POP POP SWAP3 SWAP2 POP POP JUMP JUMPDEST PUSH2 0x2A39 DUP2 PUSH2 0x22B5 JUMP JUMPDEST DUP2 EQ PUSH2 0x2A44 JUMPI PUSH1 0x0 DUP1 REVERT JUMPDEST POP JUMP JUMPDEST PUSH1 0x0 DUP2 CALLDATALOAD SWAP1 POP PUSH2 0x2A56 DUP2 PUSH2 0x2A30 JUMP JUMPDEST SWAP3 SWAP2 POP POP JUMP JUMPDEST PUSH1 0x0 DUP1 PUSH1 0x40 DUP4 DUP6 SUB SLT ISZERO PUSH2 0x2A73 JUMPI PUSH2 0x2A72 PUSH2 0x2128 JUMP JUMPDEST JUMPDEST PUSH1 0x0 PUSH2 0x2A81 DUP6 DUP3 DUP7 ADD PUSH2 0x217B JUMP JUMPDEST SWAP3 POP POP PUSH1 0x20 PUSH2 0x2A92 DUP6 DUP3 DUP7 ADD PUSH2 0x2A47 JUMP JUMPDEST SWAP2 POP POP SWAP3 POP SWAP3 SWAP1 POP JUMP JUMPDEST PUSH1 0x0 DUP1 DUP4 PUSH1 0x1F DUP5 ADD SLT PUSH2 0x2AB2 JUMPI PUSH2 0x2AB1 PUSH2 0x244A JUMP JUMPDEST JUMPDEST DUP3 CALLDATALOAD SWAP1 POP PUSH8 0xFFFFFFFFFFFFFFFF DUP2 GT ISZERO PUSH2 0x2ACF JUMPI PUSH2 0x2ACE PUSH2 0x295B JUMP JUMPDEST JUMPDEST PUSH1 0x20 DUP4 ADD SWAP2 POP DUP4 PUSH1 0x1 DUP3 MUL DUP4 ADD GT ISZERO PUSH2 0x2AEB JUMPI PUSH2 0x2AEA PUSH2 0x24F6 JUMP JUMPDEST JUMPDEST SWAP3 POP SWAP3 SWAP1 POP JUMP JUMPDEST PUSH1 0x0 DUP1 PUSH1 0x0 DUP1 PUSH1 0x0 DUP1 PUSH1 0x0 PUSH1 0xA0 DUP9 DUP11 SUB SLT ISZERO PUSH2 0x2B11 JUMPI PUSH2 0x2B10 PUSH2 0x2128 JUMP JUMPDEST JUMPDEST PUSH1 0x0 PUSH2 0x2B1F DUP11 DUP3 DUP12 ADD PUSH2 0x217B JUMP JUMPDEST SWAP8 POP POP PUSH1 0x20 PUSH2 0x2B30 DUP11 DUP3 DUP12 ADD PUSH2 0x21B1 JUMP JUMPDEST SWAP7 POP POP PUSH1 0x40 PUSH2 0x2B41 DUP11 DUP3 DUP12 ADD PUSH2 0x21B1 JUMP JUMPDEST SWAP6 POP POP PUSH1 0x60 DUP9 ADD CALLDATALOAD PUSH8 0xFFFFFFFFFFFFFFFF DUP2 GT ISZERO PUSH2 0x2B62 JUMPI PUSH2 0x2B61 PUSH2 0x212D JUMP JUMPDEST JUMPDEST PUSH2 0x2B6E DUP11 DUP3 DUP12 ADD PUSH2 0x2A9C JUMP JUMPDEST SWAP5 POP SWAP5 POP POP PUSH1 0x80 DUP9 ADD CALLDATALOAD PUSH8 0xFFFFFFFFFFFFFFFF DUP2 GT ISZERO PUSH2 0x2B91 JUMPI PUSH2 0x2B90 PUSH2 0x212D JUMP JUMPDEST JUMPDEST PUSH2 0x2B9D DUP11 DUP3 DUP12 ADD PUSH2 0x2960 JUMP JUMPDEST SWAP3 POP SWAP3 POP POP SWAP3 SWAP6 SWAP9 SWAP2 SWAP5 SWAP8 POP SWAP3 SWAP6 POP JUMP JUMPDEST PUSH1 0x0 DUP1 PUSH1 0x40 DUP4 DUP6 SUB SLT ISZERO PUSH2 0x2BC5 JUMPI PUSH2 0x2BC4 PUSH2 0x2128 JUMP JUMPDEST JUMPDEST PUSH1 0x0 PUSH2 0x2BD3 DUP6 DUP3 DUP7 ADD PUSH2 0x217B JUMP JUMPDEST SWAP3 POP POP PUSH1 0x20 PUSH2 0x2BE4 DUP6 DUP3 DUP7 ADD PUSH2 0x217B JUMP JUMPDEST SWAP2 POP POP SWAP3 POP SWAP3 SWAP1 POP JUMP JUMPDEST PUSH1 0x0 DUP1 PUSH1 0x0 DUP1 PUSH1 0x0 PUSH1 0xA0 DUP7 DUP9 SUB SLT ISZERO PUSH2 0x2C0A JUMPI PUSH2 0x2C09 PUSH2 0x2128 JUMP JUMPDEST JUMPDEST PUSH1 0x0 PUSH2 0x2C18 DUP9 DUP3 DUP10 ADD PUSH2 0x217B JUMP JUMPDEST SWAP6 POP POP PUSH1 0x20 PUSH2 0x2C29 DUP9 DUP3 DUP10 ADD PUSH2 0x217B JUMP JUMPDEST SWAP5 POP POP PUSH1 0x40 PUSH2 0x2C3A DUP9 DUP3 DUP10 ADD PUSH2 0x21B1 JUMP JUMPDEST SWAP4 POP POP PUSH1 0x60 PUSH2 0x2C4B DUP9 DUP3 DUP10 ADD PUSH2 0x21B1 JUMP JUMPDEST SWAP3 POP POP PUSH1 0x80 DUP7 ADD CALLDATALOAD PUSH8 0xFFFFFFFFFFFFFFFF DUP2 GT ISZERO PUSH2 0x2C6C JUMPI PUSH2 0x2C6B PUSH2 0x212D JUMP JUMPDEST JUMPDEST PUSH2 0x2C78 DUP9 DUP3 DUP10 ADD PUSH2 0x2619 JUMP JUMPDEST SWAP2 POP POP SWAP3 SWAP6 POP SWAP3 SWAP6 SWAP1 SWAP4 POP JUMP JUMPDEST PUSH32 0x455243313135353A2062616C616E636520717565727920666F7220746865207A PUSH1 0x0 DUP3 ADD MSTORE PUSH32 0x65726F2061646472657373000000000000000000000000000000000000000000 PUSH1 0x20 DUP3 ADD MSTORE POP JUMP JUMPDEST PUSH1 0x0 PUSH2 0x2CE1 PUSH1 0x2B DUP4 PUSH2 0x2323 JUMP JUMPDEST SWAP2 POP PUSH2 0x2CEC DUP3 PUSH2 0x2C85 JUMP JUMPDEST PUSH1 0x40 DUP3 ADD SWAP1 POP SWAP2 SWAP1 POP JUMP JUMPDEST PUSH1 0x0 PUSH1 0x20 DUP3 ADD SWAP1 POP DUP2 DUP2 SUB PUSH1 0x0 DUP4 ADD MSTORE PUSH2 0x2D10 DUP2 PUSH2 0x2CD4 JUMP JUMPDEST SWAP1 POP SWAP2 SWAP1 POP JUMP JUMPDEST PUSH1 0x0 DUP2 SWAP1 POP SWAP3 SWAP2 POP POP JUMP JUMPDEST PUSH1 0x0 PUSH2 0x2D2D DUP3 PUSH2 0x2318 JUMP JUMPDEST PUSH2 0x2D37 DUP2 DUP6 PUSH2 0x2D17 JUMP JUMPDEST SWAP4 POP PUSH2 0x2D47 DUP2 DUP6 PUSH1 0x20 DUP7 ADD PUSH2 0x2334 JUMP JUMPDEST DUP1 DUP5 ADD SWAP2 POP POP SWAP3 SWAP2 POP POP JUMP JUMPDEST PUSH32 0x2F6D657461646174612E6A736F6E000000000000000000000000000000000000 PUSH1 0x0 DUP3 ADD MSTORE POP JUMP JUMPDEST PUSH1 0x0 PUSH2 0x2D89 PUSH1 0xE DUP4 PUSH2 0x2D17 JUMP JUMPDEST SWAP2 POP PUSH2 0x2D94 DUP3 PUSH2 0x2D53 JUMP JUMPDEST PUSH1 0xE DUP3 ADD SWAP1 POP SWAP2 SWAP1 POP JUMP JUMPDEST PUSH1 0x0 PUSH2 0x2DAB DUP3 DUP6 PUSH2 0x2D22 JUMP JUMPDEST SWAP2 POP PUSH2 0x2DB7 DUP3 DUP5 PUSH2 0x2D22 JUMP JUMPDEST SWAP2 POP PUSH2 0x2DC2 DUP3 PUSH2 0x2D7C JUMP JUMPDEST SWAP2 POP DUP2 SWAP1 POP SWAP4 SWAP3 POP POP POP JUMP JUMPDEST PUSH32 0x4E487B7100000000000000000000000000000000000000000000000000000000 PUSH1 0x0 MSTORE PUSH1 0x22 PUSH1 0x4 MSTORE PUSH1 0x24 PUSH1 0x0 REVERT JUMPDEST PUSH1 0x0 PUSH1 0x2 DUP3 DIV SWAP1 POP PUSH1 0x1 DUP3 AND DUP1 PUSH2 0x2E15 JUMPI PUSH1 0x7F DUP3 AND SWAP2 POP JUMPDEST PUSH1 0x20 DUP3 LT DUP2 SUB PUSH2 0x2E28 JUMPI PUSH2 0x2E27 PUSH2 0x2DCE JUMP JUMPDEST JUMPDEST POP SWAP2 SWAP1 POP JUMP JUMPDEST PUSH32 0x455243313135353A207472616E736665722063616C6C6572206973206E6F7420 PUSH1 0x0 DUP3 ADD MSTORE PUSH32 0x6F776E6572206E6F7220617070726F7665640000000000000000000000000000 PUSH1 0x20 DUP3 ADD MSTORE POP JUMP JUMPDEST PUSH1 0x0 PUSH2 0x2E8A PUSH1 0x32 DUP4 PUSH2 0x2323 JUMP JUMPDEST SWAP2 POP PUSH2 0x2E95 DUP3 PUSH2 0x2E2E JUMP JUMPDEST PUSH1 0x40 DUP3 ADD SWAP1 POP SWAP2 SWAP1 POP JUMP JUMPDEST PUSH1 0x0 PUSH1 0x20 DUP3 ADD SWAP1 POP DUP2 DUP2 SUB PUSH1 0x0 DUP4 ADD MSTORE PUSH2 0x2EB9 DUP2 PUSH2 0x2E7D JUMP JUMPDEST SWAP1 POP SWAP2 SWAP1 POP JUMP JUMPDEST PUSH32 0x455243313135353A206163636F756E747320616E6420696473206C656E677468 PUSH1 0x0 DUP3 ADD MSTORE PUSH32 0x206D69736D617463680000000000000000000000000000000000000000000000 PUSH1 0x20 DUP3 ADD MSTORE POP JUMP JUMPDEST PUSH1 0x0 PUSH2 0x2F1C PUSH1 0x29 DUP4 PUSH2 0x2323 JUMP JUMPDEST SWAP2 POP PUSH2 0x2F27 DUP3 PUSH2 0x2EC0 JUMP JUMPDEST PUSH1 0x40 DUP3 ADD SWAP1 POP SWAP2 SWAP1 POP JUMP JUMPDEST PUSH1 0x0 PUSH1 0x20 DUP3 ADD SWAP1 POP DUP2 DUP2 SUB PUSH1 0x0 DUP4 ADD MSTORE PUSH2 0x2F4B DUP2 PUSH2 0x2F0F JUMP JUMPDEST SWAP1 POP SWAP2 SWAP1 POP JUMP JUMPDEST PUSH32 0x4E487B7100000000000000000000000000000000000000000000000000000000 PUSH1 0x0 MSTORE PUSH1 0x32 PUSH1 0x4 MSTORE PUSH1 0x24 PUSH1 0x0 REVERT JUMPDEST PUSH32 0x4E487B7100000000000000000000000000000000000000000000000000000000 PUSH1 0x0 MSTORE PUSH1 0x11 PUSH1 0x4 MSTORE PUSH1 0x24 PUSH1 0x0 REVERT JUMPDEST PUSH1 0x0 PUSH2 0x2FBB DUP3 PUSH2 0x2190 JUMP JUMPDEST SWAP2 POP PUSH32 0xFFFFFFFFFFFFFFFFFFFFFFFFFFFFFFFFFFFFFFFFFFFFFFFFFFFFFFFFFFFFFFFF DUP3 SUB PUSH2 0x2FED JUMPI PUSH2 0x2FEC PUSH2 0x2F81 JUMP JUMPDEST JUMPDEST PUSH1 0x1 DUP3 ADD SWAP1 POP SWAP2 SWAP1 POP JUMP JUMPDEST PUSH32 0x596F7520617265206E6F742077686974656C69737465642E0000000000000000 PUSH1 0x0 DUP3 ADD MSTORE POP JUMP JUMPDEST PUSH1 0x0 PUSH2 0x302E PUSH1 0x18 DUP4 PUSH2 0x2323 JUMP JUMPDEST SWAP2 POP PUSH2 0x3039 DUP3 PUSH2 0x2FF8 JUMP JUMPDEST PUSH1 0x20 DUP3 ADD SWAP1 POP SWAP2 SWAP1 POP JUMP JUMPDEST PUSH1 0x0 PUSH1 0x20 DUP3 ADD SWAP1 POP DUP2 DUP2 SUB PUSH1 0x0 DUP4 ADD MSTORE PUSH2 0x305D DUP2 PUSH2 0x3021 JUMP JUMPDEST SWAP1 POP SWAP2 SWAP1 POP JUMP JUMPDEST PUSH32 0x50726F7669646564206164647265737320616C72656164792073616665206164 PUSH1 0x0 DUP3 ADD MSTORE PUSH32 0x6472657373000000000000000000000000000000000000000000000000000000 PUSH1 0x20 DUP3 ADD MSTORE POP JUMP JUMPDEST PUSH1 0x0 PUSH2 0x30C0 PUSH1 0x25 DUP4 PUSH2 0x2323 JUMP JUMPDEST SWAP2 POP PUSH2 0x30CB DUP3 PUSH2 0x3064 JUMP JUMPDEST PUSH1 0x40 DUP3 ADD SWAP1 POP SWAP2 SWAP1 POP JUMP JUMPDEST PUSH1 0x0 PUSH1 0x20 DUP3 ADD SWAP1 POP DUP2 DUP2 SUB PUSH1 0x0 DUP4 ADD MSTORE PUSH2 0x30EF DUP2 PUSH2 0x30B3 JUMP JUMPDEST SWAP1 POP SWAP2 SWAP1 POP JUMP JUMPDEST PUSH32 0x455243313135353A2063616C6C6572206973206E6F74206F776E6572206E6F72 PUSH1 0x0 DUP3 ADD MSTORE PUSH32 0x20617070726F7665640000000000000000000000000000000000000000000000 PUSH1 0x20 DUP3 ADD MSTORE POP JUMP JUMPDEST PUSH1 0x0 PUSH2 0x3152 PUSH1 0x29 DUP4 PUSH2 0x2323 JUMP JUMPDEST SWAP2 POP PUSH2 0x315D DUP3 PUSH2 0x30F6 JUMP JUMPDEST PUSH1 0x40 DUP3 ADD SWAP1 POP SWAP2 SWAP1 POP JUMP JUMPDEST PUSH1 0x0 PUSH1 0x20 DUP3 ADD SWAP1 POP DUP2 DUP2 SUB PUSH1 0x0 DUP4 ADD MSTORE PUSH2 0x3181 DUP2 PUSH2 0x3145 JUMP JUMPDEST SWAP1 POP SWAP2 SWAP1 POP JUMP JUMPDEST PUSH1 0x0 DUP2 SWAP1 POP DUP2 PUSH1 0x0 MSTORE PUSH1 0x20 PUSH1 0x0 KECCAK256 SWAP1 POP SWAP2 SWAP1 POP JUMP JUMPDEST PUSH1 0x0 DUP2 SLOAD PUSH2 0x31AA DUP2 PUSH2 0x2DFD JUMP JUMPDEST PUSH2 0x31B4 DUP2 DUP7 PUSH2 0x2D17 JUMP JUMPDEST SWAP5 POP PUSH1 0x1 DUP3 AND PUSH1 0x0 DUP2 EQ PUSH2 0x31CF JUMPI PUSH1 0x1 DUP2 EQ PUSH2 0x31E0 JUMPI PUSH2 0x3213 JUMP JUMPDEST PUSH1 0xFF NOT DUP4 AND DUP7 MSTORE DUP2 DUP7 ADD SWAP4 POP PUSH2 0x3213 JUMP JUMPDEST PUSH2 0x31E9 DUP6 PUSH2 0x3188 JUMP JUMPDEST PUSH1 0x0 JUMPDEST DUP4 DUP2 LT ISZERO PUSH2 0x320B JUMPI DUP2 SLOAD DUP2 DUP10 ADD MSTORE PUSH1 0x1 DUP3 ADD SWAP2 POP PUSH1 0x20 DUP2 ADD SWAP1 POP PUSH2 0x31EC JUMP JUMPDEST DUP4 DUP9 ADD SWAP6 POP POP POP JUMPDEST POP POP POP SWAP3 SWAP2 POP POP JUMP JUMPDEST PUSH1 0x0 PUSH2 0x3228 DUP3 DUP6 PUSH2 0x319D JUMP JUMPDEST SWAP2 POP PUSH2 0x3234 DUP3 DUP5 PUSH2 0x2D22 JUMP JUMPDEST SWAP2 POP DUP2 SWAP1 POP SWAP4 SWAP3 POP POP POP JUMP JUMPDEST PUSH32 0x455243313135353A2069647320616E6420616D6F756E7473206C656E67746820 PUSH1 0x0 DUP3 ADD MSTORE PUSH32 0x6D69736D61746368000000000000000000000000000000000000000000000000 PUSH1 0x20 DUP3 ADD MSTORE POP JUMP JUMPDEST PUSH1 0x0 PUSH2 0x329C PUSH1 0x28 DUP4 PUSH2 0x2323 JUMP JUMPDEST SWAP2 POP PUSH2 0x32A7 DUP3 PUSH2 0x3240 JUMP JUMPDEST PUSH1 0x40 DUP3 ADD SWAP1 POP SWAP2 SWAP1 POP JUMP JUMPDEST PUSH1 0x0 PUSH1 0x20 DUP3 ADD SWAP1 POP DUP2 DUP2 SUB PUSH1 0x0 DUP4 ADD MSTORE PUSH2 0x32CB DUP2 PUSH2 0x328F JUMP JUMPDEST SWAP1 POP SWAP2 SWAP1 POP JUMP JUMPDEST PUSH32 0x455243313135353A207472616E7366657220746F20746865207A65726F206164 PUSH1 0x0 DUP3 ADD MSTORE PUSH32 0x6472657373000000000000000000000000000000000000000000000000000000 PUSH1 0x20 DUP3 ADD MSTORE POP JUMP JUMPDEST PUSH1 0x0 PUSH2 0x332E PUSH1 0x25 DUP4 PUSH2 0x2323 JUMP JUMPDEST SWAP2 POP PUSH2 0x3339 DUP3 PUSH2 0x32D2 JUMP JUMPDEST PUSH1 0x40 DUP3 ADD SWAP1 POP SWAP2 SWAP1 POP JUMP JUMPDEST PUSH1 0x0 PUSH1 0x20 DUP3 ADD SWAP1 POP DUP2 DUP2 SUB PUSH1 0x0 DUP4 ADD MSTORE PUSH2 0x335D DUP2 PUSH2 0x3321 JUMP JUMPDEST SWAP1 POP SWAP2 SWAP1 POP JUMP JUMPDEST PUSH32 0x455243313135353A20696E73756666696369656E742062616C616E636520666F PUSH1 0x0 DUP3 ADD MSTORE PUSH32 0x72207472616E7366657200000000000000000000000000000000000000000000 PUSH1 0x20 DUP3 ADD MSTORE POP JUMP JUMPDEST PUSH1 0x0 PUSH2 0x33C0 PUSH1 0x2A DUP4 PUSH2 0x2323 JUMP JUMPDEST SWAP2 POP PUSH2 0x33CB DUP3 PUSH2 0x3364 JUMP JUMPDEST PUSH1 0x40 DUP3 ADD SWAP1 POP SWAP2 SWAP1 POP JUMP JUMPDEST PUSH1 0x0 PUSH1 0x20 DUP3 ADD SWAP1 POP DUP2 DUP2 SUB PUSH1 0x0 DUP4 ADD MSTORE PUSH2 0x33EF DUP2 PUSH2 0x33B3 JUMP JUMPDEST SWAP1 POP SWAP2 SWAP1 POP JUMP JUMPDEST PUSH1 0x0 PUSH2 0x3401 DUP3 PUSH2 0x2190 JUMP JUMPDEST SWAP2 POP PUSH2 0x340C DUP4 PUSH2 0x2190 JUMP JUMPDEST SWAP3 POP DUP3 PUSH32 0xFFFFFFFFFFFFFFFFFFFFFFFFFFFFFFFFFFFFFFFFFFFFFFFFFFFFFFFFFFFFFFFF SUB DUP3 GT ISZERO PUSH2 0x3441 JUMPI PUSH2 0x3440 PUSH2 0x2F81 JUMP JUMPDEST JUMPDEST DUP3 DUP3 ADD SWAP1 POP SWAP3 SWAP2 POP POP JUMP JUMPDEST PUSH1 0x0 PUSH1 0x40 DUP3 ADD SWAP1 POP DUP2 DUP2 SUB PUSH1 0x0 DUP4 ADD MSTORE PUSH2 0x3466 DUP2 DUP6 PUSH2 0x28DB JUMP JUMPDEST SWAP1 POP DUP2 DUP2 SUB PUSH1 0x20 DUP4 ADD MSTORE PUSH2 0x347A DUP2 DUP5 PUSH2 0x28DB JUMP JUMPDEST SWAP1 POP SWAP4 SWAP3 POP POP POP JUMP JUMPDEST PUSH32 0x455243313135353A2073657474696E6720617070726F76616C20737461747573 PUSH1 0x0 DUP3 ADD MSTORE PUSH32 0x20666F722073656C660000000000000000000000000000000000000000000000 PUSH1 0x20 DUP3 ADD MSTORE POP JUMP JUMPDEST PUSH1 0x0 PUSH2 0x34DF PUSH1 0x29 DUP4 PUSH2 0x2323 JUMP JUMPDEST SWAP2 POP PUSH2 0x34EA DUP3 PUSH2 0x3483 JUMP JUMPDEST PUSH1 0x40 DUP3 ADD SWAP1 POP SWAP2 SWAP1 POP JUMP JUMPDEST PUSH1 0x0 PUSH1 0x20 DUP3 ADD SWAP1 POP DUP2 DUP2 SUB PUSH1 0x0 DUP4 ADD MSTORE PUSH2 0x350E DUP2 PUSH2 0x34D2 JUMP JUMPDEST SWAP1 POP SWAP2 SWAP1 POP JUMP JUMPDEST PUSH32 0x455243313135353A206D696E7420746F20746865207A65726F20616464726573 PUSH1 0x0 DUP3 ADD MSTORE PUSH32 0x7300000000000000000000000000000000000000000000000000000000000000 PUSH1 0x20 DUP3 ADD MSTORE POP JUMP JUMPDEST PUSH1 0x0 PUSH2 0x3571 PUSH1 0x21 DUP4 PUSH2 0x2323 JUMP JUMPDEST SWAP2 POP PUSH2 0x357C DUP3 PUSH2 0x3515 JUMP JUMPDEST PUSH1 0x40 DUP3 ADD SWAP1 POP SWAP2 SWAP1 POP JUMP JUMPDEST PUSH1 0x0 PUSH1 0x20 DUP3 ADD SWAP1 POP DUP2 DUP2 SUB PUSH1 0x0 DUP4 ADD MSTORE PUSH2 0x35A0 DUP2 PUSH2 0x3564 JUMP JUMPDEST SWAP1 POP SWAP2 SWAP1 POP JUMP JUMPDEST PUSH1 0x0 PUSH1 0x40 DUP3 ADD SWAP1 POP PUSH2 0x35BC PUSH1 0x0 DUP4 ADD DUP6 PUSH2 0x2206 JUMP JUMPDEST PUSH2 0x35C9 PUSH1 0x20 DUP4 ADD DUP5 PUSH2 0x2206 JUMP JUMPDEST SWAP4 SWAP3 POP POP POP JUMP JUMPDEST PUSH1 0x0 PUSH1 0xA0 DUP3 ADD SWAP1 POP PUSH2 0x35E5 PUSH1 0x0 DUP4 ADD DUP9 PUSH2 0x2716 JUMP JUMPDEST PUSH2 0x35F2 PUSH1 0x20 DUP4 ADD DUP8 PUSH2 0x2716 JUMP JUMPDEST DUP2 DUP2 SUB PUSH1 0x40 DUP4 ADD MSTORE PUSH2 0x3604 DUP2 DUP7 PUSH2 0x28DB JUMP JUMPDEST SWAP1 POP DUP2 DUP2 SUB PUSH1 0x60 DUP4 ADD MSTORE PUSH2 0x3618 DUP2 DUP6 PUSH2 0x28DB JUMP JUMPDEST SWAP1 POP DUP2 DUP2 SUB PUSH1 0x80 DUP4 ADD MSTORE PUSH2 0x362C DUP2 DUP5 PUSH2 0x23EF JUMP JUMPDEST SWAP1 POP SWAP7 SWAP6 POP POP POP POP POP POP JUMP JUMPDEST PUSH1 0x0 DUP2 MLOAD SWAP1 POP PUSH2 0x3647 DUP2 PUSH2 0x225C JUMP JUMPDEST SWAP3 SWAP2 POP POP JUMP JUMPDEST PUSH1 0x0 PUSH1 0x20 DUP3 DUP5 SUB SLT ISZERO PUSH2 0x3663 JUMPI PUSH2 0x3662 PUSH2 0x2128 JUMP JUMPDEST JUMPDEST PUSH1 0x0 PUSH2 0x3671 DUP5 DUP3 DUP6 ADD PUSH2 0x3638 JUMP JUMPDEST SWAP2 POP POP SWAP3 SWAP2 POP POP JUMP JUMPDEST PUSH1 0x0 DUP2 PUSH1 0xE0 SHR SWAP1 POP SWAP2 SWAP1 POP JUMP JUMPDEST PUSH1 0x0 PUSH1 0x3 RETURNDATASIZE GT ISZERO PUSH2 0x36A6 JUMPI PUSH1 0x4 PUSH1 0x0 DUP1 RETURNDATACOPY PUSH2 0x36A3 PUSH1 0x0 MLOAD PUSH2 0x367A JUMP JUMPDEST SWAP1 POP JUMPDEST SWAP1 JUMP JUMPDEST PUSH1 0x0 PUSH1 0x44 RETURNDATASIZE LT PUSH2 0x3736 JUMPI PUSH2 0x36BB PUSH2 0x211E JUMP JUMPDEST PUSH1 0x4 RETURNDATASIZE SUB PUSH1 0x4 DUP3 RETURNDATACOPY DUP1 MLOAD RETURNDATASIZE PUSH1 0x24 DUP3 ADD GT PUSH8 0xFFFFFFFFFFFFFFFF DUP3 GT OR ISZERO PUSH2 0x36E3 JUMPI POP POP PUSH2 0x3736 JUMP JUMPDEST DUP1 DUP3 ADD DUP1 MLOAD PUSH8 0xFFFFFFFFFFFFFFFF DUP2 GT ISZERO PUSH2 0x3701 JUMPI POP POP POP POP PUSH2 0x3736 JUMP JUMPDEST DUP1 PUSH1 0x20 DUP4 ADD ADD PUSH1 0x4 RETURNDATASIZE SUB DUP6 ADD DUP2 GT ISZERO PUSH2 0x371E JUMPI POP POP POP POP POP PUSH2 0x3736 JUMP JUMPDEST PUSH2 0x372D DUP3 PUSH1 0x20 ADD DUP6 ADD DUP7 PUSH2 0x247E JUMP JUMPDEST DUP3 SWAP6 POP POP POP POP POP POP JUMPDEST SWAP1 JUMP JUMPDEST PUSH32 0x455243313135353A207472616E7366657220746F206E6F6E2045524331313535 PUSH1 0x0 DUP3 ADD MSTORE PUSH32 0x526563656976657220696D706C656D656E746572000000000000000000000000 PUSH1 0x20 DUP3 ADD MSTORE POP JUMP JUMPDEST PUSH1 0x0 PUSH2 0x3795 PUSH1 0x34 DUP4 PUSH2 0x2323 JUMP JUMPDEST SWAP2 POP PUSH2 0x37A0 DUP3 PUSH2 0x3739 JUMP JUMPDEST PUSH1 0x40 DUP3 ADD SWAP1 POP SWAP2 SWAP1 POP JUMP JUMPDEST PUSH1 0x0 PUSH1 0x20 DUP3 ADD SWAP1 POP DUP2 DUP2 SUB PUSH1 0x0 DUP4 ADD MSTORE PUSH2 0x37C4 DUP2 PUSH2 0x3788 JUMP JUMPDEST SWAP1 POP SWAP2 SWAP1 POP JUMP JUMPDEST PUSH32 0x455243313135353A204552433131353552656365697665722072656A65637465 PUSH1 0x0 DUP3 ADD MSTORE PUSH32 0x6420746F6B656E73000000000000000000000000000000000000000000000000 PUSH1 0x20 DUP3 ADD MSTORE POP JUMP JUMPDEST PUSH1 0x0 PUSH2 0x3827 PUSH1 0x28 DUP4 PUSH2 0x2323 JUMP JUMPDEST SWAP2 POP PUSH2 0x3832 DUP3 PUSH2 0x37CB JUMP JUMPDEST PUSH1 0x40 DUP3 ADD SWAP1 POP SWAP2 SWAP1 POP JUMP JUMPDEST PUSH1 0x0 PUSH1 0x20 DUP3 ADD SWAP1 POP DUP2 DUP2 SUB PUSH1 0x0 DUP4 ADD MSTORE PUSH2 0x3856 DUP2 PUSH2 0x381A JUMP JUMPDEST SWAP1 POP SWAP2 SWAP1 POP JUMP JUMPDEST PUSH1 0x0 PUSH1 0xA0 DUP3 ADD SWAP1 POP PUSH2 0x3872 PUSH1 0x0 DUP4 ADD DUP9 PUSH2 0x2716 JUMP JUMPDEST PUSH2 0x387F PUSH1 0x20 DUP4 ADD DUP8 PUSH2 0x2716 JUMP JUMPDEST PUSH2 0x388C PUSH1 0x40 DUP4 ADD DUP7 PUSH2 0x2206 JUMP JUMPDEST PUSH2 0x3899 PUSH1 0x60 DUP4 ADD DUP6 PUSH2 0x2206 JUMP JUMPDEST DUP2 DUP2 SUB PUSH1 0x80 DUP4 ADD MSTORE PUSH2 0x38AB DUP2 DUP5 PUSH2 0x23EF JUMP JUMPDEST SWAP1 POP SWAP7 SWAP6 POP POP POP POP POP POP JUMP INVALID LOG2 PUSH5 0x6970667358 0x22 SLT KECCAK256 0xDC 0xA6 DUP3 PC PUSH7 0xBEDA2B7955B3FF 0xCB 0xCF RETURNDATACOPY 0xD 0xBC 0xEF 0xB0 SAR SWAP15 MULMOD 0xB2 0x4D GASLIMIT 0x2E 0xC SAR SHL 0xF8 0xD1 GT PUSH5 0x736F6C6343 STOP ADDMOD 0xE STOP CALLER "
		},
		"gasEstimates": {
			"creation": {
				"codeDepositCost": "2914600",
				"executionCost": "infinite",
				"totalCost": "infinite"
			},
			"external": {
				"adminSafe()": "2559",
				"balanceOf(address,uint256)": "infinite",
				"balanceOfBatch(address[],uint256[])": "infinite",
				"baseURI()": "infinite",
				"changeAdminSafe(address)": "30268",
				"exists(uint256)": "2924",
				"isApprovedForAll(address,address)": "infinite",
				"mint(address,uint256,uint256,bytes,string)": "infinite",
				"nftSignatures(uint256)": "infinite",
				"safeBatchTransferFrom(address,address,uint256[],uint256[],bytes)": "infinite",
				"safeTransferFrom(address,address,uint256,uint256,bytes)": "infinite",
				"setApprovalForAll(address,bool)": "infinite",
				"setBaseURI(string)": "infinite",
				"setTraderPermission(address,bool)": "28419",
				"supportsInterface(bytes4)": "819",
				"tokenURIs(uint256)": "infinite",
				"totalSupply(uint256)": "infinite",
				"traders(address)": "2912",
				"uri(uint256)": "infinite"
			},
			"internal": {
				"_beforeTokenTransfer(address,address,address,uint256[] memory,uint256[] memory,bytes memory)": "21"
			}
		},
		"methodIdentifiers": {
			"adminSafe()": "4b8c9c2d",
			"balanceOf(address,uint256)": "00fdd58e",
			"balanceOfBatch(address[],uint256[])": "4e1273f4",
			"baseURI()": "6c0360eb",
			"changeAdminSafe(address)": "cb450772",
			"exists(uint256)": "4f558e79",
			"isApprovedForAll(address,address)": "e985e9c5",
			"mint(address,uint256,uint256,bytes,string)": "c1341c4f",
			"nftSignatures(uint256)": "23f5867f",
			"safeBatchTransferFrom(address,address,uint256[],uint256[],bytes)": "2eb2c2d6",
			"safeTransferFrom(address,address,uint256,uint256,bytes)": "f242432a",
			"setApprovalForAll(address,bool)": "a22cb465",
			"setBaseURI(string)": "55f804b3",
			"setTraderPermission(address,bool)": "d14186c6",
			"supportsInterface(bytes4)": "01ffc9a7",
			"tokenURIs(uint256)": "6c8b703f",
			"totalSupply(uint256)": "bd85b039",
			"traders(address)": "92a88fa2",
			"uri(uint256)": "0e89341c"
		}
	},
	"abi": [
		{
			"inputs": [
				{
					"internalType": "string",
					"name": "uri_",
					"type": "string"
				},
				{
					"internalType": "address",
					"name": "safe",
					"type": "address"
				}
			],
			"stateMutability": "nonpayable",
			"type": "constructor"
		},
		{
			"anonymous": false,
			"inputs": [
				{
					"indexed": true,
					"internalType": "address",
					"name": "safeAddress",
					"type": "address"
				}
			],
			"name": "AdminSafeChanged",
			"type": "event"
		},
		{
			"anonymous": false,
			"inputs": [
				{
					"indexed": true,
					"internalType": "address",
					"name": "account",
					"type": "address"
				},
				{
					"indexed": true,
					"internalType": "address",
					"name": "operator",
					"type": "address"
				},
				{
					"indexed": false,
					"internalType": "bool",
					"name": "approved",
					"type": "bool"
				}
			],
			"name": "ApprovalForAll",
			"type": "event"
		},
		{
			"anonymous": false,
			"inputs": [
				{
					"indexed": true,
					"internalType": "address",
					"name": "traderAddress",
					"type": "address"
				}
			],
			"name": "TraderAuthorized",
			"type": "event"
		},
		{
			"anonymous": false,
			"inputs": [
				{
					"indexed": true,
					"internalType": "address",
					"name": "traderAddress",
					"type": "address"
				}
			],
			"name": "TraderDisauthorized",
			"type": "event"
		},
		{
			"anonymous": false,
			"inputs": [
				{
					"indexed": true,
					"internalType": "address",
					"name": "operator",
					"type": "address"
				},
				{
					"indexed": true,
					"internalType": "address",
					"name": "from",
					"type": "address"
				},
				{
					"indexed": true,
					"internalType": "address",
					"name": "to",
					"type": "address"
				},
				{
					"indexed": false,
					"internalType": "uint256[]",
					"name": "ids",
					"type": "uint256[]"
				},
				{
					"indexed": false,
					"internalType": "uint256[]",
					"name": "values",
					"type": "uint256[]"
				}
			],
			"name": "TransferBatch",
			"type": "event"
		},
		{
			"anonymous": false,
			"inputs": [
				{
					"indexed": true,
					"internalType": "address",
					"name": "operator",
					"type": "address"
				},
				{
					"indexed": true,
					"internalType": "address",
					"name": "from",
					"type": "address"
				},
				{
					"indexed": true,
					"internalType": "address",
					"name": "to",
					"type": "address"
				},
				{
					"indexed": false,
					"internalType": "uint256",
					"name": "id",
					"type": "uint256"
				},
				{
					"indexed": false,
					"internalType": "uint256",
					"name": "value",
					"type": "uint256"
				}
			],
			"name": "TransferSingle",
			"type": "event"
		},
		{
			"anonymous": false,
			"inputs": [
				{
					"indexed": false,
					"internalType": "string",
					"name": "value",
					"type": "string"
				},
				{
					"indexed": true,
					"internalType": "uint256",
					"name": "id",
					"type": "uint256"
				}
			],
			"name": "URI",
			"type": "event"
		},
		{
			"inputs": [],
			"name": "adminSafe",
			"outputs": [
				{
					"internalType": "address",
					"name": "",
					"type": "address"
				}
			],
			"stateMutability": "view",
			"type": "function"
		},
		{
			"inputs": [
				{
					"internalType": "address",
					"name": "account",
					"type": "address"
				},
				{
					"internalType": "uint256",
					"name": "id",
					"type": "uint256"
				}
			],
			"name": "balanceOf",
			"outputs": [
				{
					"internalType": "uint256",
					"name": "",
					"type": "uint256"
				}
			],
			"stateMutability": "view",
			"type": "function"
		},
		{
			"inputs": [
				{
					"internalType": "address[]",
					"name": "accounts",
					"type": "address[]"
				},
				{
					"internalType": "uint256[]",
					"name": "ids",
					"type": "uint256[]"
				}
			],
			"name": "balanceOfBatch",
			"outputs": [
				{
					"internalType": "uint256[]",
					"name": "",
					"type": "uint256[]"
				}
			],
			"stateMutability": "view",
			"type": "function"
		},
		{
			"inputs": [],
			"name": "baseURI",
			"outputs": [
				{
					"internalType": "string",
					"name": "",
					"type": "string"
				}
			],
			"stateMutability": "view",
			"type": "function"
		},
		{
			"inputs": [
				{
					"internalType": "address",
					"name": "safe",
					"type": "address"
				}
			],
			"name": "changeAdminSafe",
			"outputs": [],
			"stateMutability": "nonpayable",
			"type": "function"
		},
		{
			"inputs": [
				{
					"internalType": "uint256",
					"name": "id",
					"type": "uint256"
				}
			],
			"name": "exists",
			"outputs": [
				{
					"internalType": "bool",
					"name": "",
					"type": "bool"
				}
			],
			"stateMutability": "view",
			"type": "function"
		},
		{
			"inputs": [
				{
					"internalType": "address",
					"name": "account",
					"type": "address"
				},
				{
					"internalType": "address",
					"name": "operator",
					"type": "address"
				}
			],
			"name": "isApprovedForAll",
			"outputs": [
				{
					"internalType": "bool",
					"name": "",
					"type": "bool"
				}
			],
			"stateMutability": "view",
			"type": "function"
		},
		{
			"inputs": [
				{
					"internalType": "address",
					"name": "to",
					"type": "address"
				},
				{
					"internalType": "uint256",
					"name": "id",
					"type": "uint256"
				},
				{
					"internalType": "uint256",
					"name": "amount",
					"type": "uint256"
				},
				{
					"internalType": "bytes",
					"name": "signature",
					"type": "bytes"
				},
				{
					"internalType": "string",
					"name": "cid",
					"type": "string"
				}
			],
			"name": "mint",
			"outputs": [],
			"stateMutability": "nonpayable",
			"type": "function"
		},
		{
			"inputs": [
				{
					"internalType": "uint256",
					"name": "",
					"type": "uint256"
				}
			],
			"name": "nftSignatures",
			"outputs": [
				{
					"internalType": "bytes",
					"name": "",
					"type": "bytes"
				}
			],
			"stateMutability": "view",
			"type": "function"
		},
		{
			"inputs": [
				{
					"internalType": "address",
					"name": "from",
					"type": "address"
				},
				{
					"internalType": "address",
					"name": "to",
					"type": "address"
				},
				{
					"internalType": "uint256[]",
					"name": "ids",
					"type": "uint256[]"
				},
				{
					"internalType": "uint256[]",
					"name": "amounts",
					"type": "uint256[]"
				},
				{
					"internalType": "bytes",
					"name": "data",
					"type": "bytes"
				}
			],
			"name": "safeBatchTransferFrom",
			"outputs": [],
			"stateMutability": "nonpayable",
			"type": "function"
		},
		{
			"inputs": [
				{
					"internalType": "address",
					"name": "from",
					"type": "address"
				},
				{
					"internalType": "address",
					"name": "to",
					"type": "address"
				},
				{
					"internalType": "uint256",
					"name": "id",
					"type": "uint256"
				},
				{
					"internalType": "uint256",
					"name": "amount",
					"type": "uint256"
				},
				{
					"internalType": "bytes",
					"name": "data",
					"type": "bytes"
				}
			],
			"name": "safeTransferFrom",
			"outputs": [],
			"stateMutability": "nonpayable",
			"type": "function"
		},
		{
			"inputs": [
				{
					"internalType": "address",
					"name": "operator",
					"type": "address"
				},
				{
					"internalType": "bool",
					"name": "approved",
					"type": "bool"
				}
			],
			"name": "setApprovalForAll",
			"outputs": [],
			"stateMutability": "nonpayable",
			"type": "function"
		},
		{
			"inputs": [
				{
					"internalType": "string",
					"name": "baseURI",
					"type": "string"
				}
			],
			"name": "setBaseURI",
			"outputs": [],
			"stateMutability": "nonpayable",
			"type": "function"
		},
		{
			"inputs": [
				{
					"internalType": "address",
					"name": "trader",
					"type": "address"
				},
				{
					"internalType": "bool",
					"name": "permitted",
					"type": "bool"
				}
			],
			"name": "setTraderPermission",
			"outputs": [],
			"stateMutability": "nonpayable",
			"type": "function"
		},
		{
			"inputs": [
				{
					"internalType": "bytes4",
					"name": "interfaceId",
					"type": "bytes4"
				}
			],
			"name": "supportsInterface",
			"outputs": [
				{
					"internalType": "bool",
					"name": "",
					"type": "bool"
				}
			],
			"stateMutability": "view",
			"type": "function"
		},
		{
			"inputs": [
				{
					"internalType": "uint256",
					"name": "id",
					"type": "uint256"
				}
			],
			"name": "tokenURIs",
			"outputs": [
				{
					"internalType": "string",
					"name": "",
					"type": "string"
				}
			],
			"stateMutability": "view",
			"type": "function"
		},
		{
			"inputs": [
				{
					"internalType": "uint256",
					"name": "id",
					"type": "uint256"
				}
			],
			"name": "totalSupply",
			"outputs": [
				{
					"internalType": "uint256",
					"name": "",
					"type": "uint256"
				}
			],
			"stateMutability": "view",
			"type": "function"
		},
		{
			"inputs": [
				{
					"internalType": "address",
					"name": "",
					"type": "address"
				}
			],
			"name": "traders",
			"outputs": [
				{
					"internalType": "bool",
					"name": "",
					"type": "bool"
				}
			],
			"stateMutability": "view",
			"type": "function"
		},
		{
			"inputs": [
				{
					"internalType": "uint256",
					"name": "tokenId",
					"type": "uint256"
				}
			],
			"name": "uri",
			"outputs": [
				{
					"internalType": "string",
					"name": "",
					"type": "string"
				}
			],
			"stateMutability": "view",
			"type": "function"
		}
	]
}