{
	"data": {
		"bytecode": {
			"linkReferences": {
				"contracts/GU-NFT/TradeLib.sol": {
					"TradeLib": [
						{
							"length": 20,
							"start": 799
						},
						{
							"length": 20,
							"start": 1361
						}
					]
				}
			},
			"object": "608060405234801561001057600080fd5b50604051610dcc380380610dcc83398101604081905261002f9161011c565b600180546001600160a01b0319166001600160a01b0383161790556100538261005a565b505061014f565b6001546001600160a01b031633146100b85760405162461bcd60e51b815260206004820152601860248201527f596f7520617265206e6f742077686974656c69737465642e0000000000000000604482015260640160405180910390fd5b600080546001600160a01b0319166001600160a01b038316908117825560405190917f66c87b90db4ca36d99ddf5261ee0240a5befb09fc7ee6fae65de47632a01ae4e91a250565b80516001600160a01b038116811461011757600080fd5b919050565b6000806040838503121561012f57600080fd5b61013883610100565b915061014660208401610100565b90509250929050565b610c6e8061015e6000396000f3fe608060405234801561001057600080fd5b50600436106100415760003560e01c806341431908146100465780638a43bf2f1461005b5780638c1aa9d21461006e575b600080fd5b610059610054366004610784565b610081565b005b6100596100693660046107a6565b610173565b61005961007c3660046107e1565b61039b565b60015473ffffffffffffffffffffffffffffffffffffffff163314610106576040517f08c379a000000000000000000000000000000000000000000000000000000000815260206004820152601860248201527f596f7520617265206e6f742077686974656c69737465642e0000000000000000604482015260640160405180910390fd5b600080547fffffffffffffffffffffffff00000000000000000000000000000000000000001673ffffffffffffffffffffffffffffffffffffffff8316908117825560405190917f66c87b90db4ca36d99ddf5261ee0240a5befb09fc7ee6fae65de47632a01ae4e91a250565b60006101826020830183610856565b6101939060c081019060a001610784565b6000546040517fed21010d00000000000000000000000000000000000000000000000000000000815291925073__$85c9577c5f7ebbc239771de72f831810a9$__9163ed21010d9161020291859173ffffffffffffffffffffffffffffffffffffffff16908790600401610948565b60006040518083038186803b15801561021a57600080fd5b505af415801561022e573d6000803e3d6000fd5b50505073ffffffffffffffffffffffffffffffffffffffff8216905063c1341c4f61025f60a0850160808601610784565b61026c6020860186610856565b6020013560608601356102826040880188610ab4565b61028f60208a018a610856565b61029d906040810190610ab4565b6040518863ffffffff1660e01b81526004016102bf9796959493929190610b19565b600060405180830381600087803b1580156102d957600080fd5b505af11580156102ed573d6000803e3d6000fd5b506102ff925050506020830183610856565b61030d906020810190610784565b73ffffffffffffffffffffffffffffffffffffffff166103306020840184610856565b602001357f2ac2461480e645801edd3630742462931884f016745a808f66f51bc134f88c21606085013561036a60a0870160808801610784565b6040805192835273ffffffffffffffffffffffffffffffffffffffff90911660208301520160405180910390a35050565b60005b818110156107565760008383838181106103ba576103ba610b76565b90506020028101906103cc9190610ba5565b6103da906020810190610856565b6103eb9060c081019060a001610784565b60005490915073__$85c9577c5f7ebbc239771de72f831810a9$__9063ed21010d90839073ffffffffffffffffffffffffffffffffffffffff1687878781811061043757610437610b76565b90506020028101906104499190610ba5565b6040518463ffffffff1660e01b815260040161046793929190610948565b60006040518083038186803b15801561047f57600080fd5b505af4158015610493573d6000803e3d6000fd5b505050508073ffffffffffffffffffffffffffffffffffffffff1663c1341c4f8585858181106104c5576104c5610b76565b90506020028101906104d79190610ba5565b6104e89060a0810190608001610784565b8686868181106104fa576104fa610b76565b905060200281019061050c9190610ba5565b61051a906020810190610856565b6020013587878781811061053057610530610b76565b90506020028101906105429190610ba5565b6060013588888881811061055857610558610b76565b905060200281019061056a9190610ba5565b610578906040810190610ab4565b8a8a8a81811061058a5761058a610b76565b905060200281019061059c9190610ba5565b6105aa906020810190610856565b6105b8906040810190610ab4565b6040518863ffffffff1660e01b81526004016105da9796959493929190610b19565b600060405180830381600087803b1580156105f457600080fd5b505af1158015610608573d6000803e3d6000fd5b5050505083838381811061061e5761061e610b76565b90506020028101906106309190610ba5565b61063e906020810190610856565b61064c906020810190610784565b73ffffffffffffffffffffffffffffffffffffffff1684848481811061067457610674610b76565b90506020028101906106869190610ba5565b610694906020810190610856565b602001357f2ac2461480e645801edd3630742462931884f016745a808f66f51bc134f88c218686868181106106cb576106cb610b76565b90506020028101906106dd9190610ba5565b606001358787878181106106f3576106f3610b76565b90506020028101906107059190610ba5565b6107169060a0810190608001610784565b6040805192835273ffffffffffffffffffffffffffffffffffffffff90911660208301520160405180910390a3508061074e81610bd9565b91505061039e565b505050565b803573ffffffffffffffffffffffffffffffffffffffff8116811461077f57600080fd5b919050565b60006020828403121561079657600080fd5b61079f8261075b565b9392505050565b6000602082840312156107b857600080fd5b813567ffffffffffffffff8111156107cf57600080fd5b820160a0818503121561079f57600080fd5b600080602083850312156107f457600080fd5b823567ffffffffffffffff8082111561080c57600080fd5b818501915085601f83011261082057600080fd5b81358181111561082f57600080fd5b8660208260051b850101111561084457600080fd5b60209290920196919550909350505050565b600082357fffffffffffffffffffffffffffffffffffffffffffffffffffffffffffffff4183360301811261088a57600080fd5b9190910192915050565b60008083357fffffffffffffffffffffffffffffffffffffffffffffffffffffffffffffffe18436030181126108c957600080fd5b830160208101925035905067ffffffffffffffff8111156108e957600080fd5b8036038213156108f857600080fd5b9250929050565b8183528181602085013750600060208284010152600060207fffffffffffffffffffffffffffffffffffffffffffffffffffffffffffffffe0601f840116840101905092915050565b600073ffffffffffffffffffffffffffffffffffffffff80861683528085166020840152606060408401528061097d8561075b565b16606084015260208401357fffffffffffffffffffffffffffffffffffffffffffffffffffffffffffffff418536030181126109b857600080fd5b60a060808501528401816109cb8261075b565b1661010085015260208101356101208501526109ea6040820182610894565b60c0610140870152610a016101c0870182846108ff565b9150506060820135610160860152608082013561018086015282610a2760a0840161075b565b166101a0860152610a3b6040870187610894565b935091507fffffffffffffffffffffffffffffffffffffffffffffffffffffffffffffffa08582030160a0860152610a748184846108ff565b92505050606084013560c0840152610a8e6080850161075b565b73ffffffffffffffffffffffffffffffffffffffff811660e08501525095945050505050565b60008083357fffffffffffffffffffffffffffffffffffffffffffffffffffffffffffffffe1843603018112610ae957600080fd5b83018035915067ffffffffffffffff821115610b0457600080fd5b6020019150368190038213156108f857600080fd5b73ffffffffffffffffffffffffffffffffffffffff8816815286602082015285604082015260a060608201526000610b5560a0830186886108ff565b8281036080840152610b688185876108ff565b9a9950505050505050505050565b7f4e487b7100000000000000000000000000000000000000000000000000000000600052603260045260246000fd5b600082357fffffffffffffffffffffffffffffffffffffffffffffffffffffffffffffff6183360301811261088a57600080fd5b60007fffffffffffffffffffffffffffffffffffffffffffffffffffffffffffffffff8203610c31577f4e487b7100000000000000000000000000000000000000000000000000000000600052601160045260246000fd5b506001019056fea26469706673582212208337ad21f784c0e4353cd852947cc44add0c959acc4bc68a90adf4c3f09e648364736f6c634300080e0033",
			"opcodes": "PUSH1 0x80 PUSH1 0x40 MSTORE CALLVALUE DUP1 ISZERO PUSH2 0x10 JUMPI PUSH1 0x0 DUP1 REVERT JUMPDEST POP PUSH1 0x40 MLOAD PUSH2 0xDCC CODESIZE SUB DUP1 PUSH2 0xDCC DUP4 CODECOPY DUP2 ADD PUSH1 0x40 DUP2 SWAP1 MSTORE PUSH2 0x2F SWAP2 PUSH2 0x11C JUMP JUMPDEST PUSH1 0x1 DUP1 SLOAD PUSH1 0x1 PUSH1 0x1 PUSH1 0xA0 SHL SUB NOT AND PUSH1 0x1 PUSH1 0x1 PUSH1 0xA0 SHL SUB DUP4 AND OR SWAP1 SSTORE PUSH2 0x53 DUP3 PUSH2 0x5A JUMP JUMPDEST POP POP PUSH2 0x14F JUMP JUMPDEST PUSH1 0x1 SLOAD PUSH1 0x1 PUSH1 0x1 PUSH1 0xA0 SHL SUB AND CALLER EQ PUSH2 0xB8 JUMPI PUSH1 0x40 MLOAD PUSH3 0x461BCD PUSH1 0xE5 SHL DUP2 MSTORE PUSH1 0x20 PUSH1 0x4 DUP3 ADD MSTORE PUSH1 0x18 PUSH1 0x24 DUP3 ADD MSTORE PUSH32 0x596F7520617265206E6F742077686974656C69737465642E0000000000000000 PUSH1 0x44 DUP3 ADD MSTORE PUSH1 0x64 ADD PUSH1 0x40 MLOAD DUP1 SWAP2 SUB SWAP1 REVERT JUMPDEST PUSH1 0x0 DUP1 SLOAD PUSH1 0x1 PUSH1 0x1 PUSH1 0xA0 SHL SUB NOT AND PUSH1 0x1 PUSH1 0x1 PUSH1 0xA0 SHL SUB DUP4 AND SWAP1 DUP2 OR DUP3 SSTORE PUSH1 0x40 MLOAD SWAP1 SWAP2 PUSH32 0x66C87B90DB4CA36D99DDF5261EE0240A5BEFB09FC7EE6FAE65DE47632A01AE4E SWAP2 LOG2 POP JUMP JUMPDEST DUP1 MLOAD PUSH1 0x1 PUSH1 0x1 PUSH1 0xA0 SHL SUB DUP2 AND DUP2 EQ PUSH2 0x117 JUMPI PUSH1 0x0 DUP1 REVERT JUMPDEST SWAP2 SWAP1 POP JUMP JUMPDEST PUSH1 0x0 DUP1 PUSH1 0x40 DUP4 DUP6 SUB SLT ISZERO PUSH2 0x12F JUMPI PUSH1 0x0 DUP1 REVERT JUMPDEST PUSH2 0x138 DUP4 PUSH2 0x100 JUMP JUMPDEST SWAP2 POP PUSH2 0x146 PUSH1 0x20 DUP5 ADD PUSH2 0x100 JUMP JUMPDEST SWAP1 POP SWAP3 POP SWAP3 SWAP1 POP JUMP JUMPDEST PUSH2 0xC6E DUP1 PUSH2 0x15E PUSH1 0x0 CODECOPY PUSH1 0x0 RETURN INVALID PUSH1 0x80 PUSH1 0x40 MSTORE CALLVALUE DUP1 ISZERO PUSH2 0x10 JUMPI PUSH1 0x0 DUP1 REVERT JUMPDEST POP PUSH1 0x4 CALLDATASIZE LT PUSH2 0x41 JUMPI PUSH1 0x0 CALLDATALOAD PUSH1 0xE0 SHR DUP1 PUSH4 0x41431908 EQ PUSH2 0x46 JUMPI DUP1 PUSH4 0x8A43BF2F EQ PUSH2 0x5B JUMPI DUP1 PUSH4 0x8C1AA9D2 EQ PUSH2 0x6E JUMPI JUMPDEST PUSH1 0x0 DUP1 REVERT JUMPDEST PUSH2 0x59 PUSH2 0x54 CALLDATASIZE PUSH1 0x4 PUSH2 0x784 JUMP JUMPDEST PUSH2 0x81 JUMP JUMPDEST STOP JUMPDEST PUSH2 0x59 PUSH2 0x69 CALLDATASIZE PUSH1 0x4 PUSH2 0x7A6 JUMP JUMPDEST PUSH2 0x173 JUMP JUMPDEST PUSH2 0x59 PUSH2 0x7C CALLDATASIZE PUSH1 0x4 PUSH2 0x7E1 JUMP JUMPDEST PUSH2 0x39B JUMP JUMPDEST PUSH1 0x1 SLOAD PUSH20 0xFFFFFFFFFFFFFFFFFFFFFFFFFFFFFFFFFFFFFFFF AND CALLER EQ PUSH2 0x106 JUMPI PUSH1 0x40 MLOAD PUSH32 0x8C379A000000000000000000000000000000000000000000000000000000000 DUP2 MSTORE PUSH1 0x20 PUSH1 0x4 DUP3 ADD MSTORE PUSH1 0x18 PUSH1 0x24 DUP3 ADD MSTORE PUSH32 0x596F7520617265206E6F742077686974656C69737465642E0000000000000000 PUSH1 0x44 DUP3 ADD MSTORE PUSH1 0x64 ADD PUSH1 0x40 MLOAD DUP1 SWAP2 SUB SWAP1 REVERT JUMPDEST PUSH1 0x0 DUP1 SLOAD PUSH32 0xFFFFFFFFFFFFFFFFFFFFFFFF0000000000000000000000000000000000000000 AND PUSH20 0xFFFFFFFFFFFFFFFFFFFFFFFFFFFFFFFFFFFFFFFF DUP4 AND SWAP1 DUP2 OR DUP3 SSTORE PUSH1 0x40 MLOAD SWAP1 SWAP2 PUSH32 0x66C87B90DB4CA36D99DDF5261EE0240A5BEFB09FC7EE6FAE65DE47632A01AE4E SWAP2 LOG2 POP JUMP JUMPDEST PUSH1 0x0 PUSH2 0x182 PUSH1 0x20 DUP4 ADD DUP4 PUSH2 0x856 JUMP JUMPDEST PUSH2 0x193 SWAP1 PUSH1 0xC0 DUP2 ADD SWAP1 PUSH1 0xA0 ADD PUSH2 0x784 JUMP JUMPDEST PUSH1 0x0 SLOAD PUSH1 0x40 MLOAD PUSH32 0xED21010D00000000000000000000000000000000000000000000000000000000 DUP2 MSTORE SWAP2 SWAP3 POP PUSH20 0x0 SWAP2 PUSH4 0xED21010D SWAP2 PUSH2 0x202 SWAP2 DUP6 SWAP2 PUSH20 0xFFFFFFFFFFFFFFFFFFFFFFFFFFFFFFFFFFFFFFFF AND SWAP1 DUP8 SWAP1 PUSH1 0x4 ADD PUSH2 0x948 JUMP JUMPDEST PUSH1 0x0 PUSH1 0x40 MLOAD DUP1 DUP4 SUB DUP2 DUP7 DUP1 EXTCODESIZE ISZERO DUP1 ISZERO PUSH2 0x21A JUMPI PUSH1 0x0 DUP1 REVERT JUMPDEST POP GAS DELEGATECALL ISZERO DUP1 ISZERO PUSH2 0x22E JUMPI RETURNDATASIZE PUSH1 0x0 DUP1 RETURNDATACOPY RETURNDATASIZE PUSH1 0x0 REVERT JUMPDEST POP POP POP PUSH20 0xFFFFFFFFFFFFFFFFFFFFFFFFFFFFFFFFFFFFFFFF DUP3 AND SWAP1 POP PUSH4 0xC1341C4F PUSH2 0x25F PUSH1 0xA0 DUP6 ADD PUSH1 0x80 DUP7 ADD PUSH2 0x784 JUMP JUMPDEST PUSH2 0x26C PUSH1 0x20 DUP7 ADD DUP7 PUSH2 0x856 JUMP JUMPDEST PUSH1 0x20 ADD CALLDATALOAD PUSH1 0x60 DUP7 ADD CALLDATALOAD PUSH2 0x282 PUSH1 0x40 DUP9 ADD DUP9 PUSH2 0xAB4 JUMP JUMPDEST PUSH2 0x28F PUSH1 0x20 DUP11 ADD DUP11 PUSH2 0x856 JUMP JUMPDEST PUSH2 0x29D SWAP1 PUSH1 0x40 DUP2 ADD SWAP1 PUSH2 0xAB4 JUMP JUMPDEST PUSH1 0x40 MLOAD DUP9 PUSH4 0xFFFFFFFF AND PUSH1 0xE0 SHL DUP2 MSTORE PUSH1 0x4 ADD PUSH2 0x2BF SWAP8 SWAP7 SWAP6 SWAP5 SWAP4 SWAP3 SWAP2 SWAP1 PUSH2 0xB19 JUMP JUMPDEST PUSH1 0x0 PUSH1 0x40 MLOAD DUP1 DUP4 SUB DUP2 PUSH1 0x0 DUP8 DUP1 EXTCODESIZE ISZERO DUP1 ISZERO PUSH2 0x2D9 JUMPI PUSH1 0x0 DUP1 REVERT JUMPDEST POP GAS CALL ISZERO DUP1 ISZERO PUSH2 0x2ED JUMPI RETURNDATASIZE PUSH1 0x0 DUP1 RETURNDATACOPY RETURNDATASIZE PUSH1 0x0 REVERT JUMPDEST POP PUSH2 0x2FF SWAP3 POP POP POP PUSH1 0x20 DUP4 ADD DUP4 PUSH2 0x856 JUMP JUMPDEST PUSH2 0x30D SWAP1 PUSH1 0x20 DUP2 ADD SWAP1 PUSH2 0x784 JUMP JUMPDEST PUSH20 0xFFFFFFFFFFFFFFFFFFFFFFFFFFFFFFFFFFFFFFFF AND PUSH2 0x330 PUSH1 0x20 DUP5 ADD DUP5 PUSH2 0x856 JUMP JUMPDEST PUSH1 0x20 ADD CALLDATALOAD PUSH32 0x2AC2461480E645801EDD3630742462931884F016745A808F66F51BC134F88C21 PUSH1 0x60 DUP6 ADD CALLDATALOAD PUSH2 0x36A PUSH1 0xA0 DUP8 ADD PUSH1 0x80 DUP9 ADD PUSH2 0x784 JUMP JUMPDEST PUSH1 0x40 DUP1 MLOAD SWAP3 DUP4 MSTORE PUSH20 0xFFFFFFFFFFFFFFFFFFFFFFFFFFFFFFFFFFFFFFFF SWAP1 SWAP2 AND PUSH1 0x20 DUP4 ADD MSTORE ADD PUSH1 0x40 MLOAD DUP1 SWAP2 SUB SWAP1 LOG3 POP POP JUMP JUMPDEST PUSH1 0x0 JUMPDEST DUP2 DUP2 LT ISZERO PUSH2 0x756 JUMPI PUSH1 0x0 DUP4 DUP4 DUP4 DUP2 DUP2 LT PUSH2 0x3BA JUMPI PUSH2 0x3BA PUSH2 0xB76 JUMP JUMPDEST SWAP1 POP PUSH1 0x20 MUL DUP2 ADD SWAP1 PUSH2 0x3CC SWAP2 SWAP1 PUSH2 0xBA5 JUMP JUMPDEST PUSH2 0x3DA SWAP1 PUSH1 0x20 DUP2 ADD SWAP1 PUSH2 0x856 JUMP JUMPDEST PUSH2 0x3EB SWAP1 PUSH1 0xC0 DUP2 ADD SWAP1 PUSH1 0xA0 ADD PUSH2 0x784 JUMP JUMPDEST PUSH1 0x0 SLOAD SWAP1 SWAP2 POP PUSH20 0x0 SWAP1 PUSH4 0xED21010D SWAP1 DUP4 SWAP1 PUSH20 0xFFFFFFFFFFFFFFFFFFFFFFFFFFFFFFFFFFFFFFFF AND DUP8 DUP8 DUP8 DUP2 DUP2 LT PUSH2 0x437 JUMPI PUSH2 0x437 PUSH2 0xB76 JUMP JUMPDEST SWAP1 POP PUSH1 0x20 MUL DUP2 ADD SWAP1 PUSH2 0x449 SWAP2 SWAP1 PUSH2 0xBA5 JUMP JUMPDEST PUSH1 0x40 MLOAD DUP5 PUSH4 0xFFFFFFFF AND PUSH1 0xE0 SHL DUP2 MSTORE PUSH1 0x4 ADD PUSH2 0x467 SWAP4 SWAP3 SWAP2 SWAP1 PUSH2 0x948 JUMP JUMPDEST PUSH1 0x0 PUSH1 0x40 MLOAD DUP1 DUP4 SUB DUP2 DUP7 DUP1 EXTCODESIZE ISZERO DUP1 ISZERO PUSH2 0x47F JUMPI PUSH1 0x0 DUP1 REVERT JUMPDEST POP GAS DELEGATECALL ISZERO DUP1 ISZERO PUSH2 0x493 JUMPI RETURNDATASIZE PUSH1 0x0 DUP1 RETURNDATACOPY RETURNDATASIZE PUSH1 0x0 REVERT JUMPDEST POP POP POP POP DUP1 PUSH20 0xFFFFFFFFFFFFFFFFFFFFFFFFFFFFFFFFFFFFFFFF AND PUSH4 0xC1341C4F DUP6 DUP6 DUP6 DUP2 DUP2 LT PUSH2 0x4C5 JUMPI PUSH2 0x4C5 PUSH2 0xB76 JUMP JUMPDEST SWAP1 POP PUSH1 0x20 MUL DUP2 ADD SWAP1 PUSH2 0x4D7 SWAP2 SWAP1 PUSH2 0xBA5 JUMP JUMPDEST PUSH2 0x4E8 SWAP1 PUSH1 0xA0 DUP2 ADD SWAP1 PUSH1 0x80 ADD PUSH2 0x784 JUMP JUMPDEST DUP7 DUP7 DUP7 DUP2 DUP2 LT PUSH2 0x4FA JUMPI PUSH2 0x4FA PUSH2 0xB76 JUMP JUMPDEST SWAP1 POP PUSH1 0x20 MUL DUP2 ADD SWAP1 PUSH2 0x50C SWAP2 SWAP1 PUSH2 0xBA5 JUMP JUMPDEST PUSH2 0x51A SWAP1 PUSH1 0x20 DUP2 ADD SWAP1 PUSH2 0x856 JUMP JUMPDEST PUSH1 0x20 ADD CALLDATALOAD DUP8 DUP8 DUP8 DUP2 DUP2 LT PUSH2 0x530 JUMPI PUSH2 0x530 PUSH2 0xB76 JUMP JUMPDEST SWAP1 POP PUSH1 0x20 MUL DUP2 ADD SWAP1 PUSH2 0x542 SWAP2 SWAP1 PUSH2 0xBA5 JUMP JUMPDEST PUSH1 0x60 ADD CALLDATALOAD DUP9 DUP9 DUP9 DUP2 DUP2 LT PUSH2 0x558 JUMPI PUSH2 0x558 PUSH2 0xB76 JUMP JUMPDEST SWAP1 POP PUSH1 0x20 MUL DUP2 ADD SWAP1 PUSH2 0x56A SWAP2 SWAP1 PUSH2 0xBA5 JUMP JUMPDEST PUSH2 0x578 SWAP1 PUSH1 0x40 DUP2 ADD SWAP1 PUSH2 0xAB4 JUMP JUMPDEST DUP11 DUP11 DUP11 DUP2 DUP2 LT PUSH2 0x58A JUMPI PUSH2 0x58A PUSH2 0xB76 JUMP JUMPDEST SWAP1 POP PUSH1 0x20 MUL DUP2 ADD SWAP1 PUSH2 0x59C SWAP2 SWAP1 PUSH2 0xBA5 JUMP JUMPDEST PUSH2 0x5AA SWAP1 PUSH1 0x20 DUP2 ADD SWAP1 PUSH2 0x856 JUMP JUMPDEST PUSH2 0x5B8 SWAP1 PUSH1 0x40 DUP2 ADD SWAP1 PUSH2 0xAB4 JUMP JUMPDEST PUSH1 0x40 MLOAD DUP9 PUSH4 0xFFFFFFFF AND PUSH1 0xE0 SHL DUP2 MSTORE PUSH1 0x4 ADD PUSH2 0x5DA SWAP8 SWAP7 SWAP6 SWAP5 SWAP4 SWAP3 SWAP2 SWAP1 PUSH2 0xB19 JUMP JUMPDEST PUSH1 0x0 PUSH1 0x40 MLOAD DUP1 DUP4 SUB DUP2 PUSH1 0x0 DUP8 DUP1 EXTCODESIZE ISZERO DUP1 ISZERO PUSH2 0x5F4 JUMPI PUSH1 0x0 DUP1 REVERT JUMPDEST POP GAS CALL ISZERO DUP1 ISZERO PUSH2 0x608 JUMPI RETURNDATASIZE PUSH1 0x0 DUP1 RETURNDATACOPY RETURNDATASIZE PUSH1 0x0 REVERT JUMPDEST POP POP POP POP DUP4 DUP4 DUP4 DUP2 DUP2 LT PUSH2 0x61E JUMPI PUSH2 0x61E PUSH2 0xB76 JUMP JUMPDEST SWAP1 POP PUSH1 0x20 MUL DUP2 ADD SWAP1 PUSH2 0x630 SWAP2 SWAP1 PUSH2 0xBA5 JUMP JUMPDEST PUSH2 0x63E SWAP1 PUSH1 0x20 DUP2 ADD SWAP1 PUSH2 0x856 JUMP JUMPDEST PUSH2 0x64C SWAP1 PUSH1 0x20 DUP2 ADD SWAP1 PUSH2 0x784 JUMP JUMPDEST PUSH20 0xFFFFFFFFFFFFFFFFFFFFFFFFFFFFFFFFFFFFFFFF AND DUP5 DUP5 DUP5 DUP2 DUP2 LT PUSH2 0x674 JUMPI PUSH2 0x674 PUSH2 0xB76 JUMP JUMPDEST SWAP1 POP PUSH1 0x20 MUL DUP2 ADD SWAP1 PUSH2 0x686 SWAP2 SWAP1 PUSH2 0xBA5 JUMP JUMPDEST PUSH2 0x694 SWAP1 PUSH1 0x20 DUP2 ADD SWAP1 PUSH2 0x856 JUMP JUMPDEST PUSH1 0x20 ADD CALLDATALOAD PUSH32 0x2AC2461480E645801EDD3630742462931884F016745A808F66F51BC134F88C21 DUP7 DUP7 DUP7 DUP2 DUP2 LT PUSH2 0x6CB JUMPI PUSH2 0x6CB PUSH2 0xB76 JUMP JUMPDEST SWAP1 POP PUSH1 0x20 MUL DUP2 ADD SWAP1 PUSH2 0x6DD SWAP2 SWAP1 PUSH2 0xBA5 JUMP JUMPDEST PUSH1 0x60 ADD CALLDATALOAD DUP8 DUP8 DUP8 DUP2 DUP2 LT PUSH2 0x6F3 JUMPI PUSH2 0x6F3 PUSH2 0xB76 JUMP JUMPDEST SWAP1 POP PUSH1 0x20 MUL DUP2 ADD SWAP1 PUSH2 0x705 SWAP2 SWAP1 PUSH2 0xBA5 JUMP JUMPDEST PUSH2 0x716 SWAP1 PUSH1 0xA0 DUP2 ADD SWAP1 PUSH1 0x80 ADD PUSH2 0x784 JUMP JUMPDEST PUSH1 0x40 DUP1 MLOAD SWAP3 DUP4 MSTORE PUSH20 0xFFFFFFFFFFFFFFFFFFFFFFFFFFFFFFFFFFFFFFFF SWAP1 SWAP2 AND PUSH1 0x20 DUP4 ADD MSTORE ADD PUSH1 0x40 MLOAD DUP1 SWAP2 SUB SWAP1 LOG3 POP DUP1 PUSH2 0x74E DUP2 PUSH2 0xBD9 JUMP JUMPDEST SWAP2 POP POP PUSH2 0x39E JUMP JUMPDEST POP POP POP JUMP JUMPDEST DUP1 CALLDATALOAD PUSH20 0xFFFFFFFFFFFFFFFFFFFFFFFFFFFFFFFFFFFFFFFF DUP2 AND DUP2 EQ PUSH2 0x77F JUMPI PUSH1 0x0 DUP1 REVERT JUMPDEST SWAP2 SWAP1 POP JUMP JUMPDEST PUSH1 0x0 PUSH1 0x20 DUP3 DUP5 SUB SLT ISZERO PUSH2 0x796 JUMPI PUSH1 0x0 DUP1 REVERT JUMPDEST PUSH2 0x79F DUP3 PUSH2 0x75B JUMP JUMPDEST SWAP4 SWAP3 POP POP POP JUMP JUMPDEST PUSH1 0x0 PUSH1 0x20 DUP3 DUP5 SUB SLT ISZERO PUSH2 0x7B8 JUMPI PUSH1 0x0 DUP1 REVERT JUMPDEST DUP2 CALLDATALOAD PUSH8 0xFFFFFFFFFFFFFFFF DUP2 GT ISZERO PUSH2 0x7CF JUMPI PUSH1 0x0 DUP1 REVERT JUMPDEST DUP3 ADD PUSH1 0xA0 DUP2 DUP6 SUB SLT ISZERO PUSH2 0x79F JUMPI PUSH1 0x0 DUP1 REVERT JUMPDEST PUSH1 0x0 DUP1 PUSH1 0x20 DUP4 DUP6 SUB SLT ISZERO PUSH2 0x7F4 JUMPI PUSH1 0x0 DUP1 REVERT JUMPDEST DUP3 CALLDATALOAD PUSH8 0xFFFFFFFFFFFFFFFF DUP1 DUP3 GT ISZERO PUSH2 0x80C JUMPI PUSH1 0x0 DUP1 REVERT JUMPDEST DUP2 DUP6 ADD SWAP2 POP DUP6 PUSH1 0x1F DUP4 ADD SLT PUSH2 0x820 JUMPI PUSH1 0x0 DUP1 REVERT JUMPDEST DUP2 CALLDATALOAD DUP2 DUP2 GT ISZERO PUSH2 0x82F JUMPI PUSH1 0x0 DUP1 REVERT JUMPDEST DUP7 PUSH1 0x20 DUP3 PUSH1 0x5 SHL DUP6 ADD ADD GT ISZERO PUSH2 0x844 JUMPI PUSH1 0x0 DUP1 REVERT JUMPDEST PUSH1 0x20 SWAP3 SWAP1 SWAP3 ADD SWAP7 SWAP2 SWAP6 POP SWAP1 SWAP4 POP POP POP POP JUMP JUMPDEST PUSH1 0x0 DUP3 CALLDATALOAD PUSH32 0xFFFFFFFFFFFFFFFFFFFFFFFFFFFFFFFFFFFFFFFFFFFFFFFFFFFFFFFFFFFFFF41 DUP4 CALLDATASIZE SUB ADD DUP2 SLT PUSH2 0x88A JUMPI PUSH1 0x0 DUP1 REVERT JUMPDEST SWAP2 SWAP1 SWAP2 ADD SWAP3 SWAP2 POP POP JUMP JUMPDEST PUSH1 0x0 DUP1 DUP4 CALLDATALOAD PUSH32 0xFFFFFFFFFFFFFFFFFFFFFFFFFFFFFFFFFFFFFFFFFFFFFFFFFFFFFFFFFFFFFFE1 DUP5 CALLDATASIZE SUB ADD DUP2 SLT PUSH2 0x8C9 JUMPI PUSH1 0x0 DUP1 REVERT JUMPDEST DUP4 ADD PUSH1 0x20 DUP2 ADD SWAP3 POP CALLDATALOAD SWAP1 POP PUSH8 0xFFFFFFFFFFFFFFFF DUP2 GT ISZERO PUSH2 0x8E9 JUMPI PUSH1 0x0 DUP1 REVERT JUMPDEST DUP1 CALLDATASIZE SUB DUP3 SGT ISZERO PUSH2 0x8F8 JUMPI PUSH1 0x0 DUP1 REVERT JUMPDEST SWAP3 POP SWAP3 SWAP1 POP JUMP JUMPDEST DUP2 DUP4 MSTORE DUP2 DUP2 PUSH1 0x20 DUP6 ADD CALLDATACOPY POP PUSH1 0x0 PUSH1 0x20 DUP3 DUP5 ADD ADD MSTORE PUSH1 0x0 PUSH1 0x20 PUSH32 0xFFFFFFFFFFFFFFFFFFFFFFFFFFFFFFFFFFFFFFFFFFFFFFFFFFFFFFFFFFFFFFE0 PUSH1 0x1F DUP5 ADD AND DUP5 ADD ADD SWAP1 POP SWAP3 SWAP2 POP POP JUMP JUMPDEST PUSH1 0x0 PUSH20 0xFFFFFFFFFFFFFFFFFFFFFFFFFFFFFFFFFFFFFFFF DUP1 DUP7 AND DUP4 MSTORE DUP1 DUP6 AND PUSH1 0x20 DUP5 ADD MSTORE PUSH1 0x60 PUSH1 0x40 DUP5 ADD MSTORE DUP1 PUSH2 0x97D DUP6 PUSH2 0x75B JUMP JUMPDEST AND PUSH1 0x60 DUP5 ADD MSTORE PUSH1 0x20 DUP5 ADD CALLDATALOAD PUSH32 0xFFFFFFFFFFFFFFFFFFFFFFFFFFFFFFFFFFFFFFFFFFFFFFFFFFFFFFFFFFFFFF41 DUP6 CALLDATASIZE SUB ADD DUP2 SLT PUSH2 0x9B8 JUMPI PUSH1 0x0 DUP1 REVERT JUMPDEST PUSH1 0xA0 PUSH1 0x80 DUP6 ADD MSTORE DUP5 ADD DUP2 PUSH2 0x9CB DUP3 PUSH2 0x75B JUMP JUMPDEST AND PUSH2 0x100 DUP6 ADD MSTORE PUSH1 0x20 DUP2 ADD CALLDATALOAD PUSH2 0x120 DUP6 ADD MSTORE PUSH2 0x9EA PUSH1 0x40 DUP3 ADD DUP3 PUSH2 0x894 JUMP JUMPDEST PUSH1 0xC0 PUSH2 0x140 DUP8 ADD MSTORE PUSH2 0xA01 PUSH2 0x1C0 DUP8 ADD DUP3 DUP5 PUSH2 0x8FF JUMP JUMPDEST SWAP2 POP POP PUSH1 0x60 DUP3 ADD CALLDATALOAD PUSH2 0x160 DUP7 ADD MSTORE PUSH1 0x80 DUP3 ADD CALLDATALOAD PUSH2 0x180 DUP7 ADD MSTORE DUP3 PUSH2 0xA27 PUSH1 0xA0 DUP5 ADD PUSH2 0x75B JUMP JUMPDEST AND PUSH2 0x1A0 DUP7 ADD MSTORE PUSH2 0xA3B PUSH1 0x40 DUP8 ADD DUP8 PUSH2 0x894 JUMP JUMPDEST SWAP4 POP SWAP2 POP PUSH32 0xFFFFFFFFFFFFFFFFFFFFFFFFFFFFFFFFFFFFFFFFFFFFFFFFFFFFFFFFFFFFFFA0 DUP6 DUP3 SUB ADD PUSH1 0xA0 DUP7 ADD MSTORE PUSH2 0xA74 DUP2 DUP5 DUP5 PUSH2 0x8FF JUMP JUMPDEST SWAP3 POP POP POP PUSH1 0x60 DUP5 ADD CALLDATALOAD PUSH1 0xC0 DUP5 ADD MSTORE PUSH2 0xA8E PUSH1 0x80 DUP6 ADD PUSH2 0x75B JUMP JUMPDEST PUSH20 0xFFFFFFFFFFFFFFFFFFFFFFFFFFFFFFFFFFFFFFFF DUP2 AND PUSH1 0xE0 DUP6 ADD MSTORE POP SWAP6 SWAP5 POP POP POP POP POP JUMP JUMPDEST PUSH1 0x0 DUP1 DUP4 CALLDATALOAD PUSH32 0xFFFFFFFFFFFFFFFFFFFFFFFFFFFFFFFFFFFFFFFFFFFFFFFFFFFFFFFFFFFFFFE1 DUP5 CALLDATASIZE SUB ADD DUP2 SLT PUSH2 0xAE9 JUMPI PUSH1 0x0 DUP1 REVERT JUMPDEST DUP4 ADD DUP1 CALLDATALOAD SWAP2 POP PUSH8 0xFFFFFFFFFFFFFFFF DUP3 GT ISZERO PUSH2 0xB04 JUMPI PUSH1 0x0 DUP1 REVERT JUMPDEST PUSH1 0x20 ADD SWAP2 POP CALLDATASIZE DUP2 SWAP1 SUB DUP3 SGT ISZERO PUSH2 0x8F8 JUMPI PUSH1 0x0 DUP1 REVERT JUMPDEST PUSH20 0xFFFFFFFFFFFFFFFFFFFFFFFFFFFFFFFFFFFFFFFF DUP9 AND DUP2 MSTORE DUP7 PUSH1 0x20 DUP3 ADD MSTORE DUP6 PUSH1 0x40 DUP3 ADD MSTORE PUSH1 0xA0 PUSH1 0x60 DUP3 ADD MSTORE PUSH1 0x0 PUSH2 0xB55 PUSH1 0xA0 DUP4 ADD DUP7 DUP9 PUSH2 0x8FF JUMP JUMPDEST DUP3 DUP2 SUB PUSH1 0x80 DUP5 ADD MSTORE PUSH2 0xB68 DUP2 DUP6 DUP8 PUSH2 0x8FF JUMP JUMPDEST SWAP11 SWAP10 POP POP POP POP POP POP POP POP POP POP JUMP JUMPDEST PUSH32 0x4E487B7100000000000000000000000000000000000000000000000000000000 PUSH1 0x0 MSTORE PUSH1 0x32 PUSH1 0x4 MSTORE PUSH1 0x24 PUSH1 0x0 REVERT JUMPDEST PUSH1 0x0 DUP3 CALLDATALOAD PUSH32 0xFFFFFFFFFFFFFFFFFFFFFFFFFFFFFFFFFFFFFFFFFFFFFFFFFFFFFFFFFFFFFF61 DUP4 CALLDATASIZE SUB ADD DUP2 SLT PUSH2 0x88A JUMPI PUSH1 0x0 DUP1 REVERT JUMPDEST PUSH1 0x0 PUSH32 0xFFFFFFFFFFFFFFFFFFFFFFFFFFFFFFFFFFFFFFFFFFFFFFFFFFFFFFFFFFFFFFFF DUP3 SUB PUSH2 0xC31 JUMPI PUSH32 0x4E487B7100000000000000000000000000000000000000000000000000000000 PUSH1 0x0 MSTORE PUSH1 0x11 PUSH1 0x4 MSTORE PUSH1 0x24 PUSH1 0x0 REVERT JUMPDEST POP PUSH1 0x1 ADD SWAP1 JUMP INVALID LOG2 PUSH5 0x6970667358 0x22 SLT KECCAK256 DUP4 CALLDATACOPY 0xAD 0x21 0xF7 DUP5 0xC0 0xE4 CALLDATALOAD EXTCODECOPY 0xD8 MSTORE SWAP5 PUSH29 0xC44ADD0C959ACC4BC68A90ADF4C3F09E648364736F6C634300080E0033 "
		},
		"gasEstimates": {
			"creation": {
				"codeDepositCost": "636400",
				"executionCost": "infinite",
				"totalCost": "infinite"
			},
			"external": {
				"batchMintTo((address,(address,uint256,string,uint256,uint256,address),bytes,uint256,address)[])": "infinite",
				"mintTo((address,(address,uint256,string,uint256,uint256,address),bytes,uint256,address))": "infinite",
				"setManagerAddress(address)": "27774"
			}
		},
		"methodIdentifiers": {
			"batchMintTo((address,(address,uint256,string,uint256,uint256,address),bytes,uint256,address)[])": "8c1aa9d2",
			"mintTo((address,(address,uint256,string,uint256,uint256,address),bytes,uint256,address))": "8a43bf2f",
			"setManagerAddress(address)": "41431908"
		}
	},
	"abi": [
		{
			"inputs": [
				{
					"internalType": "address",
					"name": "managerAddress",
					"type": "address"
				},
				{
					"internalType": "address",
					"name": "safeAddress",
					"type": "address"
				}
			],
			"stateMutability": "nonpayable",
			"type": "constructor"
		},
		{
			"anonymous": false,
			"inputs": [
				{
					"indexed": true,
					"internalType": "address",
					"name": "managerAddress",
					"type": "address"
				}
			],
			"name": "ManagerAddressChanged",
			"type": "event"
		},
		{
			"anonymous": false,
			"inputs": [
				{
					"indexed": true,
					"internalType": "uint256",
					"name": "id",
					"type": "uint256"
				},
				{
					"indexed": false,
					"internalType": "uint256",
					"name": "amount",
					"type": "uint256"
				},
				{
					"indexed": false,
					"internalType": "address",
					"name": "receiver",
					"type": "address"
				},
				{
					"indexed": true,
					"internalType": "address",
					"name": "initiator",
					"type": "address"
				}
			],
			"name": "MintSuccessful",
			"type": "event"
		},
		{
			"inputs": [
				{
					"components": [
						{
							"internalType": "address",
							"name": "authorized",
							"type": "address"
						},
						{
							"components": [
								{
									"internalType": "address",
									"name": "creator",
									"type": "address"
								},
								{
									"internalType": "uint256",
									"name": "nftId",
									"type": "uint256"
								},
								{
									"internalType": "string",
									"name": "cid",
									"type": "string"
								},
								{
									"internalType": "uint256",
									"name": "supply",
									"type": "uint256"
								},
								{
									"internalType": "uint256",
									"name": "royalty",
									"type": "uint256"
								},
								{
									"internalType": "address",
									"name": "nftContract",
									"type": "address"
								}
							],
							"internalType": "struct TradeLib.NFTData",
							"name": "nftData",
							"type": "tuple"
						},
						{
							"internalType": "bytes",
							"name": "nftSignature",
							"type": "bytes"
						},
						{
							"internalType": "uint256",
							"name": "amount",
							"type": "uint256"
						},
						{
							"internalType": "address",
							"name": "to",
							"type": "address"
						}
					],
					"internalType": "struct TradeLib.MintTo[]",
					"name": "data",
					"type": "tuple[]"
				}
			],
			"name": "batchMintTo",
			"outputs": [],
			"stateMutability": "nonpayable",
			"type": "function"
		},
		{
			"inputs": [
				{
					"components": [
						{
							"internalType": "address",
							"name": "authorized",
							"type": "address"
						},
						{
							"components": [
								{
									"internalType": "address",
									"name": "creator",
									"type": "address"
								},
								{
									"internalType": "uint256",
									"name": "nftId",
									"type": "uint256"
								},
								{
									"internalType": "string",
									"name": "cid",
									"type": "string"
								},
								{
									"internalType": "uint256",
									"name": "supply",
									"type": "uint256"
								},
								{
									"internalType": "uint256",
									"name": "royalty",
									"type": "uint256"
								},
								{
									"internalType": "address",
									"name": "nftContract",
									"type": "address"
								}
							],
							"internalType": "struct TradeLib.NFTData",
							"name": "nftData",
							"type": "tuple"
						},
						{
							"internalType": "bytes",
							"name": "nftSignature",
							"type": "bytes"
						},
						{
							"internalType": "uint256",
							"name": "amount",
							"type": "uint256"
						},
						{
							"internalType": "address",
							"name": "to",
							"type": "address"
						}
					],
					"internalType": "struct TradeLib.MintTo",
					"name": "data",
					"type": "tuple"
				}
			],
			"name": "mintTo",
			"outputs": [],
			"stateMutability": "nonpayable",
			"type": "function"
		},
		{
			"inputs": [
				{
					"internalType": "address",
					"name": "managerAddress",
					"type": "address"
				}
			],
			"name": "setManagerAddress",
			"outputs": [],
			"stateMutability": "nonpayable",
			"type": "function"
		}
	]
}