{
	"data": {
		"bytecode": {
			"linkReferences": {
				"contracts/GU-NFT/TradeLib.sol": {
					"TradeLib": [
						{
							"length": 20,
							"start": 633
						},
						{
							"length": 20,
							"start": 971
						},
						{
							"length": 20,
							"start": 1063
						},
						{
							"length": 20,
							"start": 1388
						},
						{
							"length": 20,
							"start": 1870
						},
						{
							"length": 20,
							"start": 2178
						},
						{
							"length": 20,
							"start": 2316
						},
						{
							"length": 20,
							"start": 2875
						},
						{
							"length": 20,
							"start": 4079
						},
						{
							"length": 20,
							"start": 4387
						},
						{
							"length": 20,
							"start": 4525
						},
						{
							"length": 20,
							"start": 5030
						},
						{
							"length": 20,
							"start": 5861
						},
						{
							"length": 20,
							"start": 6199
						},
						{
							"length": 20,
							"start": 6291
						},
						{
							"length": 20,
							"start": 6633
						},
						{
							"length": 20,
							"start": 7129
						},
						{
							"length": 20,
							"start": 7467
						},
						{
							"length": 20,
							"start": 7559
						},
						{
							"length": 20,
							"start": 7901
						},
						{
							"length": 20,
							"start": 8407
						},
						{
							"length": 20,
							"start": 8715
						},
						{
							"length": 20,
							"start": 8853
						},
						{
							"length": 20,
							"start": 9412
						}
					]
				}
			},
			"object": "60806040523480156200001157600080fd5b506040516200362238038062003622833981016040819052620000349162000126565b600180546001600160a01b0319166001600160a01b0383161790556200005a8262000062565b50506200015e565b6001546001600160a01b03163314620000c15760405162461bcd60e51b815260206004820152601860248201527f596f7520617265206e6f742077686974656c69737465642e0000000000000000604482015260640160405180910390fd5b600080546001600160a01b0319166001600160a01b038316908117825560405190917f66c87b90db4ca36d99ddf5261ee0240a5befb09fc7ee6fae65de47632a01ae4e91a250565b80516001600160a01b03811681146200012157600080fd5b919050565b600080604083850312156200013a57600080fd5b620001458362000109565b9150620001556020840162000109565b90509250929050565b6134b4806200016e6000396000f3fe608060405234801561001057600080fd5b506004361061007d5760003560e01c80634f8d96c31161005b5780634f8d96c3146100bd5780638de193a8146100d05780639fa5a90c146100e3578063f4d2e72a146100f657600080fd5b80632d14959014610082578063314b5df91461009757806341431908146100aa575b600080fd5b610095610090366004612707565b610109565b005b6100956100a5366004612796565b6105d3565b6100956100b836600461280d565b610d82565b6100956100cb366004612796565b610e74565b6100956100de366004612843565b611575565b6100956100f1366004612843565b611a69565b610095610104366004612796565b611f5c565b73__$85c9577c5f7ebbc239771de72f831810a9$__63110ca0ab60008054906101000a900473ffffffffffffffffffffffffffffffffffffffff1673ffffffffffffffffffffffffffffffffffffffff1663dd9cd55b6040518163ffffffff1660e01b8152600401602060405180830381865afa15801561018e573d6000803e3d6000fd5b505050506040513d601f19601f820116820180604052508101906101b29190612880565b6000546040517fffffffff0000000000000000000000000000000000000000000000000000000060e085901b168152610207929173ffffffffffffffffffffffffffffffffffffffff16908690600401612c4e565b60006040518083038186803b15801561021f57600080fd5b505af4158015610233573d6000803e3d6000fd5b50506040517fef33100500000000000000000000000000000000000000000000000000000000815273__$85c9577c5f7ebbc239771de72f831810a9$__925063ef3310059150610287908490600401612c90565b60006040518083038186803b15801561029f57600080fd5b505af41580156102b3573d6000803e3d6000fd5b5050505073__$85c9577c5f7ebbc239771de72f831810a9$__63064d41388280602001906102e19190612ca3565b6102f2610100850160e0860161280d565b33610303608087016060880161280d565b60008054906101000a900473ffffffffffffffffffffffffffffffffffffffff1673ffffffffffffffffffffffffffffffffffffffff166338af3eed6040518163ffffffff1660e01b8152600401602060405180830381865afa15801561036e573d6000803e3d6000fd5b505050506040513d601f19601f820116820180604052508101906103929190612880565b6101008801356103a66101a08a018a612ce1565b602001356040518863ffffffff1660e01b81526004016103cc9796959493929190612d15565b60006040518083038186803b1580156103e457600080fd5b505af41580156103f8573d6000803e3d6000fd5b5050505073__$85c9577c5f7ebbc239771de72f831810a9$__6381b405e48280602001906104269190612ca3565b6040518060800160405280856060016020810190610444919061280d565b73ffffffffffffffffffffffffffffffffffffffff16815260200161047161020087016101e0880161280d565b73ffffffffffffffffffffffffffffffffffffffff16815260c086013560208201526040908101906104a590870187612d73565b8080601f01602080910402602001604051908101604052809392919081815260200183838082843760009201919091525050509152506040517fffffffff0000000000000000000000000000000000000000000000000000000060e085901b168152610515929190600401612dd8565b60006040518083038186803b15801561052d57600080fd5b505af4158015610541573d6000803e3d6000fd5b506105589250505061020082016101e0830161280d565b6040805160008152608080850135602083015260c085013592820192909252610100840135606082015273ffffffffffffffffffffffffffffffffffffffff9290921691339160a0850135917f307f70ce93b386b533090cbc3c2eb687b292ad5f5222f9f75c4003c41ba86d3591015b60405180910390a450565b60005b81811015610d7d5773__$85c9577c5f7ebbc239771de72f831810a9$__63f3326ff560008054906101000a900473ffffffffffffffffffffffffffffffffffffffff1673ffffffffffffffffffffffffffffffffffffffff1663dd9cd55b6040518163ffffffff1660e01b8152600401602060405180830381865afa158015610663573d6000803e3d6000fd5b505050506040513d601f19601f820116820180604052508101906106879190612880565b60005473ffffffffffffffffffffffffffffffffffffffff168686868181106106b2576106b2612ea0565b90506020028101906106c49190612ecf565b6040518463ffffffff1660e01b81526004016106e293929190613180565b60006040518083038186803b1580156106fa57600080fd5b505af415801561070e573d6000803e3d6000fd5b5050505073__$85c9577c5f7ebbc239771de72f831810a9$__63233dc4eb84848481811061073e5761073e612ea0565b90506020028101906107509190612ecf565b6040518263ffffffff1660e01b815260040161076c91906131b9565b60006040518083038186803b15801561078457600080fd5b505af4158015610798573d6000803e3d6000fd5b5050505073__$85c9577c5f7ebbc239771de72f831810a9$__63064d41388484848181106107c8576107c8612ea0565b90506020028101906107da9190612ecf565b6107e8906020810190612ca3565b8585858181106107fa576107fa612ea0565b905060200281019061080c9190612ecf565b61081e9061010081019060e00161280d565b86868681811061083057610830612ea0565b90506020028101906108429190612ecf565b610855906102208101906102000161280d565b87878781811061086757610867612ea0565b90506020028101906108799190612ecf565b61088a90608081019060600161280d565b60008054906101000a900473ffffffffffffffffffffffffffffffffffffffff1673ffffffffffffffffffffffffffffffffffffffff166338af3eed6040518163ffffffff1660e01b8152600401602060405180830381865afa1580156108f5573d6000803e3d6000fd5b505050506040513d601f19601f820116820180604052508101906109199190612880565b89898981811061092b5761092b612ea0565b905060200281019061093d9190612ecf565b61026001358a8a8a81811061095457610954612ea0565b90506020028101906109669190612ecf565b610975906101c0810190612ce1565b602001356040518863ffffffff1660e01b815260040161099b9796959493929190612d15565b60006040518083038186803b1580156109b357600080fd5b505af41580156109c7573d6000803e3d6000fd5b5050505073__$85c9577c5f7ebbc239771de72f831810a9$__6381b405e48484848181106109f7576109f7612ea0565b9050602002810190610a099190612ecf565b610a17906020810190612ca3565b6040518060800160405280878787818110610a3457610a34612ea0565b9050602002810190610a469190612ecf565b610a5790608081019060600161280d565b73ffffffffffffffffffffffffffffffffffffffff168152602001878787818110610a8457610a84612ea0565b9050602002810190610a969190612ecf565b610aa9906102408101906102200161280d565b73ffffffffffffffffffffffffffffffffffffffff168152602001878787818110610ad657610ad6612ea0565b9050602002810190610ae89190612ecf565b60c001358152602001878787818110610b0357610b03612ea0565b9050602002810190610b159190612ecf565b610b23906040810190612d73565b8080601f01602080910402602001604051908101604052809392919081815260200183838082843760009201919091525050509152506040517fffffffff0000000000000000000000000000000000000000000000000000000060e085901b168152610b93929190600401612dd8565b60006040518083038186803b158015610bab57600080fd5b505af4158015610bbf573d6000803e3d6000fd5b50505050828282818110610bd557610bd5612ea0565b9050602002810190610be79190612ecf565b610bfa906102408101906102200161280d565b73ffffffffffffffffffffffffffffffffffffffff16838383818110610c2257610c22612ea0565b9050602002810190610c349190612ecf565b610c47906102208101906102000161280d565b73ffffffffffffffffffffffffffffffffffffffff16848484818110610c6f57610c6f612ea0565b9050602002810190610c819190612ecf565b60a001357fb93f3019e030940d28a0829c84ddffb6f58979b9e3a8da60ac5419319797eef6868686818110610cb857610cb8612ea0565b9050602002810190610cca9190612ecf565b610cd990610280810190612d73565b888888818110610ceb57610ceb612ea0565b9050602002810190610cfd9190612ecf565b60800135898989818110610d1357610d13612ea0565b9050602002810190610d259190612ecf565b60c001358a8a8a818110610d3b57610d3b612ea0565b9050602002810190610d4d9190612ecf565b604051610d6395949392916102600135906131cc565b60405180910390a480610d75816131fd565b9150506105d6565b505050565b60015473ffffffffffffffffffffffffffffffffffffffff163314610e07576040517f08c379a000000000000000000000000000000000000000000000000000000000815260206004820152601860248201527f596f7520617265206e6f742077686974656c69737465642e0000000000000000604482015260640160405180910390fd5b600080547fffffffffffffffffffffffff00000000000000000000000000000000000000001673ffffffffffffffffffffffffffffffffffffffff8316908117825560405190917f66c87b90db4ca36d99ddf5261ee0240a5befb09fc7ee6fae65de47632a01ae4e91a250565b60005b81811015610d7d5773__$85c9577c5f7ebbc239771de72f831810a9$__63110ca0ab60008054906101000a900473ffffffffffffffffffffffffffffffffffffffff1673ffffffffffffffffffffffffffffffffffffffff1663dd9cd55b6040518163ffffffff1660e01b8152600401602060405180830381865afa158015610f04573d6000803e3d6000fd5b505050506040513d601f19601f82011682018060405250810190610f289190612880565b60005473ffffffffffffffffffffffffffffffffffffffff16868686818110610f5357610f53612ea0565b9050602002810190610f65919061325c565b6040518463ffffffff1660e01b8152600401610f8393929190612c4e565b60006040518083038186803b158015610f9b57600080fd5b505af4158015610faf573d6000803e3d6000fd5b5050505073__$85c9577c5f7ebbc239771de72f831810a9$__63ef331005848484818110610fdf57610fdf612ea0565b9050602002810190610ff1919061325c565b6040518263ffffffff1660e01b815260040161100d9190612c90565b60006040518083038186803b15801561102557600080fd5b505af4158015611039573d6000803e3d6000fd5b5050505073__$85c9577c5f7ebbc239771de72f831810a9$__63064d413884848481811061106957611069612ea0565b905060200281019061107b919061325c565b611089906020810190612ca3565b85858581811061109b5761109b612ea0565b90506020028101906110ad919061325c565b6110bf9061010081019060e00161280d565b338787878181106110d2576110d2612ea0565b90506020028101906110e4919061325c565b6110f590608081019060600161280d565b60008054906101000a900473ffffffffffffffffffffffffffffffffffffffff1673ffffffffffffffffffffffffffffffffffffffff166338af3eed6040518163ffffffff1660e01b8152600401602060405180830381865afa158015611160573d6000803e3d6000fd5b505050506040513d601f19601f820116820180604052508101906111849190612880565b89898981811061119657611196612ea0565b90506020028101906111a8919061325c565b61010001358a8a8a8181106111bf576111bf612ea0565b90506020028101906111d1919061325c565b6111e0906101a0810190612ce1565b602001356040518863ffffffff1660e01b81526004016112069796959493929190612d15565b60006040518083038186803b15801561121e57600080fd5b505af4158015611232573d6000803e3d6000fd5b5050505073__$85c9577c5f7ebbc239771de72f831810a9$__6381b405e484848481811061126257611262612ea0565b9050602002810190611274919061325c565b611282906020810190612ca3565b604051806080016040528087878781811061129f5761129f612ea0565b90506020028101906112b1919061325c565b6112c290608081019060600161280d565b73ffffffffffffffffffffffffffffffffffffffff1681526020018787878181106112ef576112ef612ea0565b9050602002810190611301919061325c565b611314906102008101906101e00161280d565b73ffffffffffffffffffffffffffffffffffffffff16815260200187878781811061134157611341612ea0565b9050602002810190611353919061325c565b60c00135815260200187878781811061136e5761136e612ea0565b9050602002810190611380919061325c565b61138e906040810190612d73565b8080601f01602080910402602001604051908101604052809392919081815260200183838082843760009201919091525050509152506040517fffffffff0000000000000000000000000000000000000000000000000000000060e085901b1681526113fe929190600401612dd8565b60006040518083038186803b15801561141657600080fd5b505af415801561142a573d6000803e3d6000fd5b5050505082828281811061144057611440612ea0565b9050602002810190611452919061325c565b611465906102008101906101e00161280d565b73ffffffffffffffffffffffffffffffffffffffff163384848481811061148e5761148e612ea0565b90506020028101906114a0919061325c565b60a001357f307f70ce93b386b533090cbc3c2eb687b292ad5f5222f9f75c4003c41ba86d3560008787878181106114d9576114d9612ea0565b90506020028101906114eb919061325c565b6080013588888881811061150157611501612ea0565b9050602002810190611513919061325c565b60c0013589898981811061152957611529612ea0565b905060200281019061153b919061325c565b604080519485526020850193909352918301526101000135606082015260800160405180910390a48061156d816131fd565b915050610e77565b73__$85c9577c5f7ebbc239771de72f831810a9$__63179c78b560008054906101000a900473ffffffffffffffffffffffffffffffffffffffff1673ffffffffffffffffffffffffffffffffffffffff1663dd9cd55b6040518163ffffffff1660e01b8152600401602060405180830381865afa1580156115fa573d6000803e3d6000fd5b505050506040513d601f19601f8201168201806040525081019061161e9190612880565b6000546040517fffffffff0000000000000000000000000000000000000000000000000000000060e085901b168152611673929173ffffffffffffffffffffffffffffffffffffffff16908690600401613432565b60006040518083038186803b15801561168b57600080fd5b505af415801561169f573d6000803e3d6000fd5b50506040517f1a94709300000000000000000000000000000000000000000000000000000000815273__$85c9577c5f7ebbc239771de72f831810a9$__9250631a94709391506116f390849060040161346b565b60006040518083038186803b15801561170b57600080fd5b505af415801561171f573d6000803e3d6000fd5b5050505073__$85c9577c5f7ebbc239771de72f831810a9$__63064d413882806020019061174d9190612ca3565b61175e610100850160e0860161280d565b61177061020086016101e0870161280d565b611780608087016060880161280d565b60008054906101000a900473ffffffffffffffffffffffffffffffffffffffff1673ffffffffffffffffffffffffffffffffffffffff166338af3eed6040518163ffffffff1660e01b8152600401602060405180830381865afa1580156117eb573d6000803e3d6000fd5b505050506040513d601f19601f8201168201806040525081019061180f9190612880565b6102408801356118236101a08a018a612ce1565b602001356040518863ffffffff1660e01b81526004016118499796959493929190612d15565b60006040518083038186803b15801561186157600080fd5b505af4158015611875573d6000803e3d6000fd5b5050505073__$85c9577c5f7ebbc239771de72f831810a9$__6381b405e48280602001906118a39190612ca3565b60405180608001604052808560600160208101906118c1919061280d565b73ffffffffffffffffffffffffffffffffffffffff1681526020016118ee6102208701610200880161280d565b73ffffffffffffffffffffffffffffffffffffffff16815260c0860135602082015260409081019061192290870187612d73565b8080601f01602080910402602001604051908101604052809392919081815260200183838082843760009201919091525050509152506040517fffffffff0000000000000000000000000000000000000000000000000000000060e085901b168152611992929190600401612dd8565b60006040518083038186803b1580156119aa57600080fd5b505af41580156119be573d6000803e3d6000fd5b506119d5925050506102208201610200830161280d565b73ffffffffffffffffffffffffffffffffffffffff166119fd61020083016101e0840161280d565b73ffffffffffffffffffffffffffffffffffffffff1660a08301357f511717abb0e39f5fcc1d4bd11a7daf540dc2709bd27685fbcdb81f2311873f9a611a47610280860186612d73565b6040516105c89291906102208901359060c08a0135906102408b0135906131cc565b73__$85c9577c5f7ebbc239771de72f831810a9$__63f3326ff560008054906101000a900473ffffffffffffffffffffffffffffffffffffffff1673ffffffffffffffffffffffffffffffffffffffff1663dd9cd55b6040518163ffffffff1660e01b8152600401602060405180830381865afa158015611aee573d6000803e3d6000fd5b505050506040513d601f19601f82011682018060405250810190611b129190612880565b6000546040517fffffffff0000000000000000000000000000000000000000000000000000000060e085901b168152611b67929173ffffffffffffffffffffffffffffffffffffffff16908690600401613180565b60006040518083038186803b158015611b7f57600080fd5b505af4158015611b93573d6000803e3d6000fd5b50506040517f233dc4eb00000000000000000000000000000000000000000000000000000000815273__$85c9577c5f7ebbc239771de72f831810a9$__925063233dc4eb9150611be79084906004016131b9565b60006040518083038186803b158015611bff57600080fd5b505af4158015611c13573d6000803e3d6000fd5b5050505073__$85c9577c5f7ebbc239771de72f831810a9$__63064d4138828060200190611c419190612ca3565b611c52610100850160e0860161280d565b611c646102208601610200870161280d565b611c74608087016060880161280d565b60008054906101000a900473ffffffffffffffffffffffffffffffffffffffff1673ffffffffffffffffffffffffffffffffffffffff166338af3eed6040518163ffffffff1660e01b8152600401602060405180830381865afa158015611cdf573d6000803e3d6000fd5b505050506040513d601f19601f82011682018060405250810190611d039190612880565b610260880135611d176101c08a018a612ce1565b602001356040518863ffffffff1660e01b8152600401611d3d9796959493929190612d15565b60006040518083038186803b158015611d5557600080fd5b505af4158015611d69573d6000803e3d6000fd5b5050505073__$85c9577c5f7ebbc239771de72f831810a9$__6381b405e4828060200190611d979190612ca3565b6040518060800160405280856060016020810190611db5919061280d565b73ffffffffffffffffffffffffffffffffffffffff168152602001611de26102408701610220880161280d565b73ffffffffffffffffffffffffffffffffffffffff16815260c08601356020820152604090810190611e1690870187612d73565b8080601f01602080910402602001604051908101604052809392919081815260200183838082843760009201919091525050509152506040517fffffffff0000000000000000000000000000000000000000000000000000000060e085901b168152611e86929190600401612dd8565b60006040518083038186803b158015611e9e57600080fd5b505af4158015611eb2573d6000803e3d6000fd5b50611ec9925050506102408201610220830161280d565b73ffffffffffffffffffffffffffffffffffffffff16611ef16102208301610200840161280d565b73ffffffffffffffffffffffffffffffffffffffff1660a08301357fb93f3019e030940d28a0829c84ddffb6f58979b9e3a8da60ac5419319797eef6611f3b610280860186612d73565b6040516105c892919060808901359060c08a0135906102608b0135906131cc565b60005b81811015610d7d5773__$85c9577c5f7ebbc239771de72f831810a9$__63179c78b560008054906101000a900473ffffffffffffffffffffffffffffffffffffffff1673ffffffffffffffffffffffffffffffffffffffff1663dd9cd55b6040518163ffffffff1660e01b8152600401602060405180830381865afa158015611fec573d6000803e3d6000fd5b505050506040513d601f19601f820116820180604052508101906120109190612880565b60005473ffffffffffffffffffffffffffffffffffffffff1686868681811061203b5761203b612ea0565b905060200281019061204d9190612ecf565b6040518463ffffffff1660e01b815260040161206b93929190613432565b60006040518083038186803b15801561208357600080fd5b505af4158015612097573d6000803e3d6000fd5b5050505073__$85c9577c5f7ebbc239771de72f831810a9$__631a9470938484848181106120c7576120c7612ea0565b90506020028101906120d99190612ecf565b6040518263ffffffff1660e01b81526004016120f5919061346b565b60006040518083038186803b15801561210d57600080fd5b505af4158015612121573d6000803e3d6000fd5b5050505073__$85c9577c5f7ebbc239771de72f831810a9$__63064d413884848481811061215157612151612ea0565b90506020028101906121639190612ecf565b612171906020810190612ca3565b85858581811061218357612183612ea0565b90506020028101906121959190612ecf565b6121a79061010081019060e00161280d565b8686868181106121b9576121b9612ea0565b90506020028101906121cb9190612ecf565b6121de906102008101906101e00161280d565b8787878181106121f0576121f0612ea0565b90506020028101906122029190612ecf565b61221390608081019060600161280d565b60008054906101000a900473ffffffffffffffffffffffffffffffffffffffff1673ffffffffffffffffffffffffffffffffffffffff166338af3eed6040518163ffffffff1660e01b8152600401602060405180830381865afa15801561227e573d6000803e3d6000fd5b505050506040513d601f19601f820116820180604052508101906122a29190612880565b8989898181106122b4576122b4612ea0565b90506020028101906122c69190612ecf565b61024001358a8a8a8181106122dd576122dd612ea0565b90506020028101906122ef9190612ecf565b6122fe906101a0810190612ce1565b602001356040518863ffffffff1660e01b81526004016123249796959493929190612d15565b60006040518083038186803b15801561233c57600080fd5b505af4158015612350573d6000803e3d6000fd5b5050505073__$85c9577c5f7ebbc239771de72f831810a9$__6381b405e484848481811061238057612380612ea0565b90506020028101906123929190612ecf565b6123a0906020810190612ca3565b60405180608001604052808787878181106123bd576123bd612ea0565b90506020028101906123cf9190612ecf565b6123e090608081019060600161280d565b73ffffffffffffffffffffffffffffffffffffffff16815260200187878781811061240d5761240d612ea0565b905060200281019061241f9190612ecf565b612432906102208101906102000161280d565b73ffffffffffffffffffffffffffffffffffffffff16815260200187878781811061245f5761245f612ea0565b90506020028101906124719190612ecf565b60c00135815260200187878781811061248c5761248c612ea0565b905060200281019061249e9190612ecf565b6124ac906040810190612d73565b8080601f01602080910402602001604051908101604052809392919081815260200183838082843760009201919091525050509152506040517fffffffff0000000000000000000000000000000000000000000000000000000060e085901b16815261251c929190600401612dd8565b60006040518083038186803b15801561253457600080fd5b505af4158015612548573d6000803e3d6000fd5b5050505082828281811061255e5761255e612ea0565b90506020028101906125709190612ecf565b612583906102208101906102000161280d565b73ffffffffffffffffffffffffffffffffffffffff168383838181106125ab576125ab612ea0565b90506020028101906125bd9190612ecf565b6125d0906102008101906101e00161280d565b73ffffffffffffffffffffffffffffffffffffffff168484848181106125f8576125f8612ea0565b905060200281019061260a9190612ecf565b60a001357f511717abb0e39f5fcc1d4bd11a7daf540dc2709bd27685fbcdb81f2311873f9a86868681811061264157612641612ea0565b90506020028101906126539190612ecf565b61266290610280810190612d73565b88888881811061267457612674612ea0565b90506020028101906126869190612ecf565b610220013589898981811061269d5761269d612ea0565b90506020028101906126af9190612ecf565b60c001358a8a8a8181106126c5576126c5612ea0565b90506020028101906126d79190612ecf565b6040516126ed95949392916102400135906131cc565b60405180910390a4806126ff816131fd565b915050611f5f565b60006020828403121561271957600080fd5b813567ffffffffffffffff81111561273057600080fd5b8201610200818503121561274357600080fd5b9392505050565b60008083601f84011261275c57600080fd5b50813567ffffffffffffffff81111561277457600080fd5b6020830191508360208260051b850101111561278f57600080fd5b9250929050565b600080602083850312156127a957600080fd5b823567ffffffffffffffff8111156127c057600080fd5b6127cc8582860161274a565b90969095509350505050565b73ffffffffffffffffffffffffffffffffffffffff811681146127fa57600080fd5b50565b8035612808816127d8565b919050565b60006020828403121561281f57600080fd5b8135612743816127d8565b60006102e0828403121561283d57600080fd5b50919050565b60006020828403121561285557600080fd5b813567ffffffffffffffff81111561286c57600080fd5b6128788482850161282a565b949350505050565b60006020828403121561289257600080fd5b8151612743816127d8565b600082357fffffffffffffffffffffffffffffffffffffffffffffffffffffffffffffff418336030181126128d157600080fd5b90910192915050565b60008083357fffffffffffffffffffffffffffffffffffffffffffffffffffffffffffffffe184360301811261290f57600080fd5b830160208101925035905067ffffffffffffffff81111561292f57600080fd5b80360382131561278f57600080fd5b8183528181602085013750600060208284010152600060207fffffffffffffffffffffffffffffffffffffffffffffffffffffffffffffffe0601f840116840101905092915050565b60008135612994816127d8565b73ffffffffffffffffffffffffffffffffffffffff8082168552602084013560208601526129c560408501856128da565b925060c060408701526129dc60c08701848361293e565b925050606084013560608601526080840135608086015260a0840135612a01816127d8565b1660a094909401939093525090919050565b8035825260208101356020830152604081013560408301526060810135612a39816127d8565b73ffffffffffffffffffffffffffffffffffffffff1660608301526080818101359083015260a0808201359083015260c090810135910152565b600082357fffffffffffffffffffffffffffffffffffffffffffffffffffffffffffffffc18336030181126128d157600080fd5b6000612ab382836128da565b60408552612ac560408601828461293e565b915050602083013560208501528091505092915050565b6000610200612b0884612aee856127fd565b73ffffffffffffffffffffffffffffffffffffffff169052565b612b15602084018461289d565b816020860152612b2782860182612987565b915050612b3760408401846128da565b8583036040870152612b4a83828461293e565b92505050612b5a606084016127fd565b73ffffffffffffffffffffffffffffffffffffffff166060850152612b856080808601908501612a13565b610160612b94818501856128da565b86840383880152612ba684828461293e565b9350505050610180612bb98185016127fd565b73ffffffffffffffffffffffffffffffffffffffff16908501526101a0612be284820185612a73565b85830382870152612bf38382612aa7565b925050506101c0612c06818501856128da565b86840383880152612c1884828461293e565b93505050506101e0612c2b8185016127fd565b73ffffffffffffffffffffffffffffffffffffffff169401939093525090919050565b600073ffffffffffffffffffffffffffffffffffffffff808616835280851660208401525060606040830152612c876060830184612adc565b95945050505050565b6020815260006127436020830184612adc565b600082357fffffffffffffffffffffffffffffffffffffffffffffffffffffffffffffff41833603018112612cd757600080fd5b9190910192915050565b600082357fffffffffffffffffffffffffffffffffffffffffffffffffffffffffffffffc1833603018112612cd757600080fd5b60e081526000612d2860e083018a612987565b73ffffffffffffffffffffffffffffffffffffffff9889166020840152968816604083015250938616606085015291909416608083015260a082019390935260c00191909152919050565b60008083357fffffffffffffffffffffffffffffffffffffffffffffffffffffffffffffffe1843603018112612da857600080fd5b83018035915067ffffffffffffffff821115612dc357600080fd5b60200191503681900382131561278f57600080fd5b604081526000612deb6040830185612987565b60208382038185015273ffffffffffffffffffffffffffffffffffffffff808651168352808287015116828401525060408501516040830152606085015160806060840152805180608085015260005b81811015612e575782810184015185820160a001528301612e3b565b81811115612e6957600060a083870101525b50601f017fffffffffffffffffffffffffffffffffffffffffffffffffffffffffffffffe0169290920160a0019695505050505050565b7f4e487b7100000000000000000000000000000000000000000000000000000000600052603260045260246000fd5b600082357ffffffffffffffffffffffffffffffffffffffffffffffffffffffffffffffd21833603018112612cd757600080fd5b8035825260208101356020830152604081013560408301526060810135612f29816127d8565b73ffffffffffffffffffffffffffffffffffffffff1660608301526080818101359083015260a0808201359083015260c0808201359083015260e090810135910152565b8035612f78816127d8565b73ffffffffffffffffffffffffffffffffffffffff16825260208181013590830152604090810135910152565b60006102e0612fb784612aee856127fd565b612fc4602084018461289d565b816020860152612fd682860182612987565b915050612fe660408401846128da565b8583036040870152612ff983828461293e565b92505050613009606084016127fd565b73ffffffffffffffffffffffffffffffffffffffff1660608501526130346080808601908501612f03565b610180613043818501856128da565b8684038388015261305584828461293e565b93505050506101a06130688185016127fd565b73ffffffffffffffffffffffffffffffffffffffff16908501526101c061309184820185612a73565b858303828701526130a28382612aa7565b925050506101e06130b5818501856128da565b868403838801526130c784828461293e565b93505050506102006130da8185016127fd565b73ffffffffffffffffffffffffffffffffffffffff1690850152610220613105818601858301612f6d565b50610280613115818501856128da565b8684038388015261312784828461293e565b93505050506102a061313a8185016127fd565b73ffffffffffffffffffffffffffffffffffffffff16908501526102c0613163848201856128da565b8684038388015261317584828461293e565b979650505050505050565b600073ffffffffffffffffffffffffffffffffffffffff808616835280851660208401525060606040830152612c876060830184612fa5565b6020815260006127436020830184612fa5565b6080815260006131e060808301878961293e565b602083019590955250604081019290925260609091015292915050565b60007fffffffffffffffffffffffffffffffffffffffffffffffffffffffffffffffff8203613255577f4e487b7100000000000000000000000000000000000000000000000000000000600052601160045260246000fd5b5060010190565b600082357ffffffffffffffffffffffffffffffffffffffffffffffffffffffffffffffe01833603018112612cd757600080fd5b803561329b816127d8565b73ffffffffffffffffffffffffffffffffffffffff1682526020818101359083015260408082013590830152606090810135910152565b60006102e06132e484612aee856127fd565b6132f1602084018461289d565b81602086015261330382860182612987565b91505061331360408401846128da565b858303604087015261332683828461293e565b92505050613336606084016127fd565b73ffffffffffffffffffffffffffffffffffffffff1660608501526133616080808601908501612a13565b610160613370818501856128da565b8684038388015261338284828461293e565b93505050506101806133958185016127fd565b73ffffffffffffffffffffffffffffffffffffffff16908501526101a06133be84820185612a73565b858303828701526133cf8382612aa7565b925050506101c06133e2818501856128da565b868403838801526133f484828461293e565b93505050506101e06134078185016127fd565b73ffffffffffffffffffffffffffffffffffffffff1690850152610200613105818601858301613290565b600073ffffffffffffffffffffffffffffffffffffffff808616835280851660208401525060606040830152612c8760608301846132d2565b60208152600061274360208301846132d256fea2646970667358221220bf256bca82dfd0441fed281aa4d76d891528752e2e62a51adf814156e791869d64736f6c634300080e0033",
			"opcodes": "PUSH1 0x80 PUSH1 0x40 MSTORE CALLVALUE DUP1 ISZERO PUSH3 0x11 JUMPI PUSH1 0x0 DUP1 REVERT JUMPDEST POP PUSH1 0x40 MLOAD PUSH3 0x3622 CODESIZE SUB DUP1 PUSH3 0x3622 DUP4 CODECOPY DUP2 ADD PUSH1 0x40 DUP2 SWAP1 MSTORE PUSH3 0x34 SWAP2 PUSH3 0x126 JUMP JUMPDEST PUSH1 0x1 DUP1 SLOAD PUSH1 0x1 PUSH1 0x1 PUSH1 0xA0 SHL SUB NOT AND PUSH1 0x1 PUSH1 0x1 PUSH1 0xA0 SHL SUB DUP4 AND OR SWAP1 SSTORE PUSH3 0x5A DUP3 PUSH3 0x62 JUMP JUMPDEST POP POP PUSH3 0x15E JUMP JUMPDEST PUSH1 0x1 SLOAD PUSH1 0x1 PUSH1 0x1 PUSH1 0xA0 SHL SUB AND CALLER EQ PUSH3 0xC1 JUMPI PUSH1 0x40 MLOAD PUSH3 0x461BCD PUSH1 0xE5 SHL DUP2 MSTORE PUSH1 0x20 PUSH1 0x4 DUP3 ADD MSTORE PUSH1 0x18 PUSH1 0x24 DUP3 ADD MSTORE PUSH32 0x596F7520617265206E6F742077686974656C69737465642E0000000000000000 PUSH1 0x44 DUP3 ADD MSTORE PUSH1 0x64 ADD PUSH1 0x40 MLOAD DUP1 SWAP2 SUB SWAP1 REVERT JUMPDEST PUSH1 0x0 DUP1 SLOAD PUSH1 0x1 PUSH1 0x1 PUSH1 0xA0 SHL SUB NOT AND PUSH1 0x1 PUSH1 0x1 PUSH1 0xA0 SHL SUB DUP4 AND SWAP1 DUP2 OR DUP3 SSTORE PUSH1 0x40 MLOAD SWAP1 SWAP2 PUSH32 0x66C87B90DB4CA36D99DDF5261EE0240A5BEFB09FC7EE6FAE65DE47632A01AE4E SWAP2 LOG2 POP JUMP JUMPDEST DUP1 MLOAD PUSH1 0x1 PUSH1 0x1 PUSH1 0xA0 SHL SUB DUP2 AND DUP2 EQ PUSH3 0x121 JUMPI PUSH1 0x0 DUP1 REVERT JUMPDEST SWAP2 SWAP1 POP JUMP JUMPDEST PUSH1 0x0 DUP1 PUSH1 0x40 DUP4 DUP6 SUB SLT ISZERO PUSH3 0x13A JUMPI PUSH1 0x0 DUP1 REVERT JUMPDEST PUSH3 0x145 DUP4 PUSH3 0x109 JUMP JUMPDEST SWAP2 POP PUSH3 0x155 PUSH1 0x20 DUP5 ADD PUSH3 0x109 JUMP JUMPDEST SWAP1 POP SWAP3 POP SWAP3 SWAP1 POP JUMP JUMPDEST PUSH2 0x34B4 DUP1 PUSH3 0x16E PUSH1 0x0 CODECOPY PUSH1 0x0 RETURN INVALID PUSH1 0x80 PUSH1 0x40 MSTORE CALLVALUE DUP1 ISZERO PUSH2 0x10 JUMPI PUSH1 0x0 DUP1 REVERT JUMPDEST POP PUSH1 0x4 CALLDATASIZE LT PUSH2 0x7D JUMPI PUSH1 0x0 CALLDATALOAD PUSH1 0xE0 SHR DUP1 PUSH4 0x4F8D96C3 GT PUSH2 0x5B JUMPI DUP1 PUSH4 0x4F8D96C3 EQ PUSH2 0xBD JUMPI DUP1 PUSH4 0x8DE193A8 EQ PUSH2 0xD0 JUMPI DUP1 PUSH4 0x9FA5A90C EQ PUSH2 0xE3 JUMPI DUP1 PUSH4 0xF4D2E72A EQ PUSH2 0xF6 JUMPI PUSH1 0x0 DUP1 REVERT JUMPDEST DUP1 PUSH4 0x2D149590 EQ PUSH2 0x82 JUMPI DUP1 PUSH4 0x314B5DF9 EQ PUSH2 0x97 JUMPI DUP1 PUSH4 0x41431908 EQ PUSH2 0xAA JUMPI JUMPDEST PUSH1 0x0 DUP1 REVERT JUMPDEST PUSH2 0x95 PUSH2 0x90 CALLDATASIZE PUSH1 0x4 PUSH2 0x2707 JUMP JUMPDEST PUSH2 0x109 JUMP JUMPDEST STOP JUMPDEST PUSH2 0x95 PUSH2 0xA5 CALLDATASIZE PUSH1 0x4 PUSH2 0x2796 JUMP JUMPDEST PUSH2 0x5D3 JUMP JUMPDEST PUSH2 0x95 PUSH2 0xB8 CALLDATASIZE PUSH1 0x4 PUSH2 0x280D JUMP JUMPDEST PUSH2 0xD82 JUMP JUMPDEST PUSH2 0x95 PUSH2 0xCB CALLDATASIZE PUSH1 0x4 PUSH2 0x2796 JUMP JUMPDEST PUSH2 0xE74 JUMP JUMPDEST PUSH2 0x95 PUSH2 0xDE CALLDATASIZE PUSH1 0x4 PUSH2 0x2843 JUMP JUMPDEST PUSH2 0x1575 JUMP JUMPDEST PUSH2 0x95 PUSH2 0xF1 CALLDATASIZE PUSH1 0x4 PUSH2 0x2843 JUMP JUMPDEST PUSH2 0x1A69 JUMP JUMPDEST PUSH2 0x95 PUSH2 0x104 CALLDATASIZE PUSH1 0x4 PUSH2 0x2796 JUMP JUMPDEST PUSH2 0x1F5C JUMP JUMPDEST PUSH20 0x0 PUSH4 0x110CA0AB PUSH1 0x0 DUP1 SLOAD SWAP1 PUSH2 0x100 EXP SWAP1 DIV PUSH20 0xFFFFFFFFFFFFFFFFFFFFFFFFFFFFFFFFFFFFFFFF AND PUSH20 0xFFFFFFFFFFFFFFFFFFFFFFFFFFFFFFFFFFFFFFFF AND PUSH4 0xDD9CD55B PUSH1 0x40 MLOAD DUP2 PUSH4 0xFFFFFFFF AND PUSH1 0xE0 SHL DUP2 MSTORE PUSH1 0x4 ADD PUSH1 0x20 PUSH1 0x40 MLOAD DUP1 DUP4 SUB DUP2 DUP7 GAS STATICCALL ISZERO DUP1 ISZERO PUSH2 0x18E JUMPI RETURNDATASIZE PUSH1 0x0 DUP1 RETURNDATACOPY RETURNDATASIZE PUSH1 0x0 REVERT JUMPDEST POP POP POP POP PUSH1 0x40 MLOAD RETURNDATASIZE PUSH1 0x1F NOT PUSH1 0x1F DUP3 ADD AND DUP3 ADD DUP1 PUSH1 0x40 MSTORE POP DUP2 ADD SWAP1 PUSH2 0x1B2 SWAP2 SWAP1 PUSH2 0x2880 JUMP JUMPDEST PUSH1 0x0 SLOAD PUSH1 0x40 MLOAD PUSH32 0xFFFFFFFF00000000000000000000000000000000000000000000000000000000 PUSH1 0xE0 DUP6 SWAP1 SHL AND DUP2 MSTORE PUSH2 0x207 SWAP3 SWAP2 PUSH20 0xFFFFFFFFFFFFFFFFFFFFFFFFFFFFFFFFFFFFFFFF AND SWAP1 DUP7 SWAP1 PUSH1 0x4 ADD PUSH2 0x2C4E JUMP JUMPDEST PUSH1 0x0 PUSH1 0x40 MLOAD DUP1 DUP4 SUB DUP2 DUP7 DUP1 EXTCODESIZE ISZERO DUP1 ISZERO PUSH2 0x21F JUMPI PUSH1 0x0 DUP1 REVERT JUMPDEST POP GAS DELEGATECALL ISZERO DUP1 ISZERO PUSH2 0x233 JUMPI RETURNDATASIZE PUSH1 0x0 DUP1 RETURNDATACOPY RETURNDATASIZE PUSH1 0x0 REVERT JUMPDEST POP POP PUSH1 0x40 MLOAD PUSH32 0xEF33100500000000000000000000000000000000000000000000000000000000 DUP2 MSTORE PUSH20 0x0 SWAP3 POP PUSH4 0xEF331005 SWAP2 POP PUSH2 0x287 SWAP1 DUP5 SWAP1 PUSH1 0x4 ADD PUSH2 0x2C90 JUMP JUMPDEST PUSH1 0x0 PUSH1 0x40 MLOAD DUP1 DUP4 SUB DUP2 DUP7 DUP1 EXTCODESIZE ISZERO DUP1 ISZERO PUSH2 0x29F JUMPI PUSH1 0x0 DUP1 REVERT JUMPDEST POP GAS DELEGATECALL ISZERO DUP1 ISZERO PUSH2 0x2B3 JUMPI RETURNDATASIZE PUSH1 0x0 DUP1 RETURNDATACOPY RETURNDATASIZE PUSH1 0x0 REVERT JUMPDEST POP POP POP POP PUSH20 0x0 PUSH4 0x64D4138 DUP3 DUP1 PUSH1 0x20 ADD SWAP1 PUSH2 0x2E1 SWAP2 SWAP1 PUSH2 0x2CA3 JUMP JUMPDEST PUSH2 0x2F2 PUSH2 0x100 DUP6 ADD PUSH1 0xE0 DUP7 ADD PUSH2 0x280D JUMP JUMPDEST CALLER PUSH2 0x303 PUSH1 0x80 DUP8 ADD PUSH1 0x60 DUP9 ADD PUSH2 0x280D JUMP JUMPDEST PUSH1 0x0 DUP1 SLOAD SWAP1 PUSH2 0x100 EXP SWAP1 DIV PUSH20 0xFFFFFFFFFFFFFFFFFFFFFFFFFFFFFFFFFFFFFFFF AND PUSH20 0xFFFFFFFFFFFFFFFFFFFFFFFFFFFFFFFFFFFFFFFF AND PUSH4 0x38AF3EED PUSH1 0x40 MLOAD DUP2 PUSH4 0xFFFFFFFF AND PUSH1 0xE0 SHL DUP2 MSTORE PUSH1 0x4 ADD PUSH1 0x20 PUSH1 0x40 MLOAD DUP1 DUP4 SUB DUP2 DUP7 GAS STATICCALL ISZERO DUP1 ISZERO PUSH2 0x36E JUMPI RETURNDATASIZE PUSH1 0x0 DUP1 RETURNDATACOPY RETURNDATASIZE PUSH1 0x0 REVERT JUMPDEST POP POP POP POP PUSH1 0x40 MLOAD RETURNDATASIZE PUSH1 0x1F NOT PUSH1 0x1F DUP3 ADD AND DUP3 ADD DUP1 PUSH1 0x40 MSTORE POP DUP2 ADD SWAP1 PUSH2 0x392 SWAP2 SWAP1 PUSH2 0x2880 JUMP JUMPDEST PUSH2 0x100 DUP9 ADD CALLDATALOAD PUSH2 0x3A6 PUSH2 0x1A0 DUP11 ADD DUP11 PUSH2 0x2CE1 JUMP JUMPDEST PUSH1 0x20 ADD CALLDATALOAD PUSH1 0x40 MLOAD DUP9 PUSH4 0xFFFFFFFF AND PUSH1 0xE0 SHL DUP2 MSTORE PUSH1 0x4 ADD PUSH2 0x3CC SWAP8 SWAP7 SWAP6 SWAP5 SWAP4 SWAP3 SWAP2 SWAP1 PUSH2 0x2D15 JUMP JUMPDEST PUSH1 0x0 PUSH1 0x40 MLOAD DUP1 DUP4 SUB DUP2 DUP7 DUP1 EXTCODESIZE ISZERO DUP1 ISZERO PUSH2 0x3E4 JUMPI PUSH1 0x0 DUP1 REVERT JUMPDEST POP GAS DELEGATECALL ISZERO DUP1 ISZERO PUSH2 0x3F8 JUMPI RETURNDATASIZE PUSH1 0x0 DUP1 RETURNDATACOPY RETURNDATASIZE PUSH1 0x0 REVERT JUMPDEST POP POP POP POP PUSH20 0x0 PUSH4 0x81B405E4 DUP3 DUP1 PUSH1 0x20 ADD SWAP1 PUSH2 0x426 SWAP2 SWAP1 PUSH2 0x2CA3 JUMP JUMPDEST PUSH1 0x40 MLOAD DUP1 PUSH1 0x80 ADD PUSH1 0x40 MSTORE DUP1 DUP6 PUSH1 0x60 ADD PUSH1 0x20 DUP2 ADD SWAP1 PUSH2 0x444 SWAP2 SWAP1 PUSH2 0x280D JUMP JUMPDEST PUSH20 0xFFFFFFFFFFFFFFFFFFFFFFFFFFFFFFFFFFFFFFFF AND DUP2 MSTORE PUSH1 0x20 ADD PUSH2 0x471 PUSH2 0x200 DUP8 ADD PUSH2 0x1E0 DUP9 ADD PUSH2 0x280D JUMP JUMPDEST PUSH20 0xFFFFFFFFFFFFFFFFFFFFFFFFFFFFFFFFFFFFFFFF AND DUP2 MSTORE PUSH1 0xC0 DUP7 ADD CALLDATALOAD PUSH1 0x20 DUP3 ADD MSTORE PUSH1 0x40 SWAP1 DUP2 ADD SWAP1 PUSH2 0x4A5 SWAP1 DUP8 ADD DUP8 PUSH2 0x2D73 JUMP JUMPDEST DUP1 DUP1 PUSH1 0x1F ADD PUSH1 0x20 DUP1 SWAP2 DIV MUL PUSH1 0x20 ADD PUSH1 0x40 MLOAD SWAP1 DUP2 ADD PUSH1 0x40 MSTORE DUP1 SWAP4 SWAP3 SWAP2 SWAP1 DUP2 DUP2 MSTORE PUSH1 0x20 ADD DUP4 DUP4 DUP1 DUP3 DUP5 CALLDATACOPY PUSH1 0x0 SWAP3 ADD SWAP2 SWAP1 SWAP2 MSTORE POP POP POP SWAP2 MSTORE POP PUSH1 0x40 MLOAD PUSH32 0xFFFFFFFF00000000000000000000000000000000000000000000000000000000 PUSH1 0xE0 DUP6 SWAP1 SHL AND DUP2 MSTORE PUSH2 0x515 SWAP3 SWAP2 SWAP1 PUSH1 0x4 ADD PUSH2 0x2DD8 JUMP JUMPDEST PUSH1 0x0 PUSH1 0x40 MLOAD DUP1 DUP4 SUB DUP2 DUP7 DUP1 EXTCODESIZE ISZERO DUP1 ISZERO PUSH2 0x52D JUMPI PUSH1 0x0 DUP1 REVERT JUMPDEST POP GAS DELEGATECALL ISZERO DUP1 ISZERO PUSH2 0x541 JUMPI RETURNDATASIZE PUSH1 0x0 DUP1 RETURNDATACOPY RETURNDATASIZE PUSH1 0x0 REVERT JUMPDEST POP PUSH2 0x558 SWAP3 POP POP POP PUSH2 0x200 DUP3 ADD PUSH2 0x1E0 DUP4 ADD PUSH2 0x280D JUMP JUMPDEST PUSH1 0x40 DUP1 MLOAD PUSH1 0x0 DUP2 MSTORE PUSH1 0x80 DUP1 DUP6 ADD CALLDATALOAD PUSH1 0x20 DUP4 ADD MSTORE PUSH1 0xC0 DUP6 ADD CALLDATALOAD SWAP3 DUP3 ADD SWAP3 SWAP1 SWAP3 MSTORE PUSH2 0x100 DUP5 ADD CALLDATALOAD PUSH1 0x60 DUP3 ADD MSTORE PUSH20 0xFFFFFFFFFFFFFFFFFFFFFFFFFFFFFFFFFFFFFFFF SWAP3 SWAP1 SWAP3 AND SWAP2 CALLER SWAP2 PUSH1 0xA0 DUP6 ADD CALLDATALOAD SWAP2 PUSH32 0x307F70CE93B386B533090CBC3C2EB687B292AD5F5222F9F75C4003C41BA86D35 SWAP2 ADD JUMPDEST PUSH1 0x40 MLOAD DUP1 SWAP2 SUB SWAP1 LOG4 POP JUMP JUMPDEST PUSH1 0x0 JUMPDEST DUP2 DUP2 LT ISZERO PUSH2 0xD7D JUMPI PUSH20 0x0 PUSH4 0xF3326FF5 PUSH1 0x0 DUP1 SLOAD SWAP1 PUSH2 0x100 EXP SWAP1 DIV PUSH20 0xFFFFFFFFFFFFFFFFFFFFFFFFFFFFFFFFFFFFFFFF AND PUSH20 0xFFFFFFFFFFFFFFFFFFFFFFFFFFFFFFFFFFFFFFFF AND PUSH4 0xDD9CD55B PUSH1 0x40 MLOAD DUP2 PUSH4 0xFFFFFFFF AND PUSH1 0xE0 SHL DUP2 MSTORE PUSH1 0x4 ADD PUSH1 0x20 PUSH1 0x40 MLOAD DUP1 DUP4 SUB DUP2 DUP7 GAS STATICCALL ISZERO DUP1 ISZERO PUSH2 0x663 JUMPI RETURNDATASIZE PUSH1 0x0 DUP1 RETURNDATACOPY RETURNDATASIZE PUSH1 0x0 REVERT JUMPDEST POP POP POP POP PUSH1 0x40 MLOAD RETURNDATASIZE PUSH1 0x1F NOT PUSH1 0x1F DUP3 ADD AND DUP3 ADD DUP1 PUSH1 0x40 MSTORE POP DUP2 ADD SWAP1 PUSH2 0x687 SWAP2 SWAP1 PUSH2 0x2880 JUMP JUMPDEST PUSH1 0x0 SLOAD PUSH20 0xFFFFFFFFFFFFFFFFFFFFFFFFFFFFFFFFFFFFFFFF AND DUP7 DUP7 DUP7 DUP2 DUP2 LT PUSH2 0x6B2 JUMPI PUSH2 0x6B2 PUSH2 0x2EA0 JUMP JUMPDEST SWAP1 POP PUSH1 0x20 MUL DUP2 ADD SWAP1 PUSH2 0x6C4 SWAP2 SWAP1 PUSH2 0x2ECF JUMP JUMPDEST PUSH1 0x40 MLOAD DUP5 PUSH4 0xFFFFFFFF AND PUSH1 0xE0 SHL DUP2 MSTORE PUSH1 0x4 ADD PUSH2 0x6E2 SWAP4 SWAP3 SWAP2 SWAP1 PUSH2 0x3180 JUMP JUMPDEST PUSH1 0x0 PUSH1 0x40 MLOAD DUP1 DUP4 SUB DUP2 DUP7 DUP1 EXTCODESIZE ISZERO DUP1 ISZERO PUSH2 0x6FA JUMPI PUSH1 0x0 DUP1 REVERT JUMPDEST POP GAS DELEGATECALL ISZERO DUP1 ISZERO PUSH2 0x70E JUMPI RETURNDATASIZE PUSH1 0x0 DUP1 RETURNDATACOPY RETURNDATASIZE PUSH1 0x0 REVERT JUMPDEST POP POP POP POP PUSH20 0x0 PUSH4 0x233DC4EB DUP5 DUP5 DUP5 DUP2 DUP2 LT PUSH2 0x73E JUMPI PUSH2 0x73E PUSH2 0x2EA0 JUMP JUMPDEST SWAP1 POP PUSH1 0x20 MUL DUP2 ADD SWAP1 PUSH2 0x750 SWAP2 SWAP1 PUSH2 0x2ECF JUMP JUMPDEST PUSH1 0x40 MLOAD DUP3 PUSH4 0xFFFFFFFF AND PUSH1 0xE0 SHL DUP2 MSTORE PUSH1 0x4 ADD PUSH2 0x76C SWAP2 SWAP1 PUSH2 0x31B9 JUMP JUMPDEST PUSH1 0x0 PUSH1 0x40 MLOAD DUP1 DUP4 SUB DUP2 DUP7 DUP1 EXTCODESIZE ISZERO DUP1 ISZERO PUSH2 0x784 JUMPI PUSH1 0x0 DUP1 REVERT JUMPDEST POP GAS DELEGATECALL ISZERO DUP1 ISZERO PUSH2 0x798 JUMPI RETURNDATASIZE PUSH1 0x0 DUP1 RETURNDATACOPY RETURNDATASIZE PUSH1 0x0 REVERT JUMPDEST POP POP POP POP PUSH20 0x0 PUSH4 0x64D4138 DUP5 DUP5 DUP5 DUP2 DUP2 LT PUSH2 0x7C8 JUMPI PUSH2 0x7C8 PUSH2 0x2EA0 JUMP JUMPDEST SWAP1 POP PUSH1 0x20 MUL DUP2 ADD SWAP1 PUSH2 0x7DA SWAP2 SWAP1 PUSH2 0x2ECF JUMP JUMPDEST PUSH2 0x7E8 SWAP1 PUSH1 0x20 DUP2 ADD SWAP1 PUSH2 0x2CA3 JUMP JUMPDEST DUP6 DUP6 DUP6 DUP2 DUP2 LT PUSH2 0x7FA JUMPI PUSH2 0x7FA PUSH2 0x2EA0 JUMP JUMPDEST SWAP1 POP PUSH1 0x20 MUL DUP2 ADD SWAP1 PUSH2 0x80C SWAP2 SWAP1 PUSH2 0x2ECF JUMP JUMPDEST PUSH2 0x81E SWAP1 PUSH2 0x100 DUP2 ADD SWAP1 PUSH1 0xE0 ADD PUSH2 0x280D JUMP JUMPDEST DUP7 DUP7 DUP7 DUP2 DUP2 LT PUSH2 0x830 JUMPI PUSH2 0x830 PUSH2 0x2EA0 JUMP JUMPDEST SWAP1 POP PUSH1 0x20 MUL DUP2 ADD SWAP1 PUSH2 0x842 SWAP2 SWAP1 PUSH2 0x2ECF JUMP JUMPDEST PUSH2 0x855 SWAP1 PUSH2 0x220 DUP2 ADD SWAP1 PUSH2 0x200 ADD PUSH2 0x280D JUMP JUMPDEST DUP8 DUP8 DUP8 DUP2 DUP2 LT PUSH2 0x867 JUMPI PUSH2 0x867 PUSH2 0x2EA0 JUMP JUMPDEST SWAP1 POP PUSH1 0x20 MUL DUP2 ADD SWAP1 PUSH2 0x879 SWAP2 SWAP1 PUSH2 0x2ECF JUMP JUMPDEST PUSH2 0x88A SWAP1 PUSH1 0x80 DUP2 ADD SWAP1 PUSH1 0x60 ADD PUSH2 0x280D JUMP JUMPDEST PUSH1 0x0 DUP1 SLOAD SWAP1 PUSH2 0x100 EXP SWAP1 DIV PUSH20 0xFFFFFFFFFFFFFFFFFFFFFFFFFFFFFFFFFFFFFFFF AND PUSH20 0xFFFFFFFFFFFFFFFFFFFFFFFFFFFFFFFFFFFFFFFF AND PUSH4 0x38AF3EED PUSH1 0x40 MLOAD DUP2 PUSH4 0xFFFFFFFF AND PUSH1 0xE0 SHL DUP2 MSTORE PUSH1 0x4 ADD PUSH1 0x20 PUSH1 0x40 MLOAD DUP1 DUP4 SUB DUP2 DUP7 GAS STATICCALL ISZERO DUP1 ISZERO PUSH2 0x8F5 JUMPI RETURNDATASIZE PUSH1 0x0 DUP1 RETURNDATACOPY RETURNDATASIZE PUSH1 0x0 REVERT JUMPDEST POP POP POP POP PUSH1 0x40 MLOAD RETURNDATASIZE PUSH1 0x1F NOT PUSH1 0x1F DUP3 ADD AND DUP3 ADD DUP1 PUSH1 0x40 MSTORE POP DUP2 ADD SWAP1 PUSH2 0x919 SWAP2 SWAP1 PUSH2 0x2880 JUMP JUMPDEST DUP10 DUP10 DUP10 DUP2 DUP2 LT PUSH2 0x92B JUMPI PUSH2 0x92B PUSH2 0x2EA0 JUMP JUMPDEST SWAP1 POP PUSH1 0x20 MUL DUP2 ADD SWAP1 PUSH2 0x93D SWAP2 SWAP1 PUSH2 0x2ECF JUMP JUMPDEST PUSH2 0x260 ADD CALLDATALOAD DUP11 DUP11 DUP11 DUP2 DUP2 LT PUSH2 0x954 JUMPI PUSH2 0x954 PUSH2 0x2EA0 JUMP JUMPDEST SWAP1 POP PUSH1 0x20 MUL DUP2 ADD SWAP1 PUSH2 0x966 SWAP2 SWAP1 PUSH2 0x2ECF JUMP JUMPDEST PUSH2 0x975 SWAP1 PUSH2 0x1C0 DUP2 ADD SWAP1 PUSH2 0x2CE1 JUMP JUMPDEST PUSH1 0x20 ADD CALLDATALOAD PUSH1 0x40 MLOAD DUP9 PUSH4 0xFFFFFFFF AND PUSH1 0xE0 SHL DUP2 MSTORE PUSH1 0x4 ADD PUSH2 0x99B SWAP8 SWAP7 SWAP6 SWAP5 SWAP4 SWAP3 SWAP2 SWAP1 PUSH2 0x2D15 JUMP JUMPDEST PUSH1 0x0 PUSH1 0x40 MLOAD DUP1 DUP4 SUB DUP2 DUP7 DUP1 EXTCODESIZE ISZERO DUP1 ISZERO PUSH2 0x9B3 JUMPI PUSH1 0x0 DUP1 REVERT JUMPDEST POP GAS DELEGATECALL ISZERO DUP1 ISZERO PUSH2 0x9C7 JUMPI RETURNDATASIZE PUSH1 0x0 DUP1 RETURNDATACOPY RETURNDATASIZE PUSH1 0x0 REVERT JUMPDEST POP POP POP POP PUSH20 0x0 PUSH4 0x81B405E4 DUP5 DUP5 DUP5 DUP2 DUP2 LT PUSH2 0x9F7 JUMPI PUSH2 0x9F7 PUSH2 0x2EA0 JUMP JUMPDEST SWAP1 POP PUSH1 0x20 MUL DUP2 ADD SWAP1 PUSH2 0xA09 SWAP2 SWAP1 PUSH2 0x2ECF JUMP JUMPDEST PUSH2 0xA17 SWAP1 PUSH1 0x20 DUP2 ADD SWAP1 PUSH2 0x2CA3 JUMP JUMPDEST PUSH1 0x40 MLOAD DUP1 PUSH1 0x80 ADD PUSH1 0x40 MSTORE DUP1 DUP8 DUP8 DUP8 DUP2 DUP2 LT PUSH2 0xA34 JUMPI PUSH2 0xA34 PUSH2 0x2EA0 JUMP JUMPDEST SWAP1 POP PUSH1 0x20 MUL DUP2 ADD SWAP1 PUSH2 0xA46 SWAP2 SWAP1 PUSH2 0x2ECF JUMP JUMPDEST PUSH2 0xA57 SWAP1 PUSH1 0x80 DUP2 ADD SWAP1 PUSH1 0x60 ADD PUSH2 0x280D JUMP JUMPDEST PUSH20 0xFFFFFFFFFFFFFFFFFFFFFFFFFFFFFFFFFFFFFFFF AND DUP2 MSTORE PUSH1 0x20 ADD DUP8 DUP8 DUP8 DUP2 DUP2 LT PUSH2 0xA84 JUMPI PUSH2 0xA84 PUSH2 0x2EA0 JUMP JUMPDEST SWAP1 POP PUSH1 0x20 MUL DUP2 ADD SWAP1 PUSH2 0xA96 SWAP2 SWAP1 PUSH2 0x2ECF JUMP JUMPDEST PUSH2 0xAA9 SWAP1 PUSH2 0x240 DUP2 ADD SWAP1 PUSH2 0x220 ADD PUSH2 0x280D JUMP JUMPDEST PUSH20 0xFFFFFFFFFFFFFFFFFFFFFFFFFFFFFFFFFFFFFFFF AND DUP2 MSTORE PUSH1 0x20 ADD DUP8 DUP8 DUP8 DUP2 DUP2 LT PUSH2 0xAD6 JUMPI PUSH2 0xAD6 PUSH2 0x2EA0 JUMP JUMPDEST SWAP1 POP PUSH1 0x20 MUL DUP2 ADD SWAP1 PUSH2 0xAE8 SWAP2 SWAP1 PUSH2 0x2ECF JUMP JUMPDEST PUSH1 0xC0 ADD CALLDATALOAD DUP2 MSTORE PUSH1 0x20 ADD DUP8 DUP8 DUP8 DUP2 DUP2 LT PUSH2 0xB03 JUMPI PUSH2 0xB03 PUSH2 0x2EA0 JUMP JUMPDEST SWAP1 POP PUSH1 0x20 MUL DUP2 ADD SWAP1 PUSH2 0xB15 SWAP2 SWAP1 PUSH2 0x2ECF JUMP JUMPDEST PUSH2 0xB23 SWAP1 PUSH1 0x40 DUP2 ADD SWAP1 PUSH2 0x2D73 JUMP JUMPDEST DUP1 DUP1 PUSH1 0x1F ADD PUSH1 0x20 DUP1 SWAP2 DIV MUL PUSH1 0x20 ADD PUSH1 0x40 MLOAD SWAP1 DUP2 ADD PUSH1 0x40 MSTORE DUP1 SWAP4 SWAP3 SWAP2 SWAP1 DUP2 DUP2 MSTORE PUSH1 0x20 ADD DUP4 DUP4 DUP1 DUP3 DUP5 CALLDATACOPY PUSH1 0x0 SWAP3 ADD SWAP2 SWAP1 SWAP2 MSTORE POP POP POP SWAP2 MSTORE POP PUSH1 0x40 MLOAD PUSH32 0xFFFFFFFF00000000000000000000000000000000000000000000000000000000 PUSH1 0xE0 DUP6 SWAP1 SHL AND DUP2 MSTORE PUSH2 0xB93 SWAP3 SWAP2 SWAP1 PUSH1 0x4 ADD PUSH2 0x2DD8 JUMP JUMPDEST PUSH1 0x0 PUSH1 0x40 MLOAD DUP1 DUP4 SUB DUP2 DUP7 DUP1 EXTCODESIZE ISZERO DUP1 ISZERO PUSH2 0xBAB JUMPI PUSH1 0x0 DUP1 REVERT JUMPDEST POP GAS DELEGATECALL ISZERO DUP1 ISZERO PUSH2 0xBBF JUMPI RETURNDATASIZE PUSH1 0x0 DUP1 RETURNDATACOPY RETURNDATASIZE PUSH1 0x0 REVERT JUMPDEST POP POP POP POP DUP3 DUP3 DUP3 DUP2 DUP2 LT PUSH2 0xBD5 JUMPI PUSH2 0xBD5 PUSH2 0x2EA0 JUMP JUMPDEST SWAP1 POP PUSH1 0x20 MUL DUP2 ADD SWAP1 PUSH2 0xBE7 SWAP2 SWAP1 PUSH2 0x2ECF JUMP JUMPDEST PUSH2 0xBFA SWAP1 PUSH2 0x240 DUP2 ADD SWAP1 PUSH2 0x220 ADD PUSH2 0x280D JUMP JUMPDEST PUSH20 0xFFFFFFFFFFFFFFFFFFFFFFFFFFFFFFFFFFFFFFFF AND DUP4 DUP4 DUP4 DUP2 DUP2 LT PUSH2 0xC22 JUMPI PUSH2 0xC22 PUSH2 0x2EA0 JUMP JUMPDEST SWAP1 POP PUSH1 0x20 MUL DUP2 ADD SWAP1 PUSH2 0xC34 SWAP2 SWAP1 PUSH2 0x2ECF JUMP JUMPDEST PUSH2 0xC47 SWAP1 PUSH2 0x220 DUP2 ADD SWAP1 PUSH2 0x200 ADD PUSH2 0x280D JUMP JUMPDEST PUSH20 0xFFFFFFFFFFFFFFFFFFFFFFFFFFFFFFFFFFFFFFFF AND DUP5 DUP5 DUP5 DUP2 DUP2 LT PUSH2 0xC6F JUMPI PUSH2 0xC6F PUSH2 0x2EA0 JUMP JUMPDEST SWAP1 POP PUSH1 0x20 MUL DUP2 ADD SWAP1 PUSH2 0xC81 SWAP2 SWAP1 PUSH2 0x2ECF JUMP JUMPDEST PUSH1 0xA0 ADD CALLDATALOAD PUSH32 0xB93F3019E030940D28A0829C84DDFFB6F58979B9E3A8DA60AC5419319797EEF6 DUP7 DUP7 DUP7 DUP2 DUP2 LT PUSH2 0xCB8 JUMPI PUSH2 0xCB8 PUSH2 0x2EA0 JUMP JUMPDEST SWAP1 POP PUSH1 0x20 MUL DUP2 ADD SWAP1 PUSH2 0xCCA SWAP2 SWAP1 PUSH2 0x2ECF JUMP JUMPDEST PUSH2 0xCD9 SWAP1 PUSH2 0x280 DUP2 ADD SWAP1 PUSH2 0x2D73 JUMP JUMPDEST DUP9 DUP9 DUP9 DUP2 DUP2 LT PUSH2 0xCEB JUMPI PUSH2 0xCEB PUSH2 0x2EA0 JUMP JUMPDEST SWAP1 POP PUSH1 0x20 MUL DUP2 ADD SWAP1 PUSH2 0xCFD SWAP2 SWAP1 PUSH2 0x2ECF JUMP JUMPDEST PUSH1 0x80 ADD CALLDATALOAD DUP10 DUP10 DUP10 DUP2 DUP2 LT PUSH2 0xD13 JUMPI PUSH2 0xD13 PUSH2 0x2EA0 JUMP JUMPDEST SWAP1 POP PUSH1 0x20 MUL DUP2 ADD SWAP1 PUSH2 0xD25 SWAP2 SWAP1 PUSH2 0x2ECF JUMP JUMPDEST PUSH1 0xC0 ADD CALLDATALOAD DUP11 DUP11 DUP11 DUP2 DUP2 LT PUSH2 0xD3B JUMPI PUSH2 0xD3B PUSH2 0x2EA0 JUMP JUMPDEST SWAP1 POP PUSH1 0x20 MUL DUP2 ADD SWAP1 PUSH2 0xD4D SWAP2 SWAP1 PUSH2 0x2ECF JUMP JUMPDEST PUSH1 0x40 MLOAD PUSH2 0xD63 SWAP6 SWAP5 SWAP4 SWAP3 SWAP2 PUSH2 0x260 ADD CALLDATALOAD SWAP1 PUSH2 0x31CC JUMP JUMPDEST PUSH1 0x40 MLOAD DUP1 SWAP2 SUB SWAP1 LOG4 DUP1 PUSH2 0xD75 DUP2 PUSH2 0x31FD JUMP JUMPDEST SWAP2 POP POP PUSH2 0x5D6 JUMP JUMPDEST POP POP POP JUMP JUMPDEST PUSH1 0x1 SLOAD PUSH20 0xFFFFFFFFFFFFFFFFFFFFFFFFFFFFFFFFFFFFFFFF AND CALLER EQ PUSH2 0xE07 JUMPI PUSH1 0x40 MLOAD PUSH32 0x8C379A000000000000000000000000000000000000000000000000000000000 DUP2 MSTORE PUSH1 0x20 PUSH1 0x4 DUP3 ADD MSTORE PUSH1 0x18 PUSH1 0x24 DUP3 ADD MSTORE PUSH32 0x596F7520617265206E6F742077686974656C69737465642E0000000000000000 PUSH1 0x44 DUP3 ADD MSTORE PUSH1 0x64 ADD PUSH1 0x40 MLOAD DUP1 SWAP2 SUB SWAP1 REVERT JUMPDEST PUSH1 0x0 DUP1 SLOAD PUSH32 0xFFFFFFFFFFFFFFFFFFFFFFFF0000000000000000000000000000000000000000 AND PUSH20 0xFFFFFFFFFFFFFFFFFFFFFFFFFFFFFFFFFFFFFFFF DUP4 AND SWAP1 DUP2 OR DUP3 SSTORE PUSH1 0x40 MLOAD SWAP1 SWAP2 PUSH32 0x66C87B90DB4CA36D99DDF5261EE0240A5BEFB09FC7EE6FAE65DE47632A01AE4E SWAP2 LOG2 POP JUMP JUMPDEST PUSH1 0x0 JUMPDEST DUP2 DUP2 LT ISZERO PUSH2 0xD7D JUMPI PUSH20 0x0 PUSH4 0x110CA0AB PUSH1 0x0 DUP1 SLOAD SWAP1 PUSH2 0x100 EXP SWAP1 DIV PUSH20 0xFFFFFFFFFFFFFFFFFFFFFFFFFFFFFFFFFFFFFFFF AND PUSH20 0xFFFFFFFFFFFFFFFFFFFFFFFFFFFFFFFFFFFFFFFF AND PUSH4 0xDD9CD55B PUSH1 0x40 MLOAD DUP2 PUSH4 0xFFFFFFFF AND PUSH1 0xE0 SHL DUP2 MSTORE PUSH1 0x4 ADD PUSH1 0x20 PUSH1 0x40 MLOAD DUP1 DUP4 SUB DUP2 DUP7 GAS STATICCALL ISZERO DUP1 ISZERO PUSH2 0xF04 JUMPI RETURNDATASIZE PUSH1 0x0 DUP1 RETURNDATACOPY RETURNDATASIZE PUSH1 0x0 REVERT JUMPDEST POP POP POP POP PUSH1 0x40 MLOAD RETURNDATASIZE PUSH1 0x1F NOT PUSH1 0x1F DUP3 ADD AND DUP3 ADD DUP1 PUSH1 0x40 MSTORE POP DUP2 ADD SWAP1 PUSH2 0xF28 SWAP2 SWAP1 PUSH2 0x2880 JUMP JUMPDEST PUSH1 0x0 SLOAD PUSH20 0xFFFFFFFFFFFFFFFFFFFFFFFFFFFFFFFFFFFFFFFF AND DUP7 DUP7 DUP7 DUP2 DUP2 LT PUSH2 0xF53 JUMPI PUSH2 0xF53 PUSH2 0x2EA0 JUMP JUMPDEST SWAP1 POP PUSH1 0x20 MUL DUP2 ADD SWAP1 PUSH2 0xF65 SWAP2 SWAP1 PUSH2 0x325C JUMP JUMPDEST PUSH1 0x40 MLOAD DUP5 PUSH4 0xFFFFFFFF AND PUSH1 0xE0 SHL DUP2 MSTORE PUSH1 0x4 ADD PUSH2 0xF83 SWAP4 SWAP3 SWAP2 SWAP1 PUSH2 0x2C4E JUMP JUMPDEST PUSH1 0x0 PUSH1 0x40 MLOAD DUP1 DUP4 SUB DUP2 DUP7 DUP1 EXTCODESIZE ISZERO DUP1 ISZERO PUSH2 0xF9B JUMPI PUSH1 0x0 DUP1 REVERT JUMPDEST POP GAS DELEGATECALL ISZERO DUP1 ISZERO PUSH2 0xFAF JUMPI RETURNDATASIZE PUSH1 0x0 DUP1 RETURNDATACOPY RETURNDATASIZE PUSH1 0x0 REVERT JUMPDEST POP POP POP POP PUSH20 0x0 PUSH4 0xEF331005 DUP5 DUP5 DUP5 DUP2 DUP2 LT PUSH2 0xFDF JUMPI PUSH2 0xFDF PUSH2 0x2EA0 JUMP JUMPDEST SWAP1 POP PUSH1 0x20 MUL DUP2 ADD SWAP1 PUSH2 0xFF1 SWAP2 SWAP1 PUSH2 0x325C JUMP JUMPDEST PUSH1 0x40 MLOAD DUP3 PUSH4 0xFFFFFFFF AND PUSH1 0xE0 SHL DUP2 MSTORE PUSH1 0x4 ADD PUSH2 0x100D SWAP2 SWAP1 PUSH2 0x2C90 JUMP JUMPDEST PUSH1 0x0 PUSH1 0x40 MLOAD DUP1 DUP4 SUB DUP2 DUP7 DUP1 EXTCODESIZE ISZERO DUP1 ISZERO PUSH2 0x1025 JUMPI PUSH1 0x0 DUP1 REVERT JUMPDEST POP GAS DELEGATECALL ISZERO DUP1 ISZERO PUSH2 0x1039 JUMPI RETURNDATASIZE PUSH1 0x0 DUP1 RETURNDATACOPY RETURNDATASIZE PUSH1 0x0 REVERT JUMPDEST POP POP POP POP PUSH20 0x0 PUSH4 0x64D4138 DUP5 DUP5 DUP5 DUP2 DUP2 LT PUSH2 0x1069 JUMPI PUSH2 0x1069 PUSH2 0x2EA0 JUMP JUMPDEST SWAP1 POP PUSH1 0x20 MUL DUP2 ADD SWAP1 PUSH2 0x107B SWAP2 SWAP1 PUSH2 0x325C JUMP JUMPDEST PUSH2 0x1089 SWAP1 PUSH1 0x20 DUP2 ADD SWAP1 PUSH2 0x2CA3 JUMP JUMPDEST DUP6 DUP6 DUP6 DUP2 DUP2 LT PUSH2 0x109B JUMPI PUSH2 0x109B PUSH2 0x2EA0 JUMP JUMPDEST SWAP1 POP PUSH1 0x20 MUL DUP2 ADD SWAP1 PUSH2 0x10AD SWAP2 SWAP1 PUSH2 0x325C JUMP JUMPDEST PUSH2 0x10BF SWAP1 PUSH2 0x100 DUP2 ADD SWAP1 PUSH1 0xE0 ADD PUSH2 0x280D JUMP JUMPDEST CALLER DUP8 DUP8 DUP8 DUP2 DUP2 LT PUSH2 0x10D2 JUMPI PUSH2 0x10D2 PUSH2 0x2EA0 JUMP JUMPDEST SWAP1 POP PUSH1 0x20 MUL DUP2 ADD SWAP1 PUSH2 0x10E4 SWAP2 SWAP1 PUSH2 0x325C JUMP JUMPDEST PUSH2 0x10F5 SWAP1 PUSH1 0x80 DUP2 ADD SWAP1 PUSH1 0x60 ADD PUSH2 0x280D JUMP JUMPDEST PUSH1 0x0 DUP1 SLOAD SWAP1 PUSH2 0x100 EXP SWAP1 DIV PUSH20 0xFFFFFFFFFFFFFFFFFFFFFFFFFFFFFFFFFFFFFFFF AND PUSH20 0xFFFFFFFFFFFFFFFFFFFFFFFFFFFFFFFFFFFFFFFF AND PUSH4 0x38AF3EED PUSH1 0x40 MLOAD DUP2 PUSH4 0xFFFFFFFF AND PUSH1 0xE0 SHL DUP2 MSTORE PUSH1 0x4 ADD PUSH1 0x20 PUSH1 0x40 MLOAD DUP1 DUP4 SUB DUP2 DUP7 GAS STATICCALL ISZERO DUP1 ISZERO PUSH2 0x1160 JUMPI RETURNDATASIZE PUSH1 0x0 DUP1 RETURNDATACOPY RETURNDATASIZE PUSH1 0x0 REVERT JUMPDEST POP POP POP POP PUSH1 0x40 MLOAD RETURNDATASIZE PUSH1 0x1F NOT PUSH1 0x1F DUP3 ADD AND DUP3 ADD DUP1 PUSH1 0x40 MSTORE POP DUP2 ADD SWAP1 PUSH2 0x1184 SWAP2 SWAP1 PUSH2 0x2880 JUMP JUMPDEST DUP10 DUP10 DUP10 DUP2 DUP2 LT PUSH2 0x1196 JUMPI PUSH2 0x1196 PUSH2 0x2EA0 JUMP JUMPDEST SWAP1 POP PUSH1 0x20 MUL DUP2 ADD SWAP1 PUSH2 0x11A8 SWAP2 SWAP1 PUSH2 0x325C JUMP JUMPDEST PUSH2 0x100 ADD CALLDATALOAD DUP11 DUP11 DUP11 DUP2 DUP2 LT PUSH2 0x11BF JUMPI PUSH2 0x11BF PUSH2 0x2EA0 JUMP JUMPDEST SWAP1 POP PUSH1 0x20 MUL DUP2 ADD SWAP1 PUSH2 0x11D1 SWAP2 SWAP1 PUSH2 0x325C JUMP JUMPDEST PUSH2 0x11E0 SWAP1 PUSH2 0x1A0 DUP2 ADD SWAP1 PUSH2 0x2CE1 JUMP JUMPDEST PUSH1 0x20 ADD CALLDATALOAD PUSH1 0x40 MLOAD DUP9 PUSH4 0xFFFFFFFF AND PUSH1 0xE0 SHL DUP2 MSTORE PUSH1 0x4 ADD PUSH2 0x1206 SWAP8 SWAP7 SWAP6 SWAP5 SWAP4 SWAP3 SWAP2 SWAP1 PUSH2 0x2D15 JUMP JUMPDEST PUSH1 0x0 PUSH1 0x40 MLOAD DUP1 DUP4 SUB DUP2 DUP7 DUP1 EXTCODESIZE ISZERO DUP1 ISZERO PUSH2 0x121E JUMPI PUSH1 0x0 DUP1 REVERT JUMPDEST POP GAS DELEGATECALL ISZERO DUP1 ISZERO PUSH2 0x1232 JUMPI RETURNDATASIZE PUSH1 0x0 DUP1 RETURNDATACOPY RETURNDATASIZE PUSH1 0x0 REVERT JUMPDEST POP POP POP POP PUSH20 0x0 PUSH4 0x81B405E4 DUP5 DUP5 DUP5 DUP2 DUP2 LT PUSH2 0x1262 JUMPI PUSH2 0x1262 PUSH2 0x2EA0 JUMP JUMPDEST SWAP1 POP PUSH1 0x20 MUL DUP2 ADD SWAP1 PUSH2 0x1274 SWAP2 SWAP1 PUSH2 0x325C JUMP JUMPDEST PUSH2 0x1282 SWAP1 PUSH1 0x20 DUP2 ADD SWAP1 PUSH2 0x2CA3 JUMP JUMPDEST PUSH1 0x40 MLOAD DUP1 PUSH1 0x80 ADD PUSH1 0x40 MSTORE DUP1 DUP8 DUP8 DUP8 DUP2 DUP2 LT PUSH2 0x129F JUMPI PUSH2 0x129F PUSH2 0x2EA0 JUMP JUMPDEST SWAP1 POP PUSH1 0x20 MUL DUP2 ADD SWAP1 PUSH2 0x12B1 SWAP2 SWAP1 PUSH2 0x325C JUMP JUMPDEST PUSH2 0x12C2 SWAP1 PUSH1 0x80 DUP2 ADD SWAP1 PUSH1 0x60 ADD PUSH2 0x280D JUMP JUMPDEST PUSH20 0xFFFFFFFFFFFFFFFFFFFFFFFFFFFFFFFFFFFFFFFF AND DUP2 MSTORE PUSH1 0x20 ADD DUP8 DUP8 DUP8 DUP2 DUP2 LT PUSH2 0x12EF JUMPI PUSH2 0x12EF PUSH2 0x2EA0 JUMP JUMPDEST SWAP1 POP PUSH1 0x20 MUL DUP2 ADD SWAP1 PUSH2 0x1301 SWAP2 SWAP1 PUSH2 0x325C JUMP JUMPDEST PUSH2 0x1314 SWAP1 PUSH2 0x200 DUP2 ADD SWAP1 PUSH2 0x1E0 ADD PUSH2 0x280D JUMP JUMPDEST PUSH20 0xFFFFFFFFFFFFFFFFFFFFFFFFFFFFFFFFFFFFFFFF AND DUP2 MSTORE PUSH1 0x20 ADD DUP8 DUP8 DUP8 DUP2 DUP2 LT PUSH2 0x1341 JUMPI PUSH2 0x1341 PUSH2 0x2EA0 JUMP JUMPDEST SWAP1 POP PUSH1 0x20 MUL DUP2 ADD SWAP1 PUSH2 0x1353 SWAP2 SWAP1 PUSH2 0x325C JUMP JUMPDEST PUSH1 0xC0 ADD CALLDATALOAD DUP2 MSTORE PUSH1 0x20 ADD DUP8 DUP8 DUP8 DUP2 DUP2 LT PUSH2 0x136E JUMPI PUSH2 0x136E PUSH2 0x2EA0 JUMP JUMPDEST SWAP1 POP PUSH1 0x20 MUL DUP2 ADD SWAP1 PUSH2 0x1380 SWAP2 SWAP1 PUSH2 0x325C JUMP JUMPDEST PUSH2 0x138E SWAP1 PUSH1 0x40 DUP2 ADD SWAP1 PUSH2 0x2D73 JUMP JUMPDEST DUP1 DUP1 PUSH1 0x1F ADD PUSH1 0x20 DUP1 SWAP2 DIV MUL PUSH1 0x20 ADD PUSH1 0x40 MLOAD SWAP1 DUP2 ADD PUSH1 0x40 MSTORE DUP1 SWAP4 SWAP3 SWAP2 SWAP1 DUP2 DUP2 MSTORE PUSH1 0x20 ADD DUP4 DUP4 DUP1 DUP3 DUP5 CALLDATACOPY PUSH1 0x0 SWAP3 ADD SWAP2 SWAP1 SWAP2 MSTORE POP POP POP SWAP2 MSTORE POP PUSH1 0x40 MLOAD PUSH32 0xFFFFFFFF00000000000000000000000000000000000000000000000000000000 PUSH1 0xE0 DUP6 SWAP1 SHL AND DUP2 MSTORE PUSH2 0x13FE SWAP3 SWAP2 SWAP1 PUSH1 0x4 ADD PUSH2 0x2DD8 JUMP JUMPDEST PUSH1 0x0 PUSH1 0x40 MLOAD DUP1 DUP4 SUB DUP2 DUP7 DUP1 EXTCODESIZE ISZERO DUP1 ISZERO PUSH2 0x1416 JUMPI PUSH1 0x0 DUP1 REVERT JUMPDEST POP GAS DELEGATECALL ISZERO DUP1 ISZERO PUSH2 0x142A JUMPI RETURNDATASIZE PUSH1 0x0 DUP1 RETURNDATACOPY RETURNDATASIZE PUSH1 0x0 REVERT JUMPDEST POP POP POP POP DUP3 DUP3 DUP3 DUP2 DUP2 LT PUSH2 0x1440 JUMPI PUSH2 0x1440 PUSH2 0x2EA0 JUMP JUMPDEST SWAP1 POP PUSH1 0x20 MUL DUP2 ADD SWAP1 PUSH2 0x1452 SWAP2 SWAP1 PUSH2 0x325C JUMP JUMPDEST PUSH2 0x1465 SWAP1 PUSH2 0x200 DUP2 ADD SWAP1 PUSH2 0x1E0 ADD PUSH2 0x280D JUMP JUMPDEST PUSH20 0xFFFFFFFFFFFFFFFFFFFFFFFFFFFFFFFFFFFFFFFF AND CALLER DUP5 DUP5 DUP5 DUP2 DUP2 LT PUSH2 0x148E JUMPI PUSH2 0x148E PUSH2 0x2EA0 JUMP JUMPDEST SWAP1 POP PUSH1 0x20 MUL DUP2 ADD SWAP1 PUSH2 0x14A0 SWAP2 SWAP1 PUSH2 0x325C JUMP JUMPDEST PUSH1 0xA0 ADD CALLDATALOAD PUSH32 0x307F70CE93B386B533090CBC3C2EB687B292AD5F5222F9F75C4003C41BA86D35 PUSH1 0x0 DUP8 DUP8 DUP8 DUP2 DUP2 LT PUSH2 0x14D9 JUMPI PUSH2 0x14D9 PUSH2 0x2EA0 JUMP JUMPDEST SWAP1 POP PUSH1 0x20 MUL DUP2 ADD SWAP1 PUSH2 0x14EB SWAP2 SWAP1 PUSH2 0x325C JUMP JUMPDEST PUSH1 0x80 ADD CALLDATALOAD DUP9 DUP9 DUP9 DUP2 DUP2 LT PUSH2 0x1501 JUMPI PUSH2 0x1501 PUSH2 0x2EA0 JUMP JUMPDEST SWAP1 POP PUSH1 0x20 MUL DUP2 ADD SWAP1 PUSH2 0x1513 SWAP2 SWAP1 PUSH2 0x325C JUMP JUMPDEST PUSH1 0xC0 ADD CALLDATALOAD DUP10 DUP10 DUP10 DUP2 DUP2 LT PUSH2 0x1529 JUMPI PUSH2 0x1529 PUSH2 0x2EA0 JUMP JUMPDEST SWAP1 POP PUSH1 0x20 MUL DUP2 ADD SWAP1 PUSH2 0x153B SWAP2 SWAP1 PUSH2 0x325C JUMP JUMPDEST PUSH1 0x40 DUP1 MLOAD SWAP5 DUP6 MSTORE PUSH1 0x20 DUP6 ADD SWAP4 SWAP1 SWAP4 MSTORE SWAP2 DUP4 ADD MSTORE PUSH2 0x100 ADD CALLDATALOAD PUSH1 0x60 DUP3 ADD MSTORE PUSH1 0x80 ADD PUSH1 0x40 MLOAD DUP1 SWAP2 SUB SWAP1 LOG4 DUP1 PUSH2 0x156D DUP2 PUSH2 0x31FD JUMP JUMPDEST SWAP2 POP POP PUSH2 0xE77 JUMP JUMPDEST PUSH20 0x0 PUSH4 0x179C78B5 PUSH1 0x0 DUP1 SLOAD SWAP1 PUSH2 0x100 EXP SWAP1 DIV PUSH20 0xFFFFFFFFFFFFFFFFFFFFFFFFFFFFFFFFFFFFFFFF AND PUSH20 0xFFFFFFFFFFFFFFFFFFFFFFFFFFFFFFFFFFFFFFFF AND PUSH4 0xDD9CD55B PUSH1 0x40 MLOAD DUP2 PUSH4 0xFFFFFFFF AND PUSH1 0xE0 SHL DUP2 MSTORE PUSH1 0x4 ADD PUSH1 0x20 PUSH1 0x40 MLOAD DUP1 DUP4 SUB DUP2 DUP7 GAS STATICCALL ISZERO DUP1 ISZERO PUSH2 0x15FA JUMPI RETURNDATASIZE PUSH1 0x0 DUP1 RETURNDATACOPY RETURNDATASIZE PUSH1 0x0 REVERT JUMPDEST POP POP POP POP PUSH1 0x40 MLOAD RETURNDATASIZE PUSH1 0x1F NOT PUSH1 0x1F DUP3 ADD AND DUP3 ADD DUP1 PUSH1 0x40 MSTORE POP DUP2 ADD SWAP1 PUSH2 0x161E SWAP2 SWAP1 PUSH2 0x2880 JUMP JUMPDEST PUSH1 0x0 SLOAD PUSH1 0x40 MLOAD PUSH32 0xFFFFFFFF00000000000000000000000000000000000000000000000000000000 PUSH1 0xE0 DUP6 SWAP1 SHL AND DUP2 MSTORE PUSH2 0x1673 SWAP3 SWAP2 PUSH20 0xFFFFFFFFFFFFFFFFFFFFFFFFFFFFFFFFFFFFFFFF AND SWAP1 DUP7 SWAP1 PUSH1 0x4 ADD PUSH2 0x3432 JUMP JUMPDEST PUSH1 0x0 PUSH1 0x40 MLOAD DUP1 DUP4 SUB DUP2 DUP7 DUP1 EXTCODESIZE ISZERO DUP1 ISZERO PUSH2 0x168B JUMPI PUSH1 0x0 DUP1 REVERT JUMPDEST POP GAS DELEGATECALL ISZERO DUP1 ISZERO PUSH2 0x169F JUMPI RETURNDATASIZE PUSH1 0x0 DUP1 RETURNDATACOPY RETURNDATASIZE PUSH1 0x0 REVERT JUMPDEST POP POP PUSH1 0x40 MLOAD PUSH32 0x1A94709300000000000000000000000000000000000000000000000000000000 DUP2 MSTORE PUSH20 0x0 SWAP3 POP PUSH4 0x1A947093 SWAP2 POP PUSH2 0x16F3 SWAP1 DUP5 SWAP1 PUSH1 0x4 ADD PUSH2 0x346B JUMP JUMPDEST PUSH1 0x0 PUSH1 0x40 MLOAD DUP1 DUP4 SUB DUP2 DUP7 DUP1 EXTCODESIZE ISZERO DUP1 ISZERO PUSH2 0x170B JUMPI PUSH1 0x0 DUP1 REVERT JUMPDEST POP GAS DELEGATECALL ISZERO DUP1 ISZERO PUSH2 0x171F JUMPI RETURNDATASIZE PUSH1 0x0 DUP1 RETURNDATACOPY RETURNDATASIZE PUSH1 0x0 REVERT JUMPDEST POP POP POP POP PUSH20 0x0 PUSH4 0x64D4138 DUP3 DUP1 PUSH1 0x20 ADD SWAP1 PUSH2 0x174D SWAP2 SWAP1 PUSH2 0x2CA3 JUMP JUMPDEST PUSH2 0x175E PUSH2 0x100 DUP6 ADD PUSH1 0xE0 DUP7 ADD PUSH2 0x280D JUMP JUMPDEST PUSH2 0x1770 PUSH2 0x200 DUP7 ADD PUSH2 0x1E0 DUP8 ADD PUSH2 0x280D JUMP JUMPDEST PUSH2 0x1780 PUSH1 0x80 DUP8 ADD PUSH1 0x60 DUP9 ADD PUSH2 0x280D JUMP JUMPDEST PUSH1 0x0 DUP1 SLOAD SWAP1 PUSH2 0x100 EXP SWAP1 DIV PUSH20 0xFFFFFFFFFFFFFFFFFFFFFFFFFFFFFFFFFFFFFFFF AND PUSH20 0xFFFFFFFFFFFFFFFFFFFFFFFFFFFFFFFFFFFFFFFF AND PUSH4 0x38AF3EED PUSH1 0x40 MLOAD DUP2 PUSH4 0xFFFFFFFF AND PUSH1 0xE0 SHL DUP2 MSTORE PUSH1 0x4 ADD PUSH1 0x20 PUSH1 0x40 MLOAD DUP1 DUP4 SUB DUP2 DUP7 GAS STATICCALL ISZERO DUP1 ISZERO PUSH2 0x17EB JUMPI RETURNDATASIZE PUSH1 0x0 DUP1 RETURNDATACOPY RETURNDATASIZE PUSH1 0x0 REVERT JUMPDEST POP POP POP POP PUSH1 0x40 MLOAD RETURNDATASIZE PUSH1 0x1F NOT PUSH1 0x1F DUP3 ADD AND DUP3 ADD DUP1 PUSH1 0x40 MSTORE POP DUP2 ADD SWAP1 PUSH2 0x180F SWAP2 SWAP1 PUSH2 0x2880 JUMP JUMPDEST PUSH2 0x240 DUP9 ADD CALLDATALOAD PUSH2 0x1823 PUSH2 0x1A0 DUP11 ADD DUP11 PUSH2 0x2CE1 JUMP JUMPDEST PUSH1 0x20 ADD CALLDATALOAD PUSH1 0x40 MLOAD DUP9 PUSH4 0xFFFFFFFF AND PUSH1 0xE0 SHL DUP2 MSTORE PUSH1 0x4 ADD PUSH2 0x1849 SWAP8 SWAP7 SWAP6 SWAP5 SWAP4 SWAP3 SWAP2 SWAP1 PUSH2 0x2D15 JUMP JUMPDEST PUSH1 0x0 PUSH1 0x40 MLOAD DUP1 DUP4 SUB DUP2 DUP7 DUP1 EXTCODESIZE ISZERO DUP1 ISZERO PUSH2 0x1861 JUMPI PUSH1 0x0 DUP1 REVERT JUMPDEST POP GAS DELEGATECALL ISZERO DUP1 ISZERO PUSH2 0x1875 JUMPI RETURNDATASIZE PUSH1 0x0 DUP1 RETURNDATACOPY RETURNDATASIZE PUSH1 0x0 REVERT JUMPDEST POP POP POP POP PUSH20 0x0 PUSH4 0x81B405E4 DUP3 DUP1 PUSH1 0x20 ADD SWAP1 PUSH2 0x18A3 SWAP2 SWAP1 PUSH2 0x2CA3 JUMP JUMPDEST PUSH1 0x40 MLOAD DUP1 PUSH1 0x80 ADD PUSH1 0x40 MSTORE DUP1 DUP6 PUSH1 0x60 ADD PUSH1 0x20 DUP2 ADD SWAP1 PUSH2 0x18C1 SWAP2 SWAP1 PUSH2 0x280D JUMP JUMPDEST PUSH20 0xFFFFFFFFFFFFFFFFFFFFFFFFFFFFFFFFFFFFFFFF AND DUP2 MSTORE PUSH1 0x20 ADD PUSH2 0x18EE PUSH2 0x220 DUP8 ADD PUSH2 0x200 DUP9 ADD PUSH2 0x280D JUMP JUMPDEST PUSH20 0xFFFFFFFFFFFFFFFFFFFFFFFFFFFFFFFFFFFFFFFF AND DUP2 MSTORE PUSH1 0xC0 DUP7 ADD CALLDATALOAD PUSH1 0x20 DUP3 ADD MSTORE PUSH1 0x40 SWAP1 DUP2 ADD SWAP1 PUSH2 0x1922 SWAP1 DUP8 ADD DUP8 PUSH2 0x2D73 JUMP JUMPDEST DUP1 DUP1 PUSH1 0x1F ADD PUSH1 0x20 DUP1 SWAP2 DIV MUL PUSH1 0x20 ADD PUSH1 0x40 MLOAD SWAP1 DUP2 ADD PUSH1 0x40 MSTORE DUP1 SWAP4 SWAP3 SWAP2 SWAP1 DUP2 DUP2 MSTORE PUSH1 0x20 ADD DUP4 DUP4 DUP1 DUP3 DUP5 CALLDATACOPY PUSH1 0x0 SWAP3 ADD SWAP2 SWAP1 SWAP2 MSTORE POP POP POP SWAP2 MSTORE POP PUSH1 0x40 MLOAD PUSH32 0xFFFFFFFF00000000000000000000000000000000000000000000000000000000 PUSH1 0xE0 DUP6 SWAP1 SHL AND DUP2 MSTORE PUSH2 0x1992 SWAP3 SWAP2 SWAP1 PUSH1 0x4 ADD PUSH2 0x2DD8 JUMP JUMPDEST PUSH1 0x0 PUSH1 0x40 MLOAD DUP1 DUP4 SUB DUP2 DUP7 DUP1 EXTCODESIZE ISZERO DUP1 ISZERO PUSH2 0x19AA JUMPI PUSH1 0x0 DUP1 REVERT JUMPDEST POP GAS DELEGATECALL ISZERO DUP1 ISZERO PUSH2 0x19BE JUMPI RETURNDATASIZE PUSH1 0x0 DUP1 RETURNDATACOPY RETURNDATASIZE PUSH1 0x0 REVERT JUMPDEST POP PUSH2 0x19D5 SWAP3 POP POP POP PUSH2 0x220 DUP3 ADD PUSH2 0x200 DUP4 ADD PUSH2 0x280D JUMP JUMPDEST PUSH20 0xFFFFFFFFFFFFFFFFFFFFFFFFFFFFFFFFFFFFFFFF AND PUSH2 0x19FD PUSH2 0x200 DUP4 ADD PUSH2 0x1E0 DUP5 ADD PUSH2 0x280D JUMP JUMPDEST PUSH20 0xFFFFFFFFFFFFFFFFFFFFFFFFFFFFFFFFFFFFFFFF AND PUSH1 0xA0 DUP4 ADD CALLDATALOAD PUSH32 0x511717ABB0E39F5FCC1D4BD11A7DAF540DC2709BD27685FBCDB81F2311873F9A PUSH2 0x1A47 PUSH2 0x280 DUP7 ADD DUP7 PUSH2 0x2D73 JUMP JUMPDEST PUSH1 0x40 MLOAD PUSH2 0x5C8 SWAP3 SWAP2 SWAP1 PUSH2 0x220 DUP10 ADD CALLDATALOAD SWAP1 PUSH1 0xC0 DUP11 ADD CALLDATALOAD SWAP1 PUSH2 0x240 DUP12 ADD CALLDATALOAD SWAP1 PUSH2 0x31CC JUMP JUMPDEST PUSH20 0x0 PUSH4 0xF3326FF5 PUSH1 0x0 DUP1 SLOAD SWAP1 PUSH2 0x100 EXP SWAP1 DIV PUSH20 0xFFFFFFFFFFFFFFFFFFFFFFFFFFFFFFFFFFFFFFFF AND PUSH20 0xFFFFFFFFFFFFFFFFFFFFFFFFFFFFFFFFFFFFFFFF AND PUSH4 0xDD9CD55B PUSH1 0x40 MLOAD DUP2 PUSH4 0xFFFFFFFF AND PUSH1 0xE0 SHL DUP2 MSTORE PUSH1 0x4 ADD PUSH1 0x20 PUSH1 0x40 MLOAD DUP1 DUP4 SUB DUP2 DUP7 GAS STATICCALL ISZERO DUP1 ISZERO PUSH2 0x1AEE JUMPI RETURNDATASIZE PUSH1 0x0 DUP1 RETURNDATACOPY RETURNDATASIZE PUSH1 0x0 REVERT JUMPDEST POP POP POP POP PUSH1 0x40 MLOAD RETURNDATASIZE PUSH1 0x1F NOT PUSH1 0x1F DUP3 ADD AND DUP3 ADD DUP1 PUSH1 0x40 MSTORE POP DUP2 ADD SWAP1 PUSH2 0x1B12 SWAP2 SWAP1 PUSH2 0x2880 JUMP JUMPDEST PUSH1 0x0 SLOAD PUSH1 0x40 MLOAD PUSH32 0xFFFFFFFF00000000000000000000000000000000000000000000000000000000 PUSH1 0xE0 DUP6 SWAP1 SHL AND DUP2 MSTORE PUSH2 0x1B67 SWAP3 SWAP2 PUSH20 0xFFFFFFFFFFFFFFFFFFFFFFFFFFFFFFFFFFFFFFFF AND SWAP1 DUP7 SWAP1 PUSH1 0x4 ADD PUSH2 0x3180 JUMP JUMPDEST PUSH1 0x0 PUSH1 0x40 MLOAD DUP1 DUP4 SUB DUP2 DUP7 DUP1 EXTCODESIZE ISZERO DUP1 ISZERO PUSH2 0x1B7F JUMPI PUSH1 0x0 DUP1 REVERT JUMPDEST POP GAS DELEGATECALL ISZERO DUP1 ISZERO PUSH2 0x1B93 JUMPI RETURNDATASIZE PUSH1 0x0 DUP1 RETURNDATACOPY RETURNDATASIZE PUSH1 0x0 REVERT JUMPDEST POP POP PUSH1 0x40 MLOAD PUSH32 0x233DC4EB00000000000000000000000000000000000000000000000000000000 DUP2 MSTORE PUSH20 0x0 SWAP3 POP PUSH4 0x233DC4EB SWAP2 POP PUSH2 0x1BE7 SWAP1 DUP5 SWAP1 PUSH1 0x4 ADD PUSH2 0x31B9 JUMP JUMPDEST PUSH1 0x0 PUSH1 0x40 MLOAD DUP1 DUP4 SUB DUP2 DUP7 DUP1 EXTCODESIZE ISZERO DUP1 ISZERO PUSH2 0x1BFF JUMPI PUSH1 0x0 DUP1 REVERT JUMPDEST POP GAS DELEGATECALL ISZERO DUP1 ISZERO PUSH2 0x1C13 JUMPI RETURNDATASIZE PUSH1 0x0 DUP1 RETURNDATACOPY RETURNDATASIZE PUSH1 0x0 REVERT JUMPDEST POP POP POP POP PUSH20 0x0 PUSH4 0x64D4138 DUP3 DUP1 PUSH1 0x20 ADD SWAP1 PUSH2 0x1C41 SWAP2 SWAP1 PUSH2 0x2CA3 JUMP JUMPDEST PUSH2 0x1C52 PUSH2 0x100 DUP6 ADD PUSH1 0xE0 DUP7 ADD PUSH2 0x280D JUMP JUMPDEST PUSH2 0x1C64 PUSH2 0x220 DUP7 ADD PUSH2 0x200 DUP8 ADD PUSH2 0x280D JUMP JUMPDEST PUSH2 0x1C74 PUSH1 0x80 DUP8 ADD PUSH1 0x60 DUP9 ADD PUSH2 0x280D JUMP JUMPDEST PUSH1 0x0 DUP1 SLOAD SWAP1 PUSH2 0x100 EXP SWAP1 DIV PUSH20 0xFFFFFFFFFFFFFFFFFFFFFFFFFFFFFFFFFFFFFFFF AND PUSH20 0xFFFFFFFFFFFFFFFFFFFFFFFFFFFFFFFFFFFFFFFF AND PUSH4 0x38AF3EED PUSH1 0x40 MLOAD DUP2 PUSH4 0xFFFFFFFF AND PUSH1 0xE0 SHL DUP2 MSTORE PUSH1 0x4 ADD PUSH1 0x20 PUSH1 0x40 MLOAD DUP1 DUP4 SUB DUP2 DUP7 GAS STATICCALL ISZERO DUP1 ISZERO PUSH2 0x1CDF JUMPI RETURNDATASIZE PUSH1 0x0 DUP1 RETURNDATACOPY RETURNDATASIZE PUSH1 0x0 REVERT JUMPDEST POP POP POP POP PUSH1 0x40 MLOAD RETURNDATASIZE PUSH1 0x1F NOT PUSH1 0x1F DUP3 ADD AND DUP3 ADD DUP1 PUSH1 0x40 MSTORE POP DUP2 ADD SWAP1 PUSH2 0x1D03 SWAP2 SWAP1 PUSH2 0x2880 JUMP JUMPDEST PUSH2 0x260 DUP9 ADD CALLDATALOAD PUSH2 0x1D17 PUSH2 0x1C0 DUP11 ADD DUP11 PUSH2 0x2CE1 JUMP JUMPDEST PUSH1 0x20 ADD CALLDATALOAD PUSH1 0x40 MLOAD DUP9 PUSH4 0xFFFFFFFF AND PUSH1 0xE0 SHL DUP2 MSTORE PUSH1 0x4 ADD PUSH2 0x1D3D SWAP8 SWAP7 SWAP6 SWAP5 SWAP4 SWAP3 SWAP2 SWAP1 PUSH2 0x2D15 JUMP JUMPDEST PUSH1 0x0 PUSH1 0x40 MLOAD DUP1 DUP4 SUB DUP2 DUP7 DUP1 EXTCODESIZE ISZERO DUP1 ISZERO PUSH2 0x1D55 JUMPI PUSH1 0x0 DUP1 REVERT JUMPDEST POP GAS DELEGATECALL ISZERO DUP1 ISZERO PUSH2 0x1D69 JUMPI RETURNDATASIZE PUSH1 0x0 DUP1 RETURNDATACOPY RETURNDATASIZE PUSH1 0x0 REVERT JUMPDEST POP POP POP POP PUSH20 0x0 PUSH4 0x81B405E4 DUP3 DUP1 PUSH1 0x20 ADD SWAP1 PUSH2 0x1D97 SWAP2 SWAP1 PUSH2 0x2CA3 JUMP JUMPDEST PUSH1 0x40 MLOAD DUP1 PUSH1 0x80 ADD PUSH1 0x40 MSTORE DUP1 DUP6 PUSH1 0x60 ADD PUSH1 0x20 DUP2 ADD SWAP1 PUSH2 0x1DB5 SWAP2 SWAP1 PUSH2 0x280D JUMP JUMPDEST PUSH20 0xFFFFFFFFFFFFFFFFFFFFFFFFFFFFFFFFFFFFFFFF AND DUP2 MSTORE PUSH1 0x20 ADD PUSH2 0x1DE2 PUSH2 0x240 DUP8 ADD PUSH2 0x220 DUP9 ADD PUSH2 0x280D JUMP JUMPDEST PUSH20 0xFFFFFFFFFFFFFFFFFFFFFFFFFFFFFFFFFFFFFFFF AND DUP2 MSTORE PUSH1 0xC0 DUP7 ADD CALLDATALOAD PUSH1 0x20 DUP3 ADD MSTORE PUSH1 0x40 SWAP1 DUP2 ADD SWAP1 PUSH2 0x1E16 SWAP1 DUP8 ADD DUP8 PUSH2 0x2D73 JUMP JUMPDEST DUP1 DUP1 PUSH1 0x1F ADD PUSH1 0x20 DUP1 SWAP2 DIV MUL PUSH1 0x20 ADD PUSH1 0x40 MLOAD SWAP1 DUP2 ADD PUSH1 0x40 MSTORE DUP1 SWAP4 SWAP3 SWAP2 SWAP1 DUP2 DUP2 MSTORE PUSH1 0x20 ADD DUP4 DUP4 DUP1 DUP3 DUP5 CALLDATACOPY PUSH1 0x0 SWAP3 ADD SWAP2 SWAP1 SWAP2 MSTORE POP POP POP SWAP2 MSTORE POP PUSH1 0x40 MLOAD PUSH32 0xFFFFFFFF00000000000000000000000000000000000000000000000000000000 PUSH1 0xE0 DUP6 SWAP1 SHL AND DUP2 MSTORE PUSH2 0x1E86 SWAP3 SWAP2 SWAP1 PUSH1 0x4 ADD PUSH2 0x2DD8 JUMP JUMPDEST PUSH1 0x0 PUSH1 0x40 MLOAD DUP1 DUP4 SUB DUP2 DUP7 DUP1 EXTCODESIZE ISZERO DUP1 ISZERO PUSH2 0x1E9E JUMPI PUSH1 0x0 DUP1 REVERT JUMPDEST POP GAS DELEGATECALL ISZERO DUP1 ISZERO PUSH2 0x1EB2 JUMPI RETURNDATASIZE PUSH1 0x0 DUP1 RETURNDATACOPY RETURNDATASIZE PUSH1 0x0 REVERT JUMPDEST POP PUSH2 0x1EC9 SWAP3 POP POP POP PUSH2 0x240 DUP3 ADD PUSH2 0x220 DUP4 ADD PUSH2 0x280D JUMP JUMPDEST PUSH20 0xFFFFFFFFFFFFFFFFFFFFFFFFFFFFFFFFFFFFFFFF AND PUSH2 0x1EF1 PUSH2 0x220 DUP4 ADD PUSH2 0x200 DUP5 ADD PUSH2 0x280D JUMP JUMPDEST PUSH20 0xFFFFFFFFFFFFFFFFFFFFFFFFFFFFFFFFFFFFFFFF AND PUSH1 0xA0 DUP4 ADD CALLDATALOAD PUSH32 0xB93F3019E030940D28A0829C84DDFFB6F58979B9E3A8DA60AC5419319797EEF6 PUSH2 0x1F3B PUSH2 0x280 DUP7 ADD DUP7 PUSH2 0x2D73 JUMP JUMPDEST PUSH1 0x40 MLOAD PUSH2 0x5C8 SWAP3 SWAP2 SWAP1 PUSH1 0x80 DUP10 ADD CALLDATALOAD SWAP1 PUSH1 0xC0 DUP11 ADD CALLDATALOAD SWAP1 PUSH2 0x260 DUP12 ADD CALLDATALOAD SWAP1 PUSH2 0x31CC JUMP JUMPDEST PUSH1 0x0 JUMPDEST DUP2 DUP2 LT ISZERO PUSH2 0xD7D JUMPI PUSH20 0x0 PUSH4 0x179C78B5 PUSH1 0x0 DUP1 SLOAD SWAP1 PUSH2 0x100 EXP SWAP1 DIV PUSH20 0xFFFFFFFFFFFFFFFFFFFFFFFFFFFFFFFFFFFFFFFF AND PUSH20 0xFFFFFFFFFFFFFFFFFFFFFFFFFFFFFFFFFFFFFFFF AND PUSH4 0xDD9CD55B PUSH1 0x40 MLOAD DUP2 PUSH4 0xFFFFFFFF AND PUSH1 0xE0 SHL DUP2 MSTORE PUSH1 0x4 ADD PUSH1 0x20 PUSH1 0x40 MLOAD DUP1 DUP4 SUB DUP2 DUP7 GAS STATICCALL ISZERO DUP1 ISZERO PUSH2 0x1FEC JUMPI RETURNDATASIZE PUSH1 0x0 DUP1 RETURNDATACOPY RETURNDATASIZE PUSH1 0x0 REVERT JUMPDEST POP POP POP POP PUSH1 0x40 MLOAD RETURNDATASIZE PUSH1 0x1F NOT PUSH1 0x1F DUP3 ADD AND DUP3 ADD DUP1 PUSH1 0x40 MSTORE POP DUP2 ADD SWAP1 PUSH2 0x2010 SWAP2 SWAP1 PUSH2 0x2880 JUMP JUMPDEST PUSH1 0x0 SLOAD PUSH20 0xFFFFFFFFFFFFFFFFFFFFFFFFFFFFFFFFFFFFFFFF AND DUP7 DUP7 DUP7 DUP2 DUP2 LT PUSH2 0x203B JUMPI PUSH2 0x203B PUSH2 0x2EA0 JUMP JUMPDEST SWAP1 POP PUSH1 0x20 MUL DUP2 ADD SWAP1 PUSH2 0x204D SWAP2 SWAP1 PUSH2 0x2ECF JUMP JUMPDEST PUSH1 0x40 MLOAD DUP5 PUSH4 0xFFFFFFFF AND PUSH1 0xE0 SHL DUP2 MSTORE PUSH1 0x4 ADD PUSH2 0x206B SWAP4 SWAP3 SWAP2 SWAP1 PUSH2 0x3432 JUMP JUMPDEST PUSH1 0x0 PUSH1 0x40 MLOAD DUP1 DUP4 SUB DUP2 DUP7 DUP1 EXTCODESIZE ISZERO DUP1 ISZERO PUSH2 0x2083 JUMPI PUSH1 0x0 DUP1 REVERT JUMPDEST POP GAS DELEGATECALL ISZERO DUP1 ISZERO PUSH2 0x2097 JUMPI RETURNDATASIZE PUSH1 0x0 DUP1 RETURNDATACOPY RETURNDATASIZE PUSH1 0x0 REVERT JUMPDEST POP POP POP POP PUSH20 0x0 PUSH4 0x1A947093 DUP5 DUP5 DUP5 DUP2 DUP2 LT PUSH2 0x20C7 JUMPI PUSH2 0x20C7 PUSH2 0x2EA0 JUMP JUMPDEST SWAP1 POP PUSH1 0x20 MUL DUP2 ADD SWAP1 PUSH2 0x20D9 SWAP2 SWAP1 PUSH2 0x2ECF JUMP JUMPDEST PUSH1 0x40 MLOAD DUP3 PUSH4 0xFFFFFFFF AND PUSH1 0xE0 SHL DUP2 MSTORE PUSH1 0x4 ADD PUSH2 0x20F5 SWAP2 SWAP1 PUSH2 0x346B JUMP JUMPDEST PUSH1 0x0 PUSH1 0x40 MLOAD DUP1 DUP4 SUB DUP2 DUP7 DUP1 EXTCODESIZE ISZERO DUP1 ISZERO PUSH2 0x210D JUMPI PUSH1 0x0 DUP1 REVERT JUMPDEST POP GAS DELEGATECALL ISZERO DUP1 ISZERO PUSH2 0x2121 JUMPI RETURNDATASIZE PUSH1 0x0 DUP1 RETURNDATACOPY RETURNDATASIZE PUSH1 0x0 REVERT JUMPDEST POP POP POP POP PUSH20 0x0 PUSH4 0x64D4138 DUP5 DUP5 DUP5 DUP2 DUP2 LT PUSH2 0x2151 JUMPI PUSH2 0x2151 PUSH2 0x2EA0 JUMP JUMPDEST SWAP1 POP PUSH1 0x20 MUL DUP2 ADD SWAP1 PUSH2 0x2163 SWAP2 SWAP1 PUSH2 0x2ECF JUMP JUMPDEST PUSH2 0x2171 SWAP1 PUSH1 0x20 DUP2 ADD SWAP1 PUSH2 0x2CA3 JUMP JUMPDEST DUP6 DUP6 DUP6 DUP2 DUP2 LT PUSH2 0x2183 JUMPI PUSH2 0x2183 PUSH2 0x2EA0 JUMP JUMPDEST SWAP1 POP PUSH1 0x20 MUL DUP2 ADD SWAP1 PUSH2 0x2195 SWAP2 SWAP1 PUSH2 0x2ECF JUMP JUMPDEST PUSH2 0x21A7 SWAP1 PUSH2 0x100 DUP2 ADD SWAP1 PUSH1 0xE0 ADD PUSH2 0x280D JUMP JUMPDEST DUP7 DUP7 DUP7 DUP2 DUP2 LT PUSH2 0x21B9 JUMPI PUSH2 0x21B9 PUSH2 0x2EA0 JUMP JUMPDEST SWAP1 POP PUSH1 0x20 MUL DUP2 ADD SWAP1 PUSH2 0x21CB SWAP2 SWAP1 PUSH2 0x2ECF JUMP JUMPDEST PUSH2 0x21DE SWAP1 PUSH2 0x200 DUP2 ADD SWAP1 PUSH2 0x1E0 ADD PUSH2 0x280D JUMP JUMPDEST DUP8 DUP8 DUP8 DUP2 DUP2 LT PUSH2 0x21F0 JUMPI PUSH2 0x21F0 PUSH2 0x2EA0 JUMP JUMPDEST SWAP1 POP PUSH1 0x20 MUL DUP2 ADD SWAP1 PUSH2 0x2202 SWAP2 SWAP1 PUSH2 0x2ECF JUMP JUMPDEST PUSH2 0x2213 SWAP1 PUSH1 0x80 DUP2 ADD SWAP1 PUSH1 0x60 ADD PUSH2 0x280D JUMP JUMPDEST PUSH1 0x0 DUP1 SLOAD SWAP1 PUSH2 0x100 EXP SWAP1 DIV PUSH20 0xFFFFFFFFFFFFFFFFFFFFFFFFFFFFFFFFFFFFFFFF AND PUSH20 0xFFFFFFFFFFFFFFFFFFFFFFFFFFFFFFFFFFFFFFFF AND PUSH4 0x38AF3EED PUSH1 0x40 MLOAD DUP2 PUSH4 0xFFFFFFFF AND PUSH1 0xE0 SHL DUP2 MSTORE PUSH1 0x4 ADD PUSH1 0x20 PUSH1 0x40 MLOAD DUP1 DUP4 SUB DUP2 DUP7 GAS STATICCALL ISZERO DUP1 ISZERO PUSH2 0x227E JUMPI RETURNDATASIZE PUSH1 0x0 DUP1 RETURNDATACOPY RETURNDATASIZE PUSH1 0x0 REVERT JUMPDEST POP POP POP POP PUSH1 0x40 MLOAD RETURNDATASIZE PUSH1 0x1F NOT PUSH1 0x1F DUP3 ADD AND DUP3 ADD DUP1 PUSH1 0x40 MSTORE POP DUP2 ADD SWAP1 PUSH2 0x22A2 SWAP2 SWAP1 PUSH2 0x2880 JUMP JUMPDEST DUP10 DUP10 DUP10 DUP2 DUP2 LT PUSH2 0x22B4 JUMPI PUSH2 0x22B4 PUSH2 0x2EA0 JUMP JUMPDEST SWAP1 POP PUSH1 0x20 MUL DUP2 ADD SWAP1 PUSH2 0x22C6 SWAP2 SWAP1 PUSH2 0x2ECF JUMP JUMPDEST PUSH2 0x240 ADD CALLDATALOAD DUP11 DUP11 DUP11 DUP2 DUP2 LT PUSH2 0x22DD JUMPI PUSH2 0x22DD PUSH2 0x2EA0 JUMP JUMPDEST SWAP1 POP PUSH1 0x20 MUL DUP2 ADD SWAP1 PUSH2 0x22EF SWAP2 SWAP1 PUSH2 0x2ECF JUMP JUMPDEST PUSH2 0x22FE SWAP1 PUSH2 0x1A0 DUP2 ADD SWAP1 PUSH2 0x2CE1 JUMP JUMPDEST PUSH1 0x20 ADD CALLDATALOAD PUSH1 0x40 MLOAD DUP9 PUSH4 0xFFFFFFFF AND PUSH1 0xE0 SHL DUP2 MSTORE PUSH1 0x4 ADD PUSH2 0x2324 SWAP8 SWAP7 SWAP6 SWAP5 SWAP4 SWAP3 SWAP2 SWAP1 PUSH2 0x2D15 JUMP JUMPDEST PUSH1 0x0 PUSH1 0x40 MLOAD DUP1 DUP4 SUB DUP2 DUP7 DUP1 EXTCODESIZE ISZERO DUP1 ISZERO PUSH2 0x233C JUMPI PUSH1 0x0 DUP1 REVERT JUMPDEST POP GAS DELEGATECALL ISZERO DUP1 ISZERO PUSH2 0x2350 JUMPI RETURNDATASIZE PUSH1 0x0 DUP1 RETURNDATACOPY RETURNDATASIZE PUSH1 0x0 REVERT JUMPDEST POP POP POP POP PUSH20 0x0 PUSH4 0x81B405E4 DUP5 DUP5 DUP5 DUP2 DUP2 LT PUSH2 0x2380 JUMPI PUSH2 0x2380 PUSH2 0x2EA0 JUMP JUMPDEST SWAP1 POP PUSH1 0x20 MUL DUP2 ADD SWAP1 PUSH2 0x2392 SWAP2 SWAP1 PUSH2 0x2ECF JUMP JUMPDEST PUSH2 0x23A0 SWAP1 PUSH1 0x20 DUP2 ADD SWAP1 PUSH2 0x2CA3 JUMP JUMPDEST PUSH1 0x40 MLOAD DUP1 PUSH1 0x80 ADD PUSH1 0x40 MSTORE DUP1 DUP8 DUP8 DUP8 DUP2 DUP2 LT PUSH2 0x23BD JUMPI PUSH2 0x23BD PUSH2 0x2EA0 JUMP JUMPDEST SWAP1 POP PUSH1 0x20 MUL DUP2 ADD SWAP1 PUSH2 0x23CF SWAP2 SWAP1 PUSH2 0x2ECF JUMP JUMPDEST PUSH2 0x23E0 SWAP1 PUSH1 0x80 DUP2 ADD SWAP1 PUSH1 0x60 ADD PUSH2 0x280D JUMP JUMPDEST PUSH20 0xFFFFFFFFFFFFFFFFFFFFFFFFFFFFFFFFFFFFFFFF AND DUP2 MSTORE PUSH1 0x20 ADD DUP8 DUP8 DUP8 DUP2 DUP2 LT PUSH2 0x240D JUMPI PUSH2 0x240D PUSH2 0x2EA0 JUMP JUMPDEST SWAP1 POP PUSH1 0x20 MUL DUP2 ADD SWAP1 PUSH2 0x241F SWAP2 SWAP1 PUSH2 0x2ECF JUMP JUMPDEST PUSH2 0x2432 SWAP1 PUSH2 0x220 DUP2 ADD SWAP1 PUSH2 0x200 ADD PUSH2 0x280D JUMP JUMPDEST PUSH20 0xFFFFFFFFFFFFFFFFFFFFFFFFFFFFFFFFFFFFFFFF AND DUP2 MSTORE PUSH1 0x20 ADD DUP8 DUP8 DUP8 DUP2 DUP2 LT PUSH2 0x245F JUMPI PUSH2 0x245F PUSH2 0x2EA0 JUMP JUMPDEST SWAP1 POP PUSH1 0x20 MUL DUP2 ADD SWAP1 PUSH2 0x2471 SWAP2 SWAP1 PUSH2 0x2ECF JUMP JUMPDEST PUSH1 0xC0 ADD CALLDATALOAD DUP2 MSTORE PUSH1 0x20 ADD DUP8 DUP8 DUP8 DUP2 DUP2 LT PUSH2 0x248C JUMPI PUSH2 0x248C PUSH2 0x2EA0 JUMP JUMPDEST SWAP1 POP PUSH1 0x20 MUL DUP2 ADD SWAP1 PUSH2 0x249E SWAP2 SWAP1 PUSH2 0x2ECF JUMP JUMPDEST PUSH2 0x24AC SWAP1 PUSH1 0x40 DUP2 ADD SWAP1 PUSH2 0x2D73 JUMP JUMPDEST DUP1 DUP1 PUSH1 0x1F ADD PUSH1 0x20 DUP1 SWAP2 DIV MUL PUSH1 0x20 ADD PUSH1 0x40 MLOAD SWAP1 DUP2 ADD PUSH1 0x40 MSTORE DUP1 SWAP4 SWAP3 SWAP2 SWAP1 DUP2 DUP2 MSTORE PUSH1 0x20 ADD DUP4 DUP4 DUP1 DUP3 DUP5 CALLDATACOPY PUSH1 0x0 SWAP3 ADD SWAP2 SWAP1 SWAP2 MSTORE POP POP POP SWAP2 MSTORE POP PUSH1 0x40 MLOAD PUSH32 0xFFFFFFFF00000000000000000000000000000000000000000000000000000000 PUSH1 0xE0 DUP6 SWAP1 SHL AND DUP2 MSTORE PUSH2 0x251C SWAP3 SWAP2 SWAP1 PUSH1 0x4 ADD PUSH2 0x2DD8 JUMP JUMPDEST PUSH1 0x0 PUSH1 0x40 MLOAD DUP1 DUP4 SUB DUP2 DUP7 DUP1 EXTCODESIZE ISZERO DUP1 ISZERO PUSH2 0x2534 JUMPI PUSH1 0x0 DUP1 REVERT JUMPDEST POP GAS DELEGATECALL ISZERO DUP1 ISZERO PUSH2 0x2548 JUMPI RETURNDATASIZE PUSH1 0x0 DUP1 RETURNDATACOPY RETURNDATASIZE PUSH1 0x0 REVERT JUMPDEST POP POP POP POP DUP3 DUP3 DUP3 DUP2 DUP2 LT PUSH2 0x255E JUMPI PUSH2 0x255E PUSH2 0x2EA0 JUMP JUMPDEST SWAP1 POP PUSH1 0x20 MUL DUP2 ADD SWAP1 PUSH2 0x2570 SWAP2 SWAP1 PUSH2 0x2ECF JUMP JUMPDEST PUSH2 0x2583 SWAP1 PUSH2 0x220 DUP2 ADD SWAP1 PUSH2 0x200 ADD PUSH2 0x280D JUMP JUMPDEST PUSH20 0xFFFFFFFFFFFFFFFFFFFFFFFFFFFFFFFFFFFFFFFF AND DUP4 DUP4 DUP4 DUP2 DUP2 LT PUSH2 0x25AB JUMPI PUSH2 0x25AB PUSH2 0x2EA0 JUMP JUMPDEST SWAP1 POP PUSH1 0x20 MUL DUP2 ADD SWAP1 PUSH2 0x25BD SWAP2 SWAP1 PUSH2 0x2ECF JUMP JUMPDEST PUSH2 0x25D0 SWAP1 PUSH2 0x200 DUP2 ADD SWAP1 PUSH2 0x1E0 ADD PUSH2 0x280D JUMP JUMPDEST PUSH20 0xFFFFFFFFFFFFFFFFFFFFFFFFFFFFFFFFFFFFFFFF AND DUP5 DUP5 DUP5 DUP2 DUP2 LT PUSH2 0x25F8 JUMPI PUSH2 0x25F8 PUSH2 0x2EA0 JUMP JUMPDEST SWAP1 POP PUSH1 0x20 MUL DUP2 ADD SWAP1 PUSH2 0x260A SWAP2 SWAP1 PUSH2 0x2ECF JUMP JUMPDEST PUSH1 0xA0 ADD CALLDATALOAD PUSH32 0x511717ABB0E39F5FCC1D4BD11A7DAF540DC2709BD27685FBCDB81F2311873F9A DUP7 DUP7 DUP7 DUP2 DUP2 LT PUSH2 0x2641 JUMPI PUSH2 0x2641 PUSH2 0x2EA0 JUMP JUMPDEST SWAP1 POP PUSH1 0x20 MUL DUP2 ADD SWAP1 PUSH2 0x2653 SWAP2 SWAP1 PUSH2 0x2ECF JUMP JUMPDEST PUSH2 0x2662 SWAP1 PUSH2 0x280 DUP2 ADD SWAP1 PUSH2 0x2D73 JUMP JUMPDEST DUP9 DUP9 DUP9 DUP2 DUP2 LT PUSH2 0x2674 JUMPI PUSH2 0x2674 PUSH2 0x2EA0 JUMP JUMPDEST SWAP1 POP PUSH1 0x20 MUL DUP2 ADD SWAP1 PUSH2 0x2686 SWAP2 SWAP1 PUSH2 0x2ECF JUMP JUMPDEST PUSH2 0x220 ADD CALLDATALOAD DUP10 DUP10 DUP10 DUP2 DUP2 LT PUSH2 0x269D JUMPI PUSH2 0x269D PUSH2 0x2EA0 JUMP JUMPDEST SWAP1 POP PUSH1 0x20 MUL DUP2 ADD SWAP1 PUSH2 0x26AF SWAP2 SWAP1 PUSH2 0x2ECF JUMP JUMPDEST PUSH1 0xC0 ADD CALLDATALOAD DUP11 DUP11 DUP11 DUP2 DUP2 LT PUSH2 0x26C5 JUMPI PUSH2 0x26C5 PUSH2 0x2EA0 JUMP JUMPDEST SWAP1 POP PUSH1 0x20 MUL DUP2 ADD SWAP1 PUSH2 0x26D7 SWAP2 SWAP1 PUSH2 0x2ECF JUMP JUMPDEST PUSH1 0x40 MLOAD PUSH2 0x26ED SWAP6 SWAP5 SWAP4 SWAP3 SWAP2 PUSH2 0x240 ADD CALLDATALOAD SWAP1 PUSH2 0x31CC JUMP JUMPDEST PUSH1 0x40 MLOAD DUP1 SWAP2 SUB SWAP1 LOG4 DUP1 PUSH2 0x26FF DUP2 PUSH2 0x31FD JUMP JUMPDEST SWAP2 POP POP PUSH2 0x1F5F JUMP JUMPDEST PUSH1 0x0 PUSH1 0x20 DUP3 DUP5 SUB SLT ISZERO PUSH2 0x2719 JUMPI PUSH1 0x0 DUP1 REVERT JUMPDEST DUP2 CALLDATALOAD PUSH8 0xFFFFFFFFFFFFFFFF DUP2 GT ISZERO PUSH2 0x2730 JUMPI PUSH1 0x0 DUP1 REVERT JUMPDEST DUP3 ADD PUSH2 0x200 DUP2 DUP6 SUB SLT ISZERO PUSH2 0x2743 JUMPI PUSH1 0x0 DUP1 REVERT JUMPDEST SWAP4 SWAP3 POP POP POP JUMP JUMPDEST PUSH1 0x0 DUP1 DUP4 PUSH1 0x1F DUP5 ADD SLT PUSH2 0x275C JUMPI PUSH1 0x0 DUP1 REVERT JUMPDEST POP DUP2 CALLDATALOAD PUSH8 0xFFFFFFFFFFFFFFFF DUP2 GT ISZERO PUSH2 0x2774 JUMPI PUSH1 0x0 DUP1 REVERT JUMPDEST PUSH1 0x20 DUP4 ADD SWAP2 POP DUP4 PUSH1 0x20 DUP3 PUSH1 0x5 SHL DUP6 ADD ADD GT ISZERO PUSH2 0x278F JUMPI PUSH1 0x0 DUP1 REVERT JUMPDEST SWAP3 POP SWAP3 SWAP1 POP JUMP JUMPDEST PUSH1 0x0 DUP1 PUSH1 0x20 DUP4 DUP6 SUB SLT ISZERO PUSH2 0x27A9 JUMPI PUSH1 0x0 DUP1 REVERT JUMPDEST DUP3 CALLDATALOAD PUSH8 0xFFFFFFFFFFFFFFFF DUP2 GT ISZERO PUSH2 0x27C0 JUMPI PUSH1 0x0 DUP1 REVERT JUMPDEST PUSH2 0x27CC DUP6 DUP3 DUP7 ADD PUSH2 0x274A JUMP JUMPDEST SWAP1 SWAP7 SWAP1 SWAP6 POP SWAP4 POP POP POP POP JUMP JUMPDEST PUSH20 0xFFFFFFFFFFFFFFFFFFFFFFFFFFFFFFFFFFFFFFFF DUP2 AND DUP2 EQ PUSH2 0x27FA JUMPI PUSH1 0x0 DUP1 REVERT JUMPDEST POP JUMP JUMPDEST DUP1 CALLDATALOAD PUSH2 0x2808 DUP2 PUSH2 0x27D8 JUMP JUMPDEST SWAP2 SWAP1 POP JUMP JUMPDEST PUSH1 0x0 PUSH1 0x20 DUP3 DUP5 SUB SLT ISZERO PUSH2 0x281F JUMPI PUSH1 0x0 DUP1 REVERT JUMPDEST DUP2 CALLDATALOAD PUSH2 0x2743 DUP2 PUSH2 0x27D8 JUMP JUMPDEST PUSH1 0x0 PUSH2 0x2E0 DUP3 DUP5 SUB SLT ISZERO PUSH2 0x283D JUMPI PUSH1 0x0 DUP1 REVERT JUMPDEST POP SWAP2 SWAP1 POP JUMP JUMPDEST PUSH1 0x0 PUSH1 0x20 DUP3 DUP5 SUB SLT ISZERO PUSH2 0x2855 JUMPI PUSH1 0x0 DUP1 REVERT JUMPDEST DUP2 CALLDATALOAD PUSH8 0xFFFFFFFFFFFFFFFF DUP2 GT ISZERO PUSH2 0x286C JUMPI PUSH1 0x0 DUP1 REVERT JUMPDEST PUSH2 0x2878 DUP5 DUP3 DUP6 ADD PUSH2 0x282A JUMP JUMPDEST SWAP5 SWAP4 POP POP POP POP JUMP JUMPDEST PUSH1 0x0 PUSH1 0x20 DUP3 DUP5 SUB SLT ISZERO PUSH2 0x2892 JUMPI PUSH1 0x0 DUP1 REVERT JUMPDEST DUP2 MLOAD PUSH2 0x2743 DUP2 PUSH2 0x27D8 JUMP JUMPDEST PUSH1 0x0 DUP3 CALLDATALOAD PUSH32 0xFFFFFFFFFFFFFFFFFFFFFFFFFFFFFFFFFFFFFFFFFFFFFFFFFFFFFFFFFFFFFF41 DUP4 CALLDATASIZE SUB ADD DUP2 SLT PUSH2 0x28D1 JUMPI PUSH1 0x0 DUP1 REVERT JUMPDEST SWAP1 SWAP2 ADD SWAP3 SWAP2 POP POP JUMP JUMPDEST PUSH1 0x0 DUP1 DUP4 CALLDATALOAD PUSH32 0xFFFFFFFFFFFFFFFFFFFFFFFFFFFFFFFFFFFFFFFFFFFFFFFFFFFFFFFFFFFFFFE1 DUP5 CALLDATASIZE SUB ADD DUP2 SLT PUSH2 0x290F JUMPI PUSH1 0x0 DUP1 REVERT JUMPDEST DUP4 ADD PUSH1 0x20 DUP2 ADD SWAP3 POP CALLDATALOAD SWAP1 POP PUSH8 0xFFFFFFFFFFFFFFFF DUP2 GT ISZERO PUSH2 0x292F JUMPI PUSH1 0x0 DUP1 REVERT JUMPDEST DUP1 CALLDATASIZE SUB DUP3 SGT ISZERO PUSH2 0x278F JUMPI PUSH1 0x0 DUP1 REVERT JUMPDEST DUP2 DUP4 MSTORE DUP2 DUP2 PUSH1 0x20 DUP6 ADD CALLDATACOPY POP PUSH1 0x0 PUSH1 0x20 DUP3 DUP5 ADD ADD MSTORE PUSH1 0x0 PUSH1 0x20 PUSH32 0xFFFFFFFFFFFFFFFFFFFFFFFFFFFFFFFFFFFFFFFFFFFFFFFFFFFFFFFFFFFFFFE0 PUSH1 0x1F DUP5 ADD AND DUP5 ADD ADD SWAP1 POP SWAP3 SWAP2 POP POP JUMP JUMPDEST PUSH1 0x0 DUP2 CALLDATALOAD PUSH2 0x2994 DUP2 PUSH2 0x27D8 JUMP JUMPDEST PUSH20 0xFFFFFFFFFFFFFFFFFFFFFFFFFFFFFFFFFFFFFFFF DUP1 DUP3 AND DUP6 MSTORE PUSH1 0x20 DUP5 ADD CALLDATALOAD PUSH1 0x20 DUP7 ADD MSTORE PUSH2 0x29C5 PUSH1 0x40 DUP6 ADD DUP6 PUSH2 0x28DA JUMP JUMPDEST SWAP3 POP PUSH1 0xC0 PUSH1 0x40 DUP8 ADD MSTORE PUSH2 0x29DC PUSH1 0xC0 DUP8 ADD DUP5 DUP4 PUSH2 0x293E JUMP JUMPDEST SWAP3 POP POP PUSH1 0x60 DUP5 ADD CALLDATALOAD PUSH1 0x60 DUP7 ADD MSTORE PUSH1 0x80 DUP5 ADD CALLDATALOAD PUSH1 0x80 DUP7 ADD MSTORE PUSH1 0xA0 DUP5 ADD CALLDATALOAD PUSH2 0x2A01 DUP2 PUSH2 0x27D8 JUMP JUMPDEST AND PUSH1 0xA0 SWAP5 SWAP1 SWAP5 ADD SWAP4 SWAP1 SWAP4 MSTORE POP SWAP1 SWAP2 SWAP1 POP JUMP JUMPDEST DUP1 CALLDATALOAD DUP3 MSTORE PUSH1 0x20 DUP2 ADD CALLDATALOAD PUSH1 0x20 DUP4 ADD MSTORE PUSH1 0x40 DUP2 ADD CALLDATALOAD PUSH1 0x40 DUP4 ADD MSTORE PUSH1 0x60 DUP2 ADD CALLDATALOAD PUSH2 0x2A39 DUP2 PUSH2 0x27D8 JUMP JUMPDEST PUSH20 0xFFFFFFFFFFFFFFFFFFFFFFFFFFFFFFFFFFFFFFFF AND PUSH1 0x60 DUP4 ADD MSTORE PUSH1 0x80 DUP2 DUP2 ADD CALLDATALOAD SWAP1 DUP4 ADD MSTORE PUSH1 0xA0 DUP1 DUP3 ADD CALLDATALOAD SWAP1 DUP4 ADD MSTORE PUSH1 0xC0 SWAP1 DUP2 ADD CALLDATALOAD SWAP2 ADD MSTORE JUMP JUMPDEST PUSH1 0x0 DUP3 CALLDATALOAD PUSH32 0xFFFFFFFFFFFFFFFFFFFFFFFFFFFFFFFFFFFFFFFFFFFFFFFFFFFFFFFFFFFFFFC1 DUP4 CALLDATASIZE SUB ADD DUP2 SLT PUSH2 0x28D1 JUMPI PUSH1 0x0 DUP1 REVERT JUMPDEST PUSH1 0x0 PUSH2 0x2AB3 DUP3 DUP4 PUSH2 0x28DA JUMP JUMPDEST PUSH1 0x40 DUP6 MSTORE PUSH2 0x2AC5 PUSH1 0x40 DUP7 ADD DUP3 DUP5 PUSH2 0x293E JUMP JUMPDEST SWAP2 POP POP PUSH1 0x20 DUP4 ADD CALLDATALOAD PUSH1 0x20 DUP6 ADD MSTORE DUP1 SWAP2 POP POP SWAP3 SWAP2 POP POP JUMP JUMPDEST PUSH1 0x0 PUSH2 0x200 PUSH2 0x2B08 DUP5 PUSH2 0x2AEE DUP6 PUSH2 0x27FD JUMP JUMPDEST PUSH20 0xFFFFFFFFFFFFFFFFFFFFFFFFFFFFFFFFFFFFFFFF AND SWAP1 MSTORE JUMP JUMPDEST PUSH2 0x2B15 PUSH1 0x20 DUP5 ADD DUP5 PUSH2 0x289D JUMP JUMPDEST DUP2 PUSH1 0x20 DUP7 ADD MSTORE PUSH2 0x2B27 DUP3 DUP7 ADD DUP3 PUSH2 0x2987 JUMP JUMPDEST SWAP2 POP POP PUSH2 0x2B37 PUSH1 0x40 DUP5 ADD DUP5 PUSH2 0x28DA JUMP JUMPDEST DUP6 DUP4 SUB PUSH1 0x40 DUP8 ADD MSTORE PUSH2 0x2B4A DUP4 DUP3 DUP5 PUSH2 0x293E JUMP JUMPDEST SWAP3 POP POP POP PUSH2 0x2B5A PUSH1 0x60 DUP5 ADD PUSH2 0x27FD JUMP JUMPDEST PUSH20 0xFFFFFFFFFFFFFFFFFFFFFFFFFFFFFFFFFFFFFFFF AND PUSH1 0x60 DUP6 ADD MSTORE PUSH2 0x2B85 PUSH1 0x80 DUP1 DUP7 ADD SWAP1 DUP6 ADD PUSH2 0x2A13 JUMP JUMPDEST PUSH2 0x160 PUSH2 0x2B94 DUP2 DUP6 ADD DUP6 PUSH2 0x28DA JUMP JUMPDEST DUP7 DUP5 SUB DUP4 DUP9 ADD MSTORE PUSH2 0x2BA6 DUP5 DUP3 DUP5 PUSH2 0x293E JUMP JUMPDEST SWAP4 POP POP POP POP PUSH2 0x180 PUSH2 0x2BB9 DUP2 DUP6 ADD PUSH2 0x27FD JUMP JUMPDEST PUSH20 0xFFFFFFFFFFFFFFFFFFFFFFFFFFFFFFFFFFFFFFFF AND SWAP1 DUP6 ADD MSTORE PUSH2 0x1A0 PUSH2 0x2BE2 DUP5 DUP3 ADD DUP6 PUSH2 0x2A73 JUMP JUMPDEST DUP6 DUP4 SUB DUP3 DUP8 ADD MSTORE PUSH2 0x2BF3 DUP4 DUP3 PUSH2 0x2AA7 JUMP JUMPDEST SWAP3 POP POP POP PUSH2 0x1C0 PUSH2 0x2C06 DUP2 DUP6 ADD DUP6 PUSH2 0x28DA JUMP JUMPDEST DUP7 DUP5 SUB DUP4 DUP9 ADD MSTORE PUSH2 0x2C18 DUP5 DUP3 DUP5 PUSH2 0x293E JUMP JUMPDEST SWAP4 POP POP POP POP PUSH2 0x1E0 PUSH2 0x2C2B DUP2 DUP6 ADD PUSH2 0x27FD JUMP JUMPDEST PUSH20 0xFFFFFFFFFFFFFFFFFFFFFFFFFFFFFFFFFFFFFFFF AND SWAP5 ADD SWAP4 SWAP1 SWAP4 MSTORE POP SWAP1 SWAP2 SWAP1 POP JUMP JUMPDEST PUSH1 0x0 PUSH20 0xFFFFFFFFFFFFFFFFFFFFFFFFFFFFFFFFFFFFFFFF DUP1 DUP7 AND DUP4 MSTORE DUP1 DUP6 AND PUSH1 0x20 DUP5 ADD MSTORE POP PUSH1 0x60 PUSH1 0x40 DUP4 ADD MSTORE PUSH2 0x2C87 PUSH1 0x60 DUP4 ADD DUP5 PUSH2 0x2ADC JUMP JUMPDEST SWAP6 SWAP5 POP POP POP POP POP JUMP JUMPDEST PUSH1 0x20 DUP2 MSTORE PUSH1 0x0 PUSH2 0x2743 PUSH1 0x20 DUP4 ADD DUP5 PUSH2 0x2ADC JUMP JUMPDEST PUSH1 0x0 DUP3 CALLDATALOAD PUSH32 0xFFFFFFFFFFFFFFFFFFFFFFFFFFFFFFFFFFFFFFFFFFFFFFFFFFFFFFFFFFFFFF41 DUP4 CALLDATASIZE SUB ADD DUP2 SLT PUSH2 0x2CD7 JUMPI PUSH1 0x0 DUP1 REVERT JUMPDEST SWAP2 SWAP1 SWAP2 ADD SWAP3 SWAP2 POP POP JUMP JUMPDEST PUSH1 0x0 DUP3 CALLDATALOAD PUSH32 0xFFFFFFFFFFFFFFFFFFFFFFFFFFFFFFFFFFFFFFFFFFFFFFFFFFFFFFFFFFFFFFC1 DUP4 CALLDATASIZE SUB ADD DUP2 SLT PUSH2 0x2CD7 JUMPI PUSH1 0x0 DUP1 REVERT JUMPDEST PUSH1 0xE0 DUP2 MSTORE PUSH1 0x0 PUSH2 0x2D28 PUSH1 0xE0 DUP4 ADD DUP11 PUSH2 0x2987 JUMP JUMPDEST PUSH20 0xFFFFFFFFFFFFFFFFFFFFFFFFFFFFFFFFFFFFFFFF SWAP9 DUP10 AND PUSH1 0x20 DUP5 ADD MSTORE SWAP7 DUP9 AND PUSH1 0x40 DUP4 ADD MSTORE POP SWAP4 DUP7 AND PUSH1 0x60 DUP6 ADD MSTORE SWAP2 SWAP1 SWAP5 AND PUSH1 0x80 DUP4 ADD MSTORE PUSH1 0xA0 DUP3 ADD SWAP4 SWAP1 SWAP4 MSTORE PUSH1 0xC0 ADD SWAP2 SWAP1 SWAP2 MSTORE SWAP2 SWAP1 POP JUMP JUMPDEST PUSH1 0x0 DUP1 DUP4 CALLDATALOAD PUSH32 0xFFFFFFFFFFFFFFFFFFFFFFFFFFFFFFFFFFFFFFFFFFFFFFFFFFFFFFFFFFFFFFE1 DUP5 CALLDATASIZE SUB ADD DUP2 SLT PUSH2 0x2DA8 JUMPI PUSH1 0x0 DUP1 REVERT JUMPDEST DUP4 ADD DUP1 CALLDATALOAD SWAP2 POP PUSH8 0xFFFFFFFFFFFFFFFF DUP3 GT ISZERO PUSH2 0x2DC3 JUMPI PUSH1 0x0 DUP1 REVERT JUMPDEST PUSH1 0x20 ADD SWAP2 POP CALLDATASIZE DUP2 SWAP1 SUB DUP3 SGT ISZERO PUSH2 0x278F JUMPI PUSH1 0x0 DUP1 REVERT JUMPDEST PUSH1 0x40 DUP2 MSTORE PUSH1 0x0 PUSH2 0x2DEB PUSH1 0x40 DUP4 ADD DUP6 PUSH2 0x2987 JUMP JUMPDEST PUSH1 0x20 DUP4 DUP3 SUB DUP2 DUP6 ADD MSTORE PUSH20 0xFFFFFFFFFFFFFFFFFFFFFFFFFFFFFFFFFFFFFFFF DUP1 DUP7 MLOAD AND DUP4 MSTORE DUP1 DUP3 DUP8 ADD MLOAD AND DUP3 DUP5 ADD MSTORE POP PUSH1 0x40 DUP6 ADD MLOAD PUSH1 0x40 DUP4 ADD MSTORE PUSH1 0x60 DUP6 ADD MLOAD PUSH1 0x80 PUSH1 0x60 DUP5 ADD MSTORE DUP1 MLOAD DUP1 PUSH1 0x80 DUP6 ADD MSTORE PUSH1 0x0 JUMPDEST DUP2 DUP2 LT ISZERO PUSH2 0x2E57 JUMPI DUP3 DUP2 ADD DUP5 ADD MLOAD DUP6 DUP3 ADD PUSH1 0xA0 ADD MSTORE DUP4 ADD PUSH2 0x2E3B JUMP JUMPDEST DUP2 DUP2 GT ISZERO PUSH2 0x2E69 JUMPI PUSH1 0x0 PUSH1 0xA0 DUP4 DUP8 ADD ADD MSTORE JUMPDEST POP PUSH1 0x1F ADD PUSH32 0xFFFFFFFFFFFFFFFFFFFFFFFFFFFFFFFFFFFFFFFFFFFFFFFFFFFFFFFFFFFFFFE0 AND SWAP3 SWAP1 SWAP3 ADD PUSH1 0xA0 ADD SWAP7 SWAP6 POP POP POP POP POP POP JUMP JUMPDEST PUSH32 0x4E487B7100000000000000000000000000000000000000000000000000000000 PUSH1 0x0 MSTORE PUSH1 0x32 PUSH1 0x4 MSTORE PUSH1 0x24 PUSH1 0x0 REVERT JUMPDEST PUSH1 0x0 DUP3 CALLDATALOAD PUSH32 0xFFFFFFFFFFFFFFFFFFFFFFFFFFFFFFFFFFFFFFFFFFFFFFFFFFFFFFFFFFFFFD21 DUP4 CALLDATASIZE SUB ADD DUP2 SLT PUSH2 0x2CD7 JUMPI PUSH1 0x0 DUP1 REVERT JUMPDEST DUP1 CALLDATALOAD DUP3 MSTORE PUSH1 0x20 DUP2 ADD CALLDATALOAD PUSH1 0x20 DUP4 ADD MSTORE PUSH1 0x40 DUP2 ADD CALLDATALOAD PUSH1 0x40 DUP4 ADD MSTORE PUSH1 0x60 DUP2 ADD CALLDATALOAD PUSH2 0x2F29 DUP2 PUSH2 0x27D8 JUMP JUMPDEST PUSH20 0xFFFFFFFFFFFFFFFFFFFFFFFFFFFFFFFFFFFFFFFF AND PUSH1 0x60 DUP4 ADD MSTORE PUSH1 0x80 DUP2 DUP2 ADD CALLDATALOAD SWAP1 DUP4 ADD MSTORE PUSH1 0xA0 DUP1 DUP3 ADD CALLDATALOAD SWAP1 DUP4 ADD MSTORE PUSH1 0xC0 DUP1 DUP3 ADD CALLDATALOAD SWAP1 DUP4 ADD MSTORE PUSH1 0xE0 SWAP1 DUP2 ADD CALLDATALOAD SWAP2 ADD MSTORE JUMP JUMPDEST DUP1 CALLDATALOAD PUSH2 0x2F78 DUP2 PUSH2 0x27D8 JUMP JUMPDEST PUSH20 0xFFFFFFFFFFFFFFFFFFFFFFFFFFFFFFFFFFFFFFFF AND DUP3 MSTORE PUSH1 0x20 DUP2 DUP2 ADD CALLDATALOAD SWAP1 DUP4 ADD MSTORE PUSH1 0x40 SWAP1 DUP2 ADD CALLDATALOAD SWAP2 ADD MSTORE JUMP JUMPDEST PUSH1 0x0 PUSH2 0x2E0 PUSH2 0x2FB7 DUP5 PUSH2 0x2AEE DUP6 PUSH2 0x27FD JUMP JUMPDEST PUSH2 0x2FC4 PUSH1 0x20 DUP5 ADD DUP5 PUSH2 0x289D JUMP JUMPDEST DUP2 PUSH1 0x20 DUP7 ADD MSTORE PUSH2 0x2FD6 DUP3 DUP7 ADD DUP3 PUSH2 0x2987 JUMP JUMPDEST SWAP2 POP POP PUSH2 0x2FE6 PUSH1 0x40 DUP5 ADD DUP5 PUSH2 0x28DA JUMP JUMPDEST DUP6 DUP4 SUB PUSH1 0x40 DUP8 ADD MSTORE PUSH2 0x2FF9 DUP4 DUP3 DUP5 PUSH2 0x293E JUMP JUMPDEST SWAP3 POP POP POP PUSH2 0x3009 PUSH1 0x60 DUP5 ADD PUSH2 0x27FD JUMP JUMPDEST PUSH20 0xFFFFFFFFFFFFFFFFFFFFFFFFFFFFFFFFFFFFFFFF AND PUSH1 0x60 DUP6 ADD MSTORE PUSH2 0x3034 PUSH1 0x80 DUP1 DUP7 ADD SWAP1 DUP6 ADD PUSH2 0x2F03 JUMP JUMPDEST PUSH2 0x180 PUSH2 0x3043 DUP2 DUP6 ADD DUP6 PUSH2 0x28DA JUMP JUMPDEST DUP7 DUP5 SUB DUP4 DUP9 ADD MSTORE PUSH2 0x3055 DUP5 DUP3 DUP5 PUSH2 0x293E JUMP JUMPDEST SWAP4 POP POP POP POP PUSH2 0x1A0 PUSH2 0x3068 DUP2 DUP6 ADD PUSH2 0x27FD JUMP JUMPDEST PUSH20 0xFFFFFFFFFFFFFFFFFFFFFFFFFFFFFFFFFFFFFFFF AND SWAP1 DUP6 ADD MSTORE PUSH2 0x1C0 PUSH2 0x3091 DUP5 DUP3 ADD DUP6 PUSH2 0x2A73 JUMP JUMPDEST DUP6 DUP4 SUB DUP3 DUP8 ADD MSTORE PUSH2 0x30A2 DUP4 DUP3 PUSH2 0x2AA7 JUMP JUMPDEST SWAP3 POP POP POP PUSH2 0x1E0 PUSH2 0x30B5 DUP2 DUP6 ADD DUP6 PUSH2 0x28DA JUMP JUMPDEST DUP7 DUP5 SUB DUP4 DUP9 ADD MSTORE PUSH2 0x30C7 DUP5 DUP3 DUP5 PUSH2 0x293E JUMP JUMPDEST SWAP4 POP POP POP POP PUSH2 0x200 PUSH2 0x30DA DUP2 DUP6 ADD PUSH2 0x27FD JUMP JUMPDEST PUSH20 0xFFFFFFFFFFFFFFFFFFFFFFFFFFFFFFFFFFFFFFFF AND SWAP1 DUP6 ADD MSTORE PUSH2 0x220 PUSH2 0x3105 DUP2 DUP7 ADD DUP6 DUP4 ADD PUSH2 0x2F6D JUMP JUMPDEST POP PUSH2 0x280 PUSH2 0x3115 DUP2 DUP6 ADD DUP6 PUSH2 0x28DA JUMP JUMPDEST DUP7 DUP5 SUB DUP4 DUP9 ADD MSTORE PUSH2 0x3127 DUP5 DUP3 DUP5 PUSH2 0x293E JUMP JUMPDEST SWAP4 POP POP POP POP PUSH2 0x2A0 PUSH2 0x313A DUP2 DUP6 ADD PUSH2 0x27FD JUMP JUMPDEST PUSH20 0xFFFFFFFFFFFFFFFFFFFFFFFFFFFFFFFFFFFFFFFF AND SWAP1 DUP6 ADD MSTORE PUSH2 0x2C0 PUSH2 0x3163 DUP5 DUP3 ADD DUP6 PUSH2 0x28DA JUMP JUMPDEST DUP7 DUP5 SUB DUP4 DUP9 ADD MSTORE PUSH2 0x3175 DUP5 DUP3 DUP5 PUSH2 0x293E JUMP JUMPDEST SWAP8 SWAP7 POP POP POP POP POP POP POP JUMP JUMPDEST PUSH1 0x0 PUSH20 0xFFFFFFFFFFFFFFFFFFFFFFFFFFFFFFFFFFFFFFFF DUP1 DUP7 AND DUP4 MSTORE DUP1 DUP6 AND PUSH1 0x20 DUP5 ADD MSTORE POP PUSH1 0x60 PUSH1 0x40 DUP4 ADD MSTORE PUSH2 0x2C87 PUSH1 0x60 DUP4 ADD DUP5 PUSH2 0x2FA5 JUMP JUMPDEST PUSH1 0x20 DUP2 MSTORE PUSH1 0x0 PUSH2 0x2743 PUSH1 0x20 DUP4 ADD DUP5 PUSH2 0x2FA5 JUMP JUMPDEST PUSH1 0x80 DUP2 MSTORE PUSH1 0x0 PUSH2 0x31E0 PUSH1 0x80 DUP4 ADD DUP8 DUP10 PUSH2 0x293E JUMP JUMPDEST PUSH1 0x20 DUP4 ADD SWAP6 SWAP1 SWAP6 MSTORE POP PUSH1 0x40 DUP2 ADD SWAP3 SWAP1 SWAP3 MSTORE PUSH1 0x60 SWAP1 SWAP2 ADD MSTORE SWAP3 SWAP2 POP POP JUMP JUMPDEST PUSH1 0x0 PUSH32 0xFFFFFFFFFFFFFFFFFFFFFFFFFFFFFFFFFFFFFFFFFFFFFFFFFFFFFFFFFFFFFFFF DUP3 SUB PUSH2 0x3255 JUMPI PUSH32 0x4E487B7100000000000000000000000000000000000000000000000000000000 PUSH1 0x0 MSTORE PUSH1 0x11 PUSH1 0x4 MSTORE PUSH1 0x24 PUSH1 0x0 REVERT JUMPDEST POP PUSH1 0x1 ADD SWAP1 JUMP JUMPDEST PUSH1 0x0 DUP3 CALLDATALOAD PUSH32 0xFFFFFFFFFFFFFFFFFFFFFFFFFFFFFFFFFFFFFFFFFFFFFFFFFFFFFFFFFFFFFE01 DUP4 CALLDATASIZE SUB ADD DUP2 SLT PUSH2 0x2CD7 JUMPI PUSH1 0x0 DUP1 REVERT JUMPDEST DUP1 CALLDATALOAD PUSH2 0x329B DUP2 PUSH2 0x27D8 JUMP JUMPDEST PUSH20 0xFFFFFFFFFFFFFFFFFFFFFFFFFFFFFFFFFFFFFFFF AND DUP3 MSTORE PUSH1 0x20 DUP2 DUP2 ADD CALLDATALOAD SWAP1 DUP4 ADD MSTORE PUSH1 0x40 DUP1 DUP3 ADD CALLDATALOAD SWAP1 DUP4 ADD MSTORE PUSH1 0x60 SWAP1 DUP2 ADD CALLDATALOAD SWAP2 ADD MSTORE JUMP JUMPDEST PUSH1 0x0 PUSH2 0x2E0 PUSH2 0x32E4 DUP5 PUSH2 0x2AEE DUP6 PUSH2 0x27FD JUMP JUMPDEST PUSH2 0x32F1 PUSH1 0x20 DUP5 ADD DUP5 PUSH2 0x289D JUMP JUMPDEST DUP2 PUSH1 0x20 DUP7 ADD MSTORE PUSH2 0x3303 DUP3 DUP7 ADD DUP3 PUSH2 0x2987 JUMP JUMPDEST SWAP2 POP POP PUSH2 0x3313 PUSH1 0x40 DUP5 ADD DUP5 PUSH2 0x28DA JUMP JUMPDEST DUP6 DUP4 SUB PUSH1 0x40 DUP8 ADD MSTORE PUSH2 0x3326 DUP4 DUP3 DUP5 PUSH2 0x293E JUMP JUMPDEST SWAP3 POP POP POP PUSH2 0x3336 PUSH1 0x60 DUP5 ADD PUSH2 0x27FD JUMP JUMPDEST PUSH20 0xFFFFFFFFFFFFFFFFFFFFFFFFFFFFFFFFFFFFFFFF AND PUSH1 0x60 DUP6 ADD MSTORE PUSH2 0x3361 PUSH1 0x80 DUP1 DUP7 ADD SWAP1 DUP6 ADD PUSH2 0x2A13 JUMP JUMPDEST PUSH2 0x160 PUSH2 0x3370 DUP2 DUP6 ADD DUP6 PUSH2 0x28DA JUMP JUMPDEST DUP7 DUP5 SUB DUP4 DUP9 ADD MSTORE PUSH2 0x3382 DUP5 DUP3 DUP5 PUSH2 0x293E JUMP JUMPDEST SWAP4 POP POP POP POP PUSH2 0x180 PUSH2 0x3395 DUP2 DUP6 ADD PUSH2 0x27FD JUMP JUMPDEST PUSH20 0xFFFFFFFFFFFFFFFFFFFFFFFFFFFFFFFFFFFFFFFF AND SWAP1 DUP6 ADD MSTORE PUSH2 0x1A0 PUSH2 0x33BE DUP5 DUP3 ADD DUP6 PUSH2 0x2A73 JUMP JUMPDEST DUP6 DUP4 SUB DUP3 DUP8 ADD MSTORE PUSH2 0x33CF DUP4 DUP3 PUSH2 0x2AA7 JUMP JUMPDEST SWAP3 POP POP POP PUSH2 0x1C0 PUSH2 0x33E2 DUP2 DUP6 ADD DUP6 PUSH2 0x28DA JUMP JUMPDEST DUP7 DUP5 SUB DUP4 DUP9 ADD MSTORE PUSH2 0x33F4 DUP5 DUP3 DUP5 PUSH2 0x293E JUMP JUMPDEST SWAP4 POP POP POP POP PUSH2 0x1E0 PUSH2 0x3407 DUP2 DUP6 ADD PUSH2 0x27FD JUMP JUMPDEST PUSH20 0xFFFFFFFFFFFFFFFFFFFFFFFFFFFFFFFFFFFFFFFF AND SWAP1 DUP6 ADD MSTORE PUSH2 0x200 PUSH2 0x3105 DUP2 DUP7 ADD DUP6 DUP4 ADD PUSH2 0x3290 JUMP JUMPDEST PUSH1 0x0 PUSH20 0xFFFFFFFFFFFFFFFFFFFFFFFFFFFFFFFFFFFFFFFF DUP1 DUP7 AND DUP4 MSTORE DUP1 DUP6 AND PUSH1 0x20 DUP5 ADD MSTORE POP PUSH1 0x60 PUSH1 0x40 DUP4 ADD MSTORE PUSH2 0x2C87 PUSH1 0x60 DUP4 ADD DUP5 PUSH2 0x32D2 JUMP JUMPDEST PUSH1 0x20 DUP2 MSTORE PUSH1 0x0 PUSH2 0x2743 PUSH1 0x20 DUP4 ADD DUP5 PUSH2 0x32D2 JUMP INVALID LOG2 PUSH5 0x6970667358 0x22 SLT KECCAK256 0xBF 0x25 PUSH12 0xCA82DFD0441FED281AA4D76D DUP10 ISZERO 0x28 PUSH22 0x2E2E62A51ADF814156E791869D64736F6C634300080E STOP CALLER "
		},
		"gasEstimates": {
			"creation": {
				"codeDepositCost": "2698400",
				"executionCost": "infinite",
				"totalCost": "infinite"
			},
			"external": {
				"acceptOffer((address,(address,uint256,string,uint256,uint256,address),bytes,address,(uint256,uint256,uint256,address,uint256,uint256,uint256),bytes,address,(bytes,uint256),bytes,address,(address,uint256,uint256,uint256),bytes,address,bytes))": "infinite",
				"batchPurchase((address,(address,uint256,string,uint256,uint256,address),bytes,address,(uint256,uint256,uint256,address,uint256,uint256,uint256),bytes,address,(bytes,uint256),bytes,address)[])": "infinite",
				"finalizeAuction((address,(address,uint256,string,uint256,uint256,address),bytes,address,(uint256,uint256,uint256,address,uint256,uint256,uint256,uint256),bytes,address,(bytes,uint256),bytes,address,(address,uint256,uint256),bytes,address,bytes))": "infinite",
				"finalizeBatchAuctions((address,(address,uint256,string,uint256,uint256,address),bytes,address,(uint256,uint256,uint256,address,uint256,uint256,uint256,uint256),bytes,address,(bytes,uint256),bytes,address,(address,uint256,uint256),bytes,address,bytes)[])": "infinite",
				"finalizeBatchOffers((address,(address,uint256,string,uint256,uint256,address),bytes,address,(uint256,uint256,uint256,address,uint256,uint256,uint256),bytes,address,(bytes,uint256),bytes,address,(address,uint256,uint256,uint256),bytes,address,bytes)[])": "infinite",
				"purchase((address,(address,uint256,string,uint256,uint256,address),bytes,address,(uint256,uint256,uint256,address,uint256,uint256,uint256),bytes,address,(bytes,uint256),bytes,address))": "infinite",
				"setManagerAddress(address)": "27835"
			}
		},
		"methodIdentifiers": {
			"acceptOffer((address,(address,uint256,string,uint256,uint256,address),bytes,address,(uint256,uint256,uint256,address,uint256,uint256,uint256),bytes,address,(bytes,uint256),bytes,address,(address,uint256,uint256,uint256),bytes,address,bytes))": "8de193a8",
			"batchPurchase((address,(address,uint256,string,uint256,uint256,address),bytes,address,(uint256,uint256,uint256,address,uint256,uint256,uint256),bytes,address,(bytes,uint256),bytes,address)[])": "4f8d96c3",
			"finalizeAuction((address,(address,uint256,string,uint256,uint256,address),bytes,address,(uint256,uint256,uint256,address,uint256,uint256,uint256,uint256),bytes,address,(bytes,uint256),bytes,address,(address,uint256,uint256),bytes,address,bytes))": "9fa5a90c",
			"finalizeBatchAuctions((address,(address,uint256,string,uint256,uint256,address),bytes,address,(uint256,uint256,uint256,address,uint256,uint256,uint256,uint256),bytes,address,(bytes,uint256),bytes,address,(address,uint256,uint256),bytes,address,bytes)[])": "314b5df9",
			"finalizeBatchOffers((address,(address,uint256,string,uint256,uint256,address),bytes,address,(uint256,uint256,uint256,address,uint256,uint256,uint256),bytes,address,(bytes,uint256),bytes,address,(address,uint256,uint256,uint256),bytes,address,bytes)[])": "f4d2e72a",
			"purchase((address,(address,uint256,string,uint256,uint256,address),bytes,address,(uint256,uint256,uint256,address,uint256,uint256,uint256),bytes,address,(bytes,uint256),bytes,address))": "2d149590",
			"setManagerAddress(address)": "41431908"
		}
	},
	"abi": [
		{
			"inputs": [
				{
					"internalType": "address",
					"name": "managerAddress",
					"type": "address"
				},
				{
					"internalType": "address",
					"name": "safeAddress",
					"type": "address"
				}
			],
			"stateMutability": "nonpayable",
			"type": "constructor"
		},
		{
			"anonymous": false,
			"inputs": [
				{
					"indexed": true,
					"internalType": "uint256",
					"name": "id",
					"type": "uint256"
				},
				{
					"indexed": true,
					"internalType": "address",
					"name": "bidder",
					"type": "address"
				},
				{
					"indexed": true,
					"internalType": "address",
					"name": "collector",
					"type": "address"
				},
				{
					"indexed": false,
					"internalType": "bytes",
					"name": "bidSig",
					"type": "bytes"
				},
				{
					"indexed": false,
					"internalType": "uint256",
					"name": "listingId",
					"type": "uint256"
				},
				{
					"indexed": false,
					"internalType": "uint256",
					"name": "amount",
					"type": "uint256"
				},
				{
					"indexed": false,
					"internalType": "uint256",
					"name": "price",
					"type": "uint256"
				}
			],
			"name": "AuctionSuccessful",
			"type": "event"
		},
		{
			"anonymous": false,
			"inputs": [
				{
					"indexed": true,
					"internalType": "address",
					"name": "managerAddress",
					"type": "address"
				}
			],
			"name": "ManagerAddressChanged",
			"type": "event"
		},
		{
			"anonymous": false,
			"inputs": [
				{
					"indexed": true,
					"internalType": "uint256",
					"name": "id",
					"type": "uint256"
				},
				{
					"indexed": true,
					"internalType": "address",
					"name": "offeror",
					"type": "address"
				},
				{
					"indexed": true,
					"internalType": "address",
					"name": "collector",
					"type": "address"
				},
				{
					"indexed": false,
					"internalType": "bytes",
					"name": "offerSig",
					"type": "bytes"
				},
				{
					"indexed": false,
					"internalType": "uint256",
					"name": "listingId",
					"type": "uint256"
				},
				{
					"indexed": false,
					"internalType": "uint256",
					"name": "amount",
					"type": "uint256"
				},
				{
					"indexed": false,
					"internalType": "uint256",
					"name": "price",
					"type": "uint256"
				}
			],
			"name": "OfferAccepted",
			"type": "event"
		},
		{
			"anonymous": false,
			"inputs": [
				{
					"indexed": true,
					"internalType": "uint256",
					"name": "id",
					"type": "uint256"
				},
				{
					"indexed": true,
					"internalType": "address",
					"name": "buyer",
					"type": "address"
				},
				{
					"indexed": true,
					"internalType": "address",
					"name": "collector",
					"type": "address"
				},
				{
					"indexed": false,
					"internalType": "uint256",
					"name": "buyerId",
					"type": "uint256"
				},
				{
					"indexed": false,
					"internalType": "uint256",
					"name": "listingId",
					"type": "uint256"
				},
				{
					"indexed": false,
					"internalType": "uint256",
					"name": "amount",
					"type": "uint256"
				},
				{
					"indexed": false,
					"internalType": "uint256",
					"name": "price",
					"type": "uint256"
				}
			],
			"name": "PurchaseSuccessful",
			"type": "event"
		},
		{
			"inputs": [
				{
					"components": [
						{
							"internalType": "address",
							"name": "nftSigner",
							"type": "address"
						},
						{
							"components": [
								{
									"internalType": "address",
									"name": "creator",
									"type": "address"
								},
								{
									"internalType": "uint256",
									"name": "nftId",
									"type": "uint256"
								},
								{
									"internalType": "string",
									"name": "cid",
									"type": "string"
								},
								{
									"internalType": "uint256",
									"name": "supply",
									"type": "uint256"
								},
								{
									"internalType": "uint256",
									"name": "royalty",
									"type": "uint256"
								},
								{
									"internalType": "address",
									"name": "nftContract",
									"type": "address"
								}
							],
							"internalType": "struct TradeLib.NFTData",
							"name": "nftData",
							"type": "tuple"
						},
						{
							"internalType": "bytes",
							"name": "nftSignature",
							"type": "bytes"
						},
						{
							"internalType": "address",
							"name": "seller",
							"type": "address"
						},
						{
							"components": [
								{
									"internalType": "uint256",
									"name": "listingId",
									"type": "uint256"
								},
								{
									"internalType": "uint256",
									"name": "nftId",
									"type": "uint256"
								},
								{
									"internalType": "uint256",
									"name": "amount",
									"type": "uint256"
								},
								{
									"internalType": "address",
									"name": "tokenAddress",
									"type": "address"
								},
								{
									"internalType": "uint256",
									"name": "price",
									"type": "uint256"
								},
								{
									"internalType": "uint256",
									"name": "start",
									"type": "uint256"
								},
								{
									"internalType": "uint256",
									"name": "expiry",
									"type": "uint256"
								}
							],
							"internalType": "struct TradeLib.SaleData",
							"name": "sale",
							"type": "tuple"
						},
						{
							"internalType": "bytes",
							"name": "saleSignature",
							"type": "bytes"
						},
						{
							"internalType": "address",
							"name": "authorized",
							"type": "address"
						},
						{
							"components": [
								{
									"internalType": "bytes",
									"name": "signature",
									"type": "bytes"
								},
								{
									"internalType": "uint256",
									"name": "fee",
									"type": "uint256"
								}
							],
							"internalType": "struct TradeLib.AuthData",
							"name": "auth",
							"type": "tuple"
						},
						{
							"internalType": "bytes",
							"name": "authSignature",
							"type": "bytes"
						},
						{
							"internalType": "address",
							"name": "offerer",
							"type": "address"
						},
						{
							"components": [
								{
									"internalType": "address",
									"name": "to",
									"type": "address"
								},
								{
									"internalType": "uint256",
									"name": "listingId",
									"type": "uint256"
								},
								{
									"internalType": "uint256",
									"name": "amount",
									"type": "uint256"
								},
								{
									"internalType": "uint256",
									"name": "expiry",
									"type": "uint256"
								}
							],
							"internalType": "struct TradeLib.OfferData",
							"name": "offer",
							"type": "tuple"
						},
						{
							"internalType": "bytes",
							"name": "offerSignature",
							"type": "bytes"
						},
						{
							"internalType": "address",
							"name": "offerAuth",
							"type": "address"
						},
						{
							"internalType": "bytes",
							"name": "offerAuthSignature",
							"type": "bytes"
						}
					],
					"internalType": "struct TradeLib.FinalizeOffer",
					"name": "data",
					"type": "tuple"
				}
			],
			"name": "acceptOffer",
			"outputs": [],
			"stateMutability": "nonpayable",
			"type": "function"
		},
		{
			"inputs": [
				{
					"components": [
						{
							"internalType": "address",
							"name": "nftSigner",
							"type": "address"
						},
						{
							"components": [
								{
									"internalType": "address",
									"name": "creator",
									"type": "address"
								},
								{
									"internalType": "uint256",
									"name": "nftId",
									"type": "uint256"
								},
								{
									"internalType": "string",
									"name": "cid",
									"type": "string"
								},
								{
									"internalType": "uint256",
									"name": "supply",
									"type": "uint256"
								},
								{
									"internalType": "uint256",
									"name": "royalty",
									"type": "uint256"
								},
								{
									"internalType": "address",
									"name": "nftContract",
									"type": "address"
								}
							],
							"internalType": "struct TradeLib.NFTData",
							"name": "nftData",
							"type": "tuple"
						},
						{
							"internalType": "bytes",
							"name": "nftSignature",
							"type": "bytes"
						},
						{
							"internalType": "address",
							"name": "seller",
							"type": "address"
						},
						{
							"components": [
								{
									"internalType": "uint256",
									"name": "listingId",
									"type": "uint256"
								},
								{
									"internalType": "uint256",
									"name": "nftId",
									"type": "uint256"
								},
								{
									"internalType": "uint256",
									"name": "amount",
									"type": "uint256"
								},
								{
									"internalType": "address",
									"name": "tokenAddress",
									"type": "address"
								},
								{
									"internalType": "uint256",
									"name": "price",
									"type": "uint256"
								},
								{
									"internalType": "uint256",
									"name": "start",
									"type": "uint256"
								},
								{
									"internalType": "uint256",
									"name": "expiry",
									"type": "uint256"
								}
							],
							"internalType": "struct TradeLib.SaleData",
							"name": "sale",
							"type": "tuple"
						},
						{
							"internalType": "bytes",
							"name": "saleSignature",
							"type": "bytes"
						},
						{
							"internalType": "address",
							"name": "authorized",
							"type": "address"
						},
						{
							"components": [
								{
									"internalType": "bytes",
									"name": "signature",
									"type": "bytes"
								},
								{
									"internalType": "uint256",
									"name": "fee",
									"type": "uint256"
								}
							],
							"internalType": "struct TradeLib.AuthData",
							"name": "auth",
							"type": "tuple"
						},
						{
							"internalType": "bytes",
							"name": "authSignature",
							"type": "bytes"
						},
						{
							"internalType": "address",
							"name": "to",
							"type": "address"
						}
					],
					"internalType": "struct TradeLib.FinalizePurchase[]",
					"name": "data",
					"type": "tuple[]"
				}
			],
			"name": "batchPurchase",
			"outputs": [],
			"stateMutability": "nonpayable",
			"type": "function"
		},
		{
			"inputs": [
				{
					"components": [
						{
							"internalType": "address",
							"name": "nftSigner",
							"type": "address"
						},
						{
							"components": [
								{
									"internalType": "address",
									"name": "creator",
									"type": "address"
								},
								{
									"internalType": "uint256",
									"name": "nftId",
									"type": "uint256"
								},
								{
									"internalType": "string",
									"name": "cid",
									"type": "string"
								},
								{
									"internalType": "uint256",
									"name": "supply",
									"type": "uint256"
								},
								{
									"internalType": "uint256",
									"name": "royalty",
									"type": "uint256"
								},
								{
									"internalType": "address",
									"name": "nftContract",
									"type": "address"
								}
							],
							"internalType": "struct TradeLib.NFTData",
							"name": "nftData",
							"type": "tuple"
						},
						{
							"internalType": "bytes",
							"name": "nftSignature",
							"type": "bytes"
						},
						{
							"internalType": "address",
							"name": "seller",
							"type": "address"
						},
						{
							"components": [
								{
									"internalType": "uint256",
									"name": "listingId",
									"type": "uint256"
								},
								{
									"internalType": "uint256",
									"name": "nftId",
									"type": "uint256"
								},
								{
									"internalType": "uint256",
									"name": "amount",
									"type": "uint256"
								},
								{
									"internalType": "address",
									"name": "tokenAddress",
									"type": "address"
								},
								{
									"internalType": "uint256",
									"name": "startPrice",
									"type": "uint256"
								},
								{
									"internalType": "uint256",
									"name": "reservePrice",
									"type": "uint256"
								},
								{
									"internalType": "uint256",
									"name": "start",
									"type": "uint256"
								},
								{
									"internalType": "uint256",
									"name": "expiry",
									"type": "uint256"
								}
							],
							"internalType": "struct TradeLib.AuctionData",
							"name": "auction",
							"type": "tuple"
						},
						{
							"internalType": "bytes",
							"name": "auctionSignature",
							"type": "bytes"
						},
						{
							"internalType": "address",
							"name": "authorized",
							"type": "address"
						},
						{
							"components": [
								{
									"internalType": "bytes",
									"name": "signature",
									"type": "bytes"
								},
								{
									"internalType": "uint256",
									"name": "fee",
									"type": "uint256"
								}
							],
							"internalType": "struct TradeLib.AuthData",
							"name": "auth",
							"type": "tuple"
						},
						{
							"internalType": "bytes",
							"name": "authSignature",
							"type": "bytes"
						},
						{
							"internalType": "address",
							"name": "bidder",
							"type": "address"
						},
						{
							"components": [
								{
									"internalType": "address",
									"name": "to",
									"type": "address"
								},
								{
									"internalType": "uint256",
									"name": "listingId",
									"type": "uint256"
								},
								{
									"internalType": "uint256",
									"name": "amount",
									"type": "uint256"
								}
							],
							"internalType": "struct TradeLib.BidData",
							"name": "bid",
							"type": "tuple"
						},
						{
							"internalType": "bytes",
							"name": "bidSignature",
							"type": "bytes"
						},
						{
							"internalType": "address",
							"name": "bidAuth",
							"type": "address"
						},
						{
							"internalType": "bytes",
							"name": "bidAuthSignature",
							"type": "bytes"
						}
					],
					"internalType": "struct TradeLib.FinalizeAuction",
					"name": "data",
					"type": "tuple"
				}
			],
			"name": "finalizeAuction",
			"outputs": [],
			"stateMutability": "nonpayable",
			"type": "function"
		},
		{
			"inputs": [
				{
					"components": [
						{
							"internalType": "address",
							"name": "nftSigner",
							"type": "address"
						},
						{
							"components": [
								{
									"internalType": "address",
									"name": "creator",
									"type": "address"
								},
								{
									"internalType": "uint256",
									"name": "nftId",
									"type": "uint256"
								},
								{
									"internalType": "string",
									"name": "cid",
									"type": "string"
								},
								{
									"internalType": "uint256",
									"name": "supply",
									"type": "uint256"
								},
								{
									"internalType": "uint256",
									"name": "royalty",
									"type": "uint256"
								},
								{
									"internalType": "address",
									"name": "nftContract",
									"type": "address"
								}
							],
							"internalType": "struct TradeLib.NFTData",
							"name": "nftData",
							"type": "tuple"
						},
						{
							"internalType": "bytes",
							"name": "nftSignature",
							"type": "bytes"
						},
						{
							"internalType": "address",
							"name": "seller",
							"type": "address"
						},
						{
							"components": [
								{
									"internalType": "uint256",
									"name": "listingId",
									"type": "uint256"
								},
								{
									"internalType": "uint256",
									"name": "nftId",
									"type": "uint256"
								},
								{
									"internalType": "uint256",
									"name": "amount",
									"type": "uint256"
								},
								{
									"internalType": "address",
									"name": "tokenAddress",
									"type": "address"
								},
								{
									"internalType": "uint256",
									"name": "startPrice",
									"type": "uint256"
								},
								{
									"internalType": "uint256",
									"name": "reservePrice",
									"type": "uint256"
								},
								{
									"internalType": "uint256",
									"name": "start",
									"type": "uint256"
								},
								{
									"internalType": "uint256",
									"name": "expiry",
									"type": "uint256"
								}
							],
							"internalType": "struct TradeLib.AuctionData",
							"name": "auction",
							"type": "tuple"
						},
						{
							"internalType": "bytes",
							"name": "auctionSignature",
							"type": "bytes"
						},
						{
							"internalType": "address",
							"name": "authorized",
							"type": "address"
						},
						{
							"components": [
								{
									"internalType": "bytes",
									"name": "signature",
									"type": "bytes"
								},
								{
									"internalType": "uint256",
									"name": "fee",
									"type": "uint256"
								}
							],
							"internalType": "struct TradeLib.AuthData",
							"name": "auth",
							"type": "tuple"
						},
						{
							"internalType": "bytes",
							"name": "authSignature",
							"type": "bytes"
						},
						{
							"internalType": "address",
							"name": "bidder",
							"type": "address"
						},
						{
							"components": [
								{
									"internalType": "address",
									"name": "to",
									"type": "address"
								},
								{
									"internalType": "uint256",
									"name": "listingId",
									"type": "uint256"
								},
								{
									"internalType": "uint256",
									"name": "amount",
									"type": "uint256"
								}
							],
							"internalType": "struct TradeLib.BidData",
							"name": "bid",
							"type": "tuple"
						},
						{
							"internalType": "bytes",
							"name": "bidSignature",
							"type": "bytes"
						},
						{
							"internalType": "address",
							"name": "bidAuth",
							"type": "address"
						},
						{
							"internalType": "bytes",
							"name": "bidAuthSignature",
							"type": "bytes"
						}
					],
					"internalType": "struct TradeLib.FinalizeAuction[]",
					"name": "data",
					"type": "tuple[]"
				}
			],
			"name": "finalizeBatchAuctions",
			"outputs": [],
			"stateMutability": "nonpayable",
			"type": "function"
		},
		{
			"inputs": [
				{
					"components": [
						{
							"internalType": "address",
							"name": "nftSigner",
							"type": "address"
						},
						{
							"components": [
								{
									"internalType": "address",
									"name": "creator",
									"type": "address"
								},
								{
									"internalType": "uint256",
									"name": "nftId",
									"type": "uint256"
								},
								{
									"internalType": "string",
									"name": "cid",
									"type": "string"
								},
								{
									"internalType": "uint256",
									"name": "supply",
									"type": "uint256"
								},
								{
									"internalType": "uint256",
									"name": "royalty",
									"type": "uint256"
								},
								{
									"internalType": "address",
									"name": "nftContract",
									"type": "address"
								}
							],
							"internalType": "struct TradeLib.NFTData",
							"name": "nftData",
							"type": "tuple"
						},
						{
							"internalType": "bytes",
							"name": "nftSignature",
							"type": "bytes"
						},
						{
							"internalType": "address",
							"name": "seller",
							"type": "address"
						},
						{
							"components": [
								{
									"internalType": "uint256",
									"name": "listingId",
									"type": "uint256"
								},
								{
									"internalType": "uint256",
									"name": "nftId",
									"type": "uint256"
								},
								{
									"internalType": "uint256",
									"name": "amount",
									"type": "uint256"
								},
								{
									"internalType": "address",
									"name": "tokenAddress",
									"type": "address"
								},
								{
									"internalType": "uint256",
									"name": "price",
									"type": "uint256"
								},
								{
									"internalType": "uint256",
									"name": "start",
									"type": "uint256"
								},
								{
									"internalType": "uint256",
									"name": "expiry",
									"type": "uint256"
								}
							],
							"internalType": "struct TradeLib.SaleData",
							"name": "sale",
							"type": "tuple"
						},
						{
							"internalType": "bytes",
							"name": "saleSignature",
							"type": "bytes"
						},
						{
							"internalType": "address",
							"name": "authorized",
							"type": "address"
						},
						{
							"components": [
								{
									"internalType": "bytes",
									"name": "signature",
									"type": "bytes"
								},
								{
									"internalType": "uint256",
									"name": "fee",
									"type": "uint256"
								}
							],
							"internalType": "struct TradeLib.AuthData",
							"name": "auth",
							"type": "tuple"
						},
						{
							"internalType": "bytes",
							"name": "authSignature",
							"type": "bytes"
						},
						{
							"internalType": "address",
							"name": "offerer",
							"type": "address"
						},
						{
							"components": [
								{
									"internalType": "address",
									"name": "to",
									"type": "address"
								},
								{
									"internalType": "uint256",
									"name": "listingId",
									"type": "uint256"
								},
								{
									"internalType": "uint256",
									"name": "amount",
									"type": "uint256"
								},
								{
									"internalType": "uint256",
									"name": "expiry",
									"type": "uint256"
								}
							],
							"internalType": "struct TradeLib.OfferData",
							"name": "offer",
							"type": "tuple"
						},
						{
							"internalType": "bytes",
							"name": "offerSignature",
							"type": "bytes"
						},
						{
							"internalType": "address",
							"name": "offerAuth",
							"type": "address"
						},
						{
							"internalType": "bytes",
							"name": "offerAuthSignature",
							"type": "bytes"
						}
					],
					"internalType": "struct TradeLib.FinalizeOffer[]",
					"name": "data",
					"type": "tuple[]"
				}
			],
			"name": "finalizeBatchOffers",
			"outputs": [],
			"stateMutability": "nonpayable",
			"type": "function"
		},
		{
			"inputs": [
				{
					"components": [
						{
							"internalType": "address",
							"name": "nftSigner",
							"type": "address"
						},
						{
							"components": [
								{
									"internalType": "address",
									"name": "creator",
									"type": "address"
								},
								{
									"internalType": "uint256",
									"name": "nftId",
									"type": "uint256"
								},
								{
									"internalType": "string",
									"name": "cid",
									"type": "string"
								},
								{
									"internalType": "uint256",
									"name": "supply",
									"type": "uint256"
								},
								{
									"internalType": "uint256",
									"name": "royalty",
									"type": "uint256"
								},
								{
									"internalType": "address",
									"name": "nftContract",
									"type": "address"
								}
							],
							"internalType": "struct TradeLib.NFTData",
							"name": "nftData",
							"type": "tuple"
						},
						{
							"internalType": "bytes",
							"name": "nftSignature",
							"type": "bytes"
						},
						{
							"internalType": "address",
							"name": "seller",
							"type": "address"
						},
						{
							"components": [
								{
									"internalType": "uint256",
									"name": "listingId",
									"type": "uint256"
								},
								{
									"internalType": "uint256",
									"name": "nftId",
									"type": "uint256"
								},
								{
									"internalType": "uint256",
									"name": "amount",
									"type": "uint256"
								},
								{
									"internalType": "address",
									"name": "tokenAddress",
									"type": "address"
								},
								{
									"internalType": "uint256",
									"name": "price",
									"type": "uint256"
								},
								{
									"internalType": "uint256",
									"name": "start",
									"type": "uint256"
								},
								{
									"internalType": "uint256",
									"name": "expiry",
									"type": "uint256"
								}
							],
							"internalType": "struct TradeLib.SaleData",
							"name": "sale",
							"type": "tuple"
						},
						{
							"internalType": "bytes",
							"name": "saleSignature",
							"type": "bytes"
						},
						{
							"internalType": "address",
							"name": "authorized",
							"type": "address"
						},
						{
							"components": [
								{
									"internalType": "bytes",
									"name": "signature",
									"type": "bytes"
								},
								{
									"internalType": "uint256",
									"name": "fee",
									"type": "uint256"
								}
							],
							"internalType": "struct TradeLib.AuthData",
							"name": "auth",
							"type": "tuple"
						},
						{
							"internalType": "bytes",
							"name": "authSignature",
							"type": "bytes"
						},
						{
							"internalType": "address",
							"name": "to",
							"type": "address"
						}
					],
					"internalType": "struct TradeLib.FinalizePurchase",
					"name": "data",
					"type": "tuple"
				}
			],
			"name": "purchase",
			"outputs": [],
			"stateMutability": "nonpayable",
			"type": "function"
		},
		{
			"inputs": [
				{
					"internalType": "address",
					"name": "managerAddress",
					"type": "address"
				}
			],
			"name": "setManagerAddress",
			"outputs": [],
			"stateMutability": "nonpayable",
			"type": "function"
		}
	]
}