{
	"data": {
		"bytecode": {
			"linkReferences": {},
			"object": "615366610053600b82828239805160001a607314610046577f4e487b7100000000000000000000000000000000000000000000000000000000600052600060045260246000fd5b30600052607381538281f3fe73000000000000000000000000000000000000000030146080604052600436106100be5760003560e01c806397aba7f91161007b57806397aba7f914610185578063a7bb5803146101b5578063ed21010d146101e7578063ef33100514610203578063f3326ff51461021f578063fa5408011461023b576100be565b8063064d4138146100c3578063110ca0ab146100ec578063179c78b5146101085780631a94709314610124578063233dc4eb1461014057806381b405e41461015c575b600080fd5b8180156100cf57600080fd5b506100ea60048036038101906100e59190612eaf565b61026b565b005b61010660048036038101906101019190612fcb565b61053f565b005b610122600480360381019061011d919061305a565b61090b565b005b61013e600480360381019061013991906130c9565b610e73565b005b61015a60048036038101906101559190613132565b611258565b005b81801561016857600080fd5b50610183600480360381019061017e919061319a565b61163d565b005b61019f600480360381019061019a919061338e565b611bec565b6040516101ac91906133f9565b60405180910390f35b6101cf60048036038101906101ca9190613414565b611c5b565b6040516101de93929190613488565b60405180910390f35b61020160048036038101906101fc919061351c565b611cc3565b005b61021d6004803603810190610218919061358b565b612021565b005b610239600480360381019061023491906135d4565b612275565b005b61025560048036038101906102509190613643565b612939565b6040516102629190613670565b60405180910390f35b60008690508073ffffffffffffffffffffffffffffffffffffffff166323b872dd8787612710878d60800135886127106102a591906136ba565b6102af91906136ba565b6102b991906136ee565b6102c39190613777565b6040518463ffffffff1660e01b81526004016102e1939291906137c6565b6020604051808303816000875af1158015610300573d6000803e3d6000fd5b505050506040513d601f19601f820116820180604052508101906103249190613835565b610363576040517f08c379a000000000000000000000000000000000000000000000000000000000815260040161035a906138bf565b60405180910390fd5b8073ffffffffffffffffffffffffffffffffffffffff166323b872dd8786612710878761039091906136ee565b61039a9190613777565b6040518463ffffffff1660e01b81526004016103b8939291906137c6565b6020604051808303816000875af11580156103d7573d6000803e3d6000fd5b505050506040513d601f19601f820116820180604052508101906103fb9190613835565b61043a576040517f08c379a000000000000000000000000000000000000000000000000000000000815260040161043190613951565b60405180910390fd5b600088608001351115610535578073ffffffffffffffffffffffffffffffffffffffff166323b872dd878a60000160208101906104779190613971565b612710878d6080013561048a91906136ee565b6104949190613777565b6040518463ffffffff1660e01b81526004016104b2939291906137c6565b6020604051808303816000875af11580156104d1573d6000803e3d6000fd5b505050506040513d601f19601f820116820180604052508101906104f59190613835565b610534576040517f08c379a000000000000000000000000000000000000000000000000000000000815260040161052b906139ea565b60405180910390fd5b5b5050505050505050565b8173ffffffffffffffffffffffffffffffffffffffff16635d2b6a4e8261018001602081019061056f9190613971565b6040518263ffffffff1660e01b815260040161058b9190613a0a565b602060405180830381865afa1580156105a8573d6000803e3d6000fd5b505050506040513d601f19601f820116820180604052508101906105cc9190613835565b61060b576040517f08c379a000000000000000000000000000000000000000000000000000000000815260040161060290613a71565b60405180910390fd5b8273ffffffffffffffffffffffffffffffffffffffff16636f6b5c5d82608001600001356040518263ffffffff1660e01b815260040161064b9190613a91565b602060405180830381865afa158015610668573d6000803e3d6000fd5b505050506040513d601f19601f8201168201806040525081019061068c9190613835565b156106cc576040517f08c379a00000000000000000000000000000000000000000000000000000000081526004016106c390613af8565b60405180910390fd5b60b48160800160c001356106e09190613b18565b4210610721576040517f08c379a000000000000000000000000000000000000000000000000000000000815260040161071890613bba565b60405180910390fd5b8173ffffffffffffffffffffffffffffffffffffffff16638cdd9c8f6040518163ffffffff1660e01b8152600401602060405180830381865afa15801561076c573d6000803e3d6000fd5b505050506040513d601f19601f820116820180604052508101906107909190613bef565b8180602001906107a09190613c2b565b6080013511156107e5576040517f08c379a00000000000000000000000000000000000000000000000000000000081526004016107dc90613c9f565b60405180910390fd5b8173ffffffffffffffffffffffffffffffffffffffff166362a6f6a66040518163ffffffff1660e01b8152600401602060405180830381865afa158015610830573d6000803e3d6000fd5b505050506040513d601f19601f820116820180604052508101906108549190613bef565b81806101a001906108659190613cbf565b6020013511156108aa576040517f08c379a00000000000000000000000000000000000000000000000000000000081526004016108a190613d33565b60405180910390fd5b80608001602001358180602001906108c29190613c2b565b6020013514610906576040517f08c379a00000000000000000000000000000000000000000000000000000000081526004016108fd90613d9f565b60405180910390fd5b505050565b8173ffffffffffffffffffffffffffffffffffffffff16635d2b6a4e8261018001602081019061093b9190613971565b6040518263ffffffff1660e01b81526004016109579190613a0a565b602060405180830381865afa158015610974573d6000803e3d6000fd5b505050506040513d601f19601f820116820180604052508101906109989190613835565b6109d7576040517f08c379a00000000000000000000000000000000000000000000000000000000081526004016109ce90613a71565b60405180910390fd5b3373ffffffffffffffffffffffffffffffffffffffff16816060016020810190610a019190613971565b73ffffffffffffffffffffffffffffffffffffffff1614610a57576040517f08c379a0000000000000000000000000000000000000000000000000000000008152600401610a4e90613e0b565b60405180910390fd5b8273ffffffffffffffffffffffffffffffffffffffff16636f6b5c5d82608001600001356040518263ffffffff1660e01b8152600401610a979190613a91565b602060405180830381865afa158015610ab4573d6000803e3d6000fd5b505050506040513d601f19601f82011682018060405250810190610ad89190613835565b15610b18576040517f08c379a0000000000000000000000000000000000000000000000000000000008152600401610b0f90613af8565b60405180910390fd5b8273ffffffffffffffffffffffffffffffffffffffff1663db615a1782806102800190610b459190613e2b565b6040518363ffffffff1660e01b8152600401610b62929190613ecc565b602060405180830381865afa158015610b7f573d6000803e3d6000fd5b505050506040513d601f19601f82011682018060405250810190610ba39190613835565b15610be3576040517f08c379a0000000000000000000000000000000000000000000000000000000008152600401610bda90613f3c565b60405180910390fd5b60b48160800160c00135610bf79190613b18565b4210610c38576040517f08c379a0000000000000000000000000000000000000000000000000000000008152600401610c2f90613bba565b60405180910390fd5b8173ffffffffffffffffffffffffffffffffffffffff16638cdd9c8f6040518163ffffffff1660e01b8152600401602060405180830381865afa158015610c83573d6000803e3d6000fd5b505050506040513d601f19601f82011682018060405250810190610ca79190613bef565b818060200190610cb79190613c2b565b608001351115610cfc576040517f08c379a0000000000000000000000000000000000000000000000000000000008152600401610cf390613c9f565b60405180910390fd5b8173ffffffffffffffffffffffffffffffffffffffff166362a6f6a66040518163ffffffff1660e01b8152600401602060405180830381865afa158015610d47573d6000803e3d6000fd5b505050506040513d601f19601f82011682018060405250810190610d6b9190613bef565b81806101a00190610d7c9190613cbf565b602001351115610dc1576040517f08c379a0000000000000000000000000000000000000000000000000000000008152600401610db890613d33565b60405180910390fd5b806080016000013581610200016020013514610e12576040517f08c379a0000000000000000000000000000000000000000000000000000000008152600401610e0990613fa8565b60405180910390fd5b8060800160200135818060200190610e2a9190613c2b565b6020013514610e6e576040517f08c379a0000000000000000000000000000000000000000000000000000000008152600401610e6590613d9f565b60405180910390fd5b505050565b610efa816000016020810190610e899190613971565b828060200190610e999190613c2b565b610ea29061412f565b838060400190610eb29190613e2b565b8080601f016020809104026020016040519081016040528093929190818152602001838380828437600081840152601f19601f82011690508083019250505050505050612969565b610f0357600080fd5b610f86816060016020810190610f199190613971565b82608001803603810190610f2d91906141f6565b83806101600190610f3e9190613e2b565b8080601f016020809104026020016040519081016040528093929190818152602001838380828437600081840152601f19601f82011690508083019250505050505050612a01565b610fc5576040517f08c379a0000000000000000000000000000000000000000000000000000000008152600401610fbc90614295565b60405180910390fd5b61104f81610180016020810190610fdc9190613971565b82806101a00190610fed9190613cbf565b610ff690614321565b83806101c001906110079190613e2b565b8080601f016020809104026020016040519081016040528093929190818152602001838380828437600081840152601f19601f82011690508083019250505050505050612aa5565b61108e576040517f08c379a000000000000000000000000000000000000000000000000000000000815260040161108590614380565b60405180910390fd5b611113816101e00160208101906110a59190613971565b82610200018036038101906110ba9190614418565b838061028001906110cb9190613e2b565b8080601f016020809104026020016040519081016040528093929190818152602001838380828437600081840152601f19601f82011690508083019250505050505050612b2b565b611152576040517f08c379a0000000000000000000000000000000000000000000000000000000008152600401611149906144b7565b60405180910390fd5b611216816102a00160208101906111699190613971565b8280610280019061117a9190613e2b565b8080601f016020809104026020016040519081016040528093929190818152602001838380828437600081840152601f19601f8201169050808301925050505050505083806102c001906111ce9190613e2b565b8080601f016020809104026020016040519081016040528093929190818152602001838380828437600081840152601f19601f82011690508083019250505050505050612bbd565b611255576040517f08c379a000000000000000000000000000000000000000000000000000000000815260040161124c90614523565b60405180910390fd5b50565b6112df81600001602081019061126e9190613971565b82806020019061127e9190613c2b565b6112879061412f565b8380604001906112979190613e2b565b8080601f016020809104026020016040519081016040528093929190818152602001838380828437600081840152601f19601f82011690508083019250505050505050612969565b6112e857600080fd5b61136b8160600160208101906112fe9190613971565b82608001803603810190611312919061460d565b838061018001906113239190613e2b565b8080601f016020809104026020016040519081016040528093929190818152602001838380828437600081840152601f19601f82011690508083019250505050505050612c14565b6113aa576040517f08c379a00000000000000000000000000000000000000000000000000000000081526004016113a1906146ad565b60405180910390fd5b611434816101a00160208101906113c19190613971565b82806101c001906113d29190613cbf565b6113db90614321565b83806101e001906113ec9190613e2b565b8080601f016020809104026020016040519081016040528093929190818152602001838380828437600081840152601f19601f82011690508083019250505050505050612aa5565b611473576040517f08c379a000000000000000000000000000000000000000000000000000000000815260040161146a90614719565b60405180910390fd5b6114f88161020001602081019061148a9190613971565b826102200180360381019061149f919061479d565b838061028001906114b09190613e2b565b8080601f016020809104026020016040519081016040528093929190818152602001838380828437600081840152601f19601f82011690508083019250505050505050612cbe565b611537576040517f08c379a000000000000000000000000000000000000000000000000000000000815260040161152e90614816565b60405180910390fd5b6115fb816102a001602081019061154e9190613971565b8280610280019061155f9190613e2b565b8080601f016020809104026020016040519081016040528093929190818152602001838380828437600081840152601f19601f8201169050808301925050505050505083806102c001906115b39190613e2b565b8080601f016020809104026020016040519081016040528093929190818152602001838380828437600081840152601f19601f82011690508083019250505050505050612bbd565b61163a576040517f08c379a000000000000000000000000000000000000000000000000000000000815260040161163190614523565b60405180910390fd5b50565b60008260a00160208101906116529190613971565b905060008173ffffffffffffffffffffffffffffffffffffffff1663bd85b03985602001356040518263ffffffff1660e01b81526004016116939190613a91565b602060405180830381865afa1580156116b0573d6000803e3d6000fd5b505050506040513d601f19601f820116820180604052508101906116d49190613bef565b905060008111156117d0578173ffffffffffffffffffffffffffffffffffffffff166323f5867f85602001356040518263ffffffff1660e01b815260040161171c9190613a91565b600060405180830381865afa158015611739573d6000803e3d6000fd5b505050506040513d6000823e3d601f19601f8201168201806040525081019061176291906148d9565b805190602001208380606001906117799190613e2b565b604051611787929190614952565b6040518091039020146117cf576040517f08c379a00000000000000000000000000000000000000000000000000000000081526004016117c6906149b7565b60405180910390fd5b5b8260000160208101906117e39190613971565b73ffffffffffffffffffffffffffffffffffffffff1684600001602081019061180c9190613971565b73ffffffffffffffffffffffffffffffffffffffff16146118c9578173ffffffffffffffffffffffffffffffffffffffff1663f242432a8460000160208101906118569190613971565b8560200160208101906118699190613971565b876020013587604001356040518563ffffffff1660e01b815260040161189294939291906149fd565b600060405180830381600087803b1580156118ac57600080fd5b505af11580156118c0573d6000803e3d6000fd5b50505050611be6565b60008185606001356118db91906136ba565b905060008373ffffffffffffffffffffffffffffffffffffffff1662fdd58e86600001602081019061190d9190613971565b88602001356040518363ffffffff1660e01b815260040161192f929190614a55565b602060405180830381865afa15801561194c573d6000803e3d6000fd5b505050506040513d601f19601f820116820180604052508101906119709190613bef565b9050846040013582826119839190613b18565b11156119c4576040517f08c379a00000000000000000000000000000000000000000000000000000000081526004016119bb90614aca565b60405180910390fd5b81856040013511611a81578373ffffffffffffffffffffffffffffffffffffffff1663c1341c4f8660200160208101906119fe9190613971565b88602001358860400135898060600190611a189190613e2b565b8c8060400190611a289190614aea565b6040518863ffffffff1660e01b8152600401611a4a9796959493929190614b7a565b600060405180830381600087803b158015611a6457600080fd5b505af1158015611a78573d6000803e3d6000fd5b50505050611be3565b6000828660400135611a9391906136ba565b90506000831115611b48578473ffffffffffffffffffffffffffffffffffffffff1663c1341c4f876020016020810190611acd9190613971565b8960200135868a8060600190611ae39190613e2b565b8d8060400190611af39190614aea565b6040518863ffffffff1660e01b8152600401611b159796959493929190614b7a565b600060405180830381600087803b158015611b2f57600080fd5b505af1158015611b43573d6000803e3d6000fd5b505050505b8473ffffffffffffffffffffffffffffffffffffffff1663f242432a876000016020810190611b779190613971565b886020016020810190611b8a9190613971565b8a60200135856040518563ffffffff1660e01b8152600401611baf94939291906149fd565b600060405180830381600087803b158015611bc957600080fd5b505af1158015611bdd573d6000803e3d6000fd5b50505050505b50505b50505050565b600080600080611bfb85611c5b565b92509250925060018682858560405160008152602001604052604051611c249493929190614bfd565b6020604051602081039080840390855afa158015611c46573d6000803e3d6000fd5b50505060206040510351935050505092915050565b60008060006041845114611ca4576040517f08c379a0000000000000000000000000000000000000000000000000000000008152600401611c9b90614c8e565b60405180910390fd5b6020840151925060408401519150606084015160001a90509193909250565b8173ffffffffffffffffffffffffffffffffffffffff16635d2b6a4e826000016020810190611cf29190613971565b6040518263ffffffff1660e01b8152600401611d0e9190613a0a565b602060405180830381865afa158015611d2b573d6000803e3d6000fd5b505050506040513d601f19601f82011682018060405250810190611d4f9190613835565b611d8e576040517f08c379a0000000000000000000000000000000000000000000000000000000008152600401611d8590613a71565b60405180910390fd5b3373ffffffffffffffffffffffffffffffffffffffff16818060200190611db59190613c2b565b6000016020810190611dc79190613971565b73ffffffffffffffffffffffffffffffffffffffff1614611e1d576040517f08c379a0000000000000000000000000000000000000000000000000000000008152600401611e1490613e0b565b60405180910390fd5b8173ffffffffffffffffffffffffffffffffffffffff16638cdd9c8f6040518163ffffffff1660e01b8152600401602060405180830381865afa158015611e68573d6000803e3d6000fd5b505050506040513d601f19601f82011682018060405250810190611e8c9190613bef565b818060200190611e9c9190613c2b565b608001351115611ee1576040517f08c379a0000000000000000000000000000000000000000000000000000000008152600401611ed890613c9f565b60405180910390fd5b611f1783828060200190611ef59190613c2b565b60200135838060200190611f099190613c2b565b606001358460600135612d4a565b611f56576040517f08c379a0000000000000000000000000000000000000000000000000000000008152600401611f4d90614cfa565b60405180910390fd5b611fdd816000016020810190611f6c9190613971565b828060200190611f7c9190613c2b565b611f859061412f565b838060400190611f959190613e2b565b8080601f016020809104026020016040519081016040528093929190818152602001838380828437600081840152601f19601f82011690508083019250505050505050612969565b61201c576040517f08c379a000000000000000000000000000000000000000000000000000000000815260040161201390614d8c565b60405180910390fd5b505050565b6120a88160000160208101906120379190613971565b8280602001906120479190613c2b565b6120509061412f565b8380604001906120609190613e2b565b8080601f016020809104026020016040519081016040528093929190818152602001838380828437600081840152601f19601f82011690508083019250505050505050612969565b6120e7576040517f08c379a00000000000000000000000000000000000000000000000000000000081526004016120de90614df8565b60405180910390fd5b61216a8160600160208101906120fd9190613971565b8260800180360381019061211191906141f6565b838061016001906121229190613e2b565b8080601f016020809104026020016040519081016040528093929190818152602001838380828437600081840152601f19601f82011690508083019250505050505050612a01565b6121a9576040517f08c379a00000000000000000000000000000000000000000000000000000000081526004016121a090614295565b60405180910390fd5b612233816101800160208101906121c09190613971565b82806101a001906121d19190613cbf565b6121da90614321565b83806101c001906121eb9190613e2b565b8080601f016020809104026020016040519081016040528093929190818152602001838380828437600081840152601f19601f82011690508083019250505050505050612aa5565b612272576040517f08c379a000000000000000000000000000000000000000000000000000000000815260040161226990614380565b60405180910390fd5b50565b8173ffffffffffffffffffffffffffffffffffffffff16635d2b6a4e826101a00160208101906122a59190613971565b6040518263ffffffff1660e01b81526004016122c19190613a0a565b602060405180830381865afa1580156122de573d6000803e3d6000fd5b505050506040513d601f19601f820116820180604052508101906123029190613835565b612341576040517f08c379a000000000000000000000000000000000000000000000000000000000815260040161233890613a71565b60405180910390fd5b8273ffffffffffffffffffffffffffffffffffffffff16636f6b5c5d82608001600001356040518263ffffffff1660e01b81526004016123819190613a91565b602060405180830381865afa15801561239e573d6000803e3d6000fd5b505050506040513d601f19601f820116820180604052508101906123c29190613835565b15612402576040517f08c379a00000000000000000000000000000000000000000000000000000000081526004016123f990613af8565b60405180910390fd5b60004290508160800160e001358111612450576040517f08c379a000000000000000000000000000000000000000000000000000000000815260040161244790614e64565b60405180910390fd5b8273ffffffffffffffffffffffffffffffffffffffff1663f503449a6040518163ffffffff1660e01b8152600401602060405180830381865afa15801561249b573d6000803e3d6000fd5b505050506040513d601f19601f820116820180604052508101906124bf9190613bef565b8260800160e001356124d19190613b18565b8111612512576040517f08c379a000000000000000000000000000000000000000000000000000000000815260040161250990614ed0565b60405180910390fd5b6107088373ffffffffffffffffffffffffffffffffffffffff166316b285176040518163ffffffff1660e01b8152600401602060405180830381865afa158015612560573d6000803e3d6000fd5b505050506040513d601f19601f820116820180604052508101906125849190613bef565b8360800160e001356125969190613b18565b6125a09190613b18565b81106125e1576040517f08c379a00000000000000000000000000000000000000000000000000000000081526004016125d890614f3c565b60405180910390fd5b8373ffffffffffffffffffffffffffffffffffffffff1663db615a178380610280019061260e9190613e2b565b6040518363ffffffff1660e01b815260040161262b929190613ecc565b602060405180830381865afa158015612648573d6000803e3d6000fd5b505050506040513d601f19601f8201168201806040525081019061266c9190613835565b156126ac576040517f08c379a00000000000000000000000000000000000000000000000000000000081526004016126a390613f3c565b60405180910390fd5b8160800160000135826102200160200135146126fd576040517f08c379a00000000000000000000000000000000000000000000000000000000081526004016126f490613fa8565b60405180910390fd5b81608001602001358280602001906127159190613c2b565b6020013514612759576040517f08c379a000000000000000000000000000000000000000000000000000000000815260040161275090613d9f565b60405180910390fd5b8273ffffffffffffffffffffffffffffffffffffffff16638cdd9c8f6040518163ffffffff1660e01b8152600401602060405180830381865afa1580156127a4573d6000803e3d6000fd5b505050506040513d601f19601f820116820180604052508101906127c89190613bef565b8280602001906127d89190613c2b565b60800135111561281d576040517f08c379a000000000000000000000000000000000000000000000000000000000815260040161281490613c9f565b60405180910390fd5b8273ffffffffffffffffffffffffffffffffffffffff166362a6f6a66040518163ffffffff1660e01b8152600401602060405180830381865afa158015612868573d6000803e3d6000fd5b505050506040513d601f19601f8201168201806040525081019061288c9190613bef565b82806101c0019061289d9190613cbf565b6020013511156128e2576040517f08c379a00000000000000000000000000000000000000000000000000000000081526004016128d990613d33565b60405180910390fd5b8160800160a0013582610220016040013511612933576040517f08c379a000000000000000000000000000000000000000000000000000000000815260040161292a90614fa8565b60405180910390fd5b50505050565b60008160405160200161294c9190615040565b604051602081830303815290604052805190602001209050919050565b60008083600001518460800151856020015186606001518760a001516040516020016129999594939291906150cf565b60405160208183030381529060405290506000818051906020012090508573ffffffffffffffffffffffffffffffffffffffff166129df6129d983612939565b86611bec565b73ffffffffffffffffffffffffffffffffffffffff1614925050509392505050565b600080836000015184602001518560400151866060015187608001518860a001518960c00151604051602001612a3d979695949392919061512e565b60405160208183030381529060405290506000818051906020012090508573ffffffffffffffffffffffffffffffffffffffff16612a83612a7d83612939565b86611bec565b73ffffffffffffffffffffffffffffffffffffffff1614925050509392505050565b60008083600001518460200151604051602001612ac39291906151eb565b60405160208183030381529060405290506000818051906020012090508573ffffffffffffffffffffffffffffffffffffffff16612b09612b0383612939565b86611bec565b73ffffffffffffffffffffffffffffffffffffffff1614925050509392505050565b6000808360000151846020015185604001518660600151604051602001612b559493929190615213565b60405160208183030381529060405290506000818051906020012090508573ffffffffffffffffffffffffffffffffffffffff16612b9b612b9583612939565b86611bec565b73ffffffffffffffffffffffffffffffffffffffff1614925050509392505050565b600080838051906020012090508473ffffffffffffffffffffffffffffffffffffffff16612bf3612bed83612939565b85611bec565b73ffffffffffffffffffffffffffffffffffffffff16149150509392505050565b600080836000015184602001518560400151866060015187608001518860a001518960c001518a60e00151604051602001612c56989796959493929190615261565b60405160208183030381529060405290506000818051906020012090508573ffffffffffffffffffffffffffffffffffffffff16612c9c612c9683612939565b86611bec565b73ffffffffffffffffffffffffffffffffffffffff1614925050509392505050565b600080836000015184602001518560400151604051602001612ce2939291906152f3565b60405160208183030381529060405290506000818051906020012090508573ffffffffffffffffffffffffffffffffffffffff16612d28612d2283612939565b86611bec565b73ffffffffffffffffffffffffffffffffffffffff1614925050509392505050565b6000808573ffffffffffffffffffffffffffffffffffffffff1663bd85b039866040518263ffffffff1660e01b8152600401612d869190613a91565b602060405180830381865afa158015612da3573d6000803e3d6000fd5b505050506040513d601f19601f82011682018060405250810190612dc79190613bef565b9050838382612dd69190613b18565b1115915050949350505050565b6000604051905090565b600080fd5b600080fd5b600080fd5b600060c08284031215612e1257612e11612df7565b5b81905092915050565b600073ffffffffffffffffffffffffffffffffffffffff82169050919050565b6000612e4682612e1b565b9050919050565b612e5681612e3b565b8114612e6157600080fd5b50565b600081359050612e7381612e4d565b92915050565b6000819050919050565b612e8c81612e79565b8114612e9757600080fd5b50565b600081359050612ea981612e83565b92915050565b600080600080600080600060e0888a031215612ece57612ecd612ded565b5b600088013567ffffffffffffffff811115612eec57612eeb612df2565b5b612ef88a828b01612dfc565b9750506020612f098a828b01612e64565b9650506040612f1a8a828b01612e64565b9550506060612f2b8a828b01612e64565b9450506080612f3c8a828b01612e64565b93505060a0612f4d8a828b01612e9a565b92505060c0612f5e8a828b01612e9a565b91505092959891949750929550565b6000612f7882612e3b565b9050919050565b612f8881612f6d565b8114612f9357600080fd5b50565b600081359050612fa581612f7f565b92915050565b60006102008284031215612fc257612fc1612df7565b5b81905092915050565b600080600060608486031215612fe457612fe3612ded565b5b6000612ff286828701612e64565b935050602061300386828701612f96565b925050604084013567ffffffffffffffff81111561302457613023612df2565b5b61303086828701612fab565b9150509250925092565b60006102e0828403121561305157613050612df7565b5b81905092915050565b60008060006060848603121561307357613072612ded565b5b600061308186828701612e64565b935050602061309286828701612f96565b925050604084013567ffffffffffffffff8111156130b3576130b2612df2565b5b6130bf8682870161303a565b9150509250925092565b6000602082840312156130df576130de612ded565b5b600082013567ffffffffffffffff8111156130fd576130fc612df2565b5b6131098482850161303a565b91505092915050565b60006102e0828403121561312957613128612df7565b5b81905092915050565b60006020828403121561314857613147612ded565b5b600082013567ffffffffffffffff81111561316657613165612df2565b5b61317284828501613112565b91505092915050565b60006080828403121561319157613190612df7565b5b81905092915050565b600080604083850312156131b1576131b0612ded565b5b600083013567ffffffffffffffff8111156131cf576131ce612df2565b5b6131db85828601612dfc565b925050602083013567ffffffffffffffff8111156131fc576131fb612df2565b5b6132088582860161317b565b9150509250929050565b6000819050919050565b61322581613212565b811461323057600080fd5b50565b6000813590506132428161321c565b92915050565b600080fd5b600080fd5b6000601f19601f8301169050919050565b7f4e487b7100000000000000000000000000000000000000000000000000000000600052604160045260246000fd5b61329b82613252565b810181811067ffffffffffffffff821117156132ba576132b9613263565b5b80604052505050565b60006132cd612de3565b90506132d98282613292565b919050565b600067ffffffffffffffff8211156132f9576132f8613263565b5b61330282613252565b9050602081019050919050565b82818337600083830152505050565b600061333161332c846132de565b6132c3565b90508281526020810184848401111561334d5761334c61324d565b5b61335884828561330f565b509392505050565b600082601f83011261337557613374613248565b5b813561338584826020860161331e565b91505092915050565b600080604083850312156133a5576133a4612ded565b5b60006133b385828601613233565b925050602083013567ffffffffffffffff8111156133d4576133d3612df2565b5b6133e085828601613360565b9150509250929050565b6133f381612e3b565b82525050565b600060208201905061340e60008301846133ea565b92915050565b60006020828403121561342a57613429612ded565b5b600082013567ffffffffffffffff81111561344857613447612df2565b5b61345484828501613360565b91505092915050565b61346681613212565b82525050565b600060ff82169050919050565b6134828161346c565b82525050565b600060608201905061349d600083018661345d565b6134aa602083018561345d565b6134b76040830184613479565b949350505050565b60006134ca82612e3b565b9050919050565b6134da816134bf565b81146134e557600080fd5b50565b6000813590506134f7816134d1565b92915050565b600060a0828403121561351357613512612df7565b5b81905092915050565b60008060006060848603121561353557613534612ded565b5b6000613543868287016134e8565b935050602061355486828701612f96565b925050604084013567ffffffffffffffff81111561357557613574612df2565b5b613581868287016134fd565b9150509250925092565b6000602082840312156135a1576135a0612ded565b5b600082013567ffffffffffffffff8111156135bf576135be612df2565b5b6135cb84828501612fab565b91505092915050565b6000806000606084860312156135ed576135ec612ded565b5b60006135fb86828701612e64565b935050602061360c86828701612f96565b925050604084013567ffffffffffffffff81111561362d5761362c612df2565b5b61363986828701613112565b9150509250925092565b60006020828403121561365957613658612ded565b5b600061366784828501613233565b91505092915050565b6000602082019050613685600083018461345d565b92915050565b7f4e487b7100000000000000000000000000000000000000000000000000000000600052601160045260246000fd5b60006136c582612e79565b91506136d083612e79565b9250828210156136e3576136e261368b565b5b828203905092915050565b60006136f982612e79565b915061370483612e79565b9250817fffffffffffffffffffffffffffffffffffffffffffffffffffffffffffffffff048311821515161561373d5761373c61368b565b5b828202905092915050565b7f4e487b7100000000000000000000000000000000000000000000000000000000600052601260045260246000fd5b600061378282612e79565b915061378d83612e79565b92508261379d5761379c613748565b5b828204905092915050565b6137b181612e3b565b82525050565b6137c081612e79565b82525050565b60006060820190506137db60008301866137a8565b6137e860208301856137a8565b6137f560408301846137b7565b949350505050565b60008115159050919050565b613812816137fd565b811461381d57600080fd5b50565b60008151905061382f81613809565b92915050565b60006020828403121561384b5761384a612ded565b5b600061385984828501613820565b91505092915050565b600082825260208201905092915050565b7f475543207472616e7366657220746f2073656c6c6572206661696c6564000000600082015250565b60006138a9601d83613862565b91506138b482613873565b602082019050919050565b600060208201905081810360008301526138d88161389c565b9050919050565b7f475543207472616e7366657220746f2062656e6566696369617279206661696c60008201527f6564000000000000000000000000000000000000000000000000000000000000602082015250565b600061393b602283613862565b9150613946826138df565b604082019050919050565b6000602082019050818103600083015261396a8161392e565b9050919050565b60006020828403121561398757613986612ded565b5b600061399584828501612e64565b91505092915050565b7f475543207472616e7366657220746f2063726561746f72206661696c65640000600082015250565b60006139d4601e83613862565b91506139df8261399e565b602082019050919050565b60006020820190508181036000830152613a03816139c7565b9050919050565b6000602082019050613a1f60008301846137a8565b92915050565b7f5369676e6572206e6f7420617574686f72697a65640000000000000000000000600082015250565b6000613a5b601583613862565b9150613a6682613a25565b602082019050919050565b60006020820190508181036000830152613a8a81613a4e565b9050919050565b6000602082019050613aa660008301846137b7565b92915050565b7f4c697374696e672063616e63656c6c6564000000000000000000000000000000600082015250565b6000613ae2601183613862565b9150613aed82613aac565b602082019050919050565b60006020820190508181036000830152613b1181613ad5565b9050919050565b6000613b2382612e79565b9150613b2e83612e79565b9250827fffffffffffffffffffffffffffffffffffffffffffffffffffffffffffffffff03821115613b6357613b6261368b565b5b828201905092915050565b7f4c697374696e6720657870697265640000000000000000000000000000000000600082015250565b6000613ba4600f83613862565b9150613baf82613b6e565b602082019050919050565b60006020820190508181036000830152613bd381613b97565b9050919050565b600081519050613be981612e83565b92915050565b600060208284031215613c0557613c04612ded565b5b6000613c1384828501613bda565b91505092915050565b600080fd5b600080fd5b600080fd5b60008235600160c003833603038112613c4757613c46613c1c565b5b80830191505092915050565b7f526f79616c747920746f6f206869676800000000000000000000000000000000600082015250565b6000613c89601083613862565b9150613c9482613c53565b602082019050919050565b60006020820190508181036000830152613cb881613c7c565b9050919050565b600082356001604003833603038112613cdb57613cda613c1c565b5b80830191505092915050565b7f506c6174666f726d2066656520746f6f20686967680000000000000000000000600082015250565b6000613d1d601583613862565b9150613d2882613ce7565b602082019050919050565b60006020820190508181036000830152613d4c81613d10565b9050919050565b7f4e4654206964206d69736d617463680000000000000000000000000000000000600082015250565b6000613d89600f83613862565b9150613d9482613d53565b602082019050919050565b60006020820190508181036000830152613db881613d7c565b9050919050565b7f556e617574686f72697a65640000000000000000000000000000000000000000600082015250565b6000613df5600c83613862565b9150613e0082613dbf565b602082019050919050565b60006020820190508181036000830152613e2481613de8565b9050919050565b60008083356001602003843603038112613e4857613e47613c1c565b5b80840192508235915067ffffffffffffffff821115613e6a57613e69613c21565b5b602083019250600182023603831315613e8657613e85613c26565b5b509250929050565b600082825260208201905092915050565b6000613eab8385613e8e565b9350613eb883858461330f565b613ec183613252565b840190509392505050565b60006020820190508181036000830152613ee7818486613e9f565b90509392505050565b7f4f666665722063616e63656c6c65640000000000000000000000000000000000600082015250565b6000613f26600f83613862565b9150613f3182613ef0565b602082019050919050565b60006020820190508181036000830152613f5581613f19565b9050919050565b7f4c697374696e67206964206d69736d6174636800000000000000000000000000600082015250565b6000613f92601383613862565b9150613f9d82613f5c565b602082019050919050565b60006020820190508181036000830152613fc181613f85565b9050919050565b600080fd5b600080fd5b600067ffffffffffffffff821115613fed57613fec613263565b5b613ff682613252565b9050602081019050919050565b600061401661401184613fd2565b6132c3565b9050828152602081018484840111156140325761403161324d565b5b61403d84828561330f565b509392505050565b600082601f83011261405a57614059613248565b5b813561406a848260208601614003565b91505092915050565b600060c0828403121561408957614088613fc8565b5b61409360c06132c3565b905060006140a384828501612e64565b60008301525060206140b784828501612e9a565b602083015250604082013567ffffffffffffffff8111156140db576140da613fcd565b5b6140e784828501614045565b60408301525060606140fb84828501612e9a565b606083015250608061410f84828501612e9a565b60808301525060a061412384828501612e64565b60a08301525092915050565b600061413b3683614073565b9050919050565b600060e0828403121561415857614157613fc8565b5b61416260e06132c3565b9050600061417284828501612e9a565b600083015250602061418684828501612e9a565b602083015250604061419a84828501612e9a565b60408301525060606141ae84828501612e64565b60608301525060806141c284828501612e9a565b60808301525060a06141d684828501612e9a565b60a08301525060c06141ea84828501612e9a565b60c08301525092915050565b600060e0828403121561420c5761420b612ded565b5b600061421a84828501614142565b91505092915050565b7f496e76616c69642053616c652064617461202f2073656c6c6572207369676e6160008201527f747572652070726f766964656400000000000000000000000000000000000000602082015250565b600061427f602d83613862565b915061428a82614223565b604082019050919050565b600060208201905081810360008301526142ae81614272565b9050919050565b6000604082840312156142cb576142ca613fc8565b5b6142d560406132c3565b9050600082013567ffffffffffffffff8111156142f5576142f4613fcd565b5b61430184828501613360565b600083015250602061431584828501612e9a565b60208301525092915050565b600061432d36836142b5565b9050919050565b7f496e76616c69642061757468207369676e617475726500000000000000000000600082015250565b600061436a601683613862565b915061437582614334565b602082019050919050565b600060208201905081810360008301526143998161435d565b9050919050565b6000608082840312156143b6576143b5613fc8565b5b6143c060806132c3565b905060006143d084828501612e64565b60008301525060206143e484828501612e9a565b60208301525060406143f884828501612e9a565b604083015250606061440c84828501612e9a565b60608301525092915050565b60006080828403121561442e5761442d612ded565b5b600061443c848285016143a0565b91505092915050565b7f496e76616c6964204f666665722064617461202f206f6666657265722073696760008201527f6e61747572652070726f76696465640000000000000000000000000000000000602082015250565b60006144a1602f83613862565b91506144ac82614445565b604082019050919050565b600060208201905081810360008301526144d081614494565b9050919050565b7f496e76616c6964206269642061757468207369676e6174757265000000000000600082015250565b600061450d601a83613862565b9150614518826144d7565b602082019050919050565b6000602082019050818103600083015261453c81614500565b9050919050565b6000610100828403121561455a57614559613fc8565b5b6145656101006132c3565b9050600061457584828501612e9a565b600083015250602061458984828501612e9a565b602083015250604061459d84828501612e9a565b60408301525060606145b184828501612e64565b60608301525060806145c584828501612e9a565b60808301525060a06145d984828501612e9a565b60a08301525060c06145ed84828501612e9a565b60c08301525060e061460184828501612e9a565b60e08301525092915050565b6000610100828403121561462457614623612ded565b5b600061463284828501614543565b91505092915050565b7f496e76616c69642041756374696f6e2064617461202f2073656c6c657220736960008201527f676e61747572652070726f766964656400000000000000000000000000000000602082015250565b6000614697603083613862565b91506146a28261463b565b604082019050919050565b600060208201905081810360008301526146c68161468a565b9050919050565b7f496e76616c69642061756374696f6e2061757468207369676e61747572650000600082015250565b6000614703601e83613862565b915061470e826146cd565b602082019050919050565b60006020820190508181036000830152614732816146f6565b9050919050565b60006060828403121561474f5761474e613fc8565b5b61475960606132c3565b9050600061476984828501612e64565b600083015250602061477d84828501612e9a565b602083015250604061479184828501612e9a565b60408301525092915050565b6000606082840312156147b3576147b2612ded565b5b60006147c184828501614739565b91505092915050565b7f496e76616c696420626964207369676e61747572650000000000000000000000600082015250565b6000614800601583613862565b915061480b826147ca565b602082019050919050565b6000602082019050818103600083015261482f816147f3565b9050919050565b60005b83811015614854578082015181840152602081019050614839565b83811115614863576000848401525b50505050565b600061487c614877846132de565b6132c3565b9050828152602081018484840111156148985761489761324d565b5b6148a3848285614836565b509392505050565b600082601f8301126148c0576148bf613248565b5b81516148d0848260208601614869565b91505092915050565b6000602082840312156148ef576148ee612ded565b5b600082015167ffffffffffffffff81111561490d5761490c612df2565b5b614919848285016148ab565b91505092915050565b600081905092915050565b60006149398385614922565b935061494683858461330f565b82840190509392505050565b600061495f82848661492d565b91508190509392505050565b7f4e6674207369676e61747572652074616d706572656400000000000000000000600082015250565b60006149a1601683613862565b91506149ac8261496b565b602082019050919050565b600060208201905081810360008301526149d081614994565b9050919050565b50565b60006149e7600083613e8e565b91506149f2826149d7565b600082019050919050565b600060a082019050614a1260008301876137a8565b614a1f60208301866137a8565b614a2c60408301856137b7565b614a3960608301846137b7565b8181036080830152614a4a816149da565b905095945050505050565b6000604082019050614a6a60008301856137a8565b614a7760208301846137b7565b9392505050565b7f496e73756666696369656e7420616d6f756e74206f6620746f6b656e73000000600082015250565b6000614ab4601d83613862565b9150614abf82614a7e565b602082019050919050565b60006020820190508181036000830152614ae381614aa7565b9050919050565b60008083356001602003843603038112614b0757614b06613c1c565b5b80840192508235915067ffffffffffffffff821115614b2957614b28613c21565b5b602083019250600182023603831315614b4557614b44613c26565b5b509250929050565b6000614b598385613862565b9350614b6683858461330f565b614b6f83613252565b840190509392505050565b600060a082019050614b8f600083018a6137a8565b614b9c60208301896137b7565b614ba960408301886137b7565b8181036060830152614bbc818688613e9f565b90508181036080830152614bd1818486614b4d565b905098975050505050505050565b614be881613212565b82525050565b614bf78161346c565b82525050565b6000608082019050614c126000830187614bdf565b614c1f6020830186614bee565b614c2c6040830185614bdf565b614c396060830184614bdf565b95945050505050565b7f696e76616c6964207369676e6174757265206c656e6774680000000000000000600082015250565b6000614c78601883613862565b9150614c8382614c42565b602082019050919050565b60006020820190508181036000830152614ca781614c6b565b9050919050565b7f537570706c79206f766572666c6f770000000000000000000000000000000000600082015250565b6000614ce4600f83613862565b9150614cef82614cae565b602082019050919050565b60006020820190508181036000830152614d1381614cd7565b9050919050565b7f496e76616c6964206d696e742064617461202f207369676e617475726520707260008201527f6f76696465640000000000000000000000000000000000000000000000000000602082015250565b6000614d76602683613862565b9150614d8182614d1a565b604082019050919050565b60006020820190508181036000830152614da581614d69565b9050919050565b7f496e76616c6964206e66742064617461202f207369676e617475726500000000600082015250565b6000614de2601c83613862565b9150614ded82614dac565b602082019050919050565b60006020820190508181036000830152614e1181614dd5565b9050919050565b7f41756374696f6e206861736e277420656e646564207965740000000000000000600082015250565b6000614e4e601883613862565b9150614e5982614e18565b602082019050919050565b60006020820190508181036000830152614e7d81614e41565b9050919050565b7f536574746c696e6720706572696f64206861736e277420656e64656420796574600082015250565b6000614eba602083613862565b9150614ec582614e84565b602082019050919050565b60006020820190508181036000830152614ee981614ead565b9050919050565b7f41756374696f6e20657870697265640000000000000000000000000000000000600082015250565b6000614f26600f83613862565b9150614f3182614ef0565b602082019050919050565b60006020820190508181036000830152614f5581614f19565b9050919050565b7f52657365727665206e6f74206d65740000000000000000000000000000000000600082015250565b6000614f92600f83613862565b9150614f9d82614f5c565b602082019050919050565b60006020820190508181036000830152614fc181614f85565b9050919050565b600081905092915050565b7f19457468657265756d205369676e6564204d6573736167653a0a333200000000600082015250565b6000615009601c83614fc8565b915061501482614fd3565b601c82019050919050565b6000819050919050565b61503a61503582613212565b61501f565b82525050565b600061504b82614ffc565b91506150578284615029565b60208201915081905092915050565b60008160601b9050919050565b600061507e82615066565b9050919050565b600061509082615073565b9050919050565b6150a86150a382612e3b565b615085565b82525050565b6000819050919050565b6150c96150c482612e79565b6150ae565b82525050565b60006150db8288615097565b6014820191506150eb82876150b8565b6020820191506150fb82866150b8565b60208201915061510b82856150b8565b60208201915061511b8284615097565b6014820191508190509695505050505050565b600061513a828a6150b8565b60208201915061514a82896150b8565b60208201915061515a82886150b8565b60208201915061516a8287615097565b60148201915061517a82866150b8565b60208201915061518a82856150b8565b60208201915061519a82846150b8565b60208201915081905098975050505050505050565b600081519050919050565b60006151c5826151af565b6151cf8185614922565b93506151df818560208601614836565b80840191505092915050565b60006151f782856151ba565b915061520382846150b8565b6020820191508190509392505050565b600061521f8287615097565b60148201915061522f82866150b8565b60208201915061523f82856150b8565b60208201915061524f82846150b8565b60208201915081905095945050505050565b600061526d828b6150b8565b60208201915061527d828a6150b8565b60208201915061528d82896150b8565b60208201915061529d8288615097565b6014820191506152ad82876150b8565b6020820191506152bd82866150b8565b6020820191506152cd82856150b8565b6020820191506152dd82846150b8565b6020820191508190509998505050505050505050565b60006152ff8286615097565b60148201915061530f82856150b8565b60208201915061531f82846150b8565b60208201915081905094935050505056fea2646970667358221220faf48fc947ef4020155bff3e1a41b91ca7bf06867421967fdec8971dc2e8c1be64736f6c634300080e0033",
			"opcodes": "PUSH2 0x5366 PUSH2 0x53 PUSH1 0xB DUP3 DUP3 DUP3 CODECOPY DUP1 MLOAD PUSH1 0x0 BYTE PUSH1 0x73 EQ PUSH2 0x46 JUMPI PUSH32 0x4E487B7100000000000000000000000000000000000000000000000000000000 PUSH1 0x0 MSTORE PUSH1 0x0 PUSH1 0x4 MSTORE PUSH1 0x24 PUSH1 0x0 REVERT JUMPDEST ADDRESS PUSH1 0x0 MSTORE PUSH1 0x73 DUP2 MSTORE8 DUP3 DUP2 RETURN INVALID PUSH20 0x0 ADDRESS EQ PUSH1 0x80 PUSH1 0x40 MSTORE PUSH1 0x4 CALLDATASIZE LT PUSH2 0xBE JUMPI PUSH1 0x0 CALLDATALOAD PUSH1 0xE0 SHR DUP1 PUSH4 0x97ABA7F9 GT PUSH2 0x7B JUMPI DUP1 PUSH4 0x97ABA7F9 EQ PUSH2 0x185 JUMPI DUP1 PUSH4 0xA7BB5803 EQ PUSH2 0x1B5 JUMPI DUP1 PUSH4 0xED21010D EQ PUSH2 0x1E7 JUMPI DUP1 PUSH4 0xEF331005 EQ PUSH2 0x203 JUMPI DUP1 PUSH4 0xF3326FF5 EQ PUSH2 0x21F JUMPI DUP1 PUSH4 0xFA540801 EQ PUSH2 0x23B JUMPI PUSH2 0xBE JUMP JUMPDEST DUP1 PUSH4 0x64D4138 EQ PUSH2 0xC3 JUMPI DUP1 PUSH4 0x110CA0AB EQ PUSH2 0xEC JUMPI DUP1 PUSH4 0x179C78B5 EQ PUSH2 0x108 JUMPI DUP1 PUSH4 0x1A947093 EQ PUSH2 0x124 JUMPI DUP1 PUSH4 0x233DC4EB EQ PUSH2 0x140 JUMPI DUP1 PUSH4 0x81B405E4 EQ PUSH2 0x15C JUMPI JUMPDEST PUSH1 0x0 DUP1 REVERT JUMPDEST DUP2 DUP1 ISZERO PUSH2 0xCF JUMPI PUSH1 0x0 DUP1 REVERT JUMPDEST POP PUSH2 0xEA PUSH1 0x4 DUP1 CALLDATASIZE SUB DUP2 ADD SWAP1 PUSH2 0xE5 SWAP2 SWAP1 PUSH2 0x2EAF JUMP JUMPDEST PUSH2 0x26B JUMP JUMPDEST STOP JUMPDEST PUSH2 0x106 PUSH1 0x4 DUP1 CALLDATASIZE SUB DUP2 ADD SWAP1 PUSH2 0x101 SWAP2 SWAP1 PUSH2 0x2FCB JUMP JUMPDEST PUSH2 0x53F JUMP JUMPDEST STOP JUMPDEST PUSH2 0x122 PUSH1 0x4 DUP1 CALLDATASIZE SUB DUP2 ADD SWAP1 PUSH2 0x11D SWAP2 SWAP1 PUSH2 0x305A JUMP JUMPDEST PUSH2 0x90B JUMP JUMPDEST STOP JUMPDEST PUSH2 0x13E PUSH1 0x4 DUP1 CALLDATASIZE SUB DUP2 ADD SWAP1 PUSH2 0x139 SWAP2 SWAP1 PUSH2 0x30C9 JUMP JUMPDEST PUSH2 0xE73 JUMP JUMPDEST STOP JUMPDEST PUSH2 0x15A PUSH1 0x4 DUP1 CALLDATASIZE SUB DUP2 ADD SWAP1 PUSH2 0x155 SWAP2 SWAP1 PUSH2 0x3132 JUMP JUMPDEST PUSH2 0x1258 JUMP JUMPDEST STOP JUMPDEST DUP2 DUP1 ISZERO PUSH2 0x168 JUMPI PUSH1 0x0 DUP1 REVERT JUMPDEST POP PUSH2 0x183 PUSH1 0x4 DUP1 CALLDATASIZE SUB DUP2 ADD SWAP1 PUSH2 0x17E SWAP2 SWAP1 PUSH2 0x319A JUMP JUMPDEST PUSH2 0x163D JUMP JUMPDEST STOP JUMPDEST PUSH2 0x19F PUSH1 0x4 DUP1 CALLDATASIZE SUB DUP2 ADD SWAP1 PUSH2 0x19A SWAP2 SWAP1 PUSH2 0x338E JUMP JUMPDEST PUSH2 0x1BEC JUMP JUMPDEST PUSH1 0x40 MLOAD PUSH2 0x1AC SWAP2 SWAP1 PUSH2 0x33F9 JUMP JUMPDEST PUSH1 0x40 MLOAD DUP1 SWAP2 SUB SWAP1 RETURN JUMPDEST PUSH2 0x1CF PUSH1 0x4 DUP1 CALLDATASIZE SUB DUP2 ADD SWAP1 PUSH2 0x1CA SWAP2 SWAP1 PUSH2 0x3414 JUMP JUMPDEST PUSH2 0x1C5B JUMP JUMPDEST PUSH1 0x40 MLOAD PUSH2 0x1DE SWAP4 SWAP3 SWAP2 SWAP1 PUSH2 0x3488 JUMP JUMPDEST PUSH1 0x40 MLOAD DUP1 SWAP2 SUB SWAP1 RETURN JUMPDEST PUSH2 0x201 PUSH1 0x4 DUP1 CALLDATASIZE SUB DUP2 ADD SWAP1 PUSH2 0x1FC SWAP2 SWAP1 PUSH2 0x351C JUMP JUMPDEST PUSH2 0x1CC3 JUMP JUMPDEST STOP JUMPDEST PUSH2 0x21D PUSH1 0x4 DUP1 CALLDATASIZE SUB DUP2 ADD SWAP1 PUSH2 0x218 SWAP2 SWAP1 PUSH2 0x358B JUMP JUMPDEST PUSH2 0x2021 JUMP JUMPDEST STOP JUMPDEST PUSH2 0x239 PUSH1 0x4 DUP1 CALLDATASIZE SUB DUP2 ADD SWAP1 PUSH2 0x234 SWAP2 SWAP1 PUSH2 0x35D4 JUMP JUMPDEST PUSH2 0x2275 JUMP JUMPDEST STOP JUMPDEST PUSH2 0x255 PUSH1 0x4 DUP1 CALLDATASIZE SUB DUP2 ADD SWAP1 PUSH2 0x250 SWAP2 SWAP1 PUSH2 0x3643 JUMP JUMPDEST PUSH2 0x2939 JUMP JUMPDEST PUSH1 0x40 MLOAD PUSH2 0x262 SWAP2 SWAP1 PUSH2 0x3670 JUMP JUMPDEST PUSH1 0x40 MLOAD DUP1 SWAP2 SUB SWAP1 RETURN JUMPDEST PUSH1 0x0 DUP7 SWAP1 POP DUP1 PUSH20 0xFFFFFFFFFFFFFFFFFFFFFFFFFFFFFFFFFFFFFFFF AND PUSH4 0x23B872DD DUP8 DUP8 PUSH2 0x2710 DUP8 DUP14 PUSH1 0x80 ADD CALLDATALOAD DUP9 PUSH2 0x2710 PUSH2 0x2A5 SWAP2 SWAP1 PUSH2 0x36BA JUMP JUMPDEST PUSH2 0x2AF SWAP2 SWAP1 PUSH2 0x36BA JUMP JUMPDEST PUSH2 0x2B9 SWAP2 SWAP1 PUSH2 0x36EE JUMP JUMPDEST PUSH2 0x2C3 SWAP2 SWAP1 PUSH2 0x3777 JUMP JUMPDEST PUSH1 0x40 MLOAD DUP5 PUSH4 0xFFFFFFFF AND PUSH1 0xE0 SHL DUP2 MSTORE PUSH1 0x4 ADD PUSH2 0x2E1 SWAP4 SWAP3 SWAP2 SWAP1 PUSH2 0x37C6 JUMP JUMPDEST PUSH1 0x20 PUSH1 0x40 MLOAD DUP1 DUP4 SUB DUP2 PUSH1 0x0 DUP8 GAS CALL ISZERO DUP1 ISZERO PUSH2 0x300 JUMPI RETURNDATASIZE PUSH1 0x0 DUP1 RETURNDATACOPY RETURNDATASIZE PUSH1 0x0 REVERT JUMPDEST POP POP POP POP PUSH1 0x40 MLOAD RETURNDATASIZE PUSH1 0x1F NOT PUSH1 0x1F DUP3 ADD AND DUP3 ADD DUP1 PUSH1 0x40 MSTORE POP DUP2 ADD SWAP1 PUSH2 0x324 SWAP2 SWAP1 PUSH2 0x3835 JUMP JUMPDEST PUSH2 0x363 JUMPI PUSH1 0x40 MLOAD PUSH32 0x8C379A000000000000000000000000000000000000000000000000000000000 DUP2 MSTORE PUSH1 0x4 ADD PUSH2 0x35A SWAP1 PUSH2 0x38BF JUMP JUMPDEST PUSH1 0x40 MLOAD DUP1 SWAP2 SUB SWAP1 REVERT JUMPDEST DUP1 PUSH20 0xFFFFFFFFFFFFFFFFFFFFFFFFFFFFFFFFFFFFFFFF AND PUSH4 0x23B872DD DUP8 DUP7 PUSH2 0x2710 DUP8 DUP8 PUSH2 0x390 SWAP2 SWAP1 PUSH2 0x36EE JUMP JUMPDEST PUSH2 0x39A SWAP2 SWAP1 PUSH2 0x3777 JUMP JUMPDEST PUSH1 0x40 MLOAD DUP5 PUSH4 0xFFFFFFFF AND PUSH1 0xE0 SHL DUP2 MSTORE PUSH1 0x4 ADD PUSH2 0x3B8 SWAP4 SWAP3 SWAP2 SWAP1 PUSH2 0x37C6 JUMP JUMPDEST PUSH1 0x20 PUSH1 0x40 MLOAD DUP1 DUP4 SUB DUP2 PUSH1 0x0 DUP8 GAS CALL ISZERO DUP1 ISZERO PUSH2 0x3D7 JUMPI RETURNDATASIZE PUSH1 0x0 DUP1 RETURNDATACOPY RETURNDATASIZE PUSH1 0x0 REVERT JUMPDEST POP POP POP POP PUSH1 0x40 MLOAD RETURNDATASIZE PUSH1 0x1F NOT PUSH1 0x1F DUP3 ADD AND DUP3 ADD DUP1 PUSH1 0x40 MSTORE POP DUP2 ADD SWAP1 PUSH2 0x3FB SWAP2 SWAP1 PUSH2 0x3835 JUMP JUMPDEST PUSH2 0x43A JUMPI PUSH1 0x40 MLOAD PUSH32 0x8C379A000000000000000000000000000000000000000000000000000000000 DUP2 MSTORE PUSH1 0x4 ADD PUSH2 0x431 SWAP1 PUSH2 0x3951 JUMP JUMPDEST PUSH1 0x40 MLOAD DUP1 SWAP2 SUB SWAP1 REVERT JUMPDEST PUSH1 0x0 DUP9 PUSH1 0x80 ADD CALLDATALOAD GT ISZERO PUSH2 0x535 JUMPI DUP1 PUSH20 0xFFFFFFFFFFFFFFFFFFFFFFFFFFFFFFFFFFFFFFFF AND PUSH4 0x23B872DD DUP8 DUP11 PUSH1 0x0 ADD PUSH1 0x20 DUP2 ADD SWAP1 PUSH2 0x477 SWAP2 SWAP1 PUSH2 0x3971 JUMP JUMPDEST PUSH2 0x2710 DUP8 DUP14 PUSH1 0x80 ADD CALLDATALOAD PUSH2 0x48A SWAP2 SWAP1 PUSH2 0x36EE JUMP JUMPDEST PUSH2 0x494 SWAP2 SWAP1 PUSH2 0x3777 JUMP JUMPDEST PUSH1 0x40 MLOAD DUP5 PUSH4 0xFFFFFFFF AND PUSH1 0xE0 SHL DUP2 MSTORE PUSH1 0x4 ADD PUSH2 0x4B2 SWAP4 SWAP3 SWAP2 SWAP1 PUSH2 0x37C6 JUMP JUMPDEST PUSH1 0x20 PUSH1 0x40 MLOAD DUP1 DUP4 SUB DUP2 PUSH1 0x0 DUP8 GAS CALL ISZERO DUP1 ISZERO PUSH2 0x4D1 JUMPI RETURNDATASIZE PUSH1 0x0 DUP1 RETURNDATACOPY RETURNDATASIZE PUSH1 0x0 REVERT JUMPDEST POP POP POP POP PUSH1 0x40 MLOAD RETURNDATASIZE PUSH1 0x1F NOT PUSH1 0x1F DUP3 ADD AND DUP3 ADD DUP1 PUSH1 0x40 MSTORE POP DUP2 ADD SWAP1 PUSH2 0x4F5 SWAP2 SWAP1 PUSH2 0x3835 JUMP JUMPDEST PUSH2 0x534 JUMPI PUSH1 0x40 MLOAD PUSH32 0x8C379A000000000000000000000000000000000000000000000000000000000 DUP2 MSTORE PUSH1 0x4 ADD PUSH2 0x52B SWAP1 PUSH2 0x39EA JUMP JUMPDEST PUSH1 0x40 MLOAD DUP1 SWAP2 SUB SWAP1 REVERT JUMPDEST JUMPDEST POP POP POP POP POP POP POP POP JUMP JUMPDEST DUP2 PUSH20 0xFFFFFFFFFFFFFFFFFFFFFFFFFFFFFFFFFFFFFFFF AND PUSH4 0x5D2B6A4E DUP3 PUSH2 0x180 ADD PUSH1 0x20 DUP2 ADD SWAP1 PUSH2 0x56F SWAP2 SWAP1 PUSH2 0x3971 JUMP JUMPDEST PUSH1 0x40 MLOAD DUP3 PUSH4 0xFFFFFFFF AND PUSH1 0xE0 SHL DUP2 MSTORE PUSH1 0x4 ADD PUSH2 0x58B SWAP2 SWAP1 PUSH2 0x3A0A JUMP JUMPDEST PUSH1 0x20 PUSH1 0x40 MLOAD DUP1 DUP4 SUB DUP2 DUP7 GAS STATICCALL ISZERO DUP1 ISZERO PUSH2 0x5A8 JUMPI RETURNDATASIZE PUSH1 0x0 DUP1 RETURNDATACOPY RETURNDATASIZE PUSH1 0x0 REVERT JUMPDEST POP POP POP POP PUSH1 0x40 MLOAD RETURNDATASIZE PUSH1 0x1F NOT PUSH1 0x1F DUP3 ADD AND DUP3 ADD DUP1 PUSH1 0x40 MSTORE POP DUP2 ADD SWAP1 PUSH2 0x5CC SWAP2 SWAP1 PUSH2 0x3835 JUMP JUMPDEST PUSH2 0x60B JUMPI PUSH1 0x40 MLOAD PUSH32 0x8C379A000000000000000000000000000000000000000000000000000000000 DUP2 MSTORE PUSH1 0x4 ADD PUSH2 0x602 SWAP1 PUSH2 0x3A71 JUMP JUMPDEST PUSH1 0x40 MLOAD DUP1 SWAP2 SUB SWAP1 REVERT JUMPDEST DUP3 PUSH20 0xFFFFFFFFFFFFFFFFFFFFFFFFFFFFFFFFFFFFFFFF AND PUSH4 0x6F6B5C5D DUP3 PUSH1 0x80 ADD PUSH1 0x0 ADD CALLDATALOAD PUSH1 0x40 MLOAD DUP3 PUSH4 0xFFFFFFFF AND PUSH1 0xE0 SHL DUP2 MSTORE PUSH1 0x4 ADD PUSH2 0x64B SWAP2 SWAP1 PUSH2 0x3A91 JUMP JUMPDEST PUSH1 0x20 PUSH1 0x40 MLOAD DUP1 DUP4 SUB DUP2 DUP7 GAS STATICCALL ISZERO DUP1 ISZERO PUSH2 0x668 JUMPI RETURNDATASIZE PUSH1 0x0 DUP1 RETURNDATACOPY RETURNDATASIZE PUSH1 0x0 REVERT JUMPDEST POP POP POP POP PUSH1 0x40 MLOAD RETURNDATASIZE PUSH1 0x1F NOT PUSH1 0x1F DUP3 ADD AND DUP3 ADD DUP1 PUSH1 0x40 MSTORE POP DUP2 ADD SWAP1 PUSH2 0x68C SWAP2 SWAP1 PUSH2 0x3835 JUMP JUMPDEST ISZERO PUSH2 0x6CC JUMPI PUSH1 0x40 MLOAD PUSH32 0x8C379A000000000000000000000000000000000000000000000000000000000 DUP2 MSTORE PUSH1 0x4 ADD PUSH2 0x6C3 SWAP1 PUSH2 0x3AF8 JUMP JUMPDEST PUSH1 0x40 MLOAD DUP1 SWAP2 SUB SWAP1 REVERT JUMPDEST PUSH1 0xB4 DUP2 PUSH1 0x80 ADD PUSH1 0xC0 ADD CALLDATALOAD PUSH2 0x6E0 SWAP2 SWAP1 PUSH2 0x3B18 JUMP JUMPDEST TIMESTAMP LT PUSH2 0x721 JUMPI PUSH1 0x40 MLOAD PUSH32 0x8C379A000000000000000000000000000000000000000000000000000000000 DUP2 MSTORE PUSH1 0x4 ADD PUSH2 0x718 SWAP1 PUSH2 0x3BBA JUMP JUMPDEST PUSH1 0x40 MLOAD DUP1 SWAP2 SUB SWAP1 REVERT JUMPDEST DUP2 PUSH20 0xFFFFFFFFFFFFFFFFFFFFFFFFFFFFFFFFFFFFFFFF AND PUSH4 0x8CDD9C8F PUSH1 0x40 MLOAD DUP2 PUSH4 0xFFFFFFFF AND PUSH1 0xE0 SHL DUP2 MSTORE PUSH1 0x4 ADD PUSH1 0x20 PUSH1 0x40 MLOAD DUP1 DUP4 SUB DUP2 DUP7 GAS STATICCALL ISZERO DUP1 ISZERO PUSH2 0x76C JUMPI RETURNDATASIZE PUSH1 0x0 DUP1 RETURNDATACOPY RETURNDATASIZE PUSH1 0x0 REVERT JUMPDEST POP POP POP POP PUSH1 0x40 MLOAD RETURNDATASIZE PUSH1 0x1F NOT PUSH1 0x1F DUP3 ADD AND DUP3 ADD DUP1 PUSH1 0x40 MSTORE POP DUP2 ADD SWAP1 PUSH2 0x790 SWAP2 SWAP1 PUSH2 0x3BEF JUMP JUMPDEST DUP2 DUP1 PUSH1 0x20 ADD SWAP1 PUSH2 0x7A0 SWAP2 SWAP1 PUSH2 0x3C2B JUMP JUMPDEST PUSH1 0x80 ADD CALLDATALOAD GT ISZERO PUSH2 0x7E5 JUMPI PUSH1 0x40 MLOAD PUSH32 0x8C379A000000000000000000000000000000000000000000000000000000000 DUP2 MSTORE PUSH1 0x4 ADD PUSH2 0x7DC SWAP1 PUSH2 0x3C9F JUMP JUMPDEST PUSH1 0x40 MLOAD DUP1 SWAP2 SUB SWAP1 REVERT JUMPDEST DUP2 PUSH20 0xFFFFFFFFFFFFFFFFFFFFFFFFFFFFFFFFFFFFFFFF AND PUSH4 0x62A6F6A6 PUSH1 0x40 MLOAD DUP2 PUSH4 0xFFFFFFFF AND PUSH1 0xE0 SHL DUP2 MSTORE PUSH1 0x4 ADD PUSH1 0x20 PUSH1 0x40 MLOAD DUP1 DUP4 SUB DUP2 DUP7 GAS STATICCALL ISZERO DUP1 ISZERO PUSH2 0x830 JUMPI RETURNDATASIZE PUSH1 0x0 DUP1 RETURNDATACOPY RETURNDATASIZE PUSH1 0x0 REVERT JUMPDEST POP POP POP POP PUSH1 0x40 MLOAD RETURNDATASIZE PUSH1 0x1F NOT PUSH1 0x1F DUP3 ADD AND DUP3 ADD DUP1 PUSH1 0x40 MSTORE POP DUP2 ADD SWAP1 PUSH2 0x854 SWAP2 SWAP1 PUSH2 0x3BEF JUMP JUMPDEST DUP2 DUP1 PUSH2 0x1A0 ADD SWAP1 PUSH2 0x865 SWAP2 SWAP1 PUSH2 0x3CBF JUMP JUMPDEST PUSH1 0x20 ADD CALLDATALOAD GT ISZERO PUSH2 0x8AA JUMPI PUSH1 0x40 MLOAD PUSH32 0x8C379A000000000000000000000000000000000000000000000000000000000 DUP2 MSTORE PUSH1 0x4 ADD PUSH2 0x8A1 SWAP1 PUSH2 0x3D33 JUMP JUMPDEST PUSH1 0x40 MLOAD DUP1 SWAP2 SUB SWAP1 REVERT JUMPDEST DUP1 PUSH1 0x80 ADD PUSH1 0x20 ADD CALLDATALOAD DUP2 DUP1 PUSH1 0x20 ADD SWAP1 PUSH2 0x8C2 SWAP2 SWAP1 PUSH2 0x3C2B JUMP JUMPDEST PUSH1 0x20 ADD CALLDATALOAD EQ PUSH2 0x906 JUMPI PUSH1 0x40 MLOAD PUSH32 0x8C379A000000000000000000000000000000000000000000000000000000000 DUP2 MSTORE PUSH1 0x4 ADD PUSH2 0x8FD SWAP1 PUSH2 0x3D9F JUMP JUMPDEST PUSH1 0x40 MLOAD DUP1 SWAP2 SUB SWAP1 REVERT JUMPDEST POP POP POP JUMP JUMPDEST DUP2 PUSH20 0xFFFFFFFFFFFFFFFFFFFFFFFFFFFFFFFFFFFFFFFF AND PUSH4 0x5D2B6A4E DUP3 PUSH2 0x180 ADD PUSH1 0x20 DUP2 ADD SWAP1 PUSH2 0x93B SWAP2 SWAP1 PUSH2 0x3971 JUMP JUMPDEST PUSH1 0x40 MLOAD DUP3 PUSH4 0xFFFFFFFF AND PUSH1 0xE0 SHL DUP2 MSTORE PUSH1 0x4 ADD PUSH2 0x957 SWAP2 SWAP1 PUSH2 0x3A0A JUMP JUMPDEST PUSH1 0x20 PUSH1 0x40 MLOAD DUP1 DUP4 SUB DUP2 DUP7 GAS STATICCALL ISZERO DUP1 ISZERO PUSH2 0x974 JUMPI RETURNDATASIZE PUSH1 0x0 DUP1 RETURNDATACOPY RETURNDATASIZE PUSH1 0x0 REVERT JUMPDEST POP POP POP POP PUSH1 0x40 MLOAD RETURNDATASIZE PUSH1 0x1F NOT PUSH1 0x1F DUP3 ADD AND DUP3 ADD DUP1 PUSH1 0x40 MSTORE POP DUP2 ADD SWAP1 PUSH2 0x998 SWAP2 SWAP1 PUSH2 0x3835 JUMP JUMPDEST PUSH2 0x9D7 JUMPI PUSH1 0x40 MLOAD PUSH32 0x8C379A000000000000000000000000000000000000000000000000000000000 DUP2 MSTORE PUSH1 0x4 ADD PUSH2 0x9CE SWAP1 PUSH2 0x3A71 JUMP JUMPDEST PUSH1 0x40 MLOAD DUP1 SWAP2 SUB SWAP1 REVERT JUMPDEST CALLER PUSH20 0xFFFFFFFFFFFFFFFFFFFFFFFFFFFFFFFFFFFFFFFF AND DUP2 PUSH1 0x60 ADD PUSH1 0x20 DUP2 ADD SWAP1 PUSH2 0xA01 SWAP2 SWAP1 PUSH2 0x3971 JUMP JUMPDEST PUSH20 0xFFFFFFFFFFFFFFFFFFFFFFFFFFFFFFFFFFFFFFFF AND EQ PUSH2 0xA57 JUMPI PUSH1 0x40 MLOAD PUSH32 0x8C379A000000000000000000000000000000000000000000000000000000000 DUP2 MSTORE PUSH1 0x4 ADD PUSH2 0xA4E SWAP1 PUSH2 0x3E0B JUMP JUMPDEST PUSH1 0x40 MLOAD DUP1 SWAP2 SUB SWAP1 REVERT JUMPDEST DUP3 PUSH20 0xFFFFFFFFFFFFFFFFFFFFFFFFFFFFFFFFFFFFFFFF AND PUSH4 0x6F6B5C5D DUP3 PUSH1 0x80 ADD PUSH1 0x0 ADD CALLDATALOAD PUSH1 0x40 MLOAD DUP3 PUSH4 0xFFFFFFFF AND PUSH1 0xE0 SHL DUP2 MSTORE PUSH1 0x4 ADD PUSH2 0xA97 SWAP2 SWAP1 PUSH2 0x3A91 JUMP JUMPDEST PUSH1 0x20 PUSH1 0x40 MLOAD DUP1 DUP4 SUB DUP2 DUP7 GAS STATICCALL ISZERO DUP1 ISZERO PUSH2 0xAB4 JUMPI RETURNDATASIZE PUSH1 0x0 DUP1 RETURNDATACOPY RETURNDATASIZE PUSH1 0x0 REVERT JUMPDEST POP POP POP POP PUSH1 0x40 MLOAD RETURNDATASIZE PUSH1 0x1F NOT PUSH1 0x1F DUP3 ADD AND DUP3 ADD DUP1 PUSH1 0x40 MSTORE POP DUP2 ADD SWAP1 PUSH2 0xAD8 SWAP2 SWAP1 PUSH2 0x3835 JUMP JUMPDEST ISZERO PUSH2 0xB18 JUMPI PUSH1 0x40 MLOAD PUSH32 0x8C379A000000000000000000000000000000000000000000000000000000000 DUP2 MSTORE PUSH1 0x4 ADD PUSH2 0xB0F SWAP1 PUSH2 0x3AF8 JUMP JUMPDEST PUSH1 0x40 MLOAD DUP1 SWAP2 SUB SWAP1 REVERT JUMPDEST DUP3 PUSH20 0xFFFFFFFFFFFFFFFFFFFFFFFFFFFFFFFFFFFFFFFF AND PUSH4 0xDB615A17 DUP3 DUP1 PUSH2 0x280 ADD SWAP1 PUSH2 0xB45 SWAP2 SWAP1 PUSH2 0x3E2B JUMP JUMPDEST PUSH1 0x40 MLOAD DUP4 PUSH4 0xFFFFFFFF AND PUSH1 0xE0 SHL DUP2 MSTORE PUSH1 0x4 ADD PUSH2 0xB62 SWAP3 SWAP2 SWAP1 PUSH2 0x3ECC JUMP JUMPDEST PUSH1 0x20 PUSH1 0x40 MLOAD DUP1 DUP4 SUB DUP2 DUP7 GAS STATICCALL ISZERO DUP1 ISZERO PUSH2 0xB7F JUMPI RETURNDATASIZE PUSH1 0x0 DUP1 RETURNDATACOPY RETURNDATASIZE PUSH1 0x0 REVERT JUMPDEST POP POP POP POP PUSH1 0x40 MLOAD RETURNDATASIZE PUSH1 0x1F NOT PUSH1 0x1F DUP3 ADD AND DUP3 ADD DUP1 PUSH1 0x40 MSTORE POP DUP2 ADD SWAP1 PUSH2 0xBA3 SWAP2 SWAP1 PUSH2 0x3835 JUMP JUMPDEST ISZERO PUSH2 0xBE3 JUMPI PUSH1 0x40 MLOAD PUSH32 0x8C379A000000000000000000000000000000000000000000000000000000000 DUP2 MSTORE PUSH1 0x4 ADD PUSH2 0xBDA SWAP1 PUSH2 0x3F3C JUMP JUMPDEST PUSH1 0x40 MLOAD DUP1 SWAP2 SUB SWAP1 REVERT JUMPDEST PUSH1 0xB4 DUP2 PUSH1 0x80 ADD PUSH1 0xC0 ADD CALLDATALOAD PUSH2 0xBF7 SWAP2 SWAP1 PUSH2 0x3B18 JUMP JUMPDEST TIMESTAMP LT PUSH2 0xC38 JUMPI PUSH1 0x40 MLOAD PUSH32 0x8C379A000000000000000000000000000000000000000000000000000000000 DUP2 MSTORE PUSH1 0x4 ADD PUSH2 0xC2F SWAP1 PUSH2 0x3BBA JUMP JUMPDEST PUSH1 0x40 MLOAD DUP1 SWAP2 SUB SWAP1 REVERT JUMPDEST DUP2 PUSH20 0xFFFFFFFFFFFFFFFFFFFFFFFFFFFFFFFFFFFFFFFF AND PUSH4 0x8CDD9C8F PUSH1 0x40 MLOAD DUP2 PUSH4 0xFFFFFFFF AND PUSH1 0xE0 SHL DUP2 MSTORE PUSH1 0x4 ADD PUSH1 0x20 PUSH1 0x40 MLOAD DUP1 DUP4 SUB DUP2 DUP7 GAS STATICCALL ISZERO DUP1 ISZERO PUSH2 0xC83 JUMPI RETURNDATASIZE PUSH1 0x0 DUP1 RETURNDATACOPY RETURNDATASIZE PUSH1 0x0 REVERT JUMPDEST POP POP POP POP PUSH1 0x40 MLOAD RETURNDATASIZE PUSH1 0x1F NOT PUSH1 0x1F DUP3 ADD AND DUP3 ADD DUP1 PUSH1 0x40 MSTORE POP DUP2 ADD SWAP1 PUSH2 0xCA7 SWAP2 SWAP1 PUSH2 0x3BEF JUMP JUMPDEST DUP2 DUP1 PUSH1 0x20 ADD SWAP1 PUSH2 0xCB7 SWAP2 SWAP1 PUSH2 0x3C2B JUMP JUMPDEST PUSH1 0x80 ADD CALLDATALOAD GT ISZERO PUSH2 0xCFC JUMPI PUSH1 0x40 MLOAD PUSH32 0x8C379A000000000000000000000000000000000000000000000000000000000 DUP2 MSTORE PUSH1 0x4 ADD PUSH2 0xCF3 SWAP1 PUSH2 0x3C9F JUMP JUMPDEST PUSH1 0x40 MLOAD DUP1 SWAP2 SUB SWAP1 REVERT JUMPDEST DUP2 PUSH20 0xFFFFFFFFFFFFFFFFFFFFFFFFFFFFFFFFFFFFFFFF AND PUSH4 0x62A6F6A6 PUSH1 0x40 MLOAD DUP2 PUSH4 0xFFFFFFFF AND PUSH1 0xE0 SHL DUP2 MSTORE PUSH1 0x4 ADD PUSH1 0x20 PUSH1 0x40 MLOAD DUP1 DUP4 SUB DUP2 DUP7 GAS STATICCALL ISZERO DUP1 ISZERO PUSH2 0xD47 JUMPI RETURNDATASIZE PUSH1 0x0 DUP1 RETURNDATACOPY RETURNDATASIZE PUSH1 0x0 REVERT JUMPDEST POP POP POP POP PUSH1 0x40 MLOAD RETURNDATASIZE PUSH1 0x1F NOT PUSH1 0x1F DUP3 ADD AND DUP3 ADD DUP1 PUSH1 0x40 MSTORE POP DUP2 ADD SWAP1 PUSH2 0xD6B SWAP2 SWAP1 PUSH2 0x3BEF JUMP JUMPDEST DUP2 DUP1 PUSH2 0x1A0 ADD SWAP1 PUSH2 0xD7C SWAP2 SWAP1 PUSH2 0x3CBF JUMP JUMPDEST PUSH1 0x20 ADD CALLDATALOAD GT ISZERO PUSH2 0xDC1 JUMPI PUSH1 0x40 MLOAD PUSH32 0x8C379A000000000000000000000000000000000000000000000000000000000 DUP2 MSTORE PUSH1 0x4 ADD PUSH2 0xDB8 SWAP1 PUSH2 0x3D33 JUMP JUMPDEST PUSH1 0x40 MLOAD DUP1 SWAP2 SUB SWAP1 REVERT JUMPDEST DUP1 PUSH1 0x80 ADD PUSH1 0x0 ADD CALLDATALOAD DUP2 PUSH2 0x200 ADD PUSH1 0x20 ADD CALLDATALOAD EQ PUSH2 0xE12 JUMPI PUSH1 0x40 MLOAD PUSH32 0x8C379A000000000000000000000000000000000000000000000000000000000 DUP2 MSTORE PUSH1 0x4 ADD PUSH2 0xE09 SWAP1 PUSH2 0x3FA8 JUMP JUMPDEST PUSH1 0x40 MLOAD DUP1 SWAP2 SUB SWAP1 REVERT JUMPDEST DUP1 PUSH1 0x80 ADD PUSH1 0x20 ADD CALLDATALOAD DUP2 DUP1 PUSH1 0x20 ADD SWAP1 PUSH2 0xE2A SWAP2 SWAP1 PUSH2 0x3C2B JUMP JUMPDEST PUSH1 0x20 ADD CALLDATALOAD EQ PUSH2 0xE6E JUMPI PUSH1 0x40 MLOAD PUSH32 0x8C379A000000000000000000000000000000000000000000000000000000000 DUP2 MSTORE PUSH1 0x4 ADD PUSH2 0xE65 SWAP1 PUSH2 0x3D9F JUMP JUMPDEST PUSH1 0x40 MLOAD DUP1 SWAP2 SUB SWAP1 REVERT JUMPDEST POP POP POP JUMP JUMPDEST PUSH2 0xEFA DUP2 PUSH1 0x0 ADD PUSH1 0x20 DUP2 ADD SWAP1 PUSH2 0xE89 SWAP2 SWAP1 PUSH2 0x3971 JUMP JUMPDEST DUP3 DUP1 PUSH1 0x20 ADD SWAP1 PUSH2 0xE99 SWAP2 SWAP1 PUSH2 0x3C2B JUMP JUMPDEST PUSH2 0xEA2 SWAP1 PUSH2 0x412F JUMP JUMPDEST DUP4 DUP1 PUSH1 0x40 ADD SWAP1 PUSH2 0xEB2 SWAP2 SWAP1 PUSH2 0x3E2B JUMP JUMPDEST DUP1 DUP1 PUSH1 0x1F ADD PUSH1 0x20 DUP1 SWAP2 DIV MUL PUSH1 0x20 ADD PUSH1 0x40 MLOAD SWAP1 DUP2 ADD PUSH1 0x40 MSTORE DUP1 SWAP4 SWAP3 SWAP2 SWAP1 DUP2 DUP2 MSTORE PUSH1 0x20 ADD DUP4 DUP4 DUP1 DUP3 DUP5 CALLDATACOPY PUSH1 0x0 DUP2 DUP5 ADD MSTORE PUSH1 0x1F NOT PUSH1 0x1F DUP3 ADD AND SWAP1 POP DUP1 DUP4 ADD SWAP3 POP POP POP POP POP POP POP PUSH2 0x2969 JUMP JUMPDEST PUSH2 0xF03 JUMPI PUSH1 0x0 DUP1 REVERT JUMPDEST PUSH2 0xF86 DUP2 PUSH1 0x60 ADD PUSH1 0x20 DUP2 ADD SWAP1 PUSH2 0xF19 SWAP2 SWAP1 PUSH2 0x3971 JUMP JUMPDEST DUP3 PUSH1 0x80 ADD DUP1 CALLDATASIZE SUB DUP2 ADD SWAP1 PUSH2 0xF2D SWAP2 SWAP1 PUSH2 0x41F6 JUMP JUMPDEST DUP4 DUP1 PUSH2 0x160 ADD SWAP1 PUSH2 0xF3E SWAP2 SWAP1 PUSH2 0x3E2B JUMP JUMPDEST DUP1 DUP1 PUSH1 0x1F ADD PUSH1 0x20 DUP1 SWAP2 DIV MUL PUSH1 0x20 ADD PUSH1 0x40 MLOAD SWAP1 DUP2 ADD PUSH1 0x40 MSTORE DUP1 SWAP4 SWAP3 SWAP2 SWAP1 DUP2 DUP2 MSTORE PUSH1 0x20 ADD DUP4 DUP4 DUP1 DUP3 DUP5 CALLDATACOPY PUSH1 0x0 DUP2 DUP5 ADD MSTORE PUSH1 0x1F NOT PUSH1 0x1F DUP3 ADD AND SWAP1 POP DUP1 DUP4 ADD SWAP3 POP POP POP POP POP POP POP PUSH2 0x2A01 JUMP JUMPDEST PUSH2 0xFC5 JUMPI PUSH1 0x40 MLOAD PUSH32 0x8C379A000000000000000000000000000000000000000000000000000000000 DUP2 MSTORE PUSH1 0x4 ADD PUSH2 0xFBC SWAP1 PUSH2 0x4295 JUMP JUMPDEST PUSH1 0x40 MLOAD DUP1 SWAP2 SUB SWAP1 REVERT JUMPDEST PUSH2 0x104F DUP2 PUSH2 0x180 ADD PUSH1 0x20 DUP2 ADD SWAP1 PUSH2 0xFDC SWAP2 SWAP1 PUSH2 0x3971 JUMP JUMPDEST DUP3 DUP1 PUSH2 0x1A0 ADD SWAP1 PUSH2 0xFED SWAP2 SWAP1 PUSH2 0x3CBF JUMP JUMPDEST PUSH2 0xFF6 SWAP1 PUSH2 0x4321 JUMP JUMPDEST DUP4 DUP1 PUSH2 0x1C0 ADD SWAP1 PUSH2 0x1007 SWAP2 SWAP1 PUSH2 0x3E2B JUMP JUMPDEST DUP1 DUP1 PUSH1 0x1F ADD PUSH1 0x20 DUP1 SWAP2 DIV MUL PUSH1 0x20 ADD PUSH1 0x40 MLOAD SWAP1 DUP2 ADD PUSH1 0x40 MSTORE DUP1 SWAP4 SWAP3 SWAP2 SWAP1 DUP2 DUP2 MSTORE PUSH1 0x20 ADD DUP4 DUP4 DUP1 DUP3 DUP5 CALLDATACOPY PUSH1 0x0 DUP2 DUP5 ADD MSTORE PUSH1 0x1F NOT PUSH1 0x1F DUP3 ADD AND SWAP1 POP DUP1 DUP4 ADD SWAP3 POP POP POP POP POP POP POP PUSH2 0x2AA5 JUMP JUMPDEST PUSH2 0x108E JUMPI PUSH1 0x40 MLOAD PUSH32 0x8C379A000000000000000000000000000000000000000000000000000000000 DUP2 MSTORE PUSH1 0x4 ADD PUSH2 0x1085 SWAP1 PUSH2 0x4380 JUMP JUMPDEST PUSH1 0x40 MLOAD DUP1 SWAP2 SUB SWAP1 REVERT JUMPDEST PUSH2 0x1113 DUP2 PUSH2 0x1E0 ADD PUSH1 0x20 DUP2 ADD SWAP1 PUSH2 0x10A5 SWAP2 SWAP1 PUSH2 0x3971 JUMP JUMPDEST DUP3 PUSH2 0x200 ADD DUP1 CALLDATASIZE SUB DUP2 ADD SWAP1 PUSH2 0x10BA SWAP2 SWAP1 PUSH2 0x4418 JUMP JUMPDEST DUP4 DUP1 PUSH2 0x280 ADD SWAP1 PUSH2 0x10CB SWAP2 SWAP1 PUSH2 0x3E2B JUMP JUMPDEST DUP1 DUP1 PUSH1 0x1F ADD PUSH1 0x20 DUP1 SWAP2 DIV MUL PUSH1 0x20 ADD PUSH1 0x40 MLOAD SWAP1 DUP2 ADD PUSH1 0x40 MSTORE DUP1 SWAP4 SWAP3 SWAP2 SWAP1 DUP2 DUP2 MSTORE PUSH1 0x20 ADD DUP4 DUP4 DUP1 DUP3 DUP5 CALLDATACOPY PUSH1 0x0 DUP2 DUP5 ADD MSTORE PUSH1 0x1F NOT PUSH1 0x1F DUP3 ADD AND SWAP1 POP DUP1 DUP4 ADD SWAP3 POP POP POP POP POP POP POP PUSH2 0x2B2B JUMP JUMPDEST PUSH2 0x1152 JUMPI PUSH1 0x40 MLOAD PUSH32 0x8C379A000000000000000000000000000000000000000000000000000000000 DUP2 MSTORE PUSH1 0x4 ADD PUSH2 0x1149 SWAP1 PUSH2 0x44B7 JUMP JUMPDEST PUSH1 0x40 MLOAD DUP1 SWAP2 SUB SWAP1 REVERT JUMPDEST PUSH2 0x1216 DUP2 PUSH2 0x2A0 ADD PUSH1 0x20 DUP2 ADD SWAP1 PUSH2 0x1169 SWAP2 SWAP1 PUSH2 0x3971 JUMP JUMPDEST DUP3 DUP1 PUSH2 0x280 ADD SWAP1 PUSH2 0x117A SWAP2 SWAP1 PUSH2 0x3E2B JUMP JUMPDEST DUP1 DUP1 PUSH1 0x1F ADD PUSH1 0x20 DUP1 SWAP2 DIV MUL PUSH1 0x20 ADD PUSH1 0x40 MLOAD SWAP1 DUP2 ADD PUSH1 0x40 MSTORE DUP1 SWAP4 SWAP3 SWAP2 SWAP1 DUP2 DUP2 MSTORE PUSH1 0x20 ADD DUP4 DUP4 DUP1 DUP3 DUP5 CALLDATACOPY PUSH1 0x0 DUP2 DUP5 ADD MSTORE PUSH1 0x1F NOT PUSH1 0x1F DUP3 ADD AND SWAP1 POP DUP1 DUP4 ADD SWAP3 POP POP POP POP POP POP POP DUP4 DUP1 PUSH2 0x2C0 ADD SWAP1 PUSH2 0x11CE SWAP2 SWAP1 PUSH2 0x3E2B JUMP JUMPDEST DUP1 DUP1 PUSH1 0x1F ADD PUSH1 0x20 DUP1 SWAP2 DIV MUL PUSH1 0x20 ADD PUSH1 0x40 MLOAD SWAP1 DUP2 ADD PUSH1 0x40 MSTORE DUP1 SWAP4 SWAP3 SWAP2 SWAP1 DUP2 DUP2 MSTORE PUSH1 0x20 ADD DUP4 DUP4 DUP1 DUP3 DUP5 CALLDATACOPY PUSH1 0x0 DUP2 DUP5 ADD MSTORE PUSH1 0x1F NOT PUSH1 0x1F DUP3 ADD AND SWAP1 POP DUP1 DUP4 ADD SWAP3 POP POP POP POP POP POP POP PUSH2 0x2BBD JUMP JUMPDEST PUSH2 0x1255 JUMPI PUSH1 0x40 MLOAD PUSH32 0x8C379A000000000000000000000000000000000000000000000000000000000 DUP2 MSTORE PUSH1 0x4 ADD PUSH2 0x124C SWAP1 PUSH2 0x4523 JUMP JUMPDEST PUSH1 0x40 MLOAD DUP1 SWAP2 SUB SWAP1 REVERT JUMPDEST POP JUMP JUMPDEST PUSH2 0x12DF DUP2 PUSH1 0x0 ADD PUSH1 0x20 DUP2 ADD SWAP1 PUSH2 0x126E SWAP2 SWAP1 PUSH2 0x3971 JUMP JUMPDEST DUP3 DUP1 PUSH1 0x20 ADD SWAP1 PUSH2 0x127E SWAP2 SWAP1 PUSH2 0x3C2B JUMP JUMPDEST PUSH2 0x1287 SWAP1 PUSH2 0x412F JUMP JUMPDEST DUP4 DUP1 PUSH1 0x40 ADD SWAP1 PUSH2 0x1297 SWAP2 SWAP1 PUSH2 0x3E2B JUMP JUMPDEST DUP1 DUP1 PUSH1 0x1F ADD PUSH1 0x20 DUP1 SWAP2 DIV MUL PUSH1 0x20 ADD PUSH1 0x40 MLOAD SWAP1 DUP2 ADD PUSH1 0x40 MSTORE DUP1 SWAP4 SWAP3 SWAP2 SWAP1 DUP2 DUP2 MSTORE PUSH1 0x20 ADD DUP4 DUP4 DUP1 DUP3 DUP5 CALLDATACOPY PUSH1 0x0 DUP2 DUP5 ADD MSTORE PUSH1 0x1F NOT PUSH1 0x1F DUP3 ADD AND SWAP1 POP DUP1 DUP4 ADD SWAP3 POP POP POP POP POP POP POP PUSH2 0x2969 JUMP JUMPDEST PUSH2 0x12E8 JUMPI PUSH1 0x0 DUP1 REVERT JUMPDEST PUSH2 0x136B DUP2 PUSH1 0x60 ADD PUSH1 0x20 DUP2 ADD SWAP1 PUSH2 0x12FE SWAP2 SWAP1 PUSH2 0x3971 JUMP JUMPDEST DUP3 PUSH1 0x80 ADD DUP1 CALLDATASIZE SUB DUP2 ADD SWAP1 PUSH2 0x1312 SWAP2 SWAP1 PUSH2 0x460D JUMP JUMPDEST DUP4 DUP1 PUSH2 0x180 ADD SWAP1 PUSH2 0x1323 SWAP2 SWAP1 PUSH2 0x3E2B JUMP JUMPDEST DUP1 DUP1 PUSH1 0x1F ADD PUSH1 0x20 DUP1 SWAP2 DIV MUL PUSH1 0x20 ADD PUSH1 0x40 MLOAD SWAP1 DUP2 ADD PUSH1 0x40 MSTORE DUP1 SWAP4 SWAP3 SWAP2 SWAP1 DUP2 DUP2 MSTORE PUSH1 0x20 ADD DUP4 DUP4 DUP1 DUP3 DUP5 CALLDATACOPY PUSH1 0x0 DUP2 DUP5 ADD MSTORE PUSH1 0x1F NOT PUSH1 0x1F DUP3 ADD AND SWAP1 POP DUP1 DUP4 ADD SWAP3 POP POP POP POP POP POP POP PUSH2 0x2C14 JUMP JUMPDEST PUSH2 0x13AA JUMPI PUSH1 0x40 MLOAD PUSH32 0x8C379A000000000000000000000000000000000000000000000000000000000 DUP2 MSTORE PUSH1 0x4 ADD PUSH2 0x13A1 SWAP1 PUSH2 0x46AD JUMP JUMPDEST PUSH1 0x40 MLOAD DUP1 SWAP2 SUB SWAP1 REVERT JUMPDEST PUSH2 0x1434 DUP2 PUSH2 0x1A0 ADD PUSH1 0x20 DUP2 ADD SWAP1 PUSH2 0x13C1 SWAP2 SWAP1 PUSH2 0x3971 JUMP JUMPDEST DUP3 DUP1 PUSH2 0x1C0 ADD SWAP1 PUSH2 0x13D2 SWAP2 SWAP1 PUSH2 0x3CBF JUMP JUMPDEST PUSH2 0x13DB SWAP1 PUSH2 0x4321 JUMP JUMPDEST DUP4 DUP1 PUSH2 0x1E0 ADD SWAP1 PUSH2 0x13EC SWAP2 SWAP1 PUSH2 0x3E2B JUMP JUMPDEST DUP1 DUP1 PUSH1 0x1F ADD PUSH1 0x20 DUP1 SWAP2 DIV MUL PUSH1 0x20 ADD PUSH1 0x40 MLOAD SWAP1 DUP2 ADD PUSH1 0x40 MSTORE DUP1 SWAP4 SWAP3 SWAP2 SWAP1 DUP2 DUP2 MSTORE PUSH1 0x20 ADD DUP4 DUP4 DUP1 DUP3 DUP5 CALLDATACOPY PUSH1 0x0 DUP2 DUP5 ADD MSTORE PUSH1 0x1F NOT PUSH1 0x1F DUP3 ADD AND SWAP1 POP DUP1 DUP4 ADD SWAP3 POP POP POP POP POP POP POP PUSH2 0x2AA5 JUMP JUMPDEST PUSH2 0x1473 JUMPI PUSH1 0x40 MLOAD PUSH32 0x8C379A000000000000000000000000000000000000000000000000000000000 DUP2 MSTORE PUSH1 0x4 ADD PUSH2 0x146A SWAP1 PUSH2 0x4719 JUMP JUMPDEST PUSH1 0x40 MLOAD DUP1 SWAP2 SUB SWAP1 REVERT JUMPDEST PUSH2 0x14F8 DUP2 PUSH2 0x200 ADD PUSH1 0x20 DUP2 ADD SWAP1 PUSH2 0x148A SWAP2 SWAP1 PUSH2 0x3971 JUMP JUMPDEST DUP3 PUSH2 0x220 ADD DUP1 CALLDATASIZE SUB DUP2 ADD SWAP1 PUSH2 0x149F SWAP2 SWAP1 PUSH2 0x479D JUMP JUMPDEST DUP4 DUP1 PUSH2 0x280 ADD SWAP1 PUSH2 0x14B0 SWAP2 SWAP1 PUSH2 0x3E2B JUMP JUMPDEST DUP1 DUP1 PUSH1 0x1F ADD PUSH1 0x20 DUP1 SWAP2 DIV MUL PUSH1 0x20 ADD PUSH1 0x40 MLOAD SWAP1 DUP2 ADD PUSH1 0x40 MSTORE DUP1 SWAP4 SWAP3 SWAP2 SWAP1 DUP2 DUP2 MSTORE PUSH1 0x20 ADD DUP4 DUP4 DUP1 DUP3 DUP5 CALLDATACOPY PUSH1 0x0 DUP2 DUP5 ADD MSTORE PUSH1 0x1F NOT PUSH1 0x1F DUP3 ADD AND SWAP1 POP DUP1 DUP4 ADD SWAP3 POP POP POP POP POP POP POP PUSH2 0x2CBE JUMP JUMPDEST PUSH2 0x1537 JUMPI PUSH1 0x40 MLOAD PUSH32 0x8C379A000000000000000000000000000000000000000000000000000000000 DUP2 MSTORE PUSH1 0x4 ADD PUSH2 0x152E SWAP1 PUSH2 0x4816 JUMP JUMPDEST PUSH1 0x40 MLOAD DUP1 SWAP2 SUB SWAP1 REVERT JUMPDEST PUSH2 0x15FB DUP2 PUSH2 0x2A0 ADD PUSH1 0x20 DUP2 ADD SWAP1 PUSH2 0x154E SWAP2 SWAP1 PUSH2 0x3971 JUMP JUMPDEST DUP3 DUP1 PUSH2 0x280 ADD SWAP1 PUSH2 0x155F SWAP2 SWAP1 PUSH2 0x3E2B JUMP JUMPDEST DUP1 DUP1 PUSH1 0x1F ADD PUSH1 0x20 DUP1 SWAP2 DIV MUL PUSH1 0x20 ADD PUSH1 0x40 MLOAD SWAP1 DUP2 ADD PUSH1 0x40 MSTORE DUP1 SWAP4 SWAP3 SWAP2 SWAP1 DUP2 DUP2 MSTORE PUSH1 0x20 ADD DUP4 DUP4 DUP1 DUP3 DUP5 CALLDATACOPY PUSH1 0x0 DUP2 DUP5 ADD MSTORE PUSH1 0x1F NOT PUSH1 0x1F DUP3 ADD AND SWAP1 POP DUP1 DUP4 ADD SWAP3 POP POP POP POP POP POP POP DUP4 DUP1 PUSH2 0x2C0 ADD SWAP1 PUSH2 0x15B3 SWAP2 SWAP1 PUSH2 0x3E2B JUMP JUMPDEST DUP1 DUP1 PUSH1 0x1F ADD PUSH1 0x20 DUP1 SWAP2 DIV MUL PUSH1 0x20 ADD PUSH1 0x40 MLOAD SWAP1 DUP2 ADD PUSH1 0x40 MSTORE DUP1 SWAP4 SWAP3 SWAP2 SWAP1 DUP2 DUP2 MSTORE PUSH1 0x20 ADD DUP4 DUP4 DUP1 DUP3 DUP5 CALLDATACOPY PUSH1 0x0 DUP2 DUP5 ADD MSTORE PUSH1 0x1F NOT PUSH1 0x1F DUP3 ADD AND SWAP1 POP DUP1 DUP4 ADD SWAP3 POP POP POP POP POP POP POP PUSH2 0x2BBD JUMP JUMPDEST PUSH2 0x163A JUMPI PUSH1 0x40 MLOAD PUSH32 0x8C379A000000000000000000000000000000000000000000000000000000000 DUP2 MSTORE PUSH1 0x4 ADD PUSH2 0x1631 SWAP1 PUSH2 0x4523 JUMP JUMPDEST PUSH1 0x40 MLOAD DUP1 SWAP2 SUB SWAP1 REVERT JUMPDEST POP JUMP JUMPDEST PUSH1 0x0 DUP3 PUSH1 0xA0 ADD PUSH1 0x20 DUP2 ADD SWAP1 PUSH2 0x1652 SWAP2 SWAP1 PUSH2 0x3971 JUMP JUMPDEST SWAP1 POP PUSH1 0x0 DUP2 PUSH20 0xFFFFFFFFFFFFFFFFFFFFFFFFFFFFFFFFFFFFFFFF AND PUSH4 0xBD85B039 DUP6 PUSH1 0x20 ADD CALLDATALOAD PUSH1 0x40 MLOAD DUP3 PUSH4 0xFFFFFFFF AND PUSH1 0xE0 SHL DUP2 MSTORE PUSH1 0x4 ADD PUSH2 0x1693 SWAP2 SWAP1 PUSH2 0x3A91 JUMP JUMPDEST PUSH1 0x20 PUSH1 0x40 MLOAD DUP1 DUP4 SUB DUP2 DUP7 GAS STATICCALL ISZERO DUP1 ISZERO PUSH2 0x16B0 JUMPI RETURNDATASIZE PUSH1 0x0 DUP1 RETURNDATACOPY RETURNDATASIZE PUSH1 0x0 REVERT JUMPDEST POP POP POP POP PUSH1 0x40 MLOAD RETURNDATASIZE PUSH1 0x1F NOT PUSH1 0x1F DUP3 ADD AND DUP3 ADD DUP1 PUSH1 0x40 MSTORE POP DUP2 ADD SWAP1 PUSH2 0x16D4 SWAP2 SWAP1 PUSH2 0x3BEF JUMP JUMPDEST SWAP1 POP PUSH1 0x0 DUP2 GT ISZERO PUSH2 0x17D0 JUMPI DUP2 PUSH20 0xFFFFFFFFFFFFFFFFFFFFFFFFFFFFFFFFFFFFFFFF AND PUSH4 0x23F5867F DUP6 PUSH1 0x20 ADD CALLDATALOAD PUSH1 0x40 MLOAD DUP3 PUSH4 0xFFFFFFFF AND PUSH1 0xE0 SHL DUP2 MSTORE PUSH1 0x4 ADD PUSH2 0x171C SWAP2 SWAP1 PUSH2 0x3A91 JUMP JUMPDEST PUSH1 0x0 PUSH1 0x40 MLOAD DUP1 DUP4 SUB DUP2 DUP7 GAS STATICCALL ISZERO DUP1 ISZERO PUSH2 0x1739 JUMPI RETURNDATASIZE PUSH1 0x0 DUP1 RETURNDATACOPY RETURNDATASIZE PUSH1 0x0 REVERT JUMPDEST POP POP POP POP PUSH1 0x40 MLOAD RETURNDATASIZE PUSH1 0x0 DUP3 RETURNDATACOPY RETURNDATASIZE PUSH1 0x1F NOT PUSH1 0x1F DUP3 ADD AND DUP3 ADD DUP1 PUSH1 0x40 MSTORE POP DUP2 ADD SWAP1 PUSH2 0x1762 SWAP2 SWAP1 PUSH2 0x48D9 JUMP JUMPDEST DUP1 MLOAD SWAP1 PUSH1 0x20 ADD KECCAK256 DUP4 DUP1 PUSH1 0x60 ADD SWAP1 PUSH2 0x1779 SWAP2 SWAP1 PUSH2 0x3E2B JUMP JUMPDEST PUSH1 0x40 MLOAD PUSH2 0x1787 SWAP3 SWAP2 SWAP1 PUSH2 0x4952 JUMP JUMPDEST PUSH1 0x40 MLOAD DUP1 SWAP2 SUB SWAP1 KECCAK256 EQ PUSH2 0x17CF JUMPI PUSH1 0x40 MLOAD PUSH32 0x8C379A000000000000000000000000000000000000000000000000000000000 DUP2 MSTORE PUSH1 0x4 ADD PUSH2 0x17C6 SWAP1 PUSH2 0x49B7 JUMP JUMPDEST PUSH1 0x40 MLOAD DUP1 SWAP2 SUB SWAP1 REVERT JUMPDEST JUMPDEST DUP3 PUSH1 0x0 ADD PUSH1 0x20 DUP2 ADD SWAP1 PUSH2 0x17E3 SWAP2 SWAP1 PUSH2 0x3971 JUMP JUMPDEST PUSH20 0xFFFFFFFFFFFFFFFFFFFFFFFFFFFFFFFFFFFFFFFF AND DUP5 PUSH1 0x0 ADD PUSH1 0x20 DUP2 ADD SWAP1 PUSH2 0x180C SWAP2 SWAP1 PUSH2 0x3971 JUMP JUMPDEST PUSH20 0xFFFFFFFFFFFFFFFFFFFFFFFFFFFFFFFFFFFFFFFF AND EQ PUSH2 0x18C9 JUMPI DUP2 PUSH20 0xFFFFFFFFFFFFFFFFFFFFFFFFFFFFFFFFFFFFFFFF AND PUSH4 0xF242432A DUP5 PUSH1 0x0 ADD PUSH1 0x20 DUP2 ADD SWAP1 PUSH2 0x1856 SWAP2 SWAP1 PUSH2 0x3971 JUMP JUMPDEST DUP6 PUSH1 0x20 ADD PUSH1 0x20 DUP2 ADD SWAP1 PUSH2 0x1869 SWAP2 SWAP1 PUSH2 0x3971 JUMP JUMPDEST DUP8 PUSH1 0x20 ADD CALLDATALOAD DUP8 PUSH1 0x40 ADD CALLDATALOAD PUSH1 0x40 MLOAD DUP6 PUSH4 0xFFFFFFFF AND PUSH1 0xE0 SHL DUP2 MSTORE PUSH1 0x4 ADD PUSH2 0x1892 SWAP5 SWAP4 SWAP3 SWAP2 SWAP1 PUSH2 0x49FD JUMP JUMPDEST PUSH1 0x0 PUSH1 0x40 MLOAD DUP1 DUP4 SUB DUP2 PUSH1 0x0 DUP8 DUP1 EXTCODESIZE ISZERO DUP1 ISZERO PUSH2 0x18AC JUMPI PUSH1 0x0 DUP1 REVERT JUMPDEST POP GAS CALL ISZERO DUP1 ISZERO PUSH2 0x18C0 JUMPI RETURNDATASIZE PUSH1 0x0 DUP1 RETURNDATACOPY RETURNDATASIZE PUSH1 0x0 REVERT JUMPDEST POP POP POP POP PUSH2 0x1BE6 JUMP JUMPDEST PUSH1 0x0 DUP2 DUP6 PUSH1 0x60 ADD CALLDATALOAD PUSH2 0x18DB SWAP2 SWAP1 PUSH2 0x36BA JUMP JUMPDEST SWAP1 POP PUSH1 0x0 DUP4 PUSH20 0xFFFFFFFFFFFFFFFFFFFFFFFFFFFFFFFFFFFFFFFF AND PUSH3 0xFDD58E DUP7 PUSH1 0x0 ADD PUSH1 0x20 DUP2 ADD SWAP1 PUSH2 0x190D SWAP2 SWAP1 PUSH2 0x3971 JUMP JUMPDEST DUP9 PUSH1 0x20 ADD CALLDATALOAD PUSH1 0x40 MLOAD DUP4 PUSH4 0xFFFFFFFF AND PUSH1 0xE0 SHL DUP2 MSTORE PUSH1 0x4 ADD PUSH2 0x192F SWAP3 SWAP2 SWAP1 PUSH2 0x4A55 JUMP JUMPDEST PUSH1 0x20 PUSH1 0x40 MLOAD DUP1 DUP4 SUB DUP2 DUP7 GAS STATICCALL ISZERO DUP1 ISZERO PUSH2 0x194C JUMPI RETURNDATASIZE PUSH1 0x0 DUP1 RETURNDATACOPY RETURNDATASIZE PUSH1 0x0 REVERT JUMPDEST POP POP POP POP PUSH1 0x40 MLOAD RETURNDATASIZE PUSH1 0x1F NOT PUSH1 0x1F DUP3 ADD AND DUP3 ADD DUP1 PUSH1 0x40 MSTORE POP DUP2 ADD SWAP1 PUSH2 0x1970 SWAP2 SWAP1 PUSH2 0x3BEF JUMP JUMPDEST SWAP1 POP DUP5 PUSH1 0x40 ADD CALLDATALOAD DUP3 DUP3 PUSH2 0x1983 SWAP2 SWAP1 PUSH2 0x3B18 JUMP JUMPDEST GT ISZERO PUSH2 0x19C4 JUMPI PUSH1 0x40 MLOAD PUSH32 0x8C379A000000000000000000000000000000000000000000000000000000000 DUP2 MSTORE PUSH1 0x4 ADD PUSH2 0x19BB SWAP1 PUSH2 0x4ACA JUMP JUMPDEST PUSH1 0x40 MLOAD DUP1 SWAP2 SUB SWAP1 REVERT JUMPDEST DUP2 DUP6 PUSH1 0x40 ADD CALLDATALOAD GT PUSH2 0x1A81 JUMPI DUP4 PUSH20 0xFFFFFFFFFFFFFFFFFFFFFFFFFFFFFFFFFFFFFFFF AND PUSH4 0xC1341C4F DUP7 PUSH1 0x20 ADD PUSH1 0x20 DUP2 ADD SWAP1 PUSH2 0x19FE SWAP2 SWAP1 PUSH2 0x3971 JUMP JUMPDEST DUP9 PUSH1 0x20 ADD CALLDATALOAD DUP9 PUSH1 0x40 ADD CALLDATALOAD DUP10 DUP1 PUSH1 0x60 ADD SWAP1 PUSH2 0x1A18 SWAP2 SWAP1 PUSH2 0x3E2B JUMP JUMPDEST DUP13 DUP1 PUSH1 0x40 ADD SWAP1 PUSH2 0x1A28 SWAP2 SWAP1 PUSH2 0x4AEA JUMP JUMPDEST PUSH1 0x40 MLOAD DUP9 PUSH4 0xFFFFFFFF AND PUSH1 0xE0 SHL DUP2 MSTORE PUSH1 0x4 ADD PUSH2 0x1A4A SWAP8 SWAP7 SWAP6 SWAP5 SWAP4 SWAP3 SWAP2 SWAP1 PUSH2 0x4B7A JUMP JUMPDEST PUSH1 0x0 PUSH1 0x40 MLOAD DUP1 DUP4 SUB DUP2 PUSH1 0x0 DUP8 DUP1 EXTCODESIZE ISZERO DUP1 ISZERO PUSH2 0x1A64 JUMPI PUSH1 0x0 DUP1 REVERT JUMPDEST POP GAS CALL ISZERO DUP1 ISZERO PUSH2 0x1A78 JUMPI RETURNDATASIZE PUSH1 0x0 DUP1 RETURNDATACOPY RETURNDATASIZE PUSH1 0x0 REVERT JUMPDEST POP POP POP POP PUSH2 0x1BE3 JUMP JUMPDEST PUSH1 0x0 DUP3 DUP7 PUSH1 0x40 ADD CALLDATALOAD PUSH2 0x1A93 SWAP2 SWAP1 PUSH2 0x36BA JUMP JUMPDEST SWAP1 POP PUSH1 0x0 DUP4 GT ISZERO PUSH2 0x1B48 JUMPI DUP5 PUSH20 0xFFFFFFFFFFFFFFFFFFFFFFFFFFFFFFFFFFFFFFFF AND PUSH4 0xC1341C4F DUP8 PUSH1 0x20 ADD PUSH1 0x20 DUP2 ADD SWAP1 PUSH2 0x1ACD SWAP2 SWAP1 PUSH2 0x3971 JUMP JUMPDEST DUP10 PUSH1 0x20 ADD CALLDATALOAD DUP7 DUP11 DUP1 PUSH1 0x60 ADD SWAP1 PUSH2 0x1AE3 SWAP2 SWAP1 PUSH2 0x3E2B JUMP JUMPDEST DUP14 DUP1 PUSH1 0x40 ADD SWAP1 PUSH2 0x1AF3 SWAP2 SWAP1 PUSH2 0x4AEA JUMP JUMPDEST PUSH1 0x40 MLOAD DUP9 PUSH4 0xFFFFFFFF AND PUSH1 0xE0 SHL DUP2 MSTORE PUSH1 0x4 ADD PUSH2 0x1B15 SWAP8 SWAP7 SWAP6 SWAP5 SWAP4 SWAP3 SWAP2 SWAP1 PUSH2 0x4B7A JUMP JUMPDEST PUSH1 0x0 PUSH1 0x40 MLOAD DUP1 DUP4 SUB DUP2 PUSH1 0x0 DUP8 DUP1 EXTCODESIZE ISZERO DUP1 ISZERO PUSH2 0x1B2F JUMPI PUSH1 0x0 DUP1 REVERT JUMPDEST POP GAS CALL ISZERO DUP1 ISZERO PUSH2 0x1B43 JUMPI RETURNDATASIZE PUSH1 0x0 DUP1 RETURNDATACOPY RETURNDATASIZE PUSH1 0x0 REVERT JUMPDEST POP POP POP POP JUMPDEST DUP5 PUSH20 0xFFFFFFFFFFFFFFFFFFFFFFFFFFFFFFFFFFFFFFFF AND PUSH4 0xF242432A DUP8 PUSH1 0x0 ADD PUSH1 0x20 DUP2 ADD SWAP1 PUSH2 0x1B77 SWAP2 SWAP1 PUSH2 0x3971 JUMP JUMPDEST DUP9 PUSH1 0x20 ADD PUSH1 0x20 DUP2 ADD SWAP1 PUSH2 0x1B8A SWAP2 SWAP1 PUSH2 0x3971 JUMP JUMPDEST DUP11 PUSH1 0x20 ADD CALLDATALOAD DUP6 PUSH1 0x40 MLOAD DUP6 PUSH4 0xFFFFFFFF AND PUSH1 0xE0 SHL DUP2 MSTORE PUSH1 0x4 ADD PUSH2 0x1BAF SWAP5 SWAP4 SWAP3 SWAP2 SWAP1 PUSH2 0x49FD JUMP JUMPDEST PUSH1 0x0 PUSH1 0x40 MLOAD DUP1 DUP4 SUB DUP2 PUSH1 0x0 DUP8 DUP1 EXTCODESIZE ISZERO DUP1 ISZERO PUSH2 0x1BC9 JUMPI PUSH1 0x0 DUP1 REVERT JUMPDEST POP GAS CALL ISZERO DUP1 ISZERO PUSH2 0x1BDD JUMPI RETURNDATASIZE PUSH1 0x0 DUP1 RETURNDATACOPY RETURNDATASIZE PUSH1 0x0 REVERT JUMPDEST POP POP POP POP POP JUMPDEST POP POP JUMPDEST POP POP POP POP JUMP JUMPDEST PUSH1 0x0 DUP1 PUSH1 0x0 DUP1 PUSH2 0x1BFB DUP6 PUSH2 0x1C5B JUMP JUMPDEST SWAP3 POP SWAP3 POP SWAP3 POP PUSH1 0x1 DUP7 DUP3 DUP6 DUP6 PUSH1 0x40 MLOAD PUSH1 0x0 DUP2 MSTORE PUSH1 0x20 ADD PUSH1 0x40 MSTORE PUSH1 0x40 MLOAD PUSH2 0x1C24 SWAP5 SWAP4 SWAP3 SWAP2 SWAP1 PUSH2 0x4BFD JUMP JUMPDEST PUSH1 0x20 PUSH1 0x40 MLOAD PUSH1 0x20 DUP2 SUB SWAP1 DUP1 DUP5 SUB SWAP1 DUP6 GAS STATICCALL ISZERO DUP1 ISZERO PUSH2 0x1C46 JUMPI RETURNDATASIZE PUSH1 0x0 DUP1 RETURNDATACOPY RETURNDATASIZE PUSH1 0x0 REVERT JUMPDEST POP POP POP PUSH1 0x20 PUSH1 0x40 MLOAD SUB MLOAD SWAP4 POP POP POP POP SWAP3 SWAP2 POP POP JUMP JUMPDEST PUSH1 0x0 DUP1 PUSH1 0x0 PUSH1 0x41 DUP5 MLOAD EQ PUSH2 0x1CA4 JUMPI PUSH1 0x40 MLOAD PUSH32 0x8C379A000000000000000000000000000000000000000000000000000000000 DUP2 MSTORE PUSH1 0x4 ADD PUSH2 0x1C9B SWAP1 PUSH2 0x4C8E JUMP JUMPDEST PUSH1 0x40 MLOAD DUP1 SWAP2 SUB SWAP1 REVERT JUMPDEST PUSH1 0x20 DUP5 ADD MLOAD SWAP3 POP PUSH1 0x40 DUP5 ADD MLOAD SWAP2 POP PUSH1 0x60 DUP5 ADD MLOAD PUSH1 0x0 BYTE SWAP1 POP SWAP2 SWAP4 SWAP1 SWAP3 POP JUMP JUMPDEST DUP2 PUSH20 0xFFFFFFFFFFFFFFFFFFFFFFFFFFFFFFFFFFFFFFFF AND PUSH4 0x5D2B6A4E DUP3 PUSH1 0x0 ADD PUSH1 0x20 DUP2 ADD SWAP1 PUSH2 0x1CF2 SWAP2 SWAP1 PUSH2 0x3971 JUMP JUMPDEST PUSH1 0x40 MLOAD DUP3 PUSH4 0xFFFFFFFF AND PUSH1 0xE0 SHL DUP2 MSTORE PUSH1 0x4 ADD PUSH2 0x1D0E SWAP2 SWAP1 PUSH2 0x3A0A JUMP JUMPDEST PUSH1 0x20 PUSH1 0x40 MLOAD DUP1 DUP4 SUB DUP2 DUP7 GAS STATICCALL ISZERO DUP1 ISZERO PUSH2 0x1D2B JUMPI RETURNDATASIZE PUSH1 0x0 DUP1 RETURNDATACOPY RETURNDATASIZE PUSH1 0x0 REVERT JUMPDEST POP POP POP POP PUSH1 0x40 MLOAD RETURNDATASIZE PUSH1 0x1F NOT PUSH1 0x1F DUP3 ADD AND DUP3 ADD DUP1 PUSH1 0x40 MSTORE POP DUP2 ADD SWAP1 PUSH2 0x1D4F SWAP2 SWAP1 PUSH2 0x3835 JUMP JUMPDEST PUSH2 0x1D8E JUMPI PUSH1 0x40 MLOAD PUSH32 0x8C379A000000000000000000000000000000000000000000000000000000000 DUP2 MSTORE PUSH1 0x4 ADD PUSH2 0x1D85 SWAP1 PUSH2 0x3A71 JUMP JUMPDEST PUSH1 0x40 MLOAD DUP1 SWAP2 SUB SWAP1 REVERT JUMPDEST CALLER PUSH20 0xFFFFFFFFFFFFFFFFFFFFFFFFFFFFFFFFFFFFFFFF AND DUP2 DUP1 PUSH1 0x20 ADD SWAP1 PUSH2 0x1DB5 SWAP2 SWAP1 PUSH2 0x3C2B JUMP JUMPDEST PUSH1 0x0 ADD PUSH1 0x20 DUP2 ADD SWAP1 PUSH2 0x1DC7 SWAP2 SWAP1 PUSH2 0x3971 JUMP JUMPDEST PUSH20 0xFFFFFFFFFFFFFFFFFFFFFFFFFFFFFFFFFFFFFFFF AND EQ PUSH2 0x1E1D JUMPI PUSH1 0x40 MLOAD PUSH32 0x8C379A000000000000000000000000000000000000000000000000000000000 DUP2 MSTORE PUSH1 0x4 ADD PUSH2 0x1E14 SWAP1 PUSH2 0x3E0B JUMP JUMPDEST PUSH1 0x40 MLOAD DUP1 SWAP2 SUB SWAP1 REVERT JUMPDEST DUP2 PUSH20 0xFFFFFFFFFFFFFFFFFFFFFFFFFFFFFFFFFFFFFFFF AND PUSH4 0x8CDD9C8F PUSH1 0x40 MLOAD DUP2 PUSH4 0xFFFFFFFF AND PUSH1 0xE0 SHL DUP2 MSTORE PUSH1 0x4 ADD PUSH1 0x20 PUSH1 0x40 MLOAD DUP1 DUP4 SUB DUP2 DUP7 GAS STATICCALL ISZERO DUP1 ISZERO PUSH2 0x1E68 JUMPI RETURNDATASIZE PUSH1 0x0 DUP1 RETURNDATACOPY RETURNDATASIZE PUSH1 0x0 REVERT JUMPDEST POP POP POP POP PUSH1 0x40 MLOAD RETURNDATASIZE PUSH1 0x1F NOT PUSH1 0x1F DUP3 ADD AND DUP3 ADD DUP1 PUSH1 0x40 MSTORE POP DUP2 ADD SWAP1 PUSH2 0x1E8C SWAP2 SWAP1 PUSH2 0x3BEF JUMP JUMPDEST DUP2 DUP1 PUSH1 0x20 ADD SWAP1 PUSH2 0x1E9C SWAP2 SWAP1 PUSH2 0x3C2B JUMP JUMPDEST PUSH1 0x80 ADD CALLDATALOAD GT ISZERO PUSH2 0x1EE1 JUMPI PUSH1 0x40 MLOAD PUSH32 0x8C379A000000000000000000000000000000000000000000000000000000000 DUP2 MSTORE PUSH1 0x4 ADD PUSH2 0x1ED8 SWAP1 PUSH2 0x3C9F JUMP JUMPDEST PUSH1 0x40 MLOAD DUP1 SWAP2 SUB SWAP1 REVERT JUMPDEST PUSH2 0x1F17 DUP4 DUP3 DUP1 PUSH1 0x20 ADD SWAP1 PUSH2 0x1EF5 SWAP2 SWAP1 PUSH2 0x3C2B JUMP JUMPDEST PUSH1 0x20 ADD CALLDATALOAD DUP4 DUP1 PUSH1 0x20 ADD SWAP1 PUSH2 0x1F09 SWAP2 SWAP1 PUSH2 0x3C2B JUMP JUMPDEST PUSH1 0x60 ADD CALLDATALOAD DUP5 PUSH1 0x60 ADD CALLDATALOAD PUSH2 0x2D4A JUMP JUMPDEST PUSH2 0x1F56 JUMPI PUSH1 0x40 MLOAD PUSH32 0x8C379A000000000000000000000000000000000000000000000000000000000 DUP2 MSTORE PUSH1 0x4 ADD PUSH2 0x1F4D SWAP1 PUSH2 0x4CFA JUMP JUMPDEST PUSH1 0x40 MLOAD DUP1 SWAP2 SUB SWAP1 REVERT JUMPDEST PUSH2 0x1FDD DUP2 PUSH1 0x0 ADD PUSH1 0x20 DUP2 ADD SWAP1 PUSH2 0x1F6C SWAP2 SWAP1 PUSH2 0x3971 JUMP JUMPDEST DUP3 DUP1 PUSH1 0x20 ADD SWAP1 PUSH2 0x1F7C SWAP2 SWAP1 PUSH2 0x3C2B JUMP JUMPDEST PUSH2 0x1F85 SWAP1 PUSH2 0x412F JUMP JUMPDEST DUP4 DUP1 PUSH1 0x40 ADD SWAP1 PUSH2 0x1F95 SWAP2 SWAP1 PUSH2 0x3E2B JUMP JUMPDEST DUP1 DUP1 PUSH1 0x1F ADD PUSH1 0x20 DUP1 SWAP2 DIV MUL PUSH1 0x20 ADD PUSH1 0x40 MLOAD SWAP1 DUP2 ADD PUSH1 0x40 MSTORE DUP1 SWAP4 SWAP3 SWAP2 SWAP1 DUP2 DUP2 MSTORE PUSH1 0x20 ADD DUP4 DUP4 DUP1 DUP3 DUP5 CALLDATACOPY PUSH1 0x0 DUP2 DUP5 ADD MSTORE PUSH1 0x1F NOT PUSH1 0x1F DUP3 ADD AND SWAP1 POP DUP1 DUP4 ADD SWAP3 POP POP POP POP POP POP POP PUSH2 0x2969 JUMP JUMPDEST PUSH2 0x201C JUMPI PUSH1 0x40 MLOAD PUSH32 0x8C379A000000000000000000000000000000000000000000000000000000000 DUP2 MSTORE PUSH1 0x4 ADD PUSH2 0x2013 SWAP1 PUSH2 0x4D8C JUMP JUMPDEST PUSH1 0x40 MLOAD DUP1 SWAP2 SUB SWAP1 REVERT JUMPDEST POP POP POP JUMP JUMPDEST PUSH2 0x20A8 DUP2 PUSH1 0x0 ADD PUSH1 0x20 DUP2 ADD SWAP1 PUSH2 0x2037 SWAP2 SWAP1 PUSH2 0x3971 JUMP JUMPDEST DUP3 DUP1 PUSH1 0x20 ADD SWAP1 PUSH2 0x2047 SWAP2 SWAP1 PUSH2 0x3C2B JUMP JUMPDEST PUSH2 0x2050 SWAP1 PUSH2 0x412F JUMP JUMPDEST DUP4 DUP1 PUSH1 0x40 ADD SWAP1 PUSH2 0x2060 SWAP2 SWAP1 PUSH2 0x3E2B JUMP JUMPDEST DUP1 DUP1 PUSH1 0x1F ADD PUSH1 0x20 DUP1 SWAP2 DIV MUL PUSH1 0x20 ADD PUSH1 0x40 MLOAD SWAP1 DUP2 ADD PUSH1 0x40 MSTORE DUP1 SWAP4 SWAP3 SWAP2 SWAP1 DUP2 DUP2 MSTORE PUSH1 0x20 ADD DUP4 DUP4 DUP1 DUP3 DUP5 CALLDATACOPY PUSH1 0x0 DUP2 DUP5 ADD MSTORE PUSH1 0x1F NOT PUSH1 0x1F DUP3 ADD AND SWAP1 POP DUP1 DUP4 ADD SWAP3 POP POP POP POP POP POP POP PUSH2 0x2969 JUMP JUMPDEST PUSH2 0x20E7 JUMPI PUSH1 0x40 MLOAD PUSH32 0x8C379A000000000000000000000000000000000000000000000000000000000 DUP2 MSTORE PUSH1 0x4 ADD PUSH2 0x20DE SWAP1 PUSH2 0x4DF8 JUMP JUMPDEST PUSH1 0x40 MLOAD DUP1 SWAP2 SUB SWAP1 REVERT JUMPDEST PUSH2 0x216A DUP2 PUSH1 0x60 ADD PUSH1 0x20 DUP2 ADD SWAP1 PUSH2 0x20FD SWAP2 SWAP1 PUSH2 0x3971 JUMP JUMPDEST DUP3 PUSH1 0x80 ADD DUP1 CALLDATASIZE SUB DUP2 ADD SWAP1 PUSH2 0x2111 SWAP2 SWAP1 PUSH2 0x41F6 JUMP JUMPDEST DUP4 DUP1 PUSH2 0x160 ADD SWAP1 PUSH2 0x2122 SWAP2 SWAP1 PUSH2 0x3E2B JUMP JUMPDEST DUP1 DUP1 PUSH1 0x1F ADD PUSH1 0x20 DUP1 SWAP2 DIV MUL PUSH1 0x20 ADD PUSH1 0x40 MLOAD SWAP1 DUP2 ADD PUSH1 0x40 MSTORE DUP1 SWAP4 SWAP3 SWAP2 SWAP1 DUP2 DUP2 MSTORE PUSH1 0x20 ADD DUP4 DUP4 DUP1 DUP3 DUP5 CALLDATACOPY PUSH1 0x0 DUP2 DUP5 ADD MSTORE PUSH1 0x1F NOT PUSH1 0x1F DUP3 ADD AND SWAP1 POP DUP1 DUP4 ADD SWAP3 POP POP POP POP POP POP POP PUSH2 0x2A01 JUMP JUMPDEST PUSH2 0x21A9 JUMPI PUSH1 0x40 MLOAD PUSH32 0x8C379A000000000000000000000000000000000000000000000000000000000 DUP2 MSTORE PUSH1 0x4 ADD PUSH2 0x21A0 SWAP1 PUSH2 0x4295 JUMP JUMPDEST PUSH1 0x40 MLOAD DUP1 SWAP2 SUB SWAP1 REVERT JUMPDEST PUSH2 0x2233 DUP2 PUSH2 0x180 ADD PUSH1 0x20 DUP2 ADD SWAP1 PUSH2 0x21C0 SWAP2 SWAP1 PUSH2 0x3971 JUMP JUMPDEST DUP3 DUP1 PUSH2 0x1A0 ADD SWAP1 PUSH2 0x21D1 SWAP2 SWAP1 PUSH2 0x3CBF JUMP JUMPDEST PUSH2 0x21DA SWAP1 PUSH2 0x4321 JUMP JUMPDEST DUP4 DUP1 PUSH2 0x1C0 ADD SWAP1 PUSH2 0x21EB SWAP2 SWAP1 PUSH2 0x3E2B JUMP JUMPDEST DUP1 DUP1 PUSH1 0x1F ADD PUSH1 0x20 DUP1 SWAP2 DIV MUL PUSH1 0x20 ADD PUSH1 0x40 MLOAD SWAP1 DUP2 ADD PUSH1 0x40 MSTORE DUP1 SWAP4 SWAP3 SWAP2 SWAP1 DUP2 DUP2 MSTORE PUSH1 0x20 ADD DUP4 DUP4 DUP1 DUP3 DUP5 CALLDATACOPY PUSH1 0x0 DUP2 DUP5 ADD MSTORE PUSH1 0x1F NOT PUSH1 0x1F DUP3 ADD AND SWAP1 POP DUP1 DUP4 ADD SWAP3 POP POP POP POP POP POP POP PUSH2 0x2AA5 JUMP JUMPDEST PUSH2 0x2272 JUMPI PUSH1 0x40 MLOAD PUSH32 0x8C379A000000000000000000000000000000000000000000000000000000000 DUP2 MSTORE PUSH1 0x4 ADD PUSH2 0x2269 SWAP1 PUSH2 0x4380 JUMP JUMPDEST PUSH1 0x40 MLOAD DUP1 SWAP2 SUB SWAP1 REVERT JUMPDEST POP JUMP JUMPDEST DUP2 PUSH20 0xFFFFFFFFFFFFFFFFFFFFFFFFFFFFFFFFFFFFFFFF AND PUSH4 0x5D2B6A4E DUP3 PUSH2 0x1A0 ADD PUSH1 0x20 DUP2 ADD SWAP1 PUSH2 0x22A5 SWAP2 SWAP1 PUSH2 0x3971 JUMP JUMPDEST PUSH1 0x40 MLOAD DUP3 PUSH4 0xFFFFFFFF AND PUSH1 0xE0 SHL DUP2 MSTORE PUSH1 0x4 ADD PUSH2 0x22C1 SWAP2 SWAP1 PUSH2 0x3A0A JUMP JUMPDEST PUSH1 0x20 PUSH1 0x40 MLOAD DUP1 DUP4 SUB DUP2 DUP7 GAS STATICCALL ISZERO DUP1 ISZERO PUSH2 0x22DE JUMPI RETURNDATASIZE PUSH1 0x0 DUP1 RETURNDATACOPY RETURNDATASIZE PUSH1 0x0 REVERT JUMPDEST POP POP POP POP PUSH1 0x40 MLOAD RETURNDATASIZE PUSH1 0x1F NOT PUSH1 0x1F DUP3 ADD AND DUP3 ADD DUP1 PUSH1 0x40 MSTORE POP DUP2 ADD SWAP1 PUSH2 0x2302 SWAP2 SWAP1 PUSH2 0x3835 JUMP JUMPDEST PUSH2 0x2341 JUMPI PUSH1 0x40 MLOAD PUSH32 0x8C379A000000000000000000000000000000000000000000000000000000000 DUP2 MSTORE PUSH1 0x4 ADD PUSH2 0x2338 SWAP1 PUSH2 0x3A71 JUMP JUMPDEST PUSH1 0x40 MLOAD DUP1 SWAP2 SUB SWAP1 REVERT JUMPDEST DUP3 PUSH20 0xFFFFFFFFFFFFFFFFFFFFFFFFFFFFFFFFFFFFFFFF AND PUSH4 0x6F6B5C5D DUP3 PUSH1 0x80 ADD PUSH1 0x0 ADD CALLDATALOAD PUSH1 0x40 MLOAD DUP3 PUSH4 0xFFFFFFFF AND PUSH1 0xE0 SHL DUP2 MSTORE PUSH1 0x4 ADD PUSH2 0x2381 SWAP2 SWAP1 PUSH2 0x3A91 JUMP JUMPDEST PUSH1 0x20 PUSH1 0x40 MLOAD DUP1 DUP4 SUB DUP2 DUP7 GAS STATICCALL ISZERO DUP1 ISZERO PUSH2 0x239E JUMPI RETURNDATASIZE PUSH1 0x0 DUP1 RETURNDATACOPY RETURNDATASIZE PUSH1 0x0 REVERT JUMPDEST POP POP POP POP PUSH1 0x40 MLOAD RETURNDATASIZE PUSH1 0x1F NOT PUSH1 0x1F DUP3 ADD AND DUP3 ADD DUP1 PUSH1 0x40 MSTORE POP DUP2 ADD SWAP1 PUSH2 0x23C2 SWAP2 SWAP1 PUSH2 0x3835 JUMP JUMPDEST ISZERO PUSH2 0x2402 JUMPI PUSH1 0x40 MLOAD PUSH32 0x8C379A000000000000000000000000000000000000000000000000000000000 DUP2 MSTORE PUSH1 0x4 ADD PUSH2 0x23F9 SWAP1 PUSH2 0x3AF8 JUMP JUMPDEST PUSH1 0x40 MLOAD DUP1 SWAP2 SUB SWAP1 REVERT JUMPDEST PUSH1 0x0 TIMESTAMP SWAP1 POP DUP2 PUSH1 0x80 ADD PUSH1 0xE0 ADD CALLDATALOAD DUP2 GT PUSH2 0x2450 JUMPI PUSH1 0x40 MLOAD PUSH32 0x8C379A000000000000000000000000000000000000000000000000000000000 DUP2 MSTORE PUSH1 0x4 ADD PUSH2 0x2447 SWAP1 PUSH2 0x4E64 JUMP JUMPDEST PUSH1 0x40 MLOAD DUP1 SWAP2 SUB SWAP1 REVERT JUMPDEST DUP3 PUSH20 0xFFFFFFFFFFFFFFFFFFFFFFFFFFFFFFFFFFFFFFFF AND PUSH4 0xF503449A PUSH1 0x40 MLOAD DUP2 PUSH4 0xFFFFFFFF AND PUSH1 0xE0 SHL DUP2 MSTORE PUSH1 0x4 ADD PUSH1 0x20 PUSH1 0x40 MLOAD DUP1 DUP4 SUB DUP2 DUP7 GAS STATICCALL ISZERO DUP1 ISZERO PUSH2 0x249B JUMPI RETURNDATASIZE PUSH1 0x0 DUP1 RETURNDATACOPY RETURNDATASIZE PUSH1 0x0 REVERT JUMPDEST POP POP POP POP PUSH1 0x40 MLOAD RETURNDATASIZE PUSH1 0x1F NOT PUSH1 0x1F DUP3 ADD AND DUP3 ADD DUP1 PUSH1 0x40 MSTORE POP DUP2 ADD SWAP1 PUSH2 0x24BF SWAP2 SWAP1 PUSH2 0x3BEF JUMP JUMPDEST DUP3 PUSH1 0x80 ADD PUSH1 0xE0 ADD CALLDATALOAD PUSH2 0x24D1 SWAP2 SWAP1 PUSH2 0x3B18 JUMP JUMPDEST DUP2 GT PUSH2 0x2512 JUMPI PUSH1 0x40 MLOAD PUSH32 0x8C379A000000000000000000000000000000000000000000000000000000000 DUP2 MSTORE PUSH1 0x4 ADD PUSH2 0x2509 SWAP1 PUSH2 0x4ED0 JUMP JUMPDEST PUSH1 0x40 MLOAD DUP1 SWAP2 SUB SWAP1 REVERT JUMPDEST PUSH2 0x708 DUP4 PUSH20 0xFFFFFFFFFFFFFFFFFFFFFFFFFFFFFFFFFFFFFFFF AND PUSH4 0x16B28517 PUSH1 0x40 MLOAD DUP2 PUSH4 0xFFFFFFFF AND PUSH1 0xE0 SHL DUP2 MSTORE PUSH1 0x4 ADD PUSH1 0x20 PUSH1 0x40 MLOAD DUP1 DUP4 SUB DUP2 DUP7 GAS STATICCALL ISZERO DUP1 ISZERO PUSH2 0x2560 JUMPI RETURNDATASIZE PUSH1 0x0 DUP1 RETURNDATACOPY RETURNDATASIZE PUSH1 0x0 REVERT JUMPDEST POP POP POP POP PUSH1 0x40 MLOAD RETURNDATASIZE PUSH1 0x1F NOT PUSH1 0x1F DUP3 ADD AND DUP3 ADD DUP1 PUSH1 0x40 MSTORE POP DUP2 ADD SWAP1 PUSH2 0x2584 SWAP2 SWAP1 PUSH2 0x3BEF JUMP JUMPDEST DUP4 PUSH1 0x80 ADD PUSH1 0xE0 ADD CALLDATALOAD PUSH2 0x2596 SWAP2 SWAP1 PUSH2 0x3B18 JUMP JUMPDEST PUSH2 0x25A0 SWAP2 SWAP1 PUSH2 0x3B18 JUMP JUMPDEST DUP2 LT PUSH2 0x25E1 JUMPI PUSH1 0x40 MLOAD PUSH32 0x8C379A000000000000000000000000000000000000000000000000000000000 DUP2 MSTORE PUSH1 0x4 ADD PUSH2 0x25D8 SWAP1 PUSH2 0x4F3C JUMP JUMPDEST PUSH1 0x40 MLOAD DUP1 SWAP2 SUB SWAP1 REVERT JUMPDEST DUP4 PUSH20 0xFFFFFFFFFFFFFFFFFFFFFFFFFFFFFFFFFFFFFFFF AND PUSH4 0xDB615A17 DUP4 DUP1 PUSH2 0x280 ADD SWAP1 PUSH2 0x260E SWAP2 SWAP1 PUSH2 0x3E2B JUMP JUMPDEST PUSH1 0x40 MLOAD DUP4 PUSH4 0xFFFFFFFF AND PUSH1 0xE0 SHL DUP2 MSTORE PUSH1 0x4 ADD PUSH2 0x262B SWAP3 SWAP2 SWAP1 PUSH2 0x3ECC JUMP JUMPDEST PUSH1 0x20 PUSH1 0x40 MLOAD DUP1 DUP4 SUB DUP2 DUP7 GAS STATICCALL ISZERO DUP1 ISZERO PUSH2 0x2648 JUMPI RETURNDATASIZE PUSH1 0x0 DUP1 RETURNDATACOPY RETURNDATASIZE PUSH1 0x0 REVERT JUMPDEST POP POP POP POP PUSH1 0x40 MLOAD RETURNDATASIZE PUSH1 0x1F NOT PUSH1 0x1F DUP3 ADD AND DUP3 ADD DUP1 PUSH1 0x40 MSTORE POP DUP2 ADD SWAP1 PUSH2 0x266C SWAP2 SWAP1 PUSH2 0x3835 JUMP JUMPDEST ISZERO PUSH2 0x26AC JUMPI PUSH1 0x40 MLOAD PUSH32 0x8C379A000000000000000000000000000000000000000000000000000000000 DUP2 MSTORE PUSH1 0x4 ADD PUSH2 0x26A3 SWAP1 PUSH2 0x3F3C JUMP JUMPDEST PUSH1 0x40 MLOAD DUP1 SWAP2 SUB SWAP1 REVERT JUMPDEST DUP2 PUSH1 0x80 ADD PUSH1 0x0 ADD CALLDATALOAD DUP3 PUSH2 0x220 ADD PUSH1 0x20 ADD CALLDATALOAD EQ PUSH2 0x26FD JUMPI PUSH1 0x40 MLOAD PUSH32 0x8C379A000000000000000000000000000000000000000000000000000000000 DUP2 MSTORE PUSH1 0x4 ADD PUSH2 0x26F4 SWAP1 PUSH2 0x3FA8 JUMP JUMPDEST PUSH1 0x40 MLOAD DUP1 SWAP2 SUB SWAP1 REVERT JUMPDEST DUP2 PUSH1 0x80 ADD PUSH1 0x20 ADD CALLDATALOAD DUP3 DUP1 PUSH1 0x20 ADD SWAP1 PUSH2 0x2715 SWAP2 SWAP1 PUSH2 0x3C2B JUMP JUMPDEST PUSH1 0x20 ADD CALLDATALOAD EQ PUSH2 0x2759 JUMPI PUSH1 0x40 MLOAD PUSH32 0x8C379A000000000000000000000000000000000000000000000000000000000 DUP2 MSTORE PUSH1 0x4 ADD PUSH2 0x2750 SWAP1 PUSH2 0x3D9F JUMP JUMPDEST PUSH1 0x40 MLOAD DUP1 SWAP2 SUB SWAP1 REVERT JUMPDEST DUP3 PUSH20 0xFFFFFFFFFFFFFFFFFFFFFFFFFFFFFFFFFFFFFFFF AND PUSH4 0x8CDD9C8F PUSH1 0x40 MLOAD DUP2 PUSH4 0xFFFFFFFF AND PUSH1 0xE0 SHL DUP2 MSTORE PUSH1 0x4 ADD PUSH1 0x20 PUSH1 0x40 MLOAD DUP1 DUP4 SUB DUP2 DUP7 GAS STATICCALL ISZERO DUP1 ISZERO PUSH2 0x27A4 JUMPI RETURNDATASIZE PUSH1 0x0 DUP1 RETURNDATACOPY RETURNDATASIZE PUSH1 0x0 REVERT JUMPDEST POP POP POP POP PUSH1 0x40 MLOAD RETURNDATASIZE PUSH1 0x1F NOT PUSH1 0x1F DUP3 ADD AND DUP3 ADD DUP1 PUSH1 0x40 MSTORE POP DUP2 ADD SWAP1 PUSH2 0x27C8 SWAP2 SWAP1 PUSH2 0x3BEF JUMP JUMPDEST DUP3 DUP1 PUSH1 0x20 ADD SWAP1 PUSH2 0x27D8 SWAP2 SWAP1 PUSH2 0x3C2B JUMP JUMPDEST PUSH1 0x80 ADD CALLDATALOAD GT ISZERO PUSH2 0x281D JUMPI PUSH1 0x40 MLOAD PUSH32 0x8C379A000000000000000000000000000000000000000000000000000000000 DUP2 MSTORE PUSH1 0x4 ADD PUSH2 0x2814 SWAP1 PUSH2 0x3C9F JUMP JUMPDEST PUSH1 0x40 MLOAD DUP1 SWAP2 SUB SWAP1 REVERT JUMPDEST DUP3 PUSH20 0xFFFFFFFFFFFFFFFFFFFFFFFFFFFFFFFFFFFFFFFF AND PUSH4 0x62A6F6A6 PUSH1 0x40 MLOAD DUP2 PUSH4 0xFFFFFFFF AND PUSH1 0xE0 SHL DUP2 MSTORE PUSH1 0x4 ADD PUSH1 0x20 PUSH1 0x40 MLOAD DUP1 DUP4 SUB DUP2 DUP7 GAS STATICCALL ISZERO DUP1 ISZERO PUSH2 0x2868 JUMPI RETURNDATASIZE PUSH1 0x0 DUP1 RETURNDATACOPY RETURNDATASIZE PUSH1 0x0 REVERT JUMPDEST POP POP POP POP PUSH1 0x40 MLOAD RETURNDATASIZE PUSH1 0x1F NOT PUSH1 0x1F DUP3 ADD AND DUP3 ADD DUP1 PUSH1 0x40 MSTORE POP DUP2 ADD SWAP1 PUSH2 0x288C SWAP2 SWAP1 PUSH2 0x3BEF JUMP JUMPDEST DUP3 DUP1 PUSH2 0x1C0 ADD SWAP1 PUSH2 0x289D SWAP2 SWAP1 PUSH2 0x3CBF JUMP JUMPDEST PUSH1 0x20 ADD CALLDATALOAD GT ISZERO PUSH2 0x28E2 JUMPI PUSH1 0x40 MLOAD PUSH32 0x8C379A000000000000000000000000000000000000000000000000000000000 DUP2 MSTORE PUSH1 0x4 ADD PUSH2 0x28D9 SWAP1 PUSH2 0x3D33 JUMP JUMPDEST PUSH1 0x40 MLOAD DUP1 SWAP2 SUB SWAP1 REVERT JUMPDEST DUP2 PUSH1 0x80 ADD PUSH1 0xA0 ADD CALLDATALOAD DUP3 PUSH2 0x220 ADD PUSH1 0x40 ADD CALLDATALOAD GT PUSH2 0x2933 JUMPI PUSH1 0x40 MLOAD PUSH32 0x8C379A000000000000000000000000000000000000000000000000000000000 DUP2 MSTORE PUSH1 0x4 ADD PUSH2 0x292A SWAP1 PUSH2 0x4FA8 JUMP JUMPDEST PUSH1 0x40 MLOAD DUP1 SWAP2 SUB SWAP1 REVERT JUMPDEST POP POP POP POP JUMP JUMPDEST PUSH1 0x0 DUP2 PUSH1 0x40 MLOAD PUSH1 0x20 ADD PUSH2 0x294C SWAP2 SWAP1 PUSH2 0x5040 JUMP JUMPDEST PUSH1 0x40 MLOAD PUSH1 0x20 DUP2 DUP4 SUB SUB DUP2 MSTORE SWAP1 PUSH1 0x40 MSTORE DUP1 MLOAD SWAP1 PUSH1 0x20 ADD KECCAK256 SWAP1 POP SWAP2 SWAP1 POP JUMP JUMPDEST PUSH1 0x0 DUP1 DUP4 PUSH1 0x0 ADD MLOAD DUP5 PUSH1 0x80 ADD MLOAD DUP6 PUSH1 0x20 ADD MLOAD DUP7 PUSH1 0x60 ADD MLOAD DUP8 PUSH1 0xA0 ADD MLOAD PUSH1 0x40 MLOAD PUSH1 0x20 ADD PUSH2 0x2999 SWAP6 SWAP5 SWAP4 SWAP3 SWAP2 SWAP1 PUSH2 0x50CF JUMP JUMPDEST PUSH1 0x40 MLOAD PUSH1 0x20 DUP2 DUP4 SUB SUB DUP2 MSTORE SWAP1 PUSH1 0x40 MSTORE SWAP1 POP PUSH1 0x0 DUP2 DUP1 MLOAD SWAP1 PUSH1 0x20 ADD KECCAK256 SWAP1 POP DUP6 PUSH20 0xFFFFFFFFFFFFFFFFFFFFFFFFFFFFFFFFFFFFFFFF AND PUSH2 0x29DF PUSH2 0x29D9 DUP4 PUSH2 0x2939 JUMP JUMPDEST DUP7 PUSH2 0x1BEC JUMP JUMPDEST PUSH20 0xFFFFFFFFFFFFFFFFFFFFFFFFFFFFFFFFFFFFFFFF AND EQ SWAP3 POP POP POP SWAP4 SWAP3 POP POP POP JUMP JUMPDEST PUSH1 0x0 DUP1 DUP4 PUSH1 0x0 ADD MLOAD DUP5 PUSH1 0x20 ADD MLOAD DUP6 PUSH1 0x40 ADD MLOAD DUP7 PUSH1 0x60 ADD MLOAD DUP8 PUSH1 0x80 ADD MLOAD DUP9 PUSH1 0xA0 ADD MLOAD DUP10 PUSH1 0xC0 ADD MLOAD PUSH1 0x40 MLOAD PUSH1 0x20 ADD PUSH2 0x2A3D SWAP8 SWAP7 SWAP6 SWAP5 SWAP4 SWAP3 SWAP2 SWAP1 PUSH2 0x512E JUMP JUMPDEST PUSH1 0x40 MLOAD PUSH1 0x20 DUP2 DUP4 SUB SUB DUP2 MSTORE SWAP1 PUSH1 0x40 MSTORE SWAP1 POP PUSH1 0x0 DUP2 DUP1 MLOAD SWAP1 PUSH1 0x20 ADD KECCAK256 SWAP1 POP DUP6 PUSH20 0xFFFFFFFFFFFFFFFFFFFFFFFFFFFFFFFFFFFFFFFF AND PUSH2 0x2A83 PUSH2 0x2A7D DUP4 PUSH2 0x2939 JUMP JUMPDEST DUP7 PUSH2 0x1BEC JUMP JUMPDEST PUSH20 0xFFFFFFFFFFFFFFFFFFFFFFFFFFFFFFFFFFFFFFFF AND EQ SWAP3 POP POP POP SWAP4 SWAP3 POP POP POP JUMP JUMPDEST PUSH1 0x0 DUP1 DUP4 PUSH1 0x0 ADD MLOAD DUP5 PUSH1 0x20 ADD MLOAD PUSH1 0x40 MLOAD PUSH1 0x20 ADD PUSH2 0x2AC3 SWAP3 SWAP2 SWAP1 PUSH2 0x51EB JUMP JUMPDEST PUSH1 0x40 MLOAD PUSH1 0x20 DUP2 DUP4 SUB SUB DUP2 MSTORE SWAP1 PUSH1 0x40 MSTORE SWAP1 POP PUSH1 0x0 DUP2 DUP1 MLOAD SWAP1 PUSH1 0x20 ADD KECCAK256 SWAP1 POP DUP6 PUSH20 0xFFFFFFFFFFFFFFFFFFFFFFFFFFFFFFFFFFFFFFFF AND PUSH2 0x2B09 PUSH2 0x2B03 DUP4 PUSH2 0x2939 JUMP JUMPDEST DUP7 PUSH2 0x1BEC JUMP JUMPDEST PUSH20 0xFFFFFFFFFFFFFFFFFFFFFFFFFFFFFFFFFFFFFFFF AND EQ SWAP3 POP POP POP SWAP4 SWAP3 POP POP POP JUMP JUMPDEST PUSH1 0x0 DUP1 DUP4 PUSH1 0x0 ADD MLOAD DUP5 PUSH1 0x20 ADD MLOAD DUP6 PUSH1 0x40 ADD MLOAD DUP7 PUSH1 0x60 ADD MLOAD PUSH1 0x40 MLOAD PUSH1 0x20 ADD PUSH2 0x2B55 SWAP5 SWAP4 SWAP3 SWAP2 SWAP1 PUSH2 0x5213 JUMP JUMPDEST PUSH1 0x40 MLOAD PUSH1 0x20 DUP2 DUP4 SUB SUB DUP2 MSTORE SWAP1 PUSH1 0x40 MSTORE SWAP1 POP PUSH1 0x0 DUP2 DUP1 MLOAD SWAP1 PUSH1 0x20 ADD KECCAK256 SWAP1 POP DUP6 PUSH20 0xFFFFFFFFFFFFFFFFFFFFFFFFFFFFFFFFFFFFFFFF AND PUSH2 0x2B9B PUSH2 0x2B95 DUP4 PUSH2 0x2939 JUMP JUMPDEST DUP7 PUSH2 0x1BEC JUMP JUMPDEST PUSH20 0xFFFFFFFFFFFFFFFFFFFFFFFFFFFFFFFFFFFFFFFF AND EQ SWAP3 POP POP POP SWAP4 SWAP3 POP POP POP JUMP JUMPDEST PUSH1 0x0 DUP1 DUP4 DUP1 MLOAD SWAP1 PUSH1 0x20 ADD KECCAK256 SWAP1 POP DUP5 PUSH20 0xFFFFFFFFFFFFFFFFFFFFFFFFFFFFFFFFFFFFFFFF AND PUSH2 0x2BF3 PUSH2 0x2BED DUP4 PUSH2 0x2939 JUMP JUMPDEST DUP6 PUSH2 0x1BEC JUMP JUMPDEST PUSH20 0xFFFFFFFFFFFFFFFFFFFFFFFFFFFFFFFFFFFFFFFF AND EQ SWAP2 POP POP SWAP4 SWAP3 POP POP POP JUMP JUMPDEST PUSH1 0x0 DUP1 DUP4 PUSH1 0x0 ADD MLOAD DUP5 PUSH1 0x20 ADD MLOAD DUP6 PUSH1 0x40 ADD MLOAD DUP7 PUSH1 0x60 ADD MLOAD DUP8 PUSH1 0x80 ADD MLOAD DUP9 PUSH1 0xA0 ADD MLOAD DUP10 PUSH1 0xC0 ADD MLOAD DUP11 PUSH1 0xE0 ADD MLOAD PUSH1 0x40 MLOAD PUSH1 0x20 ADD PUSH2 0x2C56 SWAP9 SWAP8 SWAP7 SWAP6 SWAP5 SWAP4 SWAP3 SWAP2 SWAP1 PUSH2 0x5261 JUMP JUMPDEST PUSH1 0x40 MLOAD PUSH1 0x20 DUP2 DUP4 SUB SUB DUP2 MSTORE SWAP1 PUSH1 0x40 MSTORE SWAP1 POP PUSH1 0x0 DUP2 DUP1 MLOAD SWAP1 PUSH1 0x20 ADD KECCAK256 SWAP1 POP DUP6 PUSH20 0xFFFFFFFFFFFFFFFFFFFFFFFFFFFFFFFFFFFFFFFF AND PUSH2 0x2C9C PUSH2 0x2C96 DUP4 PUSH2 0x2939 JUMP JUMPDEST DUP7 PUSH2 0x1BEC JUMP JUMPDEST PUSH20 0xFFFFFFFFFFFFFFFFFFFFFFFFFFFFFFFFFFFFFFFF AND EQ SWAP3 POP POP POP SWAP4 SWAP3 POP POP POP JUMP JUMPDEST PUSH1 0x0 DUP1 DUP4 PUSH1 0x0 ADD MLOAD DUP5 PUSH1 0x20 ADD MLOAD DUP6 PUSH1 0x40 ADD MLOAD PUSH1 0x40 MLOAD PUSH1 0x20 ADD PUSH2 0x2CE2 SWAP4 SWAP3 SWAP2 SWAP1 PUSH2 0x52F3 JUMP JUMPDEST PUSH1 0x40 MLOAD PUSH1 0x20 DUP2 DUP4 SUB SUB DUP2 MSTORE SWAP1 PUSH1 0x40 MSTORE SWAP1 POP PUSH1 0x0 DUP2 DUP1 MLOAD SWAP1 PUSH1 0x20 ADD KECCAK256 SWAP1 POP DUP6 PUSH20 0xFFFFFFFFFFFFFFFFFFFFFFFFFFFFFFFFFFFFFFFF AND PUSH2 0x2D28 PUSH2 0x2D22 DUP4 PUSH2 0x2939 JUMP JUMPDEST DUP7 PUSH2 0x1BEC JUMP JUMPDEST PUSH20 0xFFFFFFFFFFFFFFFFFFFFFFFFFFFFFFFFFFFFFFFF AND EQ SWAP3 POP POP POP SWAP4 SWAP3 POP POP POP JUMP JUMPDEST PUSH1 0x0 DUP1 DUP6 PUSH20 0xFFFFFFFFFFFFFFFFFFFFFFFFFFFFFFFFFFFFFFFF AND PUSH4 0xBD85B039 DUP7 PUSH1 0x40 MLOAD DUP3 PUSH4 0xFFFFFFFF AND PUSH1 0xE0 SHL DUP2 MSTORE PUSH1 0x4 ADD PUSH2 0x2D86 SWAP2 SWAP1 PUSH2 0x3A91 JUMP JUMPDEST PUSH1 0x20 PUSH1 0x40 MLOAD DUP1 DUP4 SUB DUP2 DUP7 GAS STATICCALL ISZERO DUP1 ISZERO PUSH2 0x2DA3 JUMPI RETURNDATASIZE PUSH1 0x0 DUP1 RETURNDATACOPY RETURNDATASIZE PUSH1 0x0 REVERT JUMPDEST POP POP POP POP PUSH1 0x40 MLOAD RETURNDATASIZE PUSH1 0x1F NOT PUSH1 0x1F DUP3 ADD AND DUP3 ADD DUP1 PUSH1 0x40 MSTORE POP DUP2 ADD SWAP1 PUSH2 0x2DC7 SWAP2 SWAP1 PUSH2 0x3BEF JUMP JUMPDEST SWAP1 POP DUP4 DUP4 DUP3 PUSH2 0x2DD6 SWAP2 SWAP1 PUSH2 0x3B18 JUMP JUMPDEST GT ISZERO SWAP2 POP POP SWAP5 SWAP4 POP POP POP POP JUMP JUMPDEST PUSH1 0x0 PUSH1 0x40 MLOAD SWAP1 POP SWAP1 JUMP JUMPDEST PUSH1 0x0 DUP1 REVERT JUMPDEST PUSH1 0x0 DUP1 REVERT JUMPDEST PUSH1 0x0 DUP1 REVERT JUMPDEST PUSH1 0x0 PUSH1 0xC0 DUP3 DUP5 SUB SLT ISZERO PUSH2 0x2E12 JUMPI PUSH2 0x2E11 PUSH2 0x2DF7 JUMP JUMPDEST JUMPDEST DUP2 SWAP1 POP SWAP3 SWAP2 POP POP JUMP JUMPDEST PUSH1 0x0 PUSH20 0xFFFFFFFFFFFFFFFFFFFFFFFFFFFFFFFFFFFFFFFF DUP3 AND SWAP1 POP SWAP2 SWAP1 POP JUMP JUMPDEST PUSH1 0x0 PUSH2 0x2E46 DUP3 PUSH2 0x2E1B JUMP JUMPDEST SWAP1 POP SWAP2 SWAP1 POP JUMP JUMPDEST PUSH2 0x2E56 DUP2 PUSH2 0x2E3B JUMP JUMPDEST DUP2 EQ PUSH2 0x2E61 JUMPI PUSH1 0x0 DUP1 REVERT JUMPDEST POP JUMP JUMPDEST PUSH1 0x0 DUP2 CALLDATALOAD SWAP1 POP PUSH2 0x2E73 DUP2 PUSH2 0x2E4D JUMP JUMPDEST SWAP3 SWAP2 POP POP JUMP JUMPDEST PUSH1 0x0 DUP2 SWAP1 POP SWAP2 SWAP1 POP JUMP JUMPDEST PUSH2 0x2E8C DUP2 PUSH2 0x2E79 JUMP JUMPDEST DUP2 EQ PUSH2 0x2E97 JUMPI PUSH1 0x0 DUP1 REVERT JUMPDEST POP JUMP JUMPDEST PUSH1 0x0 DUP2 CALLDATALOAD SWAP1 POP PUSH2 0x2EA9 DUP2 PUSH2 0x2E83 JUMP JUMPDEST SWAP3 SWAP2 POP POP JUMP JUMPDEST PUSH1 0x0 DUP1 PUSH1 0x0 DUP1 PUSH1 0x0 DUP1 PUSH1 0x0 PUSH1 0xE0 DUP9 DUP11 SUB SLT ISZERO PUSH2 0x2ECE JUMPI PUSH2 0x2ECD PUSH2 0x2DED JUMP JUMPDEST JUMPDEST PUSH1 0x0 DUP9 ADD CALLDATALOAD PUSH8 0xFFFFFFFFFFFFFFFF DUP2 GT ISZERO PUSH2 0x2EEC JUMPI PUSH2 0x2EEB PUSH2 0x2DF2 JUMP JUMPDEST JUMPDEST PUSH2 0x2EF8 DUP11 DUP3 DUP12 ADD PUSH2 0x2DFC JUMP JUMPDEST SWAP8 POP POP PUSH1 0x20 PUSH2 0x2F09 DUP11 DUP3 DUP12 ADD PUSH2 0x2E64 JUMP JUMPDEST SWAP7 POP POP PUSH1 0x40 PUSH2 0x2F1A DUP11 DUP3 DUP12 ADD PUSH2 0x2E64 JUMP JUMPDEST SWAP6 POP POP PUSH1 0x60 PUSH2 0x2F2B DUP11 DUP3 DUP12 ADD PUSH2 0x2E64 JUMP JUMPDEST SWAP5 POP POP PUSH1 0x80 PUSH2 0x2F3C DUP11 DUP3 DUP12 ADD PUSH2 0x2E64 JUMP JUMPDEST SWAP4 POP POP PUSH1 0xA0 PUSH2 0x2F4D DUP11 DUP3 DUP12 ADD PUSH2 0x2E9A JUMP JUMPDEST SWAP3 POP POP PUSH1 0xC0 PUSH2 0x2F5E DUP11 DUP3 DUP12 ADD PUSH2 0x2E9A JUMP JUMPDEST SWAP2 POP POP SWAP3 SWAP6 SWAP9 SWAP2 SWAP5 SWAP8 POP SWAP3 SWAP6 POP JUMP JUMPDEST PUSH1 0x0 PUSH2 0x2F78 DUP3 PUSH2 0x2E3B JUMP JUMPDEST SWAP1 POP SWAP2 SWAP1 POP JUMP JUMPDEST PUSH2 0x2F88 DUP2 PUSH2 0x2F6D JUMP JUMPDEST DUP2 EQ PUSH2 0x2F93 JUMPI PUSH1 0x0 DUP1 REVERT JUMPDEST POP JUMP JUMPDEST PUSH1 0x0 DUP2 CALLDATALOAD SWAP1 POP PUSH2 0x2FA5 DUP2 PUSH2 0x2F7F JUMP JUMPDEST SWAP3 SWAP2 POP POP JUMP JUMPDEST PUSH1 0x0 PUSH2 0x200 DUP3 DUP5 SUB SLT ISZERO PUSH2 0x2FC2 JUMPI PUSH2 0x2FC1 PUSH2 0x2DF7 JUMP JUMPDEST JUMPDEST DUP2 SWAP1 POP SWAP3 SWAP2 POP POP JUMP JUMPDEST PUSH1 0x0 DUP1 PUSH1 0x0 PUSH1 0x60 DUP5 DUP7 SUB SLT ISZERO PUSH2 0x2FE4 JUMPI PUSH2 0x2FE3 PUSH2 0x2DED JUMP JUMPDEST JUMPDEST PUSH1 0x0 PUSH2 0x2FF2 DUP7 DUP3 DUP8 ADD PUSH2 0x2E64 JUMP JUMPDEST SWAP4 POP POP PUSH1 0x20 PUSH2 0x3003 DUP7 DUP3 DUP8 ADD PUSH2 0x2F96 JUMP JUMPDEST SWAP3 POP POP PUSH1 0x40 DUP5 ADD CALLDATALOAD PUSH8 0xFFFFFFFFFFFFFFFF DUP2 GT ISZERO PUSH2 0x3024 JUMPI PUSH2 0x3023 PUSH2 0x2DF2 JUMP JUMPDEST JUMPDEST PUSH2 0x3030 DUP7 DUP3 DUP8 ADD PUSH2 0x2FAB JUMP JUMPDEST SWAP2 POP POP SWAP3 POP SWAP3 POP SWAP3 JUMP JUMPDEST PUSH1 0x0 PUSH2 0x2E0 DUP3 DUP5 SUB SLT ISZERO PUSH2 0x3051 JUMPI PUSH2 0x3050 PUSH2 0x2DF7 JUMP JUMPDEST JUMPDEST DUP2 SWAP1 POP SWAP3 SWAP2 POP POP JUMP JUMPDEST PUSH1 0x0 DUP1 PUSH1 0x0 PUSH1 0x60 DUP5 DUP7 SUB SLT ISZERO PUSH2 0x3073 JUMPI PUSH2 0x3072 PUSH2 0x2DED JUMP JUMPDEST JUMPDEST PUSH1 0x0 PUSH2 0x3081 DUP7 DUP3 DUP8 ADD PUSH2 0x2E64 JUMP JUMPDEST SWAP4 POP POP PUSH1 0x20 PUSH2 0x3092 DUP7 DUP3 DUP8 ADD PUSH2 0x2F96 JUMP JUMPDEST SWAP3 POP POP PUSH1 0x40 DUP5 ADD CALLDATALOAD PUSH8 0xFFFFFFFFFFFFFFFF DUP2 GT ISZERO PUSH2 0x30B3 JUMPI PUSH2 0x30B2 PUSH2 0x2DF2 JUMP JUMPDEST JUMPDEST PUSH2 0x30BF DUP7 DUP3 DUP8 ADD PUSH2 0x303A JUMP JUMPDEST SWAP2 POP POP SWAP3 POP SWAP3 POP SWAP3 JUMP JUMPDEST PUSH1 0x0 PUSH1 0x20 DUP3 DUP5 SUB SLT ISZERO PUSH2 0x30DF JUMPI PUSH2 0x30DE PUSH2 0x2DED JUMP JUMPDEST JUMPDEST PUSH1 0x0 DUP3 ADD CALLDATALOAD PUSH8 0xFFFFFFFFFFFFFFFF DUP2 GT ISZERO PUSH2 0x30FD JUMPI PUSH2 0x30FC PUSH2 0x2DF2 JUMP JUMPDEST JUMPDEST PUSH2 0x3109 DUP5 DUP3 DUP6 ADD PUSH2 0x303A JUMP JUMPDEST SWAP2 POP POP SWAP3 SWAP2 POP POP JUMP JUMPDEST PUSH1 0x0 PUSH2 0x2E0 DUP3 DUP5 SUB SLT ISZERO PUSH2 0x3129 JUMPI PUSH2 0x3128 PUSH2 0x2DF7 JUMP JUMPDEST JUMPDEST DUP2 SWAP1 POP SWAP3 SWAP2 POP POP JUMP JUMPDEST PUSH1 0x0 PUSH1 0x20 DUP3 DUP5 SUB SLT ISZERO PUSH2 0x3148 JUMPI PUSH2 0x3147 PUSH2 0x2DED JUMP JUMPDEST JUMPDEST PUSH1 0x0 DUP3 ADD CALLDATALOAD PUSH8 0xFFFFFFFFFFFFFFFF DUP2 GT ISZERO PUSH2 0x3166 JUMPI PUSH2 0x3165 PUSH2 0x2DF2 JUMP JUMPDEST JUMPDEST PUSH2 0x3172 DUP5 DUP3 DUP6 ADD PUSH2 0x3112 JUMP JUMPDEST SWAP2 POP POP SWAP3 SWAP2 POP POP JUMP JUMPDEST PUSH1 0x0 PUSH1 0x80 DUP3 DUP5 SUB SLT ISZERO PUSH2 0x3191 JUMPI PUSH2 0x3190 PUSH2 0x2DF7 JUMP JUMPDEST JUMPDEST DUP2 SWAP1 POP SWAP3 SWAP2 POP POP JUMP JUMPDEST PUSH1 0x0 DUP1 PUSH1 0x40 DUP4 DUP6 SUB SLT ISZERO PUSH2 0x31B1 JUMPI PUSH2 0x31B0 PUSH2 0x2DED JUMP JUMPDEST JUMPDEST PUSH1 0x0 DUP4 ADD CALLDATALOAD PUSH8 0xFFFFFFFFFFFFFFFF DUP2 GT ISZERO PUSH2 0x31CF JUMPI PUSH2 0x31CE PUSH2 0x2DF2 JUMP JUMPDEST JUMPDEST PUSH2 0x31DB DUP6 DUP3 DUP7 ADD PUSH2 0x2DFC JUMP JUMPDEST SWAP3 POP POP PUSH1 0x20 DUP4 ADD CALLDATALOAD PUSH8 0xFFFFFFFFFFFFFFFF DUP2 GT ISZERO PUSH2 0x31FC JUMPI PUSH2 0x31FB PUSH2 0x2DF2 JUMP JUMPDEST JUMPDEST PUSH2 0x3208 DUP6 DUP3 DUP7 ADD PUSH2 0x317B JUMP JUMPDEST SWAP2 POP POP SWAP3 POP SWAP3 SWAP1 POP JUMP JUMPDEST PUSH1 0x0 DUP2 SWAP1 POP SWAP2 SWAP1 POP JUMP JUMPDEST PUSH2 0x3225 DUP2 PUSH2 0x3212 JUMP JUMPDEST DUP2 EQ PUSH2 0x3230 JUMPI PUSH1 0x0 DUP1 REVERT JUMPDEST POP JUMP JUMPDEST PUSH1 0x0 DUP2 CALLDATALOAD SWAP1 POP PUSH2 0x3242 DUP2 PUSH2 0x321C JUMP JUMPDEST SWAP3 SWAP2 POP POP JUMP JUMPDEST PUSH1 0x0 DUP1 REVERT JUMPDEST PUSH1 0x0 DUP1 REVERT JUMPDEST PUSH1 0x0 PUSH1 0x1F NOT PUSH1 0x1F DUP4 ADD AND SWAP1 POP SWAP2 SWAP1 POP JUMP JUMPDEST PUSH32 0x4E487B7100000000000000000000000000000000000000000000000000000000 PUSH1 0x0 MSTORE PUSH1 0x41 PUSH1 0x4 MSTORE PUSH1 0x24 PUSH1 0x0 REVERT JUMPDEST PUSH2 0x329B DUP3 PUSH2 0x3252 JUMP JUMPDEST DUP2 ADD DUP2 DUP2 LT PUSH8 0xFFFFFFFFFFFFFFFF DUP3 GT OR ISZERO PUSH2 0x32BA JUMPI PUSH2 0x32B9 PUSH2 0x3263 JUMP JUMPDEST JUMPDEST DUP1 PUSH1 0x40 MSTORE POP POP POP JUMP JUMPDEST PUSH1 0x0 PUSH2 0x32CD PUSH2 0x2DE3 JUMP JUMPDEST SWAP1 POP PUSH2 0x32D9 DUP3 DUP3 PUSH2 0x3292 JUMP JUMPDEST SWAP2 SWAP1 POP JUMP JUMPDEST PUSH1 0x0 PUSH8 0xFFFFFFFFFFFFFFFF DUP3 GT ISZERO PUSH2 0x32F9 JUMPI PUSH2 0x32F8 PUSH2 0x3263 JUMP JUMPDEST JUMPDEST PUSH2 0x3302 DUP3 PUSH2 0x3252 JUMP JUMPDEST SWAP1 POP PUSH1 0x20 DUP2 ADD SWAP1 POP SWAP2 SWAP1 POP JUMP JUMPDEST DUP3 DUP2 DUP4 CALLDATACOPY PUSH1 0x0 DUP4 DUP4 ADD MSTORE POP POP POP JUMP JUMPDEST PUSH1 0x0 PUSH2 0x3331 PUSH2 0x332C DUP5 PUSH2 0x32DE JUMP JUMPDEST PUSH2 0x32C3 JUMP JUMPDEST SWAP1 POP DUP3 DUP2 MSTORE PUSH1 0x20 DUP2 ADD DUP5 DUP5 DUP5 ADD GT ISZERO PUSH2 0x334D JUMPI PUSH2 0x334C PUSH2 0x324D JUMP JUMPDEST JUMPDEST PUSH2 0x3358 DUP5 DUP3 DUP6 PUSH2 0x330F JUMP JUMPDEST POP SWAP4 SWAP3 POP POP POP JUMP JUMPDEST PUSH1 0x0 DUP3 PUSH1 0x1F DUP4 ADD SLT PUSH2 0x3375 JUMPI PUSH2 0x3374 PUSH2 0x3248 JUMP JUMPDEST JUMPDEST DUP2 CALLDATALOAD PUSH2 0x3385 DUP5 DUP3 PUSH1 0x20 DUP7 ADD PUSH2 0x331E JUMP JUMPDEST SWAP2 POP POP SWAP3 SWAP2 POP POP JUMP JUMPDEST PUSH1 0x0 DUP1 PUSH1 0x40 DUP4 DUP6 SUB SLT ISZERO PUSH2 0x33A5 JUMPI PUSH2 0x33A4 PUSH2 0x2DED JUMP JUMPDEST JUMPDEST PUSH1 0x0 PUSH2 0x33B3 DUP6 DUP3 DUP7 ADD PUSH2 0x3233 JUMP JUMPDEST SWAP3 POP POP PUSH1 0x20 DUP4 ADD CALLDATALOAD PUSH8 0xFFFFFFFFFFFFFFFF DUP2 GT ISZERO PUSH2 0x33D4 JUMPI PUSH2 0x33D3 PUSH2 0x2DF2 JUMP JUMPDEST JUMPDEST PUSH2 0x33E0 DUP6 DUP3 DUP7 ADD PUSH2 0x3360 JUMP JUMPDEST SWAP2 POP POP SWAP3 POP SWAP3 SWAP1 POP JUMP JUMPDEST PUSH2 0x33F3 DUP2 PUSH2 0x2E3B JUMP JUMPDEST DUP3 MSTORE POP POP JUMP JUMPDEST PUSH1 0x0 PUSH1 0x20 DUP3 ADD SWAP1 POP PUSH2 0x340E PUSH1 0x0 DUP4 ADD DUP5 PUSH2 0x33EA JUMP JUMPDEST SWAP3 SWAP2 POP POP JUMP JUMPDEST PUSH1 0x0 PUSH1 0x20 DUP3 DUP5 SUB SLT ISZERO PUSH2 0x342A JUMPI PUSH2 0x3429 PUSH2 0x2DED JUMP JUMPDEST JUMPDEST PUSH1 0x0 DUP3 ADD CALLDATALOAD PUSH8 0xFFFFFFFFFFFFFFFF DUP2 GT ISZERO PUSH2 0x3448 JUMPI PUSH2 0x3447 PUSH2 0x2DF2 JUMP JUMPDEST JUMPDEST PUSH2 0x3454 DUP5 DUP3 DUP6 ADD PUSH2 0x3360 JUMP JUMPDEST SWAP2 POP POP SWAP3 SWAP2 POP POP JUMP JUMPDEST PUSH2 0x3466 DUP2 PUSH2 0x3212 JUMP JUMPDEST DUP3 MSTORE POP POP JUMP JUMPDEST PUSH1 0x0 PUSH1 0xFF DUP3 AND SWAP1 POP SWAP2 SWAP1 POP JUMP JUMPDEST PUSH2 0x3482 DUP2 PUSH2 0x346C JUMP JUMPDEST DUP3 MSTORE POP POP JUMP JUMPDEST PUSH1 0x0 PUSH1 0x60 DUP3 ADD SWAP1 POP PUSH2 0x349D PUSH1 0x0 DUP4 ADD DUP7 PUSH2 0x345D JUMP JUMPDEST PUSH2 0x34AA PUSH1 0x20 DUP4 ADD DUP6 PUSH2 0x345D JUMP JUMPDEST PUSH2 0x34B7 PUSH1 0x40 DUP4 ADD DUP5 PUSH2 0x3479 JUMP JUMPDEST SWAP5 SWAP4 POP POP POP POP JUMP JUMPDEST PUSH1 0x0 PUSH2 0x34CA DUP3 PUSH2 0x2E3B JUMP JUMPDEST SWAP1 POP SWAP2 SWAP1 POP JUMP JUMPDEST PUSH2 0x34DA DUP2 PUSH2 0x34BF JUMP JUMPDEST DUP2 EQ PUSH2 0x34E5 JUMPI PUSH1 0x0 DUP1 REVERT JUMPDEST POP JUMP JUMPDEST PUSH1 0x0 DUP2 CALLDATALOAD SWAP1 POP PUSH2 0x34F7 DUP2 PUSH2 0x34D1 JUMP JUMPDEST SWAP3 SWAP2 POP POP JUMP JUMPDEST PUSH1 0x0 PUSH1 0xA0 DUP3 DUP5 SUB SLT ISZERO PUSH2 0x3513 JUMPI PUSH2 0x3512 PUSH2 0x2DF7 JUMP JUMPDEST JUMPDEST DUP2 SWAP1 POP SWAP3 SWAP2 POP POP JUMP JUMPDEST PUSH1 0x0 DUP1 PUSH1 0x0 PUSH1 0x60 DUP5 DUP7 SUB SLT ISZERO PUSH2 0x3535 JUMPI PUSH2 0x3534 PUSH2 0x2DED JUMP JUMPDEST JUMPDEST PUSH1 0x0 PUSH2 0x3543 DUP7 DUP3 DUP8 ADD PUSH2 0x34E8 JUMP JUMPDEST SWAP4 POP POP PUSH1 0x20 PUSH2 0x3554 DUP7 DUP3 DUP8 ADD PUSH2 0x2F96 JUMP JUMPDEST SWAP3 POP POP PUSH1 0x40 DUP5 ADD CALLDATALOAD PUSH8 0xFFFFFFFFFFFFFFFF DUP2 GT ISZERO PUSH2 0x3575 JUMPI PUSH2 0x3574 PUSH2 0x2DF2 JUMP JUMPDEST JUMPDEST PUSH2 0x3581 DUP7 DUP3 DUP8 ADD PUSH2 0x34FD JUMP JUMPDEST SWAP2 POP POP SWAP3 POP SWAP3 POP SWAP3 JUMP JUMPDEST PUSH1 0x0 PUSH1 0x20 DUP3 DUP5 SUB SLT ISZERO PUSH2 0x35A1 JUMPI PUSH2 0x35A0 PUSH2 0x2DED JUMP JUMPDEST JUMPDEST PUSH1 0x0 DUP3 ADD CALLDATALOAD PUSH8 0xFFFFFFFFFFFFFFFF DUP2 GT ISZERO PUSH2 0x35BF JUMPI PUSH2 0x35BE PUSH2 0x2DF2 JUMP JUMPDEST JUMPDEST PUSH2 0x35CB DUP5 DUP3 DUP6 ADD PUSH2 0x2FAB JUMP JUMPDEST SWAP2 POP POP SWAP3 SWAP2 POP POP JUMP JUMPDEST PUSH1 0x0 DUP1 PUSH1 0x0 PUSH1 0x60 DUP5 DUP7 SUB SLT ISZERO PUSH2 0x35ED JUMPI PUSH2 0x35EC PUSH2 0x2DED JUMP JUMPDEST JUMPDEST PUSH1 0x0 PUSH2 0x35FB DUP7 DUP3 DUP8 ADD PUSH2 0x2E64 JUMP JUMPDEST SWAP4 POP POP PUSH1 0x20 PUSH2 0x360C DUP7 DUP3 DUP8 ADD PUSH2 0x2F96 JUMP JUMPDEST SWAP3 POP POP PUSH1 0x40 DUP5 ADD CALLDATALOAD PUSH8 0xFFFFFFFFFFFFFFFF DUP2 GT ISZERO PUSH2 0x362D JUMPI PUSH2 0x362C PUSH2 0x2DF2 JUMP JUMPDEST JUMPDEST PUSH2 0x3639 DUP7 DUP3 DUP8 ADD PUSH2 0x3112 JUMP JUMPDEST SWAP2 POP POP SWAP3 POP SWAP3 POP SWAP3 JUMP JUMPDEST PUSH1 0x0 PUSH1 0x20 DUP3 DUP5 SUB SLT ISZERO PUSH2 0x3659 JUMPI PUSH2 0x3658 PUSH2 0x2DED JUMP JUMPDEST JUMPDEST PUSH1 0x0 PUSH2 0x3667 DUP5 DUP3 DUP6 ADD PUSH2 0x3233 JUMP JUMPDEST SWAP2 POP POP SWAP3 SWAP2 POP POP JUMP JUMPDEST PUSH1 0x0 PUSH1 0x20 DUP3 ADD SWAP1 POP PUSH2 0x3685 PUSH1 0x0 DUP4 ADD DUP5 PUSH2 0x345D JUMP JUMPDEST SWAP3 SWAP2 POP POP JUMP JUMPDEST PUSH32 0x4E487B7100000000000000000000000000000000000000000000000000000000 PUSH1 0x0 MSTORE PUSH1 0x11 PUSH1 0x4 MSTORE PUSH1 0x24 PUSH1 0x0 REVERT JUMPDEST PUSH1 0x0 PUSH2 0x36C5 DUP3 PUSH2 0x2E79 JUMP JUMPDEST SWAP2 POP PUSH2 0x36D0 DUP4 PUSH2 0x2E79 JUMP JUMPDEST SWAP3 POP DUP3 DUP3 LT ISZERO PUSH2 0x36E3 JUMPI PUSH2 0x36E2 PUSH2 0x368B JUMP JUMPDEST JUMPDEST DUP3 DUP3 SUB SWAP1 POP SWAP3 SWAP2 POP POP JUMP JUMPDEST PUSH1 0x0 PUSH2 0x36F9 DUP3 PUSH2 0x2E79 JUMP JUMPDEST SWAP2 POP PUSH2 0x3704 DUP4 PUSH2 0x2E79 JUMP JUMPDEST SWAP3 POP DUP2 PUSH32 0xFFFFFFFFFFFFFFFFFFFFFFFFFFFFFFFFFFFFFFFFFFFFFFFFFFFFFFFFFFFFFFFF DIV DUP4 GT DUP3 ISZERO ISZERO AND ISZERO PUSH2 0x373D JUMPI PUSH2 0x373C PUSH2 0x368B JUMP JUMPDEST JUMPDEST DUP3 DUP3 MUL SWAP1 POP SWAP3 SWAP2 POP POP JUMP JUMPDEST PUSH32 0x4E487B7100000000000000000000000000000000000000000000000000000000 PUSH1 0x0 MSTORE PUSH1 0x12 PUSH1 0x4 MSTORE PUSH1 0x24 PUSH1 0x0 REVERT JUMPDEST PUSH1 0x0 PUSH2 0x3782 DUP3 PUSH2 0x2E79 JUMP JUMPDEST SWAP2 POP PUSH2 0x378D DUP4 PUSH2 0x2E79 JUMP JUMPDEST SWAP3 POP DUP3 PUSH2 0x379D JUMPI PUSH2 0x379C PUSH2 0x3748 JUMP JUMPDEST JUMPDEST DUP3 DUP3 DIV SWAP1 POP SWAP3 SWAP2 POP POP JUMP JUMPDEST PUSH2 0x37B1 DUP2 PUSH2 0x2E3B JUMP JUMPDEST DUP3 MSTORE POP POP JUMP JUMPDEST PUSH2 0x37C0 DUP2 PUSH2 0x2E79 JUMP JUMPDEST DUP3 MSTORE POP POP JUMP JUMPDEST PUSH1 0x0 PUSH1 0x60 DUP3 ADD SWAP1 POP PUSH2 0x37DB PUSH1 0x0 DUP4 ADD DUP7 PUSH2 0x37A8 JUMP JUMPDEST PUSH2 0x37E8 PUSH1 0x20 DUP4 ADD DUP6 PUSH2 0x37A8 JUMP JUMPDEST PUSH2 0x37F5 PUSH1 0x40 DUP4 ADD DUP5 PUSH2 0x37B7 JUMP JUMPDEST SWAP5 SWAP4 POP POP POP POP JUMP JUMPDEST PUSH1 0x0 DUP2 ISZERO ISZERO SWAP1 POP SWAP2 SWAP1 POP JUMP JUMPDEST PUSH2 0x3812 DUP2 PUSH2 0x37FD JUMP JUMPDEST DUP2 EQ PUSH2 0x381D JUMPI PUSH1 0x0 DUP1 REVERT JUMPDEST POP JUMP JUMPDEST PUSH1 0x0 DUP2 MLOAD SWAP1 POP PUSH2 0x382F DUP2 PUSH2 0x3809 JUMP JUMPDEST SWAP3 SWAP2 POP POP JUMP JUMPDEST PUSH1 0x0 PUSH1 0x20 DUP3 DUP5 SUB SLT ISZERO PUSH2 0x384B JUMPI PUSH2 0x384A PUSH2 0x2DED JUMP JUMPDEST JUMPDEST PUSH1 0x0 PUSH2 0x3859 DUP5 DUP3 DUP6 ADD PUSH2 0x3820 JUMP JUMPDEST SWAP2 POP POP SWAP3 SWAP2 POP POP JUMP JUMPDEST PUSH1 0x0 DUP3 DUP3 MSTORE PUSH1 0x20 DUP3 ADD SWAP1 POP SWAP3 SWAP2 POP POP JUMP JUMPDEST PUSH32 0x475543207472616E7366657220746F2073656C6C6572206661696C6564000000 PUSH1 0x0 DUP3 ADD MSTORE POP JUMP JUMPDEST PUSH1 0x0 PUSH2 0x38A9 PUSH1 0x1D DUP4 PUSH2 0x3862 JUMP JUMPDEST SWAP2 POP PUSH2 0x38B4 DUP3 PUSH2 0x3873 JUMP JUMPDEST PUSH1 0x20 DUP3 ADD SWAP1 POP SWAP2 SWAP1 POP JUMP JUMPDEST PUSH1 0x0 PUSH1 0x20 DUP3 ADD SWAP1 POP DUP2 DUP2 SUB PUSH1 0x0 DUP4 ADD MSTORE PUSH2 0x38D8 DUP2 PUSH2 0x389C JUMP JUMPDEST SWAP1 POP SWAP2 SWAP1 POP JUMP JUMPDEST PUSH32 0x475543207472616E7366657220746F2062656E6566696369617279206661696C PUSH1 0x0 DUP3 ADD MSTORE PUSH32 0x6564000000000000000000000000000000000000000000000000000000000000 PUSH1 0x20 DUP3 ADD MSTORE POP JUMP JUMPDEST PUSH1 0x0 PUSH2 0x393B PUSH1 0x22 DUP4 PUSH2 0x3862 JUMP JUMPDEST SWAP2 POP PUSH2 0x3946 DUP3 PUSH2 0x38DF JUMP JUMPDEST PUSH1 0x40 DUP3 ADD SWAP1 POP SWAP2 SWAP1 POP JUMP JUMPDEST PUSH1 0x0 PUSH1 0x20 DUP3 ADD SWAP1 POP DUP2 DUP2 SUB PUSH1 0x0 DUP4 ADD MSTORE PUSH2 0x396A DUP2 PUSH2 0x392E JUMP JUMPDEST SWAP1 POP SWAP2 SWAP1 POP JUMP JUMPDEST PUSH1 0x0 PUSH1 0x20 DUP3 DUP5 SUB SLT ISZERO PUSH2 0x3987 JUMPI PUSH2 0x3986 PUSH2 0x2DED JUMP JUMPDEST JUMPDEST PUSH1 0x0 PUSH2 0x3995 DUP5 DUP3 DUP6 ADD PUSH2 0x2E64 JUMP JUMPDEST SWAP2 POP POP SWAP3 SWAP2 POP POP JUMP JUMPDEST PUSH32 0x475543207472616E7366657220746F2063726561746F72206661696C65640000 PUSH1 0x0 DUP3 ADD MSTORE POP JUMP JUMPDEST PUSH1 0x0 PUSH2 0x39D4 PUSH1 0x1E DUP4 PUSH2 0x3862 JUMP JUMPDEST SWAP2 POP PUSH2 0x39DF DUP3 PUSH2 0x399E JUMP JUMPDEST PUSH1 0x20 DUP3 ADD SWAP1 POP SWAP2 SWAP1 POP JUMP JUMPDEST PUSH1 0x0 PUSH1 0x20 DUP3 ADD SWAP1 POP DUP2 DUP2 SUB PUSH1 0x0 DUP4 ADD MSTORE PUSH2 0x3A03 DUP2 PUSH2 0x39C7 JUMP JUMPDEST SWAP1 POP SWAP2 SWAP1 POP JUMP JUMPDEST PUSH1 0x0 PUSH1 0x20 DUP3 ADD SWAP1 POP PUSH2 0x3A1F PUSH1 0x0 DUP4 ADD DUP5 PUSH2 0x37A8 JUMP JUMPDEST SWAP3 SWAP2 POP POP JUMP JUMPDEST PUSH32 0x5369676E6572206E6F7420617574686F72697A65640000000000000000000000 PUSH1 0x0 DUP3 ADD MSTORE POP JUMP JUMPDEST PUSH1 0x0 PUSH2 0x3A5B PUSH1 0x15 DUP4 PUSH2 0x3862 JUMP JUMPDEST SWAP2 POP PUSH2 0x3A66 DUP3 PUSH2 0x3A25 JUMP JUMPDEST PUSH1 0x20 DUP3 ADD SWAP1 POP SWAP2 SWAP1 POP JUMP JUMPDEST PUSH1 0x0 PUSH1 0x20 DUP3 ADD SWAP1 POP DUP2 DUP2 SUB PUSH1 0x0 DUP4 ADD MSTORE PUSH2 0x3A8A DUP2 PUSH2 0x3A4E JUMP JUMPDEST SWAP1 POP SWAP2 SWAP1 POP JUMP JUMPDEST PUSH1 0x0 PUSH1 0x20 DUP3 ADD SWAP1 POP PUSH2 0x3AA6 PUSH1 0x0 DUP4 ADD DUP5 PUSH2 0x37B7 JUMP JUMPDEST SWAP3 SWAP2 POP POP JUMP JUMPDEST PUSH32 0x4C697374696E672063616E63656C6C6564000000000000000000000000000000 PUSH1 0x0 DUP3 ADD MSTORE POP JUMP JUMPDEST PUSH1 0x0 PUSH2 0x3AE2 PUSH1 0x11 DUP4 PUSH2 0x3862 JUMP JUMPDEST SWAP2 POP PUSH2 0x3AED DUP3 PUSH2 0x3AAC JUMP JUMPDEST PUSH1 0x20 DUP3 ADD SWAP1 POP SWAP2 SWAP1 POP JUMP JUMPDEST PUSH1 0x0 PUSH1 0x20 DUP3 ADD SWAP1 POP DUP2 DUP2 SUB PUSH1 0x0 DUP4 ADD MSTORE PUSH2 0x3B11 DUP2 PUSH2 0x3AD5 JUMP JUMPDEST SWAP1 POP SWAP2 SWAP1 POP JUMP JUMPDEST PUSH1 0x0 PUSH2 0x3B23 DUP3 PUSH2 0x2E79 JUMP JUMPDEST SWAP2 POP PUSH2 0x3B2E DUP4 PUSH2 0x2E79 JUMP JUMPDEST SWAP3 POP DUP3 PUSH32 0xFFFFFFFFFFFFFFFFFFFFFFFFFFFFFFFFFFFFFFFFFFFFFFFFFFFFFFFFFFFFFFFF SUB DUP3 GT ISZERO PUSH2 0x3B63 JUMPI PUSH2 0x3B62 PUSH2 0x368B JUMP JUMPDEST JUMPDEST DUP3 DUP3 ADD SWAP1 POP SWAP3 SWAP2 POP POP JUMP JUMPDEST PUSH32 0x4C697374696E6720657870697265640000000000000000000000000000000000 PUSH1 0x0 DUP3 ADD MSTORE POP JUMP JUMPDEST PUSH1 0x0 PUSH2 0x3BA4 PUSH1 0xF DUP4 PUSH2 0x3862 JUMP JUMPDEST SWAP2 POP PUSH2 0x3BAF DUP3 PUSH2 0x3B6E JUMP JUMPDEST PUSH1 0x20 DUP3 ADD SWAP1 POP SWAP2 SWAP1 POP JUMP JUMPDEST PUSH1 0x0 PUSH1 0x20 DUP3 ADD SWAP1 POP DUP2 DUP2 SUB PUSH1 0x0 DUP4 ADD MSTORE PUSH2 0x3BD3 DUP2 PUSH2 0x3B97 JUMP JUMPDEST SWAP1 POP SWAP2 SWAP1 POP JUMP JUMPDEST PUSH1 0x0 DUP2 MLOAD SWAP1 POP PUSH2 0x3BE9 DUP2 PUSH2 0x2E83 JUMP JUMPDEST SWAP3 SWAP2 POP POP JUMP JUMPDEST PUSH1 0x0 PUSH1 0x20 DUP3 DUP5 SUB SLT ISZERO PUSH2 0x3C05 JUMPI PUSH2 0x3C04 PUSH2 0x2DED JUMP JUMPDEST JUMPDEST PUSH1 0x0 PUSH2 0x3C13 DUP5 DUP3 DUP6 ADD PUSH2 0x3BDA JUMP JUMPDEST SWAP2 POP POP SWAP3 SWAP2 POP POP JUMP JUMPDEST PUSH1 0x0 DUP1 REVERT JUMPDEST PUSH1 0x0 DUP1 REVERT JUMPDEST PUSH1 0x0 DUP1 REVERT JUMPDEST PUSH1 0x0 DUP3 CALLDATALOAD PUSH1 0x1 PUSH1 0xC0 SUB DUP4 CALLDATASIZE SUB SUB DUP2 SLT PUSH2 0x3C47 JUMPI PUSH2 0x3C46 PUSH2 0x3C1C JUMP JUMPDEST JUMPDEST DUP1 DUP4 ADD SWAP2 POP POP SWAP3 SWAP2 POP POP JUMP JUMPDEST PUSH32 0x526F79616C747920746F6F206869676800000000000000000000000000000000 PUSH1 0x0 DUP3 ADD MSTORE POP JUMP JUMPDEST PUSH1 0x0 PUSH2 0x3C89 PUSH1 0x10 DUP4 PUSH2 0x3862 JUMP JUMPDEST SWAP2 POP PUSH2 0x3C94 DUP3 PUSH2 0x3C53 JUMP JUMPDEST PUSH1 0x20 DUP3 ADD SWAP1 POP SWAP2 SWAP1 POP JUMP JUMPDEST PUSH1 0x0 PUSH1 0x20 DUP3 ADD SWAP1 POP DUP2 DUP2 SUB PUSH1 0x0 DUP4 ADD MSTORE PUSH2 0x3CB8 DUP2 PUSH2 0x3C7C JUMP JUMPDEST SWAP1 POP SWAP2 SWAP1 POP JUMP JUMPDEST PUSH1 0x0 DUP3 CALLDATALOAD PUSH1 0x1 PUSH1 0x40 SUB DUP4 CALLDATASIZE SUB SUB DUP2 SLT PUSH2 0x3CDB JUMPI PUSH2 0x3CDA PUSH2 0x3C1C JUMP JUMPDEST JUMPDEST DUP1 DUP4 ADD SWAP2 POP POP SWAP3 SWAP2 POP POP JUMP JUMPDEST PUSH32 0x506C6174666F726D2066656520746F6F20686967680000000000000000000000 PUSH1 0x0 DUP3 ADD MSTORE POP JUMP JUMPDEST PUSH1 0x0 PUSH2 0x3D1D PUSH1 0x15 DUP4 PUSH2 0x3862 JUMP JUMPDEST SWAP2 POP PUSH2 0x3D28 DUP3 PUSH2 0x3CE7 JUMP JUMPDEST PUSH1 0x20 DUP3 ADD SWAP1 POP SWAP2 SWAP1 POP JUMP JUMPDEST PUSH1 0x0 PUSH1 0x20 DUP3 ADD SWAP1 POP DUP2 DUP2 SUB PUSH1 0x0 DUP4 ADD MSTORE PUSH2 0x3D4C DUP2 PUSH2 0x3D10 JUMP JUMPDEST SWAP1 POP SWAP2 SWAP1 POP JUMP JUMPDEST PUSH32 0x4E4654206964206D69736D617463680000000000000000000000000000000000 PUSH1 0x0 DUP3 ADD MSTORE POP JUMP JUMPDEST PUSH1 0x0 PUSH2 0x3D89 PUSH1 0xF DUP4 PUSH2 0x3862 JUMP JUMPDEST SWAP2 POP PUSH2 0x3D94 DUP3 PUSH2 0x3D53 JUMP JUMPDEST PUSH1 0x20 DUP3 ADD SWAP1 POP SWAP2 SWAP1 POP JUMP JUMPDEST PUSH1 0x0 PUSH1 0x20 DUP3 ADD SWAP1 POP DUP2 DUP2 SUB PUSH1 0x0 DUP4 ADD MSTORE PUSH2 0x3DB8 DUP2 PUSH2 0x3D7C JUMP JUMPDEST SWAP1 POP SWAP2 SWAP1 POP JUMP JUMPDEST PUSH32 0x556E617574686F72697A65640000000000000000000000000000000000000000 PUSH1 0x0 DUP3 ADD MSTORE POP JUMP JUMPDEST PUSH1 0x0 PUSH2 0x3DF5 PUSH1 0xC DUP4 PUSH2 0x3862 JUMP JUMPDEST SWAP2 POP PUSH2 0x3E00 DUP3 PUSH2 0x3DBF JUMP JUMPDEST PUSH1 0x20 DUP3 ADD SWAP1 POP SWAP2 SWAP1 POP JUMP JUMPDEST PUSH1 0x0 PUSH1 0x20 DUP3 ADD SWAP1 POP DUP2 DUP2 SUB PUSH1 0x0 DUP4 ADD MSTORE PUSH2 0x3E24 DUP2 PUSH2 0x3DE8 JUMP JUMPDEST SWAP1 POP SWAP2 SWAP1 POP JUMP JUMPDEST PUSH1 0x0 DUP1 DUP4 CALLDATALOAD PUSH1 0x1 PUSH1 0x20 SUB DUP5 CALLDATASIZE SUB SUB DUP2 SLT PUSH2 0x3E48 JUMPI PUSH2 0x3E47 PUSH2 0x3C1C JUMP JUMPDEST JUMPDEST DUP1 DUP5 ADD SWAP3 POP DUP3 CALLDATALOAD SWAP2 POP PUSH8 0xFFFFFFFFFFFFFFFF DUP3 GT ISZERO PUSH2 0x3E6A JUMPI PUSH2 0x3E69 PUSH2 0x3C21 JUMP JUMPDEST JUMPDEST PUSH1 0x20 DUP4 ADD SWAP3 POP PUSH1 0x1 DUP3 MUL CALLDATASIZE SUB DUP4 SGT ISZERO PUSH2 0x3E86 JUMPI PUSH2 0x3E85 PUSH2 0x3C26 JUMP JUMPDEST JUMPDEST POP SWAP3 POP SWAP3 SWAP1 POP JUMP JUMPDEST PUSH1 0x0 DUP3 DUP3 MSTORE PUSH1 0x20 DUP3 ADD SWAP1 POP SWAP3 SWAP2 POP POP JUMP JUMPDEST PUSH1 0x0 PUSH2 0x3EAB DUP4 DUP6 PUSH2 0x3E8E JUMP JUMPDEST SWAP4 POP PUSH2 0x3EB8 DUP4 DUP6 DUP5 PUSH2 0x330F JUMP JUMPDEST PUSH2 0x3EC1 DUP4 PUSH2 0x3252 JUMP JUMPDEST DUP5 ADD SWAP1 POP SWAP4 SWAP3 POP POP POP JUMP JUMPDEST PUSH1 0x0 PUSH1 0x20 DUP3 ADD SWAP1 POP DUP2 DUP2 SUB PUSH1 0x0 DUP4 ADD MSTORE PUSH2 0x3EE7 DUP2 DUP5 DUP7 PUSH2 0x3E9F JUMP JUMPDEST SWAP1 POP SWAP4 SWAP3 POP POP POP JUMP JUMPDEST PUSH32 0x4F666665722063616E63656C6C65640000000000000000000000000000000000 PUSH1 0x0 DUP3 ADD MSTORE POP JUMP JUMPDEST PUSH1 0x0 PUSH2 0x3F26 PUSH1 0xF DUP4 PUSH2 0x3862 JUMP JUMPDEST SWAP2 POP PUSH2 0x3F31 DUP3 PUSH2 0x3EF0 JUMP JUMPDEST PUSH1 0x20 DUP3 ADD SWAP1 POP SWAP2 SWAP1 POP JUMP JUMPDEST PUSH1 0x0 PUSH1 0x20 DUP3 ADD SWAP1 POP DUP2 DUP2 SUB PUSH1 0x0 DUP4 ADD MSTORE PUSH2 0x3F55 DUP2 PUSH2 0x3F19 JUMP JUMPDEST SWAP1 POP SWAP2 SWAP1 POP JUMP JUMPDEST PUSH32 0x4C697374696E67206964206D69736D6174636800000000000000000000000000 PUSH1 0x0 DUP3 ADD MSTORE POP JUMP JUMPDEST PUSH1 0x0 PUSH2 0x3F92 PUSH1 0x13 DUP4 PUSH2 0x3862 JUMP JUMPDEST SWAP2 POP PUSH2 0x3F9D DUP3 PUSH2 0x3F5C JUMP JUMPDEST PUSH1 0x20 DUP3 ADD SWAP1 POP SWAP2 SWAP1 POP JUMP JUMPDEST PUSH1 0x0 PUSH1 0x20 DUP3 ADD SWAP1 POP DUP2 DUP2 SUB PUSH1 0x0 DUP4 ADD MSTORE PUSH2 0x3FC1 DUP2 PUSH2 0x3F85 JUMP JUMPDEST SWAP1 POP SWAP2 SWAP1 POP JUMP JUMPDEST PUSH1 0x0 DUP1 REVERT JUMPDEST PUSH1 0x0 DUP1 REVERT JUMPDEST PUSH1 0x0 PUSH8 0xFFFFFFFFFFFFFFFF DUP3 GT ISZERO PUSH2 0x3FED JUMPI PUSH2 0x3FEC PUSH2 0x3263 JUMP JUMPDEST JUMPDEST PUSH2 0x3FF6 DUP3 PUSH2 0x3252 JUMP JUMPDEST SWAP1 POP PUSH1 0x20 DUP2 ADD SWAP1 POP SWAP2 SWAP1 POP JUMP JUMPDEST PUSH1 0x0 PUSH2 0x4016 PUSH2 0x4011 DUP5 PUSH2 0x3FD2 JUMP JUMPDEST PUSH2 0x32C3 JUMP JUMPDEST SWAP1 POP DUP3 DUP2 MSTORE PUSH1 0x20 DUP2 ADD DUP5 DUP5 DUP5 ADD GT ISZERO PUSH2 0x4032 JUMPI PUSH2 0x4031 PUSH2 0x324D JUMP JUMPDEST JUMPDEST PUSH2 0x403D DUP5 DUP3 DUP6 PUSH2 0x330F JUMP JUMPDEST POP SWAP4 SWAP3 POP POP POP JUMP JUMPDEST PUSH1 0x0 DUP3 PUSH1 0x1F DUP4 ADD SLT PUSH2 0x405A JUMPI PUSH2 0x4059 PUSH2 0x3248 JUMP JUMPDEST JUMPDEST DUP2 CALLDATALOAD PUSH2 0x406A DUP5 DUP3 PUSH1 0x20 DUP7 ADD PUSH2 0x4003 JUMP JUMPDEST SWAP2 POP POP SWAP3 SWAP2 POP POP JUMP JUMPDEST PUSH1 0x0 PUSH1 0xC0 DUP3 DUP5 SUB SLT ISZERO PUSH2 0x4089 JUMPI PUSH2 0x4088 PUSH2 0x3FC8 JUMP JUMPDEST JUMPDEST PUSH2 0x4093 PUSH1 0xC0 PUSH2 0x32C3 JUMP JUMPDEST SWAP1 POP PUSH1 0x0 PUSH2 0x40A3 DUP5 DUP3 DUP6 ADD PUSH2 0x2E64 JUMP JUMPDEST PUSH1 0x0 DUP4 ADD MSTORE POP PUSH1 0x20 PUSH2 0x40B7 DUP5 DUP3 DUP6 ADD PUSH2 0x2E9A JUMP JUMPDEST PUSH1 0x20 DUP4 ADD MSTORE POP PUSH1 0x40 DUP3 ADD CALLDATALOAD PUSH8 0xFFFFFFFFFFFFFFFF DUP2 GT ISZERO PUSH2 0x40DB JUMPI PUSH2 0x40DA PUSH2 0x3FCD JUMP JUMPDEST JUMPDEST PUSH2 0x40E7 DUP5 DUP3 DUP6 ADD PUSH2 0x4045 JUMP JUMPDEST PUSH1 0x40 DUP4 ADD MSTORE POP PUSH1 0x60 PUSH2 0x40FB DUP5 DUP3 DUP6 ADD PUSH2 0x2E9A JUMP JUMPDEST PUSH1 0x60 DUP4 ADD MSTORE POP PUSH1 0x80 PUSH2 0x410F DUP5 DUP3 DUP6 ADD PUSH2 0x2E9A JUMP JUMPDEST PUSH1 0x80 DUP4 ADD MSTORE POP PUSH1 0xA0 PUSH2 0x4123 DUP5 DUP3 DUP6 ADD PUSH2 0x2E64 JUMP JUMPDEST PUSH1 0xA0 DUP4 ADD MSTORE POP SWAP3 SWAP2 POP POP JUMP JUMPDEST PUSH1 0x0 PUSH2 0x413B CALLDATASIZE DUP4 PUSH2 0x4073 JUMP JUMPDEST SWAP1 POP SWAP2 SWAP1 POP JUMP JUMPDEST PUSH1 0x0 PUSH1 0xE0 DUP3 DUP5 SUB SLT ISZERO PUSH2 0x4158 JUMPI PUSH2 0x4157 PUSH2 0x3FC8 JUMP JUMPDEST JUMPDEST PUSH2 0x4162 PUSH1 0xE0 PUSH2 0x32C3 JUMP JUMPDEST SWAP1 POP PUSH1 0x0 PUSH2 0x4172 DUP5 DUP3 DUP6 ADD PUSH2 0x2E9A JUMP JUMPDEST PUSH1 0x0 DUP4 ADD MSTORE POP PUSH1 0x20 PUSH2 0x4186 DUP5 DUP3 DUP6 ADD PUSH2 0x2E9A JUMP JUMPDEST PUSH1 0x20 DUP4 ADD MSTORE POP PUSH1 0x40 PUSH2 0x419A DUP5 DUP3 DUP6 ADD PUSH2 0x2E9A JUMP JUMPDEST PUSH1 0x40 DUP4 ADD MSTORE POP PUSH1 0x60 PUSH2 0x41AE DUP5 DUP3 DUP6 ADD PUSH2 0x2E64 JUMP JUMPDEST PUSH1 0x60 DUP4 ADD MSTORE POP PUSH1 0x80 PUSH2 0x41C2 DUP5 DUP3 DUP6 ADD PUSH2 0x2E9A JUMP JUMPDEST PUSH1 0x80 DUP4 ADD MSTORE POP PUSH1 0xA0 PUSH2 0x41D6 DUP5 DUP3 DUP6 ADD PUSH2 0x2E9A JUMP JUMPDEST PUSH1 0xA0 DUP4 ADD MSTORE POP PUSH1 0xC0 PUSH2 0x41EA DUP5 DUP3 DUP6 ADD PUSH2 0x2E9A JUMP JUMPDEST PUSH1 0xC0 DUP4 ADD MSTORE POP SWAP3 SWAP2 POP POP JUMP JUMPDEST PUSH1 0x0 PUSH1 0xE0 DUP3 DUP5 SUB SLT ISZERO PUSH2 0x420C JUMPI PUSH2 0x420B PUSH2 0x2DED JUMP JUMPDEST JUMPDEST PUSH1 0x0 PUSH2 0x421A DUP5 DUP3 DUP6 ADD PUSH2 0x4142 JUMP JUMPDEST SWAP2 POP POP SWAP3 SWAP2 POP POP JUMP JUMPDEST PUSH32 0x496E76616C69642053616C652064617461202F2073656C6C6572207369676E61 PUSH1 0x0 DUP3 ADD MSTORE PUSH32 0x747572652070726F766964656400000000000000000000000000000000000000 PUSH1 0x20 DUP3 ADD MSTORE POP JUMP JUMPDEST PUSH1 0x0 PUSH2 0x427F PUSH1 0x2D DUP4 PUSH2 0x3862 JUMP JUMPDEST SWAP2 POP PUSH2 0x428A DUP3 PUSH2 0x4223 JUMP JUMPDEST PUSH1 0x40 DUP3 ADD SWAP1 POP SWAP2 SWAP1 POP JUMP JUMPDEST PUSH1 0x0 PUSH1 0x20 DUP3 ADD SWAP1 POP DUP2 DUP2 SUB PUSH1 0x0 DUP4 ADD MSTORE PUSH2 0x42AE DUP2 PUSH2 0x4272 JUMP JUMPDEST SWAP1 POP SWAP2 SWAP1 POP JUMP JUMPDEST PUSH1 0x0 PUSH1 0x40 DUP3 DUP5 SUB SLT ISZERO PUSH2 0x42CB JUMPI PUSH2 0x42CA PUSH2 0x3FC8 JUMP JUMPDEST JUMPDEST PUSH2 0x42D5 PUSH1 0x40 PUSH2 0x32C3 JUMP JUMPDEST SWAP1 POP PUSH1 0x0 DUP3 ADD CALLDATALOAD PUSH8 0xFFFFFFFFFFFFFFFF DUP2 GT ISZERO PUSH2 0x42F5 JUMPI PUSH2 0x42F4 PUSH2 0x3FCD JUMP JUMPDEST JUMPDEST PUSH2 0x4301 DUP5 DUP3 DUP6 ADD PUSH2 0x3360 JUMP JUMPDEST PUSH1 0x0 DUP4 ADD MSTORE POP PUSH1 0x20 PUSH2 0x4315 DUP5 DUP3 DUP6 ADD PUSH2 0x2E9A JUMP JUMPDEST PUSH1 0x20 DUP4 ADD MSTORE POP SWAP3 SWAP2 POP POP JUMP JUMPDEST PUSH1 0x0 PUSH2 0x432D CALLDATASIZE DUP4 PUSH2 0x42B5 JUMP JUMPDEST SWAP1 POP SWAP2 SWAP1 POP JUMP JUMPDEST PUSH32 0x496E76616C69642061757468207369676E617475726500000000000000000000 PUSH1 0x0 DUP3 ADD MSTORE POP JUMP JUMPDEST PUSH1 0x0 PUSH2 0x436A PUSH1 0x16 DUP4 PUSH2 0x3862 JUMP JUMPDEST SWAP2 POP PUSH2 0x4375 DUP3 PUSH2 0x4334 JUMP JUMPDEST PUSH1 0x20 DUP3 ADD SWAP1 POP SWAP2 SWAP1 POP JUMP JUMPDEST PUSH1 0x0 PUSH1 0x20 DUP3 ADD SWAP1 POP DUP2 DUP2 SUB PUSH1 0x0 DUP4 ADD MSTORE PUSH2 0x4399 DUP2 PUSH2 0x435D JUMP JUMPDEST SWAP1 POP SWAP2 SWAP1 POP JUMP JUMPDEST PUSH1 0x0 PUSH1 0x80 DUP3 DUP5 SUB SLT ISZERO PUSH2 0x43B6 JUMPI PUSH2 0x43B5 PUSH2 0x3FC8 JUMP JUMPDEST JUMPDEST PUSH2 0x43C0 PUSH1 0x80 PUSH2 0x32C3 JUMP JUMPDEST SWAP1 POP PUSH1 0x0 PUSH2 0x43D0 DUP5 DUP3 DUP6 ADD PUSH2 0x2E64 JUMP JUMPDEST PUSH1 0x0 DUP4 ADD MSTORE POP PUSH1 0x20 PUSH2 0x43E4 DUP5 DUP3 DUP6 ADD PUSH2 0x2E9A JUMP JUMPDEST PUSH1 0x20 DUP4 ADD MSTORE POP PUSH1 0x40 PUSH2 0x43F8 DUP5 DUP3 DUP6 ADD PUSH2 0x2E9A JUMP JUMPDEST PUSH1 0x40 DUP4 ADD MSTORE POP PUSH1 0x60 PUSH2 0x440C DUP5 DUP3 DUP6 ADD PUSH2 0x2E9A JUMP JUMPDEST PUSH1 0x60 DUP4 ADD MSTORE POP SWAP3 SWAP2 POP POP JUMP JUMPDEST PUSH1 0x0 PUSH1 0x80 DUP3 DUP5 SUB SLT ISZERO PUSH2 0x442E JUMPI PUSH2 0x442D PUSH2 0x2DED JUMP JUMPDEST JUMPDEST PUSH1 0x0 PUSH2 0x443C DUP5 DUP3 DUP6 ADD PUSH2 0x43A0 JUMP JUMPDEST SWAP2 POP POP SWAP3 SWAP2 POP POP JUMP JUMPDEST PUSH32 0x496E76616C6964204F666665722064617461202F206F66666572657220736967 PUSH1 0x0 DUP3 ADD MSTORE PUSH32 0x6E61747572652070726F76696465640000000000000000000000000000000000 PUSH1 0x20 DUP3 ADD MSTORE POP JUMP JUMPDEST PUSH1 0x0 PUSH2 0x44A1 PUSH1 0x2F DUP4 PUSH2 0x3862 JUMP JUMPDEST SWAP2 POP PUSH2 0x44AC DUP3 PUSH2 0x4445 JUMP JUMPDEST PUSH1 0x40 DUP3 ADD SWAP1 POP SWAP2 SWAP1 POP JUMP JUMPDEST PUSH1 0x0 PUSH1 0x20 DUP3 ADD SWAP1 POP DUP2 DUP2 SUB PUSH1 0x0 DUP4 ADD MSTORE PUSH2 0x44D0 DUP2 PUSH2 0x4494 JUMP JUMPDEST SWAP1 POP SWAP2 SWAP1 POP JUMP JUMPDEST PUSH32 0x496E76616C6964206269642061757468207369676E6174757265000000000000 PUSH1 0x0 DUP3 ADD MSTORE POP JUMP JUMPDEST PUSH1 0x0 PUSH2 0x450D PUSH1 0x1A DUP4 PUSH2 0x3862 JUMP JUMPDEST SWAP2 POP PUSH2 0x4518 DUP3 PUSH2 0x44D7 JUMP JUMPDEST PUSH1 0x20 DUP3 ADD SWAP1 POP SWAP2 SWAP1 POP JUMP JUMPDEST PUSH1 0x0 PUSH1 0x20 DUP3 ADD SWAP1 POP DUP2 DUP2 SUB PUSH1 0x0 DUP4 ADD MSTORE PUSH2 0x453C DUP2 PUSH2 0x4500 JUMP JUMPDEST SWAP1 POP SWAP2 SWAP1 POP JUMP JUMPDEST PUSH1 0x0 PUSH2 0x100 DUP3 DUP5 SUB SLT ISZERO PUSH2 0x455A JUMPI PUSH2 0x4559 PUSH2 0x3FC8 JUMP JUMPDEST JUMPDEST PUSH2 0x4565 PUSH2 0x100 PUSH2 0x32C3 JUMP JUMPDEST SWAP1 POP PUSH1 0x0 PUSH2 0x4575 DUP5 DUP3 DUP6 ADD PUSH2 0x2E9A JUMP JUMPDEST PUSH1 0x0 DUP4 ADD MSTORE POP PUSH1 0x20 PUSH2 0x4589 DUP5 DUP3 DUP6 ADD PUSH2 0x2E9A JUMP JUMPDEST PUSH1 0x20 DUP4 ADD MSTORE POP PUSH1 0x40 PUSH2 0x459D DUP5 DUP3 DUP6 ADD PUSH2 0x2E9A JUMP JUMPDEST PUSH1 0x40 DUP4 ADD MSTORE POP PUSH1 0x60 PUSH2 0x45B1 DUP5 DUP3 DUP6 ADD PUSH2 0x2E64 JUMP JUMPDEST PUSH1 0x60 DUP4 ADD MSTORE POP PUSH1 0x80 PUSH2 0x45C5 DUP5 DUP3 DUP6 ADD PUSH2 0x2E9A JUMP JUMPDEST PUSH1 0x80 DUP4 ADD MSTORE POP PUSH1 0xA0 PUSH2 0x45D9 DUP5 DUP3 DUP6 ADD PUSH2 0x2E9A JUMP JUMPDEST PUSH1 0xA0 DUP4 ADD MSTORE POP PUSH1 0xC0 PUSH2 0x45ED DUP5 DUP3 DUP6 ADD PUSH2 0x2E9A JUMP JUMPDEST PUSH1 0xC0 DUP4 ADD MSTORE POP PUSH1 0xE0 PUSH2 0x4601 DUP5 DUP3 DUP6 ADD PUSH2 0x2E9A JUMP JUMPDEST PUSH1 0xE0 DUP4 ADD MSTORE POP SWAP3 SWAP2 POP POP JUMP JUMPDEST PUSH1 0x0 PUSH2 0x100 DUP3 DUP5 SUB SLT ISZERO PUSH2 0x4624 JUMPI PUSH2 0x4623 PUSH2 0x2DED JUMP JUMPDEST JUMPDEST PUSH1 0x0 PUSH2 0x4632 DUP5 DUP3 DUP6 ADD PUSH2 0x4543 JUMP JUMPDEST SWAP2 POP POP SWAP3 SWAP2 POP POP JUMP JUMPDEST PUSH32 0x496E76616C69642041756374696F6E2064617461202F2073656C6C6572207369 PUSH1 0x0 DUP3 ADD MSTORE PUSH32 0x676E61747572652070726F766964656400000000000000000000000000000000 PUSH1 0x20 DUP3 ADD MSTORE POP JUMP JUMPDEST PUSH1 0x0 PUSH2 0x4697 PUSH1 0x30 DUP4 PUSH2 0x3862 JUMP JUMPDEST SWAP2 POP PUSH2 0x46A2 DUP3 PUSH2 0x463B JUMP JUMPDEST PUSH1 0x40 DUP3 ADD SWAP1 POP SWAP2 SWAP1 POP JUMP JUMPDEST PUSH1 0x0 PUSH1 0x20 DUP3 ADD SWAP1 POP DUP2 DUP2 SUB PUSH1 0x0 DUP4 ADD MSTORE PUSH2 0x46C6 DUP2 PUSH2 0x468A JUMP JUMPDEST SWAP1 POP SWAP2 SWAP1 POP JUMP JUMPDEST PUSH32 0x496E76616C69642061756374696F6E2061757468207369676E61747572650000 PUSH1 0x0 DUP3 ADD MSTORE POP JUMP JUMPDEST PUSH1 0x0 PUSH2 0x4703 PUSH1 0x1E DUP4 PUSH2 0x3862 JUMP JUMPDEST SWAP2 POP PUSH2 0x470E DUP3 PUSH2 0x46CD JUMP JUMPDEST PUSH1 0x20 DUP3 ADD SWAP1 POP SWAP2 SWAP1 POP JUMP JUMPDEST PUSH1 0x0 PUSH1 0x20 DUP3 ADD SWAP1 POP DUP2 DUP2 SUB PUSH1 0x0 DUP4 ADD MSTORE PUSH2 0x4732 DUP2 PUSH2 0x46F6 JUMP JUMPDEST SWAP1 POP SWAP2 SWAP1 POP JUMP JUMPDEST PUSH1 0x0 PUSH1 0x60 DUP3 DUP5 SUB SLT ISZERO PUSH2 0x474F JUMPI PUSH2 0x474E PUSH2 0x3FC8 JUMP JUMPDEST JUMPDEST PUSH2 0x4759 PUSH1 0x60 PUSH2 0x32C3 JUMP JUMPDEST SWAP1 POP PUSH1 0x0 PUSH2 0x4769 DUP5 DUP3 DUP6 ADD PUSH2 0x2E64 JUMP JUMPDEST PUSH1 0x0 DUP4 ADD MSTORE POP PUSH1 0x20 PUSH2 0x477D DUP5 DUP3 DUP6 ADD PUSH2 0x2E9A JUMP JUMPDEST PUSH1 0x20 DUP4 ADD MSTORE POP PUSH1 0x40 PUSH2 0x4791 DUP5 DUP3 DUP6 ADD PUSH2 0x2E9A JUMP JUMPDEST PUSH1 0x40 DUP4 ADD MSTORE POP SWAP3 SWAP2 POP POP JUMP JUMPDEST PUSH1 0x0 PUSH1 0x60 DUP3 DUP5 SUB SLT ISZERO PUSH2 0x47B3 JUMPI PUSH2 0x47B2 PUSH2 0x2DED JUMP JUMPDEST JUMPDEST PUSH1 0x0 PUSH2 0x47C1 DUP5 DUP3 DUP6 ADD PUSH2 0x4739 JUMP JUMPDEST SWAP2 POP POP SWAP3 SWAP2 POP POP JUMP JUMPDEST PUSH32 0x496E76616C696420626964207369676E61747572650000000000000000000000 PUSH1 0x0 DUP3 ADD MSTORE POP JUMP JUMPDEST PUSH1 0x0 PUSH2 0x4800 PUSH1 0x15 DUP4 PUSH2 0x3862 JUMP JUMPDEST SWAP2 POP PUSH2 0x480B DUP3 PUSH2 0x47CA JUMP JUMPDEST PUSH1 0x20 DUP3 ADD SWAP1 POP SWAP2 SWAP1 POP JUMP JUMPDEST PUSH1 0x0 PUSH1 0x20 DUP3 ADD SWAP1 POP DUP2 DUP2 SUB PUSH1 0x0 DUP4 ADD MSTORE PUSH2 0x482F DUP2 PUSH2 0x47F3 JUMP JUMPDEST SWAP1 POP SWAP2 SWAP1 POP JUMP JUMPDEST PUSH1 0x0 JUMPDEST DUP4 DUP2 LT ISZERO PUSH2 0x4854 JUMPI DUP1 DUP3 ADD MLOAD DUP2 DUP5 ADD MSTORE PUSH1 0x20 DUP2 ADD SWAP1 POP PUSH2 0x4839 JUMP JUMPDEST DUP4 DUP2 GT ISZERO PUSH2 0x4863 JUMPI PUSH1 0x0 DUP5 DUP5 ADD MSTORE JUMPDEST POP POP POP POP JUMP JUMPDEST PUSH1 0x0 PUSH2 0x487C PUSH2 0x4877 DUP5 PUSH2 0x32DE JUMP JUMPDEST PUSH2 0x32C3 JUMP JUMPDEST SWAP1 POP DUP3 DUP2 MSTORE PUSH1 0x20 DUP2 ADD DUP5 DUP5 DUP5 ADD GT ISZERO PUSH2 0x4898 JUMPI PUSH2 0x4897 PUSH2 0x324D JUMP JUMPDEST JUMPDEST PUSH2 0x48A3 DUP5 DUP3 DUP6 PUSH2 0x4836 JUMP JUMPDEST POP SWAP4 SWAP3 POP POP POP JUMP JUMPDEST PUSH1 0x0 DUP3 PUSH1 0x1F DUP4 ADD SLT PUSH2 0x48C0 JUMPI PUSH2 0x48BF PUSH2 0x3248 JUMP JUMPDEST JUMPDEST DUP2 MLOAD PUSH2 0x48D0 DUP5 DUP3 PUSH1 0x20 DUP7 ADD PUSH2 0x4869 JUMP JUMPDEST SWAP2 POP POP SWAP3 SWAP2 POP POP JUMP JUMPDEST PUSH1 0x0 PUSH1 0x20 DUP3 DUP5 SUB SLT ISZERO PUSH2 0x48EF JUMPI PUSH2 0x48EE PUSH2 0x2DED JUMP JUMPDEST JUMPDEST PUSH1 0x0 DUP3 ADD MLOAD PUSH8 0xFFFFFFFFFFFFFFFF DUP2 GT ISZERO PUSH2 0x490D JUMPI PUSH2 0x490C PUSH2 0x2DF2 JUMP JUMPDEST JUMPDEST PUSH2 0x4919 DUP5 DUP3 DUP6 ADD PUSH2 0x48AB JUMP JUMPDEST SWAP2 POP POP SWAP3 SWAP2 POP POP JUMP JUMPDEST PUSH1 0x0 DUP2 SWAP1 POP SWAP3 SWAP2 POP POP JUMP JUMPDEST PUSH1 0x0 PUSH2 0x4939 DUP4 DUP6 PUSH2 0x4922 JUMP JUMPDEST SWAP4 POP PUSH2 0x4946 DUP4 DUP6 DUP5 PUSH2 0x330F JUMP JUMPDEST DUP3 DUP5 ADD SWAP1 POP SWAP4 SWAP3 POP POP POP JUMP JUMPDEST PUSH1 0x0 PUSH2 0x495F DUP3 DUP5 DUP7 PUSH2 0x492D JUMP JUMPDEST SWAP2 POP DUP2 SWAP1 POP SWAP4 SWAP3 POP POP POP JUMP JUMPDEST PUSH32 0x4E6674207369676E61747572652074616D706572656400000000000000000000 PUSH1 0x0 DUP3 ADD MSTORE POP JUMP JUMPDEST PUSH1 0x0 PUSH2 0x49A1 PUSH1 0x16 DUP4 PUSH2 0x3862 JUMP JUMPDEST SWAP2 POP PUSH2 0x49AC DUP3 PUSH2 0x496B JUMP JUMPDEST PUSH1 0x20 DUP3 ADD SWAP1 POP SWAP2 SWAP1 POP JUMP JUMPDEST PUSH1 0x0 PUSH1 0x20 DUP3 ADD SWAP1 POP DUP2 DUP2 SUB PUSH1 0x0 DUP4 ADD MSTORE PUSH2 0x49D0 DUP2 PUSH2 0x4994 JUMP JUMPDEST SWAP1 POP SWAP2 SWAP1 POP JUMP JUMPDEST POP JUMP JUMPDEST PUSH1 0x0 PUSH2 0x49E7 PUSH1 0x0 DUP4 PUSH2 0x3E8E JUMP JUMPDEST SWAP2 POP PUSH2 0x49F2 DUP3 PUSH2 0x49D7 JUMP JUMPDEST PUSH1 0x0 DUP3 ADD SWAP1 POP SWAP2 SWAP1 POP JUMP JUMPDEST PUSH1 0x0 PUSH1 0xA0 DUP3 ADD SWAP1 POP PUSH2 0x4A12 PUSH1 0x0 DUP4 ADD DUP8 PUSH2 0x37A8 JUMP JUMPDEST PUSH2 0x4A1F PUSH1 0x20 DUP4 ADD DUP7 PUSH2 0x37A8 JUMP JUMPDEST PUSH2 0x4A2C PUSH1 0x40 DUP4 ADD DUP6 PUSH2 0x37B7 JUMP JUMPDEST PUSH2 0x4A39 PUSH1 0x60 DUP4 ADD DUP5 PUSH2 0x37B7 JUMP JUMPDEST DUP2 DUP2 SUB PUSH1 0x80 DUP4 ADD MSTORE PUSH2 0x4A4A DUP2 PUSH2 0x49DA JUMP JUMPDEST SWAP1 POP SWAP6 SWAP5 POP POP POP POP POP JUMP JUMPDEST PUSH1 0x0 PUSH1 0x40 DUP3 ADD SWAP1 POP PUSH2 0x4A6A PUSH1 0x0 DUP4 ADD DUP6 PUSH2 0x37A8 JUMP JUMPDEST PUSH2 0x4A77 PUSH1 0x20 DUP4 ADD DUP5 PUSH2 0x37B7 JUMP JUMPDEST SWAP4 SWAP3 POP POP POP JUMP JUMPDEST PUSH32 0x496E73756666696369656E7420616D6F756E74206F6620746F6B656E73000000 PUSH1 0x0 DUP3 ADD MSTORE POP JUMP JUMPDEST PUSH1 0x0 PUSH2 0x4AB4 PUSH1 0x1D DUP4 PUSH2 0x3862 JUMP JUMPDEST SWAP2 POP PUSH2 0x4ABF DUP3 PUSH2 0x4A7E JUMP JUMPDEST PUSH1 0x20 DUP3 ADD SWAP1 POP SWAP2 SWAP1 POP JUMP JUMPDEST PUSH1 0x0 PUSH1 0x20 DUP3 ADD SWAP1 POP DUP2 DUP2 SUB PUSH1 0x0 DUP4 ADD MSTORE PUSH2 0x4AE3 DUP2 PUSH2 0x4AA7 JUMP JUMPDEST SWAP1 POP SWAP2 SWAP1 POP JUMP JUMPDEST PUSH1 0x0 DUP1 DUP4 CALLDATALOAD PUSH1 0x1 PUSH1 0x20 SUB DUP5 CALLDATASIZE SUB SUB DUP2 SLT PUSH2 0x4B07 JUMPI PUSH2 0x4B06 PUSH2 0x3C1C JUMP JUMPDEST JUMPDEST DUP1 DUP5 ADD SWAP3 POP DUP3 CALLDATALOAD SWAP2 POP PUSH8 0xFFFFFFFFFFFFFFFF DUP3 GT ISZERO PUSH2 0x4B29 JUMPI PUSH2 0x4B28 PUSH2 0x3C21 JUMP JUMPDEST JUMPDEST PUSH1 0x20 DUP4 ADD SWAP3 POP PUSH1 0x1 DUP3 MUL CALLDATASIZE SUB DUP4 SGT ISZERO PUSH2 0x4B45 JUMPI PUSH2 0x4B44 PUSH2 0x3C26 JUMP JUMPDEST JUMPDEST POP SWAP3 POP SWAP3 SWAP1 POP JUMP JUMPDEST PUSH1 0x0 PUSH2 0x4B59 DUP4 DUP6 PUSH2 0x3862 JUMP JUMPDEST SWAP4 POP PUSH2 0x4B66 DUP4 DUP6 DUP5 PUSH2 0x330F JUMP JUMPDEST PUSH2 0x4B6F DUP4 PUSH2 0x3252 JUMP JUMPDEST DUP5 ADD SWAP1 POP SWAP4 SWAP3 POP POP POP JUMP JUMPDEST PUSH1 0x0 PUSH1 0xA0 DUP3 ADD SWAP1 POP PUSH2 0x4B8F PUSH1 0x0 DUP4 ADD DUP11 PUSH2 0x37A8 JUMP JUMPDEST PUSH2 0x4B9C PUSH1 0x20 DUP4 ADD DUP10 PUSH2 0x37B7 JUMP JUMPDEST PUSH2 0x4BA9 PUSH1 0x40 DUP4 ADD DUP9 PUSH2 0x37B7 JUMP JUMPDEST DUP2 DUP2 SUB PUSH1 0x60 DUP4 ADD MSTORE PUSH2 0x4BBC DUP2 DUP7 DUP9 PUSH2 0x3E9F JUMP JUMPDEST SWAP1 POP DUP2 DUP2 SUB PUSH1 0x80 DUP4 ADD MSTORE PUSH2 0x4BD1 DUP2 DUP5 DUP7 PUSH2 0x4B4D JUMP JUMPDEST SWAP1 POP SWAP9 SWAP8 POP POP POP POP POP POP POP POP JUMP JUMPDEST PUSH2 0x4BE8 DUP2 PUSH2 0x3212 JUMP JUMPDEST DUP3 MSTORE POP POP JUMP JUMPDEST PUSH2 0x4BF7 DUP2 PUSH2 0x346C JUMP JUMPDEST DUP3 MSTORE POP POP JUMP JUMPDEST PUSH1 0x0 PUSH1 0x80 DUP3 ADD SWAP1 POP PUSH2 0x4C12 PUSH1 0x0 DUP4 ADD DUP8 PUSH2 0x4BDF JUMP JUMPDEST PUSH2 0x4C1F PUSH1 0x20 DUP4 ADD DUP7 PUSH2 0x4BEE JUMP JUMPDEST PUSH2 0x4C2C PUSH1 0x40 DUP4 ADD DUP6 PUSH2 0x4BDF JUMP JUMPDEST PUSH2 0x4C39 PUSH1 0x60 DUP4 ADD DUP5 PUSH2 0x4BDF JUMP JUMPDEST SWAP6 SWAP5 POP POP POP POP POP JUMP JUMPDEST PUSH32 0x696E76616C6964207369676E6174757265206C656E6774680000000000000000 PUSH1 0x0 DUP3 ADD MSTORE POP JUMP JUMPDEST PUSH1 0x0 PUSH2 0x4C78 PUSH1 0x18 DUP4 PUSH2 0x3862 JUMP JUMPDEST SWAP2 POP PUSH2 0x4C83 DUP3 PUSH2 0x4C42 JUMP JUMPDEST PUSH1 0x20 DUP3 ADD SWAP1 POP SWAP2 SWAP1 POP JUMP JUMPDEST PUSH1 0x0 PUSH1 0x20 DUP3 ADD SWAP1 POP DUP2 DUP2 SUB PUSH1 0x0 DUP4 ADD MSTORE PUSH2 0x4CA7 DUP2 PUSH2 0x4C6B JUMP JUMPDEST SWAP1 POP SWAP2 SWAP1 POP JUMP JUMPDEST PUSH32 0x537570706C79206F766572666C6F770000000000000000000000000000000000 PUSH1 0x0 DUP3 ADD MSTORE POP JUMP JUMPDEST PUSH1 0x0 PUSH2 0x4CE4 PUSH1 0xF DUP4 PUSH2 0x3862 JUMP JUMPDEST SWAP2 POP PUSH2 0x4CEF DUP3 PUSH2 0x4CAE JUMP JUMPDEST PUSH1 0x20 DUP3 ADD SWAP1 POP SWAP2 SWAP1 POP JUMP JUMPDEST PUSH1 0x0 PUSH1 0x20 DUP3 ADD SWAP1 POP DUP2 DUP2 SUB PUSH1 0x0 DUP4 ADD MSTORE PUSH2 0x4D13 DUP2 PUSH2 0x4CD7 JUMP JUMPDEST SWAP1 POP SWAP2 SWAP1 POP JUMP JUMPDEST PUSH32 0x496E76616C6964206D696E742064617461202F207369676E6174757265207072 PUSH1 0x0 DUP3 ADD MSTORE PUSH32 0x6F76696465640000000000000000000000000000000000000000000000000000 PUSH1 0x20 DUP3 ADD MSTORE POP JUMP JUMPDEST PUSH1 0x0 PUSH2 0x4D76 PUSH1 0x26 DUP4 PUSH2 0x3862 JUMP JUMPDEST SWAP2 POP PUSH2 0x4D81 DUP3 PUSH2 0x4D1A JUMP JUMPDEST PUSH1 0x40 DUP3 ADD SWAP1 POP SWAP2 SWAP1 POP JUMP JUMPDEST PUSH1 0x0 PUSH1 0x20 DUP3 ADD SWAP1 POP DUP2 DUP2 SUB PUSH1 0x0 DUP4 ADD MSTORE PUSH2 0x4DA5 DUP2 PUSH2 0x4D69 JUMP JUMPDEST SWAP1 POP SWAP2 SWAP1 POP JUMP JUMPDEST PUSH32 0x496E76616C6964206E66742064617461202F207369676E617475726500000000 PUSH1 0x0 DUP3 ADD MSTORE POP JUMP JUMPDEST PUSH1 0x0 PUSH2 0x4DE2 PUSH1 0x1C DUP4 PUSH2 0x3862 JUMP JUMPDEST SWAP2 POP PUSH2 0x4DED DUP3 PUSH2 0x4DAC JUMP JUMPDEST PUSH1 0x20 DUP3 ADD SWAP1 POP SWAP2 SWAP1 POP JUMP JUMPDEST PUSH1 0x0 PUSH1 0x20 DUP3 ADD SWAP1 POP DUP2 DUP2 SUB PUSH1 0x0 DUP4 ADD MSTORE PUSH2 0x4E11 DUP2 PUSH2 0x4DD5 JUMP JUMPDEST SWAP1 POP SWAP2 SWAP1 POP JUMP JUMPDEST PUSH32 0x41756374696F6E206861736E277420656E646564207965740000000000000000 PUSH1 0x0 DUP3 ADD MSTORE POP JUMP JUMPDEST PUSH1 0x0 PUSH2 0x4E4E PUSH1 0x18 DUP4 PUSH2 0x3862 JUMP JUMPDEST SWAP2 POP PUSH2 0x4E59 DUP3 PUSH2 0x4E18 JUMP JUMPDEST PUSH1 0x20 DUP3 ADD SWAP1 POP SWAP2 SWAP1 POP JUMP JUMPDEST PUSH1 0x0 PUSH1 0x20 DUP3 ADD SWAP1 POP DUP2 DUP2 SUB PUSH1 0x0 DUP4 ADD MSTORE PUSH2 0x4E7D DUP2 PUSH2 0x4E41 JUMP JUMPDEST SWAP1 POP SWAP2 SWAP1 POP JUMP JUMPDEST PUSH32 0x536574746C696E6720706572696F64206861736E277420656E64656420796574 PUSH1 0x0 DUP3 ADD MSTORE POP JUMP JUMPDEST PUSH1 0x0 PUSH2 0x4EBA PUSH1 0x20 DUP4 PUSH2 0x3862 JUMP JUMPDEST SWAP2 POP PUSH2 0x4EC5 DUP3 PUSH2 0x4E84 JUMP JUMPDEST PUSH1 0x20 DUP3 ADD SWAP1 POP SWAP2 SWAP1 POP JUMP JUMPDEST PUSH1 0x0 PUSH1 0x20 DUP3 ADD SWAP1 POP DUP2 DUP2 SUB PUSH1 0x0 DUP4 ADD MSTORE PUSH2 0x4EE9 DUP2 PUSH2 0x4EAD JUMP JUMPDEST SWAP1 POP SWAP2 SWAP1 POP JUMP JUMPDEST PUSH32 0x41756374696F6E20657870697265640000000000000000000000000000000000 PUSH1 0x0 DUP3 ADD MSTORE POP JUMP JUMPDEST PUSH1 0x0 PUSH2 0x4F26 PUSH1 0xF DUP4 PUSH2 0x3862 JUMP JUMPDEST SWAP2 POP PUSH2 0x4F31 DUP3 PUSH2 0x4EF0 JUMP JUMPDEST PUSH1 0x20 DUP3 ADD SWAP1 POP SWAP2 SWAP1 POP JUMP JUMPDEST PUSH1 0x0 PUSH1 0x20 DUP3 ADD SWAP1 POP DUP2 DUP2 SUB PUSH1 0x0 DUP4 ADD MSTORE PUSH2 0x4F55 DUP2 PUSH2 0x4F19 JUMP JUMPDEST SWAP1 POP SWAP2 SWAP1 POP JUMP JUMPDEST PUSH32 0x52657365727665206E6F74206D65740000000000000000000000000000000000 PUSH1 0x0 DUP3 ADD MSTORE POP JUMP JUMPDEST PUSH1 0x0 PUSH2 0x4F92 PUSH1 0xF DUP4 PUSH2 0x3862 JUMP JUMPDEST SWAP2 POP PUSH2 0x4F9D DUP3 PUSH2 0x4F5C JUMP JUMPDEST PUSH1 0x20 DUP3 ADD SWAP1 POP SWAP2 SWAP1 POP JUMP JUMPDEST PUSH1 0x0 PUSH1 0x20 DUP3 ADD SWAP1 POP DUP2 DUP2 SUB PUSH1 0x0 DUP4 ADD MSTORE PUSH2 0x4FC1 DUP2 PUSH2 0x4F85 JUMP JUMPDEST SWAP1 POP SWAP2 SWAP1 POP JUMP JUMPDEST PUSH1 0x0 DUP2 SWAP1 POP SWAP3 SWAP2 POP POP JUMP JUMPDEST PUSH32 0x19457468657265756D205369676E6564204D6573736167653A0A333200000000 PUSH1 0x0 DUP3 ADD MSTORE POP JUMP JUMPDEST PUSH1 0x0 PUSH2 0x5009 PUSH1 0x1C DUP4 PUSH2 0x4FC8 JUMP JUMPDEST SWAP2 POP PUSH2 0x5014 DUP3 PUSH2 0x4FD3 JUMP JUMPDEST PUSH1 0x1C DUP3 ADD SWAP1 POP SWAP2 SWAP1 POP JUMP JUMPDEST PUSH1 0x0 DUP2 SWAP1 POP SWAP2 SWAP1 POP JUMP JUMPDEST PUSH2 0x503A PUSH2 0x5035 DUP3 PUSH2 0x3212 JUMP JUMPDEST PUSH2 0x501F JUMP JUMPDEST DUP3 MSTORE POP POP JUMP JUMPDEST PUSH1 0x0 PUSH2 0x504B DUP3 PUSH2 0x4FFC JUMP JUMPDEST SWAP2 POP PUSH2 0x5057 DUP3 DUP5 PUSH2 0x5029 JUMP JUMPDEST PUSH1 0x20 DUP3 ADD SWAP2 POP DUP2 SWAP1 POP SWAP3 SWAP2 POP POP JUMP JUMPDEST PUSH1 0x0 DUP2 PUSH1 0x60 SHL SWAP1 POP SWAP2 SWAP1 POP JUMP JUMPDEST PUSH1 0x0 PUSH2 0x507E DUP3 PUSH2 0x5066 JUMP JUMPDEST SWAP1 POP SWAP2 SWAP1 POP JUMP JUMPDEST PUSH1 0x0 PUSH2 0x5090 DUP3 PUSH2 0x5073 JUMP JUMPDEST SWAP1 POP SWAP2 SWAP1 POP JUMP JUMPDEST PUSH2 0x50A8 PUSH2 0x50A3 DUP3 PUSH2 0x2E3B JUMP JUMPDEST PUSH2 0x5085 JUMP JUMPDEST DUP3 MSTORE POP POP JUMP JUMPDEST PUSH1 0x0 DUP2 SWAP1 POP SWAP2 SWAP1 POP JUMP JUMPDEST PUSH2 0x50C9 PUSH2 0x50C4 DUP3 PUSH2 0x2E79 JUMP JUMPDEST PUSH2 0x50AE JUMP JUMPDEST DUP3 MSTORE POP POP JUMP JUMPDEST PUSH1 0x0 PUSH2 0x50DB DUP3 DUP9 PUSH2 0x5097 JUMP JUMPDEST PUSH1 0x14 DUP3 ADD SWAP2 POP PUSH2 0x50EB DUP3 DUP8 PUSH2 0x50B8 JUMP JUMPDEST PUSH1 0x20 DUP3 ADD SWAP2 POP PUSH2 0x50FB DUP3 DUP7 PUSH2 0x50B8 JUMP JUMPDEST PUSH1 0x20 DUP3 ADD SWAP2 POP PUSH2 0x510B DUP3 DUP6 PUSH2 0x50B8 JUMP JUMPDEST PUSH1 0x20 DUP3 ADD SWAP2 POP PUSH2 0x511B DUP3 DUP5 PUSH2 0x5097 JUMP JUMPDEST PUSH1 0x14 DUP3 ADD SWAP2 POP DUP2 SWAP1 POP SWAP7 SWAP6 POP POP POP POP POP POP JUMP JUMPDEST PUSH1 0x0 PUSH2 0x513A DUP3 DUP11 PUSH2 0x50B8 JUMP JUMPDEST PUSH1 0x20 DUP3 ADD SWAP2 POP PUSH2 0x514A DUP3 DUP10 PUSH2 0x50B8 JUMP JUMPDEST PUSH1 0x20 DUP3 ADD SWAP2 POP PUSH2 0x515A DUP3 DUP9 PUSH2 0x50B8 JUMP JUMPDEST PUSH1 0x20 DUP3 ADD SWAP2 POP PUSH2 0x516A DUP3 DUP8 PUSH2 0x5097 JUMP JUMPDEST PUSH1 0x14 DUP3 ADD SWAP2 POP PUSH2 0x517A DUP3 DUP7 PUSH2 0x50B8 JUMP JUMPDEST PUSH1 0x20 DUP3 ADD SWAP2 POP PUSH2 0x518A DUP3 DUP6 PUSH2 0x50B8 JUMP JUMPDEST PUSH1 0x20 DUP3 ADD SWAP2 POP PUSH2 0x519A DUP3 DUP5 PUSH2 0x50B8 JUMP JUMPDEST PUSH1 0x20 DUP3 ADD SWAP2 POP DUP2 SWAP1 POP SWAP9 SWAP8 POP POP POP POP POP POP POP POP JUMP JUMPDEST PUSH1 0x0 DUP2 MLOAD SWAP1 POP SWAP2 SWAP1 POP JUMP JUMPDEST PUSH1 0x0 PUSH2 0x51C5 DUP3 PUSH2 0x51AF JUMP JUMPDEST PUSH2 0x51CF DUP2 DUP6 PUSH2 0x4922 JUMP JUMPDEST SWAP4 POP PUSH2 0x51DF DUP2 DUP6 PUSH1 0x20 DUP7 ADD PUSH2 0x4836 JUMP JUMPDEST DUP1 DUP5 ADD SWAP2 POP POP SWAP3 SWAP2 POP POP JUMP JUMPDEST PUSH1 0x0 PUSH2 0x51F7 DUP3 DUP6 PUSH2 0x51BA JUMP JUMPDEST SWAP2 POP PUSH2 0x5203 DUP3 DUP5 PUSH2 0x50B8 JUMP JUMPDEST PUSH1 0x20 DUP3 ADD SWAP2 POP DUP2 SWAP1 POP SWAP4 SWAP3 POP POP POP JUMP JUMPDEST PUSH1 0x0 PUSH2 0x521F DUP3 DUP8 PUSH2 0x5097 JUMP JUMPDEST PUSH1 0x14 DUP3 ADD SWAP2 POP PUSH2 0x522F DUP3 DUP7 PUSH2 0x50B8 JUMP JUMPDEST PUSH1 0x20 DUP3 ADD SWAP2 POP PUSH2 0x523F DUP3 DUP6 PUSH2 0x50B8 JUMP JUMPDEST PUSH1 0x20 DUP3 ADD SWAP2 POP PUSH2 0x524F DUP3 DUP5 PUSH2 0x50B8 JUMP JUMPDEST PUSH1 0x20 DUP3 ADD SWAP2 POP DUP2 SWAP1 POP SWAP6 SWAP5 POP POP POP POP POP JUMP JUMPDEST PUSH1 0x0 PUSH2 0x526D DUP3 DUP12 PUSH2 0x50B8 JUMP JUMPDEST PUSH1 0x20 DUP3 ADD SWAP2 POP PUSH2 0x527D DUP3 DUP11 PUSH2 0x50B8 JUMP JUMPDEST PUSH1 0x20 DUP3 ADD SWAP2 POP PUSH2 0x528D DUP3 DUP10 PUSH2 0x50B8 JUMP JUMPDEST PUSH1 0x20 DUP3 ADD SWAP2 POP PUSH2 0x529D DUP3 DUP9 PUSH2 0x5097 JUMP JUMPDEST PUSH1 0x14 DUP3 ADD SWAP2 POP PUSH2 0x52AD DUP3 DUP8 PUSH2 0x50B8 JUMP JUMPDEST PUSH1 0x20 DUP3 ADD SWAP2 POP PUSH2 0x52BD DUP3 DUP7 PUSH2 0x50B8 JUMP JUMPDEST PUSH1 0x20 DUP3 ADD SWAP2 POP PUSH2 0x52CD DUP3 DUP6 PUSH2 0x50B8 JUMP JUMPDEST PUSH1 0x20 DUP3 ADD SWAP2 POP PUSH2 0x52DD DUP3 DUP5 PUSH2 0x50B8 JUMP JUMPDEST PUSH1 0x20 DUP3 ADD SWAP2 POP DUP2 SWAP1 POP SWAP10 SWAP9 POP POP POP POP POP POP POP POP POP JUMP JUMPDEST PUSH1 0x0 PUSH2 0x52FF DUP3 DUP7 PUSH2 0x5097 JUMP JUMPDEST PUSH1 0x14 DUP3 ADD SWAP2 POP PUSH2 0x530F DUP3 DUP6 PUSH2 0x50B8 JUMP JUMPDEST PUSH1 0x20 DUP3 ADD SWAP2 POP PUSH2 0x531F DUP3 DUP5 PUSH2 0x50B8 JUMP JUMPDEST PUSH1 0x20 DUP3 ADD SWAP2 POP DUP2 SWAP1 POP SWAP5 SWAP4 POP POP POP POP JUMP INVALID LOG2 PUSH5 0x6970667358 0x22 SLT KECCAK256 STATICCALL DELEGATECALL DUP16 0xC9 SELFBALANCE 0xEF BLOCKHASH KECCAK256 ISZERO JUMPDEST SELFDESTRUCT RETURNDATACOPY BYTE COINBASE 0xB9 SHR 0xA7 0xBF MOD DUP7 PUSH21 0x21967FDEC8971DC2E8C1BE64736F6C634300080E00 CALLER "
		},
		"gasEstimates": {
			"creation": {
				"codeDepositCost": "4270000",
				"executionCost": "4955",
				"totalCost": "4274955"
			},
			"external": {
				"checkFinalizeAuctionPreconditions(address,GUTradeManager,TradeLib.FinalizeAuction)": "infinite",
				"checkFinalizeOfferPreconditions(address,GUTradeManager,TradeLib.FinalizeOffer)": "infinite",
				"checkMintToPreconditions(GUCollections,GUTradeManager,TradeLib.MintTo)": "infinite",
				"checkPurchasePreconditions(address,GUTradeManager,TradeLib.FinalizePurchase)": "infinite",
				"getEthSignedMessageHash(bytes32)": "infinite",
				"recoverSigner(bytes32,bytes)": "infinite",
				"splitSignature(bytes)": "infinite",
				"transferERC20(TradeLib.NFTData,address,address,address,address,uint256,uint256)": "infinite",
				"transferOrMintERC1155(TradeLib.NFTData,TradeLib.TransferERC1155Data)": "infinite",
				"verifyFinalizeAuctionSignatures(TradeLib.FinalizeAuction)": "infinite",
				"verifyFinalizeOfferSignatures(TradeLib.FinalizeOffer)": "infinite",
				"verifyPurchaseSignatures(TradeLib.FinalizePurchase)": "infinite"
			},
			"internal": {
				"checkForSupplyOverflow(contract GUCollections,uint256,uint256,uint256)": "infinite",
				"verifyAuctionSignature(address,struct TradeLib.AuctionData memory,bytes memory)": "infinite",
				"verifyAuthBidOfferSignature(address,bytes memory,bytes memory)": "infinite",
				"verifyAuthSignature(address,struct TradeLib.AuthData memory,bytes memory)": "infinite",
				"verifyBidSignature(address,struct TradeLib.BidData memory,bytes memory)": "infinite",
				"verifyNftSignature(address,struct TradeLib.NFTData memory,bytes memory)": "infinite",
				"verifyOfferSignature(address,struct TradeLib.OfferData memory,bytes memory)": "infinite",
				"verifySaleSignature(address,struct TradeLib.SaleData memory,bytes memory)": "infinite"
			}
		},
		"methodIdentifiers": {
			"checkFinalizeAuctionPreconditions(address,GUTradeManager,TradeLib.FinalizeAuction)": "f3326ff5",
			"checkFinalizeOfferPreconditions(address,GUTradeManager,TradeLib.FinalizeOffer)": "179c78b5",
			"checkMintToPreconditions(GUCollections,GUTradeManager,TradeLib.MintTo)": "ed21010d",
			"checkPurchasePreconditions(address,GUTradeManager,TradeLib.FinalizePurchase)": "110ca0ab",
			"getEthSignedMessageHash(bytes32)": "fa540801",
			"recoverSigner(bytes32,bytes)": "97aba7f9",
			"splitSignature(bytes)": "a7bb5803",
			"transferERC20(TradeLib.NFTData,address,address,address,address,uint256,uint256)": "064d4138",
			"transferOrMintERC1155(TradeLib.NFTData,TradeLib.TransferERC1155Data)": "81b405e4",
			"verifyFinalizeAuctionSignatures(TradeLib.FinalizeAuction)": "233dc4eb",
			"verifyFinalizeOfferSignatures(TradeLib.FinalizeOffer)": "1a947093",
			"verifyPurchaseSignatures(TradeLib.FinalizePurchase)": "ef331005"
		}
	},
	"abi": [
		{
			"inputs": [
				{
					"internalType": "address",
					"name": "cancellationsAddress",
					"type": "address"
				},
				{
					"internalType": "contract GUTradeManager",
					"name": "manager",
					"type": "GUTradeManager"
				},
				{
					"components": [
						{
							"internalType": "address",
							"name": "nftSigner",
							"type": "address"
						},
						{
							"components": [
								{
									"internalType": "address",
									"name": "creator",
									"type": "address"
								},
								{
									"internalType": "uint256",
									"name": "nftId",
									"type": "uint256"
								},
								{
									"internalType": "string",
									"name": "cid",
									"type": "string"
								},
								{
									"internalType": "uint256",
									"name": "supply",
									"type": "uint256"
								},
								{
									"internalType": "uint256",
									"name": "royalty",
									"type": "uint256"
								},
								{
									"internalType": "address",
									"name": "nftContract",
									"type": "address"
								}
							],
							"internalType": "struct TradeLib.NFTData",
							"name": "nftData",
							"type": "tuple"
						},
						{
							"internalType": "bytes",
							"name": "nftSignature",
							"type": "bytes"
						},
						{
							"internalType": "address",
							"name": "seller",
							"type": "address"
						},
						{
							"components": [
								{
									"internalType": "uint256",
									"name": "listingId",
									"type": "uint256"
								},
								{
									"internalType": "uint256",
									"name": "nftId",
									"type": "uint256"
								},
								{
									"internalType": "uint256",
									"name": "amount",
									"type": "uint256"
								},
								{
									"internalType": "address",
									"name": "tokenAddress",
									"type": "address"
								},
								{
									"internalType": "uint256",
									"name": "startPrice",
									"type": "uint256"
								},
								{
									"internalType": "uint256",
									"name": "reservePrice",
									"type": "uint256"
								},
								{
									"internalType": "uint256",
									"name": "start",
									"type": "uint256"
								},
								{
									"internalType": "uint256",
									"name": "expiry",
									"type": "uint256"
								}
							],
							"internalType": "struct TradeLib.AuctionData",
							"name": "auction",
							"type": "tuple"
						},
						{
							"internalType": "bytes",
							"name": "auctionSignature",
							"type": "bytes"
						},
						{
							"internalType": "address",
							"name": "authorized",
							"type": "address"
						},
						{
							"components": [
								{
									"internalType": "bytes",
									"name": "signature",
									"type": "bytes"
								},
								{
									"internalType": "uint256",
									"name": "fee",
									"type": "uint256"
								}
							],
							"internalType": "struct TradeLib.AuthData",
							"name": "auth",
							"type": "tuple"
						},
						{
							"internalType": "bytes",
							"name": "authSignature",
							"type": "bytes"
						},
						{
							"internalType": "address",
							"name": "bidder",
							"type": "address"
						},
						{
							"components": [
								{
									"internalType": "address",
									"name": "to",
									"type": "address"
								},
								{
									"internalType": "uint256",
									"name": "listingId",
									"type": "uint256"
								},
								{
									"internalType": "uint256",
									"name": "amount",
									"type": "uint256"
								}
							],
							"internalType": "struct TradeLib.BidData",
							"name": "bid",
							"type": "tuple"
						},
						{
							"internalType": "bytes",
							"name": "bidSignature",
							"type": "bytes"
						},
						{
							"internalType": "address",
							"name": "bidAuth",
							"type": "address"
						},
						{
							"internalType": "bytes",
							"name": "bidAuthSignature",
							"type": "bytes"
						}
					],
					"internalType": "struct TradeLib.FinalizeAuction",
					"name": "data",
					"type": "tuple"
				}
			],
			"name": "checkFinalizeAuctionPreconditions",
			"outputs": [],
			"stateMutability": "view",
			"type": "function"
		},
		{
			"inputs": [
				{
					"internalType": "address",
					"name": "cancellationsAddress",
					"type": "address"
				},
				{
					"internalType": "contract GUTradeManager",
					"name": "manager",
					"type": "GUTradeManager"
				},
				{
					"components": [
						{
							"internalType": "address",
							"name": "nftSigner",
							"type": "address"
						},
						{
							"components": [
								{
									"internalType": "address",
									"name": "creator",
									"type": "address"
								},
								{
									"internalType": "uint256",
									"name": "nftId",
									"type": "uint256"
								},
								{
									"internalType": "string",
									"name": "cid",
									"type": "string"
								},
								{
									"internalType": "uint256",
									"name": "supply",
									"type": "uint256"
								},
								{
									"internalType": "uint256",
									"name": "royalty",
									"type": "uint256"
								},
								{
									"internalType": "address",
									"name": "nftContract",
									"type": "address"
								}
							],
							"internalType": "struct TradeLib.NFTData",
							"name": "nftData",
							"type": "tuple"
						},
						{
							"internalType": "bytes",
							"name": "nftSignature",
							"type": "bytes"
						},
						{
							"internalType": "address",
							"name": "seller",
							"type": "address"
						},
						{
							"components": [
								{
									"internalType": "uint256",
									"name": "listingId",
									"type": "uint256"
								},
								{
									"internalType": "uint256",
									"name": "nftId",
									"type": "uint256"
								},
								{
									"internalType": "uint256",
									"name": "amount",
									"type": "uint256"
								},
								{
									"internalType": "address",
									"name": "tokenAddress",
									"type": "address"
								},
								{
									"internalType": "uint256",
									"name": "price",
									"type": "uint256"
								},
								{
									"internalType": "uint256",
									"name": "start",
									"type": "uint256"
								},
								{
									"internalType": "uint256",
									"name": "expiry",
									"type": "uint256"
								}
							],
							"internalType": "struct TradeLib.SaleData",
							"name": "sale",
							"type": "tuple"
						},
						{
							"internalType": "bytes",
							"name": "saleSignature",
							"type": "bytes"
						},
						{
							"internalType": "address",
							"name": "authorized",
							"type": "address"
						},
						{
							"components": [
								{
									"internalType": "bytes",
									"name": "signature",
									"type": "bytes"
								},
								{
									"internalType": "uint256",
									"name": "fee",
									"type": "uint256"
								}
							],
							"internalType": "struct TradeLib.AuthData",
							"name": "auth",
							"type": "tuple"
						},
						{
							"internalType": "bytes",
							"name": "authSignature",
							"type": "bytes"
						},
						{
							"internalType": "address",
							"name": "offerer",
							"type": "address"
						},
						{
							"components": [
								{
									"internalType": "address",
									"name": "to",
									"type": "address"
								},
								{
									"internalType": "uint256",
									"name": "listingId",
									"type": "uint256"
								},
								{
									"internalType": "uint256",
									"name": "amount",
									"type": "uint256"
								},
								{
									"internalType": "uint256",
									"name": "expiry",
									"type": "uint256"
								}
							],
							"internalType": "struct TradeLib.OfferData",
							"name": "offer",
							"type": "tuple"
						},
						{
							"internalType": "bytes",
							"name": "offerSignature",
							"type": "bytes"
						},
						{
							"internalType": "address",
							"name": "offerAuth",
							"type": "address"
						},
						{
							"internalType": "bytes",
							"name": "offerAuthSignature",
							"type": "bytes"
						}
					],
					"internalType": "struct TradeLib.FinalizeOffer",
					"name": "data",
					"type": "tuple"
				}
			],
			"name": "checkFinalizeOfferPreconditions",
			"outputs": [],
			"stateMutability": "view",
			"type": "function"
		},
		{
			"inputs": [
				{
					"internalType": "contract GUCollections",
					"name": "collections",
					"type": "GUCollections"
				},
				{
					"internalType": "contract GUTradeManager",
					"name": "manager",
					"type": "GUTradeManager"
				},
				{
					"components": [
						{
							"internalType": "address",
							"name": "authorized",
							"type": "address"
						},
						{
							"components": [
								{
									"internalType": "address",
									"name": "creator",
									"type": "address"
								},
								{
									"internalType": "uint256",
									"name": "nftId",
									"type": "uint256"
								},
								{
									"internalType": "string",
									"name": "cid",
									"type": "string"
								},
								{
									"internalType": "uint256",
									"name": "supply",
									"type": "uint256"
								},
								{
									"internalType": "uint256",
									"name": "royalty",
									"type": "uint256"
								},
								{
									"internalType": "address",
									"name": "nftContract",
									"type": "address"
								}
							],
							"internalType": "struct TradeLib.NFTData",
							"name": "nftData",
							"type": "tuple"
						},
						{
							"internalType": "bytes",
							"name": "nftSignature",
							"type": "bytes"
						},
						{
							"internalType": "uint256",
							"name": "amount",
							"type": "uint256"
						},
						{
							"internalType": "address",
							"name": "to",
							"type": "address"
						}
					],
					"internalType": "struct TradeLib.MintTo",
					"name": "data",
					"type": "tuple"
				}
			],
			"name": "checkMintToPreconditions",
			"outputs": [],
			"stateMutability": "view",
			"type": "function"
		},
		{
			"inputs": [
				{
					"internalType": "address",
					"name": "cancellationsAddress",
					"type": "address"
				},
				{
					"internalType": "contract GUTradeManager",
					"name": "manager",
					"type": "GUTradeManager"
				},
				{
					"components": [
						{
							"internalType": "address",
							"name": "nftSigner",
							"type": "address"
						},
						{
							"components": [
								{
									"internalType": "address",
									"name": "creator",
									"type": "address"
								},
								{
									"internalType": "uint256",
									"name": "nftId",
									"type": "uint256"
								},
								{
									"internalType": "string",
									"name": "cid",
									"type": "string"
								},
								{
									"internalType": "uint256",
									"name": "supply",
									"type": "uint256"
								},
								{
									"internalType": "uint256",
									"name": "royalty",
									"type": "uint256"
								},
								{
									"internalType": "address",
									"name": "nftContract",
									"type": "address"
								}
							],
							"internalType": "struct TradeLib.NFTData",
							"name": "nftData",
							"type": "tuple"
						},
						{
							"internalType": "bytes",
							"name": "nftSignature",
							"type": "bytes"
						},
						{
							"internalType": "address",
							"name": "seller",
							"type": "address"
						},
						{
							"components": [
								{
									"internalType": "uint256",
									"name": "listingId",
									"type": "uint256"
								},
								{
									"internalType": "uint256",
									"name": "nftId",
									"type": "uint256"
								},
								{
									"internalType": "uint256",
									"name": "amount",
									"type": "uint256"
								},
								{
									"internalType": "address",
									"name": "tokenAddress",
									"type": "address"
								},
								{
									"internalType": "uint256",
									"name": "price",
									"type": "uint256"
								},
								{
									"internalType": "uint256",
									"name": "start",
									"type": "uint256"
								},
								{
									"internalType": "uint256",
									"name": "expiry",
									"type": "uint256"
								}
							],
							"internalType": "struct TradeLib.SaleData",
							"name": "sale",
							"type": "tuple"
						},
						{
							"internalType": "bytes",
							"name": "saleSignature",
							"type": "bytes"
						},
						{
							"internalType": "address",
							"name": "authorized",
							"type": "address"
						},
						{
							"components": [
								{
									"internalType": "bytes",
									"name": "signature",
									"type": "bytes"
								},
								{
									"internalType": "uint256",
									"name": "fee",
									"type": "uint256"
								}
							],
							"internalType": "struct TradeLib.AuthData",
							"name": "auth",
							"type": "tuple"
						},
						{
							"internalType": "bytes",
							"name": "authSignature",
							"type": "bytes"
						},
						{
							"internalType": "address",
							"name": "to",
							"type": "address"
						}
					],
					"internalType": "struct TradeLib.FinalizePurchase",
					"name": "data",
					"type": "tuple"
				}
			],
			"name": "checkPurchasePreconditions",
			"outputs": [],
			"stateMutability": "view",
			"type": "function"
		},
		{
			"inputs": [
				{
					"internalType": "bytes32",
					"name": "_messageHash",
					"type": "bytes32"
				}
			],
			"name": "getEthSignedMessageHash",
			"outputs": [
				{
					"internalType": "bytes32",
					"name": "",
					"type": "bytes32"
				}
			],
			"stateMutability": "pure",
			"type": "function"
		},
		{
			"inputs": [
				{
					"internalType": "bytes32",
					"name": "_ethSignedMessageHash",
					"type": "bytes32"
				},
				{
					"internalType": "bytes",
					"name": "_signature",
					"type": "bytes"
				}
			],
			"name": "recoverSigner",
			"outputs": [
				{
					"internalType": "address",
					"name": "",
					"type": "address"
				}
			],
			"stateMutability": "pure",
			"type": "function"
		},
		{
			"inputs": [
				{
					"internalType": "bytes",
					"name": "sig",
					"type": "bytes"
				}
			],
			"name": "splitSignature",
			"outputs": [
				{
					"internalType": "bytes32",
					"name": "r",
					"type": "bytes32"
				},
				{
					"internalType": "bytes32",
					"name": "s",
					"type": "bytes32"
				},
				{
					"internalType": "uint8",
					"name": "v",
					"type": "uint8"
				}
			],
			"stateMutability": "pure",
			"type": "function"
		},
		{
			"inputs": [
				{
					"components": [
						{
							"internalType": "address",
							"name": "nftSigner",
							"type": "address"
						},
						{
							"components": [
								{
									"internalType": "address",
									"name": "creator",
									"type": "address"
								},
								{
									"internalType": "uint256",
									"name": "nftId",
									"type": "uint256"
								},
								{
									"internalType": "string",
									"name": "cid",
									"type": "string"
								},
								{
									"internalType": "uint256",
									"name": "supply",
									"type": "uint256"
								},
								{
									"internalType": "uint256",
									"name": "royalty",
									"type": "uint256"
								},
								{
									"internalType": "address",
									"name": "nftContract",
									"type": "address"
								}
							],
							"internalType": "struct TradeLib.NFTData",
							"name": "nftData",
							"type": "tuple"
						},
						{
							"internalType": "bytes",
							"name": "nftSignature",
							"type": "bytes"
						},
						{
							"internalType": "address",
							"name": "seller",
							"type": "address"
						},
						{
							"components": [
								{
									"internalType": "uint256",
									"name": "listingId",
									"type": "uint256"
								},
								{
									"internalType": "uint256",
									"name": "nftId",
									"type": "uint256"
								},
								{
									"internalType": "uint256",
									"name": "amount",
									"type": "uint256"
								},
								{
									"internalType": "address",
									"name": "tokenAddress",
									"type": "address"
								},
								{
									"internalType": "uint256",
									"name": "startPrice",
									"type": "uint256"
								},
								{
									"internalType": "uint256",
									"name": "reservePrice",
									"type": "uint256"
								},
								{
									"internalType": "uint256",
									"name": "start",
									"type": "uint256"
								},
								{
									"internalType": "uint256",
									"name": "expiry",
									"type": "uint256"
								}
							],
							"internalType": "struct TradeLib.AuctionData",
							"name": "auction",
							"type": "tuple"
						},
						{
							"internalType": "bytes",
							"name": "auctionSignature",
							"type": "bytes"
						},
						{
							"internalType": "address",
							"name": "authorized",
							"type": "address"
						},
						{
							"components": [
								{
									"internalType": "bytes",
									"name": "signature",
									"type": "bytes"
								},
								{
									"internalType": "uint256",
									"name": "fee",
									"type": "uint256"
								}
							],
							"internalType": "struct TradeLib.AuthData",
							"name": "auth",
							"type": "tuple"
						},
						{
							"internalType": "bytes",
							"name": "authSignature",
							"type": "bytes"
						},
						{
							"internalType": "address",
							"name": "bidder",
							"type": "address"
						},
						{
							"components": [
								{
									"internalType": "address",
									"name": "to",
									"type": "address"
								},
								{
									"internalType": "uint256",
									"name": "listingId",
									"type": "uint256"
								},
								{
									"internalType": "uint256",
									"name": "amount",
									"type": "uint256"
								}
							],
							"internalType": "struct TradeLib.BidData",
							"name": "bid",
							"type": "tuple"
						},
						{
							"internalType": "bytes",
							"name": "bidSignature",
							"type": "bytes"
						},
						{
							"internalType": "address",
							"name": "bidAuth",
							"type": "address"
						},
						{
							"internalType": "bytes",
							"name": "bidAuthSignature",
							"type": "bytes"
						}
					],
					"internalType": "struct TradeLib.FinalizeAuction",
					"name": "data",
					"type": "tuple"
				}
			],
			"name": "verifyFinalizeAuctionSignatures",
			"outputs": [],
			"stateMutability": "pure",
			"type": "function"
		},
		{
			"inputs": [
				{
					"components": [
						{
							"internalType": "address",
							"name": "nftSigner",
							"type": "address"
						},
						{
							"components": [
								{
									"internalType": "address",
									"name": "creator",
									"type": "address"
								},
								{
									"internalType": "uint256",
									"name": "nftId",
									"type": "uint256"
								},
								{
									"internalType": "string",
									"name": "cid",
									"type": "string"
								},
								{
									"internalType": "uint256",
									"name": "supply",
									"type": "uint256"
								},
								{
									"internalType": "uint256",
									"name": "royalty",
									"type": "uint256"
								},
								{
									"internalType": "address",
									"name": "nftContract",
									"type": "address"
								}
							],
							"internalType": "struct TradeLib.NFTData",
							"name": "nftData",
							"type": "tuple"
						},
						{
							"internalType": "bytes",
							"name": "nftSignature",
							"type": "bytes"
						},
						{
							"internalType": "address",
							"name": "seller",
							"type": "address"
						},
						{
							"components": [
								{
									"internalType": "uint256",
									"name": "listingId",
									"type": "uint256"
								},
								{
									"internalType": "uint256",
									"name": "nftId",
									"type": "uint256"
								},
								{
									"internalType": "uint256",
									"name": "amount",
									"type": "uint256"
								},
								{
									"internalType": "address",
									"name": "tokenAddress",
									"type": "address"
								},
								{
									"internalType": "uint256",
									"name": "price",
									"type": "uint256"
								},
								{
									"internalType": "uint256",
									"name": "start",
									"type": "uint256"
								},
								{
									"internalType": "uint256",
									"name": "expiry",
									"type": "uint256"
								}
							],
							"internalType": "struct TradeLib.SaleData",
							"name": "sale",
							"type": "tuple"
						},
						{
							"internalType": "bytes",
							"name": "saleSignature",
							"type": "bytes"
						},
						{
							"internalType": "address",
							"name": "authorized",
							"type": "address"
						},
						{
							"components": [
								{
									"internalType": "bytes",
									"name": "signature",
									"type": "bytes"
								},
								{
									"internalType": "uint256",
									"name": "fee",
									"type": "uint256"
								}
							],
							"internalType": "struct TradeLib.AuthData",
							"name": "auth",
							"type": "tuple"
						},
						{
							"internalType": "bytes",
							"name": "authSignature",
							"type": "bytes"
						},
						{
							"internalType": "address",
							"name": "offerer",
							"type": "address"
						},
						{
							"components": [
								{
									"internalType": "address",
									"name": "to",
									"type": "address"
								},
								{
									"internalType": "uint256",
									"name": "listingId",
									"type": "uint256"
								},
								{
									"internalType": "uint256",
									"name": "amount",
									"type": "uint256"
								},
								{
									"internalType": "uint256",
									"name": "expiry",
									"type": "uint256"
								}
							],
							"internalType": "struct TradeLib.OfferData",
							"name": "offer",
							"type": "tuple"
						},
						{
							"internalType": "bytes",
							"name": "offerSignature",
							"type": "bytes"
						},
						{
							"internalType": "address",
							"name": "offerAuth",
							"type": "address"
						},
						{
							"internalType": "bytes",
							"name": "offerAuthSignature",
							"type": "bytes"
						}
					],
					"internalType": "struct TradeLib.FinalizeOffer",
					"name": "data",
					"type": "tuple"
				}
			],
			"name": "verifyFinalizeOfferSignatures",
			"outputs": [],
			"stateMutability": "pure",
			"type": "function"
		},
		{
			"inputs": [
				{
					"components": [
						{
							"internalType": "address",
							"name": "nftSigner",
							"type": "address"
						},
						{
							"components": [
								{
									"internalType": "address",
									"name": "creator",
									"type": "address"
								},
								{
									"internalType": "uint256",
									"name": "nftId",
									"type": "uint256"
								},
								{
									"internalType": "string",
									"name": "cid",
									"type": "string"
								},
								{
									"internalType": "uint256",
									"name": "supply",
									"type": "uint256"
								},
								{
									"internalType": "uint256",
									"name": "royalty",
									"type": "uint256"
								},
								{
									"internalType": "address",
									"name": "nftContract",
									"type": "address"
								}
							],
							"internalType": "struct TradeLib.NFTData",
							"name": "nftData",
							"type": "tuple"
						},
						{
							"internalType": "bytes",
							"name": "nftSignature",
							"type": "bytes"
						},
						{
							"internalType": "address",
							"name": "seller",
							"type": "address"
						},
						{
							"components": [
								{
									"internalType": "uint256",
									"name": "listingId",
									"type": "uint256"
								},
								{
									"internalType": "uint256",
									"name": "nftId",
									"type": "uint256"
								},
								{
									"internalType": "uint256",
									"name": "amount",
									"type": "uint256"
								},
								{
									"internalType": "address",
									"name": "tokenAddress",
									"type": "address"
								},
								{
									"internalType": "uint256",
									"name": "price",
									"type": "uint256"
								},
								{
									"internalType": "uint256",
									"name": "start",
									"type": "uint256"
								},
								{
									"internalType": "uint256",
									"name": "expiry",
									"type": "uint256"
								}
							],
							"internalType": "struct TradeLib.SaleData",
							"name": "sale",
							"type": "tuple"
						},
						{
							"internalType": "bytes",
							"name": "saleSignature",
							"type": "bytes"
						},
						{
							"internalType": "address",
							"name": "authorized",
							"type": "address"
						},
						{
							"components": [
								{
									"internalType": "bytes",
									"name": "signature",
									"type": "bytes"
								},
								{
									"internalType": "uint256",
									"name": "fee",
									"type": "uint256"
								}
							],
							"internalType": "struct TradeLib.AuthData",
							"name": "auth",
							"type": "tuple"
						},
						{
							"internalType": "bytes",
							"name": "authSignature",
							"type": "bytes"
						},
						{
							"internalType": "address",
							"name": "to",
							"type": "address"
						}
					],
					"internalType": "struct TradeLib.FinalizePurchase",
					"name": "data",
					"type": "tuple"
				}
			],
			"name": "verifyPurchaseSignatures",
			"outputs": [],
			"stateMutability": "pure",
			"type": "function"
		}
	]
}